{
	"constracts/HealthMediToken.sol": {
		"HMEDERC20Token": {
			"abi": [
				{
					"inputs": [
						{
							"internalType": "string",
							"name": "name_",
							"type": "string"
						},
						{
							"internalType": "string",
							"name": "symbol_",
							"type": "string"
						}
					],
					"stateMutability": "nonpayable",
					"type": "constructor"
				},
				{
					"inputs": [
						{
							"internalType": "address",
							"name": "spender",
							"type": "address"
						},
						{
							"internalType": "uint256",
							"name": "allowance",
							"type": "uint256"
						},
						{
							"internalType": "uint256",
							"name": "needed",
							"type": "uint256"
						}
					],
					"name": "ERC20InsufficientAllowance",
					"type": "error"
				},
				{
					"inputs": [
						{
							"internalType": "address",
							"name": "sender",
							"type": "address"
						},
						{
							"internalType": "uint256",
							"name": "balance",
							"type": "uint256"
						},
						{
							"internalType": "uint256",
							"name": "needed",
							"type": "uint256"
						}
					],
					"name": "ERC20InsufficientBalance",
					"type": "error"
				},
				{
					"inputs": [
						{
							"internalType": "address",
							"name": "approver",
							"type": "address"
						}
					],
					"name": "ERC20InvalidApprover",
					"type": "error"
				},
				{
					"inputs": [
						{
							"internalType": "address",
							"name": "receiver",
							"type": "address"
						}
					],
					"name": "ERC20InvalidReceiver",
					"type": "error"
				},
				{
					"inputs": [
						{
							"internalType": "address",
							"name": "sender",
							"type": "address"
						}
					],
					"name": "ERC20InvalidSender",
					"type": "error"
				},
				{
					"inputs": [
						{
							"internalType": "address",
							"name": "spender",
							"type": "address"
						}
					],
					"name": "ERC20InvalidSpender",
					"type": "error"
				},
				{
					"inputs": [
						{
							"internalType": "address",
							"name": "owner",
							"type": "address"
						}
					],
					"name": "OwnableInvalidOwner",
					"type": "error"
				},
				{
					"inputs": [
						{
							"internalType": "address",
							"name": "account",
							"type": "address"
						}
					],
					"name": "OwnableUnauthorizedAccount",
					"type": "error"
				},
				{
					"anonymous": false,
					"inputs": [
						{
							"indexed": true,
							"internalType": "address",
							"name": "account",
							"type": "address"
						}
					],
					"name": "AccountFrozen",
					"type": "event"
				},
				{
					"anonymous": false,
					"inputs": [
						{
							"indexed": true,
							"internalType": "address",
							"name": "account",
							"type": "address"
						}
					],
					"name": "AccountUnfrozen",
					"type": "event"
				},
				{
					"anonymous": false,
					"inputs": [
						{
							"indexed": true,
							"internalType": "address",
							"name": "owner",
							"type": "address"
						},
						{
							"indexed": true,
							"internalType": "address",
							"name": "spender",
							"type": "address"
						},
						{
							"indexed": false,
							"internalType": "uint256",
							"name": "value",
							"type": "uint256"
						}
					],
					"name": "Approval",
					"type": "event"
				},
				{
					"anonymous": false,
					"inputs": [
						{
							"indexed": true,
							"internalType": "address",
							"name": "account",
							"type": "address"
						},
						{
							"indexed": false,
							"internalType": "uint256",
							"name": "amount",
							"type": "uint256"
						}
					],
					"name": "LockReleased",
					"type": "event"
				},
				{
					"anonymous": false,
					"inputs": [
						{
							"indexed": true,
							"internalType": "address",
							"name": "previousOwner",
							"type": "address"
						},
						{
							"indexed": true,
							"internalType": "address",
							"name": "newOwner",
							"type": "address"
						}
					],
					"name": "OwnershipTransferred",
					"type": "event"
				},
				{
					"anonymous": false,
					"inputs": [
						{
							"indexed": false,
							"internalType": "address",
							"name": "account",
							"type": "address"
						}
					],
					"name": "Paused",
					"type": "event"
				},
				{
					"anonymous": false,
					"inputs": [
						{
							"indexed": true,
							"internalType": "address",
							"name": "from",
							"type": "address"
						},
						{
							"indexed": true,
							"internalType": "address",
							"name": "to",
							"type": "address"
						},
						{
							"indexed": false,
							"internalType": "uint256",
							"name": "value",
							"type": "uint256"
						}
					],
					"name": "Transfer",
					"type": "event"
				},
				{
					"anonymous": false,
					"inputs": [
						{
							"indexed": false,
							"internalType": "address",
							"name": "account",
							"type": "address"
						}
					],
					"name": "Unpaused",
					"type": "event"
				},
				{
					"inputs": [
						{
							"internalType": "address",
							"name": "owner",
							"type": "address"
						},
						{
							"internalType": "address",
							"name": "spender",
							"type": "address"
						}
					],
					"name": "allowance",
					"outputs": [
						{
							"internalType": "uint256",
							"name": "",
							"type": "uint256"
						}
					],
					"stateMutability": "view",
					"type": "function"
				},
				{
					"inputs": [
						{
							"internalType": "address",
							"name": "spender",
							"type": "address"
						},
						{
							"internalType": "uint256",
							"name": "value",
							"type": "uint256"
						}
					],
					"name": "approve",
					"outputs": [
						{
							"internalType": "bool",
							"name": "",
							"type": "bool"
						}
					],
					"stateMutability": "nonpayable",
					"type": "function"
				},
				{
					"inputs": [
						{
							"internalType": "address",
							"name": "account",
							"type": "address"
						}
					],
					"name": "balanceOf",
					"outputs": [
						{
							"internalType": "uint256",
							"name": "",
							"type": "uint256"
						}
					],
					"stateMutability": "view",
					"type": "function"
				},
				{
					"inputs": [
						{
							"internalType": "uint256",
							"name": "value",
							"type": "uint256"
						}
					],
					"name": "burn",
					"outputs": [],
					"stateMutability": "nonpayable",
					"type": "function"
				},
				{
					"inputs": [
						{
							"internalType": "address",
							"name": "account",
							"type": "address"
						},
						{
							"internalType": "uint256",
							"name": "value",
							"type": "uint256"
						}
					],
					"name": "burnFrom",
					"outputs": [],
					"stateMutability": "nonpayable",
					"type": "function"
				},
				{
					"inputs": [],
					"name": "decimals",
					"outputs": [
						{
							"internalType": "uint8",
							"name": "",
							"type": "uint8"
						}
					],
					"stateMutability": "view",
					"type": "function"
				},
				{
					"inputs": [
						{
							"internalType": "address",
							"name": "account",
							"type": "address"
						}
					],
					"name": "freeze",
					"outputs": [],
					"stateMutability": "nonpayable",
					"type": "function"
				},
				{
					"inputs": [
						{
							"internalType": "address",
							"name": "account",
							"type": "address"
						}
					],
					"name": "getLockedAmount",
					"outputs": [
						{
							"internalType": "uint256",
							"name": "",
							"type": "uint256"
						}
					],
					"stateMutability": "view",
					"type": "function"
				},
				{
					"inputs": [
						{
							"internalType": "address",
							"name": "account",
							"type": "address"
						},
						{
							"internalType": "uint256",
							"name": "amount",
							"type": "uint256"
						},
						{
							"internalType": "uint256",
							"name": "releaseTime",
							"type": "uint256"
						}
					],
					"name": "lockup",
					"outputs": [],
					"stateMutability": "nonpayable",
					"type": "function"
				},
				{
					"inputs": [],
					"name": "name",
					"outputs": [
						{
							"internalType": "string",
							"name": "",
							"type": "string"
						}
					],
					"stateMutability": "view",
					"type": "function"
				},
				{
					"inputs": [],
					"name": "owner",
					"outputs": [
						{
							"internalType": "address",
							"name": "",
							"type": "address"
						}
					],
					"stateMutability": "view",
					"type": "function"
				},
				{
					"inputs": [],
					"name": "pause",
					"outputs": [],
					"stateMutability": "nonpayable",
					"type": "function"
				},
				{
					"inputs": [],
					"name": "paused",
					"outputs": [
						{
							"internalType": "bool",
							"name": "",
							"type": "bool"
						}
					],
					"stateMutability": "view",
					"type": "function"
				},
				{
					"inputs": [
						{
							"internalType": "address",
							"name": "account",
							"type": "address"
						}
					],
					"name": "releaseLock",
					"outputs": [],
					"stateMutability": "nonpayable",
					"type": "function"
				},
				{
					"inputs": [],
					"name": "renounceOwnership",
					"outputs": [],
					"stateMutability": "nonpayable",
					"type": "function"
				},
				{
					"inputs": [],
					"name": "symbol",
					"outputs": [
						{
							"internalType": "string",
							"name": "",
							"type": "string"
						}
					],
					"stateMutability": "view",
					"type": "function"
				},
				{
					"inputs": [],
					"name": "totalSupply",
					"outputs": [
						{
							"internalType": "uint256",
							"name": "",
							"type": "uint256"
						}
					],
					"stateMutability": "view",
					"type": "function"
				},
				{
					"inputs": [
						{
							"internalType": "address",
							"name": "to",
							"type": "address"
						},
						{
							"internalType": "uint256",
							"name": "value",
							"type": "uint256"
						}
					],
					"name": "transfer",
					"outputs": [
						{
							"internalType": "bool",
							"name": "",
							"type": "bool"
						}
					],
					"stateMutability": "nonpayable",
					"type": "function"
				},
				{
					"inputs": [
						{
							"internalType": "address",
							"name": "from",
							"type": "address"
						},
						{
							"internalType": "address",
							"name": "to",
							"type": "address"
						},
						{
							"internalType": "uint256",
							"name": "value",
							"type": "uint256"
						}
					],
					"name": "transferFrom",
					"outputs": [
						{
							"internalType": "bool",
							"name": "",
							"type": "bool"
						}
					],
					"stateMutability": "nonpayable",
					"type": "function"
				},
				{
					"inputs": [
						{
							"internalType": "address",
							"name": "newOwner",
							"type": "address"
						}
					],
					"name": "transferOwnership",
					"outputs": [],
					"stateMutability": "nonpayable",
					"type": "function"
				},
				{
					"inputs": [
						{
							"internalType": "address",
							"name": "recipient",
							"type": "address"
						},
						{
							"internalType": "uint256",
							"name": "amount",
							"type": "uint256"
						},
						{
							"internalType": "uint256",
							"name": "lockTime",
							"type": "uint256"
						}
					],
					"name": "transferWithLockUp",
					"outputs": [],
					"stateMutability": "nonpayable",
					"type": "function"
				},
				{
					"inputs": [
						{
							"internalType": "address",
							"name": "account",
							"type": "address"
						}
					],
					"name": "unfreeze",
					"outputs": [],
					"stateMutability": "nonpayable",
					"type": "function"
				},
				{
					"inputs": [],
					"name": "unpause",
					"outputs": [],
					"stateMutability": "nonpayable",
					"type": "function"
				}
			],
			"devdoc": {
				"errors": {
					"ERC20InsufficientAllowance(address,uint256,uint256)": [
						{
							"details": "Indicates a failure with the `spender`’s `allowance`. Used in transfers.",
							"params": {
								"allowance": "Amount of tokens a `spender` is allowed to operate with.",
								"needed": "Minimum amount required to perform a transfer.",
								"spender": "Address that may be allowed to operate on tokens without being their owner."
							}
						}
					],
					"ERC20InsufficientBalance(address,uint256,uint256)": [
						{
							"details": "Indicates an error related to the current `balance` of a `sender`. Used in transfers.",
							"params": {
								"balance": "Current balance for the interacting account.",
								"needed": "Minimum amount required to perform a transfer.",
								"sender": "Address whose tokens are being transferred."
							}
						}
					],
					"ERC20InvalidApprover(address)": [
						{
							"details": "Indicates a failure with the `approver` of a token to be approved. Used in approvals.",
							"params": {
								"approver": "Address initiating an approval operation."
							}
						}
					],
					"ERC20InvalidReceiver(address)": [
						{
							"details": "Indicates a failure with the token `receiver`. Used in transfers.",
							"params": {
								"receiver": "Address to which tokens are being transferred."
							}
						}
					],
					"ERC20InvalidSender(address)": [
						{
							"details": "Indicates a failure with the token `sender`. Used in transfers.",
							"params": {
								"sender": "Address whose tokens are being transferred."
							}
						}
					],
					"ERC20InvalidSpender(address)": [
						{
							"details": "Indicates a failure with the `spender` to be approved. Used in approvals.",
							"params": {
								"spender": "Address that may be allowed to operate on tokens without being their owner."
							}
						}
					],
					"OwnableInvalidOwner(address)": [
						{
							"details": "The owner is not a valid owner account. (eg. `address(0)`)"
						}
					],
					"OwnableUnauthorizedAccount(address)": [
						{
							"details": "The caller account is not authorized to perform an operation."
						}
					]
				},
				"events": {
					"Approval(address,address,uint256)": {
						"details": "Emitted when the allowance of a `spender` for an `owner` is set by a call to {approve}. `value` is the new allowance."
					},
					"Paused(address)": {
						"details": "Emitted when the pause is triggered by `account`."
					},
					"Transfer(address,address,uint256)": {
						"details": "Emitted when `value` tokens are moved from one account (`from`) to another (`to`). Note that `value` may be zero."
					},
					"Unpaused(address)": {
						"details": "Emitted when the pause is lifted by `account`."
					}
				},
				"kind": "dev",
				"methods": {
					"allowance(address,address)": {
						"details": "See {IERC20-allowance}."
					},
					"approve(address,uint256)": {
						"details": "See {IERC20-approve}. NOTE: If `value` is the maximum `uint256`, the allowance is not updated on `transferFrom`. This is semantically equivalent to an infinite approval. Requirements: - `spender` cannot be the zero address."
					},
					"balanceOf(address)": {
						"details": "See {IERC20-balanceOf}."
					},
					"burn(uint256)": {
						"details": "Destroys a `value` amount of tokens from the caller. See {ERC20-_burn}."
					},
					"burnFrom(address,uint256)": {
						"details": "Destroys a `value` amount of tokens from `account`, deducting from the caller's allowance. See {ERC20-_burn} and {ERC20-allowance}. Requirements: - the caller must have allowance for ``accounts``'s tokens of at least `value`."
					},
					"decimals()": {
						"details": "Returns the number of decimals used to get its user representation. For example, if `decimals` equals `2`, a balance of `505` tokens should be displayed to a user as `5.05` (`505 / 10 ** 2`). Tokens usually opt for a value of 18, imitating the relationship between Ether and Wei. This is the default value returned by this function, unless it's overridden. NOTE: This information is only used for _display_ purposes: it in no way affects any of the arithmetic of the contract, including {IERC20-balanceOf} and {IERC20-transfer}."
					},
					"name()": {
						"details": "Returns the name of the token."
					},
					"owner()": {
						"details": "Returns the address of the current owner."
					},
					"paused()": {
						"details": "Returns true if the contract is paused, and false otherwise."
					},
					"renounceOwnership()": {
						"details": "Leaves the contract without owner. It will not be possible to call `onlyOwner` functions. Can only be called by the current owner. NOTE: Renouncing ownership will leave the contract without an owner, thereby disabling any functionality that is only available to the owner."
					},
					"symbol()": {
						"details": "Returns the symbol of the token, usually a shorter version of the name."
					},
					"totalSupply()": {
						"details": "See {IERC20-totalSupply}."
					},
					"transfer(address,uint256)": {
						"details": "See {IERC20-transfer}. Requirements: - `to` cannot be the zero address. - the caller must have a balance of at least `value`."
					},
					"transferFrom(address,address,uint256)": {
						"details": "See {IERC20-transferFrom}. Emits an {Approval} event indicating the updated allowance. This is not required by the EIP. See the note at the beginning of {ERC20}. NOTE: Does not update the allowance if the current allowance is the maximum `uint256`. Requirements: - `from` and `to` cannot be the zero address. - `from` must have a balance of at least `value`. - the caller must have allowance for ``from``'s tokens of at least `value`."
					},
					"transferOwnership(address)": {
						"details": "Transfers ownership of the contract to a new account (`newOwner`). Can only be called by the current owner."
					}
				},
				"version": 1
			},
			"evm": {
				"assembly": "    /* \"constracts/HealthMediToken.sol\":306:4172  contract HMEDERC20Token is ERC20, ERC20Burnable, Pausable, Ownable(msg.sender) {... */\n  mstore(0x40, 0x80)\n    /* \"constracts/HealthMediToken.sol\":964:1120  constructor(string memory name_, string memory symbol_) ERC20(name_, symbol_) {... */\n  callvalue\n  dup1\n  iszero\n  tag_1\n  jumpi\n  0x00\n  dup1\n  revert\ntag_1:\n  pop\n  mload(0x40)\n  sub(codesize, bytecodeSize)\n  dup1\n  bytecodeSize\n  dup4\n  codecopy\n  dup2\n  dup2\n  add\n  0x40\n  mstore\n  dup2\n  add\n  swap1\n  tag_2\n  swap2\n  swap1\n  tag_3\n  jump\t// in\ntag_2:\n    /* \"constracts/HealthMediToken.sol\":373:383  msg.sender */\n  caller\n    /* \"constracts/HealthMediToken.sol\":1026:1031  name_ */\n  dup3\n    /* \"constracts/HealthMediToken.sol\":1033:1040  symbol_ */\n  dup3\n    /* \"@openzeppelin/contracts/token/ERC20/ERC20.sol\":1970:1975  name_ */\n  dup2\n    /* \"@openzeppelin/contracts/token/ERC20/ERC20.sol\":1962:1967  _name */\n  0x03\n    /* \"@openzeppelin/contracts/token/ERC20/ERC20.sol\":1962:1975  _name = name_ */\n  swap1\n  dup2\n  tag_9\n  swap2\n  swap1\n  tag_10\n  jump\t// in\ntag_9:\n  pop\n    /* \"@openzeppelin/contracts/token/ERC20/ERC20.sol\":1995:2002  symbol_ */\n  dup1\n    /* \"@openzeppelin/contracts/token/ERC20/ERC20.sol\":1985:1992  _symbol */\n  0x04\n    /* \"@openzeppelin/contracts/token/ERC20/ERC20.sol\":1985:2002  _symbol = symbol_ */\n  swap1\n  dup2\n  tag_11\n  swap2\n  swap1\n  tag_10\n  jump\t// in\ntag_11:\n  pop\n    /* \"@openzeppelin/contracts/token/ERC20/ERC20.sol\":1896:2009  constructor(string memory name_, string memory symbol_) {... */\n  pop\n  pop\n    /* \"@openzeppelin/contracts/security/Pausable.sol\":1006:1011  false */\n  0x00\n    /* \"@openzeppelin/contracts/security/Pausable.sol\":996:1003  _paused */\n  0x05\n  0x00\n    /* \"@openzeppelin/contracts/security/Pausable.sol\":996:1011  _paused = false */\n  0x0100\n  exp\n  dup2\n  sload\n  dup2\n  0xff\n  mul\n  not\n  and\n  swap1\n  dup4\n  iszero\n  iszero\n  mul\n  or\n  swap1\n  sstore\n  pop\n    /* \"@openzeppelin/contracts/access/Ownable.sol\":1297:1298  0 */\n  0x00\n    /* \"@openzeppelin/contracts/access/Ownable.sol\":1273:1299  initialOwner == address(0) */\n  0xffffffffffffffffffffffffffffffffffffffff\n  and\n    /* \"@openzeppelin/contracts/access/Ownable.sol\":1273:1285  initialOwner */\n  dup2\n    /* \"@openzeppelin/contracts/access/Ownable.sol\":1273:1299  initialOwner == address(0) */\n  0xffffffffffffffffffffffffffffffffffffffff\n  and\n  sub\n    /* \"@openzeppelin/contracts/access/Ownable.sol\":1269:1364  if (initialOwner == address(0)) {... */\n  tag_14\n  jumpi\n    /* \"@openzeppelin/contracts/access/Ownable.sol\":1350:1351  0 */\n  0x00\n    /* \"@openzeppelin/contracts/access/Ownable.sol\":1322:1353  OwnableInvalidOwner(address(0)) */\n  mload(0x40)\n  0x1e4fbdf700000000000000000000000000000000000000000000000000000000\n  dup2\n  mstore\n  0x04\n  add\n  tag_15\n  swap2\n  swap1\n  tag_16\n  jump\t// in\ntag_15:\n  mload(0x40)\n  dup1\n  swap2\n  sub\n  swap1\n  revert\n    /* \"@openzeppelin/contracts/access/Ownable.sol\":1269:1364  if (initialOwner == address(0)) {... */\ntag_14:\n    /* \"@openzeppelin/contracts/access/Ownable.sol\":1373:1405  _transferOwnership(initialOwner) */\n  tag_17\n    /* \"@openzeppelin/contracts/access/Ownable.sol\":1392:1404  initialOwner */\n  dup2\n    /* \"@openzeppelin/contracts/access/Ownable.sol\":1373:1391  _transferOwnership */\n  shl(0x20, tag_18)\n    /* \"@openzeppelin/contracts/access/Ownable.sol\":1373:1405  _transferOwnership(initialOwner) */\n  0x20\n  shr\n  jump\t// in\ntag_17:\n    /* \"@openzeppelin/contracts/access/Ownable.sol\":1225:1412  constructor(address initialOwner) {... */\n  pop\n    /* \"constracts/HealthMediToken.sol\":1052:1113  _mint(msg.sender, _initial_supply * (10**uint256(_decimals))) */\n  tag_20\n    /* \"constracts/HealthMediToken.sol\":1058:1068  msg.sender */\n  caller\n    /* \"constracts/HealthMediToken.sol\":508:510  18 */\n  0x12\n    /* \"constracts/HealthMediToken.sol\":1093:1111  uint256(_decimals) */\n  0xff\n  and\n    /* \"constracts/HealthMediToken.sol\":1089:1091  10 */\n  0x0a\n    /* \"constracts/HealthMediToken.sol\":1089:1111  10**uint256(_decimals) */\n  tag_21\n  swap2\n  swap1\n  tag_22\n  jump\t// in\ntag_21:\n    /* \"constracts/HealthMediToken.sol\":559:573  10_000_000_000 */\n  0x02540be400\n    /* \"constracts/HealthMediToken.sol\":1070:1112  _initial_supply * (10**uint256(_decimals)) */\n  tag_23\n  swap2\n  swap1\n  tag_24\n  jump\t// in\ntag_23:\n    /* \"constracts/HealthMediToken.sol\":1052:1057  _mint */\n  shl(0x20, tag_25)\n    /* \"constracts/HealthMediToken.sol\":1052:1113  _mint(msg.sender, _initial_supply * (10**uint256(_decimals))) */\n  0x20\n  shr\n  jump\t// in\ntag_20:\n    /* \"constracts/HealthMediToken.sol\":964:1120  constructor(string memory name_, string memory symbol_) ERC20(name_, symbol_) {... */\n  pop\n  pop\n    /* \"constracts/HealthMediToken.sol\":306:4172  contract HMEDERC20Token is ERC20, ERC20Burnable, Pausable, Ownable(msg.sender) {... */\n  jump(tag_26)\n    /* \"@openzeppelin/contracts/access/Ownable.sol\":2912:3099  function _transferOwnership(address newOwner) internal virtual {... */\ntag_18:\n    /* \"@openzeppelin/contracts/access/Ownable.sol\":2985:3001  address oldOwner */\n  0x00\n    /* \"@openzeppelin/contracts/access/Ownable.sol\":3004:3010  _owner */\n  0x05\n  0x01\n  swap1\n  sload\n  swap1\n  0x0100\n  exp\n  swap1\n  div\n  0xffffffffffffffffffffffffffffffffffffffff\n  and\n    /* \"@openzeppelin/contracts/access/Ownable.sol\":2985:3010  address oldOwner = _owner */\n  swap1\n  pop\n    /* \"@openzeppelin/contracts/access/Ownable.sol\":3029:3037  newOwner */\n  dup2\n    /* \"@openzeppelin/contracts/access/Ownable.sol\":3020:3026  _owner */\n  0x05\n  0x01\n    /* \"@openzeppelin/contracts/access/Ownable.sol\":3020:3037  _owner = newOwner */\n  0x0100\n  exp\n  dup2\n  sload\n  dup2\n  0xffffffffffffffffffffffffffffffffffffffff\n  mul\n  not\n  and\n  swap1\n  dup4\n  0xffffffffffffffffffffffffffffffffffffffff\n  and\n  mul\n  or\n  swap1\n  sstore\n  pop\n    /* \"@openzeppelin/contracts/access/Ownable.sol\":3083:3091  newOwner */\n  dup2\n    /* \"@openzeppelin/contracts/access/Ownable.sol\":3052:3092  OwnershipTransferred(oldOwner, newOwner) */\n  0xffffffffffffffffffffffffffffffffffffffff\n  and\n    /* \"@openzeppelin/contracts/access/Ownable.sol\":3073:3081  oldOwner */\n  dup2\n    /* \"@openzeppelin/contracts/access/Ownable.sol\":3052:3092  OwnershipTransferred(oldOwner, newOwner) */\n  0xffffffffffffffffffffffffffffffffffffffff\n  and\n  0x8be0079c531659141344cd1fd0a4f28419497f9722a3daafe3b4186f6b6457e0\n  mload(0x40)\n  mload(0x40)\n  dup1\n  swap2\n  sub\n  swap1\n  log3\n    /* \"@openzeppelin/contracts/access/Ownable.sol\":2975:3099  {... */\n  pop\n    /* \"@openzeppelin/contracts/access/Ownable.sol\":2912:3099  function _transferOwnership(address newOwner) internal virtual {... */\n  pop\n  jump\t// out\n    /* \"@openzeppelin/contracts/token/ERC20/ERC20.sol\":7730:7938  function _mint(address account, uint256 value) internal {... */\ntag_25:\n    /* \"@openzeppelin/contracts/token/ERC20/ERC20.sol\":7819:7820  0 */\n  0x00\n    /* \"@openzeppelin/contracts/token/ERC20/ERC20.sol\":7800:7821  account == address(0) */\n  0xffffffffffffffffffffffffffffffffffffffff\n  and\n    /* \"@openzeppelin/contracts/token/ERC20/ERC20.sol\":7800:7807  account */\n  dup3\n    /* \"@openzeppelin/contracts/token/ERC20/ERC20.sol\":7800:7821  account == address(0) */\n  0xffffffffffffffffffffffffffffffffffffffff\n  and\n  sub\n    /* \"@openzeppelin/contracts/token/ERC20/ERC20.sol\":7796:7887  if (account == address(0)) {... */\n  tag_29\n  jumpi\n    /* \"@openzeppelin/contracts/token/ERC20/ERC20.sol\":7873:7874  0 */\n  0x00\n    /* \"@openzeppelin/contracts/token/ERC20/ERC20.sol\":7844:7876  ERC20InvalidReceiver(address(0)) */\n  mload(0x40)\n  0xec442f0500000000000000000000000000000000000000000000000000000000\n  dup2\n  mstore\n  0x04\n  add\n  tag_30\n  swap2\n  swap1\n  tag_16\n  jump\t// in\ntag_30:\n  mload(0x40)\n  dup1\n  swap2\n  sub\n  swap1\n  revert\n    /* \"@openzeppelin/contracts/token/ERC20/ERC20.sol\":7796:7887  if (account == address(0)) {... */\ntag_29:\n    /* \"@openzeppelin/contracts/token/ERC20/ERC20.sol\":7896:7931  _update(address(0), account, value) */\n  tag_31\n    /* \"@openzeppelin/contracts/token/ERC20/ERC20.sol\":7912:7913  0 */\n  0x00\n    /* \"@openzeppelin/contracts/token/ERC20/ERC20.sol\":7916:7923  account */\n  dup4\n    /* \"@openzeppelin/contracts/token/ERC20/ERC20.sol\":7925:7930  value */\n  dup4\n    /* \"@openzeppelin/contracts/token/ERC20/ERC20.sol\":7896:7903  _update */\n  shl(0x20, tag_32)\n    /* \"@openzeppelin/contracts/token/ERC20/ERC20.sol\":7896:7931  _update(address(0), account, value) */\n  0x20\n  shr\n  jump\t// in\ntag_31:\n    /* \"@openzeppelin/contracts/token/ERC20/ERC20.sol\":7730:7938  function _mint(address account, uint256 value) internal {... */\n  pop\n  pop\n  jump\t// out\n    /* \"constracts/HealthMediToken.sol\":1126:1659  function _update(address from, address to, uint256 amount) internal override {... */\ntag_32:\n    /* \"constracts/HealthMediToken.sol\":1323:1324  0 */\n  0x00\n    /* \"constracts/HealthMediToken.sol\":1307:1325  from != address(0) */\n  0xffffffffffffffffffffffffffffffffffffffff\n  and\n    /* \"constracts/HealthMediToken.sol\":1307:1311  from */\n  dup4\n    /* \"constracts/HealthMediToken.sol\":1307:1325  from != address(0) */\n  0xffffffffffffffffffffffffffffffffffffffff\n  and\n  eq\n  iszero\n    /* \"constracts/HealthMediToken.sol\":1307:1345  from != address(0) && to != address(0) */\n  dup1\n  iszero\n  tag_34\n  jumpi\n  pop\n    /* \"constracts/HealthMediToken.sol\":1343:1344  0 */\n  0x00\n    /* \"constracts/HealthMediToken.sol\":1329:1345  to != address(0) */\n  0xffffffffffffffffffffffffffffffffffffffff\n  and\n    /* \"constracts/HealthMediToken.sol\":1329:1331  to */\n  dup3\n    /* \"constracts/HealthMediToken.sol\":1329:1345  to != address(0) */\n  0xffffffffffffffffffffffffffffffffffffffff\n  and\n  eq\n  iszero\n    /* \"constracts/HealthMediToken.sol\":1307:1345  from != address(0) && to != address(0) */\ntag_34:\n    /* \"constracts/HealthMediToken.sol\":1304:1603  if(from != address(0) && to != address(0)) {... */\n  iszero\n  tag_35\n  jumpi\n    /* \"constracts/HealthMediToken.sol\":1370:1378  paused() */\n  tag_36\n    /* \"constracts/HealthMediToken.sol\":1370:1376  paused */\n  shl(0x20, tag_37)\n    /* \"constracts/HealthMediToken.sol\":1370:1378  paused() */\n  0x20\n  shr\n  jump\t// in\ntag_36:\n    /* \"constracts/HealthMediToken.sol\":1369:1378  !paused() */\n  iszero\n    /* \"constracts/HealthMediToken.sol\":1369:1403  !paused() || msg.sender == owner() */\n  dup1\n  tag_38\n  jumpi\n  pop\n    /* \"constracts/HealthMediToken.sol\":1396:1403  owner() */\n  tag_39\n    /* \"constracts/HealthMediToken.sol\":1396:1401  owner */\n  shl(0x20, tag_40)\n    /* \"constracts/HealthMediToken.sol\":1396:1403  owner() */\n  0x20\n  shr\n  jump\t// in\ntag_39:\n    /* \"constracts/HealthMediToken.sol\":1382:1403  msg.sender == owner() */\n  0xffffffffffffffffffffffffffffffffffffffff\n  and\n    /* \"constracts/HealthMediToken.sol\":1382:1392  msg.sender */\n  caller\n    /* \"constracts/HealthMediToken.sol\":1382:1403  msg.sender == owner() */\n  0xffffffffffffffffffffffffffffffffffffffff\n  and\n  eq\n    /* \"constracts/HealthMediToken.sol\":1369:1403  !paused() || msg.sender == owner() */\ntag_38:\n    /* \"constracts/HealthMediToken.sol\":1361:1435  require(!paused() || msg.sender == owner(), \"Token transfer while paused\") */\n  tag_41\n  jumpi\n  mload(0x40)\n  0x08c379a000000000000000000000000000000000000000000000000000000000\n  dup2\n  mstore\n  0x04\n  add\n  tag_42\n  swap1\n  tag_43\n  jump\t// in\ntag_42:\n  mload(0x40)\n  dup1\n  swap2\n  sub\n  swap1\n  revert\ntag_41:\n    /* \"constracts/HealthMediToken.sol\":1508:1532  _checkLock(from, amount) */\n  tag_44\n    /* \"constracts/HealthMediToken.sol\":1519:1523  from */\n  dup4\n    /* \"constracts/HealthMediToken.sol\":1525:1531  amount */\n  dup3\n    /* \"constracts/HealthMediToken.sol\":1508:1518  _checkLock */\n  shl(0x20, tag_45)\n    /* \"constracts/HealthMediToken.sol\":1508:1532  _checkLock(from, amount) */\n  0x20\n  shr\n  jump\t// in\ntag_44:\n    /* \"constracts/HealthMediToken.sol\":1500:1592  require(_checkLock(from, amount), \"ERC20Lockable: transfer amount exceeds unlocked balance\") */\n  tag_46\n  jumpi\n  mload(0x40)\n  0x08c379a000000000000000000000000000000000000000000000000000000000\n  dup2\n  mstore\n  0x04\n  add\n  tag_47\n  swap1\n  tag_48\n  jump\t// in\ntag_47:\n  mload(0x40)\n  dup1\n  swap2\n  sub\n  swap1\n  revert\ntag_46:\n    /* \"constracts/HealthMediToken.sol\":1304:1603  if(from != address(0) && to != address(0)) {... */\ntag_35:\n    /* \"constracts/HealthMediToken.sol\":1621:1652  super._update(from, to, amount) */\n  tag_49\n    /* \"constracts/HealthMediToken.sol\":1635:1639  from */\n  dup4\n    /* \"constracts/HealthMediToken.sol\":1641:1643  to */\n  dup4\n    /* \"constracts/HealthMediToken.sol\":1645:1651  amount */\n  dup4\n    /* \"constracts/HealthMediToken.sol\":1621:1634  super._update */\n  shl(0x20, tag_50)\n    /* \"constracts/HealthMediToken.sol\":1621:1652  super._update(from, to, amount) */\n  0x20\n  shr\n  jump\t// in\ntag_49:\n    /* \"constracts/HealthMediToken.sol\":1126:1659  function _update(address from, address to, uint256 amount) internal override {... */\n  pop\n  pop\n  pop\n  jump\t// out\n    /* \"@openzeppelin/contracts/security/Pausable.sol\":1615:1699  function paused() public view virtual returns (bool) {... */\ntag_37:\n    /* \"@openzeppelin/contracts/security/Pausable.sol\":1662:1666  bool */\n  0x00\n    /* \"@openzeppelin/contracts/security/Pausable.sol\":1685:1692  _paused */\n  0x05\n  0x00\n  swap1\n  sload\n  swap1\n  0x0100\n  exp\n  swap1\n  div\n  0xff\n  and\n    /* \"@openzeppelin/contracts/security/Pausable.sol\":1678:1692  return _paused */\n  swap1\n  pop\n    /* \"@openzeppelin/contracts/security/Pausable.sol\":1615:1699  function paused() public view virtual returns (bool) {... */\n  swap1\n  jump\t// out\n    /* \"@openzeppelin/contracts/access/Ownable.sol\":1638:1723  function owner() public view virtual returns (address) {... */\ntag_40:\n    /* \"@openzeppelin/contracts/access/Ownable.sol\":1684:1691  address */\n  0x00\n    /* \"@openzeppelin/contracts/access/Ownable.sol\":1710:1716  _owner */\n  0x05\n  0x01\n  swap1\n  sload\n  swap1\n  0x0100\n  exp\n  swap1\n  div\n  0xffffffffffffffffffffffffffffffffffffffff\n  and\n    /* \"@openzeppelin/contracts/access/Ownable.sol\":1703:1716  return _owner */\n  swap1\n  pop\n    /* \"@openzeppelin/contracts/access/Ownable.sol\":1638:1723  function owner() public view virtual returns (address) {... */\n  swap1\n  jump\t// out\n    /* \"constracts/HealthMediToken.sol\":3240:3808  function _checkLock(address from, uint256 amount) private view returns (bool) {... */\ntag_45:\n    /* \"constracts/HealthMediToken.sol\":3312:3316  bool */\n  0x00\n    /* \"constracts/HealthMediToken.sol\":3328:3348  uint256 lockedAmount */\n  dup1\n    /* \"constracts/HealthMediToken.sol\":3351:3352  0 */\n  0x00\n    /* \"constracts/HealthMediToken.sol\":3328:3352  uint256 lockedAmount = 0 */\n  swap1\n  pop\n    /* \"constracts/HealthMediToken.sol\":3456:3465  uint256 i */\n  0x00\n    /* \"constracts/HealthMediToken.sol\":3451:3647  for (uint256 i = 0; i < _locks[from].length; i++) {... */\ntag_54:\n    /* \"constracts/HealthMediToken.sol\":3475:3481  _locks */\n  0x07\n    /* \"constracts/HealthMediToken.sol\":3475:3487  _locks[from] */\n  0x00\n    /* \"constracts/HealthMediToken.sol\":3482:3486  from */\n  dup7\n    /* \"constracts/HealthMediToken.sol\":3475:3487  _locks[from] */\n  0xffffffffffffffffffffffffffffffffffffffff\n  and\n  0xffffffffffffffffffffffffffffffffffffffff\n  and\n  dup2\n  mstore\n  0x20\n  add\n  swap1\n  dup2\n  mstore\n  0x20\n  add\n  0x00\n  keccak256\n    /* \"constracts/HealthMediToken.sol\":3475:3494  _locks[from].length */\n  dup1\n  sload\n  swap1\n  pop\n    /* \"constracts/HealthMediToken.sol\":3471:3472  i */\n  dup2\n    /* \"constracts/HealthMediToken.sol\":3471:3494  i < _locks[from].length */\n  lt\n    /* \"constracts/HealthMediToken.sol\":3451:3647  for (uint256 i = 0; i < _locks[from].length; i++) {... */\n  iszero\n  tag_55\n  jumpi\n    /* \"constracts/HealthMediToken.sol\":3549:3564  block.timestamp */\n  timestamp\n    /* \"constracts/HealthMediToken.sol\":3519:3525  _locks */\n  0x07\n    /* \"constracts/HealthMediToken.sol\":3519:3531  _locks[from] */\n  0x00\n    /* \"constracts/HealthMediToken.sol\":3526:3530  from */\n  dup8\n    /* \"constracts/HealthMediToken.sol\":3519:3531  _locks[from] */\n  0xffffffffffffffffffffffffffffffffffffffff\n  and\n  0xffffffffffffffffffffffffffffffffffffffff\n  and\n  dup2\n  mstore\n  0x20\n  add\n  swap1\n  dup2\n  mstore\n  0x20\n  add\n  0x00\n  keccak256\n    /* \"constracts/HealthMediToken.sol\":3532:3533  i */\n  dup3\n    /* \"constracts/HealthMediToken.sol\":3519:3534  _locks[from][i] */\n  dup2\n  sload\n  dup2\n  lt\n  tag_57\n  jumpi\n  tag_58\n  tag_59\n  jump\t// in\ntag_58:\ntag_57:\n  swap1\n  0x00\n  mstore\n  keccak256(0x00, 0x20)\n  swap1\n  0x02\n  mul\n  add\n    /* \"constracts/HealthMediToken.sol\":3519:3546  _locks[from][i].releaseTime */\n  0x01\n  add\n  sload\n    /* \"constracts/HealthMediToken.sol\":3519:3564  _locks[from][i].releaseTime > block.timestamp */\n  gt\n    /* \"constracts/HealthMediToken.sol\":3515:3637  if (_locks[from][i].releaseTime > block.timestamp) {... */\n  iszero\n  tag_61\n  jumpi\n    /* \"constracts/HealthMediToken.sol\":3600:3606  _locks */\n  0x07\n    /* \"constracts/HealthMediToken.sol\":3600:3612  _locks[from] */\n  0x00\n    /* \"constracts/HealthMediToken.sol\":3607:3611  from */\n  dup7\n    /* \"constracts/HealthMediToken.sol\":3600:3612  _locks[from] */\n  0xffffffffffffffffffffffffffffffffffffffff\n  and\n  0xffffffffffffffffffffffffffffffffffffffff\n  and\n  dup2\n  mstore\n  0x20\n  add\n  swap1\n  dup2\n  mstore\n  0x20\n  add\n  0x00\n  keccak256\n    /* \"constracts/HealthMediToken.sol\":3613:3614  i */\n  dup2\n    /* \"constracts/HealthMediToken.sol\":3600:3615  _locks[from][i] */\n  dup2\n  sload\n  dup2\n  lt\n  tag_62\n  jumpi\n  tag_63\n  tag_59\n  jump\t// in\ntag_63:\ntag_62:\n  swap1\n  0x00\n  mstore\n  keccak256(0x00, 0x20)\n  swap1\n  0x02\n  mul\n  add\n    /* \"constracts/HealthMediToken.sol\":3600:3622  _locks[from][i].amount */\n  0x00\n  add\n  sload\n    /* \"constracts/HealthMediToken.sol\":3584:3622  lockedAmount += _locks[from][i].amount */\n  dup3\n  tag_65\n  swap2\n  swap1\n  tag_66\n  jump\t// in\ntag_65:\n  swap2\n  pop\n    /* \"constracts/HealthMediToken.sol\":3515:3637  if (_locks[from][i].releaseTime > block.timestamp) {... */\ntag_61:\n    /* \"constracts/HealthMediToken.sol\":3496:3499  i++ */\n  dup1\n  dup1\n  0x01\n  add\n  swap2\n  pop\n  pop\n    /* \"constracts/HealthMediToken.sol\":3451:3647  for (uint256 i = 0; i < _locks[from].length; i++) {... */\n  jump(tag_54)\ntag_55:\n  pop\n    /* \"constracts/HealthMediToken.sol\":3795:3801  amount */\n  dup3\n    /* \"constracts/HealthMediToken.sol\":3779:3791  lockedAmount */\n  dup2\n    /* \"constracts/HealthMediToken.sol\":3761:3776  balanceOf(from) */\n  tag_67\n    /* \"constracts/HealthMediToken.sol\":3771:3775  from */\n  dup7\n    /* \"constracts/HealthMediToken.sol\":3761:3770  balanceOf */\n  shl(0x20, tag_68)\n    /* \"constracts/HealthMediToken.sol\":3761:3776  balanceOf(from) */\n  0x20\n  shr\n  jump\t// in\ntag_67:\n    /* \"constracts/HealthMediToken.sol\":3761:3791  balanceOf(from) - lockedAmount */\n  tag_69\n  swap2\n  swap1\n  tag_70\n  jump\t// in\ntag_69:\n    /* \"constracts/HealthMediToken.sol\":3761:3801  balanceOf(from) - lockedAmount >= amount */\n  lt\n  iszero\n    /* \"constracts/HealthMediToken.sol\":3754:3801  return balanceOf(from) - lockedAmount >= amount */\n  swap2\n  pop\n  pop\n    /* \"constracts/HealthMediToken.sol\":3240:3808  function _checkLock(address from, uint256 amount) private view returns (bool) {... */\n  swap3\n  swap2\n  pop\n  pop\n  jump\t// out\n    /* \"@openzeppelin/contracts/token/ERC20/ERC20.sol\":6280:7387  function _update(address from, address to, uint256 value) internal virtual {... */\ntag_50:\n    /* \"@openzeppelin/contracts/token/ERC20/ERC20.sol\":6385:6386  0 */\n  0x00\n    /* \"@openzeppelin/contracts/token/ERC20/ERC20.sol\":6369:6387  from == address(0) */\n  0xffffffffffffffffffffffffffffffffffffffff\n  and\n    /* \"@openzeppelin/contracts/token/ERC20/ERC20.sol\":6369:6373  from */\n  dup4\n    /* \"@openzeppelin/contracts/token/ERC20/ERC20.sol\":6369:6387  from == address(0) */\n  0xffffffffffffffffffffffffffffffffffffffff\n  and\n  sub\n    /* \"@openzeppelin/contracts/token/ERC20/ERC20.sol\":6365:6905  if (from == address(0)) {... */\n  tag_72\n  jumpi\n    /* \"@openzeppelin/contracts/token/ERC20/ERC20.sol\":6521:6526  value */\n  dup1\n    /* \"@openzeppelin/contracts/token/ERC20/ERC20.sol\":6505:6517  _totalSupply */\n  0x02\n  0x00\n    /* \"@openzeppelin/contracts/token/ERC20/ERC20.sol\":6505:6526  _totalSupply += value */\n  dup3\n  dup3\n  sload\n  tag_73\n  swap2\n  swap1\n  tag_66\n  jump\t// in\ntag_73:\n  swap3\n  pop\n  pop\n  dup2\n  swap1\n  sstore\n  pop\n    /* \"@openzeppelin/contracts/token/ERC20/ERC20.sol\":6365:6905  if (from == address(0)) {... */\n  jump(tag_74)\ntag_72:\n    /* \"@openzeppelin/contracts/token/ERC20/ERC20.sol\":6557:6576  uint256 fromBalance */\n  0x00\n    /* \"@openzeppelin/contracts/token/ERC20/ERC20.sol\":6579:6588  _balances */\n  dup1\n    /* \"@openzeppelin/contracts/token/ERC20/ERC20.sol\":6579:6594  _balances[from] */\n  0x00\n    /* \"@openzeppelin/contracts/token/ERC20/ERC20.sol\":6589:6593  from */\n  dup6\n    /* \"@openzeppelin/contracts/token/ERC20/ERC20.sol\":6579:6594  _balances[from] */\n  0xffffffffffffffffffffffffffffffffffffffff\n  and\n  0xffffffffffffffffffffffffffffffffffffffff\n  and\n  dup2\n  mstore\n  0x20\n  add\n  swap1\n  dup2\n  mstore\n  0x20\n  add\n  0x00\n  keccak256\n  sload\n    /* \"@openzeppelin/contracts/token/ERC20/ERC20.sol\":6557:6594  uint256 fromBalance = _balances[from] */\n  swap1\n  pop\n    /* \"@openzeppelin/contracts/token/ERC20/ERC20.sol\":6626:6631  value */\n  dup2\n    /* \"@openzeppelin/contracts/token/ERC20/ERC20.sol\":6612:6623  fromBalance */\n  dup2\n    /* \"@openzeppelin/contracts/token/ERC20/ERC20.sol\":6612:6631  fromBalance < value */\n  lt\n    /* \"@openzeppelin/contracts/token/ERC20/ERC20.sol\":6608:6723  if (fromBalance < value) {... */\n  iszero\n  tag_75\n  jumpi\n    /* \"@openzeppelin/contracts/token/ERC20/ERC20.sol\":6683:6687  from */\n  dup4\n    /* \"@openzeppelin/contracts/token/ERC20/ERC20.sol\":6689:6700  fromBalance */\n  dup2\n    /* \"@openzeppelin/contracts/token/ERC20/ERC20.sol\":6702:6707  value */\n  dup4\n    /* \"@openzeppelin/contracts/token/ERC20/ERC20.sol\":6658:6708  ERC20InsufficientBalance(from, fromBalance, value) */\n  mload(0x40)\n  0xe450d38c00000000000000000000000000000000000000000000000000000000\n  dup2\n  mstore\n  0x04\n  add\n  tag_76\n  swap4\n  swap3\n  swap2\n  swap1\n  tag_77\n  jump\t// in\ntag_76:\n  mload(0x40)\n  dup1\n  swap2\n  sub\n  swap1\n  revert\n    /* \"@openzeppelin/contracts/token/ERC20/ERC20.sol\":6608:6723  if (fromBalance < value) {... */\ntag_75:\n    /* \"@openzeppelin/contracts/token/ERC20/ERC20.sol\":6875:6880  value */\n  dup2\n    /* \"@openzeppelin/contracts/token/ERC20/ERC20.sol\":6861:6872  fromBalance */\n  dup2\n    /* \"@openzeppelin/contracts/token/ERC20/ERC20.sol\":6861:6880  fromBalance - value */\n  sub\n    /* \"@openzeppelin/contracts/token/ERC20/ERC20.sol\":6843:6852  _balances */\n  0x00\n    /* \"@openzeppelin/contracts/token/ERC20/ERC20.sol\":6843:6858  _balances[from] */\n  dup1\n    /* \"@openzeppelin/contracts/token/ERC20/ERC20.sol\":6853:6857  from */\n  dup7\n    /* \"@openzeppelin/contracts/token/ERC20/ERC20.sol\":6843:6858  _balances[from] */\n  0xffffffffffffffffffffffffffffffffffffffff\n  and\n  0xffffffffffffffffffffffffffffffffffffffff\n  and\n  dup2\n  mstore\n  0x20\n  add\n  swap1\n  dup2\n  mstore\n  0x20\n  add\n  0x00\n  keccak256\n    /* \"@openzeppelin/contracts/token/ERC20/ERC20.sol\":6843:6880  _balances[from] = fromBalance - value */\n  dup2\n  swap1\n  sstore\n  pop\n    /* \"@openzeppelin/contracts/token/ERC20/ERC20.sol\":6543:6905  {... */\n  pop\n    /* \"@openzeppelin/contracts/token/ERC20/ERC20.sol\":6365:6905  if (from == address(0)) {... */\ntag_74:\n    /* \"@openzeppelin/contracts/token/ERC20/ERC20.sol\":6933:6934  0 */\n  0x00\n    /* \"@openzeppelin/contracts/token/ERC20/ERC20.sol\":6919:6935  to == address(0) */\n  0xffffffffffffffffffffffffffffffffffffffff\n  and\n    /* \"@openzeppelin/contracts/token/ERC20/ERC20.sol\":6919:6921  to */\n  dup3\n    /* \"@openzeppelin/contracts/token/ERC20/ERC20.sol\":6919:6935  to == address(0) */\n  0xffffffffffffffffffffffffffffffffffffffff\n  and\n  sub\n    /* \"@openzeppelin/contracts/token/ERC20/ERC20.sol\":6915:7340  if (to == address(0)) {... */\n  tag_78\n  jumpi\n    /* \"@openzeppelin/contracts/token/ERC20/ERC20.sol\":7098:7103  value */\n  dup1\n    /* \"@openzeppelin/contracts/token/ERC20/ERC20.sol\":7082:7094  _totalSupply */\n  0x02\n  0x00\n    /* \"@openzeppelin/contracts/token/ERC20/ERC20.sol\":7082:7103  _totalSupply -= value */\n  dup3\n  dup3\n  sload\n  sub\n  swap3\n  pop\n  pop\n  dup2\n  swap1\n  sstore\n  pop\n    /* \"@openzeppelin/contracts/token/ERC20/ERC20.sol\":6915:7340  if (to == address(0)) {... */\n  jump(tag_79)\ntag_78:\n    /* \"@openzeppelin/contracts/token/ERC20/ERC20.sol\":7310:7315  value */\n  dup1\n    /* \"@openzeppelin/contracts/token/ERC20/ERC20.sol\":7293:7302  _balances */\n  0x00\n    /* \"@openzeppelin/contracts/token/ERC20/ERC20.sol\":7293:7306  _balances[to] */\n  dup1\n    /* \"@openzeppelin/contracts/token/ERC20/ERC20.sol\":7303:7305  to */\n  dup5\n    /* \"@openzeppelin/contracts/token/ERC20/ERC20.sol\":7293:7306  _balances[to] */\n  0xffffffffffffffffffffffffffffffffffffffff\n  and\n  0xffffffffffffffffffffffffffffffffffffffff\n  and\n  dup2\n  mstore\n  0x20\n  add\n  swap1\n  dup2\n  mstore\n  0x20\n  add\n  0x00\n  keccak256\n  0x00\n    /* \"@openzeppelin/contracts/token/ERC20/ERC20.sol\":7293:7315  _balances[to] += value */\n  dup3\n  dup3\n  sload\n  add\n  swap3\n  pop\n  pop\n  dup2\n  swap1\n  sstore\n  pop\n    /* \"@openzeppelin/contracts/token/ERC20/ERC20.sol\":6915:7340  if (to == address(0)) {... */\ntag_79:\n    /* \"@openzeppelin/contracts/token/ERC20/ERC20.sol\":7370:7372  to */\n  dup2\n    /* \"@openzeppelin/contracts/token/ERC20/ERC20.sol\":7355:7380  Transfer(from, to, value) */\n  0xffffffffffffffffffffffffffffffffffffffff\n  and\n    /* \"@openzeppelin/contracts/token/ERC20/ERC20.sol\":7364:7368  from */\n  dup4\n    /* \"@openzeppelin/contracts/token/ERC20/ERC20.sol\":7355:7380  Transfer(from, to, value) */\n  0xffffffffffffffffffffffffffffffffffffffff\n  and\n  0xddf252ad1be2c89b69c2b068fc378daa952ba7f163c4a11628f55a4df523b3ef\n    /* \"@openzeppelin/contracts/token/ERC20/ERC20.sol\":7374:7379  value */\n  dup4\n    /* \"@openzeppelin/contracts/token/ERC20/ERC20.sol\":7355:7380  Transfer(from, to, value) */\n  mload(0x40)\n  tag_80\n  swap2\n  swap1\n  tag_81\n  jump\t// in\ntag_80:\n  mload(0x40)\n  dup1\n  swap2\n  sub\n  swap1\n  log3\n    /* \"@openzeppelin/contracts/token/ERC20/ERC20.sol\":6280:7387  function _update(address from, address to, uint256 value) internal virtual {... */\n  pop\n  pop\n  pop\n  jump\t// out\n    /* \"@openzeppelin/contracts/token/ERC20/ERC20.sol\":3299:3415  function balanceOf(address account) public view virtual returns (uint256) {... */\ntag_68:\n    /* \"@openzeppelin/contracts/token/ERC20/ERC20.sol\":3364:3371  uint256 */\n  0x00\n    /* \"@openzeppelin/contracts/token/ERC20/ERC20.sol\":3390:3399  _balances */\n  dup1\n    /* \"@openzeppelin/contracts/token/ERC20/ERC20.sol\":3390:3408  _balances[account] */\n  0x00\n    /* \"@openzeppelin/contracts/token/ERC20/ERC20.sol\":3400:3407  account */\n  dup4\n    /* \"@openzeppelin/contracts/token/ERC20/ERC20.sol\":3390:3408  _balances[account] */\n  0xffffffffffffffffffffffffffffffffffffffff\n  and\n  0xffffffffffffffffffffffffffffffffffffffff\n  and\n  dup2\n  mstore\n  0x20\n  add\n  swap1\n  dup2\n  mstore\n  0x20\n  add\n  0x00\n  keccak256\n  sload\n    /* \"@openzeppelin/contracts/token/ERC20/ERC20.sol\":3383:3408  return _balances[account] */\n  swap1\n  pop\n    /* \"@openzeppelin/contracts/token/ERC20/ERC20.sol\":3299:3415  function balanceOf(address account) public view virtual returns (uint256) {... */\n  swap2\n  swap1\n  pop\n  jump\t// out\n    /* \"#utility.yul\":7:82   */\ntag_83:\n    /* \"#utility.yul\":40:46   */\n  0x00\n    /* \"#utility.yul\":73:75   */\n  0x40\n    /* \"#utility.yul\":67:76   */\n  mload\n    /* \"#utility.yul\":57:76   */\n  swap1\n  pop\n    /* \"#utility.yul\":7:82   */\n  swap1\n  jump\t// out\n    /* \"#utility.yul\":88:205   */\ntag_84:\n    /* \"#utility.yul\":197:198   */\n  0x00\n    /* \"#utility.yul\":194:195   */\n  dup1\n    /* \"#utility.yul\":187:199   */\n  revert\n    /* \"#utility.yul\":211:328   */\ntag_85:\n    /* \"#utility.yul\":320:321   */\n  0x00\n    /* \"#utility.yul\":317:318   */\n  dup1\n    /* \"#utility.yul\":310:322   */\n  revert\n    /* \"#utility.yul\":334:451   */\ntag_86:\n    /* \"#utility.yul\":443:444   */\n  0x00\n    /* \"#utility.yul\":440:441   */\n  dup1\n    /* \"#utility.yul\":433:445   */\n  revert\n    /* \"#utility.yul\":457:574   */\ntag_87:\n    /* \"#utility.yul\":566:567   */\n  0x00\n    /* \"#utility.yul\":563:564   */\n  dup1\n    /* \"#utility.yul\":556:568   */\n  revert\n    /* \"#utility.yul\":580:682   */\ntag_88:\n    /* \"#utility.yul\":621:627   */\n  0x00\n    /* \"#utility.yul\":672:674   */\n  0x1f\n    /* \"#utility.yul\":668:675   */\n  not\n    /* \"#utility.yul\":663:665   */\n  0x1f\n    /* \"#utility.yul\":656:661   */\n  dup4\n    /* \"#utility.yul\":652:666   */\n  add\n    /* \"#utility.yul\":648:676   */\n  and\n    /* \"#utility.yul\":638:676   */\n  swap1\n  pop\n    /* \"#utility.yul\":580:682   */\n  swap2\n  swap1\n  pop\n  jump\t// out\n    /* \"#utility.yul\":688:868   */\ntag_89:\n    /* \"#utility.yul\":736:813   */\n  0x4e487b7100000000000000000000000000000000000000000000000000000000\n    /* \"#utility.yul\":733:734   */\n  0x00\n    /* \"#utility.yul\":726:814   */\n  mstore\n    /* \"#utility.yul\":833:837   */\n  0x41\n    /* \"#utility.yul\":830:831   */\n  0x04\n    /* \"#utility.yul\":823:838   */\n  mstore\n    /* \"#utility.yul\":857:861   */\n  0x24\n    /* \"#utility.yul\":854:855   */\n  0x00\n    /* \"#utility.yul\":847:862   */\n  revert\n    /* \"#utility.yul\":874:1155   */\ntag_90:\n    /* \"#utility.yul\":957:984   */\n  tag_137\n    /* \"#utility.yul\":979:983   */\n  dup3\n    /* \"#utility.yul\":957:984   */\n  tag_88\n  jump\t// in\ntag_137:\n    /* \"#utility.yul\":949:955   */\n  dup2\n    /* \"#utility.yul\":945:985   */\n  add\n    /* \"#utility.yul\":1087:1093   */\n  dup2\n    /* \"#utility.yul\":1075:1085   */\n  dup2\n    /* \"#utility.yul\":1072:1094   */\n  lt\n    /* \"#utility.yul\":1051:1069   */\n  0xffffffffffffffff\n    /* \"#utility.yul\":1039:1049   */\n  dup3\n    /* \"#utility.yul\":1036:1070   */\n  gt\n    /* \"#utility.yul\":1033:1095   */\n  or\n    /* \"#utility.yul\":1030:1118   */\n  iszero\n  tag_138\n  jumpi\n    /* \"#utility.yul\":1098:1116   */\n  tag_139\n  tag_89\n  jump\t// in\ntag_139:\n    /* \"#utility.yul\":1030:1118   */\ntag_138:\n    /* \"#utility.yul\":1138:1148   */\n  dup1\n    /* \"#utility.yul\":1134:1136   */\n  0x40\n    /* \"#utility.yul\":1127:1149   */\n  mstore\n    /* \"#utility.yul\":917:1155   */\n  pop\n    /* \"#utility.yul\":874:1155   */\n  pop\n  pop\n  jump\t// out\n    /* \"#utility.yul\":1161:1290   */\ntag_91:\n    /* \"#utility.yul\":1195:1201   */\n  0x00\n    /* \"#utility.yul\":1222:1242   */\n  tag_141\n  tag_83\n  jump\t// in\ntag_141:\n    /* \"#utility.yul\":1212:1242   */\n  swap1\n  pop\n    /* \"#utility.yul\":1251:1284   */\n  tag_142\n    /* \"#utility.yul\":1279:1283   */\n  dup3\n    /* \"#utility.yul\":1271:1277   */\n  dup3\n    /* \"#utility.yul\":1251:1284   */\n  tag_90\n  jump\t// in\ntag_142:\n    /* \"#utility.yul\":1161:1290   */\n  swap2\n  swap1\n  pop\n  jump\t// out\n    /* \"#utility.yul\":1296:1604   */\ntag_92:\n    /* \"#utility.yul\":1358:1362   */\n  0x00\n    /* \"#utility.yul\":1448:1466   */\n  0xffffffffffffffff\n    /* \"#utility.yul\":1440:1446   */\n  dup3\n    /* \"#utility.yul\":1437:1467   */\n  gt\n    /* \"#utility.yul\":1434:1490   */\n  iszero\n  tag_144\n  jumpi\n    /* \"#utility.yul\":1470:1488   */\n  tag_145\n  tag_89\n  jump\t// in\ntag_145:\n    /* \"#utility.yul\":1434:1490   */\ntag_144:\n    /* \"#utility.yul\":1508:1537   */\n  tag_146\n    /* \"#utility.yul\":1530:1536   */\n  dup3\n    /* \"#utility.yul\":1508:1537   */\n  tag_88\n  jump\t// in\ntag_146:\n    /* \"#utility.yul\":1500:1537   */\n  swap1\n  pop\n    /* \"#utility.yul\":1592:1596   */\n  0x20\n    /* \"#utility.yul\":1586:1590   */\n  dup2\n    /* \"#utility.yul\":1582:1597   */\n  add\n    /* \"#utility.yul\":1574:1597   */\n  swap1\n  pop\n    /* \"#utility.yul\":1296:1604   */\n  swap2\n  swap1\n  pop\n  jump\t// out\n    /* \"#utility.yul\":1610:1856   */\ntag_93:\n    /* \"#utility.yul\":1691:1692   */\n  0x00\n    /* \"#utility.yul\":1701:1814   */\ntag_148:\n    /* \"#utility.yul\":1715:1721   */\n  dup4\n    /* \"#utility.yul\":1712:1713   */\n  dup2\n    /* \"#utility.yul\":1709:1722   */\n  lt\n    /* \"#utility.yul\":1701:1814   */\n  iszero\n  tag_150\n  jumpi\n    /* \"#utility.yul\":1800:1801   */\n  dup1\n    /* \"#utility.yul\":1795:1798   */\n  dup3\n    /* \"#utility.yul\":1791:1802   */\n  add\n    /* \"#utility.yul\":1785:1803   */\n  mload\n    /* \"#utility.yul\":1781:1782   */\n  dup2\n    /* \"#utility.yul\":1776:1779   */\n  dup5\n    /* \"#utility.yul\":1772:1783   */\n  add\n    /* \"#utility.yul\":1765:1804   */\n  mstore\n    /* \"#utility.yul\":1737:1739   */\n  0x20\n    /* \"#utility.yul\":1734:1735   */\n  dup2\n    /* \"#utility.yul\":1730:1740   */\n  add\n    /* \"#utility.yul\":1725:1740   */\n  swap1\n  pop\n    /* \"#utility.yul\":1701:1814   */\n  jump(tag_148)\ntag_150:\n    /* \"#utility.yul\":1848:1849   */\n  0x00\n    /* \"#utility.yul\":1839:1845   */\n  dup5\n    /* \"#utility.yul\":1834:1837   */\n  dup5\n    /* \"#utility.yul\":1830:1846   */\n  add\n    /* \"#utility.yul\":1823:1850   */\n  mstore\n    /* \"#utility.yul\":1672:1856   */\n  pop\n    /* \"#utility.yul\":1610:1856   */\n  pop\n  pop\n  pop\n  jump\t// out\n    /* \"#utility.yul\":1862:2296   */\ntag_94:\n    /* \"#utility.yul\":1951:1956   */\n  0x00\n    /* \"#utility.yul\":1976:2042   */\n  tag_152\n    /* \"#utility.yul\":1992:2041   */\n  tag_153\n    /* \"#utility.yul\":2034:2040   */\n  dup5\n    /* \"#utility.yul\":1992:2041   */\n  tag_92\n  jump\t// in\ntag_153:\n    /* \"#utility.yul\":1976:2042   */\n  tag_91\n  jump\t// in\ntag_152:\n    /* \"#utility.yul\":1967:2042   */\n  swap1\n  pop\n    /* \"#utility.yul\":2065:2071   */\n  dup3\n    /* \"#utility.yul\":2058:2063   */\n  dup2\n    /* \"#utility.yul\":2051:2072   */\n  mstore\n    /* \"#utility.yul\":2103:2107   */\n  0x20\n    /* \"#utility.yul\":2096:2101   */\n  dup2\n    /* \"#utility.yul\":2092:2108   */\n  add\n    /* \"#utility.yul\":2141:2144   */\n  dup5\n    /* \"#utility.yul\":2132:2138   */\n  dup5\n    /* \"#utility.yul\":2127:2130   */\n  dup5\n    /* \"#utility.yul\":2123:2139   */\n  add\n    /* \"#utility.yul\":2120:2145   */\n  gt\n    /* \"#utility.yul\":2117:2229   */\n  iszero\n  tag_154\n  jumpi\n    /* \"#utility.yul\":2148:2227   */\n  tag_155\n  tag_87\n  jump\t// in\ntag_155:\n    /* \"#utility.yul\":2117:2229   */\ntag_154:\n    /* \"#utility.yul\":2238:2290   */\n  tag_156\n    /* \"#utility.yul\":2283:2289   */\n  dup5\n    /* \"#utility.yul\":2278:2281   */\n  dup3\n    /* \"#utility.yul\":2273:2276   */\n  dup6\n    /* \"#utility.yul\":2238:2290   */\n  tag_93\n  jump\t// in\ntag_156:\n    /* \"#utility.yul\":1957:2296   */\n  pop\n    /* \"#utility.yul\":1862:2296   */\n  swap4\n  swap3\n  pop\n  pop\n  pop\n  jump\t// out\n    /* \"#utility.yul\":2316:2671   */\ntag_95:\n    /* \"#utility.yul\":2383:2388   */\n  0x00\n    /* \"#utility.yul\":2432:2435   */\n  dup3\n    /* \"#utility.yul\":2425:2429   */\n  0x1f\n    /* \"#utility.yul\":2417:2423   */\n  dup4\n    /* \"#utility.yul\":2413:2430   */\n  add\n    /* \"#utility.yul\":2409:2436   */\n  slt\n    /* \"#utility.yul\":2399:2521   */\n  tag_158\n  jumpi\n    /* \"#utility.yul\":2440:2519   */\n  tag_159\n  tag_86\n  jump\t// in\ntag_159:\n    /* \"#utility.yul\":2399:2521   */\ntag_158:\n    /* \"#utility.yul\":2550:2556   */\n  dup2\n    /* \"#utility.yul\":2544:2557   */\n  mload\n    /* \"#utility.yul\":2575:2665   */\n  tag_160\n    /* \"#utility.yul\":2661:2664   */\n  dup5\n    /* \"#utility.yul\":2653:2659   */\n  dup3\n    /* \"#utility.yul\":2646:2650   */\n  0x20\n    /* \"#utility.yul\":2638:2644   */\n  dup7\n    /* \"#utility.yul\":2634:2651   */\n  add\n    /* \"#utility.yul\":2575:2665   */\n  tag_94\n  jump\t// in\ntag_160:\n    /* \"#utility.yul\":2566:2665   */\n  swap2\n  pop\n    /* \"#utility.yul\":2389:2671   */\n  pop\n    /* \"#utility.yul\":2316:2671   */\n  swap3\n  swap2\n  pop\n  pop\n  jump\t// out\n    /* \"#utility.yul\":2677:3530   */\ntag_3:\n    /* \"#utility.yul\":2776:2782   */\n  0x00\n    /* \"#utility.yul\":2784:2790   */\n  dup1\n    /* \"#utility.yul\":2833:2835   */\n  0x40\n    /* \"#utility.yul\":2821:2830   */\n  dup4\n    /* \"#utility.yul\":2812:2819   */\n  dup6\n    /* \"#utility.yul\":2808:2831   */\n  sub\n    /* \"#utility.yul\":2804:2836   */\n  slt\n    /* \"#utility.yul\":2801:2920   */\n  iszero\n  tag_162\n  jumpi\n    /* \"#utility.yul\":2839:2918   */\n  tag_163\n  tag_84\n  jump\t// in\ntag_163:\n    /* \"#utility.yul\":2801:2920   */\ntag_162:\n    /* \"#utility.yul\":2980:2981   */\n  0x00\n    /* \"#utility.yul\":2969:2978   */\n  dup4\n    /* \"#utility.yul\":2965:2982   */\n  add\n    /* \"#utility.yul\":2959:2983   */\n  mload\n    /* \"#utility.yul\":3010:3028   */\n  0xffffffffffffffff\n    /* \"#utility.yul\":3002:3008   */\n  dup2\n    /* \"#utility.yul\":2999:3029   */\n  gt\n    /* \"#utility.yul\":2996:3113   */\n  iszero\n  tag_164\n  jumpi\n    /* \"#utility.yul\":3032:3111   */\n  tag_165\n  tag_85\n  jump\t// in\ntag_165:\n    /* \"#utility.yul\":2996:3113   */\ntag_164:\n    /* \"#utility.yul\":3137:3211   */\n  tag_166\n    /* \"#utility.yul\":3203:3210   */\n  dup6\n    /* \"#utility.yul\":3194:3200   */\n  dup3\n    /* \"#utility.yul\":3183:3192   */\n  dup7\n    /* \"#utility.yul\":3179:3201   */\n  add\n    /* \"#utility.yul\":3137:3211   */\n  tag_95\n  jump\t// in\ntag_166:\n    /* \"#utility.yul\":3127:3211   */\n  swap3\n  pop\n    /* \"#utility.yul\":2930:3221   */\n  pop\n    /* \"#utility.yul\":3281:3283   */\n  0x20\n    /* \"#utility.yul\":3270:3279   */\n  dup4\n    /* \"#utility.yul\":3266:3284   */\n  add\n    /* \"#utility.yul\":3260:3285   */\n  mload\n    /* \"#utility.yul\":3312:3330   */\n  0xffffffffffffffff\n    /* \"#utility.yul\":3304:3310   */\n  dup2\n    /* \"#utility.yul\":3301:3331   */\n  gt\n    /* \"#utility.yul\":3298:3415   */\n  iszero\n  tag_167\n  jumpi\n    /* \"#utility.yul\":3334:3413   */\n  tag_168\n  tag_85\n  jump\t// in\ntag_168:\n    /* \"#utility.yul\":3298:3415   */\ntag_167:\n    /* \"#utility.yul\":3439:3513   */\n  tag_169\n    /* \"#utility.yul\":3505:3512   */\n  dup6\n    /* \"#utility.yul\":3496:3502   */\n  dup3\n    /* \"#utility.yul\":3485:3494   */\n  dup7\n    /* \"#utility.yul\":3481:3503   */\n  add\n    /* \"#utility.yul\":3439:3513   */\n  tag_95\n  jump\t// in\ntag_169:\n    /* \"#utility.yul\":3429:3513   */\n  swap2\n  pop\n    /* \"#utility.yul\":3231:3523   */\n  pop\n    /* \"#utility.yul\":2677:3530   */\n  swap3\n  pop\n  swap3\n  swap1\n  pop\n  jump\t// out\n    /* \"#utility.yul\":3536:3635   */\ntag_96:\n    /* \"#utility.yul\":3588:3594   */\n  0x00\n    /* \"#utility.yul\":3622:3627   */\n  dup2\n    /* \"#utility.yul\":3616:3628   */\n  mload\n    /* \"#utility.yul\":3606:3628   */\n  swap1\n  pop\n    /* \"#utility.yul\":3536:3635   */\n  swap2\n  swap1\n  pop\n  jump\t// out\n    /* \"#utility.yul\":3641:3821   */\ntag_97:\n    /* \"#utility.yul\":3689:3766   */\n  0x4e487b7100000000000000000000000000000000000000000000000000000000\n    /* \"#utility.yul\":3686:3687   */\n  0x00\n    /* \"#utility.yul\":3679:3767   */\n  mstore\n    /* \"#utility.yul\":3786:3790   */\n  0x22\n    /* \"#utility.yul\":3783:3784   */\n  0x04\n    /* \"#utility.yul\":3776:3791   */\n  mstore\n    /* \"#utility.yul\":3810:3814   */\n  0x24\n    /* \"#utility.yul\":3807:3808   */\n  0x00\n    /* \"#utility.yul\":3800:3815   */\n  revert\n    /* \"#utility.yul\":3827:4147   */\ntag_98:\n    /* \"#utility.yul\":3871:3877   */\n  0x00\n    /* \"#utility.yul\":3908:3909   */\n  0x02\n    /* \"#utility.yul\":3902:3906   */\n  dup3\n    /* \"#utility.yul\":3898:3910   */\n  div\n    /* \"#utility.yul\":3888:3910   */\n  swap1\n  pop\n    /* \"#utility.yul\":3955:3956   */\n  0x01\n    /* \"#utility.yul\":3949:3953   */\n  dup3\n    /* \"#utility.yul\":3945:3957   */\n  and\n    /* \"#utility.yul\":3976:3994   */\n  dup1\n    /* \"#utility.yul\":3966:4047   */\n  tag_173\n  jumpi\n    /* \"#utility.yul\":4032:4036   */\n  0x7f\n    /* \"#utility.yul\":4024:4030   */\n  dup3\n    /* \"#utility.yul\":4020:4037   */\n  and\n    /* \"#utility.yul\":4010:4037   */\n  swap2\n  pop\n    /* \"#utility.yul\":3966:4047   */\ntag_173:\n    /* \"#utility.yul\":4094:4096   */\n  0x20\n    /* \"#utility.yul\":4086:4092   */\n  dup3\n    /* \"#utility.yul\":4083:4097   */\n  lt\n    /* \"#utility.yul\":4063:4081   */\n  dup2\n    /* \"#utility.yul\":4060:4098   */\n  sub\n    /* \"#utility.yul\":4057:4141   */\n  tag_174\n  jumpi\n    /* \"#utility.yul\":4113:4131   */\n  tag_175\n  tag_97\n  jump\t// in\ntag_175:\n    /* \"#utility.yul\":4057:4141   */\ntag_174:\n    /* \"#utility.yul\":3878:4147   */\n  pop\n    /* \"#utility.yul\":3827:4147   */\n  swap2\n  swap1\n  pop\n  jump\t// out\n    /* \"#utility.yul\":4153:4294   */\ntag_99:\n    /* \"#utility.yul\":4202:4206   */\n  0x00\n    /* \"#utility.yul\":4225:4228   */\n  dup2\n    /* \"#utility.yul\":4217:4228   */\n  swap1\n  pop\n    /* \"#utility.yul\":4248:4251   */\n  dup2\n    /* \"#utility.yul\":4245:4246   */\n  0x00\n    /* \"#utility.yul\":4238:4252   */\n  mstore\n    /* \"#utility.yul\":4282:4286   */\n  0x20\n    /* \"#utility.yul\":4279:4280   */\n  0x00\n    /* \"#utility.yul\":4269:4287   */\n  keccak256\n    /* \"#utility.yul\":4261:4287   */\n  swap1\n  pop\n    /* \"#utility.yul\":4153:4294   */\n  swap2\n  swap1\n  pop\n  jump\t// out\n    /* \"#utility.yul\":4300:4393   */\ntag_100:\n    /* \"#utility.yul\":4337:4343   */\n  0x00\n    /* \"#utility.yul\":4384:4386   */\n  0x20\n    /* \"#utility.yul\":4379:4381   */\n  0x1f\n    /* \"#utility.yul\":4372:4377   */\n  dup4\n    /* \"#utility.yul\":4368:4382   */\n  add\n    /* \"#utility.yul\":4364:4387   */\n  div\n    /* \"#utility.yul\":4354:4387   */\n  swap1\n  pop\n    /* \"#utility.yul\":4300:4393   */\n  swap2\n  swap1\n  pop\n  jump\t// out\n    /* \"#utility.yul\":4399:4506   */\ntag_101:\n    /* \"#utility.yul\":4443:4451   */\n  0x00\n    /* \"#utility.yul\":4493:4498   */\n  dup3\n    /* \"#utility.yul\":4487:4491   */\n  dup3\n    /* \"#utility.yul\":4483:4499   */\n  shl\n    /* \"#utility.yul\":4462:4499   */\n  swap1\n  pop\n    /* \"#utility.yul\":4399:4506   */\n  swap3\n  swap2\n  pop\n  pop\n  jump\t// out\n    /* \"#utility.yul\":4512:4905   */\ntag_102:\n    /* \"#utility.yul\":4581:4587   */\n  0x00\n    /* \"#utility.yul\":4631:4632   */\n  0x08\n    /* \"#utility.yul\":4619:4629   */\n  dup4\n    /* \"#utility.yul\":4615:4633   */\n  mul\n    /* \"#utility.yul\":4654:4751   */\n  tag_180\n    /* \"#utility.yul\":4684:4750   */\n  0xffffffffffffffffffffffffffffffffffffffffffffffffffffffffffffffff\n    /* \"#utility.yul\":4673:4682   */\n  dup3\n    /* \"#utility.yul\":4654:4751   */\n  tag_101\n  jump\t// in\ntag_180:\n    /* \"#utility.yul\":4772:4811   */\n  tag_181\n    /* \"#utility.yul\":4802:4810   */\n  dup7\n    /* \"#utility.yul\":4791:4800   */\n  dup4\n    /* \"#utility.yul\":4772:4811   */\n  tag_101\n  jump\t// in\ntag_181:\n    /* \"#utility.yul\":4760:4811   */\n  swap6\n  pop\n    /* \"#utility.yul\":4844:4848   */\n  dup1\n    /* \"#utility.yul\":4840:4849   */\n  not\n    /* \"#utility.yul\":4833:4838   */\n  dup5\n    /* \"#utility.yul\":4829:4850   */\n  and\n    /* \"#utility.yul\":4820:4850   */\n  swap4\n  pop\n    /* \"#utility.yul\":4893:4897   */\n  dup1\n    /* \"#utility.yul\":4883:4891   */\n  dup7\n    /* \"#utility.yul\":4879:4898   */\n  and\n    /* \"#utility.yul\":4872:4877   */\n  dup5\n    /* \"#utility.yul\":4869:4899   */\n  or\n    /* \"#utility.yul\":4859:4899   */\n  swap3\n  pop\n    /* \"#utility.yul\":4588:4905   */\n  pop\n  pop\n    /* \"#utility.yul\":4512:4905   */\n  swap4\n  swap3\n  pop\n  pop\n  pop\n  jump\t// out\n    /* \"#utility.yul\":4911:4988   */\ntag_103:\n    /* \"#utility.yul\":4948:4955   */\n  0x00\n    /* \"#utility.yul\":4977:4982   */\n  dup2\n    /* \"#utility.yul\":4966:4982   */\n  swap1\n  pop\n    /* \"#utility.yul\":4911:4988   */\n  swap2\n  swap1\n  pop\n  jump\t// out\n    /* \"#utility.yul\":4994:5054   */\ntag_104:\n    /* \"#utility.yul\":5022:5025   */\n  0x00\n    /* \"#utility.yul\":5043:5048   */\n  dup2\n    /* \"#utility.yul\":5036:5048   */\n  swap1\n  pop\n    /* \"#utility.yul\":4994:5054   */\n  swap2\n  swap1\n  pop\n  jump\t// out\n    /* \"#utility.yul\":5060:5202   */\ntag_105:\n    /* \"#utility.yul\":5110:5119   */\n  0x00\n    /* \"#utility.yul\":5143:5196   */\n  tag_185\n    /* \"#utility.yul\":5161:5195   */\n  tag_186\n    /* \"#utility.yul\":5170:5194   */\n  tag_187\n    /* \"#utility.yul\":5188:5193   */\n  dup5\n    /* \"#utility.yul\":5170:5194   */\n  tag_103\n  jump\t// in\ntag_187:\n    /* \"#utility.yul\":5161:5195   */\n  tag_104\n  jump\t// in\ntag_186:\n    /* \"#utility.yul\":5143:5196   */\n  tag_103\n  jump\t// in\ntag_185:\n    /* \"#utility.yul\":5130:5196   */\n  swap1\n  pop\n    /* \"#utility.yul\":5060:5202   */\n  swap2\n  swap1\n  pop\n  jump\t// out\n    /* \"#utility.yul\":5208:5283   */\ntag_106:\n    /* \"#utility.yul\":5251:5254   */\n  0x00\n    /* \"#utility.yul\":5272:5277   */\n  dup2\n    /* \"#utility.yul\":5265:5277   */\n  swap1\n  pop\n    /* \"#utility.yul\":5208:5283   */\n  swap2\n  swap1\n  pop\n  jump\t// out\n    /* \"#utility.yul\":5289:5558   */\ntag_107:\n    /* \"#utility.yul\":5399:5438   */\n  tag_190\n    /* \"#utility.yul\":5430:5437   */\n  dup4\n    /* \"#utility.yul\":5399:5438   */\n  tag_105\n  jump\t// in\ntag_190:\n    /* \"#utility.yul\":5460:5551   */\n  tag_191\n    /* \"#utility.yul\":5509:5550   */\n  tag_192\n    /* \"#utility.yul\":5533:5549   */\n  dup3\n    /* \"#utility.yul\":5509:5550   */\n  tag_106\n  jump\t// in\ntag_192:\n    /* \"#utility.yul\":5501:5507   */\n  dup5\n    /* \"#utility.yul\":5494:5498   */\n  dup5\n    /* \"#utility.yul\":5488:5499   */\n  sload\n    /* \"#utility.yul\":5460:5551   */\n  tag_102\n  jump\t// in\ntag_191:\n    /* \"#utility.yul\":5454:5458   */\n  dup3\n    /* \"#utility.yul\":5447:5552   */\n  sstore\n    /* \"#utility.yul\":5365:5558   */\n  pop\n    /* \"#utility.yul\":5289:5558   */\n  pop\n  pop\n  pop\n  jump\t// out\n    /* \"#utility.yul\":5564:5637   */\ntag_108:\n    /* \"#utility.yul\":5609:5612   */\n  0x00\n    /* \"#utility.yul\":5564:5637   */\n  swap1\n  jump\t// out\n    /* \"#utility.yul\":5643:5832   */\ntag_109:\n    /* \"#utility.yul\":5720:5752   */\n  tag_195\n  tag_108\n  jump\t// in\ntag_195:\n    /* \"#utility.yul\":5761:5826   */\n  tag_196\n    /* \"#utility.yul\":5819:5825   */\n  dup2\n    /* \"#utility.yul\":5811:5817   */\n  dup5\n    /* \"#utility.yul\":5805:5809   */\n  dup5\n    /* \"#utility.yul\":5761:5826   */\n  tag_107\n  jump\t// in\ntag_196:\n    /* \"#utility.yul\":5696:5832   */\n  pop\n    /* \"#utility.yul\":5643:5832   */\n  pop\n  pop\n  jump\t// out\n    /* \"#utility.yul\":5838:6024   */\ntag_110:\n    /* \"#utility.yul\":5898:6018   */\ntag_198:\n    /* \"#utility.yul\":5915:5918   */\n  dup2\n    /* \"#utility.yul\":5908:5913   */\n  dup2\n    /* \"#utility.yul\":5905:5919   */\n  lt\n    /* \"#utility.yul\":5898:6018   */\n  iszero\n  tag_200\n  jumpi\n    /* \"#utility.yul\":5969:6008   */\n  tag_201\n    /* \"#utility.yul\":6006:6007   */\n  0x00\n    /* \"#utility.yul\":5999:6004   */\n  dup3\n    /* \"#utility.yul\":5969:6008   */\n  tag_109\n  jump\t// in\ntag_201:\n    /* \"#utility.yul\":5942:5943   */\n  0x01\n    /* \"#utility.yul\":5935:5940   */\n  dup2\n    /* \"#utility.yul\":5931:5944   */\n  add\n    /* \"#utility.yul\":5922:5944   */\n  swap1\n  pop\n    /* \"#utility.yul\":5898:6018   */\n  jump(tag_198)\ntag_200:\n    /* \"#utility.yul\":5838:6024   */\n  pop\n  pop\n  jump\t// out\n    /* \"#utility.yul\":6030:6573   */\ntag_111:\n    /* \"#utility.yul\":6131:6133   */\n  0x1f\n    /* \"#utility.yul\":6126:6129   */\n  dup3\n    /* \"#utility.yul\":6123:6134   */\n  gt\n    /* \"#utility.yul\":6120:6566   */\n  iszero\n  tag_203\n  jumpi\n    /* \"#utility.yul\":6165:6203   */\n  tag_204\n    /* \"#utility.yul\":6197:6202   */\n  dup2\n    /* \"#utility.yul\":6165:6203   */\n  tag_99\n  jump\t// in\ntag_204:\n    /* \"#utility.yul\":6249:6278   */\n  tag_205\n    /* \"#utility.yul\":6267:6277   */\n  dup5\n    /* \"#utility.yul\":6249:6278   */\n  tag_100\n  jump\t// in\ntag_205:\n    /* \"#utility.yul\":6239:6247   */\n  dup2\n    /* \"#utility.yul\":6235:6279   */\n  add\n    /* \"#utility.yul\":6432:6434   */\n  0x20\n    /* \"#utility.yul\":6420:6430   */\n  dup6\n    /* \"#utility.yul\":6417:6435   */\n  lt\n    /* \"#utility.yul\":6414:6463   */\n  iszero\n  tag_206\n  jumpi\n    /* \"#utility.yul\":6453:6461   */\n  dup2\n    /* \"#utility.yul\":6438:6461   */\n  swap1\n  pop\n    /* \"#utility.yul\":6414:6463   */\ntag_206:\n    /* \"#utility.yul\":6476:6556   */\n  tag_207\n    /* \"#utility.yul\":6532:6554   */\n  tag_208\n    /* \"#utility.yul\":6550:6553   */\n  dup6\n    /* \"#utility.yul\":6532:6554   */\n  tag_100\n  jump\t// in\ntag_208:\n    /* \"#utility.yul\":6522:6530   */\n  dup4\n    /* \"#utility.yul\":6518:6555   */\n  add\n    /* \"#utility.yul\":6505:6516   */\n  dup3\n    /* \"#utility.yul\":6476:6556   */\n  tag_110\n  jump\t// in\ntag_207:\n    /* \"#utility.yul\":6135:6566   */\n  pop\n  pop\n    /* \"#utility.yul\":6120:6566   */\ntag_203:\n    /* \"#utility.yul\":6030:6573   */\n  pop\n  pop\n  pop\n  jump\t// out\n    /* \"#utility.yul\":6579:6696   */\ntag_112:\n    /* \"#utility.yul\":6633:6641   */\n  0x00\n    /* \"#utility.yul\":6683:6688   */\n  dup3\n    /* \"#utility.yul\":6677:6681   */\n  dup3\n    /* \"#utility.yul\":6673:6689   */\n  shr\n    /* \"#utility.yul\":6652:6689   */\n  swap1\n  pop\n    /* \"#utility.yul\":6579:6696   */\n  swap3\n  swap2\n  pop\n  pop\n  jump\t// out\n    /* \"#utility.yul\":6702:6871   */\ntag_113:\n    /* \"#utility.yul\":6746:6752   */\n  0x00\n    /* \"#utility.yul\":6779:6830   */\n  tag_211\n    /* \"#utility.yul\":6827:6828   */\n  0x00\n    /* \"#utility.yul\":6823:6829   */\n  not\n    /* \"#utility.yul\":6815:6820   */\n  dup5\n    /* \"#utility.yul\":6812:6813   */\n  0x08\n    /* \"#utility.yul\":6808:6821   */\n  mul\n    /* \"#utility.yul\":6779:6830   */\n  tag_112\n  jump\t// in\ntag_211:\n    /* \"#utility.yul\":6775:6831   */\n  not\n    /* \"#utility.yul\":6860:6864   */\n  dup1\n    /* \"#utility.yul\":6854:6858   */\n  dup4\n    /* \"#utility.yul\":6850:6865   */\n  and\n    /* \"#utility.yul\":6840:6865   */\n  swap2\n  pop\n    /* \"#utility.yul\":6753:6871   */\n  pop\n    /* \"#utility.yul\":6702:6871   */\n  swap3\n  swap2\n  pop\n  pop\n  jump\t// out\n    /* \"#utility.yul\":6876:7171   */\ntag_114:\n    /* \"#utility.yul\":6952:6956   */\n  0x00\n    /* \"#utility.yul\":7098:7127   */\n  tag_213\n    /* \"#utility.yul\":7123:7126   */\n  dup4\n    /* \"#utility.yul\":7117:7121   */\n  dup4\n    /* \"#utility.yul\":7098:7127   */\n  tag_113\n  jump\t// in\ntag_213:\n    /* \"#utility.yul\":7090:7127   */\n  swap2\n  pop\n    /* \"#utility.yul\":7160:7163   */\n  dup3\n    /* \"#utility.yul\":7157:7158   */\n  0x02\n    /* \"#utility.yul\":7153:7164   */\n  mul\n    /* \"#utility.yul\":7147:7151   */\n  dup3\n    /* \"#utility.yul\":7144:7165   */\n  or\n    /* \"#utility.yul\":7136:7165   */\n  swap1\n  pop\n    /* \"#utility.yul\":6876:7171   */\n  swap3\n  swap2\n  pop\n  pop\n  jump\t// out\n    /* \"#utility.yul\":7176:8571   */\ntag_10:\n    /* \"#utility.yul\":7293:7330   */\n  tag_215\n    /* \"#utility.yul\":7326:7329   */\n  dup3\n    /* \"#utility.yul\":7293:7330   */\n  tag_96\n  jump\t// in\ntag_215:\n    /* \"#utility.yul\":7395:7413   */\n  0xffffffffffffffff\n    /* \"#utility.yul\":7387:7393   */\n  dup2\n    /* \"#utility.yul\":7384:7414   */\n  gt\n    /* \"#utility.yul\":7381:7437   */\n  iszero\n  tag_216\n  jumpi\n    /* \"#utility.yul\":7417:7435   */\n  tag_217\n  tag_89\n  jump\t// in\ntag_217:\n    /* \"#utility.yul\":7381:7437   */\ntag_216:\n    /* \"#utility.yul\":7461:7499   */\n  tag_218\n    /* \"#utility.yul\":7493:7497   */\n  dup3\n    /* \"#utility.yul\":7487:7498   */\n  sload\n    /* \"#utility.yul\":7461:7499   */\n  tag_98\n  jump\t// in\ntag_218:\n    /* \"#utility.yul\":7546:7613   */\n  tag_219\n    /* \"#utility.yul\":7606:7612   */\n  dup3\n    /* \"#utility.yul\":7598:7604   */\n  dup3\n    /* \"#utility.yul\":7592:7596   */\n  dup6\n    /* \"#utility.yul\":7546:7613   */\n  tag_111\n  jump\t// in\ntag_219:\n    /* \"#utility.yul\":7640:7641   */\n  0x00\n    /* \"#utility.yul\":7664:7668   */\n  0x20\n    /* \"#utility.yul\":7651:7668   */\n  swap1\n  pop\n    /* \"#utility.yul\":7696:7698   */\n  0x1f\n    /* \"#utility.yul\":7688:7694   */\n  dup4\n    /* \"#utility.yul\":7685:7699   */\n  gt\n    /* \"#utility.yul\":7713:7714   */\n  0x01\n    /* \"#utility.yul\":7708:8326   */\n  dup2\n  eq\n  tag_221\n  jumpi\n    /* \"#utility.yul\":8370:8371   */\n  0x00\n    /* \"#utility.yul\":8387:8393   */\n  dup5\n    /* \"#utility.yul\":8384:8461   */\n  iszero\n  tag_222\n  jumpi\n    /* \"#utility.yul\":8436:8445   */\n  dup3\n    /* \"#utility.yul\":8431:8434   */\n  dup8\n    /* \"#utility.yul\":8427:8446   */\n  add\n    /* \"#utility.yul\":8421:8447   */\n  mload\n    /* \"#utility.yul\":8412:8447   */\n  swap1\n  pop\n    /* \"#utility.yul\":8384:8461   */\ntag_222:\n    /* \"#utility.yul\":8487:8554   */\n  tag_223\n    /* \"#utility.yul\":8547:8553   */\n  dup6\n    /* \"#utility.yul\":8540:8545   */\n  dup3\n    /* \"#utility.yul\":8487:8554   */\n  tag_114\n  jump\t// in\ntag_223:\n    /* \"#utility.yul\":8481:8485   */\n  dup7\n    /* \"#utility.yul\":8474:8555   */\n  sstore\n    /* \"#utility.yul\":8343:8565   */\n  pop\n    /* \"#utility.yul\":7678:8565   */\n  jump(tag_220)\n    /* \"#utility.yul\":7708:8326   */\ntag_221:\n    /* \"#utility.yul\":7760:7764   */\n  0x1f\n    /* \"#utility.yul\":7756:7765   */\n  not\n    /* \"#utility.yul\":7748:7754   */\n  dup5\n    /* \"#utility.yul\":7744:7766   */\n  and\n    /* \"#utility.yul\":7794:7831   */\n  tag_224\n    /* \"#utility.yul\":7826:7830   */\n  dup7\n    /* \"#utility.yul\":7794:7831   */\n  tag_99\n  jump\t// in\ntag_224:\n    /* \"#utility.yul\":7853:7854   */\n  0x00\n    /* \"#utility.yul\":7867:8075   */\ntag_225:\n    /* \"#utility.yul\":7881:7888   */\n  dup3\n    /* \"#utility.yul\":7878:7879   */\n  dup2\n    /* \"#utility.yul\":7875:7889   */\n  lt\n    /* \"#utility.yul\":7867:8075   */\n  iszero\n  tag_227\n  jumpi\n    /* \"#utility.yul\":7960:7969   */\n  dup5\n    /* \"#utility.yul\":7955:7958   */\n  dup10\n    /* \"#utility.yul\":7951:7970   */\n  add\n    /* \"#utility.yul\":7945:7971   */\n  mload\n    /* \"#utility.yul\":7937:7943   */\n  dup3\n    /* \"#utility.yul\":7930:7972   */\n  sstore\n    /* \"#utility.yul\":8011:8012   */\n  0x01\n    /* \"#utility.yul\":8003:8009   */\n  dup3\n    /* \"#utility.yul\":7999:8013   */\n  add\n    /* \"#utility.yul\":7989:8013   */\n  swap2\n  pop\n    /* \"#utility.yul\":8058:8060   */\n  0x20\n    /* \"#utility.yul\":8047:8056   */\n  dup6\n    /* \"#utility.yul\":8043:8061   */\n  add\n    /* \"#utility.yul\":8030:8061   */\n  swap5\n  pop\n    /* \"#utility.yul\":7904:7908   */\n  0x20\n    /* \"#utility.yul\":7901:7902   */\n  dup2\n    /* \"#utility.yul\":7897:7909   */\n  add\n    /* \"#utility.yul\":7892:7909   */\n  swap1\n  pop\n    /* \"#utility.yul\":7867:8075   */\n  jump(tag_225)\ntag_227:\n    /* \"#utility.yul\":8103:8109   */\n  dup7\n    /* \"#utility.yul\":8094:8101   */\n  dup4\n    /* \"#utility.yul\":8091:8110   */\n  lt\n    /* \"#utility.yul\":8088:8267   */\n  iszero\n  tag_228\n  jumpi\n    /* \"#utility.yul\":8161:8170   */\n  dup5\n    /* \"#utility.yul\":8156:8159   */\n  dup10\n    /* \"#utility.yul\":8152:8171   */\n  add\n    /* \"#utility.yul\":8146:8172   */\n  mload\n    /* \"#utility.yul\":8204:8252   */\n  tag_229\n    /* \"#utility.yul\":8246:8250   */\n  0x1f\n    /* \"#utility.yul\":8238:8244   */\n  dup10\n    /* \"#utility.yul\":8234:8251   */\n  and\n    /* \"#utility.yul\":8223:8232   */\n  dup3\n    /* \"#utility.yul\":8204:8252   */\n  tag_113\n  jump\t// in\ntag_229:\n    /* \"#utility.yul\":8196:8202   */\n  dup4\n    /* \"#utility.yul\":8189:8253   */\n  sstore\n    /* \"#utility.yul\":8111:8267   */\n  pop\n    /* \"#utility.yul\":8088:8267   */\ntag_228:\n    /* \"#utility.yul\":8313:8314   */\n  0x01\n    /* \"#utility.yul\":8309:8310   */\n  0x02\n    /* \"#utility.yul\":8301:8307   */\n  dup9\n    /* \"#utility.yul\":8297:8311   */\n  mul\n    /* \"#utility.yul\":8293:8315   */\n  add\n    /* \"#utility.yul\":8287:8291   */\n  dup9\n    /* \"#utility.yul\":8280:8316   */\n  sstore\n    /* \"#utility.yul\":7715:8326   */\n  pop\n  pop\n  pop\n    /* \"#utility.yul\":7678:8565   */\ntag_220:\n  pop\n    /* \"#utility.yul\":7268:8571   */\n  pop\n  pop\n  pop\n    /* \"#utility.yul\":7176:8571   */\n  pop\n  pop\n  jump\t// out\n    /* \"#utility.yul\":8577:8703   */\ntag_115:\n    /* \"#utility.yul\":8614:8621   */\n  0x00\n    /* \"#utility.yul\":8654:8696   */\n  0xffffffffffffffffffffffffffffffffffffffff\n    /* \"#utility.yul\":8647:8652   */\n  dup3\n    /* \"#utility.yul\":8643:8697   */\n  and\n    /* \"#utility.yul\":8632:8697   */\n  swap1\n  pop\n    /* \"#utility.yul\":8577:8703   */\n  swap2\n  swap1\n  pop\n  jump\t// out\n    /* \"#utility.yul\":8709:8805   */\ntag_116:\n    /* \"#utility.yul\":8746:8753   */\n  0x00\n    /* \"#utility.yul\":8775:8799   */\n  tag_232\n    /* \"#utility.yul\":8793:8798   */\n  dup3\n    /* \"#utility.yul\":8775:8799   */\n  tag_115\n  jump\t// in\ntag_232:\n    /* \"#utility.yul\":8764:8799   */\n  swap1\n  pop\n    /* \"#utility.yul\":8709:8805   */\n  swap2\n  swap1\n  pop\n  jump\t// out\n    /* \"#utility.yul\":8811:8929   */\ntag_117:\n    /* \"#utility.yul\":8898:8922   */\n  tag_234\n    /* \"#utility.yul\":8916:8921   */\n  dup2\n    /* \"#utility.yul\":8898:8922   */\n  tag_116\n  jump\t// in\ntag_234:\n    /* \"#utility.yul\":8893:8896   */\n  dup3\n    /* \"#utility.yul\":8886:8923   */\n  mstore\n    /* \"#utility.yul\":8811:8929   */\n  pop\n  pop\n  jump\t// out\n    /* \"#utility.yul\":8935:9157   */\ntag_16:\n    /* \"#utility.yul\":9028:9032   */\n  0x00\n    /* \"#utility.yul\":9066:9068   */\n  0x20\n    /* \"#utility.yul\":9055:9064   */\n  dup3\n    /* \"#utility.yul\":9051:9069   */\n  add\n    /* \"#utility.yul\":9043:9069   */\n  swap1\n  pop\n    /* \"#utility.yul\":9079:9150   */\n  tag_236\n    /* \"#utility.yul\":9147:9148   */\n  0x00\n    /* \"#utility.yul\":9136:9145   */\n  dup4\n    /* \"#utility.yul\":9132:9149   */\n  add\n    /* \"#utility.yul\":9123:9129   */\n  dup5\n    /* \"#utility.yul\":9079:9150   */\n  tag_117\n  jump\t// in\ntag_236:\n    /* \"#utility.yul\":8935:9157   */\n  swap3\n  swap2\n  pop\n  pop\n  jump\t// out\n    /* \"#utility.yul\":9163:9343   */\ntag_118:\n    /* \"#utility.yul\":9211:9288   */\n  0x4e487b7100000000000000000000000000000000000000000000000000000000\n    /* \"#utility.yul\":9208:9209   */\n  0x00\n    /* \"#utility.yul\":9201:9289   */\n  mstore\n    /* \"#utility.yul\":9308:9312   */\n  0x11\n    /* \"#utility.yul\":9305:9306   */\n  0x04\n    /* \"#utility.yul\":9298:9313   */\n  mstore\n    /* \"#utility.yul\":9332:9336   */\n  0x24\n    /* \"#utility.yul\":9329:9330   */\n  0x00\n    /* \"#utility.yul\":9322:9337   */\n  revert\n    /* \"#utility.yul\":9349:9451   */\ntag_119:\n    /* \"#utility.yul\":9391:9399   */\n  0x00\n    /* \"#utility.yul\":9438:9443   */\n  dup2\n    /* \"#utility.yul\":9435:9436   */\n  0x01\n    /* \"#utility.yul\":9431:9444   */\n  shr\n    /* \"#utility.yul\":9410:9444   */\n  swap1\n  pop\n    /* \"#utility.yul\":9349:9451   */\n  swap2\n  swap1\n  pop\n  jump\t// out\n    /* \"#utility.yul\":9457:10305   */\ntag_120:\n    /* \"#utility.yul\":9518:9523   */\n  0x00\n    /* \"#utility.yul\":9525:9529   */\n  dup1\n    /* \"#utility.yul\":9549:9555   */\n  dup3\n    /* \"#utility.yul\":9540:9555   */\n  swap2\n  pop\n    /* \"#utility.yul\":9573:9578   */\n  dup4\n    /* \"#utility.yul\":9564:9578   */\n  swap1\n  pop\n    /* \"#utility.yul\":9587:10299   */\ntag_240:\n    /* \"#utility.yul\":9608:9609   */\n  0x01\n    /* \"#utility.yul\":9598:9606   */\n  dup6\n    /* \"#utility.yul\":9595:9610   */\n  gt\n    /* \"#utility.yul\":9587:10299   */\n  iszero\n  tag_242\n  jumpi\n    /* \"#utility.yul\":9703:9707   */\n  dup1\n    /* \"#utility.yul\":9698:9701   */\n  dup7\n    /* \"#utility.yul\":9694:9708   */\n  div\n    /* \"#utility.yul\":9688:9692   */\n  dup2\n    /* \"#utility.yul\":9685:9709   */\n  gt\n    /* \"#utility.yul\":9682:9732   */\n  iszero\n  tag_243\n  jumpi\n    /* \"#utility.yul\":9712:9730   */\n  tag_244\n  tag_118\n  jump\t// in\ntag_244:\n    /* \"#utility.yul\":9682:9732   */\ntag_243:\n    /* \"#utility.yul\":9762:9763   */\n  0x01\n    /* \"#utility.yul\":9752:9760   */\n  dup6\n    /* \"#utility.yul\":9748:9764   */\n  and\n    /* \"#utility.yul\":9745:10196   */\n  iszero\n  tag_245\n  jumpi\n    /* \"#utility.yul\":10177:10181   */\n  dup1\n    /* \"#utility.yul\":10170:10175   */\n  dup3\n    /* \"#utility.yul\":10166:10182   */\n  mul\n    /* \"#utility.yul\":10157:10182   */\n  swap2\n  pop\n    /* \"#utility.yul\":9745:10196   */\ntag_245:\n    /* \"#utility.yul\":10227:10231   */\n  dup1\n    /* \"#utility.yul\":10221:10225   */\n  dup2\n    /* \"#utility.yul\":10217:10232   */\n  mul\n    /* \"#utility.yul\":10209:10232   */\n  swap1\n  pop\n    /* \"#utility.yul\":10257:10289   */\n  tag_246\n    /* \"#utility.yul\":10280:10288   */\n  dup6\n    /* \"#utility.yul\":10257:10289   */\n  tag_119\n  jump\t// in\ntag_246:\n    /* \"#utility.yul\":10245:10289   */\n  swap5\n  pop\n    /* \"#utility.yul\":9587:10299   */\n  jump(tag_240)\ntag_242:\n    /* \"#utility.yul\":9457:10305   */\n  swap5\n  pop\n  swap5\n  swap3\n  pop\n  pop\n  pop\n  jump\t// out\n    /* \"#utility.yul\":10311:11384   */\ntag_121:\n    /* \"#utility.yul\":10365:10370   */\n  0x00\n    /* \"#utility.yul\":10556:10564   */\n  dup3\n    /* \"#utility.yul\":10546:10586   */\n  tag_248\n  jumpi\n    /* \"#utility.yul\":10577:10578   */\n  0x01\n    /* \"#utility.yul\":10568:10578   */\n  swap1\n  pop\n    /* \"#utility.yul\":10579:10584   */\n  jump(tag_247)\n    /* \"#utility.yul\":10546:10586   */\ntag_248:\n    /* \"#utility.yul\":10605:10609   */\n  dup2\n    /* \"#utility.yul\":10595:10631   */\n  tag_249\n  jumpi\n    /* \"#utility.yul\":10622:10623   */\n  0x00\n    /* \"#utility.yul\":10613:10623   */\n  swap1\n  pop\n    /* \"#utility.yul\":10624:10629   */\n  jump(tag_247)\n    /* \"#utility.yul\":10595:10631   */\ntag_249:\n    /* \"#utility.yul\":10691:10695   */\n  dup2\n    /* \"#utility.yul\":10739:10740   */\n  0x01\n    /* \"#utility.yul\":10734:10761   */\n  dup2\n  eq\n  tag_251\n  jumpi\n    /* \"#utility.yul\":10775:10776   */\n  0x02\n    /* \"#utility.yul\":10770:10961   */\n  dup2\n  eq\n  tag_252\n  jumpi\n    /* \"#utility.yul\":10684:10961   */\n  jump(tag_250)\n    /* \"#utility.yul\":10734:10761   */\ntag_251:\n    /* \"#utility.yul\":10752:10753   */\n  0x01\n    /* \"#utility.yul\":10743:10753   */\n  swap2\n  pop\n    /* \"#utility.yul\":10754:10759   */\n  pop\n  jump(tag_247)\n    /* \"#utility.yul\":10770:10961   */\ntag_252:\n    /* \"#utility.yul\":10815:10818   */\n  0xff\n    /* \"#utility.yul\":10805:10813   */\n  dup5\n    /* \"#utility.yul\":10802:10819   */\n  gt\n    /* \"#utility.yul\":10799:10842   */\n  iszero\n  tag_253\n  jumpi\n    /* \"#utility.yul\":10822:10840   */\n  tag_254\n  tag_118\n  jump\t// in\ntag_254:\n    /* \"#utility.yul\":10799:10842   */\ntag_253:\n    /* \"#utility.yul\":10871:10879   */\n  dup4\n    /* \"#utility.yul\":10868:10869   */\n  0x02\n    /* \"#utility.yul\":10864:10880   */\n  exp\n    /* \"#utility.yul\":10855:10880   */\n  swap2\n  pop\n    /* \"#utility.yul\":10906:10909   */\n  dup5\n    /* \"#utility.yul\":10899:10904   */\n  dup3\n    /* \"#utility.yul\":10896:10910   */\n  gt\n    /* \"#utility.yul\":10893:10933   */\n  iszero\n  tag_255\n  jumpi\n    /* \"#utility.yul\":10913:10931   */\n  tag_256\n  tag_118\n  jump\t// in\ntag_256:\n    /* \"#utility.yul\":10893:10933   */\ntag_255:\n    /* \"#utility.yul\":10946:10951   */\n  pop\n  jump(tag_247)\n    /* \"#utility.yul\":10684:10961   */\ntag_250:\n  pop\n    /* \"#utility.yul\":11070:11072   */\n  0x20\n    /* \"#utility.yul\":11060:11068   */\n  dup4\n    /* \"#utility.yul\":11057:11073   */\n  lt\n    /* \"#utility.yul\":11051:11054   */\n  0x0133\n    /* \"#utility.yul\":11045:11049   */\n  dup4\n    /* \"#utility.yul\":11042:11055   */\n  lt\n    /* \"#utility.yul\":11038:11074   */\n  and\n    /* \"#utility.yul\":11020:11022   */\n  0x4e\n    /* \"#utility.yul\":11010:11018   */\n  dup5\n    /* \"#utility.yul\":11007:11023   */\n  lt\n    /* \"#utility.yul\":11002:11004   */\n  0x0b\n    /* \"#utility.yul\":10996:11000   */\n  dup5\n    /* \"#utility.yul\":10993:11005   */\n  lt\n    /* \"#utility.yul\":10989:11024   */\n  and\n    /* \"#utility.yul\":10973:11084   */\n  or\n    /* \"#utility.yul\":10970:11216   */\n  iszero\n  tag_257\n  jumpi\n    /* \"#utility.yul\":11126:11134   */\n  dup3\n    /* \"#utility.yul\":11120:11124   */\n  dup3\n    /* \"#utility.yul\":11116:11135   */\n  exp\n    /* \"#utility.yul\":11107:11135   */\n  swap1\n  pop\n    /* \"#utility.yul\":11161:11164   */\n  dup4\n    /* \"#utility.yul\":11154:11159   */\n  dup2\n    /* \"#utility.yul\":11151:11165   */\n  gt\n    /* \"#utility.yul\":11148:11188   */\n  iszero\n  tag_258\n  jumpi\n    /* \"#utility.yul\":11168:11186   */\n  tag_259\n  tag_118\n  jump\t// in\ntag_259:\n    /* \"#utility.yul\":11148:11188   */\ntag_258:\n    /* \"#utility.yul\":11201:11206   */\n  jump(tag_247)\n    /* \"#utility.yul\":10970:11216   */\ntag_257:\n    /* \"#utility.yul\":11241:11283   */\n  tag_260\n    /* \"#utility.yul\":11279:11282   */\n  dup5\n    /* \"#utility.yul\":11269:11277   */\n  dup5\n    /* \"#utility.yul\":11263:11267   */\n  dup5\n    /* \"#utility.yul\":11260:11261   */\n  0x01\n    /* \"#utility.yul\":11241:11283   */\n  tag_120\n  jump\t// in\ntag_260:\n    /* \"#utility.yul\":11226:11283   */\n  swap3\n  pop\n  swap1\n  pop\n    /* \"#utility.yul\":11315:11319   */\n  dup2\n    /* \"#utility.yul\":11310:11313   */\n  dup5\n    /* \"#utility.yul\":11306:11320   */\n  div\n    /* \"#utility.yul\":11299:11304   */\n  dup2\n    /* \"#utility.yul\":11296:11321   */\n  gt\n    /* \"#utility.yul\":11293:11344   */\n  iszero\n  tag_261\n  jumpi\n    /* \"#utility.yul\":11324:11342   */\n  tag_262\n  tag_118\n  jump\t// in\ntag_262:\n    /* \"#utility.yul\":11293:11344   */\ntag_261:\n    /* \"#utility.yul\":11373:11377   */\n  dup2\n    /* \"#utility.yul\":11366:11371   */\n  dup2\n    /* \"#utility.yul\":11362:11378   */\n  mul\n    /* \"#utility.yul\":11353:11378   */\n  swap1\n  pop\n    /* \"#utility.yul\":10311:11384   */\ntag_247:\n  swap4\n  swap3\n  pop\n  pop\n  pop\n  jump\t// out\n    /* \"#utility.yul\":11390:11675   */\ntag_22:\n    /* \"#utility.yul\":11450:11455   */\n  0x00\n    /* \"#utility.yul\":11474:11497   */\n  tag_264\n    /* \"#utility.yul\":11492:11496   */\n  dup3\n    /* \"#utility.yul\":11474:11497   */\n  tag_103\n  jump\t// in\ntag_264:\n    /* \"#utility.yul\":11466:11497   */\n  swap2\n  pop\n    /* \"#utility.yul\":11518:11545   */\n  tag_265\n    /* \"#utility.yul\":11536:11544   */\n  dup4\n    /* \"#utility.yul\":11518:11545   */\n  tag_103\n  jump\t// in\ntag_265:\n    /* \"#utility.yul\":11506:11545   */\n  swap3\n  pop\n    /* \"#utility.yul\":11564:11668   */\n  tag_266\n    /* \"#utility.yul\":11601:11667   */\n  0xffffffffffffffffffffffffffffffffffffffffffffffffffffffffffffffff\n    /* \"#utility.yul\":11591:11599   */\n  dup5\n    /* \"#utility.yul\":11585:11589   */\n  dup5\n    /* \"#utility.yul\":11564:11668   */\n  tag_121\n  jump\t// in\ntag_266:\n    /* \"#utility.yul\":11555:11668   */\n  swap1\n  pop\n    /* \"#utility.yul\":11390:11675   */\n  swap3\n  swap2\n  pop\n  pop\n  jump\t// out\n    /* \"#utility.yul\":11681:12091   */\ntag_24:\n    /* \"#utility.yul\":11721:11728   */\n  0x00\n    /* \"#utility.yul\":11744:11764   */\n  tag_268\n    /* \"#utility.yul\":11762:11763   */\n  dup3\n    /* \"#utility.yul\":11744:11764   */\n  tag_103\n  jump\t// in\ntag_268:\n    /* \"#utility.yul\":11739:11764   */\n  swap2\n  pop\n    /* \"#utility.yul\":11778:11798   */\n  tag_269\n    /* \"#utility.yul\":11796:11797   */\n  dup4\n    /* \"#utility.yul\":11778:11798   */\n  tag_103\n  jump\t// in\ntag_269:\n    /* \"#utility.yul\":11773:11798   */\n  swap3\n  pop\n    /* \"#utility.yul\":11833:11834   */\n  dup3\n    /* \"#utility.yul\":11830:11831   */\n  dup3\n    /* \"#utility.yul\":11826:11835   */\n  mul\n    /* \"#utility.yul\":11855:11885   */\n  tag_270\n    /* \"#utility.yul\":11873:11884   */\n  dup2\n    /* \"#utility.yul\":11855:11885   */\n  tag_103\n  jump\t// in\ntag_270:\n    /* \"#utility.yul\":11844:11885   */\n  swap2\n  pop\n    /* \"#utility.yul\":12034:12035   */\n  dup3\n    /* \"#utility.yul\":12025:12032   */\n  dup3\n    /* \"#utility.yul\":12021:12036   */\n  div\n    /* \"#utility.yul\":12018:12019   */\n  dup5\n    /* \"#utility.yul\":12015:12037   */\n  eq\n    /* \"#utility.yul\":11995:11996   */\n  dup4\n    /* \"#utility.yul\":11988:11997   */\n  iszero\n    /* \"#utility.yul\":11968:12051   */\n  or\n    /* \"#utility.yul\":11945:12084   */\n  tag_271\n  jumpi\n    /* \"#utility.yul\":12064:12082   */\n  tag_272\n  tag_118\n  jump\t// in\ntag_272:\n    /* \"#utility.yul\":11945:12084   */\ntag_271:\n    /* \"#utility.yul\":11729:12091   */\n  pop\n    /* \"#utility.yul\":11681:12091   */\n  swap3\n  swap2\n  pop\n  pop\n  jump\t// out\n    /* \"#utility.yul\":12097:12266   */\ntag_122:\n    /* \"#utility.yul\":12181:12192   */\n  0x00\n    /* \"#utility.yul\":12215:12221   */\n  dup3\n    /* \"#utility.yul\":12210:12213   */\n  dup3\n    /* \"#utility.yul\":12203:12222   */\n  mstore\n    /* \"#utility.yul\":12255:12259   */\n  0x20\n    /* \"#utility.yul\":12250:12253   */\n  dup3\n    /* \"#utility.yul\":12246:12260   */\n  add\n    /* \"#utility.yul\":12231:12260   */\n  swap1\n  pop\n    /* \"#utility.yul\":12097:12266   */\n  swap3\n  swap2\n  pop\n  pop\n  jump\t// out\n    /* \"#utility.yul\":12272:12449   */\ntag_123:\n    /* \"#utility.yul\":12412:12441   */\n  0x546f6b656e207472616e73666572207768696c65207061757365640000000000\n    /* \"#utility.yul\":12408:12409   */\n  0x00\n    /* \"#utility.yul\":12400:12406   */\n  dup3\n    /* \"#utility.yul\":12396:12410   */\n  add\n    /* \"#utility.yul\":12389:12442   */\n  mstore\n    /* \"#utility.yul\":12272:12449   */\n  pop\n  jump\t// out\n    /* \"#utility.yul\":12455:12821   */\ntag_124:\n    /* \"#utility.yul\":12597:12600   */\n  0x00\n    /* \"#utility.yul\":12618:12685   */\n  tag_276\n    /* \"#utility.yul\":12682:12684   */\n  0x1b\n    /* \"#utility.yul\":12677:12680   */\n  dup4\n    /* \"#utility.yul\":12618:12685   */\n  tag_122\n  jump\t// in\ntag_276:\n    /* \"#utility.yul\":12611:12685   */\n  swap2\n  pop\n    /* \"#utility.yul\":12694:12787   */\n  tag_277\n    /* \"#utility.yul\":12783:12786   */\n  dup3\n    /* \"#utility.yul\":12694:12787   */\n  tag_123\n  jump\t// in\ntag_277:\n    /* \"#utility.yul\":12812:12814   */\n  0x20\n    /* \"#utility.yul\":12807:12810   */\n  dup3\n    /* \"#utility.yul\":12803:12815   */\n  add\n    /* \"#utility.yul\":12796:12815   */\n  swap1\n  pop\n    /* \"#utility.yul\":12455:12821   */\n  swap2\n  swap1\n  pop\n  jump\t// out\n    /* \"#utility.yul\":12827:13246   */\ntag_43:\n    /* \"#utility.yul\":12993:12997   */\n  0x00\n    /* \"#utility.yul\":13031:13033   */\n  0x20\n    /* \"#utility.yul\":13020:13029   */\n  dup3\n    /* \"#utility.yul\":13016:13034   */\n  add\n    /* \"#utility.yul\":13008:13034   */\n  swap1\n  pop\n    /* \"#utility.yul\":13080:13089   */\n  dup2\n    /* \"#utility.yul\":13074:13078   */\n  dup2\n    /* \"#utility.yul\":13070:13090   */\n  sub\n    /* \"#utility.yul\":13066:13067   */\n  0x00\n    /* \"#utility.yul\":13055:13064   */\n  dup4\n    /* \"#utility.yul\":13051:13068   */\n  add\n    /* \"#utility.yul\":13044:13091   */\n  mstore\n    /* \"#utility.yul\":13108:13239   */\n  tag_279\n    /* \"#utility.yul\":13234:13238   */\n  dup2\n    /* \"#utility.yul\":13108:13239   */\n  tag_124\n  jump\t// in\ntag_279:\n    /* \"#utility.yul\":13100:13239   */\n  swap1\n  pop\n    /* \"#utility.yul\":12827:13246   */\n  swap2\n  swap1\n  pop\n  jump\t// out\n    /* \"#utility.yul\":13252:13494   */\ntag_125:\n    /* \"#utility.yul\":13392:13426   */\n  0x45524332304c6f636b61626c653a207472616e7366657220616d6f756e742065\n    /* \"#utility.yul\":13388:13389   */\n  0x00\n    /* \"#utility.yul\":13380:13386   */\n  dup3\n    /* \"#utility.yul\":13376:13390   */\n  add\n    /* \"#utility.yul\":13369:13427   */\n  mstore\n    /* \"#utility.yul\":13461:13486   */\n  0x78636565647320756e6c6f636b65642062616c616e6365000000000000000000\n    /* \"#utility.yul\":13456:13458   */\n  0x20\n    /* \"#utility.yul\":13448:13454   */\n  dup3\n    /* \"#utility.yul\":13444:13459   */\n  add\n    /* \"#utility.yul\":13437:13487   */\n  mstore\n    /* \"#utility.yul\":13252:13494   */\n  pop\n  jump\t// out\n    /* \"#utility.yul\":13500:13866   */\ntag_126:\n    /* \"#utility.yul\":13642:13645   */\n  0x00\n    /* \"#utility.yul\":13663:13730   */\n  tag_282\n    /* \"#utility.yul\":13727:13729   */\n  0x37\n    /* \"#utility.yul\":13722:13725   */\n  dup4\n    /* \"#utility.yul\":13663:13730   */\n  tag_122\n  jump\t// in\ntag_282:\n    /* \"#utility.yul\":13656:13730   */\n  swap2\n  pop\n    /* \"#utility.yul\":13739:13832   */\n  tag_283\n    /* \"#utility.yul\":13828:13831   */\n  dup3\n    /* \"#utility.yul\":13739:13832   */\n  tag_125\n  jump\t// in\ntag_283:\n    /* \"#utility.yul\":13857:13859   */\n  0x40\n    /* \"#utility.yul\":13852:13855   */\n  dup3\n    /* \"#utility.yul\":13848:13860   */\n  add\n    /* \"#utility.yul\":13841:13860   */\n  swap1\n  pop\n    /* \"#utility.yul\":13500:13866   */\n  swap2\n  swap1\n  pop\n  jump\t// out\n    /* \"#utility.yul\":13872:14291   */\ntag_48:\n    /* \"#utility.yul\":14038:14042   */\n  0x00\n    /* \"#utility.yul\":14076:14078   */\n  0x20\n    /* \"#utility.yul\":14065:14074   */\n  dup3\n    /* \"#utility.yul\":14061:14079   */\n  add\n    /* \"#utility.yul\":14053:14079   */\n  swap1\n  pop\n    /* \"#utility.yul\":14125:14134   */\n  dup2\n    /* \"#utility.yul\":14119:14123   */\n  dup2\n    /* \"#utility.yul\":14115:14135   */\n  sub\n    /* \"#utility.yul\":14111:14112   */\n  0x00\n    /* \"#utility.yul\":14100:14109   */\n  dup4\n    /* \"#utility.yul\":14096:14113   */\n  add\n    /* \"#utility.yul\":14089:14136   */\n  mstore\n    /* \"#utility.yul\":14153:14284   */\n  tag_285\n    /* \"#utility.yul\":14279:14283   */\n  dup2\n    /* \"#utility.yul\":14153:14284   */\n  tag_126\n  jump\t// in\ntag_285:\n    /* \"#utility.yul\":14145:14284   */\n  swap1\n  pop\n    /* \"#utility.yul\":13872:14291   */\n  swap2\n  swap1\n  pop\n  jump\t// out\n    /* \"#utility.yul\":14297:14477   */\ntag_59:\n    /* \"#utility.yul\":14345:14422   */\n  0x4e487b7100000000000000000000000000000000000000000000000000000000\n    /* \"#utility.yul\":14342:14343   */\n  0x00\n    /* \"#utility.yul\":14335:14423   */\n  mstore\n    /* \"#utility.yul\":14442:14446   */\n  0x32\n    /* \"#utility.yul\":14439:14440   */\n  0x04\n    /* \"#utility.yul\":14432:14447   */\n  mstore\n    /* \"#utility.yul\":14466:14470   */\n  0x24\n    /* \"#utility.yul\":14463:14464   */\n  0x00\n    /* \"#utility.yul\":14456:14471   */\n  revert\n    /* \"#utility.yul\":14483:14674   */\ntag_66:\n    /* \"#utility.yul\":14523:14526   */\n  0x00\n    /* \"#utility.yul\":14542:14562   */\n  tag_288\n    /* \"#utility.yul\":14560:14561   */\n  dup3\n    /* \"#utility.yul\":14542:14562   */\n  tag_103\n  jump\t// in\ntag_288:\n    /* \"#utility.yul\":14537:14562   */\n  swap2\n  pop\n    /* \"#utility.yul\":14576:14596   */\n  tag_289\n    /* \"#utility.yul\":14594:14595   */\n  dup4\n    /* \"#utility.yul\":14576:14596   */\n  tag_103\n  jump\t// in\ntag_289:\n    /* \"#utility.yul\":14571:14596   */\n  swap3\n  pop\n    /* \"#utility.yul\":14619:14620   */\n  dup3\n    /* \"#utility.yul\":14616:14617   */\n  dup3\n    /* \"#utility.yul\":14612:14621   */\n  add\n    /* \"#utility.yul\":14605:14621   */\n  swap1\n  pop\n    /* \"#utility.yul\":14640:14643   */\n  dup1\n    /* \"#utility.yul\":14637:14638   */\n  dup3\n    /* \"#utility.yul\":14634:14644   */\n  gt\n    /* \"#utility.yul\":14631:14667   */\n  iszero\n  tag_290\n  jumpi\n    /* \"#utility.yul\":14647:14665   */\n  tag_291\n  tag_118\n  jump\t// in\ntag_291:\n    /* \"#utility.yul\":14631:14667   */\ntag_290:\n    /* \"#utility.yul\":14483:14674   */\n  swap3\n  swap2\n  pop\n  pop\n  jump\t// out\n    /* \"#utility.yul\":14680:14874   */\ntag_70:\n    /* \"#utility.yul\":14720:14724   */\n  0x00\n    /* \"#utility.yul\":14740:14760   */\n  tag_293\n    /* \"#utility.yul\":14758:14759   */\n  dup3\n    /* \"#utility.yul\":14740:14760   */\n  tag_103\n  jump\t// in\ntag_293:\n    /* \"#utility.yul\":14735:14760   */\n  swap2\n  pop\n    /* \"#utility.yul\":14774:14794   */\n  tag_294\n    /* \"#utility.yul\":14792:14793   */\n  dup4\n    /* \"#utility.yul\":14774:14794   */\n  tag_103\n  jump\t// in\ntag_294:\n    /* \"#utility.yul\":14769:14794   */\n  swap3\n  pop\n    /* \"#utility.yul\":14818:14819   */\n  dup3\n    /* \"#utility.yul\":14815:14816   */\n  dup3\n    /* \"#utility.yul\":14811:14820   */\n  sub\n    /* \"#utility.yul\":14803:14820   */\n  swap1\n  pop\n    /* \"#utility.yul\":14842:14843   */\n  dup2\n    /* \"#utility.yul\":14836:14840   */\n  dup2\n    /* \"#utility.yul\":14833:14844   */\n  gt\n    /* \"#utility.yul\":14830:14867   */\n  iszero\n  tag_295\n  jumpi\n    /* \"#utility.yul\":14847:14865   */\n  tag_296\n  tag_118\n  jump\t// in\ntag_296:\n    /* \"#utility.yul\":14830:14867   */\ntag_295:\n    /* \"#utility.yul\":14680:14874   */\n  swap3\n  swap2\n  pop\n  pop\n  jump\t// out\n    /* \"#utility.yul\":14880:14998   */\ntag_127:\n    /* \"#utility.yul\":14967:14991   */\n  tag_298\n    /* \"#utility.yul\":14985:14990   */\n  dup2\n    /* \"#utility.yul\":14967:14991   */\n  tag_103\n  jump\t// in\ntag_298:\n    /* \"#utility.yul\":14962:14965   */\n  dup3\n    /* \"#utility.yul\":14955:14992   */\n  mstore\n    /* \"#utility.yul\":14880:14998   */\n  pop\n  pop\n  jump\t// out\n    /* \"#utility.yul\":15004:15446   */\ntag_77:\n    /* \"#utility.yul\":15153:15157   */\n  0x00\n    /* \"#utility.yul\":15191:15193   */\n  0x60\n    /* \"#utility.yul\":15180:15189   */\n  dup3\n    /* \"#utility.yul\":15176:15194   */\n  add\n    /* \"#utility.yul\":15168:15194   */\n  swap1\n  pop\n    /* \"#utility.yul\":15204:15275   */\n  tag_300\n    /* \"#utility.yul\":15272:15273   */\n  0x00\n    /* \"#utility.yul\":15261:15270   */\n  dup4\n    /* \"#utility.yul\":15257:15274   */\n  add\n    /* \"#utility.yul\":15248:15254   */\n  dup7\n    /* \"#utility.yul\":15204:15275   */\n  tag_117\n  jump\t// in\ntag_300:\n    /* \"#utility.yul\":15285:15357   */\n  tag_301\n    /* \"#utility.yul\":15353:15355   */\n  0x20\n    /* \"#utility.yul\":15342:15351   */\n  dup4\n    /* \"#utility.yul\":15338:15356   */\n  add\n    /* \"#utility.yul\":15329:15335   */\n  dup6\n    /* \"#utility.yul\":15285:15357   */\n  tag_127\n  jump\t// in\ntag_301:\n    /* \"#utility.yul\":15367:15439   */\n  tag_302\n    /* \"#utility.yul\":15435:15437   */\n  0x40\n    /* \"#utility.yul\":15424:15433   */\n  dup4\n    /* \"#utility.yul\":15420:15438   */\n  add\n    /* \"#utility.yul\":15411:15417   */\n  dup5\n    /* \"#utility.yul\":15367:15439   */\n  tag_127\n  jump\t// in\ntag_302:\n    /* \"#utility.yul\":15004:15446   */\n  swap5\n  swap4\n  pop\n  pop\n  pop\n  pop\n  jump\t// out\n    /* \"#utility.yul\":15452:15674   */\ntag_81:\n    /* \"#utility.yul\":15545:15549   */\n  0x00\n    /* \"#utility.yul\":15583:15585   */\n  0x20\n    /* \"#utility.yul\":15572:15581   */\n  dup3\n    /* \"#utility.yul\":15568:15586   */\n  add\n    /* \"#utility.yul\":15560:15586   */\n  swap1\n  pop\n    /* \"#utility.yul\":15596:15667   */\n  tag_304\n    /* \"#utility.yul\":15664:15665   */\n  0x00\n    /* \"#utility.yul\":15653:15662   */\n  dup4\n    /* \"#utility.yul\":15649:15666   */\n  add\n    /* \"#utility.yul\":15640:15646   */\n  dup5\n    /* \"#utility.yul\":15596:15667   */\n  tag_127\n  jump\t// in\ntag_304:\n    /* \"#utility.yul\":15452:15674   */\n  swap3\n  swap2\n  pop\n  pop\n  jump\t// out\n    /* \"constracts/HealthMediToken.sol\":306:4172  contract HMEDERC20Token is ERC20, ERC20Burnable, Pausable, Ownable(msg.sender) {... */\ntag_26:\n  dataSize(sub_0)\n  dup1\n  dataOffset(sub_0)\n  0x00\n  codecopy\n  0x00\n  return\nstop\n\nsub_0: assembly {\n        /* \"constracts/HealthMediToken.sol\":306:4172  contract HMEDERC20Token is ERC20, ERC20Burnable, Pausable, Ownable(msg.sender) {... */\n      mstore(0x40, 0x80)\n      callvalue\n      dup1\n      iszero\n      tag_1\n      jumpi\n      0x00\n      dup1\n      revert\n    tag_1:\n      pop\n      jumpi(tag_2, lt(calldatasize, 0x04))\n      shr(0xe0, calldataload(0x00))\n      dup1\n      0x70a08231\n      gt\n      tag_26\n      jumpi\n      dup1\n      0x929ec537\n      gt\n      tag_27\n      jumpi\n      dup1\n      0x929ec537\n      eq\n      tag_20\n      jumpi\n      dup1\n      0x95d89b41\n      eq\n      tag_21\n      jumpi\n      dup1\n      0xa9059cbb\n      eq\n      tag_22\n      jumpi\n      dup1\n      0xd1c46916\n      eq\n      tag_23\n      jumpi\n      dup1\n      0xdd62ed3e\n      eq\n      tag_24\n      jumpi\n      dup1\n      0xf2fde38b\n      eq\n      tag_25\n      jumpi\n      jump(tag_2)\n    tag_27:\n      dup1\n      0x70a08231\n      eq\n      tag_14\n      jumpi\n      dup1\n      0x715018a6\n      eq\n      tag_15\n      jumpi\n      dup1\n      0x79cc6790\n      eq\n      tag_16\n      jumpi\n      dup1\n      0x8456cb59\n      eq\n      tag_17\n      jumpi\n      dup1\n      0x8d1fdf2f\n      eq\n      tag_18\n      jumpi\n      dup1\n      0x8da5cb5b\n      eq\n      tag_19\n      jumpi\n      jump(tag_2)\n    tag_26:\n      dup1\n      0x38b82092\n      gt\n      tag_28\n      jumpi\n      dup1\n      0x38b82092\n      eq\n      tag_8\n      jumpi\n      dup1\n      0x3f4ba83a\n      eq\n      tag_9\n      jumpi\n      dup1\n      0x42966c68\n      eq\n      tag_10\n      jumpi\n      dup1\n      0x45c8b1a6\n      eq\n      tag_11\n      jumpi\n      dup1\n      0x5c975abb\n      eq\n      tag_12\n      jumpi\n      dup1\n      0x5e1372f4\n      eq\n      tag_13\n      jumpi\n      jump(tag_2)\n    tag_28:\n      dup1\n      0x06fdde03\n      eq\n      tag_3\n      jumpi\n      dup1\n      0x095ea7b3\n      eq\n      tag_4\n      jumpi\n      dup1\n      0x18160ddd\n      eq\n      tag_5\n      jumpi\n      dup1\n      0x23b872dd\n      eq\n      tag_6\n      jumpi\n      dup1\n      0x313ce567\n      eq\n      tag_7\n      jumpi\n    tag_2:\n      0x00\n      dup1\n      revert\n        /* \"@openzeppelin/contracts/token/ERC20/ERC20.sol\":2074:2163  function name() public view virtual returns (string memory) {... */\n    tag_3:\n      tag_29\n      tag_30\n      jump\t// in\n    tag_29:\n      mload(0x40)\n      tag_31\n      swap2\n      swap1\n      tag_32\n      jump\t// in\n    tag_31:\n      mload(0x40)\n      dup1\n      swap2\n      sub\n      swap1\n      return\n        /* \"@openzeppelin/contracts/token/ERC20/ERC20.sol\":4293:4479  function approve(address spender, uint256 value) public virtual returns (bool) {... */\n    tag_4:\n      tag_33\n      0x04\n      dup1\n      calldatasize\n      sub\n      dup2\n      add\n      swap1\n      tag_34\n      swap2\n      swap1\n      tag_35\n      jump\t// in\n    tag_34:\n      tag_36\n      jump\t// in\n    tag_33:\n      mload(0x40)\n      tag_37\n      swap2\n      swap1\n      tag_38\n      jump\t// in\n    tag_37:\n      mload(0x40)\n      dup1\n      swap2\n      sub\n      swap1\n      return\n        /* \"@openzeppelin/contracts/token/ERC20/ERC20.sol\":3144:3241  function totalSupply() public view virtual returns (uint256) {... */\n    tag_5:\n      tag_39\n      tag_40\n      jump\t// in\n    tag_39:\n      mload(0x40)\n      tag_41\n      swap2\n      swap1\n      tag_42\n      jump\t// in\n    tag_41:\n      mload(0x40)\n      dup1\n      swap2\n      sub\n      swap1\n      return\n        /* \"@openzeppelin/contracts/token/ERC20/ERC20.sol\":5039:5283  function transferFrom(address from, address to, uint256 value) public virtual returns (bool) {... */\n    tag_6:\n      tag_43\n      0x04\n      dup1\n      calldatasize\n      sub\n      dup2\n      add\n      swap1\n      tag_44\n      swap2\n      swap1\n      tag_45\n      jump\t// in\n    tag_44:\n      tag_46\n      jump\t// in\n    tag_43:\n      mload(0x40)\n      tag_47\n      swap2\n      swap1\n      tag_38\n      jump\t// in\n    tag_47:\n      mload(0x40)\n      dup1\n      swap2\n      sub\n      swap1\n      return\n        /* \"@openzeppelin/contracts/token/ERC20/ERC20.sol\":3002:3084  function decimals() public view virtual returns (uint8) {... */\n    tag_7:\n      tag_48\n      tag_49\n      jump\t// in\n    tag_48:\n      mload(0x40)\n      tag_50\n      swap2\n      swap1\n      tag_51\n      jump\t// in\n    tag_50:\n      mload(0x40)\n      dup1\n      swap2\n      sub\n      swap1\n      return\n        /* \"constracts/HealthMediToken.sol\":2882:3100  function transferWithLockUp(address recipient, uint256 amount, uint256 lockTime) public onlyOwner {... */\n    tag_8:\n      tag_52\n      0x04\n      dup1\n      calldatasize\n      sub\n      dup2\n      add\n      swap1\n      tag_53\n      swap2\n      swap1\n      tag_54\n      jump\t// in\n    tag_53:\n      tag_55\n      jump\t// in\n    tag_52:\n      stop\n        /* \"constracts/HealthMediToken.sol\":3171:3234  function unpause() public onlyOwner {... */\n    tag_9:\n      tag_56\n      tag_57\n      jump\t// in\n    tag_56:\n      stop\n        /* \"@openzeppelin/contracts/token/ERC20/extensions/ERC20Burnable.sol\":618:705  function burn(uint256 value) public virtual {... */\n    tag_10:\n      tag_58\n      0x04\n      dup1\n      calldatasize\n      sub\n      dup2\n      add\n      swap1\n      tag_59\n      swap2\n      swap1\n      tag_60\n      jump\t// in\n    tag_59:\n      tag_61\n      jump\t// in\n    tag_58:\n      stop\n        /* \"constracts/HealthMediToken.sol\":1877:2083  function unfreeze(address account) public onlyOwner {... */\n    tag_11:\n      tag_62\n      0x04\n      dup1\n      calldatasize\n      sub\n      dup2\n      add\n      swap1\n      tag_63\n      swap2\n      swap1\n      tag_64\n      jump\t// in\n    tag_63:\n      tag_65\n      jump\t// in\n    tag_62:\n      stop\n        /* \"@openzeppelin/contracts/security/Pausable.sol\":1615:1699  function paused() public view virtual returns (bool) {... */\n    tag_12:\n      tag_66\n      tag_67\n      jump\t// in\n    tag_66:\n      mload(0x40)\n      tag_68\n      swap2\n      swap1\n      tag_38\n      jump\t// in\n    tag_68:\n      mload(0x40)\n      dup1\n      swap2\n      sub\n      swap1\n      return\n        /* \"constracts/HealthMediToken.sol\":2089:2315  function lockup(address account, uint256 amount, uint256 releaseTime) public onlyOwner {... */\n    tag_13:\n      tag_69\n      0x04\n      dup1\n      calldatasize\n      sub\n      dup2\n      add\n      swap1\n      tag_70\n      swap2\n      swap1\n      tag_54\n      jump\t// in\n    tag_70:\n      tag_71\n      jump\t// in\n    tag_69:\n      stop\n        /* \"@openzeppelin/contracts/token/ERC20/ERC20.sol\":3299:3415  function balanceOf(address account) public view virtual returns (uint256) {... */\n    tag_14:\n      tag_72\n      0x04\n      dup1\n      calldatasize\n      sub\n      dup2\n      add\n      swap1\n      tag_73\n      swap2\n      swap1\n      tag_64\n      jump\t// in\n    tag_73:\n      tag_74\n      jump\t// in\n    tag_72:\n      mload(0x40)\n      tag_75\n      swap2\n      swap1\n      tag_42\n      jump\t// in\n    tag_75:\n      mload(0x40)\n      dup1\n      swap2\n      sub\n      swap1\n      return\n        /* \"@openzeppelin/contracts/access/Ownable.sol\":2293:2394  function renounceOwnership() public virtual onlyOwner {... */\n    tag_15:\n      tag_76\n      tag_77\n      jump\t// in\n    tag_76:\n      stop\n        /* \"@openzeppelin/contracts/token/ERC20/extensions/ERC20Burnable.sol\":1021:1179  function burnFrom(address account, uint256 value) public virtual {... */\n    tag_16:\n      tag_78\n      0x04\n      dup1\n      calldatasize\n      sub\n      dup2\n      add\n      swap1\n      tag_79\n      swap2\n      swap1\n      tag_35\n      jump\t// in\n    tag_79:\n      tag_80\n      jump\t// in\n    tag_78:\n      stop\n        /* \"constracts/HealthMediToken.sol\":3106:3165  function pause() public onlyOwner {... */\n    tag_17:\n      tag_81\n      tag_82\n      jump\t// in\n    tag_81:\n      stop\n        /* \"constracts/HealthMediToken.sol\":1665:1871  function freeze(address account) public onlyOwner {... */\n    tag_18:\n      tag_83\n      0x04\n      dup1\n      calldatasize\n      sub\n      dup2\n      add\n      swap1\n      tag_84\n      swap2\n      swap1\n      tag_64\n      jump\t// in\n    tag_84:\n      tag_85\n      jump\t// in\n    tag_83:\n      stop\n        /* \"@openzeppelin/contracts/access/Ownable.sol\":1638:1723  function owner() public view virtual returns (address) {... */\n    tag_19:\n      tag_86\n      tag_87\n      jump\t// in\n    tag_86:\n      mload(0x40)\n      tag_88\n      swap2\n      swap1\n      tag_89\n      jump\t// in\n    tag_88:\n      mload(0x40)\n      dup1\n      swap2\n      sub\n      swap1\n      return\n        /* \"constracts/HealthMediToken.sol\":3814:4170  function getLockedAmount(address account) public view returns (uint256) {... */\n    tag_20:\n      tag_90\n      0x04\n      dup1\n      calldatasize\n      sub\n      dup2\n      add\n      swap1\n      tag_91\n      swap2\n      swap1\n      tag_64\n      jump\t// in\n    tag_91:\n      tag_92\n      jump\t// in\n    tag_90:\n      mload(0x40)\n      tag_93\n      swap2\n      swap1\n      tag_42\n      jump\t// in\n    tag_93:\n      mload(0x40)\n      dup1\n      swap2\n      sub\n      swap1\n      return\n        /* \"@openzeppelin/contracts/token/ERC20/ERC20.sol\":2276:2369  function symbol() public view virtual returns (string memory) {... */\n    tag_21:\n      tag_94\n      tag_95\n      jump\t// in\n    tag_94:\n      mload(0x40)\n      tag_96\n      swap2\n      swap1\n      tag_32\n      jump\t// in\n    tag_96:\n      mload(0x40)\n      dup1\n      swap2\n      sub\n      swap1\n      return\n        /* \"@openzeppelin/contracts/token/ERC20/ERC20.sol\":3610:3788  function transfer(address to, uint256 value) public virtual returns (bool) {... */\n    tag_22:\n      tag_97\n      0x04\n      dup1\n      calldatasize\n      sub\n      dup2\n      add\n      swap1\n      tag_98\n      swap2\n      swap1\n      tag_35\n      jump\t// in\n    tag_98:\n      tag_99\n      jump\t// in\n    tag_97:\n      mload(0x40)\n      tag_100\n      swap2\n      swap1\n      tag_38\n      jump\t// in\n    tag_100:\n      mload(0x40)\n      dup1\n      swap2\n      sub\n      swap1\n      return\n        /* \"constracts/HealthMediToken.sol\":2321:2876  function releaseLock(address account) public {... */\n    tag_23:\n      tag_101\n      0x04\n      dup1\n      calldatasize\n      sub\n      dup2\n      add\n      swap1\n      tag_102\n      swap2\n      swap1\n      tag_64\n      jump\t// in\n    tag_102:\n      tag_103\n      jump\t// in\n    tag_101:\n      stop\n        /* \"@openzeppelin/contracts/token/ERC20/ERC20.sol\":3846:3986  function allowance(address owner, address spender) public view virtual returns (uint256) {... */\n    tag_24:\n      tag_104\n      0x04\n      dup1\n      calldatasize\n      sub\n      dup2\n      add\n      swap1\n      tag_105\n      swap2\n      swap1\n      tag_106\n      jump\t// in\n    tag_105:\n      tag_107\n      jump\t// in\n    tag_104:\n      mload(0x40)\n      tag_108\n      swap2\n      swap1\n      tag_42\n      jump\t// in\n    tag_108:\n      mload(0x40)\n      dup1\n      swap2\n      sub\n      swap1\n      return\n        /* \"@openzeppelin/contracts/access/Ownable.sol\":2543:2758  function transferOwnership(address newOwner) public virtual onlyOwner {... */\n    tag_25:\n      tag_109\n      0x04\n      dup1\n      calldatasize\n      sub\n      dup2\n      add\n      swap1\n      tag_110\n      swap2\n      swap1\n      tag_64\n      jump\t// in\n    tag_110:\n      tag_111\n      jump\t// in\n    tag_109:\n      stop\n        /* \"@openzeppelin/contracts/token/ERC20/ERC20.sol\":2074:2163  function name() public view virtual returns (string memory) {... */\n    tag_30:\n        /* \"@openzeppelin/contracts/token/ERC20/ERC20.sol\":2119:2132  string memory */\n      0x60\n        /* \"@openzeppelin/contracts/token/ERC20/ERC20.sol\":2151:2156  _name */\n      0x03\n        /* \"@openzeppelin/contracts/token/ERC20/ERC20.sol\":2144:2156  return _name */\n      dup1\n      sload\n      tag_113\n      swap1\n      tag_114\n      jump\t// in\n    tag_113:\n      dup1\n      0x1f\n      add\n      0x20\n      dup1\n      swap2\n      div\n      mul\n      0x20\n      add\n      mload(0x40)\n      swap1\n      dup2\n      add\n      0x40\n      mstore\n      dup1\n      swap3\n      swap2\n      swap1\n      dup2\n      dup2\n      mstore\n      0x20\n      add\n      dup3\n      dup1\n      sload\n      tag_115\n      swap1\n      tag_114\n      jump\t// in\n    tag_115:\n      dup1\n      iszero\n      tag_116\n      jumpi\n      dup1\n      0x1f\n      lt\n      tag_117\n      jumpi\n      0x0100\n      dup1\n      dup4\n      sload\n      div\n      mul\n      dup4\n      mstore\n      swap2\n      0x20\n      add\n      swap2\n      jump(tag_116)\n    tag_117:\n      dup3\n      add\n      swap2\n      swap1\n      0x00\n      mstore\n      keccak256(0x00, 0x20)\n      swap1\n    tag_118:\n      dup2\n      sload\n      dup2\n      mstore\n      swap1\n      0x01\n      add\n      swap1\n      0x20\n      add\n      dup1\n      dup4\n      gt\n      tag_118\n      jumpi\n      dup3\n      swap1\n      sub\n      0x1f\n      and\n      dup3\n      add\n      swap2\n    tag_116:\n      pop\n      pop\n      pop\n      pop\n      pop\n      swap1\n      pop\n        /* \"@openzeppelin/contracts/token/ERC20/ERC20.sol\":2074:2163  function name() public view virtual returns (string memory) {... */\n      swap1\n      jump\t// out\n        /* \"@openzeppelin/contracts/token/ERC20/ERC20.sol\":4293:4479  function approve(address spender, uint256 value) public virtual returns (bool) {... */\n    tag_36:\n        /* \"@openzeppelin/contracts/token/ERC20/ERC20.sol\":4366:4370  bool */\n      0x00\n        /* \"@openzeppelin/contracts/token/ERC20/ERC20.sol\":4382:4395  address owner */\n      dup1\n        /* \"@openzeppelin/contracts/token/ERC20/ERC20.sol\":4398:4410  _msgSender() */\n      tag_120\n        /* \"@openzeppelin/contracts/token/ERC20/ERC20.sol\":4398:4408  _msgSender */\n      tag_121\n        /* \"@openzeppelin/contracts/token/ERC20/ERC20.sol\":4398:4410  _msgSender() */\n      jump\t// in\n    tag_120:\n        /* \"@openzeppelin/contracts/token/ERC20/ERC20.sol\":4382:4410  address owner = _msgSender() */\n      swap1\n      pop\n        /* \"@openzeppelin/contracts/token/ERC20/ERC20.sol\":4420:4451  _approve(owner, spender, value) */\n      tag_122\n        /* \"@openzeppelin/contracts/token/ERC20/ERC20.sol\":4429:4434  owner */\n      dup2\n        /* \"@openzeppelin/contracts/token/ERC20/ERC20.sol\":4436:4443  spender */\n      dup6\n        /* \"@openzeppelin/contracts/token/ERC20/ERC20.sol\":4445:4450  value */\n      dup6\n        /* \"@openzeppelin/contracts/token/ERC20/ERC20.sol\":4420:4428  _approve */\n      tag_123\n        /* \"@openzeppelin/contracts/token/ERC20/ERC20.sol\":4420:4451  _approve(owner, spender, value) */\n      jump\t// in\n    tag_122:\n        /* \"@openzeppelin/contracts/token/ERC20/ERC20.sol\":4468:4472  true */\n      0x01\n        /* \"@openzeppelin/contracts/token/ERC20/ERC20.sol\":4461:4472  return true */\n      swap2\n      pop\n      pop\n        /* \"@openzeppelin/contracts/token/ERC20/ERC20.sol\":4293:4479  function approve(address spender, uint256 value) public virtual returns (bool) {... */\n      swap3\n      swap2\n      pop\n      pop\n      jump\t// out\n        /* \"@openzeppelin/contracts/token/ERC20/ERC20.sol\":3144:3241  function totalSupply() public view virtual returns (uint256) {... */\n    tag_40:\n        /* \"@openzeppelin/contracts/token/ERC20/ERC20.sol\":3196:3203  uint256 */\n      0x00\n        /* \"@openzeppelin/contracts/token/ERC20/ERC20.sol\":3222:3234  _totalSupply */\n      sload(0x02)\n        /* \"@openzeppelin/contracts/token/ERC20/ERC20.sol\":3215:3234  return _totalSupply */\n      swap1\n      pop\n        /* \"@openzeppelin/contracts/token/ERC20/ERC20.sol\":3144:3241  function totalSupply() public view virtual returns (uint256) {... */\n      swap1\n      jump\t// out\n        /* \"@openzeppelin/contracts/token/ERC20/ERC20.sol\":5039:5283  function transferFrom(address from, address to, uint256 value) public virtual returns (bool) {... */\n    tag_46:\n        /* \"@openzeppelin/contracts/token/ERC20/ERC20.sol\":5126:5130  bool */\n      0x00\n        /* \"@openzeppelin/contracts/token/ERC20/ERC20.sol\":5142:5157  address spender */\n      dup1\n        /* \"@openzeppelin/contracts/token/ERC20/ERC20.sol\":5160:5172  _msgSender() */\n      tag_126\n        /* \"@openzeppelin/contracts/token/ERC20/ERC20.sol\":5160:5170  _msgSender */\n      tag_121\n        /* \"@openzeppelin/contracts/token/ERC20/ERC20.sol\":5160:5172  _msgSender() */\n      jump\t// in\n    tag_126:\n        /* \"@openzeppelin/contracts/token/ERC20/ERC20.sol\":5142:5172  address spender = _msgSender() */\n      swap1\n      pop\n        /* \"@openzeppelin/contracts/token/ERC20/ERC20.sol\":5182:5219  _spendAllowance(from, spender, value) */\n      tag_127\n        /* \"@openzeppelin/contracts/token/ERC20/ERC20.sol\":5198:5202  from */\n      dup6\n        /* \"@openzeppelin/contracts/token/ERC20/ERC20.sol\":5204:5211  spender */\n      dup3\n        /* \"@openzeppelin/contracts/token/ERC20/ERC20.sol\":5213:5218  value */\n      dup6\n        /* \"@openzeppelin/contracts/token/ERC20/ERC20.sol\":5182:5197  _spendAllowance */\n      tag_128\n        /* \"@openzeppelin/contracts/token/ERC20/ERC20.sol\":5182:5219  _spendAllowance(from, spender, value) */\n      jump\t// in\n    tag_127:\n        /* \"@openzeppelin/contracts/token/ERC20/ERC20.sol\":5229:5255  _transfer(from, to, value) */\n      tag_129\n        /* \"@openzeppelin/contracts/token/ERC20/ERC20.sol\":5239:5243  from */\n      dup6\n        /* \"@openzeppelin/contracts/token/ERC20/ERC20.sol\":5245:5247  to */\n      dup6\n        /* \"@openzeppelin/contracts/token/ERC20/ERC20.sol\":5249:5254  value */\n      dup6\n        /* \"@openzeppelin/contracts/token/ERC20/ERC20.sol\":5229:5238  _transfer */\n      tag_130\n        /* \"@openzeppelin/contracts/token/ERC20/ERC20.sol\":5229:5255  _transfer(from, to, value) */\n      jump\t// in\n    tag_129:\n        /* \"@openzeppelin/contracts/token/ERC20/ERC20.sol\":5272:5276  true */\n      0x01\n        /* \"@openzeppelin/contracts/token/ERC20/ERC20.sol\":5265:5276  return true */\n      swap2\n      pop\n      pop\n        /* \"@openzeppelin/contracts/token/ERC20/ERC20.sol\":5039:5283  function transferFrom(address from, address to, uint256 value) public virtual returns (bool) {... */\n      swap4\n      swap3\n      pop\n      pop\n      pop\n      jump\t// out\n        /* \"@openzeppelin/contracts/token/ERC20/ERC20.sol\":3002:3084  function decimals() public view virtual returns (uint8) {... */\n    tag_49:\n        /* \"@openzeppelin/contracts/token/ERC20/ERC20.sol\":3051:3056  uint8 */\n      0x00\n        /* \"@openzeppelin/contracts/token/ERC20/ERC20.sol\":3075:3077  18 */\n      0x12\n        /* \"@openzeppelin/contracts/token/ERC20/ERC20.sol\":3068:3077  return 18 */\n      swap1\n      pop\n        /* \"@openzeppelin/contracts/token/ERC20/ERC20.sol\":3002:3084  function decimals() public view virtual returns (uint8) {... */\n      swap1\n      jump\t// out\n        /* \"constracts/HealthMediToken.sol\":2882:3100  function transferWithLockUp(address recipient, uint256 amount, uint256 lockTime) public onlyOwner {... */\n    tag_55:\n        /* \"@openzeppelin/contracts/access/Ownable.sol\":1531:1544  _checkOwner() */\n      tag_133\n        /* \"@openzeppelin/contracts/access/Ownable.sol\":1531:1542  _checkOwner */\n      tag_134\n        /* \"@openzeppelin/contracts/access/Ownable.sol\":1531:1544  _checkOwner() */\n      jump\t// in\n    tag_133:\n        /* \"constracts/HealthMediToken.sol\":2990:3030  _transfer(msg.sender, recipient, amount) */\n      tag_136\n        /* \"constracts/HealthMediToken.sol\":3000:3010  msg.sender */\n      caller\n        /* \"constracts/HealthMediToken.sol\":3012:3021  recipient */\n      dup5\n        /* \"constracts/HealthMediToken.sol\":3023:3029  amount */\n      dup5\n        /* \"constracts/HealthMediToken.sol\":2990:2999  _transfer */\n      tag_130\n        /* \"constracts/HealthMediToken.sol\":2990:3030  _transfer(msg.sender, recipient, amount) */\n      jump\t// in\n    tag_136:\n        /* \"constracts/HealthMediToken.sol\":3040:3093  lockup(recipient, amount, block.timestamp + lockTime) */\n      tag_137\n        /* \"constracts/HealthMediToken.sol\":3047:3056  recipient */\n      dup4\n        /* \"constracts/HealthMediToken.sol\":3058:3064  amount */\n      dup4\n        /* \"constracts/HealthMediToken.sol\":3084:3092  lockTime */\n      dup4\n        /* \"constracts/HealthMediToken.sol\":3066:3081  block.timestamp */\n      timestamp\n        /* \"constracts/HealthMediToken.sol\":3066:3092  block.timestamp + lockTime */\n      tag_138\n      swap2\n      swap1\n      tag_139\n      jump\t// in\n    tag_138:\n        /* \"constracts/HealthMediToken.sol\":3040:3046  lockup */\n      tag_71\n        /* \"constracts/HealthMediToken.sol\":3040:3093  lockup(recipient, amount, block.timestamp + lockTime) */\n      jump\t// in\n    tag_137:\n        /* \"constracts/HealthMediToken.sol\":2882:3100  function transferWithLockUp(address recipient, uint256 amount, uint256 lockTime) public onlyOwner {... */\n      pop\n      pop\n      pop\n      jump\t// out\n        /* \"constracts/HealthMediToken.sol\":3171:3234  function unpause() public onlyOwner {... */\n    tag_57:\n        /* \"@openzeppelin/contracts/access/Ownable.sol\":1531:1544  _checkOwner() */\n      tag_141\n        /* \"@openzeppelin/contracts/access/Ownable.sol\":1531:1542  _checkOwner */\n      tag_134\n        /* \"@openzeppelin/contracts/access/Ownable.sol\":1531:1544  _checkOwner() */\n      jump\t// in\n    tag_141:\n        /* \"constracts/HealthMediToken.sol\":3217:3227  _unpause() */\n      tag_143\n        /* \"constracts/HealthMediToken.sol\":3217:3225  _unpause */\n      tag_144\n        /* \"constracts/HealthMediToken.sol\":3217:3227  _unpause() */\n      jump\t// in\n    tag_143:\n        /* \"constracts/HealthMediToken.sol\":3171:3234  function unpause() public onlyOwner {... */\n      jump\t// out\n        /* \"@openzeppelin/contracts/token/ERC20/extensions/ERC20Burnable.sol\":618:705  function burn(uint256 value) public virtual {... */\n    tag_61:\n        /* \"@openzeppelin/contracts/token/ERC20/extensions/ERC20Burnable.sol\":672:698  _burn(_msgSender(), value) */\n      tag_146\n        /* \"@openzeppelin/contracts/token/ERC20/extensions/ERC20Burnable.sol\":678:690  _msgSender() */\n      tag_147\n        /* \"@openzeppelin/contracts/token/ERC20/extensions/ERC20Burnable.sol\":678:688  _msgSender */\n      tag_121\n        /* \"@openzeppelin/contracts/token/ERC20/extensions/ERC20Burnable.sol\":678:690  _msgSender() */\n      jump\t// in\n    tag_147:\n        /* \"@openzeppelin/contracts/token/ERC20/extensions/ERC20Burnable.sol\":692:697  value */\n      dup3\n        /* \"@openzeppelin/contracts/token/ERC20/extensions/ERC20Burnable.sol\":672:677  _burn */\n      tag_148\n        /* \"@openzeppelin/contracts/token/ERC20/extensions/ERC20Burnable.sol\":672:698  _burn(_msgSender(), value) */\n      jump\t// in\n    tag_146:\n        /* \"@openzeppelin/contracts/token/ERC20/extensions/ERC20Burnable.sol\":618:705  function burn(uint256 value) public virtual {... */\n      pop\n      jump\t// out\n        /* \"constracts/HealthMediToken.sol\":1877:2083  function unfreeze(address account) public onlyOwner {... */\n    tag_65:\n        /* \"@openzeppelin/contracts/access/Ownable.sol\":1531:1544  _checkOwner() */\n      tag_150\n        /* \"@openzeppelin/contracts/access/Ownable.sol\":1531:1542  _checkOwner */\n      tag_134\n        /* \"@openzeppelin/contracts/access/Ownable.sol\":1531:1544  _checkOwner() */\n      jump\t// in\n    tag_150:\n        /* \"constracts/HealthMediToken.sol\":1947:1961  frozenAccounts */\n      0x06\n        /* \"constracts/HealthMediToken.sol\":1947:1970  frozenAccounts[account] */\n      0x00\n        /* \"constracts/HealthMediToken.sol\":1962:1969  account */\n      dup3\n        /* \"constracts/HealthMediToken.sol\":1947:1970  frozenAccounts[account] */\n      0xffffffffffffffffffffffffffffffffffffffff\n      and\n      0xffffffffffffffffffffffffffffffffffffffff\n      and\n      dup2\n      mstore\n      0x20\n      add\n      swap1\n      dup2\n      mstore\n      0x20\n      add\n      0x00\n      keccak256\n      0x00\n      swap1\n      sload\n      swap1\n      0x0100\n      exp\n      swap1\n      div\n      0xff\n      and\n        /* \"constracts/HealthMediToken.sol\":1939:1996  require(frozenAccounts[account], \"Account is not frozen\") */\n      tag_152\n      jumpi\n      mload(0x40)\n      0x08c379a000000000000000000000000000000000000000000000000000000000\n      dup2\n      mstore\n      0x04\n      add\n      tag_153\n      swap1\n      tag_154\n      jump\t// in\n    tag_153:\n      mload(0x40)\n      dup1\n      swap2\n      sub\n      swap1\n      revert\n    tag_152:\n        /* \"constracts/HealthMediToken.sol\":2032:2037  false */\n      0x00\n        /* \"constracts/HealthMediToken.sol\":2006:2020  frozenAccounts */\n      0x06\n        /* \"constracts/HealthMediToken.sol\":2006:2029  frozenAccounts[account] */\n      0x00\n        /* \"constracts/HealthMediToken.sol\":2021:2028  account */\n      dup4\n        /* \"constracts/HealthMediToken.sol\":2006:2029  frozenAccounts[account] */\n      0xffffffffffffffffffffffffffffffffffffffff\n      and\n      0xffffffffffffffffffffffffffffffffffffffff\n      and\n      dup2\n      mstore\n      0x20\n      add\n      swap1\n      dup2\n      mstore\n      0x20\n      add\n      0x00\n      keccak256\n      0x00\n        /* \"constracts/HealthMediToken.sol\":2006:2037  frozenAccounts[account] = false */\n      0x0100\n      exp\n      dup2\n      sload\n      dup2\n      0xff\n      mul\n      not\n      and\n      swap1\n      dup4\n      iszero\n      iszero\n      mul\n      or\n      swap1\n      sstore\n      pop\n        /* \"constracts/HealthMediToken.sol\":2068:2075  account */\n      dup1\n        /* \"constracts/HealthMediToken.sol\":2052:2076  AccountUnfrozen(account) */\n      0xffffffffffffffffffffffffffffffffffffffff\n      and\n      0xf915cd9fe234de6e8d3afe7bf2388d35b2b6d48e8c629a24602019bde79c213a\n      mload(0x40)\n      mload(0x40)\n      dup1\n      swap2\n      sub\n      swap1\n      log2\n        /* \"constracts/HealthMediToken.sol\":1877:2083  function unfreeze(address account) public onlyOwner {... */\n      pop\n      jump\t// out\n        /* \"@openzeppelin/contracts/security/Pausable.sol\":1615:1699  function paused() public view virtual returns (bool) {... */\n    tag_67:\n        /* \"@openzeppelin/contracts/security/Pausable.sol\":1662:1666  bool */\n      0x00\n        /* \"@openzeppelin/contracts/security/Pausable.sol\":1685:1692  _paused */\n      0x05\n      0x00\n      swap1\n      sload\n      swap1\n      0x0100\n      exp\n      swap1\n      div\n      0xff\n      and\n        /* \"@openzeppelin/contracts/security/Pausable.sol\":1678:1692  return _paused */\n      swap1\n      pop\n        /* \"@openzeppelin/contracts/security/Pausable.sol\":1615:1699  function paused() public view virtual returns (bool) {... */\n      swap1\n      jump\t// out\n        /* \"constracts/HealthMediToken.sol\":2089:2315  function lockup(address account, uint256 amount, uint256 releaseTime) public onlyOwner {... */\n    tag_71:\n        /* \"@openzeppelin/contracts/access/Ownable.sol\":1531:1544  _checkOwner() */\n      tag_157\n        /* \"@openzeppelin/contracts/access/Ownable.sol\":1531:1542  _checkOwner */\n      tag_134\n        /* \"@openzeppelin/contracts/access/Ownable.sol\":1531:1544  _checkOwner() */\n      jump\t// in\n    tag_157:\n        /* \"constracts/HealthMediToken.sol\":2216:2222  amount */\n      dup2\n        /* \"constracts/HealthMediToken.sol\":2194:2212  balanceOf(account) */\n      tag_159\n        /* \"constracts/HealthMediToken.sol\":2204:2211  account */\n      dup5\n        /* \"constracts/HealthMediToken.sol\":2194:2203  balanceOf */\n      tag_74\n        /* \"constracts/HealthMediToken.sol\":2194:2212  balanceOf(account) */\n      jump\t// in\n    tag_159:\n        /* \"constracts/HealthMediToken.sol\":2194:2222  balanceOf(account) >= amount */\n      lt\n      iszero\n        /* \"constracts/HealthMediToken.sol\":2186:2247  require(balanceOf(account) >= amount, \"Insufficient balance\") */\n      tag_160\n      jumpi\n      mload(0x40)\n      0x08c379a000000000000000000000000000000000000000000000000000000000\n      dup2\n      mstore\n      0x04\n      add\n      tag_161\n      swap1\n      tag_162\n      jump\t// in\n    tag_161:\n      mload(0x40)\n      dup1\n      swap2\n      sub\n      swap1\n      revert\n    tag_160:\n        /* \"constracts/HealthMediToken.sol\":2257:2263  _locks */\n      0x07\n        /* \"constracts/HealthMediToken.sol\":2257:2272  _locks[account] */\n      0x00\n        /* \"constracts/HealthMediToken.sol\":2264:2271  account */\n      dup5\n        /* \"constracts/HealthMediToken.sol\":2257:2272  _locks[account] */\n      0xffffffffffffffffffffffffffffffffffffffff\n      and\n      0xffffffffffffffffffffffffffffffffffffffff\n      and\n      dup2\n      mstore\n      0x20\n      add\n      swap1\n      dup2\n      mstore\n      0x20\n      add\n      0x00\n      keccak256\n        /* \"constracts/HealthMediToken.sol\":2278:2307  LockInfo(amount, releaseTime) */\n      mload(0x40)\n      dup1\n      0x40\n      add\n      0x40\n      mstore\n      dup1\n        /* \"constracts/HealthMediToken.sol\":2287:2293  amount */\n      dup5\n        /* \"constracts/HealthMediToken.sol\":2278:2307  LockInfo(amount, releaseTime) */\n      dup2\n      mstore\n      0x20\n      add\n        /* \"constracts/HealthMediToken.sol\":2295:2306  releaseTime */\n      dup4\n        /* \"constracts/HealthMediToken.sol\":2278:2307  LockInfo(amount, releaseTime) */\n      dup2\n      mstore\n      pop\n        /* \"constracts/HealthMediToken.sol\":2257:2308  _locks[account].push(LockInfo(amount, releaseTime)) */\n      swap1\n      dup1\n      0x01\n      dup2\n      sload\n      add\n      dup1\n      dup3\n      sstore\n      dup1\n      swap2\n      pop\n      pop\n      0x01\n      swap1\n      sub\n      swap1\n      0x00\n      mstore\n      keccak256(0x00, 0x20)\n      swap1\n      0x02\n      mul\n      add\n      0x00\n      swap1\n      swap2\n      swap1\n      swap2\n      swap1\n      swap2\n      pop\n      0x00\n      dup3\n      add\n      mload\n      dup2\n      0x00\n      add\n      sstore\n      0x20\n      dup3\n      add\n      mload\n      dup2\n      0x01\n      add\n      sstore\n      pop\n      pop\n        /* \"constracts/HealthMediToken.sol\":2089:2315  function lockup(address account, uint256 amount, uint256 releaseTime) public onlyOwner {... */\n      pop\n      pop\n      pop\n      jump\t// out\n        /* \"@openzeppelin/contracts/token/ERC20/ERC20.sol\":3299:3415  function balanceOf(address account) public view virtual returns (uint256) {... */\n    tag_74:\n        /* \"@openzeppelin/contracts/token/ERC20/ERC20.sol\":3364:3371  uint256 */\n      0x00\n        /* \"@openzeppelin/contracts/token/ERC20/ERC20.sol\":3390:3399  _balances */\n      dup1\n        /* \"@openzeppelin/contracts/token/ERC20/ERC20.sol\":3390:3408  _balances[account] */\n      0x00\n        /* \"@openzeppelin/contracts/token/ERC20/ERC20.sol\":3400:3407  account */\n      dup4\n        /* \"@openzeppelin/contracts/token/ERC20/ERC20.sol\":3390:3408  _balances[account] */\n      0xffffffffffffffffffffffffffffffffffffffff\n      and\n      0xffffffffffffffffffffffffffffffffffffffff\n      and\n      dup2\n      mstore\n      0x20\n      add\n      swap1\n      dup2\n      mstore\n      0x20\n      add\n      0x00\n      keccak256\n      sload\n        /* \"@openzeppelin/contracts/token/ERC20/ERC20.sol\":3383:3408  return _balances[account] */\n      swap1\n      pop\n        /* \"@openzeppelin/contracts/token/ERC20/ERC20.sol\":3299:3415  function balanceOf(address account) public view virtual returns (uint256) {... */\n      swap2\n      swap1\n      pop\n      jump\t// out\n        /* \"@openzeppelin/contracts/access/Ownable.sol\":2293:2394  function renounceOwnership() public virtual onlyOwner {... */\n    tag_77:\n        /* \"@openzeppelin/contracts/access/Ownable.sol\":1531:1544  _checkOwner() */\n      tag_166\n        /* \"@openzeppelin/contracts/access/Ownable.sol\":1531:1542  _checkOwner */\n      tag_134\n        /* \"@openzeppelin/contracts/access/Ownable.sol\":1531:1544  _checkOwner() */\n      jump\t// in\n    tag_166:\n        /* \"@openzeppelin/contracts/access/Ownable.sol\":2357:2387  _transferOwnership(address(0)) */\n      tag_168\n        /* \"@openzeppelin/contracts/access/Ownable.sol\":2384:2385  0 */\n      0x00\n        /* \"@openzeppelin/contracts/access/Ownable.sol\":2357:2375  _transferOwnership */\n      tag_169\n        /* \"@openzeppelin/contracts/access/Ownable.sol\":2357:2387  _transferOwnership(address(0)) */\n      jump\t// in\n    tag_168:\n        /* \"@openzeppelin/contracts/access/Ownable.sol\":2293:2394  function renounceOwnership() public virtual onlyOwner {... */\n      jump\t// out\n        /* \"@openzeppelin/contracts/token/ERC20/extensions/ERC20Burnable.sol\":1021:1179  function burnFrom(address account, uint256 value) public virtual {... */\n    tag_80:\n        /* \"@openzeppelin/contracts/token/ERC20/extensions/ERC20Burnable.sol\":1096:1141  _spendAllowance(account, _msgSender(), value) */\n      tag_171\n        /* \"@openzeppelin/contracts/token/ERC20/extensions/ERC20Burnable.sol\":1112:1119  account */\n      dup3\n        /* \"@openzeppelin/contracts/token/ERC20/extensions/ERC20Burnable.sol\":1121:1133  _msgSender() */\n      tag_172\n        /* \"@openzeppelin/contracts/token/ERC20/extensions/ERC20Burnable.sol\":1121:1131  _msgSender */\n      tag_121\n        /* \"@openzeppelin/contracts/token/ERC20/extensions/ERC20Burnable.sol\":1121:1133  _msgSender() */\n      jump\t// in\n    tag_172:\n        /* \"@openzeppelin/contracts/token/ERC20/extensions/ERC20Burnable.sol\":1135:1140  value */\n      dup4\n        /* \"@openzeppelin/contracts/token/ERC20/extensions/ERC20Burnable.sol\":1096:1111  _spendAllowance */\n      tag_128\n        /* \"@openzeppelin/contracts/token/ERC20/extensions/ERC20Burnable.sol\":1096:1141  _spendAllowance(account, _msgSender(), value) */\n      jump\t// in\n    tag_171:\n        /* \"@openzeppelin/contracts/token/ERC20/extensions/ERC20Burnable.sol\":1151:1172  _burn(account, value) */\n      tag_173\n        /* \"@openzeppelin/contracts/token/ERC20/extensions/ERC20Burnable.sol\":1157:1164  account */\n      dup3\n        /* \"@openzeppelin/contracts/token/ERC20/extensions/ERC20Burnable.sol\":1166:1171  value */\n      dup3\n        /* \"@openzeppelin/contracts/token/ERC20/extensions/ERC20Burnable.sol\":1151:1156  _burn */\n      tag_148\n        /* \"@openzeppelin/contracts/token/ERC20/extensions/ERC20Burnable.sol\":1151:1172  _burn(account, value) */\n      jump\t// in\n    tag_173:\n        /* \"@openzeppelin/contracts/token/ERC20/extensions/ERC20Burnable.sol\":1021:1179  function burnFrom(address account, uint256 value) public virtual {... */\n      pop\n      pop\n      jump\t// out\n        /* \"constracts/HealthMediToken.sol\":3106:3165  function pause() public onlyOwner {... */\n    tag_82:\n        /* \"@openzeppelin/contracts/access/Ownable.sol\":1531:1544  _checkOwner() */\n      tag_175\n        /* \"@openzeppelin/contracts/access/Ownable.sol\":1531:1542  _checkOwner */\n      tag_134\n        /* \"@openzeppelin/contracts/access/Ownable.sol\":1531:1544  _checkOwner() */\n      jump\t// in\n    tag_175:\n        /* \"constracts/HealthMediToken.sol\":3150:3158  _pause() */\n      tag_177\n        /* \"constracts/HealthMediToken.sol\":3150:3156  _pause */\n      tag_178\n        /* \"constracts/HealthMediToken.sol\":3150:3158  _pause() */\n      jump\t// in\n    tag_177:\n        /* \"constracts/HealthMediToken.sol\":3106:3165  function pause() public onlyOwner {... */\n      jump\t// out\n        /* \"constracts/HealthMediToken.sol\":1665:1871  function freeze(address account) public onlyOwner {... */\n    tag_85:\n        /* \"@openzeppelin/contracts/access/Ownable.sol\":1531:1544  _checkOwner() */\n      tag_180\n        /* \"@openzeppelin/contracts/access/Ownable.sol\":1531:1542  _checkOwner */\n      tag_134\n        /* \"@openzeppelin/contracts/access/Ownable.sol\":1531:1544  _checkOwner() */\n      jump\t// in\n    tag_180:\n        /* \"constracts/HealthMediToken.sol\":1734:1748  frozenAccounts */\n      0x06\n        /* \"constracts/HealthMediToken.sol\":1734:1757  frozenAccounts[account] */\n      0x00\n        /* \"constracts/HealthMediToken.sol\":1749:1756  account */\n      dup3\n        /* \"constracts/HealthMediToken.sol\":1734:1757  frozenAccounts[account] */\n      0xffffffffffffffffffffffffffffffffffffffff\n      and\n      0xffffffffffffffffffffffffffffffffffffffff\n      and\n      dup2\n      mstore\n      0x20\n      add\n      swap1\n      dup2\n      mstore\n      0x20\n      add\n      0x00\n      keccak256\n      0x00\n      swap1\n      sload\n      swap1\n      0x0100\n      exp\n      swap1\n      div\n      0xff\n      and\n        /* \"constracts/HealthMediToken.sol\":1733:1757  !frozenAccounts[account] */\n      iszero\n        /* \"constracts/HealthMediToken.sol\":1725:1787  require(!frozenAccounts[account], \"Account is already frozen\") */\n      tag_182\n      jumpi\n      mload(0x40)\n      0x08c379a000000000000000000000000000000000000000000000000000000000\n      dup2\n      mstore\n      0x04\n      add\n      tag_183\n      swap1\n      tag_184\n      jump\t// in\n    tag_183:\n      mload(0x40)\n      dup1\n      swap2\n      sub\n      swap1\n      revert\n    tag_182:\n        /* \"constracts/HealthMediToken.sol\":1823:1827  true */\n      0x01\n        /* \"constracts/HealthMediToken.sol\":1797:1811  frozenAccounts */\n      0x06\n        /* \"constracts/HealthMediToken.sol\":1797:1820  frozenAccounts[account] */\n      0x00\n        /* \"constracts/HealthMediToken.sol\":1812:1819  account */\n      dup4\n        /* \"constracts/HealthMediToken.sol\":1797:1820  frozenAccounts[account] */\n      0xffffffffffffffffffffffffffffffffffffffff\n      and\n      0xffffffffffffffffffffffffffffffffffffffff\n      and\n      dup2\n      mstore\n      0x20\n      add\n      swap1\n      dup2\n      mstore\n      0x20\n      add\n      0x00\n      keccak256\n      0x00\n        /* \"constracts/HealthMediToken.sol\":1797:1827  frozenAccounts[account] = true */\n      0x0100\n      exp\n      dup2\n      sload\n      dup2\n      0xff\n      mul\n      not\n      and\n      swap1\n      dup4\n      iszero\n      iszero\n      mul\n      or\n      swap1\n      sstore\n      pop\n        /* \"constracts/HealthMediToken.sol\":1856:1863  account */\n      dup1\n        /* \"constracts/HealthMediToken.sol\":1842:1864  AccountFrozen(account) */\n      0xffffffffffffffffffffffffffffffffffffffff\n      and\n      0x4f2a367e694e71282f29ab5eaa04c4c0be45ac5bf2ca74fb67068b98bdc2887d\n      mload(0x40)\n      mload(0x40)\n      dup1\n      swap2\n      sub\n      swap1\n      log2\n        /* \"constracts/HealthMediToken.sol\":1665:1871  function freeze(address account) public onlyOwner {... */\n      pop\n      jump\t// out\n        /* \"@openzeppelin/contracts/access/Ownable.sol\":1638:1723  function owner() public view virtual returns (address) {... */\n    tag_87:\n        /* \"@openzeppelin/contracts/access/Ownable.sol\":1684:1691  address */\n      0x00\n        /* \"@openzeppelin/contracts/access/Ownable.sol\":1710:1716  _owner */\n      0x05\n      0x01\n      swap1\n      sload\n      swap1\n      0x0100\n      exp\n      swap1\n      div\n      0xffffffffffffffffffffffffffffffffffffffff\n      and\n        /* \"@openzeppelin/contracts/access/Ownable.sol\":1703:1716  return _owner */\n      swap1\n      pop\n        /* \"@openzeppelin/contracts/access/Ownable.sol\":1638:1723  function owner() public view virtual returns (address) {... */\n      swap1\n      jump\t// out\n        /* \"constracts/HealthMediToken.sol\":3814:4170  function getLockedAmount(address account) public view returns (uint256) {... */\n    tag_92:\n        /* \"constracts/HealthMediToken.sol\":3877:3884  uint256 */\n      0x00\n        /* \"constracts/HealthMediToken.sol\":3896:3916  uint256 lockedAmount */\n      dup1\n        /* \"constracts/HealthMediToken.sol\":3919:3920  0 */\n      0x00\n        /* \"constracts/HealthMediToken.sol\":3896:3920  uint256 lockedAmount = 0 */\n      swap1\n      pop\n        /* \"constracts/HealthMediToken.sol\":3935:3944  uint256 i */\n      0x00\n        /* \"constracts/HealthMediToken.sol\":3930:4135  for (uint256 i = 0; i < _locks[account].length; i++) {... */\n    tag_187:\n        /* \"constracts/HealthMediToken.sol\":3954:3960  _locks */\n      0x07\n        /* \"constracts/HealthMediToken.sol\":3954:3969  _locks[account] */\n      0x00\n        /* \"constracts/HealthMediToken.sol\":3961:3968  account */\n      dup6\n        /* \"constracts/HealthMediToken.sol\":3954:3969  _locks[account] */\n      0xffffffffffffffffffffffffffffffffffffffff\n      and\n      0xffffffffffffffffffffffffffffffffffffffff\n      and\n      dup2\n      mstore\n      0x20\n      add\n      swap1\n      dup2\n      mstore\n      0x20\n      add\n      0x00\n      keccak256\n        /* \"constracts/HealthMediToken.sol\":3954:3976  _locks[account].length */\n      dup1\n      sload\n      swap1\n      pop\n        /* \"constracts/HealthMediToken.sol\":3950:3951  i */\n      dup2\n        /* \"constracts/HealthMediToken.sol\":3950:3976  i < _locks[account].length */\n      lt\n        /* \"constracts/HealthMediToken.sol\":3930:4135  for (uint256 i = 0; i < _locks[account].length; i++) {... */\n      iszero\n      tag_188\n      jumpi\n        /* \"constracts/HealthMediToken.sol\":4034:4049  block.timestamp */\n      timestamp\n        /* \"constracts/HealthMediToken.sol\":4001:4007  _locks */\n      0x07\n        /* \"constracts/HealthMediToken.sol\":4001:4016  _locks[account] */\n      0x00\n        /* \"constracts/HealthMediToken.sol\":4008:4015  account */\n      dup7\n        /* \"constracts/HealthMediToken.sol\":4001:4016  _locks[account] */\n      0xffffffffffffffffffffffffffffffffffffffff\n      and\n      0xffffffffffffffffffffffffffffffffffffffff\n      and\n      dup2\n      mstore\n      0x20\n      add\n      swap1\n      dup2\n      mstore\n      0x20\n      add\n      0x00\n      keccak256\n        /* \"constracts/HealthMediToken.sol\":4017:4018  i */\n      dup3\n        /* \"constracts/HealthMediToken.sol\":4001:4019  _locks[account][i] */\n      dup2\n      sload\n      dup2\n      lt\n      tag_190\n      jumpi\n      tag_191\n      tag_192\n      jump\t// in\n    tag_191:\n    tag_190:\n      swap1\n      0x00\n      mstore\n      keccak256(0x00, 0x20)\n      swap1\n      0x02\n      mul\n      add\n        /* \"constracts/HealthMediToken.sol\":4001:4031  _locks[account][i].releaseTime */\n      0x01\n      add\n      sload\n        /* \"constracts/HealthMediToken.sol\":4001:4049  _locks[account][i].releaseTime > block.timestamp */\n      gt\n        /* \"constracts/HealthMediToken.sol\":3997:4125  if (_locks[account][i].releaseTime > block.timestamp) {... */\n      iszero\n      tag_194\n      jumpi\n        /* \"constracts/HealthMediToken.sol\":4085:4091  _locks */\n      0x07\n        /* \"constracts/HealthMediToken.sol\":4085:4100  _locks[account] */\n      0x00\n        /* \"constracts/HealthMediToken.sol\":4092:4099  account */\n      dup6\n        /* \"constracts/HealthMediToken.sol\":4085:4100  _locks[account] */\n      0xffffffffffffffffffffffffffffffffffffffff\n      and\n      0xffffffffffffffffffffffffffffffffffffffff\n      and\n      dup2\n      mstore\n      0x20\n      add\n      swap1\n      dup2\n      mstore\n      0x20\n      add\n      0x00\n      keccak256\n        /* \"constracts/HealthMediToken.sol\":4101:4102  i */\n      dup2\n        /* \"constracts/HealthMediToken.sol\":4085:4103  _locks[account][i] */\n      dup2\n      sload\n      dup2\n      lt\n      tag_195\n      jumpi\n      tag_196\n      tag_192\n      jump\t// in\n    tag_196:\n    tag_195:\n      swap1\n      0x00\n      mstore\n      keccak256(0x00, 0x20)\n      swap1\n      0x02\n      mul\n      add\n        /* \"constracts/HealthMediToken.sol\":4085:4110  _locks[account][i].amount */\n      0x00\n      add\n      sload\n        /* \"constracts/HealthMediToken.sol\":4069:4110  lockedAmount += _locks[account][i].amount */\n      dup3\n      tag_198\n      swap2\n      swap1\n      tag_139\n      jump\t// in\n    tag_198:\n      swap2\n      pop\n        /* \"constracts/HealthMediToken.sol\":3997:4125  if (_locks[account][i].releaseTime > block.timestamp) {... */\n    tag_194:\n        /* \"constracts/HealthMediToken.sol\":3978:3981  i++ */\n      dup1\n      dup1\n      0x01\n      add\n      swap2\n      pop\n      pop\n        /* \"constracts/HealthMediToken.sol\":3930:4135  for (uint256 i = 0; i < _locks[account].length; i++) {... */\n      jump(tag_187)\n    tag_188:\n      pop\n        /* \"constracts/HealthMediToken.sol\":4151:4163  lockedAmount */\n      dup1\n        /* \"constracts/HealthMediToken.sol\":4144:4163  return lockedAmount */\n      swap2\n      pop\n      pop\n        /* \"constracts/HealthMediToken.sol\":3814:4170  function getLockedAmount(address account) public view returns (uint256) {... */\n      swap2\n      swap1\n      pop\n      jump\t// out\n        /* \"@openzeppelin/contracts/token/ERC20/ERC20.sol\":2276:2369  function symbol() public view virtual returns (string memory) {... */\n    tag_95:\n        /* \"@openzeppelin/contracts/token/ERC20/ERC20.sol\":2323:2336  string memory */\n      0x60\n        /* \"@openzeppelin/contracts/token/ERC20/ERC20.sol\":2355:2362  _symbol */\n      0x04\n        /* \"@openzeppelin/contracts/token/ERC20/ERC20.sol\":2348:2362  return _symbol */\n      dup1\n      sload\n      tag_200\n      swap1\n      tag_114\n      jump\t// in\n    tag_200:\n      dup1\n      0x1f\n      add\n      0x20\n      dup1\n      swap2\n      div\n      mul\n      0x20\n      add\n      mload(0x40)\n      swap1\n      dup2\n      add\n      0x40\n      mstore\n      dup1\n      swap3\n      swap2\n      swap1\n      dup2\n      dup2\n      mstore\n      0x20\n      add\n      dup3\n      dup1\n      sload\n      tag_201\n      swap1\n      tag_114\n      jump\t// in\n    tag_201:\n      dup1\n      iszero\n      tag_202\n      jumpi\n      dup1\n      0x1f\n      lt\n      tag_203\n      jumpi\n      0x0100\n      dup1\n      dup4\n      sload\n      div\n      mul\n      dup4\n      mstore\n      swap2\n      0x20\n      add\n      swap2\n      jump(tag_202)\n    tag_203:\n      dup3\n      add\n      swap2\n      swap1\n      0x00\n      mstore\n      keccak256(0x00, 0x20)\n      swap1\n    tag_204:\n      dup2\n      sload\n      dup2\n      mstore\n      swap1\n      0x01\n      add\n      swap1\n      0x20\n      add\n      dup1\n      dup4\n      gt\n      tag_204\n      jumpi\n      dup3\n      swap1\n      sub\n      0x1f\n      and\n      dup3\n      add\n      swap2\n    tag_202:\n      pop\n      pop\n      pop\n      pop\n      pop\n      swap1\n      pop\n        /* \"@openzeppelin/contracts/token/ERC20/ERC20.sol\":2276:2369  function symbol() public view virtual returns (string memory) {... */\n      swap1\n      jump\t// out\n        /* \"@openzeppelin/contracts/token/ERC20/ERC20.sol\":3610:3788  function transfer(address to, uint256 value) public virtual returns (bool) {... */\n    tag_99:\n        /* \"@openzeppelin/contracts/token/ERC20/ERC20.sol\":3679:3683  bool */\n      0x00\n        /* \"@openzeppelin/contracts/token/ERC20/ERC20.sol\":3695:3708  address owner */\n      dup1\n        /* \"@openzeppelin/contracts/token/ERC20/ERC20.sol\":3711:3723  _msgSender() */\n      tag_206\n        /* \"@openzeppelin/contracts/token/ERC20/ERC20.sol\":3711:3721  _msgSender */\n      tag_121\n        /* \"@openzeppelin/contracts/token/ERC20/ERC20.sol\":3711:3723  _msgSender() */\n      jump\t// in\n    tag_206:\n        /* \"@openzeppelin/contracts/token/ERC20/ERC20.sol\":3695:3723  address owner = _msgSender() */\n      swap1\n      pop\n        /* \"@openzeppelin/contracts/token/ERC20/ERC20.sol\":3733:3760  _transfer(owner, to, value) */\n      tag_207\n        /* \"@openzeppelin/contracts/token/ERC20/ERC20.sol\":3743:3748  owner */\n      dup2\n        /* \"@openzeppelin/contracts/token/ERC20/ERC20.sol\":3750:3752  to */\n      dup6\n        /* \"@openzeppelin/contracts/token/ERC20/ERC20.sol\":3754:3759  value */\n      dup6\n        /* \"@openzeppelin/contracts/token/ERC20/ERC20.sol\":3733:3742  _transfer */\n      tag_130\n        /* \"@openzeppelin/contracts/token/ERC20/ERC20.sol\":3733:3760  _transfer(owner, to, value) */\n      jump\t// in\n    tag_207:\n        /* \"@openzeppelin/contracts/token/ERC20/ERC20.sol\":3777:3781  true */\n      0x01\n        /* \"@openzeppelin/contracts/token/ERC20/ERC20.sol\":3770:3781  return true */\n      swap2\n      pop\n      pop\n        /* \"@openzeppelin/contracts/token/ERC20/ERC20.sol\":3610:3788  function transfer(address to, uint256 value) public virtual returns (bool) {... */\n      swap3\n      swap2\n      pop\n      pop\n      jump\t// out\n        /* \"constracts/HealthMediToken.sol\":2321:2876  function releaseLock(address account) public {... */\n    tag_103:\n        /* \"constracts/HealthMediToken.sol\":2376:2400  uint256 releasableAmount */\n      0x00\n        /* \"constracts/HealthMediToken.sol\":2419:2428  uint256 i */\n      dup1\n        /* \"constracts/HealthMediToken.sol\":2414:2766  for (uint256 i = 0; i < _locks[account].length; i++) {... */\n    tag_209:\n        /* \"constracts/HealthMediToken.sol\":2438:2444  _locks */\n      0x07\n        /* \"constracts/HealthMediToken.sol\":2438:2453  _locks[account] */\n      0x00\n        /* \"constracts/HealthMediToken.sol\":2445:2452  account */\n      dup5\n        /* \"constracts/HealthMediToken.sol\":2438:2453  _locks[account] */\n      0xffffffffffffffffffffffffffffffffffffffff\n      and\n      0xffffffffffffffffffffffffffffffffffffffff\n      and\n      dup2\n      mstore\n      0x20\n      add\n      swap1\n      dup2\n      mstore\n      0x20\n      add\n      0x00\n      keccak256\n        /* \"constracts/HealthMediToken.sol\":2438:2460  _locks[account].length */\n      dup1\n      sload\n      swap1\n      pop\n        /* \"constracts/HealthMediToken.sol\":2434:2435  i */\n      dup2\n        /* \"constracts/HealthMediToken.sol\":2434:2460  i < _locks[account].length */\n      lt\n        /* \"constracts/HealthMediToken.sol\":2414:2766  for (uint256 i = 0; i < _locks[account].length; i++) {... */\n      iszero\n      tag_210\n      jumpi\n        /* \"constracts/HealthMediToken.sol\":2519:2534  block.timestamp */\n      timestamp\n        /* \"constracts/HealthMediToken.sol\":2485:2491  _locks */\n      0x07\n        /* \"constracts/HealthMediToken.sol\":2485:2500  _locks[account] */\n      0x00\n        /* \"constracts/HealthMediToken.sol\":2492:2499  account */\n      dup6\n        /* \"constracts/HealthMediToken.sol\":2485:2500  _locks[account] */\n      0xffffffffffffffffffffffffffffffffffffffff\n      and\n      0xffffffffffffffffffffffffffffffffffffffff\n      and\n      dup2\n      mstore\n      0x20\n      add\n      swap1\n      dup2\n      mstore\n      0x20\n      add\n      0x00\n      keccak256\n        /* \"constracts/HealthMediToken.sol\":2501:2502  i */\n      dup3\n        /* \"constracts/HealthMediToken.sol\":2485:2503  _locks[account][i] */\n      dup2\n      sload\n      dup2\n      lt\n      tag_212\n      jumpi\n      tag_213\n      tag_192\n      jump\t// in\n    tag_213:\n    tag_212:\n      swap1\n      0x00\n      mstore\n      keccak256(0x00, 0x20)\n      swap1\n      0x02\n      mul\n      add\n        /* \"constracts/HealthMediToken.sol\":2485:2515  _locks[account][i].releaseTime */\n      0x01\n      add\n      sload\n        /* \"constracts/HealthMediToken.sol\":2485:2534  _locks[account][i].releaseTime <= block.timestamp */\n      gt\n        /* \"constracts/HealthMediToken.sol\":2481:2756  if (_locks[account][i].releaseTime <= block.timestamp) {... */\n      tag_215\n      jumpi\n        /* \"constracts/HealthMediToken.sol\":2574:2580  _locks */\n      0x07\n        /* \"constracts/HealthMediToken.sol\":2574:2589  _locks[account] */\n      0x00\n        /* \"constracts/HealthMediToken.sol\":2581:2588  account */\n      dup5\n        /* \"constracts/HealthMediToken.sol\":2574:2589  _locks[account] */\n      0xffffffffffffffffffffffffffffffffffffffff\n      and\n      0xffffffffffffffffffffffffffffffffffffffff\n      and\n      dup2\n      mstore\n      0x20\n      add\n      swap1\n      dup2\n      mstore\n      0x20\n      add\n      0x00\n      keccak256\n        /* \"constracts/HealthMediToken.sol\":2590:2591  i */\n      dup2\n        /* \"constracts/HealthMediToken.sol\":2574:2592  _locks[account][i] */\n      dup2\n      sload\n      dup2\n      lt\n      tag_216\n      jumpi\n      tag_217\n      tag_192\n      jump\t// in\n    tag_217:\n    tag_216:\n      swap1\n      0x00\n      mstore\n      keccak256(0x00, 0x20)\n      swap1\n      0x02\n      mul\n      add\n        /* \"constracts/HealthMediToken.sol\":2574:2599  _locks[account][i].amount */\n      0x00\n      add\n      sload\n        /* \"constracts/HealthMediToken.sol\":2554:2599  releasableAmount += _locks[account][i].amount */\n      dup3\n      tag_219\n      swap2\n      swap1\n      tag_139\n      jump\t// in\n    tag_219:\n      swap2\n      pop\n        /* \"constracts/HealthMediToken.sol\":2638:2644  _locks */\n      0x07\n        /* \"constracts/HealthMediToken.sol\":2638:2653  _locks[account] */\n      0x00\n        /* \"constracts/HealthMediToken.sol\":2645:2652  account */\n      dup5\n        /* \"constracts/HealthMediToken.sol\":2638:2653  _locks[account] */\n      0xffffffffffffffffffffffffffffffffffffffff\n      and\n      0xffffffffffffffffffffffffffffffffffffffff\n      and\n      dup2\n      mstore\n      0x20\n      add\n      swap1\n      dup2\n      mstore\n      0x20\n      add\n      0x00\n      keccak256\n        /* \"constracts/HealthMediToken.sol\":2679:2680  1 */\n      0x01\n        /* \"constracts/HealthMediToken.sol\":2654:2660  _locks */\n      0x07\n        /* \"constracts/HealthMediToken.sol\":2654:2669  _locks[account] */\n      0x00\n        /* \"constracts/HealthMediToken.sol\":2661:2668  account */\n      dup7\n        /* \"constracts/HealthMediToken.sol\":2654:2669  _locks[account] */\n      0xffffffffffffffffffffffffffffffffffffffff\n      and\n      0xffffffffffffffffffffffffffffffffffffffff\n      and\n      dup2\n      mstore\n      0x20\n      add\n      swap1\n      dup2\n      mstore\n      0x20\n      add\n      0x00\n      keccak256\n        /* \"constracts/HealthMediToken.sol\":2654:2676  _locks[account].length */\n      dup1\n      sload\n      swap1\n      pop\n        /* \"constracts/HealthMediToken.sol\":2654:2680  _locks[account].length - 1 */\n      tag_220\n      swap2\n      swap1\n      tag_221\n      jump\t// in\n    tag_220:\n        /* \"constracts/HealthMediToken.sol\":2638:2681  _locks[account][_locks[account].length - 1] */\n      dup2\n      sload\n      dup2\n      lt\n      tag_222\n      jumpi\n      tag_223\n      tag_192\n      jump\t// in\n    tag_223:\n    tag_222:\n      swap1\n      0x00\n      mstore\n      keccak256(0x00, 0x20)\n      swap1\n      0x02\n      mul\n      add\n        /* \"constracts/HealthMediToken.sol\":2617:2623  _locks */\n      0x07\n        /* \"constracts/HealthMediToken.sol\":2617:2632  _locks[account] */\n      0x00\n        /* \"constracts/HealthMediToken.sol\":2624:2631  account */\n      dup6\n        /* \"constracts/HealthMediToken.sol\":2617:2632  _locks[account] */\n      0xffffffffffffffffffffffffffffffffffffffff\n      and\n      0xffffffffffffffffffffffffffffffffffffffff\n      and\n      dup2\n      mstore\n      0x20\n      add\n      swap1\n      dup2\n      mstore\n      0x20\n      add\n      0x00\n      keccak256\n        /* \"constracts/HealthMediToken.sol\":2633:2634  i */\n      dup3\n        /* \"constracts/HealthMediToken.sol\":2617:2635  _locks[account][i] */\n      dup2\n      sload\n      dup2\n      lt\n      tag_225\n      jumpi\n      tag_226\n      tag_192\n      jump\t// in\n    tag_226:\n    tag_225:\n      swap1\n      0x00\n      mstore\n      keccak256(0x00, 0x20)\n      swap1\n      0x02\n      mul\n      add\n        /* \"constracts/HealthMediToken.sol\":2617:2681  _locks[account][i] = _locks[account][_locks[account].length - 1] */\n      0x00\n      dup3\n      add\n      sload\n      dup2\n      0x00\n      add\n      sstore\n      0x01\n      dup3\n      add\n      sload\n      dup2\n      0x01\n      add\n      sstore\n      swap1\n      pop\n      pop\n        /* \"constracts/HealthMediToken.sol\":2699:2705  _locks */\n      0x07\n        /* \"constracts/HealthMediToken.sol\":2699:2714  _locks[account] */\n      0x00\n        /* \"constracts/HealthMediToken.sol\":2706:2713  account */\n      dup5\n        /* \"constracts/HealthMediToken.sol\":2699:2714  _locks[account] */\n      0xffffffffffffffffffffffffffffffffffffffff\n      and\n      0xffffffffffffffffffffffffffffffffffffffff\n      and\n      dup2\n      mstore\n      0x20\n      add\n      swap1\n      dup2\n      mstore\n      0x20\n      add\n      0x00\n      keccak256\n        /* \"constracts/HealthMediToken.sol\":2699:2720  _locks[account].pop() */\n      dup1\n      sload\n      dup1\n      tag_228\n      jumpi\n      tag_229\n      tag_230\n      jump\t// in\n    tag_229:\n    tag_228:\n      0x01\n      swap1\n      sub\n      dup2\n      dup2\n      swap1\n      0x00\n      mstore\n      keccak256(0x00, 0x20)\n      swap1\n      0x02\n      mul\n      add\n      0x00\n      dup1\n      dup3\n      add\n      0x00\n      swap1\n      sstore\n      0x01\n      dup3\n      add\n      0x00\n      swap1\n      sstore\n      pop\n      pop\n      swap1\n      sstore\n        /* \"constracts/HealthMediToken.sol\":2738:2741  i-- */\n      dup1\n      dup1\n      tag_232\n      swap1\n      tag_233\n      jump\t// in\n    tag_232:\n      swap2\n      pop\n      pop\n        /* \"constracts/HealthMediToken.sol\":2481:2756  if (_locks[account][i].releaseTime <= block.timestamp) {... */\n    tag_215:\n        /* \"constracts/HealthMediToken.sol\":2462:2465  i++ */\n      dup1\n      dup1\n      tag_234\n      swap1\n      tag_235\n      jump\t// in\n    tag_234:\n      swap2\n      pop\n      pop\n        /* \"constracts/HealthMediToken.sol\":2414:2766  for (uint256 i = 0; i < _locks[account].length; i++) {... */\n      jump(tag_209)\n    tag_210:\n      pop\n        /* \"constracts/HealthMediToken.sol\":2798:2799  0 */\n      0x00\n        /* \"constracts/HealthMediToken.sol\":2779:2795  releasableAmount */\n      dup2\n        /* \"constracts/HealthMediToken.sol\":2779:2799  releasableAmount > 0 */\n      gt\n        /* \"constracts/HealthMediToken.sol\":2775:2870  if (releasableAmount > 0) {... */\n      iszero\n      tag_236\n      jumpi\n        /* \"constracts/HealthMediToken.sol\":2833:2840  account */\n      dup2\n        /* \"constracts/HealthMediToken.sol\":2820:2859  LockReleased(account, releasableAmount) */\n      0xffffffffffffffffffffffffffffffffffffffff\n      and\n      0x622ca42598ab680a7def4a7346e1963a82207cf42a5ddb8056ad62cfbda19b88\n        /* \"constracts/HealthMediToken.sol\":2842:2858  releasableAmount */\n      dup3\n        /* \"constracts/HealthMediToken.sol\":2820:2859  LockReleased(account, releasableAmount) */\n      mload(0x40)\n      tag_237\n      swap2\n      swap1\n      tag_42\n      jump\t// in\n    tag_237:\n      mload(0x40)\n      dup1\n      swap2\n      sub\n      swap1\n      log2\n        /* \"constracts/HealthMediToken.sol\":2775:2870  if (releasableAmount > 0) {... */\n    tag_236:\n        /* \"constracts/HealthMediToken.sol\":2366:2876  {... */\n      pop\n        /* \"constracts/HealthMediToken.sol\":2321:2876  function releaseLock(address account) public {... */\n      pop\n      jump\t// out\n        /* \"@openzeppelin/contracts/token/ERC20/ERC20.sol\":3846:3986  function allowance(address owner, address spender) public view virtual returns (uint256) {... */\n    tag_107:\n        /* \"@openzeppelin/contracts/token/ERC20/ERC20.sol\":3926:3933  uint256 */\n      0x00\n        /* \"@openzeppelin/contracts/token/ERC20/ERC20.sol\":3952:3963  _allowances */\n      0x01\n        /* \"@openzeppelin/contracts/token/ERC20/ERC20.sol\":3952:3970  _allowances[owner] */\n      0x00\n        /* \"@openzeppelin/contracts/token/ERC20/ERC20.sol\":3964:3969  owner */\n      dup5\n        /* \"@openzeppelin/contracts/token/ERC20/ERC20.sol\":3952:3970  _allowances[owner] */\n      0xffffffffffffffffffffffffffffffffffffffff\n      and\n      0xffffffffffffffffffffffffffffffffffffffff\n      and\n      dup2\n      mstore\n      0x20\n      add\n      swap1\n      dup2\n      mstore\n      0x20\n      add\n      0x00\n      keccak256\n        /* \"@openzeppelin/contracts/token/ERC20/ERC20.sol\":3952:3979  _allowances[owner][spender] */\n      0x00\n        /* \"@openzeppelin/contracts/token/ERC20/ERC20.sol\":3971:3978  spender */\n      dup4\n        /* \"@openzeppelin/contracts/token/ERC20/ERC20.sol\":3952:3979  _allowances[owner][spender] */\n      0xffffffffffffffffffffffffffffffffffffffff\n      and\n      0xffffffffffffffffffffffffffffffffffffffff\n      and\n      dup2\n      mstore\n      0x20\n      add\n      swap1\n      dup2\n      mstore\n      0x20\n      add\n      0x00\n      keccak256\n      sload\n        /* \"@openzeppelin/contracts/token/ERC20/ERC20.sol\":3945:3979  return _allowances[owner][spender] */\n      swap1\n      pop\n        /* \"@openzeppelin/contracts/token/ERC20/ERC20.sol\":3846:3986  function allowance(address owner, address spender) public view virtual returns (uint256) {... */\n      swap3\n      swap2\n      pop\n      pop\n      jump\t// out\n        /* \"@openzeppelin/contracts/access/Ownable.sol\":2543:2758  function transferOwnership(address newOwner) public virtual onlyOwner {... */\n    tag_111:\n        /* \"@openzeppelin/contracts/access/Ownable.sol\":1531:1544  _checkOwner() */\n      tag_240\n        /* \"@openzeppelin/contracts/access/Ownable.sol\":1531:1542  _checkOwner */\n      tag_134\n        /* \"@openzeppelin/contracts/access/Ownable.sol\":1531:1544  _checkOwner() */\n      jump\t// in\n    tag_240:\n        /* \"@openzeppelin/contracts/access/Ownable.sol\":2647:2648  0 */\n      0x00\n        /* \"@openzeppelin/contracts/access/Ownable.sol\":2627:2649  newOwner == address(0) */\n      0xffffffffffffffffffffffffffffffffffffffff\n      and\n        /* \"@openzeppelin/contracts/access/Ownable.sol\":2627:2635  newOwner */\n      dup2\n        /* \"@openzeppelin/contracts/access/Ownable.sol\":2627:2649  newOwner == address(0) */\n      0xffffffffffffffffffffffffffffffffffffffff\n      and\n      sub\n        /* \"@openzeppelin/contracts/access/Ownable.sol\":2623:2714  if (newOwner == address(0)) {... */\n      tag_242\n      jumpi\n        /* \"@openzeppelin/contracts/access/Ownable.sol\":2700:2701  0 */\n      0x00\n        /* \"@openzeppelin/contracts/access/Ownable.sol\":2672:2703  OwnableInvalidOwner(address(0)) */\n      mload(0x40)\n      0x1e4fbdf700000000000000000000000000000000000000000000000000000000\n      dup2\n      mstore\n      0x04\n      add\n      tag_243\n      swap2\n      swap1\n      tag_89\n      jump\t// in\n    tag_243:\n      mload(0x40)\n      dup1\n      swap2\n      sub\n      swap1\n      revert\n        /* \"@openzeppelin/contracts/access/Ownable.sol\":2623:2714  if (newOwner == address(0)) {... */\n    tag_242:\n        /* \"@openzeppelin/contracts/access/Ownable.sol\":2723:2751  _transferOwnership(newOwner) */\n      tag_244\n        /* \"@openzeppelin/contracts/access/Ownable.sol\":2742:2750  newOwner */\n      dup2\n        /* \"@openzeppelin/contracts/access/Ownable.sol\":2723:2741  _transferOwnership */\n      tag_169\n        /* \"@openzeppelin/contracts/access/Ownable.sol\":2723:2751  _transferOwnership(newOwner) */\n      jump\t// in\n    tag_244:\n        /* \"@openzeppelin/contracts/access/Ownable.sol\":2543:2758  function transferOwnership(address newOwner) public virtual onlyOwner {... */\n      pop\n      jump\t// out\n        /* \"@openzeppelin/contracts/utils/Context.sol\":656:752  function _msgSender() internal view virtual returns (address) {... */\n    tag_121:\n        /* \"@openzeppelin/contracts/utils/Context.sol\":709:716  address */\n      0x00\n        /* \"@openzeppelin/contracts/utils/Context.sol\":735:745  msg.sender */\n      caller\n        /* \"@openzeppelin/contracts/utils/Context.sol\":728:745  return msg.sender */\n      swap1\n      pop\n        /* \"@openzeppelin/contracts/utils/Context.sol\":656:752  function _msgSender() internal view virtual returns (address) {... */\n      swap1\n      jump\t// out\n        /* \"@openzeppelin/contracts/token/ERC20/ERC20.sol\":8998:9126  function _approve(address owner, address spender, uint256 value) internal {... */\n    tag_123:\n        /* \"@openzeppelin/contracts/token/ERC20/ERC20.sol\":9082:9119  _approve(owner, spender, value, true) */\n      tag_247\n        /* \"@openzeppelin/contracts/token/ERC20/ERC20.sol\":9091:9096  owner */\n      dup4\n        /* \"@openzeppelin/contracts/token/ERC20/ERC20.sol\":9098:9105  spender */\n      dup4\n        /* \"@openzeppelin/contracts/token/ERC20/ERC20.sol\":9107:9112  value */\n      dup4\n        /* \"@openzeppelin/contracts/token/ERC20/ERC20.sol\":9114:9118  true */\n      0x01\n        /* \"@openzeppelin/contracts/token/ERC20/ERC20.sol\":9082:9090  _approve */\n      tag_248\n        /* \"@openzeppelin/contracts/token/ERC20/ERC20.sol\":9082:9119  _approve(owner, spender, value, true) */\n      jump\t// in\n    tag_247:\n        /* \"@openzeppelin/contracts/token/ERC20/ERC20.sol\":8998:9126  function _approve(address owner, address spender, uint256 value) internal {... */\n      pop\n      pop\n      pop\n      jump\t// out\n        /* \"@openzeppelin/contracts/token/ERC20/ERC20.sol\":10672:11149  function _spendAllowance(address owner, address spender, uint256 value) internal virtual {... */\n    tag_128:\n        /* \"@openzeppelin/contracts/token/ERC20/ERC20.sol\":10771:10795  uint256 currentAllowance */\n      0x00\n        /* \"@openzeppelin/contracts/token/ERC20/ERC20.sol\":10798:10823  allowance(owner, spender) */\n      tag_250\n        /* \"@openzeppelin/contracts/token/ERC20/ERC20.sol\":10808:10813  owner */\n      dup5\n        /* \"@openzeppelin/contracts/token/ERC20/ERC20.sol\":10815:10822  spender */\n      dup5\n        /* \"@openzeppelin/contracts/token/ERC20/ERC20.sol\":10798:10807  allowance */\n      tag_107\n        /* \"@openzeppelin/contracts/token/ERC20/ERC20.sol\":10798:10823  allowance(owner, spender) */\n      jump\t// in\n    tag_250:\n        /* \"@openzeppelin/contracts/token/ERC20/ERC20.sol\":10771:10823  uint256 currentAllowance = allowance(owner, spender) */\n      swap1\n      pop\n        /* \"@openzeppelin/contracts/token/ERC20/ERC20.sol\":10857:10874  type(uint256).max */\n      0xffffffffffffffffffffffffffffffffffffffffffffffffffffffffffffffff\n        /* \"@openzeppelin/contracts/token/ERC20/ERC20.sol\":10837:10853  currentAllowance */\n      dup2\n        /* \"@openzeppelin/contracts/token/ERC20/ERC20.sol\":10837:10874  currentAllowance != type(uint256).max */\n      eq\n        /* \"@openzeppelin/contracts/token/ERC20/ERC20.sol\":10833:11143  if (currentAllowance != type(uint256).max) {... */\n      tag_251\n      jumpi\n        /* \"@openzeppelin/contracts/token/ERC20/ERC20.sol\":10913:10918  value */\n      dup2\n        /* \"@openzeppelin/contracts/token/ERC20/ERC20.sol\":10894:10910  currentAllowance */\n      dup2\n        /* \"@openzeppelin/contracts/token/ERC20/ERC20.sol\":10894:10918  currentAllowance < value */\n      lt\n        /* \"@openzeppelin/contracts/token/ERC20/ERC20.sol\":10890:11020  if (currentAllowance < value) {... */\n      iszero\n      tag_252\n      jumpi\n        /* \"@openzeppelin/contracts/token/ERC20/ERC20.sol\":10972:10979  spender */\n      dup3\n        /* \"@openzeppelin/contracts/token/ERC20/ERC20.sol\":10981:10997  currentAllowance */\n      dup2\n        /* \"@openzeppelin/contracts/token/ERC20/ERC20.sol\":10999:11004  value */\n      dup4\n        /* \"@openzeppelin/contracts/token/ERC20/ERC20.sol\":10945:11005  ERC20InsufficientAllowance(spender, currentAllowance, value) */\n      mload(0x40)\n      0xfb8f41b200000000000000000000000000000000000000000000000000000000\n      dup2\n      mstore\n      0x04\n      add\n      tag_253\n      swap4\n      swap3\n      swap2\n      swap1\n      tag_254\n      jump\t// in\n    tag_253:\n      mload(0x40)\n      dup1\n      swap2\n      sub\n      swap1\n      revert\n        /* \"@openzeppelin/contracts/token/ERC20/ERC20.sol\":10890:11020  if (currentAllowance < value) {... */\n    tag_252:\n        /* \"@openzeppelin/contracts/token/ERC20/ERC20.sol\":11061:11118  _approve(owner, spender, currentAllowance - value, false) */\n      tag_255\n        /* \"@openzeppelin/contracts/token/ERC20/ERC20.sol\":11070:11075  owner */\n      dup5\n        /* \"@openzeppelin/contracts/token/ERC20/ERC20.sol\":11077:11084  spender */\n      dup5\n        /* \"@openzeppelin/contracts/token/ERC20/ERC20.sol\":11105:11110  value */\n      dup5\n        /* \"@openzeppelin/contracts/token/ERC20/ERC20.sol\":11086:11102  currentAllowance */\n      dup5\n        /* \"@openzeppelin/contracts/token/ERC20/ERC20.sol\":11086:11110  currentAllowance - value */\n      sub\n        /* \"@openzeppelin/contracts/token/ERC20/ERC20.sol\":11112:11117  false */\n      0x00\n        /* \"@openzeppelin/contracts/token/ERC20/ERC20.sol\":11061:11069  _approve */\n      tag_248\n        /* \"@openzeppelin/contracts/token/ERC20/ERC20.sol\":11061:11118  _approve(owner, spender, currentAllowance - value, false) */\n      jump\t// in\n    tag_255:\n        /* \"@openzeppelin/contracts/token/ERC20/ERC20.sol\":10833:11143  if (currentAllowance != type(uint256).max) {... */\n    tag_251:\n        /* \"@openzeppelin/contracts/token/ERC20/ERC20.sol\":10761:11149  {... */\n      pop\n        /* \"@openzeppelin/contracts/token/ERC20/ERC20.sol\":10672:11149  function _spendAllowance(address owner, address spender, uint256 value) internal virtual {... */\n      pop\n      pop\n      pop\n      jump\t// out\n        /* \"@openzeppelin/contracts/token/ERC20/ERC20.sol\":5656:5965  function _transfer(address from, address to, uint256 value) internal {... */\n    tag_130:\n        /* \"@openzeppelin/contracts/token/ERC20/ERC20.sol\":5755:5756  0 */\n      0x00\n        /* \"@openzeppelin/contracts/token/ERC20/ERC20.sol\":5739:5757  from == address(0) */\n      0xffffffffffffffffffffffffffffffffffffffff\n      and\n        /* \"@openzeppelin/contracts/token/ERC20/ERC20.sol\":5739:5743  from */\n      dup4\n        /* \"@openzeppelin/contracts/token/ERC20/ERC20.sol\":5739:5757  from == address(0) */\n      0xffffffffffffffffffffffffffffffffffffffff\n      and\n      sub\n        /* \"@openzeppelin/contracts/token/ERC20/ERC20.sol\":5735:5821  if (from == address(0)) {... */\n      tag_257\n      jumpi\n        /* \"@openzeppelin/contracts/token/ERC20/ERC20.sol\":5807:5808  0 */\n      0x00\n        /* \"@openzeppelin/contracts/token/ERC20/ERC20.sol\":5780:5810  ERC20InvalidSender(address(0)) */\n      mload(0x40)\n      0x96c6fd1e00000000000000000000000000000000000000000000000000000000\n      dup2\n      mstore\n      0x04\n      add\n      tag_258\n      swap2\n      swap1\n      tag_89\n      jump\t// in\n    tag_258:\n      mload(0x40)\n      dup1\n      swap2\n      sub\n      swap1\n      revert\n        /* \"@openzeppelin/contracts/token/ERC20/ERC20.sol\":5735:5821  if (from == address(0)) {... */\n    tag_257:\n        /* \"@openzeppelin/contracts/token/ERC20/ERC20.sol\":5848:5849  0 */\n      0x00\n        /* \"@openzeppelin/contracts/token/ERC20/ERC20.sol\":5834:5850  to == address(0) */\n      0xffffffffffffffffffffffffffffffffffffffff\n      and\n        /* \"@openzeppelin/contracts/token/ERC20/ERC20.sol\":5834:5836  to */\n      dup3\n        /* \"@openzeppelin/contracts/token/ERC20/ERC20.sol\":5834:5850  to == address(0) */\n      0xffffffffffffffffffffffffffffffffffffffff\n      and\n      sub\n        /* \"@openzeppelin/contracts/token/ERC20/ERC20.sol\":5830:5916  if (to == address(0)) {... */\n      tag_259\n      jumpi\n        /* \"@openzeppelin/contracts/token/ERC20/ERC20.sol\":5902:5903  0 */\n      0x00\n        /* \"@openzeppelin/contracts/token/ERC20/ERC20.sol\":5873:5905  ERC20InvalidReceiver(address(0)) */\n      mload(0x40)\n      0xec442f0500000000000000000000000000000000000000000000000000000000\n      dup2\n      mstore\n      0x04\n      add\n      tag_260\n      swap2\n      swap1\n      tag_89\n      jump\t// in\n    tag_260:\n      mload(0x40)\n      dup1\n      swap2\n      sub\n      swap1\n      revert\n        /* \"@openzeppelin/contracts/token/ERC20/ERC20.sol\":5830:5916  if (to == address(0)) {... */\n    tag_259:\n        /* \"@openzeppelin/contracts/token/ERC20/ERC20.sol\":5934:5958  _update(from, to, value) */\n      tag_261\n        /* \"@openzeppelin/contracts/token/ERC20/ERC20.sol\":5942:5946  from */\n      dup4\n        /* \"@openzeppelin/contracts/token/ERC20/ERC20.sol\":5948:5950  to */\n      dup4\n        /* \"@openzeppelin/contracts/token/ERC20/ERC20.sol\":5952:5957  value */\n      dup4\n        /* \"@openzeppelin/contracts/token/ERC20/ERC20.sol\":5934:5941  _update */\n      tag_262\n        /* \"@openzeppelin/contracts/token/ERC20/ERC20.sol\":5934:5958  _update(from, to, value) */\n      jump\t// in\n    tag_261:\n        /* \"@openzeppelin/contracts/token/ERC20/ERC20.sol\":5656:5965  function _transfer(address from, address to, uint256 value) internal {... */\n      pop\n      pop\n      pop\n      jump\t// out\n        /* \"@openzeppelin/contracts/access/Ownable.sol\":1796:1958  function _checkOwner() internal view virtual {... */\n    tag_134:\n        /* \"@openzeppelin/contracts/access/Ownable.sol\":1866:1878  _msgSender() */\n      tag_264\n        /* \"@openzeppelin/contracts/access/Ownable.sol\":1866:1876  _msgSender */\n      tag_121\n        /* \"@openzeppelin/contracts/access/Ownable.sol\":1866:1878  _msgSender() */\n      jump\t// in\n    tag_264:\n        /* \"@openzeppelin/contracts/access/Ownable.sol\":1855:1878  owner() != _msgSender() */\n      0xffffffffffffffffffffffffffffffffffffffff\n      and\n        /* \"@openzeppelin/contracts/access/Ownable.sol\":1855:1862  owner() */\n      tag_265\n        /* \"@openzeppelin/contracts/access/Ownable.sol\":1855:1860  owner */\n      tag_87\n        /* \"@openzeppelin/contracts/access/Ownable.sol\":1855:1862  owner() */\n      jump\t// in\n    tag_265:\n        /* \"@openzeppelin/contracts/access/Ownable.sol\":1855:1878  owner() != _msgSender() */\n      0xffffffffffffffffffffffffffffffffffffffff\n      and\n      eq\n        /* \"@openzeppelin/contracts/access/Ownable.sol\":1851:1952  if (owner() != _msgSender()) {... */\n      tag_266\n      jumpi\n        /* \"@openzeppelin/contracts/access/Ownable.sol\":1928:1940  _msgSender() */\n      tag_267\n        /* \"@openzeppelin/contracts/access/Ownable.sol\":1928:1938  _msgSender */\n      tag_121\n        /* \"@openzeppelin/contracts/access/Ownable.sol\":1928:1940  _msgSender() */\n      jump\t// in\n    tag_267:\n        /* \"@openzeppelin/contracts/access/Ownable.sol\":1901:1941  OwnableUnauthorizedAccount(_msgSender()) */\n      mload(0x40)\n      0x118cdaa700000000000000000000000000000000000000000000000000000000\n      dup2\n      mstore\n      0x04\n      add\n      tag_268\n      swap2\n      swap1\n      tag_89\n      jump\t// in\n    tag_268:\n      mload(0x40)\n      dup1\n      swap2\n      sub\n      swap1\n      revert\n        /* \"@openzeppelin/contracts/access/Ownable.sol\":1851:1952  if (owner() != _msgSender()) {... */\n    tag_266:\n        /* \"@openzeppelin/contracts/access/Ownable.sol\":1796:1958  function _checkOwner() internal view virtual {... */\n      jump\t// out\n        /* \"@openzeppelin/contracts/security/Pausable.sol\":2433:2550  function _unpause() internal virtual whenPaused {... */\n    tag_144:\n        /* \"@openzeppelin/contracts/security/Pausable.sol\":1486:1502  _requirePaused() */\n      tag_270\n        /* \"@openzeppelin/contracts/security/Pausable.sol\":1486:1500  _requirePaused */\n      tag_271\n        /* \"@openzeppelin/contracts/security/Pausable.sol\":1486:1502  _requirePaused() */\n      jump\t// in\n    tag_270:\n        /* \"@openzeppelin/contracts/security/Pausable.sol\":2501:2506  false */\n      0x00\n        /* \"@openzeppelin/contracts/security/Pausable.sol\":2491:2498  _paused */\n      0x05\n      0x00\n        /* \"@openzeppelin/contracts/security/Pausable.sol\":2491:2506  _paused = false */\n      0x0100\n      exp\n      dup2\n      sload\n      dup2\n      0xff\n      mul\n      not\n      and\n      swap1\n      dup4\n      iszero\n      iszero\n      mul\n      or\n      swap1\n      sstore\n      pop\n        /* \"@openzeppelin/contracts/security/Pausable.sol\":2521:2543  Unpaused(_msgSender()) */\n      0x5db9ee0a495bf2e6ff9c91a7834c1ba4fdd244a5e8aa4e537bd38aeae4b073aa\n        /* \"@openzeppelin/contracts/security/Pausable.sol\":2530:2542  _msgSender() */\n      tag_273\n        /* \"@openzeppelin/contracts/security/Pausable.sol\":2530:2540  _msgSender */\n      tag_121\n        /* \"@openzeppelin/contracts/security/Pausable.sol\":2530:2542  _msgSender() */\n      jump\t// in\n    tag_273:\n        /* \"@openzeppelin/contracts/security/Pausable.sol\":2521:2543  Unpaused(_msgSender()) */\n      mload(0x40)\n      tag_274\n      swap2\n      swap1\n      tag_89\n      jump\t// in\n    tag_274:\n      mload(0x40)\n      dup1\n      swap2\n      sub\n      swap1\n      log1\n        /* \"@openzeppelin/contracts/security/Pausable.sol\":2433:2550  function _unpause() internal virtual whenPaused {... */\n      jump\t// out\n        /* \"@openzeppelin/contracts/token/ERC20/ERC20.sol\":8256:8462  function _burn(address account, uint256 value) internal {... */\n    tag_148:\n        /* \"@openzeppelin/contracts/token/ERC20/ERC20.sol\":8345:8346  0 */\n      0x00\n        /* \"@openzeppelin/contracts/token/ERC20/ERC20.sol\":8326:8347  account == address(0) */\n      0xffffffffffffffffffffffffffffffffffffffff\n      and\n        /* \"@openzeppelin/contracts/token/ERC20/ERC20.sol\":8326:8333  account */\n      dup3\n        /* \"@openzeppelin/contracts/token/ERC20/ERC20.sol\":8326:8347  account == address(0) */\n      0xffffffffffffffffffffffffffffffffffffffff\n      and\n      sub\n        /* \"@openzeppelin/contracts/token/ERC20/ERC20.sol\":8322:8411  if (account == address(0)) {... */\n      tag_276\n      jumpi\n        /* \"@openzeppelin/contracts/token/ERC20/ERC20.sol\":8397:8398  0 */\n      0x00\n        /* \"@openzeppelin/contracts/token/ERC20/ERC20.sol\":8370:8400  ERC20InvalidSender(address(0)) */\n      mload(0x40)\n      0x96c6fd1e00000000000000000000000000000000000000000000000000000000\n      dup2\n      mstore\n      0x04\n      add\n      tag_277\n      swap2\n      swap1\n      tag_89\n      jump\t// in\n    tag_277:\n      mload(0x40)\n      dup1\n      swap2\n      sub\n      swap1\n      revert\n        /* \"@openzeppelin/contracts/token/ERC20/ERC20.sol\":8322:8411  if (account == address(0)) {... */\n    tag_276:\n        /* \"@openzeppelin/contracts/token/ERC20/ERC20.sol\":8420:8455  _update(account, address(0), value) */\n      tag_278\n        /* \"@openzeppelin/contracts/token/ERC20/ERC20.sol\":8428:8435  account */\n      dup3\n        /* \"@openzeppelin/contracts/token/ERC20/ERC20.sol\":8445:8446  0 */\n      0x00\n        /* \"@openzeppelin/contracts/token/ERC20/ERC20.sol\":8449:8454  value */\n      dup4\n        /* \"@openzeppelin/contracts/token/ERC20/ERC20.sol\":8420:8427  _update */\n      tag_262\n        /* \"@openzeppelin/contracts/token/ERC20/ERC20.sol\":8420:8455  _update(account, address(0), value) */\n      jump\t// in\n    tag_278:\n        /* \"@openzeppelin/contracts/token/ERC20/ERC20.sol\":8256:8462  function _burn(address account, uint256 value) internal {... */\n      pop\n      pop\n      jump\t// out\n        /* \"@openzeppelin/contracts/access/Ownable.sol\":2912:3099  function _transferOwnership(address newOwner) internal virtual {... */\n    tag_169:\n        /* \"@openzeppelin/contracts/access/Ownable.sol\":2985:3001  address oldOwner */\n      0x00\n        /* \"@openzeppelin/contracts/access/Ownable.sol\":3004:3010  _owner */\n      0x05\n      0x01\n      swap1\n      sload\n      swap1\n      0x0100\n      exp\n      swap1\n      div\n      0xffffffffffffffffffffffffffffffffffffffff\n      and\n        /* \"@openzeppelin/contracts/access/Ownable.sol\":2985:3010  address oldOwner = _owner */\n      swap1\n      pop\n        /* \"@openzeppelin/contracts/access/Ownable.sol\":3029:3037  newOwner */\n      dup2\n        /* \"@openzeppelin/contracts/access/Ownable.sol\":3020:3026  _owner */\n      0x05\n      0x01\n        /* \"@openzeppelin/contracts/access/Ownable.sol\":3020:3037  _owner = newOwner */\n      0x0100\n      exp\n      dup2\n      sload\n      dup2\n      0xffffffffffffffffffffffffffffffffffffffff\n      mul\n      not\n      and\n      swap1\n      dup4\n      0xffffffffffffffffffffffffffffffffffffffff\n      and\n      mul\n      or\n      swap1\n      sstore\n      pop\n        /* \"@openzeppelin/contracts/access/Ownable.sol\":3083:3091  newOwner */\n      dup2\n        /* \"@openzeppelin/contracts/access/Ownable.sol\":3052:3092  OwnershipTransferred(oldOwner, newOwner) */\n      0xffffffffffffffffffffffffffffffffffffffff\n      and\n        /* \"@openzeppelin/contracts/access/Ownable.sol\":3073:3081  oldOwner */\n      dup2\n        /* \"@openzeppelin/contracts/access/Ownable.sol\":3052:3092  OwnershipTransferred(oldOwner, newOwner) */\n      0xffffffffffffffffffffffffffffffffffffffff\n      and\n      0x8be0079c531659141344cd1fd0a4f28419497f9722a3daafe3b4186f6b6457e0\n      mload(0x40)\n      mload(0x40)\n      dup1\n      swap2\n      sub\n      swap1\n      log3\n        /* \"@openzeppelin/contracts/access/Ownable.sol\":2975:3099  {... */\n      pop\n        /* \"@openzeppelin/contracts/access/Ownable.sol\":2912:3099  function _transferOwnership(address newOwner) internal virtual {... */\n      pop\n      jump\t// out\n        /* \"@openzeppelin/contracts/security/Pausable.sol\":2186:2301  function _pause() internal virtual whenNotPaused {... */\n    tag_178:\n        /* \"@openzeppelin/contracts/security/Pausable.sol\":1239:1258  _requireNotPaused() */\n      tag_281\n        /* \"@openzeppelin/contracts/security/Pausable.sol\":1239:1256  _requireNotPaused */\n      tag_282\n        /* \"@openzeppelin/contracts/security/Pausable.sol\":1239:1258  _requireNotPaused() */\n      jump\t// in\n    tag_281:\n        /* \"@openzeppelin/contracts/security/Pausable.sol\":2255:2259  true */\n      0x01\n        /* \"@openzeppelin/contracts/security/Pausable.sol\":2245:2252  _paused */\n      0x05\n      0x00\n        /* \"@openzeppelin/contracts/security/Pausable.sol\":2245:2259  _paused = true */\n      0x0100\n      exp\n      dup2\n      sload\n      dup2\n      0xff\n      mul\n      not\n      and\n      swap1\n      dup4\n      iszero\n      iszero\n      mul\n      or\n      swap1\n      sstore\n      pop\n        /* \"@openzeppelin/contracts/security/Pausable.sol\":2274:2294  Paused(_msgSender()) */\n      0x62e78cea01bee320cd4e420270b5ea74000d11b0c9f74754ebdbfc544b05a258\n        /* \"@openzeppelin/contracts/security/Pausable.sol\":2281:2293  _msgSender() */\n      tag_284\n        /* \"@openzeppelin/contracts/security/Pausable.sol\":2281:2291  _msgSender */\n      tag_121\n        /* \"@openzeppelin/contracts/security/Pausable.sol\":2281:2293  _msgSender() */\n      jump\t// in\n    tag_284:\n        /* \"@openzeppelin/contracts/security/Pausable.sol\":2274:2294  Paused(_msgSender()) */\n      mload(0x40)\n      tag_285\n      swap2\n      swap1\n      tag_89\n      jump\t// in\n    tag_285:\n      mload(0x40)\n      dup1\n      swap2\n      sub\n      swap1\n      log1\n        /* \"@openzeppelin/contracts/security/Pausable.sol\":2186:2301  function _pause() internal virtual whenNotPaused {... */\n      jump\t// out\n        /* \"@openzeppelin/contracts/token/ERC20/ERC20.sol\":9958:10390  function _approve(address owner, address spender, uint256 value, bool emitEvent) internal virtual {... */\n    tag_248:\n        /* \"@openzeppelin/contracts/token/ERC20/ERC20.sol\":10087:10088  0 */\n      0x00\n        /* \"@openzeppelin/contracts/token/ERC20/ERC20.sol\":10070:10089  owner == address(0) */\n      0xffffffffffffffffffffffffffffffffffffffff\n      and\n        /* \"@openzeppelin/contracts/token/ERC20/ERC20.sol\":10070:10075  owner */\n      dup5\n        /* \"@openzeppelin/contracts/token/ERC20/ERC20.sol\":10070:10089  owner == address(0) */\n      0xffffffffffffffffffffffffffffffffffffffff\n      and\n      sub\n        /* \"@openzeppelin/contracts/token/ERC20/ERC20.sol\":10066:10155  if (owner == address(0)) {... */\n      tag_287\n      jumpi\n        /* \"@openzeppelin/contracts/token/ERC20/ERC20.sol\":10141:10142  0 */\n      0x00\n        /* \"@openzeppelin/contracts/token/ERC20/ERC20.sol\":10112:10144  ERC20InvalidApprover(address(0)) */\n      mload(0x40)\n      0xe602df0500000000000000000000000000000000000000000000000000000000\n      dup2\n      mstore\n      0x04\n      add\n      tag_288\n      swap2\n      swap1\n      tag_89\n      jump\t// in\n    tag_288:\n      mload(0x40)\n      dup1\n      swap2\n      sub\n      swap1\n      revert\n        /* \"@openzeppelin/contracts/token/ERC20/ERC20.sol\":10066:10155  if (owner == address(0)) {... */\n    tag_287:\n        /* \"@openzeppelin/contracts/token/ERC20/ERC20.sol\":10187:10188  0 */\n      0x00\n        /* \"@openzeppelin/contracts/token/ERC20/ERC20.sol\":10168:10189  spender == address(0) */\n      0xffffffffffffffffffffffffffffffffffffffff\n      and\n        /* \"@openzeppelin/contracts/token/ERC20/ERC20.sol\":10168:10175  spender */\n      dup4\n        /* \"@openzeppelin/contracts/token/ERC20/ERC20.sol\":10168:10189  spender == address(0) */\n      0xffffffffffffffffffffffffffffffffffffffff\n      and\n      sub\n        /* \"@openzeppelin/contracts/token/ERC20/ERC20.sol\":10164:10254  if (spender == address(0)) {... */\n      tag_289\n      jumpi\n        /* \"@openzeppelin/contracts/token/ERC20/ERC20.sol\":10240:10241  0 */\n      0x00\n        /* \"@openzeppelin/contracts/token/ERC20/ERC20.sol\":10212:10243  ERC20InvalidSpender(address(0)) */\n      mload(0x40)\n      0x94280d6200000000000000000000000000000000000000000000000000000000\n      dup2\n      mstore\n      0x04\n      add\n      tag_290\n      swap2\n      swap1\n      tag_89\n      jump\t// in\n    tag_290:\n      mload(0x40)\n      dup1\n      swap2\n      sub\n      swap1\n      revert\n        /* \"@openzeppelin/contracts/token/ERC20/ERC20.sol\":10164:10254  if (spender == address(0)) {... */\n    tag_289:\n        /* \"@openzeppelin/contracts/token/ERC20/ERC20.sol\":10293:10298  value */\n      dup2\n        /* \"@openzeppelin/contracts/token/ERC20/ERC20.sol\":10263:10274  _allowances */\n      0x01\n        /* \"@openzeppelin/contracts/token/ERC20/ERC20.sol\":10263:10281  _allowances[owner] */\n      0x00\n        /* \"@openzeppelin/contracts/token/ERC20/ERC20.sol\":10275:10280  owner */\n      dup7\n        /* \"@openzeppelin/contracts/token/ERC20/ERC20.sol\":10263:10281  _allowances[owner] */\n      0xffffffffffffffffffffffffffffffffffffffff\n      and\n      0xffffffffffffffffffffffffffffffffffffffff\n      and\n      dup2\n      mstore\n      0x20\n      add\n      swap1\n      dup2\n      mstore\n      0x20\n      add\n      0x00\n      keccak256\n        /* \"@openzeppelin/contracts/token/ERC20/ERC20.sol\":10263:10290  _allowances[owner][spender] */\n      0x00\n        /* \"@openzeppelin/contracts/token/ERC20/ERC20.sol\":10282:10289  spender */\n      dup6\n        /* \"@openzeppelin/contracts/token/ERC20/ERC20.sol\":10263:10290  _allowances[owner][spender] */\n      0xffffffffffffffffffffffffffffffffffffffff\n      and\n      0xffffffffffffffffffffffffffffffffffffffff\n      and\n      dup2\n      mstore\n      0x20\n      add\n      swap1\n      dup2\n      mstore\n      0x20\n      add\n      0x00\n      keccak256\n        /* \"@openzeppelin/contracts/token/ERC20/ERC20.sol\":10263:10298  _allowances[owner][spender] = value */\n      dup2\n      swap1\n      sstore\n      pop\n        /* \"@openzeppelin/contracts/token/ERC20/ERC20.sol\":10312:10321  emitEvent */\n      dup1\n        /* \"@openzeppelin/contracts/token/ERC20/ERC20.sol\":10308:10384  if (emitEvent) {... */\n      iszero\n      tag_291\n      jumpi\n        /* \"@openzeppelin/contracts/token/ERC20/ERC20.sol\":10358:10365  spender */\n      dup3\n        /* \"@openzeppelin/contracts/token/ERC20/ERC20.sol\":10342:10373  Approval(owner, spender, value) */\n      0xffffffffffffffffffffffffffffffffffffffff\n      and\n        /* \"@openzeppelin/contracts/token/ERC20/ERC20.sol\":10351:10356  owner */\n      dup5\n        /* \"@openzeppelin/contracts/token/ERC20/ERC20.sol\":10342:10373  Approval(owner, spender, value) */\n      0xffffffffffffffffffffffffffffffffffffffff\n      and\n      0x8c5be1e5ebec7d5bd14f71427d1e84f3dd0314c0f7b2291e5b200ac8c7c3b925\n        /* \"@openzeppelin/contracts/token/ERC20/ERC20.sol\":10367:10372  value */\n      dup5\n        /* \"@openzeppelin/contracts/token/ERC20/ERC20.sol\":10342:10373  Approval(owner, spender, value) */\n      mload(0x40)\n      tag_292\n      swap2\n      swap1\n      tag_42\n      jump\t// in\n    tag_292:\n      mload(0x40)\n      dup1\n      swap2\n      sub\n      swap1\n      log3\n        /* \"@openzeppelin/contracts/token/ERC20/ERC20.sol\":10308:10384  if (emitEvent) {... */\n    tag_291:\n        /* \"@openzeppelin/contracts/token/ERC20/ERC20.sol\":9958:10390  function _approve(address owner, address spender, uint256 value, bool emitEvent) internal virtual {... */\n      pop\n      pop\n      pop\n      pop\n      jump\t// out\n        /* \"constracts/HealthMediToken.sol\":1126:1659  function _update(address from, address to, uint256 amount) internal override {... */\n    tag_262:\n        /* \"constracts/HealthMediToken.sol\":1323:1324  0 */\n      0x00\n        /* \"constracts/HealthMediToken.sol\":1307:1325  from != address(0) */\n      0xffffffffffffffffffffffffffffffffffffffff\n      and\n        /* \"constracts/HealthMediToken.sol\":1307:1311  from */\n      dup4\n        /* \"constracts/HealthMediToken.sol\":1307:1325  from != address(0) */\n      0xffffffffffffffffffffffffffffffffffffffff\n      and\n      eq\n      iszero\n        /* \"constracts/HealthMediToken.sol\":1307:1345  from != address(0) && to != address(0) */\n      dup1\n      iszero\n      tag_294\n      jumpi\n      pop\n        /* \"constracts/HealthMediToken.sol\":1343:1344  0 */\n      0x00\n        /* \"constracts/HealthMediToken.sol\":1329:1345  to != address(0) */\n      0xffffffffffffffffffffffffffffffffffffffff\n      and\n        /* \"constracts/HealthMediToken.sol\":1329:1331  to */\n      dup3\n        /* \"constracts/HealthMediToken.sol\":1329:1345  to != address(0) */\n      0xffffffffffffffffffffffffffffffffffffffff\n      and\n      eq\n      iszero\n        /* \"constracts/HealthMediToken.sol\":1307:1345  from != address(0) && to != address(0) */\n    tag_294:\n        /* \"constracts/HealthMediToken.sol\":1304:1603  if(from != address(0) && to != address(0)) {... */\n      iszero\n      tag_295\n      jumpi\n        /* \"constracts/HealthMediToken.sol\":1370:1378  paused() */\n      tag_296\n        /* \"constracts/HealthMediToken.sol\":1370:1376  paused */\n      tag_67\n        /* \"constracts/HealthMediToken.sol\":1370:1378  paused() */\n      jump\t// in\n    tag_296:\n        /* \"constracts/HealthMediToken.sol\":1369:1378  !paused() */\n      iszero\n        /* \"constracts/HealthMediToken.sol\":1369:1403  !paused() || msg.sender == owner() */\n      dup1\n      tag_297\n      jumpi\n      pop\n        /* \"constracts/HealthMediToken.sol\":1396:1403  owner() */\n      tag_298\n        /* \"constracts/HealthMediToken.sol\":1396:1401  owner */\n      tag_87\n        /* \"constracts/HealthMediToken.sol\":1396:1403  owner() */\n      jump\t// in\n    tag_298:\n        /* \"constracts/HealthMediToken.sol\":1382:1403  msg.sender == owner() */\n      0xffffffffffffffffffffffffffffffffffffffff\n      and\n        /* \"constracts/HealthMediToken.sol\":1382:1392  msg.sender */\n      caller\n        /* \"constracts/HealthMediToken.sol\":1382:1403  msg.sender == owner() */\n      0xffffffffffffffffffffffffffffffffffffffff\n      and\n      eq\n        /* \"constracts/HealthMediToken.sol\":1369:1403  !paused() || msg.sender == owner() */\n    tag_297:\n        /* \"constracts/HealthMediToken.sol\":1361:1435  require(!paused() || msg.sender == owner(), \"Token transfer while paused\") */\n      tag_299\n      jumpi\n      mload(0x40)\n      0x08c379a000000000000000000000000000000000000000000000000000000000\n      dup2\n      mstore\n      0x04\n      add\n      tag_300\n      swap1\n      tag_301\n      jump\t// in\n    tag_300:\n      mload(0x40)\n      dup1\n      swap2\n      sub\n      swap1\n      revert\n    tag_299:\n        /* \"constracts/HealthMediToken.sol\":1508:1532  _checkLock(from, amount) */\n      tag_302\n        /* \"constracts/HealthMediToken.sol\":1519:1523  from */\n      dup4\n        /* \"constracts/HealthMediToken.sol\":1525:1531  amount */\n      dup3\n        /* \"constracts/HealthMediToken.sol\":1508:1518  _checkLock */\n      tag_303\n        /* \"constracts/HealthMediToken.sol\":1508:1532  _checkLock(from, amount) */\n      jump\t// in\n    tag_302:\n        /* \"constracts/HealthMediToken.sol\":1500:1592  require(_checkLock(from, amount), \"ERC20Lockable: transfer amount exceeds unlocked balance\") */\n      tag_304\n      jumpi\n      mload(0x40)\n      0x08c379a000000000000000000000000000000000000000000000000000000000\n      dup2\n      mstore\n      0x04\n      add\n      tag_305\n      swap1\n      tag_306\n      jump\t// in\n    tag_305:\n      mload(0x40)\n      dup1\n      swap2\n      sub\n      swap1\n      revert\n    tag_304:\n        /* \"constracts/HealthMediToken.sol\":1304:1603  if(from != address(0) && to != address(0)) {... */\n    tag_295:\n        /* \"constracts/HealthMediToken.sol\":1621:1652  super._update(from, to, amount) */\n      tag_307\n        /* \"constracts/HealthMediToken.sol\":1635:1639  from */\n      dup4\n        /* \"constracts/HealthMediToken.sol\":1641:1643  to */\n      dup4\n        /* \"constracts/HealthMediToken.sol\":1645:1651  amount */\n      dup4\n        /* \"constracts/HealthMediToken.sol\":1621:1634  super._update */\n      tag_308\n        /* \"constracts/HealthMediToken.sol\":1621:1652  super._update(from, to, amount) */\n      jump\t// in\n    tag_307:\n        /* \"constracts/HealthMediToken.sol\":1126:1659  function _update(address from, address to, uint256 amount) internal override {... */\n      pop\n      pop\n      pop\n      jump\t// out\n        /* \"@openzeppelin/contracts/security/Pausable.sol\":1945:2051  function _requirePaused() internal view virtual {... */\n    tag_271:\n        /* \"@openzeppelin/contracts/security/Pausable.sol\":2011:2019  paused() */\n      tag_310\n        /* \"@openzeppelin/contracts/security/Pausable.sol\":2011:2017  paused */\n      tag_67\n        /* \"@openzeppelin/contracts/security/Pausable.sol\":2011:2019  paused() */\n      jump\t// in\n    tag_310:\n        /* \"@openzeppelin/contracts/security/Pausable.sol\":2003:2044  require(paused(), \"Pausable: not paused\") */\n      tag_311\n      jumpi\n      mload(0x40)\n      0x08c379a000000000000000000000000000000000000000000000000000000000\n      dup2\n      mstore\n      0x04\n      add\n      tag_312\n      swap1\n      tag_313\n      jump\t// in\n    tag_312:\n      mload(0x40)\n      dup1\n      swap2\n      sub\n      swap1\n      revert\n    tag_311:\n        /* \"@openzeppelin/contracts/security/Pausable.sol\":1945:2051  function _requirePaused() internal view virtual {... */\n      jump\t// out\n        /* \"@openzeppelin/contracts/security/Pausable.sol\":1767:1873  function _requireNotPaused() internal view virtual {... */\n    tag_282:\n        /* \"@openzeppelin/contracts/security/Pausable.sol\":1837:1845  paused() */\n      tag_315\n        /* \"@openzeppelin/contracts/security/Pausable.sol\":1837:1843  paused */\n      tag_67\n        /* \"@openzeppelin/contracts/security/Pausable.sol\":1837:1845  paused() */\n      jump\t// in\n    tag_315:\n        /* \"@openzeppelin/contracts/security/Pausable.sol\":1836:1845  !paused() */\n      iszero\n        /* \"@openzeppelin/contracts/security/Pausable.sol\":1828:1866  require(!paused(), \"Pausable: paused\") */\n      tag_316\n      jumpi\n      mload(0x40)\n      0x08c379a000000000000000000000000000000000000000000000000000000000\n      dup2\n      mstore\n      0x04\n      add\n      tag_317\n      swap1\n      tag_318\n      jump\t// in\n    tag_317:\n      mload(0x40)\n      dup1\n      swap2\n      sub\n      swap1\n      revert\n    tag_316:\n        /* \"@openzeppelin/contracts/security/Pausable.sol\":1767:1873  function _requireNotPaused() internal view virtual {... */\n      jump\t// out\n        /* \"constracts/HealthMediToken.sol\":3240:3808  function _checkLock(address from, uint256 amount) private view returns (bool) {... */\n    tag_303:\n        /* \"constracts/HealthMediToken.sol\":3312:3316  bool */\n      0x00\n        /* \"constracts/HealthMediToken.sol\":3328:3348  uint256 lockedAmount */\n      dup1\n        /* \"constracts/HealthMediToken.sol\":3351:3352  0 */\n      0x00\n        /* \"constracts/HealthMediToken.sol\":3328:3352  uint256 lockedAmount = 0 */\n      swap1\n      pop\n        /* \"constracts/HealthMediToken.sol\":3456:3465  uint256 i */\n      0x00\n        /* \"constracts/HealthMediToken.sol\":3451:3647  for (uint256 i = 0; i < _locks[from].length; i++) {... */\n    tag_320:\n        /* \"constracts/HealthMediToken.sol\":3475:3481  _locks */\n      0x07\n        /* \"constracts/HealthMediToken.sol\":3475:3487  _locks[from] */\n      0x00\n        /* \"constracts/HealthMediToken.sol\":3482:3486  from */\n      dup7\n        /* \"constracts/HealthMediToken.sol\":3475:3487  _locks[from] */\n      0xffffffffffffffffffffffffffffffffffffffff\n      and\n      0xffffffffffffffffffffffffffffffffffffffff\n      and\n      dup2\n      mstore\n      0x20\n      add\n      swap1\n      dup2\n      mstore\n      0x20\n      add\n      0x00\n      keccak256\n        /* \"constracts/HealthMediToken.sol\":3475:3494  _locks[from].length */\n      dup1\n      sload\n      swap1\n      pop\n        /* \"constracts/HealthMediToken.sol\":3471:3472  i */\n      dup2\n        /* \"constracts/HealthMediToken.sol\":3471:3494  i < _locks[from].length */\n      lt\n        /* \"constracts/HealthMediToken.sol\":3451:3647  for (uint256 i = 0; i < _locks[from].length; i++) {... */\n      iszero\n      tag_321\n      jumpi\n        /* \"constracts/HealthMediToken.sol\":3549:3564  block.timestamp */\n      timestamp\n        /* \"constracts/HealthMediToken.sol\":3519:3525  _locks */\n      0x07\n        /* \"constracts/HealthMediToken.sol\":3519:3531  _locks[from] */\n      0x00\n        /* \"constracts/HealthMediToken.sol\":3526:3530  from */\n      dup8\n        /* \"constracts/HealthMediToken.sol\":3519:3531  _locks[from] */\n      0xffffffffffffffffffffffffffffffffffffffff\n      and\n      0xffffffffffffffffffffffffffffffffffffffff\n      and\n      dup2\n      mstore\n      0x20\n      add\n      swap1\n      dup2\n      mstore\n      0x20\n      add\n      0x00\n      keccak256\n        /* \"constracts/HealthMediToken.sol\":3532:3533  i */\n      dup3\n        /* \"constracts/HealthMediToken.sol\":3519:3534  _locks[from][i] */\n      dup2\n      sload\n      dup2\n      lt\n      tag_323\n      jumpi\n      tag_324\n      tag_192\n      jump\t// in\n    tag_324:\n    tag_323:\n      swap1\n      0x00\n      mstore\n      keccak256(0x00, 0x20)\n      swap1\n      0x02\n      mul\n      add\n        /* \"constracts/HealthMediToken.sol\":3519:3546  _locks[from][i].releaseTime */\n      0x01\n      add\n      sload\n        /* \"constracts/HealthMediToken.sol\":3519:3564  _locks[from][i].releaseTime > block.timestamp */\n      gt\n        /* \"constracts/HealthMediToken.sol\":3515:3637  if (_locks[from][i].releaseTime > block.timestamp) {... */\n      iszero\n      tag_326\n      jumpi\n        /* \"constracts/HealthMediToken.sol\":3600:3606  _locks */\n      0x07\n        /* \"constracts/HealthMediToken.sol\":3600:3612  _locks[from] */\n      0x00\n        /* \"constracts/HealthMediToken.sol\":3607:3611  from */\n      dup7\n        /* \"constracts/HealthMediToken.sol\":3600:3612  _locks[from] */\n      0xffffffffffffffffffffffffffffffffffffffff\n      and\n      0xffffffffffffffffffffffffffffffffffffffff\n      and\n      dup2\n      mstore\n      0x20\n      add\n      swap1\n      dup2\n      mstore\n      0x20\n      add\n      0x00\n      keccak256\n        /* \"constracts/HealthMediToken.sol\":3613:3614  i */\n      dup2\n        /* \"constracts/HealthMediToken.sol\":3600:3615  _locks[from][i] */\n      dup2\n      sload\n      dup2\n      lt\n      tag_327\n      jumpi\n      tag_328\n      tag_192\n      jump\t// in\n    tag_328:\n    tag_327:\n      swap1\n      0x00\n      mstore\n      keccak256(0x00, 0x20)\n      swap1\n      0x02\n      mul\n      add\n        /* \"constracts/HealthMediToken.sol\":3600:3622  _locks[from][i].amount */\n      0x00\n      add\n      sload\n        /* \"constracts/HealthMediToken.sol\":3584:3622  lockedAmount += _locks[from][i].amount */\n      dup3\n      tag_330\n      swap2\n      swap1\n      tag_139\n      jump\t// in\n    tag_330:\n      swap2\n      pop\n        /* \"constracts/HealthMediToken.sol\":3515:3637  if (_locks[from][i].releaseTime > block.timestamp) {... */\n    tag_326:\n        /* \"constracts/HealthMediToken.sol\":3496:3499  i++ */\n      dup1\n      dup1\n      0x01\n      add\n      swap2\n      pop\n      pop\n        /* \"constracts/HealthMediToken.sol\":3451:3647  for (uint256 i = 0; i < _locks[from].length; i++) {... */\n      jump(tag_320)\n    tag_321:\n      pop\n        /* \"constracts/HealthMediToken.sol\":3795:3801  amount */\n      dup3\n        /* \"constracts/HealthMediToken.sol\":3779:3791  lockedAmount */\n      dup2\n        /* \"constracts/HealthMediToken.sol\":3761:3776  balanceOf(from) */\n      tag_331\n        /* \"constracts/HealthMediToken.sol\":3771:3775  from */\n      dup7\n        /* \"constracts/HealthMediToken.sol\":3761:3770  balanceOf */\n      tag_74\n        /* \"constracts/HealthMediToken.sol\":3761:3776  balanceOf(from) */\n      jump\t// in\n    tag_331:\n        /* \"constracts/HealthMediToken.sol\":3761:3791  balanceOf(from) - lockedAmount */\n      tag_332\n      swap2\n      swap1\n      tag_221\n      jump\t// in\n    tag_332:\n        /* \"constracts/HealthMediToken.sol\":3761:3801  balanceOf(from) - lockedAmount >= amount */\n      lt\n      iszero\n        /* \"constracts/HealthMediToken.sol\":3754:3801  return balanceOf(from) - lockedAmount >= amount */\n      swap2\n      pop\n      pop\n        /* \"constracts/HealthMediToken.sol\":3240:3808  function _checkLock(address from, uint256 amount) private view returns (bool) {... */\n      swap3\n      swap2\n      pop\n      pop\n      jump\t// out\n        /* \"@openzeppelin/contracts/token/ERC20/ERC20.sol\":6280:7387  function _update(address from, address to, uint256 value) internal virtual {... */\n    tag_308:\n        /* \"@openzeppelin/contracts/token/ERC20/ERC20.sol\":6385:6386  0 */\n      0x00\n        /* \"@openzeppelin/contracts/token/ERC20/ERC20.sol\":6369:6387  from == address(0) */\n      0xffffffffffffffffffffffffffffffffffffffff\n      and\n        /* \"@openzeppelin/contracts/token/ERC20/ERC20.sol\":6369:6373  from */\n      dup4\n        /* \"@openzeppelin/contracts/token/ERC20/ERC20.sol\":6369:6387  from == address(0) */\n      0xffffffffffffffffffffffffffffffffffffffff\n      and\n      sub\n        /* \"@openzeppelin/contracts/token/ERC20/ERC20.sol\":6365:6905  if (from == address(0)) {... */\n      tag_334\n      jumpi\n        /* \"@openzeppelin/contracts/token/ERC20/ERC20.sol\":6521:6526  value */\n      dup1\n        /* \"@openzeppelin/contracts/token/ERC20/ERC20.sol\":6505:6517  _totalSupply */\n      0x02\n      0x00\n        /* \"@openzeppelin/contracts/token/ERC20/ERC20.sol\":6505:6526  _totalSupply += value */\n      dup3\n      dup3\n      sload\n      tag_335\n      swap2\n      swap1\n      tag_139\n      jump\t// in\n    tag_335:\n      swap3\n      pop\n      pop\n      dup2\n      swap1\n      sstore\n      pop\n        /* \"@openzeppelin/contracts/token/ERC20/ERC20.sol\":6365:6905  if (from == address(0)) {... */\n      jump(tag_336)\n    tag_334:\n        /* \"@openzeppelin/contracts/token/ERC20/ERC20.sol\":6557:6576  uint256 fromBalance */\n      0x00\n        /* \"@openzeppelin/contracts/token/ERC20/ERC20.sol\":6579:6588  _balances */\n      dup1\n        /* \"@openzeppelin/contracts/token/ERC20/ERC20.sol\":6579:6594  _balances[from] */\n      0x00\n        /* \"@openzeppelin/contracts/token/ERC20/ERC20.sol\":6589:6593  from */\n      dup6\n        /* \"@openzeppelin/contracts/token/ERC20/ERC20.sol\":6579:6594  _balances[from] */\n      0xffffffffffffffffffffffffffffffffffffffff\n      and\n      0xffffffffffffffffffffffffffffffffffffffff\n      and\n      dup2\n      mstore\n      0x20\n      add\n      swap1\n      dup2\n      mstore\n      0x20\n      add\n      0x00\n      keccak256\n      sload\n        /* \"@openzeppelin/contracts/token/ERC20/ERC20.sol\":6557:6594  uint256 fromBalance = _balances[from] */\n      swap1\n      pop\n        /* \"@openzeppelin/contracts/token/ERC20/ERC20.sol\":6626:6631  value */\n      dup2\n        /* \"@openzeppelin/contracts/token/ERC20/ERC20.sol\":6612:6623  fromBalance */\n      dup2\n        /* \"@openzeppelin/contracts/token/ERC20/ERC20.sol\":6612:6631  fromBalance < value */\n      lt\n        /* \"@openzeppelin/contracts/token/ERC20/ERC20.sol\":6608:6723  if (fromBalance < value) {... */\n      iszero\n      tag_337\n      jumpi\n        /* \"@openzeppelin/contracts/token/ERC20/ERC20.sol\":6683:6687  from */\n      dup4\n        /* \"@openzeppelin/contracts/token/ERC20/ERC20.sol\":6689:6700  fromBalance */\n      dup2\n        /* \"@openzeppelin/contracts/token/ERC20/ERC20.sol\":6702:6707  value */\n      dup4\n        /* \"@openzeppelin/contracts/token/ERC20/ERC20.sol\":6658:6708  ERC20InsufficientBalance(from, fromBalance, value) */\n      mload(0x40)\n      0xe450d38c00000000000000000000000000000000000000000000000000000000\n      dup2\n      mstore\n      0x04\n      add\n      tag_338\n      swap4\n      swap3\n      swap2\n      swap1\n      tag_254\n      jump\t// in\n    tag_338:\n      mload(0x40)\n      dup1\n      swap2\n      sub\n      swap1\n      revert\n        /* \"@openzeppelin/contracts/token/ERC20/ERC20.sol\":6608:6723  if (fromBalance < value) {... */\n    tag_337:\n        /* \"@openzeppelin/contracts/token/ERC20/ERC20.sol\":6875:6880  value */\n      dup2\n        /* \"@openzeppelin/contracts/token/ERC20/ERC20.sol\":6861:6872  fromBalance */\n      dup2\n        /* \"@openzeppelin/contracts/token/ERC20/ERC20.sol\":6861:6880  fromBalance - value */\n      sub\n        /* \"@openzeppelin/contracts/token/ERC20/ERC20.sol\":6843:6852  _balances */\n      0x00\n        /* \"@openzeppelin/contracts/token/ERC20/ERC20.sol\":6843:6858  _balances[from] */\n      dup1\n        /* \"@openzeppelin/contracts/token/ERC20/ERC20.sol\":6853:6857  from */\n      dup7\n        /* \"@openzeppelin/contracts/token/ERC20/ERC20.sol\":6843:6858  _balances[from] */\n      0xffffffffffffffffffffffffffffffffffffffff\n      and\n      0xffffffffffffffffffffffffffffffffffffffff\n      and\n      dup2\n      mstore\n      0x20\n      add\n      swap1\n      dup2\n      mstore\n      0x20\n      add\n      0x00\n      keccak256\n        /* \"@openzeppelin/contracts/token/ERC20/ERC20.sol\":6843:6880  _balances[from] = fromBalance - value */\n      dup2\n      swap1\n      sstore\n      pop\n        /* \"@openzeppelin/contracts/token/ERC20/ERC20.sol\":6543:6905  {... */\n      pop\n        /* \"@openzeppelin/contracts/token/ERC20/ERC20.sol\":6365:6905  if (from == address(0)) {... */\n    tag_336:\n        /* \"@openzeppelin/contracts/token/ERC20/ERC20.sol\":6933:6934  0 */\n      0x00\n        /* \"@openzeppelin/contracts/token/ERC20/ERC20.sol\":6919:6935  to == address(0) */\n      0xffffffffffffffffffffffffffffffffffffffff\n      and\n        /* \"@openzeppelin/contracts/token/ERC20/ERC20.sol\":6919:6921  to */\n      dup3\n        /* \"@openzeppelin/contracts/token/ERC20/ERC20.sol\":6919:6935  to == address(0) */\n      0xffffffffffffffffffffffffffffffffffffffff\n      and\n      sub\n        /* \"@openzeppelin/contracts/token/ERC20/ERC20.sol\":6915:7340  if (to == address(0)) {... */\n      tag_339\n      jumpi\n        /* \"@openzeppelin/contracts/token/ERC20/ERC20.sol\":7098:7103  value */\n      dup1\n        /* \"@openzeppelin/contracts/token/ERC20/ERC20.sol\":7082:7094  _totalSupply */\n      0x02\n      0x00\n        /* \"@openzeppelin/contracts/token/ERC20/ERC20.sol\":7082:7103  _totalSupply -= value */\n      dup3\n      dup3\n      sload\n      sub\n      swap3\n      pop\n      pop\n      dup2\n      swap1\n      sstore\n      pop\n        /* \"@openzeppelin/contracts/token/ERC20/ERC20.sol\":6915:7340  if (to == address(0)) {... */\n      jump(tag_340)\n    tag_339:\n        /* \"@openzeppelin/contracts/token/ERC20/ERC20.sol\":7310:7315  value */\n      dup1\n        /* \"@openzeppelin/contracts/token/ERC20/ERC20.sol\":7293:7302  _balances */\n      0x00\n        /* \"@openzeppelin/contracts/token/ERC20/ERC20.sol\":7293:7306  _balances[to] */\n      dup1\n        /* \"@openzeppelin/contracts/token/ERC20/ERC20.sol\":7303:7305  to */\n      dup5\n        /* \"@openzeppelin/contracts/token/ERC20/ERC20.sol\":7293:7306  _balances[to] */\n      0xffffffffffffffffffffffffffffffffffffffff\n      and\n      0xffffffffffffffffffffffffffffffffffffffff\n      and\n      dup2\n      mstore\n      0x20\n      add\n      swap1\n      dup2\n      mstore\n      0x20\n      add\n      0x00\n      keccak256\n      0x00\n        /* \"@openzeppelin/contracts/token/ERC20/ERC20.sol\":7293:7315  _balances[to] += value */\n      dup3\n      dup3\n      sload\n      add\n      swap3\n      pop\n      pop\n      dup2\n      swap1\n      sstore\n      pop\n        /* \"@openzeppelin/contracts/token/ERC20/ERC20.sol\":6915:7340  if (to == address(0)) {... */\n    tag_340:\n        /* \"@openzeppelin/contracts/token/ERC20/ERC20.sol\":7370:7372  to */\n      dup2\n        /* \"@openzeppelin/contracts/token/ERC20/ERC20.sol\":7355:7380  Transfer(from, to, value) */\n      0xffffffffffffffffffffffffffffffffffffffff\n      and\n        /* \"@openzeppelin/contracts/token/ERC20/ERC20.sol\":7364:7368  from */\n      dup4\n        /* \"@openzeppelin/contracts/token/ERC20/ERC20.sol\":7355:7380  Transfer(from, to, value) */\n      0xffffffffffffffffffffffffffffffffffffffff\n      and\n      0xddf252ad1be2c89b69c2b068fc378daa952ba7f163c4a11628f55a4df523b3ef\n        /* \"@openzeppelin/contracts/token/ERC20/ERC20.sol\":7374:7379  value */\n      dup4\n        /* \"@openzeppelin/contracts/token/ERC20/ERC20.sol\":7355:7380  Transfer(from, to, value) */\n      mload(0x40)\n      tag_341\n      swap2\n      swap1\n      tag_42\n      jump\t// in\n    tag_341:\n      mload(0x40)\n      dup1\n      swap2\n      sub\n      swap1\n      log3\n        /* \"@openzeppelin/contracts/token/ERC20/ERC20.sol\":6280:7387  function _update(address from, address to, uint256 value) internal virtual {... */\n      pop\n      pop\n      pop\n      jump\t// out\n        /* \"#utility.yul\":7:106   */\n    tag_342:\n        /* \"#utility.yul\":59:65   */\n      0x00\n        /* \"#utility.yul\":93:98   */\n      dup2\n        /* \"#utility.yul\":87:99   */\n      mload\n        /* \"#utility.yul\":77:99   */\n      swap1\n      pop\n        /* \"#utility.yul\":7:106   */\n      swap2\n      swap1\n      pop\n      jump\t// out\n        /* \"#utility.yul\":112:281   */\n    tag_343:\n        /* \"#utility.yul\":196:207   */\n      0x00\n        /* \"#utility.yul\":230:236   */\n      dup3\n        /* \"#utility.yul\":225:228   */\n      dup3\n        /* \"#utility.yul\":218:237   */\n      mstore\n        /* \"#utility.yul\":270:274   */\n      0x20\n        /* \"#utility.yul\":265:268   */\n      dup3\n        /* \"#utility.yul\":261:275   */\n      add\n        /* \"#utility.yul\":246:275   */\n      swap1\n      pop\n        /* \"#utility.yul\":112:281   */\n      swap3\n      swap2\n      pop\n      pop\n      jump\t// out\n        /* \"#utility.yul\":287:533   */\n    tag_344:\n        /* \"#utility.yul\":368:369   */\n      0x00\n        /* \"#utility.yul\":378:491   */\n    tag_383:\n        /* \"#utility.yul\":392:398   */\n      dup4\n        /* \"#utility.yul\":389:390   */\n      dup2\n        /* \"#utility.yul\":386:399   */\n      lt\n        /* \"#utility.yul\":378:491   */\n      iszero\n      tag_385\n      jumpi\n        /* \"#utility.yul\":477:478   */\n      dup1\n        /* \"#utility.yul\":472:475   */\n      dup3\n        /* \"#utility.yul\":468:479   */\n      add\n        /* \"#utility.yul\":462:480   */\n      mload\n        /* \"#utility.yul\":458:459   */\n      dup2\n        /* \"#utility.yul\":453:456   */\n      dup5\n        /* \"#utility.yul\":449:460   */\n      add\n        /* \"#utility.yul\":442:481   */\n      mstore\n        /* \"#utility.yul\":414:416   */\n      0x20\n        /* \"#utility.yul\":411:412   */\n      dup2\n        /* \"#utility.yul\":407:417   */\n      add\n        /* \"#utility.yul\":402:417   */\n      swap1\n      pop\n        /* \"#utility.yul\":378:491   */\n      jump(tag_383)\n    tag_385:\n        /* \"#utility.yul\":525:526   */\n      0x00\n        /* \"#utility.yul\":516:522   */\n      dup5\n        /* \"#utility.yul\":511:514   */\n      dup5\n        /* \"#utility.yul\":507:523   */\n      add\n        /* \"#utility.yul\":500:527   */\n      mstore\n        /* \"#utility.yul\":349:533   */\n      pop\n        /* \"#utility.yul\":287:533   */\n      pop\n      pop\n      pop\n      jump\t// out\n        /* \"#utility.yul\":539:641   */\n    tag_345:\n        /* \"#utility.yul\":580:586   */\n      0x00\n        /* \"#utility.yul\":631:633   */\n      0x1f\n        /* \"#utility.yul\":627:634   */\n      not\n        /* \"#utility.yul\":622:624   */\n      0x1f\n        /* \"#utility.yul\":615:620   */\n      dup4\n        /* \"#utility.yul\":611:625   */\n      add\n        /* \"#utility.yul\":607:635   */\n      and\n        /* \"#utility.yul\":597:635   */\n      swap1\n      pop\n        /* \"#utility.yul\":539:641   */\n      swap2\n      swap1\n      pop\n      jump\t// out\n        /* \"#utility.yul\":647:1024   */\n    tag_346:\n        /* \"#utility.yul\":735:738   */\n      0x00\n        /* \"#utility.yul\":763:802   */\n      tag_388\n        /* \"#utility.yul\":796:801   */\n      dup3\n        /* \"#utility.yul\":763:802   */\n      tag_342\n      jump\t// in\n    tag_388:\n        /* \"#utility.yul\":818:889   */\n      tag_389\n        /* \"#utility.yul\":882:888   */\n      dup2\n        /* \"#utility.yul\":877:880   */\n      dup6\n        /* \"#utility.yul\":818:889   */\n      tag_343\n      jump\t// in\n    tag_389:\n        /* \"#utility.yul\":811:889   */\n      swap4\n      pop\n        /* \"#utility.yul\":898:963   */\n      tag_390\n        /* \"#utility.yul\":956:962   */\n      dup2\n        /* \"#utility.yul\":951:954   */\n      dup6\n        /* \"#utility.yul\":944:948   */\n      0x20\n        /* \"#utility.yul\":937:942   */\n      dup7\n        /* \"#utility.yul\":933:949   */\n      add\n        /* \"#utility.yul\":898:963   */\n      tag_344\n      jump\t// in\n    tag_390:\n        /* \"#utility.yul\":988:1017   */\n      tag_391\n        /* \"#utility.yul\":1010:1016   */\n      dup2\n        /* \"#utility.yul\":988:1017   */\n      tag_345\n      jump\t// in\n    tag_391:\n        /* \"#utility.yul\":983:986   */\n      dup5\n        /* \"#utility.yul\":979:1018   */\n      add\n        /* \"#utility.yul\":972:1018   */\n      swap2\n      pop\n        /* \"#utility.yul\":739:1024   */\n      pop\n        /* \"#utility.yul\":647:1024   */\n      swap3\n      swap2\n      pop\n      pop\n      jump\t// out\n        /* \"#utility.yul\":1030:1343   */\n    tag_32:\n        /* \"#utility.yul\":1143:1147   */\n      0x00\n        /* \"#utility.yul\":1181:1183   */\n      0x20\n        /* \"#utility.yul\":1170:1179   */\n      dup3\n        /* \"#utility.yul\":1166:1184   */\n      add\n        /* \"#utility.yul\":1158:1184   */\n      swap1\n      pop\n        /* \"#utility.yul\":1230:1239   */\n      dup2\n        /* \"#utility.yul\":1224:1228   */\n      dup2\n        /* \"#utility.yul\":1220:1240   */\n      sub\n        /* \"#utility.yul\":1216:1217   */\n      0x00\n        /* \"#utility.yul\":1205:1214   */\n      dup4\n        /* \"#utility.yul\":1201:1218   */\n      add\n        /* \"#utility.yul\":1194:1241   */\n      mstore\n        /* \"#utility.yul\":1258:1336   */\n      tag_393\n        /* \"#utility.yul\":1331:1335   */\n      dup2\n        /* \"#utility.yul\":1322:1328   */\n      dup5\n        /* \"#utility.yul\":1258:1336   */\n      tag_346\n      jump\t// in\n    tag_393:\n        /* \"#utility.yul\":1250:1336   */\n      swap1\n      pop\n        /* \"#utility.yul\":1030:1343   */\n      swap3\n      swap2\n      pop\n      pop\n      jump\t// out\n        /* \"#utility.yul\":1430:1547   */\n    tag_348:\n        /* \"#utility.yul\":1539:1540   */\n      0x00\n        /* \"#utility.yul\":1536:1537   */\n      dup1\n        /* \"#utility.yul\":1529:1541   */\n      revert\n        /* \"#utility.yul\":1676:1802   */\n    tag_350:\n        /* \"#utility.yul\":1713:1720   */\n      0x00\n        /* \"#utility.yul\":1753:1795   */\n      0xffffffffffffffffffffffffffffffffffffffff\n        /* \"#utility.yul\":1746:1751   */\n      dup3\n        /* \"#utility.yul\":1742:1796   */\n      and\n        /* \"#utility.yul\":1731:1796   */\n      swap1\n      pop\n        /* \"#utility.yul\":1676:1802   */\n      swap2\n      swap1\n      pop\n      jump\t// out\n        /* \"#utility.yul\":1808:1904   */\n    tag_351:\n        /* \"#utility.yul\":1845:1852   */\n      0x00\n        /* \"#utility.yul\":1874:1898   */\n      tag_399\n        /* \"#utility.yul\":1892:1897   */\n      dup3\n        /* \"#utility.yul\":1874:1898   */\n      tag_350\n      jump\t// in\n    tag_399:\n        /* \"#utility.yul\":1863:1898   */\n      swap1\n      pop\n        /* \"#utility.yul\":1808:1904   */\n      swap2\n      swap1\n      pop\n      jump\t// out\n        /* \"#utility.yul\":1910:2032   */\n    tag_352:\n        /* \"#utility.yul\":1983:2007   */\n      tag_401\n        /* \"#utility.yul\":2001:2006   */\n      dup2\n        /* \"#utility.yul\":1983:2007   */\n      tag_351\n      jump\t// in\n    tag_401:\n        /* \"#utility.yul\":1976:1981   */\n      dup2\n        /* \"#utility.yul\":1973:2008   */\n      eq\n        /* \"#utility.yul\":1963:2026   */\n      tag_402\n      jumpi\n        /* \"#utility.yul\":2022:2023   */\n      0x00\n        /* \"#utility.yul\":2019:2020   */\n      dup1\n        /* \"#utility.yul\":2012:2024   */\n      revert\n        /* \"#utility.yul\":1963:2026   */\n    tag_402:\n        /* \"#utility.yul\":1910:2032   */\n      pop\n      jump\t// out\n        /* \"#utility.yul\":2038:2177   */\n    tag_353:\n        /* \"#utility.yul\":2084:2089   */\n      0x00\n        /* \"#utility.yul\":2122:2128   */\n      dup2\n        /* \"#utility.yul\":2109:2129   */\n      calldataload\n        /* \"#utility.yul\":2100:2129   */\n      swap1\n      pop\n        /* \"#utility.yul\":2138:2171   */\n      tag_404\n        /* \"#utility.yul\":2165:2170   */\n      dup2\n        /* \"#utility.yul\":2138:2171   */\n      tag_352\n      jump\t// in\n    tag_404:\n        /* \"#utility.yul\":2038:2177   */\n      swap3\n      swap2\n      pop\n      pop\n      jump\t// out\n        /* \"#utility.yul\":2183:2260   */\n    tag_354:\n        /* \"#utility.yul\":2220:2227   */\n      0x00\n        /* \"#utility.yul\":2249:2254   */\n      dup2\n        /* \"#utility.yul\":2238:2254   */\n      swap1\n      pop\n        /* \"#utility.yul\":2183:2260   */\n      swap2\n      swap1\n      pop\n      jump\t// out\n        /* \"#utility.yul\":2266:2388   */\n    tag_355:\n        /* \"#utility.yul\":2339:2363   */\n      tag_407\n        /* \"#utility.yul\":2357:2362   */\n      dup2\n        /* \"#utility.yul\":2339:2363   */\n      tag_354\n      jump\t// in\n    tag_407:\n        /* \"#utility.yul\":2332:2337   */\n      dup2\n        /* \"#utility.yul\":2329:2364   */\n      eq\n        /* \"#utility.yul\":2319:2382   */\n      tag_408\n      jumpi\n        /* \"#utility.yul\":2378:2379   */\n      0x00\n        /* \"#utility.yul\":2375:2376   */\n      dup1\n        /* \"#utility.yul\":2368:2380   */\n      revert\n        /* \"#utility.yul\":2319:2382   */\n    tag_408:\n        /* \"#utility.yul\":2266:2388   */\n      pop\n      jump\t// out\n        /* \"#utility.yul\":2394:2533   */\n    tag_356:\n        /* \"#utility.yul\":2440:2445   */\n      0x00\n        /* \"#utility.yul\":2478:2484   */\n      dup2\n        /* \"#utility.yul\":2465:2485   */\n      calldataload\n        /* \"#utility.yul\":2456:2485   */\n      swap1\n      pop\n        /* \"#utility.yul\":2494:2527   */\n      tag_410\n        /* \"#utility.yul\":2521:2526   */\n      dup2\n        /* \"#utility.yul\":2494:2527   */\n      tag_355\n      jump\t// in\n    tag_410:\n        /* \"#utility.yul\":2394:2533   */\n      swap3\n      swap2\n      pop\n      pop\n      jump\t// out\n        /* \"#utility.yul\":2539:3013   */\n    tag_35:\n        /* \"#utility.yul\":2607:2613   */\n      0x00\n        /* \"#utility.yul\":2615:2621   */\n      dup1\n        /* \"#utility.yul\":2664:2666   */\n      0x40\n        /* \"#utility.yul\":2652:2661   */\n      dup4\n        /* \"#utility.yul\":2643:2650   */\n      dup6\n        /* \"#utility.yul\":2639:2662   */\n      sub\n        /* \"#utility.yul\":2635:2667   */\n      slt\n        /* \"#utility.yul\":2632:2751   */\n      iszero\n      tag_412\n      jumpi\n        /* \"#utility.yul\":2670:2749   */\n      tag_413\n      tag_348\n      jump\t// in\n    tag_413:\n        /* \"#utility.yul\":2632:2751   */\n    tag_412:\n        /* \"#utility.yul\":2790:2791   */\n      0x00\n        /* \"#utility.yul\":2815:2868   */\n      tag_414\n        /* \"#utility.yul\":2860:2867   */\n      dup6\n        /* \"#utility.yul\":2851:2857   */\n      dup3\n        /* \"#utility.yul\":2840:2849   */\n      dup7\n        /* \"#utility.yul\":2836:2858   */\n      add\n        /* \"#utility.yul\":2815:2868   */\n      tag_353\n      jump\t// in\n    tag_414:\n        /* \"#utility.yul\":2805:2868   */\n      swap3\n      pop\n        /* \"#utility.yul\":2761:2878   */\n      pop\n        /* \"#utility.yul\":2917:2919   */\n      0x20\n        /* \"#utility.yul\":2943:2996   */\n      tag_415\n        /* \"#utility.yul\":2988:2995   */\n      dup6\n        /* \"#utility.yul\":2979:2985   */\n      dup3\n        /* \"#utility.yul\":2968:2977   */\n      dup7\n        /* \"#utility.yul\":2964:2986   */\n      add\n        /* \"#utility.yul\":2943:2996   */\n      tag_356\n      jump\t// in\n    tag_415:\n        /* \"#utility.yul\":2933:2996   */\n      swap2\n      pop\n        /* \"#utility.yul\":2888:3006   */\n      pop\n        /* \"#utility.yul\":2539:3013   */\n      swap3\n      pop\n      swap3\n      swap1\n      pop\n      jump\t// out\n        /* \"#utility.yul\":3019:3109   */\n    tag_357:\n        /* \"#utility.yul\":3053:3060   */\n      0x00\n        /* \"#utility.yul\":3096:3101   */\n      dup2\n        /* \"#utility.yul\":3089:3102   */\n      iszero\n        /* \"#utility.yul\":3082:3103   */\n      iszero\n        /* \"#utility.yul\":3071:3103   */\n      swap1\n      pop\n        /* \"#utility.yul\":3019:3109   */\n      swap2\n      swap1\n      pop\n      jump\t// out\n        /* \"#utility.yul\":3115:3224   */\n    tag_358:\n        /* \"#utility.yul\":3196:3217   */\n      tag_418\n        /* \"#utility.yul\":3211:3216   */\n      dup2\n        /* \"#utility.yul\":3196:3217   */\n      tag_357\n      jump\t// in\n    tag_418:\n        /* \"#utility.yul\":3191:3194   */\n      dup3\n        /* \"#utility.yul\":3184:3218   */\n      mstore\n        /* \"#utility.yul\":3115:3224   */\n      pop\n      pop\n      jump\t// out\n        /* \"#utility.yul\":3230:3440   */\n    tag_38:\n        /* \"#utility.yul\":3317:3321   */\n      0x00\n        /* \"#utility.yul\":3355:3357   */\n      0x20\n        /* \"#utility.yul\":3344:3353   */\n      dup3\n        /* \"#utility.yul\":3340:3358   */\n      add\n        /* \"#utility.yul\":3332:3358   */\n      swap1\n      pop\n        /* \"#utility.yul\":3368:3433   */\n      tag_420\n        /* \"#utility.yul\":3430:3431   */\n      0x00\n        /* \"#utility.yul\":3419:3428   */\n      dup4\n        /* \"#utility.yul\":3415:3432   */\n      add\n        /* \"#utility.yul\":3406:3412   */\n      dup5\n        /* \"#utility.yul\":3368:3433   */\n      tag_358\n      jump\t// in\n    tag_420:\n        /* \"#utility.yul\":3230:3440   */\n      swap3\n      swap2\n      pop\n      pop\n      jump\t// out\n        /* \"#utility.yul\":3446:3564   */\n    tag_359:\n        /* \"#utility.yul\":3533:3557   */\n      tag_422\n        /* \"#utility.yul\":3551:3556   */\n      dup2\n        /* \"#utility.yul\":3533:3557   */\n      tag_354\n      jump\t// in\n    tag_422:\n        /* \"#utility.yul\":3528:3531   */\n      dup3\n        /* \"#utility.yul\":3521:3558   */\n      mstore\n        /* \"#utility.yul\":3446:3564   */\n      pop\n      pop\n      jump\t// out\n        /* \"#utility.yul\":3570:3792   */\n    tag_42:\n        /* \"#utility.yul\":3663:3667   */\n      0x00\n        /* \"#utility.yul\":3701:3703   */\n      0x20\n        /* \"#utility.yul\":3690:3699   */\n      dup3\n        /* \"#utility.yul\":3686:3704   */\n      add\n        /* \"#utility.yul\":3678:3704   */\n      swap1\n      pop\n        /* \"#utility.yul\":3714:3785   */\n      tag_424\n        /* \"#utility.yul\":3782:3783   */\n      0x00\n        /* \"#utility.yul\":3771:3780   */\n      dup4\n        /* \"#utility.yul\":3767:3784   */\n      add\n        /* \"#utility.yul\":3758:3764   */\n      dup5\n        /* \"#utility.yul\":3714:3785   */\n      tag_359\n      jump\t// in\n    tag_424:\n        /* \"#utility.yul\":3570:3792   */\n      swap3\n      swap2\n      pop\n      pop\n      jump\t// out\n        /* \"#utility.yul\":3798:4417   */\n    tag_45:\n        /* \"#utility.yul\":3875:3881   */\n      0x00\n        /* \"#utility.yul\":3883:3889   */\n      dup1\n        /* \"#utility.yul\":3891:3897   */\n      0x00\n        /* \"#utility.yul\":3940:3942   */\n      0x60\n        /* \"#utility.yul\":3928:3937   */\n      dup5\n        /* \"#utility.yul\":3919:3926   */\n      dup7\n        /* \"#utility.yul\":3915:3938   */\n      sub\n        /* \"#utility.yul\":3911:3943   */\n      slt\n        /* \"#utility.yul\":3908:4027   */\n      iszero\n      tag_426\n      jumpi\n        /* \"#utility.yul\":3946:4025   */\n      tag_427\n      tag_348\n      jump\t// in\n    tag_427:\n        /* \"#utility.yul\":3908:4027   */\n    tag_426:\n        /* \"#utility.yul\":4066:4067   */\n      0x00\n        /* \"#utility.yul\":4091:4144   */\n      tag_428\n        /* \"#utility.yul\":4136:4143   */\n      dup7\n        /* \"#utility.yul\":4127:4133   */\n      dup3\n        /* \"#utility.yul\":4116:4125   */\n      dup8\n        /* \"#utility.yul\":4112:4134   */\n      add\n        /* \"#utility.yul\":4091:4144   */\n      tag_353\n      jump\t// in\n    tag_428:\n        /* \"#utility.yul\":4081:4144   */\n      swap4\n      pop\n        /* \"#utility.yul\":4037:4154   */\n      pop\n        /* \"#utility.yul\":4193:4195   */\n      0x20\n        /* \"#utility.yul\":4219:4272   */\n      tag_429\n        /* \"#utility.yul\":4264:4271   */\n      dup7\n        /* \"#utility.yul\":4255:4261   */\n      dup3\n        /* \"#utility.yul\":4244:4253   */\n      dup8\n        /* \"#utility.yul\":4240:4262   */\n      add\n        /* \"#utility.yul\":4219:4272   */\n      tag_353\n      jump\t// in\n    tag_429:\n        /* \"#utility.yul\":4209:4272   */\n      swap3\n      pop\n        /* \"#utility.yul\":4164:4282   */\n      pop\n        /* \"#utility.yul\":4321:4323   */\n      0x40\n        /* \"#utility.yul\":4347:4400   */\n      tag_430\n        /* \"#utility.yul\":4392:4399   */\n      dup7\n        /* \"#utility.yul\":4383:4389   */\n      dup3\n        /* \"#utility.yul\":4372:4381   */\n      dup8\n        /* \"#utility.yul\":4368:4390   */\n      add\n        /* \"#utility.yul\":4347:4400   */\n      tag_356\n      jump\t// in\n    tag_430:\n        /* \"#utility.yul\":4337:4400   */\n      swap2\n      pop\n        /* \"#utility.yul\":4292:4410   */\n      pop\n        /* \"#utility.yul\":3798:4417   */\n      swap3\n      pop\n      swap3\n      pop\n      swap3\n      jump\t// out\n        /* \"#utility.yul\":4423:4509   */\n    tag_360:\n        /* \"#utility.yul\":4458:4465   */\n      0x00\n        /* \"#utility.yul\":4498:4502   */\n      0xff\n        /* \"#utility.yul\":4491:4496   */\n      dup3\n        /* \"#utility.yul\":4487:4503   */\n      and\n        /* \"#utility.yul\":4476:4503   */\n      swap1\n      pop\n        /* \"#utility.yul\":4423:4509   */\n      swap2\n      swap1\n      pop\n      jump\t// out\n        /* \"#utility.yul\":4515:4627   */\n    tag_361:\n        /* \"#utility.yul\":4598:4620   */\n      tag_433\n        /* \"#utility.yul\":4614:4619   */\n      dup2\n        /* \"#utility.yul\":4598:4620   */\n      tag_360\n      jump\t// in\n    tag_433:\n        /* \"#utility.yul\":4593:4596   */\n      dup3\n        /* \"#utility.yul\":4586:4621   */\n      mstore\n        /* \"#utility.yul\":4515:4627   */\n      pop\n      pop\n      jump\t// out\n        /* \"#utility.yul\":4633:4847   */\n    tag_51:\n        /* \"#utility.yul\":4722:4726   */\n      0x00\n        /* \"#utility.yul\":4760:4762   */\n      0x20\n        /* \"#utility.yul\":4749:4758   */\n      dup3\n        /* \"#utility.yul\":4745:4763   */\n      add\n        /* \"#utility.yul\":4737:4763   */\n      swap1\n      pop\n        /* \"#utility.yul\":4773:4840   */\n      tag_435\n        /* \"#utility.yul\":4837:4838   */\n      0x00\n        /* \"#utility.yul\":4826:4835   */\n      dup4\n        /* \"#utility.yul\":4822:4839   */\n      add\n        /* \"#utility.yul\":4813:4819   */\n      dup5\n        /* \"#utility.yul\":4773:4840   */\n      tag_361\n      jump\t// in\n    tag_435:\n        /* \"#utility.yul\":4633:4847   */\n      swap3\n      swap2\n      pop\n      pop\n      jump\t// out\n        /* \"#utility.yul\":4853:5472   */\n    tag_54:\n        /* \"#utility.yul\":4930:4936   */\n      0x00\n        /* \"#utility.yul\":4938:4944   */\n      dup1\n        /* \"#utility.yul\":4946:4952   */\n      0x00\n        /* \"#utility.yul\":4995:4997   */\n      0x60\n        /* \"#utility.yul\":4983:4992   */\n      dup5\n        /* \"#utility.yul\":4974:4981   */\n      dup7\n        /* \"#utility.yul\":4970:4993   */\n      sub\n        /* \"#utility.yul\":4966:4998   */\n      slt\n        /* \"#utility.yul\":4963:5082   */\n      iszero\n      tag_437\n      jumpi\n        /* \"#utility.yul\":5001:5080   */\n      tag_438\n      tag_348\n      jump\t// in\n    tag_438:\n        /* \"#utility.yul\":4963:5082   */\n    tag_437:\n        /* \"#utility.yul\":5121:5122   */\n      0x00\n        /* \"#utility.yul\":5146:5199   */\n      tag_439\n        /* \"#utility.yul\":5191:5198   */\n      dup7\n        /* \"#utility.yul\":5182:5188   */\n      dup3\n        /* \"#utility.yul\":5171:5180   */\n      dup8\n        /* \"#utility.yul\":5167:5189   */\n      add\n        /* \"#utility.yul\":5146:5199   */\n      tag_353\n      jump\t// in\n    tag_439:\n        /* \"#utility.yul\":5136:5199   */\n      swap4\n      pop\n        /* \"#utility.yul\":5092:5209   */\n      pop\n        /* \"#utility.yul\":5248:5250   */\n      0x20\n        /* \"#utility.yul\":5274:5327   */\n      tag_440\n        /* \"#utility.yul\":5319:5326   */\n      dup7\n        /* \"#utility.yul\":5310:5316   */\n      dup3\n        /* \"#utility.yul\":5299:5308   */\n      dup8\n        /* \"#utility.yul\":5295:5317   */\n      add\n        /* \"#utility.yul\":5274:5327   */\n      tag_356\n      jump\t// in\n    tag_440:\n        /* \"#utility.yul\":5264:5327   */\n      swap3\n      pop\n        /* \"#utility.yul\":5219:5337   */\n      pop\n        /* \"#utility.yul\":5376:5378   */\n      0x40\n        /* \"#utility.yul\":5402:5455   */\n      tag_441\n        /* \"#utility.yul\":5447:5454   */\n      dup7\n        /* \"#utility.yul\":5438:5444   */\n      dup3\n        /* \"#utility.yul\":5427:5436   */\n      dup8\n        /* \"#utility.yul\":5423:5445   */\n      add\n        /* \"#utility.yul\":5402:5455   */\n      tag_356\n      jump\t// in\n    tag_441:\n        /* \"#utility.yul\":5392:5455   */\n      swap2\n      pop\n        /* \"#utility.yul\":5347:5465   */\n      pop\n        /* \"#utility.yul\":4853:5472   */\n      swap3\n      pop\n      swap3\n      pop\n      swap3\n      jump\t// out\n        /* \"#utility.yul\":5478:5807   */\n    tag_60:\n        /* \"#utility.yul\":5537:5543   */\n      0x00\n        /* \"#utility.yul\":5586:5588   */\n      0x20\n        /* \"#utility.yul\":5574:5583   */\n      dup3\n        /* \"#utility.yul\":5565:5572   */\n      dup5\n        /* \"#utility.yul\":5561:5584   */\n      sub\n        /* \"#utility.yul\":5557:5589   */\n      slt\n        /* \"#utility.yul\":5554:5673   */\n      iszero\n      tag_443\n      jumpi\n        /* \"#utility.yul\":5592:5671   */\n      tag_444\n      tag_348\n      jump\t// in\n    tag_444:\n        /* \"#utility.yul\":5554:5673   */\n    tag_443:\n        /* \"#utility.yul\":5712:5713   */\n      0x00\n        /* \"#utility.yul\":5737:5790   */\n      tag_445\n        /* \"#utility.yul\":5782:5789   */\n      dup5\n        /* \"#utility.yul\":5773:5779   */\n      dup3\n        /* \"#utility.yul\":5762:5771   */\n      dup6\n        /* \"#utility.yul\":5758:5780   */\n      add\n        /* \"#utility.yul\":5737:5790   */\n      tag_356\n      jump\t// in\n    tag_445:\n        /* \"#utility.yul\":5727:5790   */\n      swap2\n      pop\n        /* \"#utility.yul\":5683:5800   */\n      pop\n        /* \"#utility.yul\":5478:5807   */\n      swap3\n      swap2\n      pop\n      pop\n      jump\t// out\n        /* \"#utility.yul\":5813:6142   */\n    tag_64:\n        /* \"#utility.yul\":5872:5878   */\n      0x00\n        /* \"#utility.yul\":5921:5923   */\n      0x20\n        /* \"#utility.yul\":5909:5918   */\n      dup3\n        /* \"#utility.yul\":5900:5907   */\n      dup5\n        /* \"#utility.yul\":5896:5919   */\n      sub\n        /* \"#utility.yul\":5892:5924   */\n      slt\n        /* \"#utility.yul\":5889:6008   */\n      iszero\n      tag_447\n      jumpi\n        /* \"#utility.yul\":5927:6006   */\n      tag_448\n      tag_348\n      jump\t// in\n    tag_448:\n        /* \"#utility.yul\":5889:6008   */\n    tag_447:\n        /* \"#utility.yul\":6047:6048   */\n      0x00\n        /* \"#utility.yul\":6072:6125   */\n      tag_449\n        /* \"#utility.yul\":6117:6124   */\n      dup5\n        /* \"#utility.yul\":6108:6114   */\n      dup3\n        /* \"#utility.yul\":6097:6106   */\n      dup6\n        /* \"#utility.yul\":6093:6115   */\n      add\n        /* \"#utility.yul\":6072:6125   */\n      tag_353\n      jump\t// in\n    tag_449:\n        /* \"#utility.yul\":6062:6125   */\n      swap2\n      pop\n        /* \"#utility.yul\":6018:6135   */\n      pop\n        /* \"#utility.yul\":5813:6142   */\n      swap3\n      swap2\n      pop\n      pop\n      jump\t// out\n        /* \"#utility.yul\":6148:6266   */\n    tag_362:\n        /* \"#utility.yul\":6235:6259   */\n      tag_451\n        /* \"#utility.yul\":6253:6258   */\n      dup2\n        /* \"#utility.yul\":6235:6259   */\n      tag_351\n      jump\t// in\n    tag_451:\n        /* \"#utility.yul\":6230:6233   */\n      dup3\n        /* \"#utility.yul\":6223:6260   */\n      mstore\n        /* \"#utility.yul\":6148:6266   */\n      pop\n      pop\n      jump\t// out\n        /* \"#utility.yul\":6272:6494   */\n    tag_89:\n        /* \"#utility.yul\":6365:6369   */\n      0x00\n        /* \"#utility.yul\":6403:6405   */\n      0x20\n        /* \"#utility.yul\":6392:6401   */\n      dup3\n        /* \"#utility.yul\":6388:6406   */\n      add\n        /* \"#utility.yul\":6380:6406   */\n      swap1\n      pop\n        /* \"#utility.yul\":6416:6487   */\n      tag_453\n        /* \"#utility.yul\":6484:6485   */\n      0x00\n        /* \"#utility.yul\":6473:6482   */\n      dup4\n        /* \"#utility.yul\":6469:6486   */\n      add\n        /* \"#utility.yul\":6460:6466   */\n      dup5\n        /* \"#utility.yul\":6416:6487   */\n      tag_362\n      jump\t// in\n    tag_453:\n        /* \"#utility.yul\":6272:6494   */\n      swap3\n      swap2\n      pop\n      pop\n      jump\t// out\n        /* \"#utility.yul\":6500:6974   */\n    tag_106:\n        /* \"#utility.yul\":6568:6574   */\n      0x00\n        /* \"#utility.yul\":6576:6582   */\n      dup1\n        /* \"#utility.yul\":6625:6627   */\n      0x40\n        /* \"#utility.yul\":6613:6622   */\n      dup4\n        /* \"#utility.yul\":6604:6611   */\n      dup6\n        /* \"#utility.yul\":6600:6623   */\n      sub\n        /* \"#utility.yul\":6596:6628   */\n      slt\n        /* \"#utility.yul\":6593:6712   */\n      iszero\n      tag_455\n      jumpi\n        /* \"#utility.yul\":6631:6710   */\n      tag_456\n      tag_348\n      jump\t// in\n    tag_456:\n        /* \"#utility.yul\":6593:6712   */\n    tag_455:\n        /* \"#utility.yul\":6751:6752   */\n      0x00\n        /* \"#utility.yul\":6776:6829   */\n      tag_457\n        /* \"#utility.yul\":6821:6828   */\n      dup6\n        /* \"#utility.yul\":6812:6818   */\n      dup3\n        /* \"#utility.yul\":6801:6810   */\n      dup7\n        /* \"#utility.yul\":6797:6819   */\n      add\n        /* \"#utility.yul\":6776:6829   */\n      tag_353\n      jump\t// in\n    tag_457:\n        /* \"#utility.yul\":6766:6829   */\n      swap3\n      pop\n        /* \"#utility.yul\":6722:6839   */\n      pop\n        /* \"#utility.yul\":6878:6880   */\n      0x20\n        /* \"#utility.yul\":6904:6957   */\n      tag_458\n        /* \"#utility.yul\":6949:6956   */\n      dup6\n        /* \"#utility.yul\":6940:6946   */\n      dup3\n        /* \"#utility.yul\":6929:6938   */\n      dup7\n        /* \"#utility.yul\":6925:6947   */\n      add\n        /* \"#utility.yul\":6904:6957   */\n      tag_353\n      jump\t// in\n    tag_458:\n        /* \"#utility.yul\":6894:6957   */\n      swap2\n      pop\n        /* \"#utility.yul\":6849:6967   */\n      pop\n        /* \"#utility.yul\":6500:6974   */\n      swap3\n      pop\n      swap3\n      swap1\n      pop\n      jump\t// out\n        /* \"#utility.yul\":6980:7160   */\n    tag_363:\n        /* \"#utility.yul\":7028:7105   */\n      0x4e487b7100000000000000000000000000000000000000000000000000000000\n        /* \"#utility.yul\":7025:7026   */\n      0x00\n        /* \"#utility.yul\":7018:7106   */\n      mstore\n        /* \"#utility.yul\":7125:7129   */\n      0x22\n        /* \"#utility.yul\":7122:7123   */\n      0x04\n        /* \"#utility.yul\":7115:7130   */\n      mstore\n        /* \"#utility.yul\":7149:7153   */\n      0x24\n        /* \"#utility.yul\":7146:7147   */\n      0x00\n        /* \"#utility.yul\":7139:7154   */\n      revert\n        /* \"#utility.yul\":7166:7486   */\n    tag_114:\n        /* \"#utility.yul\":7210:7216   */\n      0x00\n        /* \"#utility.yul\":7247:7248   */\n      0x02\n        /* \"#utility.yul\":7241:7245   */\n      dup3\n        /* \"#utility.yul\":7237:7249   */\n      div\n        /* \"#utility.yul\":7227:7249   */\n      swap1\n      pop\n        /* \"#utility.yul\":7294:7295   */\n      0x01\n        /* \"#utility.yul\":7288:7292   */\n      dup3\n        /* \"#utility.yul\":7284:7296   */\n      and\n        /* \"#utility.yul\":7315:7333   */\n      dup1\n        /* \"#utility.yul\":7305:7386   */\n      tag_461\n      jumpi\n        /* \"#utility.yul\":7371:7375   */\n      0x7f\n        /* \"#utility.yul\":7363:7369   */\n      dup3\n        /* \"#utility.yul\":7359:7376   */\n      and\n        /* \"#utility.yul\":7349:7376   */\n      swap2\n      pop\n        /* \"#utility.yul\":7305:7386   */\n    tag_461:\n        /* \"#utility.yul\":7433:7435   */\n      0x20\n        /* \"#utility.yul\":7425:7431   */\n      dup3\n        /* \"#utility.yul\":7422:7436   */\n      lt\n        /* \"#utility.yul\":7402:7420   */\n      dup2\n        /* \"#utility.yul\":7399:7437   */\n      sub\n        /* \"#utility.yul\":7396:7480   */\n      tag_462\n      jumpi\n        /* \"#utility.yul\":7452:7470   */\n      tag_463\n      tag_363\n      jump\t// in\n    tag_463:\n        /* \"#utility.yul\":7396:7480   */\n    tag_462:\n        /* \"#utility.yul\":7217:7486   */\n      pop\n        /* \"#utility.yul\":7166:7486   */\n      swap2\n      swap1\n      pop\n      jump\t// out\n        /* \"#utility.yul\":7492:7672   */\n    tag_364:\n        /* \"#utility.yul\":7540:7617   */\n      0x4e487b7100000000000000000000000000000000000000000000000000000000\n        /* \"#utility.yul\":7537:7538   */\n      0x00\n        /* \"#utility.yul\":7530:7618   */\n      mstore\n        /* \"#utility.yul\":7637:7641   */\n      0x11\n        /* \"#utility.yul\":7634:7635   */\n      0x04\n        /* \"#utility.yul\":7627:7642   */\n      mstore\n        /* \"#utility.yul\":7661:7665   */\n      0x24\n        /* \"#utility.yul\":7658:7659   */\n      0x00\n        /* \"#utility.yul\":7651:7666   */\n      revert\n        /* \"#utility.yul\":7678:7869   */\n    tag_139:\n        /* \"#utility.yul\":7718:7721   */\n      0x00\n        /* \"#utility.yul\":7737:7757   */\n      tag_466\n        /* \"#utility.yul\":7755:7756   */\n      dup3\n        /* \"#utility.yul\":7737:7757   */\n      tag_354\n      jump\t// in\n    tag_466:\n        /* \"#utility.yul\":7732:7757   */\n      swap2\n      pop\n        /* \"#utility.yul\":7771:7791   */\n      tag_467\n        /* \"#utility.yul\":7789:7790   */\n      dup4\n        /* \"#utility.yul\":7771:7791   */\n      tag_354\n      jump\t// in\n    tag_467:\n        /* \"#utility.yul\":7766:7791   */\n      swap3\n      pop\n        /* \"#utility.yul\":7814:7815   */\n      dup3\n        /* \"#utility.yul\":7811:7812   */\n      dup3\n        /* \"#utility.yul\":7807:7816   */\n      add\n        /* \"#utility.yul\":7800:7816   */\n      swap1\n      pop\n        /* \"#utility.yul\":7835:7838   */\n      dup1\n        /* \"#utility.yul\":7832:7833   */\n      dup3\n        /* \"#utility.yul\":7829:7839   */\n      gt\n        /* \"#utility.yul\":7826:7862   */\n      iszero\n      tag_468\n      jumpi\n        /* \"#utility.yul\":7842:7860   */\n      tag_469\n      tag_364\n      jump\t// in\n    tag_469:\n        /* \"#utility.yul\":7826:7862   */\n    tag_468:\n        /* \"#utility.yul\":7678:7869   */\n      swap3\n      swap2\n      pop\n      pop\n      jump\t// out\n        /* \"#utility.yul\":7875:8046   */\n    tag_365:\n        /* \"#utility.yul\":8015:8038   */\n      0x4163636f756e74206973206e6f742066726f7a656e0000000000000000000000\n        /* \"#utility.yul\":8011:8012   */\n      0x00\n        /* \"#utility.yul\":8003:8009   */\n      dup3\n        /* \"#utility.yul\":7999:8013   */\n      add\n        /* \"#utility.yul\":7992:8039   */\n      mstore\n        /* \"#utility.yul\":7875:8046   */\n      pop\n      jump\t// out\n        /* \"#utility.yul\":8052:8418   */\n    tag_366:\n        /* \"#utility.yul\":8194:8197   */\n      0x00\n        /* \"#utility.yul\":8215:8282   */\n      tag_472\n        /* \"#utility.yul\":8279:8281   */\n      0x15\n        /* \"#utility.yul\":8274:8277   */\n      dup4\n        /* \"#utility.yul\":8215:8282   */\n      tag_343\n      jump\t// in\n    tag_472:\n        /* \"#utility.yul\":8208:8282   */\n      swap2\n      pop\n        /* \"#utility.yul\":8291:8384   */\n      tag_473\n        /* \"#utility.yul\":8380:8383   */\n      dup3\n        /* \"#utility.yul\":8291:8384   */\n      tag_365\n      jump\t// in\n    tag_473:\n        /* \"#utility.yul\":8409:8411   */\n      0x20\n        /* \"#utility.yul\":8404:8407   */\n      dup3\n        /* \"#utility.yul\":8400:8412   */\n      add\n        /* \"#utility.yul\":8393:8412   */\n      swap1\n      pop\n        /* \"#utility.yul\":8052:8418   */\n      swap2\n      swap1\n      pop\n      jump\t// out\n        /* \"#utility.yul\":8424:8843   */\n    tag_154:\n        /* \"#utility.yul\":8590:8594   */\n      0x00\n        /* \"#utility.yul\":8628:8630   */\n      0x20\n        /* \"#utility.yul\":8617:8626   */\n      dup3\n        /* \"#utility.yul\":8613:8631   */\n      add\n        /* \"#utility.yul\":8605:8631   */\n      swap1\n      pop\n        /* \"#utility.yul\":8677:8686   */\n      dup2\n        /* \"#utility.yul\":8671:8675   */\n      dup2\n        /* \"#utility.yul\":8667:8687   */\n      sub\n        /* \"#utility.yul\":8663:8664   */\n      0x00\n        /* \"#utility.yul\":8652:8661   */\n      dup4\n        /* \"#utility.yul\":8648:8665   */\n      add\n        /* \"#utility.yul\":8641:8688   */\n      mstore\n        /* \"#utility.yul\":8705:8836   */\n      tag_475\n        /* \"#utility.yul\":8831:8835   */\n      dup2\n        /* \"#utility.yul\":8705:8836   */\n      tag_366\n      jump\t// in\n    tag_475:\n        /* \"#utility.yul\":8697:8836   */\n      swap1\n      pop\n        /* \"#utility.yul\":8424:8843   */\n      swap2\n      swap1\n      pop\n      jump\t// out\n        /* \"#utility.yul\":8849:9019   */\n    tag_367:\n        /* \"#utility.yul\":8989:9011   */\n      0x496e73756666696369656e742062616c616e6365000000000000000000000000\n        /* \"#utility.yul\":8985:8986   */\n      0x00\n        /* \"#utility.yul\":8977:8983   */\n      dup3\n        /* \"#utility.yul\":8973:8987   */\n      add\n        /* \"#utility.yul\":8966:9012   */\n      mstore\n        /* \"#utility.yul\":8849:9019   */\n      pop\n      jump\t// out\n        /* \"#utility.yul\":9025:9391   */\n    tag_368:\n        /* \"#utility.yul\":9167:9170   */\n      0x00\n        /* \"#utility.yul\":9188:9255   */\n      tag_478\n        /* \"#utility.yul\":9252:9254   */\n      0x14\n        /* \"#utility.yul\":9247:9250   */\n      dup4\n        /* \"#utility.yul\":9188:9255   */\n      tag_343\n      jump\t// in\n    tag_478:\n        /* \"#utility.yul\":9181:9255   */\n      swap2\n      pop\n        /* \"#utility.yul\":9264:9357   */\n      tag_479\n        /* \"#utility.yul\":9353:9356   */\n      dup3\n        /* \"#utility.yul\":9264:9357   */\n      tag_367\n      jump\t// in\n    tag_479:\n        /* \"#utility.yul\":9382:9384   */\n      0x20\n        /* \"#utility.yul\":9377:9380   */\n      dup3\n        /* \"#utility.yul\":9373:9385   */\n      add\n        /* \"#utility.yul\":9366:9385   */\n      swap1\n      pop\n        /* \"#utility.yul\":9025:9391   */\n      swap2\n      swap1\n      pop\n      jump\t// out\n        /* \"#utility.yul\":9397:9816   */\n    tag_162:\n        /* \"#utility.yul\":9563:9567   */\n      0x00\n        /* \"#utility.yul\":9601:9603   */\n      0x20\n        /* \"#utility.yul\":9590:9599   */\n      dup3\n        /* \"#utility.yul\":9586:9604   */\n      add\n        /* \"#utility.yul\":9578:9604   */\n      swap1\n      pop\n        /* \"#utility.yul\":9650:9659   */\n      dup2\n        /* \"#utility.yul\":9644:9648   */\n      dup2\n        /* \"#utility.yul\":9640:9660   */\n      sub\n        /* \"#utility.yul\":9636:9637   */\n      0x00\n        /* \"#utility.yul\":9625:9634   */\n      dup4\n        /* \"#utility.yul\":9621:9638   */\n      add\n        /* \"#utility.yul\":9614:9661   */\n      mstore\n        /* \"#utility.yul\":9678:9809   */\n      tag_481\n        /* \"#utility.yul\":9804:9808   */\n      dup2\n        /* \"#utility.yul\":9678:9809   */\n      tag_368\n      jump\t// in\n    tag_481:\n        /* \"#utility.yul\":9670:9809   */\n      swap1\n      pop\n        /* \"#utility.yul\":9397:9816   */\n      swap2\n      swap1\n      pop\n      jump\t// out\n        /* \"#utility.yul\":9822:9997   */\n    tag_369:\n        /* \"#utility.yul\":9962:9989   */\n      0x4163636f756e7420697320616c72656164792066726f7a656e00000000000000\n        /* \"#utility.yul\":9958:9959   */\n      0x00\n        /* \"#utility.yul\":9950:9956   */\n      dup3\n        /* \"#utility.yul\":9946:9960   */\n      add\n        /* \"#utility.yul\":9939:9990   */\n      mstore\n        /* \"#utility.yul\":9822:9997   */\n      pop\n      jump\t// out\n        /* \"#utility.yul\":10003:10369   */\n    tag_370:\n        /* \"#utility.yul\":10145:10148   */\n      0x00\n        /* \"#utility.yul\":10166:10233   */\n      tag_484\n        /* \"#utility.yul\":10230:10232   */\n      0x19\n        /* \"#utility.yul\":10225:10228   */\n      dup4\n        /* \"#utility.yul\":10166:10233   */\n      tag_343\n      jump\t// in\n    tag_484:\n        /* \"#utility.yul\":10159:10233   */\n      swap2\n      pop\n        /* \"#utility.yul\":10242:10335   */\n      tag_485\n        /* \"#utility.yul\":10331:10334   */\n      dup3\n        /* \"#utility.yul\":10242:10335   */\n      tag_369\n      jump\t// in\n    tag_485:\n        /* \"#utility.yul\":10360:10362   */\n      0x20\n        /* \"#utility.yul\":10355:10358   */\n      dup3\n        /* \"#utility.yul\":10351:10363   */\n      add\n        /* \"#utility.yul\":10344:10363   */\n      swap1\n      pop\n        /* \"#utility.yul\":10003:10369   */\n      swap2\n      swap1\n      pop\n      jump\t// out\n        /* \"#utility.yul\":10375:10794   */\n    tag_184:\n        /* \"#utility.yul\":10541:10545   */\n      0x00\n        /* \"#utility.yul\":10579:10581   */\n      0x20\n        /* \"#utility.yul\":10568:10577   */\n      dup3\n        /* \"#utility.yul\":10564:10582   */\n      add\n        /* \"#utility.yul\":10556:10582   */\n      swap1\n      pop\n        /* \"#utility.yul\":10628:10637   */\n      dup2\n        /* \"#utility.yul\":10622:10626   */\n      dup2\n        /* \"#utility.yul\":10618:10638   */\n      sub\n        /* \"#utility.yul\":10614:10615   */\n      0x00\n        /* \"#utility.yul\":10603:10612   */\n      dup4\n        /* \"#utility.yul\":10599:10616   */\n      add\n        /* \"#utility.yul\":10592:10639   */\n      mstore\n        /* \"#utility.yul\":10656:10787   */\n      tag_487\n        /* \"#utility.yul\":10782:10786   */\n      dup2\n        /* \"#utility.yul\":10656:10787   */\n      tag_370\n      jump\t// in\n    tag_487:\n        /* \"#utility.yul\":10648:10787   */\n      swap1\n      pop\n        /* \"#utility.yul\":10375:10794   */\n      swap2\n      swap1\n      pop\n      jump\t// out\n        /* \"#utility.yul\":10800:10980   */\n    tag_192:\n        /* \"#utility.yul\":10848:10925   */\n      0x4e487b7100000000000000000000000000000000000000000000000000000000\n        /* \"#utility.yul\":10845:10846   */\n      0x00\n        /* \"#utility.yul\":10838:10926   */\n      mstore\n        /* \"#utility.yul\":10945:10949   */\n      0x32\n        /* \"#utility.yul\":10942:10943   */\n      0x04\n        /* \"#utility.yul\":10935:10950   */\n      mstore\n        /* \"#utility.yul\":10969:10973   */\n      0x24\n        /* \"#utility.yul\":10966:10967   */\n      0x00\n        /* \"#utility.yul\":10959:10974   */\n      revert\n        /* \"#utility.yul\":10986:11180   */\n    tag_221:\n        /* \"#utility.yul\":11026:11030   */\n      0x00\n        /* \"#utility.yul\":11046:11066   */\n      tag_490\n        /* \"#utility.yul\":11064:11065   */\n      dup3\n        /* \"#utility.yul\":11046:11066   */\n      tag_354\n      jump\t// in\n    tag_490:\n        /* \"#utility.yul\":11041:11066   */\n      swap2\n      pop\n        /* \"#utility.yul\":11080:11100   */\n      tag_491\n        /* \"#utility.yul\":11098:11099   */\n      dup4\n        /* \"#utility.yul\":11080:11100   */\n      tag_354\n      jump\t// in\n    tag_491:\n        /* \"#utility.yul\":11075:11100   */\n      swap3\n      pop\n        /* \"#utility.yul\":11124:11125   */\n      dup3\n        /* \"#utility.yul\":11121:11122   */\n      dup3\n        /* \"#utility.yul\":11117:11126   */\n      sub\n        /* \"#utility.yul\":11109:11126   */\n      swap1\n      pop\n        /* \"#utility.yul\":11148:11149   */\n      dup2\n        /* \"#utility.yul\":11142:11146   */\n      dup2\n        /* \"#utility.yul\":11139:11150   */\n      gt\n        /* \"#utility.yul\":11136:11173   */\n      iszero\n      tag_492\n      jumpi\n        /* \"#utility.yul\":11153:11171   */\n      tag_493\n      tag_364\n      jump\t// in\n    tag_493:\n        /* \"#utility.yul\":11136:11173   */\n    tag_492:\n        /* \"#utility.yul\":10986:11180   */\n      swap3\n      swap2\n      pop\n      pop\n      jump\t// out\n        /* \"#utility.yul\":11186:11366   */\n    tag_230:\n        /* \"#utility.yul\":11234:11311   */\n      0x4e487b7100000000000000000000000000000000000000000000000000000000\n        /* \"#utility.yul\":11231:11232   */\n      0x00\n        /* \"#utility.yul\":11224:11312   */\n      mstore\n        /* \"#utility.yul\":11331:11335   */\n      0x31\n        /* \"#utility.yul\":11328:11329   */\n      0x04\n        /* \"#utility.yul\":11321:11336   */\n      mstore\n        /* \"#utility.yul\":11355:11359   */\n      0x24\n        /* \"#utility.yul\":11352:11353   */\n      0x00\n        /* \"#utility.yul\":11345:11360   */\n      revert\n        /* \"#utility.yul\":11372:11543   */\n    tag_233:\n        /* \"#utility.yul\":11411:11414   */\n      0x00\n        /* \"#utility.yul\":11434:11458   */\n      tag_496\n        /* \"#utility.yul\":11452:11457   */\n      dup3\n        /* \"#utility.yul\":11434:11458   */\n      tag_354\n      jump\t// in\n    tag_496:\n        /* \"#utility.yul\":11425:11458   */\n      swap2\n      pop\n        /* \"#utility.yul\":11480:11484   */\n      0x00\n        /* \"#utility.yul\":11473:11478   */\n      dup3\n        /* \"#utility.yul\":11470:11485   */\n      sub\n        /* \"#utility.yul\":11467:11508   */\n      tag_497\n      jumpi\n        /* \"#utility.yul\":11488:11506   */\n      tag_498\n      tag_364\n      jump\t// in\n    tag_498:\n        /* \"#utility.yul\":11467:11508   */\n    tag_497:\n        /* \"#utility.yul\":11535:11536   */\n      0x01\n        /* \"#utility.yul\":11528:11533   */\n      dup3\n        /* \"#utility.yul\":11524:11537   */\n      sub\n        /* \"#utility.yul\":11517:11537   */\n      swap1\n      pop\n        /* \"#utility.yul\":11372:11543   */\n      swap2\n      swap1\n      pop\n      jump\t// out\n        /* \"#utility.yul\":11549:11782   */\n    tag_235:\n        /* \"#utility.yul\":11588:11591   */\n      0x00\n        /* \"#utility.yul\":11611:11635   */\n      tag_500\n        /* \"#utility.yul\":11629:11634   */\n      dup3\n        /* \"#utility.yul\":11611:11635   */\n      tag_354\n      jump\t// in\n    tag_500:\n        /* \"#utility.yul\":11602:11635   */\n      swap2\n      pop\n        /* \"#utility.yul\":11657:11723   */\n      0xffffffffffffffffffffffffffffffffffffffffffffffffffffffffffffffff\n        /* \"#utility.yul\":11650:11655   */\n      dup3\n        /* \"#utility.yul\":11647:11724   */\n      sub\n        /* \"#utility.yul\":11644:11747   */\n      tag_501\n      jumpi\n        /* \"#utility.yul\":11727:11745   */\n      tag_502\n      tag_364\n      jump\t// in\n    tag_502:\n        /* \"#utility.yul\":11644:11747   */\n    tag_501:\n        /* \"#utility.yul\":11774:11775   */\n      0x01\n        /* \"#utility.yul\":11767:11772   */\n      dup3\n        /* \"#utility.yul\":11763:11776   */\n      add\n        /* \"#utility.yul\":11756:11776   */\n      swap1\n      pop\n        /* \"#utility.yul\":11549:11782   */\n      swap2\n      swap1\n      pop\n      jump\t// out\n        /* \"#utility.yul\":11788:12230   */\n    tag_254:\n        /* \"#utility.yul\":11937:11941   */\n      0x00\n        /* \"#utility.yul\":11975:11977   */\n      0x60\n        /* \"#utility.yul\":11964:11973   */\n      dup3\n        /* \"#utility.yul\":11960:11978   */\n      add\n        /* \"#utility.yul\":11952:11978   */\n      swap1\n      pop\n        /* \"#utility.yul\":11988:12059   */\n      tag_504\n        /* \"#utility.yul\":12056:12057   */\n      0x00\n        /* \"#utility.yul\":12045:12054   */\n      dup4\n        /* \"#utility.yul\":12041:12058   */\n      add\n        /* \"#utility.yul\":12032:12038   */\n      dup7\n        /* \"#utility.yul\":11988:12059   */\n      tag_362\n      jump\t// in\n    tag_504:\n        /* \"#utility.yul\":12069:12141   */\n      tag_505\n        /* \"#utility.yul\":12137:12139   */\n      0x20\n        /* \"#utility.yul\":12126:12135   */\n      dup4\n        /* \"#utility.yul\":12122:12140   */\n      add\n        /* \"#utility.yul\":12113:12119   */\n      dup6\n        /* \"#utility.yul\":12069:12141   */\n      tag_359\n      jump\t// in\n    tag_505:\n        /* \"#utility.yul\":12151:12223   */\n      tag_506\n        /* \"#utility.yul\":12219:12221   */\n      0x40\n        /* \"#utility.yul\":12208:12217   */\n      dup4\n        /* \"#utility.yul\":12204:12222   */\n      add\n        /* \"#utility.yul\":12195:12201   */\n      dup5\n        /* \"#utility.yul\":12151:12223   */\n      tag_359\n      jump\t// in\n    tag_506:\n        /* \"#utility.yul\":11788:12230   */\n      swap5\n      swap4\n      pop\n      pop\n      pop\n      pop\n      jump\t// out\n        /* \"#utility.yul\":12236:12413   */\n    tag_371:\n        /* \"#utility.yul\":12376:12405   */\n      0x546f6b656e207472616e73666572207768696c65207061757365640000000000\n        /* \"#utility.yul\":12372:12373   */\n      0x00\n        /* \"#utility.yul\":12364:12370   */\n      dup3\n        /* \"#utility.yul\":12360:12374   */\n      add\n        /* \"#utility.yul\":12353:12406   */\n      mstore\n        /* \"#utility.yul\":12236:12413   */\n      pop\n      jump\t// out\n        /* \"#utility.yul\":12419:12785   */\n    tag_372:\n        /* \"#utility.yul\":12561:12564   */\n      0x00\n        /* \"#utility.yul\":12582:12649   */\n      tag_509\n        /* \"#utility.yul\":12646:12648   */\n      0x1b\n        /* \"#utility.yul\":12641:12644   */\n      dup4\n        /* \"#utility.yul\":12582:12649   */\n      tag_343\n      jump\t// in\n    tag_509:\n        /* \"#utility.yul\":12575:12649   */\n      swap2\n      pop\n        /* \"#utility.yul\":12658:12751   */\n      tag_510\n        /* \"#utility.yul\":12747:12750   */\n      dup3\n        /* \"#utility.yul\":12658:12751   */\n      tag_371\n      jump\t// in\n    tag_510:\n        /* \"#utility.yul\":12776:12778   */\n      0x20\n        /* \"#utility.yul\":12771:12774   */\n      dup3\n        /* \"#utility.yul\":12767:12779   */\n      add\n        /* \"#utility.yul\":12760:12779   */\n      swap1\n      pop\n        /* \"#utility.yul\":12419:12785   */\n      swap2\n      swap1\n      pop\n      jump\t// out\n        /* \"#utility.yul\":12791:13210   */\n    tag_301:\n        /* \"#utility.yul\":12957:12961   */\n      0x00\n        /* \"#utility.yul\":12995:12997   */\n      0x20\n        /* \"#utility.yul\":12984:12993   */\n      dup3\n        /* \"#utility.yul\":12980:12998   */\n      add\n        /* \"#utility.yul\":12972:12998   */\n      swap1\n      pop\n        /* \"#utility.yul\":13044:13053   */\n      dup2\n        /* \"#utility.yul\":13038:13042   */\n      dup2\n        /* \"#utility.yul\":13034:13054   */\n      sub\n        /* \"#utility.yul\":13030:13031   */\n      0x00\n        /* \"#utility.yul\":13019:13028   */\n      dup4\n        /* \"#utility.yul\":13015:13032   */\n      add\n        /* \"#utility.yul\":13008:13055   */\n      mstore\n        /* \"#utility.yul\":13072:13203   */\n      tag_512\n        /* \"#utility.yul\":13198:13202   */\n      dup2\n        /* \"#utility.yul\":13072:13203   */\n      tag_372\n      jump\t// in\n    tag_512:\n        /* \"#utility.yul\":13064:13203   */\n      swap1\n      pop\n        /* \"#utility.yul\":12791:13210   */\n      swap2\n      swap1\n      pop\n      jump\t// out\n        /* \"#utility.yul\":13216:13458   */\n    tag_373:\n        /* \"#utility.yul\":13356:13390   */\n      0x45524332304c6f636b61626c653a207472616e7366657220616d6f756e742065\n        /* \"#utility.yul\":13352:13353   */\n      0x00\n        /* \"#utility.yul\":13344:13350   */\n      dup3\n        /* \"#utility.yul\":13340:13354   */\n      add\n        /* \"#utility.yul\":13333:13391   */\n      mstore\n        /* \"#utility.yul\":13425:13450   */\n      0x78636565647320756e6c6f636b65642062616c616e6365000000000000000000\n        /* \"#utility.yul\":13420:13422   */\n      0x20\n        /* \"#utility.yul\":13412:13418   */\n      dup3\n        /* \"#utility.yul\":13408:13423   */\n      add\n        /* \"#utility.yul\":13401:13451   */\n      mstore\n        /* \"#utility.yul\":13216:13458   */\n      pop\n      jump\t// out\n        /* \"#utility.yul\":13464:13830   */\n    tag_374:\n        /* \"#utility.yul\":13606:13609   */\n      0x00\n        /* \"#utility.yul\":13627:13694   */\n      tag_515\n        /* \"#utility.yul\":13691:13693   */\n      0x37\n        /* \"#utility.yul\":13686:13689   */\n      dup4\n        /* \"#utility.yul\":13627:13694   */\n      tag_343\n      jump\t// in\n    tag_515:\n        /* \"#utility.yul\":13620:13694   */\n      swap2\n      pop\n        /* \"#utility.yul\":13703:13796   */\n      tag_516\n        /* \"#utility.yul\":13792:13795   */\n      dup3\n        /* \"#utility.yul\":13703:13796   */\n      tag_373\n      jump\t// in\n    tag_516:\n        /* \"#utility.yul\":13821:13823   */\n      0x40\n        /* \"#utility.yul\":13816:13819   */\n      dup3\n        /* \"#utility.yul\":13812:13824   */\n      add\n        /* \"#utility.yul\":13805:13824   */\n      swap1\n      pop\n        /* \"#utility.yul\":13464:13830   */\n      swap2\n      swap1\n      pop\n      jump\t// out\n        /* \"#utility.yul\":13836:14255   */\n    tag_306:\n        /* \"#utility.yul\":14002:14006   */\n      0x00\n        /* \"#utility.yul\":14040:14042   */\n      0x20\n        /* \"#utility.yul\":14029:14038   */\n      dup3\n        /* \"#utility.yul\":14025:14043   */\n      add\n        /* \"#utility.yul\":14017:14043   */\n      swap1\n      pop\n        /* \"#utility.yul\":14089:14098   */\n      dup2\n        /* \"#utility.yul\":14083:14087   */\n      dup2\n        /* \"#utility.yul\":14079:14099   */\n      sub\n        /* \"#utility.yul\":14075:14076   */\n      0x00\n        /* \"#utility.yul\":14064:14073   */\n      dup4\n        /* \"#utility.yul\":14060:14077   */\n      add\n        /* \"#utility.yul\":14053:14100   */\n      mstore\n        /* \"#utility.yul\":14117:14248   */\n      tag_518\n        /* \"#utility.yul\":14243:14247   */\n      dup2\n        /* \"#utility.yul\":14117:14248   */\n      tag_374\n      jump\t// in\n    tag_518:\n        /* \"#utility.yul\":14109:14248   */\n      swap1\n      pop\n        /* \"#utility.yul\":13836:14255   */\n      swap2\n      swap1\n      pop\n      jump\t// out\n        /* \"#utility.yul\":14261:14431   */\n    tag_375:\n        /* \"#utility.yul\":14401:14423   */\n      0x5061757361626c653a206e6f7420706175736564000000000000000000000000\n        /* \"#utility.yul\":14397:14398   */\n      0x00\n        /* \"#utility.yul\":14389:14395   */\n      dup3\n        /* \"#utility.yul\":14385:14399   */\n      add\n        /* \"#utility.yul\":14378:14424   */\n      mstore\n        /* \"#utility.yul\":14261:14431   */\n      pop\n      jump\t// out\n        /* \"#utility.yul\":14437:14803   */\n    tag_376:\n        /* \"#utility.yul\":14579:14582   */\n      0x00\n        /* \"#utility.yul\":14600:14667   */\n      tag_521\n        /* \"#utility.yul\":14664:14666   */\n      0x14\n        /* \"#utility.yul\":14659:14662   */\n      dup4\n        /* \"#utility.yul\":14600:14667   */\n      tag_343\n      jump\t// in\n    tag_521:\n        /* \"#utility.yul\":14593:14667   */\n      swap2\n      pop\n        /* \"#utility.yul\":14676:14769   */\n      tag_522\n        /* \"#utility.yul\":14765:14768   */\n      dup3\n        /* \"#utility.yul\":14676:14769   */\n      tag_375\n      jump\t// in\n    tag_522:\n        /* \"#utility.yul\":14794:14796   */\n      0x20\n        /* \"#utility.yul\":14789:14792   */\n      dup3\n        /* \"#utility.yul\":14785:14797   */\n      add\n        /* \"#utility.yul\":14778:14797   */\n      swap1\n      pop\n        /* \"#utility.yul\":14437:14803   */\n      swap2\n      swap1\n      pop\n      jump\t// out\n        /* \"#utility.yul\":14809:15228   */\n    tag_313:\n        /* \"#utility.yul\":14975:14979   */\n      0x00\n        /* \"#utility.yul\":15013:15015   */\n      0x20\n        /* \"#utility.yul\":15002:15011   */\n      dup3\n        /* \"#utility.yul\":14998:15016   */\n      add\n        /* \"#utility.yul\":14990:15016   */\n      swap1\n      pop\n        /* \"#utility.yul\":15062:15071   */\n      dup2\n        /* \"#utility.yul\":15056:15060   */\n      dup2\n        /* \"#utility.yul\":15052:15072   */\n      sub\n        /* \"#utility.yul\":15048:15049   */\n      0x00\n        /* \"#utility.yul\":15037:15046   */\n      dup4\n        /* \"#utility.yul\":15033:15050   */\n      add\n        /* \"#utility.yul\":15026:15073   */\n      mstore\n        /* \"#utility.yul\":15090:15221   */\n      tag_524\n        /* \"#utility.yul\":15216:15220   */\n      dup2\n        /* \"#utility.yul\":15090:15221   */\n      tag_376\n      jump\t// in\n    tag_524:\n        /* \"#utility.yul\":15082:15221   */\n      swap1\n      pop\n        /* \"#utility.yul\":14809:15228   */\n      swap2\n      swap1\n      pop\n      jump\t// out\n        /* \"#utility.yul\":15234:15400   */\n    tag_377:\n        /* \"#utility.yul\":15374:15392   */\n      0x5061757361626c653a2070617573656400000000000000000000000000000000\n        /* \"#utility.yul\":15370:15371   */\n      0x00\n        /* \"#utility.yul\":15362:15368   */\n      dup3\n        /* \"#utility.yul\":15358:15372   */\n      add\n        /* \"#utility.yul\":15351:15393   */\n      mstore\n        /* \"#utility.yul\":15234:15400   */\n      pop\n      jump\t// out\n        /* \"#utility.yul\":15406:15772   */\n    tag_378:\n        /* \"#utility.yul\":15548:15551   */\n      0x00\n        /* \"#utility.yul\":15569:15636   */\n      tag_527\n        /* \"#utility.yul\":15633:15635   */\n      0x10\n        /* \"#utility.yul\":15628:15631   */\n      dup4\n        /* \"#utility.yul\":15569:15636   */\n      tag_343\n      jump\t// in\n    tag_527:\n        /* \"#utility.yul\":15562:15636   */\n      swap2\n      pop\n        /* \"#utility.yul\":15645:15738   */\n      tag_528\n        /* \"#utility.yul\":15734:15737   */\n      dup3\n        /* \"#utility.yul\":15645:15738   */\n      tag_377\n      jump\t// in\n    tag_528:\n        /* \"#utility.yul\":15763:15765   */\n      0x20\n        /* \"#utility.yul\":15758:15761   */\n      dup3\n        /* \"#utility.yul\":15754:15766   */\n      add\n        /* \"#utility.yul\":15747:15766   */\n      swap1\n      pop\n        /* \"#utility.yul\":15406:15772   */\n      swap2\n      swap1\n      pop\n      jump\t// out\n        /* \"#utility.yul\":15778:16197   */\n    tag_318:\n        /* \"#utility.yul\":15944:15948   */\n      0x00\n        /* \"#utility.yul\":15982:15984   */\n      0x20\n        /* \"#utility.yul\":15971:15980   */\n      dup3\n        /* \"#utility.yul\":15967:15985   */\n      add\n        /* \"#utility.yul\":15959:15985   */\n      swap1\n      pop\n        /* \"#utility.yul\":16031:16040   */\n      dup2\n        /* \"#utility.yul\":16025:16029   */\n      dup2\n        /* \"#utility.yul\":16021:16041   */\n      sub\n        /* \"#utility.yul\":16017:16018   */\n      0x00\n        /* \"#utility.yul\":16006:16015   */\n      dup4\n        /* \"#utility.yul\":16002:16019   */\n      add\n        /* \"#utility.yul\":15995:16042   */\n      mstore\n        /* \"#utility.yul\":16059:16190   */\n      tag_530\n        /* \"#utility.yul\":16185:16189   */\n      dup2\n        /* \"#utility.yul\":16059:16190   */\n      tag_378\n      jump\t// in\n    tag_530:\n        /* \"#utility.yul\":16051:16190   */\n      swap1\n      pop\n        /* \"#utility.yul\":15778:16197   */\n      swap2\n      swap1\n      pop\n      jump\t// out\n\n    auxdata: 0xa2646970667358221220ed3aabeb9a17af9a9f5702530c563b6cb58638c2894b51b5f741a3570429679a64736f6c63430008180033\n}\n",
				"bytecode": {
					"linkReferences": {},
					"object": "608060405234801562000010575f80fd5b50604051620035093803806200350983398181016040528101906200003691906200098f565b33828281600390816200004a919062000c49565b5080600490816200005c919062000c49565b5050505f60055f6101000a81548160ff0219169083151502179055505f73ffffffffffffffffffffffffffffffffffffffff168173ffffffffffffffffffffffffffffffffffffffff1603620000eb575f6040517f1e4fbdf7000000000000000000000000000000000000000000000000000000008152600401620000e2919062000d70565b60405180910390fd5b620000fc816200013b60201b60201c565b506200013333601260ff16600a62000115919062000f08565b6402540be40062000127919062000f58565b6200020060201b60201c565b5050620011bc565b5f600560019054906101000a900473ffffffffffffffffffffffffffffffffffffffff16905081600560016101000a81548173ffffffffffffffffffffffffffffffffffffffff021916908373ffffffffffffffffffffffffffffffffffffffff1602179055508173ffffffffffffffffffffffffffffffffffffffff168173ffffffffffffffffffffffffffffffffffffffff167f8be0079c531659141344cd1fd0a4f28419497f9722a3daafe3b4186f6b6457e060405160405180910390a35050565b5f73ffffffffffffffffffffffffffffffffffffffff168273ffffffffffffffffffffffffffffffffffffffff160362000273575f6040517fec442f050000000000000000000000000000000000000000000000000000000081526004016200026a919062000d70565b60405180910390fd5b620002865f83836200028a60201b60201c565b5050565b5f73ffffffffffffffffffffffffffffffffffffffff168373ffffffffffffffffffffffffffffffffffffffff1614158015620002f357505f73ffffffffffffffffffffffffffffffffffffffff168273ffffffffffffffffffffffffffffffffffffffff1614155b15620003e75762000309620003ff60201b60201c565b1580620003505750620003216200041460201b60201c565b73ffffffffffffffffffffffffffffffffffffffff163373ffffffffffffffffffffffffffffffffffffffff16145b62000392576040517f08c379a0000000000000000000000000000000000000000000000000000000008152600401620003899062001000565b60405180910390fd5b620003a483826200043d60201b60201c565b620003e6576040517f08c379a0000000000000000000000000000000000000000000000000000000008152600401620003dd9062001094565b60405180910390fd5b5b620003fa838383620005a160201b60201c565b505050565b5f60055f9054906101000a900460ff16905090565b5f600560019054906101000a900473ffffffffffffffffffffffffffffffffffffffff16905090565b5f805f90505f5b60075f8673ffffffffffffffffffffffffffffffffffffffff1673ffffffffffffffffffffffffffffffffffffffff1681526020019081526020015f208054905081101562000576574260075f8773ffffffffffffffffffffffffffffffffffffffff1673ffffffffffffffffffffffffffffffffffffffff1681526020019081526020015f208281548110620004e057620004df620010b4565b5b905f5260205f209060020201600101541115620005685760075f8673ffffffffffffffffffffffffffffffffffffffff1673ffffffffffffffffffffffffffffffffffffffff1681526020019081526020015f208181548110620005495762000548620010b4565b5b905f5260205f2090600202015f015482620005659190620010e1565b91505b808060010191505062000444565b5082816200058a86620007c560201b60201c565b6200059691906200111b565b101591505092915050565b5f73ffffffffffffffffffffffffffffffffffffffff168373ffffffffffffffffffffffffffffffffffffffff1603620005f5578060025f828254620005e89190620010e1565b92505081905550620006c6565b5f805f8573ffffffffffffffffffffffffffffffffffffffff1673ffffffffffffffffffffffffffffffffffffffff1681526020019081526020015f205490508181101562000681578381836040517fe450d38c000000000000000000000000000000000000000000000000000000008152600401620006789392919062001166565b60405180910390fd5b8181035f808673ffffffffffffffffffffffffffffffffffffffff1673ffffffffffffffffffffffffffffffffffffffff1681526020019081526020015f2081905550505b5f73ffffffffffffffffffffffffffffffffffffffff168273ffffffffffffffffffffffffffffffffffffffff16036200070f578060025f828254039250508190555062000759565b805f808473ffffffffffffffffffffffffffffffffffffffff1673ffffffffffffffffffffffffffffffffffffffff1681526020019081526020015f205f82825401925050819055505b8173ffffffffffffffffffffffffffffffffffffffff168373ffffffffffffffffffffffffffffffffffffffff167fddf252ad1be2c89b69c2b068fc378daa952ba7f163c4a11628f55a4df523b3ef83604051620007b89190620011a1565b60405180910390a3505050565b5f805f8373ffffffffffffffffffffffffffffffffffffffff1673ffffffffffffffffffffffffffffffffffffffff1681526020019081526020015f20549050919050565b5f604051905090565b5f80fd5b5f80fd5b5f80fd5b5f80fd5b5f601f19601f8301169050919050565b7f4e487b71000000000000000000000000000000000000000000000000000000005f52604160045260245ffd5b6200086b8262000823565b810181811067ffffffffffffffff821117156200088d576200088c62000833565b5b80604052505050565b5f620008a16200080a565b9050620008af828262000860565b919050565b5f67ffffffffffffffff821115620008d157620008d062000833565b5b620008dc8262000823565b9050602081019050919050565b5f5b8381101562000908578082015181840152602081019050620008eb565b5f8484015250505050565b5f620009296200092384620008b4565b62000896565b9050828152602081018484840111156200094857620009476200081f565b5b62000955848285620008e9565b509392505050565b5f82601f8301126200097457620009736200081b565b5b81516200098684826020860162000913565b91505092915050565b5f8060408385031215620009a857620009a762000813565b5b5f83015167ffffffffffffffff811115620009c857620009c762000817565b5b620009d6858286016200095d565b925050602083015167ffffffffffffffff811115620009fa57620009f962000817565b5b62000a08858286016200095d565b9150509250929050565b5f81519050919050565b7f4e487b71000000000000000000000000000000000000000000000000000000005f52602260045260245ffd5b5f600282049050600182168062000a6157607f821691505b60208210810362000a775762000a7662000a1c565b5b50919050565b5f819050815f5260205f209050919050565b5f6020601f8301049050919050565b5f82821b905092915050565b5f6008830262000adb7fffffffffffffffffffffffffffffffffffffffffffffffffffffffffffffffff8262000a9e565b62000ae7868362000a9e565b95508019841693508086168417925050509392505050565b5f819050919050565b5f819050919050565b5f62000b3162000b2b62000b258462000aff565b62000b08565b62000aff565b9050919050565b5f819050919050565b62000b4c8362000b11565b62000b6462000b5b8262000b38565b84845462000aaa565b825550505050565b5f90565b62000b7a62000b6c565b62000b8781848462000b41565b505050565b5b8181101562000bae5762000ba25f8262000b70565b60018101905062000b8d565b5050565b601f82111562000bfd5762000bc78162000a7d565b62000bd28462000a8f565b8101602085101562000be2578190505b62000bfa62000bf18562000a8f565b83018262000b8c565b50505b505050565b5f82821c905092915050565b5f62000c1f5f198460080262000c02565b1980831691505092915050565b5f62000c39838362000c0e565b9150826002028217905092915050565b62000c548262000a12565b67ffffffffffffffff81111562000c705762000c6f62000833565b5b62000c7c825462000a49565b62000c8982828562000bb2565b5f60209050601f83116001811462000cbf575f841562000caa578287015190505b62000cb6858262000c2c565b86555062000d25565b601f19841662000ccf8662000a7d565b5f5b8281101562000cf85784890151825560018201915060208501945060208101905062000cd1565b8683101562000d18578489015162000d14601f89168262000c0e565b8355505b6001600288020188555050505b505050505050565b5f73ffffffffffffffffffffffffffffffffffffffff82169050919050565b5f62000d588262000d2d565b9050919050565b62000d6a8162000d4c565b82525050565b5f60208201905062000d855f83018462000d5f565b92915050565b7f4e487b71000000000000000000000000000000000000000000000000000000005f52601160045260245ffd5b5f8160011c9050919050565b5f808291508390505b600185111562000e155780860481111562000ded5762000dec62000d8b565b5b600185161562000dfd5780820291505b808102905062000e0d8562000db8565b945062000dcd565b94509492505050565b5f8262000e2f576001905062000f01565b8162000e3e575f905062000f01565b816001811462000e57576002811462000e625762000e98565b600191505062000f01565b60ff84111562000e775762000e7662000d8b565b5b8360020a91508482111562000e915762000e9062000d8b565b5b5062000f01565b5060208310610133831016604e8410600b841016171562000ed25782820a90508381111562000ecc5762000ecb62000d8b565b5b62000f01565b62000ee1848484600162000dc4565b9250905081840481111562000efb5762000efa62000d8b565b5b81810290505b9392505050565b5f62000f148262000aff565b915062000f218362000aff565b925062000f507fffffffffffffffffffffffffffffffffffffffffffffffffffffffffffffffff848462000e1e565b905092915050565b5f62000f648262000aff565b915062000f718362000aff565b925082820262000f818162000aff565b9150828204841483151762000f9b5762000f9a62000d8b565b5b5092915050565b5f82825260208201905092915050565b7f546f6b656e207472616e73666572207768696c652070617573656400000000005f82015250565b5f62000fe8601b8362000fa2565b915062000ff58262000fb2565b602082019050919050565b5f6020820190508181035f830152620010198162000fda565b9050919050565b7f45524332304c6f636b61626c653a207472616e7366657220616d6f756e7420655f8201527f78636565647320756e6c6f636b65642062616c616e6365000000000000000000602082015250565b5f6200107c60378362000fa2565b9150620010898262001020565b604082019050919050565b5f6020820190508181035f830152620010ad816200106e565b9050919050565b7f4e487b71000000000000000000000000000000000000000000000000000000005f52603260045260245ffd5b5f620010ed8262000aff565b9150620010fa8362000aff565b925082820190508082111562001115576200111462000d8b565b5b92915050565b5f620011278262000aff565b9150620011348362000aff565b92508282039050818111156200114f576200114e62000d8b565b5b92915050565b620011608162000aff565b82525050565b5f6060820190506200117b5f83018662000d5f565b6200118a602083018562001155565b62001199604083018462001155565b949350505050565b5f602082019050620011b65f83018462001155565b92915050565b61233f80620011ca5f395ff3fe608060405234801561000f575f80fd5b506004361061014b575f3560e01c806370a08231116100c1578063929ec5371161007a578063929ec5371461033b57806395d89b411461036b578063a9059cbb14610389578063d1c46916146103b9578063dd62ed3e146103d5578063f2fde38b146104055761014b565b806370a08231146102a1578063715018a6146102d157806379cc6790146102db5780638456cb59146102f75780638d1fdf2f146103015780638da5cb5b1461031d5761014b565b806338b820921161011357806338b82092146102095780633f4ba83a1461022557806342966c681461022f57806345c8b1a61461024b5780635c975abb146102675780635e1372f4146102855761014b565b806306fdde031461014f578063095ea7b31461016d57806318160ddd1461019d57806323b872dd146101bb578063313ce567146101eb575b5f80fd5b610157610421565b6040516101649190611b44565b60405180910390f35b61018760048036038101906101829190611bf5565b6104b1565b6040516101949190611c4d565b60405180910390f35b6101a56104d3565b6040516101b29190611c75565b60405180910390f35b6101d560048036038101906101d09190611c8e565b6104dc565b6040516101e29190611c4d565b60405180910390f35b6101f361050a565b6040516102009190611cf9565b60405180910390f35b610223600480360381019061021e9190611d12565b610512565b005b61022d610540565b005b61024960048036038101906102449190611d62565b610552565b005b61026560048036038101906102609190611d8d565b610566565b005b61026f610691565b60405161027c9190611c4d565b60405180910390f35b61029f600480360381019061029a9190611d12565b6106a6565b005b6102bb60048036038101906102b69190611d8d565b61078a565b6040516102c89190611c75565b60405180910390f35b6102d96107cf565b005b6102f560048036038101906102f09190611bf5565b6107e2565b005b6102ff610802565b005b61031b60048036038101906103169190611d8d565b610814565b005b610325610941565b6040516103329190611dc7565b60405180910390f35b61035560048036038101906103509190611d8d565b61096a565b6040516103629190611c75565b60405180910390f35b610373610aa2565b6040516103809190611b44565b60405180910390f35b6103a3600480360381019061039e9190611bf5565b610b32565b6040516103b09190611c4d565b60405180910390f35b6103d360048036038101906103ce9190611d8d565b610b54565b005b6103ef60048036038101906103ea9190611de0565b610e75565b6040516103fc9190611c75565b60405180910390f35b61041f600480360381019061041a9190611d8d565b610ef7565b005b60606003805461043090611e4b565b80601f016020809104026020016040519081016040528092919081815260200182805461045c90611e4b565b80156104a75780601f1061047e576101008083540402835291602001916104a7565b820191905f5260205f20905b81548152906001019060200180831161048a57829003601f168201915b5050505050905090565b5f806104bb610f7b565b90506104c8818585610f82565b600191505092915050565b5f600254905090565b5f806104e6610f7b565b90506104f3858285610f94565b6104fe858585611026565b60019150509392505050565b5f6012905090565b61051a611116565b610525338484611026565b61053b838383426105369190611ea8565b6106a6565b505050565b610548611116565b61055061119d565b565b61056361055d610f7b565b826111fe565b50565b61056e611116565b60065f8273ffffffffffffffffffffffffffffffffffffffff1673ffffffffffffffffffffffffffffffffffffffff1681526020019081526020015f205f9054906101000a900460ff166105f7576040517f08c379a00000000000000000000000000000000000000000000000000000000081526004016105ee90611f25565b60405180910390fd5b5f60065f8373ffffffffffffffffffffffffffffffffffffffff1673ffffffffffffffffffffffffffffffffffffffff1681526020019081526020015f205f6101000a81548160ff0219169083151502179055508073ffffffffffffffffffffffffffffffffffffffff167ff915cd9fe234de6e8d3afe7bf2388d35b2b6d48e8c629a24602019bde79c213a60405160405180910390a250565b5f60055f9054906101000a900460ff16905090565b6106ae611116565b816106b88461078a565b10156106f9576040517f08c379a00000000000000000000000000000000000000000000000000000000081526004016106f090611f8d565b60405180910390fd5b60075f8473ffffffffffffffffffffffffffffffffffffffff1673ffffffffffffffffffffffffffffffffffffffff1681526020019081526020015f20604051806040016040528084815260200183815250908060018154018082558091505060019003905f5260205f2090600202015f909190919091505f820151815f0155602082015181600101555050505050565b5f805f8373ffffffffffffffffffffffffffffffffffffffff1673ffffffffffffffffffffffffffffffffffffffff1681526020019081526020015f20549050919050565b6107d7611116565b6107e05f61127d565b565b6107f4826107ee610f7b565b83610f94565b6107fe82826111fe565b5050565b61080a611116565b610812611342565b565b61081c611116565b60065f8273ffffffffffffffffffffffffffffffffffffffff1673ffffffffffffffffffffffffffffffffffffffff1681526020019081526020015f205f9054906101000a900460ff16156108a6576040517f08c379a000000000000000000000000000000000000000000000000000000000815260040161089d90611ff5565b60405180910390fd5b600160065f8373ffffffffffffffffffffffffffffffffffffffff1673ffffffffffffffffffffffffffffffffffffffff1681526020019081526020015f205f6101000a81548160ff0219169083151502179055508073ffffffffffffffffffffffffffffffffffffffff167f4f2a367e694e71282f29ab5eaa04c4c0be45ac5bf2ca74fb67068b98bdc2887d60405160405180910390a250565b5f600560019054906101000a900473ffffffffffffffffffffffffffffffffffffffff16905090565b5f805f90505f5b60075f8573ffffffffffffffffffffffffffffffffffffffff1673ffffffffffffffffffffffffffffffffffffffff1681526020019081526020015f2080549050811015610a98574260075f8673ffffffffffffffffffffffffffffffffffffffff1673ffffffffffffffffffffffffffffffffffffffff1681526020019081526020015f208281548110610a0957610a08612013565b5b905f5260205f209060020201600101541115610a8b5760075f8573ffffffffffffffffffffffffffffffffffffffff1673ffffffffffffffffffffffffffffffffffffffff1681526020019081526020015f208181548110610a6e57610a6d612013565b5b905f5260205f2090600202015f015482610a889190611ea8565b91505b8080600101915050610971565b5080915050919050565b606060048054610ab190611e4b565b80601f0160208091040260200160405190810160405280929190818152602001828054610add90611e4b565b8015610b285780601f10610aff57610100808354040283529160200191610b28565b820191905f5260205f20905b815481529060010190602001808311610b0b57829003601f168201915b5050505050905090565b5f80610b3c610f7b565b9050610b49818585611026565b600191505092915050565b5f805b60075f8473ffffffffffffffffffffffffffffffffffffffff1673ffffffffffffffffffffffffffffffffffffffff1681526020019081526020015f2080549050811015610e19574260075f8573ffffffffffffffffffffffffffffffffffffffff1673ffffffffffffffffffffffffffffffffffffffff1681526020019081526020015f208281548110610bef57610bee612013565b5b905f5260205f2090600202016001015411610e065760075f8473ffffffffffffffffffffffffffffffffffffffff1673ffffffffffffffffffffffffffffffffffffffff1681526020019081526020015f208181548110610c5357610c52612013565b5b905f5260205f2090600202015f015482610c6d9190611ea8565b915060075f8473ffffffffffffffffffffffffffffffffffffffff1673ffffffffffffffffffffffffffffffffffffffff1681526020019081526020015f20600160075f8673ffffffffffffffffffffffffffffffffffffffff1673ffffffffffffffffffffffffffffffffffffffff1681526020019081526020015f2080549050610cf99190612040565b81548110610d0a57610d09612013565b5b905f5260205f20906002020160075f8573ffffffffffffffffffffffffffffffffffffffff1673ffffffffffffffffffffffffffffffffffffffff1681526020019081526020015f208281548110610d6557610d64612013565b5b905f5260205f2090600202015f820154815f01556001820154816001015590505060075f8473ffffffffffffffffffffffffffffffffffffffff1673ffffffffffffffffffffffffffffffffffffffff1681526020019081526020015f20805480610dd357610dd2612073565b5b600190038181905f5260205f2090600202015f8082015f9055600182015f9055505090558080610e02906120a0565b9150505b8080610e11906120c7565b915050610b57565b505f811115610e71578173ffffffffffffffffffffffffffffffffffffffff167f622ca42598ab680a7def4a7346e1963a82207cf42a5ddb8056ad62cfbda19b8882604051610e689190611c75565b60405180910390a25b5050565b5f60015f8473ffffffffffffffffffffffffffffffffffffffff1673ffffffffffffffffffffffffffffffffffffffff1681526020019081526020015f205f8373ffffffffffffffffffffffffffffffffffffffff1673ffffffffffffffffffffffffffffffffffffffff1681526020019081526020015f2054905092915050565b610eff611116565b5f73ffffffffffffffffffffffffffffffffffffffff168173ffffffffffffffffffffffffffffffffffffffff1603610f6f575f6040517f1e4fbdf7000000000000000000000000000000000000000000000000000000008152600401610f669190611dc7565b60405180910390fd5b610f788161127d565b50565b5f33905090565b610f8f83838360016113a4565b505050565b5f610f9f8484610e75565b90507fffffffffffffffffffffffffffffffffffffffffffffffffffffffffffffffff81146110205781811015611011578281836040517ffb8f41b20000000000000000000000000000000000000000000000000000000081526004016110089392919061210e565b60405180910390fd5b61101f84848484035f6113a4565b5b50505050565b5f73ffffffffffffffffffffffffffffffffffffffff168373ffffffffffffffffffffffffffffffffffffffff1603611096575f6040517f96c6fd1e00000000000000000000000000000000000000000000000000000000815260040161108d9190611dc7565b60405180910390fd5b5f73ffffffffffffffffffffffffffffffffffffffff168273ffffffffffffffffffffffffffffffffffffffff1603611106575f6040517fec442f050000000000000000000000000000000000000000000000000000000081526004016110fd9190611dc7565b60405180910390fd5b611111838383611573565b505050565b61111e610f7b565b73ffffffffffffffffffffffffffffffffffffffff1661113c610941565b73ffffffffffffffffffffffffffffffffffffffff161461119b5761115f610f7b565b6040517f118cdaa70000000000000000000000000000000000000000000000000000000081526004016111929190611dc7565b60405180910390fd5b565b6111a56116bf565b5f60055f6101000a81548160ff0219169083151502179055507f5db9ee0a495bf2e6ff9c91a7834c1ba4fdd244a5e8aa4e537bd38aeae4b073aa6111e7610f7b565b6040516111f49190611dc7565b60405180910390a1565b5f73ffffffffffffffffffffffffffffffffffffffff168273ffffffffffffffffffffffffffffffffffffffff160361126e575f6040517f96c6fd1e0000000000000000000000000000000000000000000000000000000081526004016112659190611dc7565b60405180910390fd5b611279825f83611573565b5050565b5f600560019054906101000a900473ffffffffffffffffffffffffffffffffffffffff16905081600560016101000a81548173ffffffffffffffffffffffffffffffffffffffff021916908373ffffffffffffffffffffffffffffffffffffffff1602179055508173ffffffffffffffffffffffffffffffffffffffff168173ffffffffffffffffffffffffffffffffffffffff167f8be0079c531659141344cd1fd0a4f28419497f9722a3daafe3b4186f6b6457e060405160405180910390a35050565b61134a611708565b600160055f6101000a81548160ff0219169083151502179055507f62e78cea01bee320cd4e420270b5ea74000d11b0c9f74754ebdbfc544b05a25861138d610f7b565b60405161139a9190611dc7565b60405180910390a1565b5f73ffffffffffffffffffffffffffffffffffffffff168473ffffffffffffffffffffffffffffffffffffffff1603611414575f6040517fe602df0500000000000000000000000000000000000000000000000000000000815260040161140b9190611dc7565b60405180910390fd5b5f73ffffffffffffffffffffffffffffffffffffffff168373ffffffffffffffffffffffffffffffffffffffff1603611484575f6040517f94280d6200000000000000000000000000000000000000000000000000000000815260040161147b9190611dc7565b60405180910390fd5b8160015f8673ffffffffffffffffffffffffffffffffffffffff1673ffffffffffffffffffffffffffffffffffffffff1681526020019081526020015f205f8573ffffffffffffffffffffffffffffffffffffffff1673ffffffffffffffffffffffffffffffffffffffff1681526020019081526020015f2081905550801561156d578273ffffffffffffffffffffffffffffffffffffffff168473ffffffffffffffffffffffffffffffffffffffff167f8c5be1e5ebec7d5bd14f71427d1e84f3dd0314c0f7b2291e5b200ac8c7c3b925846040516115649190611c75565b60405180910390a35b50505050565b5f73ffffffffffffffffffffffffffffffffffffffff168373ffffffffffffffffffffffffffffffffffffffff16141580156115db57505f73ffffffffffffffffffffffffffffffffffffffff168273ffffffffffffffffffffffffffffffffffffffff1614155b156116af576115e8610691565b158061162657506115f7610941565b73ffffffffffffffffffffffffffffffffffffffff163373ffffffffffffffffffffffffffffffffffffffff16145b611665576040517f08c379a000000000000000000000000000000000000000000000000000000000815260040161165c9061218d565b60405180910390fd5b61166f8382611752565b6116ae576040517f08c379a00000000000000000000000000000000000000000000000000000000081526004016116a59061221b565b60405180910390fd5b5b6116ba8383836118a1565b505050565b6116c7610691565b611706576040517f08c379a00000000000000000000000000000000000000000000000000000000081526004016116fd90612283565b60405180910390fd5b565b611710610691565b15611750576040517f08c379a0000000000000000000000000000000000000000000000000000000008152600401611747906122eb565b60405180910390fd5b565b5f805f90505f5b60075f8673ffffffffffffffffffffffffffffffffffffffff1673ffffffffffffffffffffffffffffffffffffffff1681526020019081526020015f2080549050811015611880574260075f8773ffffffffffffffffffffffffffffffffffffffff1673ffffffffffffffffffffffffffffffffffffffff1681526020019081526020015f2082815481106117f1576117f0612013565b5b905f5260205f2090600202016001015411156118735760075f8673ffffffffffffffffffffffffffffffffffffffff1673ffffffffffffffffffffffffffffffffffffffff1681526020019081526020015f20818154811061185657611855612013565b5b905f5260205f2090600202015f0154826118709190611ea8565b91505b8080600101915050611759565b50828161188c8661078a565b6118969190612040565b101591505092915050565b5f73ffffffffffffffffffffffffffffffffffffffff168373ffffffffffffffffffffffffffffffffffffffff16036118f1578060025f8282546118e59190611ea8565b925050819055506119bf565b5f805f8573ffffffffffffffffffffffffffffffffffffffff1673ffffffffffffffffffffffffffffffffffffffff1681526020019081526020015f205490508181101561197a578381836040517fe450d38c0000000000000000000000000000000000000000000000000000000081526004016119719392919061210e565b60405180910390fd5b8181035f808673ffffffffffffffffffffffffffffffffffffffff1673ffffffffffffffffffffffffffffffffffffffff1681526020019081526020015f2081905550505b5f73ffffffffffffffffffffffffffffffffffffffff168273ffffffffffffffffffffffffffffffffffffffff1603611a06578060025f8282540392505081905550611a50565b805f808473ffffffffffffffffffffffffffffffffffffffff1673ffffffffffffffffffffffffffffffffffffffff1681526020019081526020015f205f82825401925050819055505b8173ffffffffffffffffffffffffffffffffffffffff168373ffffffffffffffffffffffffffffffffffffffff167fddf252ad1be2c89b69c2b068fc378daa952ba7f163c4a11628f55a4df523b3ef83604051611aad9190611c75565b60405180910390a3505050565b5f81519050919050565b5f82825260208201905092915050565b5f5b83811015611af1578082015181840152602081019050611ad6565b5f8484015250505050565b5f601f19601f8301169050919050565b5f611b1682611aba565b611b208185611ac4565b9350611b30818560208601611ad4565b611b3981611afc565b840191505092915050565b5f6020820190508181035f830152611b5c8184611b0c565b905092915050565b5f80fd5b5f73ffffffffffffffffffffffffffffffffffffffff82169050919050565b5f611b9182611b68565b9050919050565b611ba181611b87565b8114611bab575f80fd5b50565b5f81359050611bbc81611b98565b92915050565b5f819050919050565b611bd481611bc2565b8114611bde575f80fd5b50565b5f81359050611bef81611bcb565b92915050565b5f8060408385031215611c0b57611c0a611b64565b5b5f611c1885828601611bae565b9250506020611c2985828601611be1565b9150509250929050565b5f8115159050919050565b611c4781611c33565b82525050565b5f602082019050611c605f830184611c3e565b92915050565b611c6f81611bc2565b82525050565b5f602082019050611c885f830184611c66565b92915050565b5f805f60608486031215611ca557611ca4611b64565b5b5f611cb286828701611bae565b9350506020611cc386828701611bae565b9250506040611cd486828701611be1565b9150509250925092565b5f60ff82169050919050565b611cf381611cde565b82525050565b5f602082019050611d0c5f830184611cea565b92915050565b5f805f60608486031215611d2957611d28611b64565b5b5f611d3686828701611bae565b9350506020611d4786828701611be1565b9250506040611d5886828701611be1565b9150509250925092565b5f60208284031215611d7757611d76611b64565b5b5f611d8484828501611be1565b91505092915050565b5f60208284031215611da257611da1611b64565b5b5f611daf84828501611bae565b91505092915050565b611dc181611b87565b82525050565b5f602082019050611dda5f830184611db8565b92915050565b5f8060408385031215611df657611df5611b64565b5b5f611e0385828601611bae565b9250506020611e1485828601611bae565b9150509250929050565b7f4e487b71000000000000000000000000000000000000000000000000000000005f52602260045260245ffd5b5f6002820490506001821680611e6257607f821691505b602082108103611e7557611e74611e1e565b5b50919050565b7f4e487b71000000000000000000000000000000000000000000000000000000005f52601160045260245ffd5b5f611eb282611bc2565b9150611ebd83611bc2565b9250828201905080821115611ed557611ed4611e7b565b5b92915050565b7f4163636f756e74206973206e6f742066726f7a656e00000000000000000000005f82015250565b5f611f0f601583611ac4565b9150611f1a82611edb565b602082019050919050565b5f6020820190508181035f830152611f3c81611f03565b9050919050565b7f496e73756666696369656e742062616c616e63650000000000000000000000005f82015250565b5f611f77601483611ac4565b9150611f8282611f43565b602082019050919050565b5f6020820190508181035f830152611fa481611f6b565b9050919050565b7f4163636f756e7420697320616c72656164792066726f7a656e000000000000005f82015250565b5f611fdf601983611ac4565b9150611fea82611fab565b602082019050919050565b5f6020820190508181035f83015261200c81611fd3565b9050919050565b7f4e487b71000000000000000000000000000000000000000000000000000000005f52603260045260245ffd5b5f61204a82611bc2565b915061205583611bc2565b925082820390508181111561206d5761206c611e7b565b5b92915050565b7f4e487b71000000000000000000000000000000000000000000000000000000005f52603160045260245ffd5b5f6120aa82611bc2565b91505f82036120bc576120bb611e7b565b5b600182039050919050565b5f6120d182611bc2565b91507fffffffffffffffffffffffffffffffffffffffffffffffffffffffffffffffff820361210357612102611e7b565b5b600182019050919050565b5f6060820190506121215f830186611db8565b61212e6020830185611c66565b61213b6040830184611c66565b949350505050565b7f546f6b656e207472616e73666572207768696c652070617573656400000000005f82015250565b5f612177601b83611ac4565b915061218282612143565b602082019050919050565b5f6020820190508181035f8301526121a48161216b565b9050919050565b7f45524332304c6f636b61626c653a207472616e7366657220616d6f756e7420655f8201527f78636565647320756e6c6f636b65642062616c616e6365000000000000000000602082015250565b5f612205603783611ac4565b9150612210826121ab565b604082019050919050565b5f6020820190508181035f830152612232816121f9565b9050919050565b7f5061757361626c653a206e6f74207061757365640000000000000000000000005f82015250565b5f61226d601483611ac4565b915061227882612239565b602082019050919050565b5f6020820190508181035f83015261229a81612261565b9050919050565b7f5061757361626c653a20706175736564000000000000000000000000000000005f82015250565b5f6122d5601083611ac4565b91506122e0826122a1565b602082019050919050565b5f6020820190508181035f830152612302816122c9565b905091905056fea2646970667358221220ed3aabeb9a17af9a9f5702530c563b6cb58638c2894b51b5f741a3570429679a64736f6c63430008180033",
					"opcodes": "PUSH1 0x80 PUSH1 0x40 MSTORE CALLVALUE DUP1 ISZERO PUSH3 0x10 JUMPI PUSH0 DUP1 REVERT JUMPDEST POP PUSH1 0x40 MLOAD PUSH3 0x3509 CODESIZE SUB DUP1 PUSH3 0x3509 DUP4 CODECOPY DUP2 DUP2 ADD PUSH1 0x40 MSTORE DUP2 ADD SWAP1 PUSH3 0x36 SWAP2 SWAP1 PUSH3 0x98F JUMP JUMPDEST CALLER DUP3 DUP3 DUP2 PUSH1 0x3 SWAP1 DUP2 PUSH3 0x4A SWAP2 SWAP1 PUSH3 0xC49 JUMP JUMPDEST POP DUP1 PUSH1 0x4 SWAP1 DUP2 PUSH3 0x5C SWAP2 SWAP1 PUSH3 0xC49 JUMP JUMPDEST POP POP POP PUSH0 PUSH1 0x5 PUSH0 PUSH2 0x100 EXP DUP2 SLOAD DUP2 PUSH1 0xFF MUL NOT AND SWAP1 DUP4 ISZERO ISZERO MUL OR SWAP1 SSTORE POP PUSH0 PUSH20 0xFFFFFFFFFFFFFFFFFFFFFFFFFFFFFFFFFFFFFFFF AND DUP2 PUSH20 0xFFFFFFFFFFFFFFFFFFFFFFFFFFFFFFFFFFFFFFFF AND SUB PUSH3 0xEB JUMPI PUSH0 PUSH1 0x40 MLOAD PUSH32 0x1E4FBDF700000000000000000000000000000000000000000000000000000000 DUP2 MSTORE PUSH1 0x4 ADD PUSH3 0xE2 SWAP2 SWAP1 PUSH3 0xD70 JUMP JUMPDEST PUSH1 0x40 MLOAD DUP1 SWAP2 SUB SWAP1 REVERT JUMPDEST PUSH3 0xFC DUP2 PUSH3 0x13B PUSH1 0x20 SHL PUSH1 0x20 SHR JUMP JUMPDEST POP PUSH3 0x133 CALLER PUSH1 0x12 PUSH1 0xFF AND PUSH1 0xA PUSH3 0x115 SWAP2 SWAP1 PUSH3 0xF08 JUMP JUMPDEST PUSH5 0x2540BE400 PUSH3 0x127 SWAP2 SWAP1 PUSH3 0xF58 JUMP JUMPDEST PUSH3 0x200 PUSH1 0x20 SHL PUSH1 0x20 SHR JUMP JUMPDEST POP POP PUSH3 0x11BC JUMP JUMPDEST PUSH0 PUSH1 0x5 PUSH1 0x1 SWAP1 SLOAD SWAP1 PUSH2 0x100 EXP SWAP1 DIV PUSH20 0xFFFFFFFFFFFFFFFFFFFFFFFFFFFFFFFFFFFFFFFF AND SWAP1 POP DUP2 PUSH1 0x5 PUSH1 0x1 PUSH2 0x100 EXP DUP2 SLOAD DUP2 PUSH20 0xFFFFFFFFFFFFFFFFFFFFFFFFFFFFFFFFFFFFFFFF MUL NOT AND SWAP1 DUP4 PUSH20 0xFFFFFFFFFFFFFFFFFFFFFFFFFFFFFFFFFFFFFFFF AND MUL OR SWAP1 SSTORE POP DUP2 PUSH20 0xFFFFFFFFFFFFFFFFFFFFFFFFFFFFFFFFFFFFFFFF AND DUP2 PUSH20 0xFFFFFFFFFFFFFFFFFFFFFFFFFFFFFFFFFFFFFFFF AND PUSH32 0x8BE0079C531659141344CD1FD0A4F28419497F9722A3DAAFE3B4186F6B6457E0 PUSH1 0x40 MLOAD PUSH1 0x40 MLOAD DUP1 SWAP2 SUB SWAP1 LOG3 POP POP JUMP JUMPDEST PUSH0 PUSH20 0xFFFFFFFFFFFFFFFFFFFFFFFFFFFFFFFFFFFFFFFF AND DUP3 PUSH20 0xFFFFFFFFFFFFFFFFFFFFFFFFFFFFFFFFFFFFFFFF AND SUB PUSH3 0x273 JUMPI PUSH0 PUSH1 0x40 MLOAD PUSH32 0xEC442F0500000000000000000000000000000000000000000000000000000000 DUP2 MSTORE PUSH1 0x4 ADD PUSH3 0x26A SWAP2 SWAP1 PUSH3 0xD70 JUMP JUMPDEST PUSH1 0x40 MLOAD DUP1 SWAP2 SUB SWAP1 REVERT JUMPDEST PUSH3 0x286 PUSH0 DUP4 DUP4 PUSH3 0x28A PUSH1 0x20 SHL PUSH1 0x20 SHR JUMP JUMPDEST POP POP JUMP JUMPDEST PUSH0 PUSH20 0xFFFFFFFFFFFFFFFFFFFFFFFFFFFFFFFFFFFFFFFF AND DUP4 PUSH20 0xFFFFFFFFFFFFFFFFFFFFFFFFFFFFFFFFFFFFFFFF AND EQ ISZERO DUP1 ISZERO PUSH3 0x2F3 JUMPI POP PUSH0 PUSH20 0xFFFFFFFFFFFFFFFFFFFFFFFFFFFFFFFFFFFFFFFF AND DUP3 PUSH20 0xFFFFFFFFFFFFFFFFFFFFFFFFFFFFFFFFFFFFFFFF AND EQ ISZERO JUMPDEST ISZERO PUSH3 0x3E7 JUMPI PUSH3 0x309 PUSH3 0x3FF PUSH1 0x20 SHL PUSH1 0x20 SHR JUMP JUMPDEST ISZERO DUP1 PUSH3 0x350 JUMPI POP PUSH3 0x321 PUSH3 0x414 PUSH1 0x20 SHL PUSH1 0x20 SHR JUMP JUMPDEST PUSH20 0xFFFFFFFFFFFFFFFFFFFFFFFFFFFFFFFFFFFFFFFF AND CALLER PUSH20 0xFFFFFFFFFFFFFFFFFFFFFFFFFFFFFFFFFFFFFFFF AND EQ JUMPDEST PUSH3 0x392 JUMPI PUSH1 0x40 MLOAD PUSH32 0x8C379A000000000000000000000000000000000000000000000000000000000 DUP2 MSTORE PUSH1 0x4 ADD PUSH3 0x389 SWAP1 PUSH3 0x1000 JUMP JUMPDEST PUSH1 0x40 MLOAD DUP1 SWAP2 SUB SWAP1 REVERT JUMPDEST PUSH3 0x3A4 DUP4 DUP3 PUSH3 0x43D PUSH1 0x20 SHL PUSH1 0x20 SHR JUMP JUMPDEST PUSH3 0x3E6 JUMPI PUSH1 0x40 MLOAD PUSH32 0x8C379A000000000000000000000000000000000000000000000000000000000 DUP2 MSTORE PUSH1 0x4 ADD PUSH3 0x3DD SWAP1 PUSH3 0x1094 JUMP JUMPDEST PUSH1 0x40 MLOAD DUP1 SWAP2 SUB SWAP1 REVERT JUMPDEST JUMPDEST PUSH3 0x3FA DUP4 DUP4 DUP4 PUSH3 0x5A1 PUSH1 0x20 SHL PUSH1 0x20 SHR JUMP JUMPDEST POP POP POP JUMP JUMPDEST PUSH0 PUSH1 0x5 PUSH0 SWAP1 SLOAD SWAP1 PUSH2 0x100 EXP SWAP1 DIV PUSH1 0xFF AND SWAP1 POP SWAP1 JUMP JUMPDEST PUSH0 PUSH1 0x5 PUSH1 0x1 SWAP1 SLOAD SWAP1 PUSH2 0x100 EXP SWAP1 DIV PUSH20 0xFFFFFFFFFFFFFFFFFFFFFFFFFFFFFFFFFFFFFFFF AND SWAP1 POP SWAP1 JUMP JUMPDEST PUSH0 DUP1 PUSH0 SWAP1 POP PUSH0 JUMPDEST PUSH1 0x7 PUSH0 DUP7 PUSH20 0xFFFFFFFFFFFFFFFFFFFFFFFFFFFFFFFFFFFFFFFF AND PUSH20 0xFFFFFFFFFFFFFFFFFFFFFFFFFFFFFFFFFFFFFFFF AND DUP2 MSTORE PUSH1 0x20 ADD SWAP1 DUP2 MSTORE PUSH1 0x20 ADD PUSH0 KECCAK256 DUP1 SLOAD SWAP1 POP DUP2 LT ISZERO PUSH3 0x576 JUMPI TIMESTAMP PUSH1 0x7 PUSH0 DUP8 PUSH20 0xFFFFFFFFFFFFFFFFFFFFFFFFFFFFFFFFFFFFFFFF AND PUSH20 0xFFFFFFFFFFFFFFFFFFFFFFFFFFFFFFFFFFFFFFFF AND DUP2 MSTORE PUSH1 0x20 ADD SWAP1 DUP2 MSTORE PUSH1 0x20 ADD PUSH0 KECCAK256 DUP3 DUP2 SLOAD DUP2 LT PUSH3 0x4E0 JUMPI PUSH3 0x4DF PUSH3 0x10B4 JUMP JUMPDEST JUMPDEST SWAP1 PUSH0 MSTORE PUSH1 0x20 PUSH0 KECCAK256 SWAP1 PUSH1 0x2 MUL ADD PUSH1 0x1 ADD SLOAD GT ISZERO PUSH3 0x568 JUMPI PUSH1 0x7 PUSH0 DUP7 PUSH20 0xFFFFFFFFFFFFFFFFFFFFFFFFFFFFFFFFFFFFFFFF AND PUSH20 0xFFFFFFFFFFFFFFFFFFFFFFFFFFFFFFFFFFFFFFFF AND DUP2 MSTORE PUSH1 0x20 ADD SWAP1 DUP2 MSTORE PUSH1 0x20 ADD PUSH0 KECCAK256 DUP2 DUP2 SLOAD DUP2 LT PUSH3 0x549 JUMPI PUSH3 0x548 PUSH3 0x10B4 JUMP JUMPDEST JUMPDEST SWAP1 PUSH0 MSTORE PUSH1 0x20 PUSH0 KECCAK256 SWAP1 PUSH1 0x2 MUL ADD PUSH0 ADD SLOAD DUP3 PUSH3 0x565 SWAP2 SWAP1 PUSH3 0x10E1 JUMP JUMPDEST SWAP2 POP JUMPDEST DUP1 DUP1 PUSH1 0x1 ADD SWAP2 POP POP PUSH3 0x444 JUMP JUMPDEST POP DUP3 DUP2 PUSH3 0x58A DUP7 PUSH3 0x7C5 PUSH1 0x20 SHL PUSH1 0x20 SHR JUMP JUMPDEST PUSH3 0x596 SWAP2 SWAP1 PUSH3 0x111B JUMP JUMPDEST LT ISZERO SWAP2 POP POP SWAP3 SWAP2 POP POP JUMP JUMPDEST PUSH0 PUSH20 0xFFFFFFFFFFFFFFFFFFFFFFFFFFFFFFFFFFFFFFFF AND DUP4 PUSH20 0xFFFFFFFFFFFFFFFFFFFFFFFFFFFFFFFFFFFFFFFF AND SUB PUSH3 0x5F5 JUMPI DUP1 PUSH1 0x2 PUSH0 DUP3 DUP3 SLOAD PUSH3 0x5E8 SWAP2 SWAP1 PUSH3 0x10E1 JUMP JUMPDEST SWAP3 POP POP DUP2 SWAP1 SSTORE POP PUSH3 0x6C6 JUMP JUMPDEST PUSH0 DUP1 PUSH0 DUP6 PUSH20 0xFFFFFFFFFFFFFFFFFFFFFFFFFFFFFFFFFFFFFFFF AND PUSH20 0xFFFFFFFFFFFFFFFFFFFFFFFFFFFFFFFFFFFFFFFF AND DUP2 MSTORE PUSH1 0x20 ADD SWAP1 DUP2 MSTORE PUSH1 0x20 ADD PUSH0 KECCAK256 SLOAD SWAP1 POP DUP2 DUP2 LT ISZERO PUSH3 0x681 JUMPI DUP4 DUP2 DUP4 PUSH1 0x40 MLOAD PUSH32 0xE450D38C00000000000000000000000000000000000000000000000000000000 DUP2 MSTORE PUSH1 0x4 ADD PUSH3 0x678 SWAP4 SWAP3 SWAP2 SWAP1 PUSH3 0x1166 JUMP JUMPDEST PUSH1 0x40 MLOAD DUP1 SWAP2 SUB SWAP1 REVERT JUMPDEST DUP2 DUP2 SUB PUSH0 DUP1 DUP7 PUSH20 0xFFFFFFFFFFFFFFFFFFFFFFFFFFFFFFFFFFFFFFFF AND PUSH20 0xFFFFFFFFFFFFFFFFFFFFFFFFFFFFFFFFFFFFFFFF AND DUP2 MSTORE PUSH1 0x20 ADD SWAP1 DUP2 MSTORE PUSH1 0x20 ADD PUSH0 KECCAK256 DUP2 SWAP1 SSTORE POP POP JUMPDEST PUSH0 PUSH20 0xFFFFFFFFFFFFFFFFFFFFFFFFFFFFFFFFFFFFFFFF AND DUP3 PUSH20 0xFFFFFFFFFFFFFFFFFFFFFFFFFFFFFFFFFFFFFFFF AND SUB PUSH3 0x70F JUMPI DUP1 PUSH1 0x2 PUSH0 DUP3 DUP3 SLOAD SUB SWAP3 POP POP DUP2 SWAP1 SSTORE POP PUSH3 0x759 JUMP JUMPDEST DUP1 PUSH0 DUP1 DUP5 PUSH20 0xFFFFFFFFFFFFFFFFFFFFFFFFFFFFFFFFFFFFFFFF AND PUSH20 0xFFFFFFFFFFFFFFFFFFFFFFFFFFFFFFFFFFFFFFFF AND DUP2 MSTORE PUSH1 0x20 ADD SWAP1 DUP2 MSTORE PUSH1 0x20 ADD PUSH0 KECCAK256 PUSH0 DUP3 DUP3 SLOAD ADD SWAP3 POP POP DUP2 SWAP1 SSTORE POP JUMPDEST DUP2 PUSH20 0xFFFFFFFFFFFFFFFFFFFFFFFFFFFFFFFFFFFFFFFF AND DUP4 PUSH20 0xFFFFFFFFFFFFFFFFFFFFFFFFFFFFFFFFFFFFFFFF AND PUSH32 0xDDF252AD1BE2C89B69C2B068FC378DAA952BA7F163C4A11628F55A4DF523B3EF DUP4 PUSH1 0x40 MLOAD PUSH3 0x7B8 SWAP2 SWAP1 PUSH3 0x11A1 JUMP JUMPDEST PUSH1 0x40 MLOAD DUP1 SWAP2 SUB SWAP1 LOG3 POP POP POP JUMP JUMPDEST PUSH0 DUP1 PUSH0 DUP4 PUSH20 0xFFFFFFFFFFFFFFFFFFFFFFFFFFFFFFFFFFFFFFFF AND PUSH20 0xFFFFFFFFFFFFFFFFFFFFFFFFFFFFFFFFFFFFFFFF AND DUP2 MSTORE PUSH1 0x20 ADD SWAP1 DUP2 MSTORE PUSH1 0x20 ADD PUSH0 KECCAK256 SLOAD SWAP1 POP SWAP2 SWAP1 POP JUMP JUMPDEST PUSH0 PUSH1 0x40 MLOAD SWAP1 POP SWAP1 JUMP JUMPDEST PUSH0 DUP1 REVERT JUMPDEST PUSH0 DUP1 REVERT JUMPDEST PUSH0 DUP1 REVERT JUMPDEST PUSH0 DUP1 REVERT JUMPDEST PUSH0 PUSH1 0x1F NOT PUSH1 0x1F DUP4 ADD AND SWAP1 POP SWAP2 SWAP1 POP JUMP JUMPDEST PUSH32 0x4E487B7100000000000000000000000000000000000000000000000000000000 PUSH0 MSTORE PUSH1 0x41 PUSH1 0x4 MSTORE PUSH1 0x24 PUSH0 REVERT JUMPDEST PUSH3 0x86B DUP3 PUSH3 0x823 JUMP JUMPDEST DUP2 ADD DUP2 DUP2 LT PUSH8 0xFFFFFFFFFFFFFFFF DUP3 GT OR ISZERO PUSH3 0x88D JUMPI PUSH3 0x88C PUSH3 0x833 JUMP JUMPDEST JUMPDEST DUP1 PUSH1 0x40 MSTORE POP POP POP JUMP JUMPDEST PUSH0 PUSH3 0x8A1 PUSH3 0x80A JUMP JUMPDEST SWAP1 POP PUSH3 0x8AF DUP3 DUP3 PUSH3 0x860 JUMP JUMPDEST SWAP2 SWAP1 POP JUMP JUMPDEST PUSH0 PUSH8 0xFFFFFFFFFFFFFFFF DUP3 GT ISZERO PUSH3 0x8D1 JUMPI PUSH3 0x8D0 PUSH3 0x833 JUMP JUMPDEST JUMPDEST PUSH3 0x8DC DUP3 PUSH3 0x823 JUMP JUMPDEST SWAP1 POP PUSH1 0x20 DUP2 ADD SWAP1 POP SWAP2 SWAP1 POP JUMP JUMPDEST PUSH0 JUMPDEST DUP4 DUP2 LT ISZERO PUSH3 0x908 JUMPI DUP1 DUP3 ADD MLOAD DUP2 DUP5 ADD MSTORE PUSH1 0x20 DUP2 ADD SWAP1 POP PUSH3 0x8EB JUMP JUMPDEST PUSH0 DUP5 DUP5 ADD MSTORE POP POP POP POP JUMP JUMPDEST PUSH0 PUSH3 0x929 PUSH3 0x923 DUP5 PUSH3 0x8B4 JUMP JUMPDEST PUSH3 0x896 JUMP JUMPDEST SWAP1 POP DUP3 DUP2 MSTORE PUSH1 0x20 DUP2 ADD DUP5 DUP5 DUP5 ADD GT ISZERO PUSH3 0x948 JUMPI PUSH3 0x947 PUSH3 0x81F JUMP JUMPDEST JUMPDEST PUSH3 0x955 DUP5 DUP3 DUP6 PUSH3 0x8E9 JUMP JUMPDEST POP SWAP4 SWAP3 POP POP POP JUMP JUMPDEST PUSH0 DUP3 PUSH1 0x1F DUP4 ADD SLT PUSH3 0x974 JUMPI PUSH3 0x973 PUSH3 0x81B JUMP JUMPDEST JUMPDEST DUP2 MLOAD PUSH3 0x986 DUP5 DUP3 PUSH1 0x20 DUP7 ADD PUSH3 0x913 JUMP JUMPDEST SWAP2 POP POP SWAP3 SWAP2 POP POP JUMP JUMPDEST PUSH0 DUP1 PUSH1 0x40 DUP4 DUP6 SUB SLT ISZERO PUSH3 0x9A8 JUMPI PUSH3 0x9A7 PUSH3 0x813 JUMP JUMPDEST JUMPDEST PUSH0 DUP4 ADD MLOAD PUSH8 0xFFFFFFFFFFFFFFFF DUP2 GT ISZERO PUSH3 0x9C8 JUMPI PUSH3 0x9C7 PUSH3 0x817 JUMP JUMPDEST JUMPDEST PUSH3 0x9D6 DUP6 DUP3 DUP7 ADD PUSH3 0x95D JUMP JUMPDEST SWAP3 POP POP PUSH1 0x20 DUP4 ADD MLOAD PUSH8 0xFFFFFFFFFFFFFFFF DUP2 GT ISZERO PUSH3 0x9FA JUMPI PUSH3 0x9F9 PUSH3 0x817 JUMP JUMPDEST JUMPDEST PUSH3 0xA08 DUP6 DUP3 DUP7 ADD PUSH3 0x95D JUMP JUMPDEST SWAP2 POP POP SWAP3 POP SWAP3 SWAP1 POP JUMP JUMPDEST PUSH0 DUP2 MLOAD SWAP1 POP SWAP2 SWAP1 POP JUMP JUMPDEST PUSH32 0x4E487B7100000000000000000000000000000000000000000000000000000000 PUSH0 MSTORE PUSH1 0x22 PUSH1 0x4 MSTORE PUSH1 0x24 PUSH0 REVERT JUMPDEST PUSH0 PUSH1 0x2 DUP3 DIV SWAP1 POP PUSH1 0x1 DUP3 AND DUP1 PUSH3 0xA61 JUMPI PUSH1 0x7F DUP3 AND SWAP2 POP JUMPDEST PUSH1 0x20 DUP3 LT DUP2 SUB PUSH3 0xA77 JUMPI PUSH3 0xA76 PUSH3 0xA1C JUMP JUMPDEST JUMPDEST POP SWAP2 SWAP1 POP JUMP JUMPDEST PUSH0 DUP2 SWAP1 POP DUP2 PUSH0 MSTORE PUSH1 0x20 PUSH0 KECCAK256 SWAP1 POP SWAP2 SWAP1 POP JUMP JUMPDEST PUSH0 PUSH1 0x20 PUSH1 0x1F DUP4 ADD DIV SWAP1 POP SWAP2 SWAP1 POP JUMP JUMPDEST PUSH0 DUP3 DUP3 SHL SWAP1 POP SWAP3 SWAP2 POP POP JUMP JUMPDEST PUSH0 PUSH1 0x8 DUP4 MUL PUSH3 0xADB PUSH32 0xFFFFFFFFFFFFFFFFFFFFFFFFFFFFFFFFFFFFFFFFFFFFFFFFFFFFFFFFFFFFFFFF DUP3 PUSH3 0xA9E JUMP JUMPDEST PUSH3 0xAE7 DUP7 DUP4 PUSH3 0xA9E JUMP JUMPDEST SWAP6 POP DUP1 NOT DUP5 AND SWAP4 POP DUP1 DUP7 AND DUP5 OR SWAP3 POP POP POP SWAP4 SWAP3 POP POP POP JUMP JUMPDEST PUSH0 DUP2 SWAP1 POP SWAP2 SWAP1 POP JUMP JUMPDEST PUSH0 DUP2 SWAP1 POP SWAP2 SWAP1 POP JUMP JUMPDEST PUSH0 PUSH3 0xB31 PUSH3 0xB2B PUSH3 0xB25 DUP5 PUSH3 0xAFF JUMP JUMPDEST PUSH3 0xB08 JUMP JUMPDEST PUSH3 0xAFF JUMP JUMPDEST SWAP1 POP SWAP2 SWAP1 POP JUMP JUMPDEST PUSH0 DUP2 SWAP1 POP SWAP2 SWAP1 POP JUMP JUMPDEST PUSH3 0xB4C DUP4 PUSH3 0xB11 JUMP JUMPDEST PUSH3 0xB64 PUSH3 0xB5B DUP3 PUSH3 0xB38 JUMP JUMPDEST DUP5 DUP5 SLOAD PUSH3 0xAAA JUMP JUMPDEST DUP3 SSTORE POP POP POP POP JUMP JUMPDEST PUSH0 SWAP1 JUMP JUMPDEST PUSH3 0xB7A PUSH3 0xB6C JUMP JUMPDEST PUSH3 0xB87 DUP2 DUP5 DUP5 PUSH3 0xB41 JUMP JUMPDEST POP POP POP JUMP JUMPDEST JUMPDEST DUP2 DUP2 LT ISZERO PUSH3 0xBAE JUMPI PUSH3 0xBA2 PUSH0 DUP3 PUSH3 0xB70 JUMP JUMPDEST PUSH1 0x1 DUP2 ADD SWAP1 POP PUSH3 0xB8D JUMP JUMPDEST POP POP JUMP JUMPDEST PUSH1 0x1F DUP3 GT ISZERO PUSH3 0xBFD JUMPI PUSH3 0xBC7 DUP2 PUSH3 0xA7D JUMP JUMPDEST PUSH3 0xBD2 DUP5 PUSH3 0xA8F JUMP JUMPDEST DUP2 ADD PUSH1 0x20 DUP6 LT ISZERO PUSH3 0xBE2 JUMPI DUP2 SWAP1 POP JUMPDEST PUSH3 0xBFA PUSH3 0xBF1 DUP6 PUSH3 0xA8F JUMP JUMPDEST DUP4 ADD DUP3 PUSH3 0xB8C JUMP JUMPDEST POP POP JUMPDEST POP POP POP JUMP JUMPDEST PUSH0 DUP3 DUP3 SHR SWAP1 POP SWAP3 SWAP2 POP POP JUMP JUMPDEST PUSH0 PUSH3 0xC1F PUSH0 NOT DUP5 PUSH1 0x8 MUL PUSH3 0xC02 JUMP JUMPDEST NOT DUP1 DUP4 AND SWAP2 POP POP SWAP3 SWAP2 POP POP JUMP JUMPDEST PUSH0 PUSH3 0xC39 DUP4 DUP4 PUSH3 0xC0E JUMP JUMPDEST SWAP2 POP DUP3 PUSH1 0x2 MUL DUP3 OR SWAP1 POP SWAP3 SWAP2 POP POP JUMP JUMPDEST PUSH3 0xC54 DUP3 PUSH3 0xA12 JUMP JUMPDEST PUSH8 0xFFFFFFFFFFFFFFFF DUP2 GT ISZERO PUSH3 0xC70 JUMPI PUSH3 0xC6F PUSH3 0x833 JUMP JUMPDEST JUMPDEST PUSH3 0xC7C DUP3 SLOAD PUSH3 0xA49 JUMP JUMPDEST PUSH3 0xC89 DUP3 DUP3 DUP6 PUSH3 0xBB2 JUMP JUMPDEST PUSH0 PUSH1 0x20 SWAP1 POP PUSH1 0x1F DUP4 GT PUSH1 0x1 DUP2 EQ PUSH3 0xCBF JUMPI PUSH0 DUP5 ISZERO PUSH3 0xCAA JUMPI DUP3 DUP8 ADD MLOAD SWAP1 POP JUMPDEST PUSH3 0xCB6 DUP6 DUP3 PUSH3 0xC2C JUMP JUMPDEST DUP7 SSTORE POP PUSH3 0xD25 JUMP JUMPDEST PUSH1 0x1F NOT DUP5 AND PUSH3 0xCCF DUP7 PUSH3 0xA7D JUMP JUMPDEST PUSH0 JUMPDEST DUP3 DUP2 LT ISZERO PUSH3 0xCF8 JUMPI DUP5 DUP10 ADD MLOAD DUP3 SSTORE PUSH1 0x1 DUP3 ADD SWAP2 POP PUSH1 0x20 DUP6 ADD SWAP5 POP PUSH1 0x20 DUP2 ADD SWAP1 POP PUSH3 0xCD1 JUMP JUMPDEST DUP7 DUP4 LT ISZERO PUSH3 0xD18 JUMPI DUP5 DUP10 ADD MLOAD PUSH3 0xD14 PUSH1 0x1F DUP10 AND DUP3 PUSH3 0xC0E JUMP JUMPDEST DUP4 SSTORE POP JUMPDEST PUSH1 0x1 PUSH1 0x2 DUP9 MUL ADD DUP9 SSTORE POP POP POP JUMPDEST POP POP POP POP POP POP JUMP JUMPDEST PUSH0 PUSH20 0xFFFFFFFFFFFFFFFFFFFFFFFFFFFFFFFFFFFFFFFF DUP3 AND SWAP1 POP SWAP2 SWAP1 POP JUMP JUMPDEST PUSH0 PUSH3 0xD58 DUP3 PUSH3 0xD2D JUMP JUMPDEST SWAP1 POP SWAP2 SWAP1 POP JUMP JUMPDEST PUSH3 0xD6A DUP2 PUSH3 0xD4C JUMP JUMPDEST DUP3 MSTORE POP POP JUMP JUMPDEST PUSH0 PUSH1 0x20 DUP3 ADD SWAP1 POP PUSH3 0xD85 PUSH0 DUP4 ADD DUP5 PUSH3 0xD5F JUMP JUMPDEST SWAP3 SWAP2 POP POP JUMP JUMPDEST PUSH32 0x4E487B7100000000000000000000000000000000000000000000000000000000 PUSH0 MSTORE PUSH1 0x11 PUSH1 0x4 MSTORE PUSH1 0x24 PUSH0 REVERT JUMPDEST PUSH0 DUP2 PUSH1 0x1 SHR SWAP1 POP SWAP2 SWAP1 POP JUMP JUMPDEST PUSH0 DUP1 DUP3 SWAP2 POP DUP4 SWAP1 POP JUMPDEST PUSH1 0x1 DUP6 GT ISZERO PUSH3 0xE15 JUMPI DUP1 DUP7 DIV DUP2 GT ISZERO PUSH3 0xDED JUMPI PUSH3 0xDEC PUSH3 0xD8B JUMP JUMPDEST JUMPDEST PUSH1 0x1 DUP6 AND ISZERO PUSH3 0xDFD JUMPI DUP1 DUP3 MUL SWAP2 POP JUMPDEST DUP1 DUP2 MUL SWAP1 POP PUSH3 0xE0D DUP6 PUSH3 0xDB8 JUMP JUMPDEST SWAP5 POP PUSH3 0xDCD JUMP JUMPDEST SWAP5 POP SWAP5 SWAP3 POP POP POP JUMP JUMPDEST PUSH0 DUP3 PUSH3 0xE2F JUMPI PUSH1 0x1 SWAP1 POP PUSH3 0xF01 JUMP JUMPDEST DUP2 PUSH3 0xE3E JUMPI PUSH0 SWAP1 POP PUSH3 0xF01 JUMP JUMPDEST DUP2 PUSH1 0x1 DUP2 EQ PUSH3 0xE57 JUMPI PUSH1 0x2 DUP2 EQ PUSH3 0xE62 JUMPI PUSH3 0xE98 JUMP JUMPDEST PUSH1 0x1 SWAP2 POP POP PUSH3 0xF01 JUMP JUMPDEST PUSH1 0xFF DUP5 GT ISZERO PUSH3 0xE77 JUMPI PUSH3 0xE76 PUSH3 0xD8B JUMP JUMPDEST JUMPDEST DUP4 PUSH1 0x2 EXP SWAP2 POP DUP5 DUP3 GT ISZERO PUSH3 0xE91 JUMPI PUSH3 0xE90 PUSH3 0xD8B JUMP JUMPDEST JUMPDEST POP PUSH3 0xF01 JUMP JUMPDEST POP PUSH1 0x20 DUP4 LT PUSH2 0x133 DUP4 LT AND PUSH1 0x4E DUP5 LT PUSH1 0xB DUP5 LT AND OR ISZERO PUSH3 0xED2 JUMPI DUP3 DUP3 EXP SWAP1 POP DUP4 DUP2 GT ISZERO PUSH3 0xECC JUMPI PUSH3 0xECB PUSH3 0xD8B JUMP JUMPDEST JUMPDEST PUSH3 0xF01 JUMP JUMPDEST PUSH3 0xEE1 DUP5 DUP5 DUP5 PUSH1 0x1 PUSH3 0xDC4 JUMP JUMPDEST SWAP3 POP SWAP1 POP DUP2 DUP5 DIV DUP2 GT ISZERO PUSH3 0xEFB JUMPI PUSH3 0xEFA PUSH3 0xD8B JUMP JUMPDEST JUMPDEST DUP2 DUP2 MUL SWAP1 POP JUMPDEST SWAP4 SWAP3 POP POP POP JUMP JUMPDEST PUSH0 PUSH3 0xF14 DUP3 PUSH3 0xAFF JUMP JUMPDEST SWAP2 POP PUSH3 0xF21 DUP4 PUSH3 0xAFF JUMP JUMPDEST SWAP3 POP PUSH3 0xF50 PUSH32 0xFFFFFFFFFFFFFFFFFFFFFFFFFFFFFFFFFFFFFFFFFFFFFFFFFFFFFFFFFFFFFFFF DUP5 DUP5 PUSH3 0xE1E JUMP JUMPDEST SWAP1 POP SWAP3 SWAP2 POP POP JUMP JUMPDEST PUSH0 PUSH3 0xF64 DUP3 PUSH3 0xAFF JUMP JUMPDEST SWAP2 POP PUSH3 0xF71 DUP4 PUSH3 0xAFF JUMP JUMPDEST SWAP3 POP DUP3 DUP3 MUL PUSH3 0xF81 DUP2 PUSH3 0xAFF JUMP JUMPDEST SWAP2 POP DUP3 DUP3 DIV DUP5 EQ DUP4 ISZERO OR PUSH3 0xF9B JUMPI PUSH3 0xF9A PUSH3 0xD8B JUMP JUMPDEST JUMPDEST POP SWAP3 SWAP2 POP POP JUMP JUMPDEST PUSH0 DUP3 DUP3 MSTORE PUSH1 0x20 DUP3 ADD SWAP1 POP SWAP3 SWAP2 POP POP JUMP JUMPDEST PUSH32 0x546F6B656E207472616E73666572207768696C65207061757365640000000000 PUSH0 DUP3 ADD MSTORE POP JUMP JUMPDEST PUSH0 PUSH3 0xFE8 PUSH1 0x1B DUP4 PUSH3 0xFA2 JUMP JUMPDEST SWAP2 POP PUSH3 0xFF5 DUP3 PUSH3 0xFB2 JUMP JUMPDEST PUSH1 0x20 DUP3 ADD SWAP1 POP SWAP2 SWAP1 POP JUMP JUMPDEST PUSH0 PUSH1 0x20 DUP3 ADD SWAP1 POP DUP2 DUP2 SUB PUSH0 DUP4 ADD MSTORE PUSH3 0x1019 DUP2 PUSH3 0xFDA JUMP JUMPDEST SWAP1 POP SWAP2 SWAP1 POP JUMP JUMPDEST PUSH32 0x45524332304C6F636B61626C653A207472616E7366657220616D6F756E742065 PUSH0 DUP3 ADD MSTORE PUSH32 0x78636565647320756E6C6F636B65642062616C616E6365000000000000000000 PUSH1 0x20 DUP3 ADD MSTORE POP JUMP JUMPDEST PUSH0 PUSH3 0x107C PUSH1 0x37 DUP4 PUSH3 0xFA2 JUMP JUMPDEST SWAP2 POP PUSH3 0x1089 DUP3 PUSH3 0x1020 JUMP JUMPDEST PUSH1 0x40 DUP3 ADD SWAP1 POP SWAP2 SWAP1 POP JUMP JUMPDEST PUSH0 PUSH1 0x20 DUP3 ADD SWAP1 POP DUP2 DUP2 SUB PUSH0 DUP4 ADD MSTORE PUSH3 0x10AD DUP2 PUSH3 0x106E JUMP JUMPDEST SWAP1 POP SWAP2 SWAP1 POP JUMP JUMPDEST PUSH32 0x4E487B7100000000000000000000000000000000000000000000000000000000 PUSH0 MSTORE PUSH1 0x32 PUSH1 0x4 MSTORE PUSH1 0x24 PUSH0 REVERT JUMPDEST PUSH0 PUSH3 0x10ED DUP3 PUSH3 0xAFF JUMP JUMPDEST SWAP2 POP PUSH3 0x10FA DUP4 PUSH3 0xAFF JUMP JUMPDEST SWAP3 POP DUP3 DUP3 ADD SWAP1 POP DUP1 DUP3 GT ISZERO PUSH3 0x1115 JUMPI PUSH3 0x1114 PUSH3 0xD8B JUMP JUMPDEST JUMPDEST SWAP3 SWAP2 POP POP JUMP JUMPDEST PUSH0 PUSH3 0x1127 DUP3 PUSH3 0xAFF JUMP JUMPDEST SWAP2 POP PUSH3 0x1134 DUP4 PUSH3 0xAFF JUMP JUMPDEST SWAP3 POP DUP3 DUP3 SUB SWAP1 POP DUP2 DUP2 GT ISZERO PUSH3 0x114F JUMPI PUSH3 0x114E PUSH3 0xD8B JUMP JUMPDEST JUMPDEST SWAP3 SWAP2 POP POP JUMP JUMPDEST PUSH3 0x1160 DUP2 PUSH3 0xAFF JUMP JUMPDEST DUP3 MSTORE POP POP JUMP JUMPDEST PUSH0 PUSH1 0x60 DUP3 ADD SWAP1 POP PUSH3 0x117B PUSH0 DUP4 ADD DUP7 PUSH3 0xD5F JUMP JUMPDEST PUSH3 0x118A PUSH1 0x20 DUP4 ADD DUP6 PUSH3 0x1155 JUMP JUMPDEST PUSH3 0x1199 PUSH1 0x40 DUP4 ADD DUP5 PUSH3 0x1155 JUMP JUMPDEST SWAP5 SWAP4 POP POP POP POP JUMP JUMPDEST PUSH0 PUSH1 0x20 DUP3 ADD SWAP1 POP PUSH3 0x11B6 PUSH0 DUP4 ADD DUP5 PUSH3 0x1155 JUMP JUMPDEST SWAP3 SWAP2 POP POP JUMP JUMPDEST PUSH2 0x233F DUP1 PUSH3 0x11CA PUSH0 CODECOPY PUSH0 RETURN INVALID PUSH1 0x80 PUSH1 0x40 MSTORE CALLVALUE DUP1 ISZERO PUSH2 0xF JUMPI PUSH0 DUP1 REVERT JUMPDEST POP PUSH1 0x4 CALLDATASIZE LT PUSH2 0x14B JUMPI PUSH0 CALLDATALOAD PUSH1 0xE0 SHR DUP1 PUSH4 0x70A08231 GT PUSH2 0xC1 JUMPI DUP1 PUSH4 0x929EC537 GT PUSH2 0x7A JUMPI DUP1 PUSH4 0x929EC537 EQ PUSH2 0x33B JUMPI DUP1 PUSH4 0x95D89B41 EQ PUSH2 0x36B JUMPI DUP1 PUSH4 0xA9059CBB EQ PUSH2 0x389 JUMPI DUP1 PUSH4 0xD1C46916 EQ PUSH2 0x3B9 JUMPI DUP1 PUSH4 0xDD62ED3E EQ PUSH2 0x3D5 JUMPI DUP1 PUSH4 0xF2FDE38B EQ PUSH2 0x405 JUMPI PUSH2 0x14B JUMP JUMPDEST DUP1 PUSH4 0x70A08231 EQ PUSH2 0x2A1 JUMPI DUP1 PUSH4 0x715018A6 EQ PUSH2 0x2D1 JUMPI DUP1 PUSH4 0x79CC6790 EQ PUSH2 0x2DB JUMPI DUP1 PUSH4 0x8456CB59 EQ PUSH2 0x2F7 JUMPI DUP1 PUSH4 0x8D1FDF2F EQ PUSH2 0x301 JUMPI DUP1 PUSH4 0x8DA5CB5B EQ PUSH2 0x31D JUMPI PUSH2 0x14B JUMP JUMPDEST DUP1 PUSH4 0x38B82092 GT PUSH2 0x113 JUMPI DUP1 PUSH4 0x38B82092 EQ PUSH2 0x209 JUMPI DUP1 PUSH4 0x3F4BA83A EQ PUSH2 0x225 JUMPI DUP1 PUSH4 0x42966C68 EQ PUSH2 0x22F JUMPI DUP1 PUSH4 0x45C8B1A6 EQ PUSH2 0x24B JUMPI DUP1 PUSH4 0x5C975ABB EQ PUSH2 0x267 JUMPI DUP1 PUSH4 0x5E1372F4 EQ PUSH2 0x285 JUMPI PUSH2 0x14B JUMP JUMPDEST DUP1 PUSH4 0x6FDDE03 EQ PUSH2 0x14F JUMPI DUP1 PUSH4 0x95EA7B3 EQ PUSH2 0x16D JUMPI DUP1 PUSH4 0x18160DDD EQ PUSH2 0x19D JUMPI DUP1 PUSH4 0x23B872DD EQ PUSH2 0x1BB JUMPI DUP1 PUSH4 0x313CE567 EQ PUSH2 0x1EB JUMPI JUMPDEST PUSH0 DUP1 REVERT JUMPDEST PUSH2 0x157 PUSH2 0x421 JUMP JUMPDEST PUSH1 0x40 MLOAD PUSH2 0x164 SWAP2 SWAP1 PUSH2 0x1B44 JUMP JUMPDEST PUSH1 0x40 MLOAD DUP1 SWAP2 SUB SWAP1 RETURN JUMPDEST PUSH2 0x187 PUSH1 0x4 DUP1 CALLDATASIZE SUB DUP2 ADD SWAP1 PUSH2 0x182 SWAP2 SWAP1 PUSH2 0x1BF5 JUMP JUMPDEST PUSH2 0x4B1 JUMP JUMPDEST PUSH1 0x40 MLOAD PUSH2 0x194 SWAP2 SWAP1 PUSH2 0x1C4D JUMP JUMPDEST PUSH1 0x40 MLOAD DUP1 SWAP2 SUB SWAP1 RETURN JUMPDEST PUSH2 0x1A5 PUSH2 0x4D3 JUMP JUMPDEST PUSH1 0x40 MLOAD PUSH2 0x1B2 SWAP2 SWAP1 PUSH2 0x1C75 JUMP JUMPDEST PUSH1 0x40 MLOAD DUP1 SWAP2 SUB SWAP1 RETURN JUMPDEST PUSH2 0x1D5 PUSH1 0x4 DUP1 CALLDATASIZE SUB DUP2 ADD SWAP1 PUSH2 0x1D0 SWAP2 SWAP1 PUSH2 0x1C8E JUMP JUMPDEST PUSH2 0x4DC JUMP JUMPDEST PUSH1 0x40 MLOAD PUSH2 0x1E2 SWAP2 SWAP1 PUSH2 0x1C4D JUMP JUMPDEST PUSH1 0x40 MLOAD DUP1 SWAP2 SUB SWAP1 RETURN JUMPDEST PUSH2 0x1F3 PUSH2 0x50A JUMP JUMPDEST PUSH1 0x40 MLOAD PUSH2 0x200 SWAP2 SWAP1 PUSH2 0x1CF9 JUMP JUMPDEST PUSH1 0x40 MLOAD DUP1 SWAP2 SUB SWAP1 RETURN JUMPDEST PUSH2 0x223 PUSH1 0x4 DUP1 CALLDATASIZE SUB DUP2 ADD SWAP1 PUSH2 0x21E SWAP2 SWAP1 PUSH2 0x1D12 JUMP JUMPDEST PUSH2 0x512 JUMP JUMPDEST STOP JUMPDEST PUSH2 0x22D PUSH2 0x540 JUMP JUMPDEST STOP JUMPDEST PUSH2 0x249 PUSH1 0x4 DUP1 CALLDATASIZE SUB DUP2 ADD SWAP1 PUSH2 0x244 SWAP2 SWAP1 PUSH2 0x1D62 JUMP JUMPDEST PUSH2 0x552 JUMP JUMPDEST STOP JUMPDEST PUSH2 0x265 PUSH1 0x4 DUP1 CALLDATASIZE SUB DUP2 ADD SWAP1 PUSH2 0x260 SWAP2 SWAP1 PUSH2 0x1D8D JUMP JUMPDEST PUSH2 0x566 JUMP JUMPDEST STOP JUMPDEST PUSH2 0x26F PUSH2 0x691 JUMP JUMPDEST PUSH1 0x40 MLOAD PUSH2 0x27C SWAP2 SWAP1 PUSH2 0x1C4D JUMP JUMPDEST PUSH1 0x40 MLOAD DUP1 SWAP2 SUB SWAP1 RETURN JUMPDEST PUSH2 0x29F PUSH1 0x4 DUP1 CALLDATASIZE SUB DUP2 ADD SWAP1 PUSH2 0x29A SWAP2 SWAP1 PUSH2 0x1D12 JUMP JUMPDEST PUSH2 0x6A6 JUMP JUMPDEST STOP JUMPDEST PUSH2 0x2BB PUSH1 0x4 DUP1 CALLDATASIZE SUB DUP2 ADD SWAP1 PUSH2 0x2B6 SWAP2 SWAP1 PUSH2 0x1D8D JUMP JUMPDEST PUSH2 0x78A JUMP JUMPDEST PUSH1 0x40 MLOAD PUSH2 0x2C8 SWAP2 SWAP1 PUSH2 0x1C75 JUMP JUMPDEST PUSH1 0x40 MLOAD DUP1 SWAP2 SUB SWAP1 RETURN JUMPDEST PUSH2 0x2D9 PUSH2 0x7CF JUMP JUMPDEST STOP JUMPDEST PUSH2 0x2F5 PUSH1 0x4 DUP1 CALLDATASIZE SUB DUP2 ADD SWAP1 PUSH2 0x2F0 SWAP2 SWAP1 PUSH2 0x1BF5 JUMP JUMPDEST PUSH2 0x7E2 JUMP JUMPDEST STOP JUMPDEST PUSH2 0x2FF PUSH2 0x802 JUMP JUMPDEST STOP JUMPDEST PUSH2 0x31B PUSH1 0x4 DUP1 CALLDATASIZE SUB DUP2 ADD SWAP1 PUSH2 0x316 SWAP2 SWAP1 PUSH2 0x1D8D JUMP JUMPDEST PUSH2 0x814 JUMP JUMPDEST STOP JUMPDEST PUSH2 0x325 PUSH2 0x941 JUMP JUMPDEST PUSH1 0x40 MLOAD PUSH2 0x332 SWAP2 SWAP1 PUSH2 0x1DC7 JUMP JUMPDEST PUSH1 0x40 MLOAD DUP1 SWAP2 SUB SWAP1 RETURN JUMPDEST PUSH2 0x355 PUSH1 0x4 DUP1 CALLDATASIZE SUB DUP2 ADD SWAP1 PUSH2 0x350 SWAP2 SWAP1 PUSH2 0x1D8D JUMP JUMPDEST PUSH2 0x96A JUMP JUMPDEST PUSH1 0x40 MLOAD PUSH2 0x362 SWAP2 SWAP1 PUSH2 0x1C75 JUMP JUMPDEST PUSH1 0x40 MLOAD DUP1 SWAP2 SUB SWAP1 RETURN JUMPDEST PUSH2 0x373 PUSH2 0xAA2 JUMP JUMPDEST PUSH1 0x40 MLOAD PUSH2 0x380 SWAP2 SWAP1 PUSH2 0x1B44 JUMP JUMPDEST PUSH1 0x40 MLOAD DUP1 SWAP2 SUB SWAP1 RETURN JUMPDEST PUSH2 0x3A3 PUSH1 0x4 DUP1 CALLDATASIZE SUB DUP2 ADD SWAP1 PUSH2 0x39E SWAP2 SWAP1 PUSH2 0x1BF5 JUMP JUMPDEST PUSH2 0xB32 JUMP JUMPDEST PUSH1 0x40 MLOAD PUSH2 0x3B0 SWAP2 SWAP1 PUSH2 0x1C4D JUMP JUMPDEST PUSH1 0x40 MLOAD DUP1 SWAP2 SUB SWAP1 RETURN JUMPDEST PUSH2 0x3D3 PUSH1 0x4 DUP1 CALLDATASIZE SUB DUP2 ADD SWAP1 PUSH2 0x3CE SWAP2 SWAP1 PUSH2 0x1D8D JUMP JUMPDEST PUSH2 0xB54 JUMP JUMPDEST STOP JUMPDEST PUSH2 0x3EF PUSH1 0x4 DUP1 CALLDATASIZE SUB DUP2 ADD SWAP1 PUSH2 0x3EA SWAP2 SWAP1 PUSH2 0x1DE0 JUMP JUMPDEST PUSH2 0xE75 JUMP JUMPDEST PUSH1 0x40 MLOAD PUSH2 0x3FC SWAP2 SWAP1 PUSH2 0x1C75 JUMP JUMPDEST PUSH1 0x40 MLOAD DUP1 SWAP2 SUB SWAP1 RETURN JUMPDEST PUSH2 0x41F PUSH1 0x4 DUP1 CALLDATASIZE SUB DUP2 ADD SWAP1 PUSH2 0x41A SWAP2 SWAP1 PUSH2 0x1D8D JUMP JUMPDEST PUSH2 0xEF7 JUMP JUMPDEST STOP JUMPDEST PUSH1 0x60 PUSH1 0x3 DUP1 SLOAD PUSH2 0x430 SWAP1 PUSH2 0x1E4B JUMP JUMPDEST DUP1 PUSH1 0x1F ADD PUSH1 0x20 DUP1 SWAP2 DIV MUL PUSH1 0x20 ADD PUSH1 0x40 MLOAD SWAP1 DUP2 ADD PUSH1 0x40 MSTORE DUP1 SWAP3 SWAP2 SWAP1 DUP2 DUP2 MSTORE PUSH1 0x20 ADD DUP3 DUP1 SLOAD PUSH2 0x45C SWAP1 PUSH2 0x1E4B JUMP JUMPDEST DUP1 ISZERO PUSH2 0x4A7 JUMPI DUP1 PUSH1 0x1F LT PUSH2 0x47E JUMPI PUSH2 0x100 DUP1 DUP4 SLOAD DIV MUL DUP4 MSTORE SWAP2 PUSH1 0x20 ADD SWAP2 PUSH2 0x4A7 JUMP JUMPDEST DUP3 ADD SWAP2 SWAP1 PUSH0 MSTORE PUSH1 0x20 PUSH0 KECCAK256 SWAP1 JUMPDEST DUP2 SLOAD DUP2 MSTORE SWAP1 PUSH1 0x1 ADD SWAP1 PUSH1 0x20 ADD DUP1 DUP4 GT PUSH2 0x48A JUMPI DUP3 SWAP1 SUB PUSH1 0x1F AND DUP3 ADD SWAP2 JUMPDEST POP POP POP POP POP SWAP1 POP SWAP1 JUMP JUMPDEST PUSH0 DUP1 PUSH2 0x4BB PUSH2 0xF7B JUMP JUMPDEST SWAP1 POP PUSH2 0x4C8 DUP2 DUP6 DUP6 PUSH2 0xF82 JUMP JUMPDEST PUSH1 0x1 SWAP2 POP POP SWAP3 SWAP2 POP POP JUMP JUMPDEST PUSH0 PUSH1 0x2 SLOAD SWAP1 POP SWAP1 JUMP JUMPDEST PUSH0 DUP1 PUSH2 0x4E6 PUSH2 0xF7B JUMP JUMPDEST SWAP1 POP PUSH2 0x4F3 DUP6 DUP3 DUP6 PUSH2 0xF94 JUMP JUMPDEST PUSH2 0x4FE DUP6 DUP6 DUP6 PUSH2 0x1026 JUMP JUMPDEST PUSH1 0x1 SWAP2 POP POP SWAP4 SWAP3 POP POP POP JUMP JUMPDEST PUSH0 PUSH1 0x12 SWAP1 POP SWAP1 JUMP JUMPDEST PUSH2 0x51A PUSH2 0x1116 JUMP JUMPDEST PUSH2 0x525 CALLER DUP5 DUP5 PUSH2 0x1026 JUMP JUMPDEST PUSH2 0x53B DUP4 DUP4 DUP4 TIMESTAMP PUSH2 0x536 SWAP2 SWAP1 PUSH2 0x1EA8 JUMP JUMPDEST PUSH2 0x6A6 JUMP JUMPDEST POP POP POP JUMP JUMPDEST PUSH2 0x548 PUSH2 0x1116 JUMP JUMPDEST PUSH2 0x550 PUSH2 0x119D JUMP JUMPDEST JUMP JUMPDEST PUSH2 0x563 PUSH2 0x55D PUSH2 0xF7B JUMP JUMPDEST DUP3 PUSH2 0x11FE JUMP JUMPDEST POP JUMP JUMPDEST PUSH2 0x56E PUSH2 0x1116 JUMP JUMPDEST PUSH1 0x6 PUSH0 DUP3 PUSH20 0xFFFFFFFFFFFFFFFFFFFFFFFFFFFFFFFFFFFFFFFF AND PUSH20 0xFFFFFFFFFFFFFFFFFFFFFFFFFFFFFFFFFFFFFFFF AND DUP2 MSTORE PUSH1 0x20 ADD SWAP1 DUP2 MSTORE PUSH1 0x20 ADD PUSH0 KECCAK256 PUSH0 SWAP1 SLOAD SWAP1 PUSH2 0x100 EXP SWAP1 DIV PUSH1 0xFF AND PUSH2 0x5F7 JUMPI PUSH1 0x40 MLOAD PUSH32 0x8C379A000000000000000000000000000000000000000000000000000000000 DUP2 MSTORE PUSH1 0x4 ADD PUSH2 0x5EE SWAP1 PUSH2 0x1F25 JUMP JUMPDEST PUSH1 0x40 MLOAD DUP1 SWAP2 SUB SWAP1 REVERT JUMPDEST PUSH0 PUSH1 0x6 PUSH0 DUP4 PUSH20 0xFFFFFFFFFFFFFFFFFFFFFFFFFFFFFFFFFFFFFFFF AND PUSH20 0xFFFFFFFFFFFFFFFFFFFFFFFFFFFFFFFFFFFFFFFF AND DUP2 MSTORE PUSH1 0x20 ADD SWAP1 DUP2 MSTORE PUSH1 0x20 ADD PUSH0 KECCAK256 PUSH0 PUSH2 0x100 EXP DUP2 SLOAD DUP2 PUSH1 0xFF MUL NOT AND SWAP1 DUP4 ISZERO ISZERO MUL OR SWAP1 SSTORE POP DUP1 PUSH20 0xFFFFFFFFFFFFFFFFFFFFFFFFFFFFFFFFFFFFFFFF AND PUSH32 0xF915CD9FE234DE6E8D3AFE7BF2388D35B2B6D48E8C629A24602019BDE79C213A PUSH1 0x40 MLOAD PUSH1 0x40 MLOAD DUP1 SWAP2 SUB SWAP1 LOG2 POP JUMP JUMPDEST PUSH0 PUSH1 0x5 PUSH0 SWAP1 SLOAD SWAP1 PUSH2 0x100 EXP SWAP1 DIV PUSH1 0xFF AND SWAP1 POP SWAP1 JUMP JUMPDEST PUSH2 0x6AE PUSH2 0x1116 JUMP JUMPDEST DUP2 PUSH2 0x6B8 DUP5 PUSH2 0x78A JUMP JUMPDEST LT ISZERO PUSH2 0x6F9 JUMPI PUSH1 0x40 MLOAD PUSH32 0x8C379A000000000000000000000000000000000000000000000000000000000 DUP2 MSTORE PUSH1 0x4 ADD PUSH2 0x6F0 SWAP1 PUSH2 0x1F8D JUMP JUMPDEST PUSH1 0x40 MLOAD DUP1 SWAP2 SUB SWAP1 REVERT JUMPDEST PUSH1 0x7 PUSH0 DUP5 PUSH20 0xFFFFFFFFFFFFFFFFFFFFFFFFFFFFFFFFFFFFFFFF AND PUSH20 0xFFFFFFFFFFFFFFFFFFFFFFFFFFFFFFFFFFFFFFFF AND DUP2 MSTORE PUSH1 0x20 ADD SWAP1 DUP2 MSTORE PUSH1 0x20 ADD PUSH0 KECCAK256 PUSH1 0x40 MLOAD DUP1 PUSH1 0x40 ADD PUSH1 0x40 MSTORE DUP1 DUP5 DUP2 MSTORE PUSH1 0x20 ADD DUP4 DUP2 MSTORE POP SWAP1 DUP1 PUSH1 0x1 DUP2 SLOAD ADD DUP1 DUP3 SSTORE DUP1 SWAP2 POP POP PUSH1 0x1 SWAP1 SUB SWAP1 PUSH0 MSTORE PUSH1 0x20 PUSH0 KECCAK256 SWAP1 PUSH1 0x2 MUL ADD PUSH0 SWAP1 SWAP2 SWAP1 SWAP2 SWAP1 SWAP2 POP PUSH0 DUP3 ADD MLOAD DUP2 PUSH0 ADD SSTORE PUSH1 0x20 DUP3 ADD MLOAD DUP2 PUSH1 0x1 ADD SSTORE POP POP POP POP POP JUMP JUMPDEST PUSH0 DUP1 PUSH0 DUP4 PUSH20 0xFFFFFFFFFFFFFFFFFFFFFFFFFFFFFFFFFFFFFFFF AND PUSH20 0xFFFFFFFFFFFFFFFFFFFFFFFFFFFFFFFFFFFFFFFF AND DUP2 MSTORE PUSH1 0x20 ADD SWAP1 DUP2 MSTORE PUSH1 0x20 ADD PUSH0 KECCAK256 SLOAD SWAP1 POP SWAP2 SWAP1 POP JUMP JUMPDEST PUSH2 0x7D7 PUSH2 0x1116 JUMP JUMPDEST PUSH2 0x7E0 PUSH0 PUSH2 0x127D JUMP JUMPDEST JUMP JUMPDEST PUSH2 0x7F4 DUP3 PUSH2 0x7EE PUSH2 0xF7B JUMP JUMPDEST DUP4 PUSH2 0xF94 JUMP JUMPDEST PUSH2 0x7FE DUP3 DUP3 PUSH2 0x11FE JUMP JUMPDEST POP POP JUMP JUMPDEST PUSH2 0x80A PUSH2 0x1116 JUMP JUMPDEST PUSH2 0x812 PUSH2 0x1342 JUMP JUMPDEST JUMP JUMPDEST PUSH2 0x81C PUSH2 0x1116 JUMP JUMPDEST PUSH1 0x6 PUSH0 DUP3 PUSH20 0xFFFFFFFFFFFFFFFFFFFFFFFFFFFFFFFFFFFFFFFF AND PUSH20 0xFFFFFFFFFFFFFFFFFFFFFFFFFFFFFFFFFFFFFFFF AND DUP2 MSTORE PUSH1 0x20 ADD SWAP1 DUP2 MSTORE PUSH1 0x20 ADD PUSH0 KECCAK256 PUSH0 SWAP1 SLOAD SWAP1 PUSH2 0x100 EXP SWAP1 DIV PUSH1 0xFF AND ISZERO PUSH2 0x8A6 JUMPI PUSH1 0x40 MLOAD PUSH32 0x8C379A000000000000000000000000000000000000000000000000000000000 DUP2 MSTORE PUSH1 0x4 ADD PUSH2 0x89D SWAP1 PUSH2 0x1FF5 JUMP JUMPDEST PUSH1 0x40 MLOAD DUP1 SWAP2 SUB SWAP1 REVERT JUMPDEST PUSH1 0x1 PUSH1 0x6 PUSH0 DUP4 PUSH20 0xFFFFFFFFFFFFFFFFFFFFFFFFFFFFFFFFFFFFFFFF AND PUSH20 0xFFFFFFFFFFFFFFFFFFFFFFFFFFFFFFFFFFFFFFFF AND DUP2 MSTORE PUSH1 0x20 ADD SWAP1 DUP2 MSTORE PUSH1 0x20 ADD PUSH0 KECCAK256 PUSH0 PUSH2 0x100 EXP DUP2 SLOAD DUP2 PUSH1 0xFF MUL NOT AND SWAP1 DUP4 ISZERO ISZERO MUL OR SWAP1 SSTORE POP DUP1 PUSH20 0xFFFFFFFFFFFFFFFFFFFFFFFFFFFFFFFFFFFFFFFF AND PUSH32 0x4F2A367E694E71282F29AB5EAA04C4C0BE45AC5BF2CA74FB67068B98BDC2887D PUSH1 0x40 MLOAD PUSH1 0x40 MLOAD DUP1 SWAP2 SUB SWAP1 LOG2 POP JUMP JUMPDEST PUSH0 PUSH1 0x5 PUSH1 0x1 SWAP1 SLOAD SWAP1 PUSH2 0x100 EXP SWAP1 DIV PUSH20 0xFFFFFFFFFFFFFFFFFFFFFFFFFFFFFFFFFFFFFFFF AND SWAP1 POP SWAP1 JUMP JUMPDEST PUSH0 DUP1 PUSH0 SWAP1 POP PUSH0 JUMPDEST PUSH1 0x7 PUSH0 DUP6 PUSH20 0xFFFFFFFFFFFFFFFFFFFFFFFFFFFFFFFFFFFFFFFF AND PUSH20 0xFFFFFFFFFFFFFFFFFFFFFFFFFFFFFFFFFFFFFFFF AND DUP2 MSTORE PUSH1 0x20 ADD SWAP1 DUP2 MSTORE PUSH1 0x20 ADD PUSH0 KECCAK256 DUP1 SLOAD SWAP1 POP DUP2 LT ISZERO PUSH2 0xA98 JUMPI TIMESTAMP PUSH1 0x7 PUSH0 DUP7 PUSH20 0xFFFFFFFFFFFFFFFFFFFFFFFFFFFFFFFFFFFFFFFF AND PUSH20 0xFFFFFFFFFFFFFFFFFFFFFFFFFFFFFFFFFFFFFFFF AND DUP2 MSTORE PUSH1 0x20 ADD SWAP1 DUP2 MSTORE PUSH1 0x20 ADD PUSH0 KECCAK256 DUP3 DUP2 SLOAD DUP2 LT PUSH2 0xA09 JUMPI PUSH2 0xA08 PUSH2 0x2013 JUMP JUMPDEST JUMPDEST SWAP1 PUSH0 MSTORE PUSH1 0x20 PUSH0 KECCAK256 SWAP1 PUSH1 0x2 MUL ADD PUSH1 0x1 ADD SLOAD GT ISZERO PUSH2 0xA8B JUMPI PUSH1 0x7 PUSH0 DUP6 PUSH20 0xFFFFFFFFFFFFFFFFFFFFFFFFFFFFFFFFFFFFFFFF AND PUSH20 0xFFFFFFFFFFFFFFFFFFFFFFFFFFFFFFFFFFFFFFFF AND DUP2 MSTORE PUSH1 0x20 ADD SWAP1 DUP2 MSTORE PUSH1 0x20 ADD PUSH0 KECCAK256 DUP2 DUP2 SLOAD DUP2 LT PUSH2 0xA6E JUMPI PUSH2 0xA6D PUSH2 0x2013 JUMP JUMPDEST JUMPDEST SWAP1 PUSH0 MSTORE PUSH1 0x20 PUSH0 KECCAK256 SWAP1 PUSH1 0x2 MUL ADD PUSH0 ADD SLOAD DUP3 PUSH2 0xA88 SWAP2 SWAP1 PUSH2 0x1EA8 JUMP JUMPDEST SWAP2 POP JUMPDEST DUP1 DUP1 PUSH1 0x1 ADD SWAP2 POP POP PUSH2 0x971 JUMP JUMPDEST POP DUP1 SWAP2 POP POP SWAP2 SWAP1 POP JUMP JUMPDEST PUSH1 0x60 PUSH1 0x4 DUP1 SLOAD PUSH2 0xAB1 SWAP1 PUSH2 0x1E4B JUMP JUMPDEST DUP1 PUSH1 0x1F ADD PUSH1 0x20 DUP1 SWAP2 DIV MUL PUSH1 0x20 ADD PUSH1 0x40 MLOAD SWAP1 DUP2 ADD PUSH1 0x40 MSTORE DUP1 SWAP3 SWAP2 SWAP1 DUP2 DUP2 MSTORE PUSH1 0x20 ADD DUP3 DUP1 SLOAD PUSH2 0xADD SWAP1 PUSH2 0x1E4B JUMP JUMPDEST DUP1 ISZERO PUSH2 0xB28 JUMPI DUP1 PUSH1 0x1F LT PUSH2 0xAFF JUMPI PUSH2 0x100 DUP1 DUP4 SLOAD DIV MUL DUP4 MSTORE SWAP2 PUSH1 0x20 ADD SWAP2 PUSH2 0xB28 JUMP JUMPDEST DUP3 ADD SWAP2 SWAP1 PUSH0 MSTORE PUSH1 0x20 PUSH0 KECCAK256 SWAP1 JUMPDEST DUP2 SLOAD DUP2 MSTORE SWAP1 PUSH1 0x1 ADD SWAP1 PUSH1 0x20 ADD DUP1 DUP4 GT PUSH2 0xB0B JUMPI DUP3 SWAP1 SUB PUSH1 0x1F AND DUP3 ADD SWAP2 JUMPDEST POP POP POP POP POP SWAP1 POP SWAP1 JUMP JUMPDEST PUSH0 DUP1 PUSH2 0xB3C PUSH2 0xF7B JUMP JUMPDEST SWAP1 POP PUSH2 0xB49 DUP2 DUP6 DUP6 PUSH2 0x1026 JUMP JUMPDEST PUSH1 0x1 SWAP2 POP POP SWAP3 SWAP2 POP POP JUMP JUMPDEST PUSH0 DUP1 JUMPDEST PUSH1 0x7 PUSH0 DUP5 PUSH20 0xFFFFFFFFFFFFFFFFFFFFFFFFFFFFFFFFFFFFFFFF AND PUSH20 0xFFFFFFFFFFFFFFFFFFFFFFFFFFFFFFFFFFFFFFFF AND DUP2 MSTORE PUSH1 0x20 ADD SWAP1 DUP2 MSTORE PUSH1 0x20 ADD PUSH0 KECCAK256 DUP1 SLOAD SWAP1 POP DUP2 LT ISZERO PUSH2 0xE19 JUMPI TIMESTAMP PUSH1 0x7 PUSH0 DUP6 PUSH20 0xFFFFFFFFFFFFFFFFFFFFFFFFFFFFFFFFFFFFFFFF AND PUSH20 0xFFFFFFFFFFFFFFFFFFFFFFFFFFFFFFFFFFFFFFFF AND DUP2 MSTORE PUSH1 0x20 ADD SWAP1 DUP2 MSTORE PUSH1 0x20 ADD PUSH0 KECCAK256 DUP3 DUP2 SLOAD DUP2 LT PUSH2 0xBEF JUMPI PUSH2 0xBEE PUSH2 0x2013 JUMP JUMPDEST JUMPDEST SWAP1 PUSH0 MSTORE PUSH1 0x20 PUSH0 KECCAK256 SWAP1 PUSH1 0x2 MUL ADD PUSH1 0x1 ADD SLOAD GT PUSH2 0xE06 JUMPI PUSH1 0x7 PUSH0 DUP5 PUSH20 0xFFFFFFFFFFFFFFFFFFFFFFFFFFFFFFFFFFFFFFFF AND PUSH20 0xFFFFFFFFFFFFFFFFFFFFFFFFFFFFFFFFFFFFFFFF AND DUP2 MSTORE PUSH1 0x20 ADD SWAP1 DUP2 MSTORE PUSH1 0x20 ADD PUSH0 KECCAK256 DUP2 DUP2 SLOAD DUP2 LT PUSH2 0xC53 JUMPI PUSH2 0xC52 PUSH2 0x2013 JUMP JUMPDEST JUMPDEST SWAP1 PUSH0 MSTORE PUSH1 0x20 PUSH0 KECCAK256 SWAP1 PUSH1 0x2 MUL ADD PUSH0 ADD SLOAD DUP3 PUSH2 0xC6D SWAP2 SWAP1 PUSH2 0x1EA8 JUMP JUMPDEST SWAP2 POP PUSH1 0x7 PUSH0 DUP5 PUSH20 0xFFFFFFFFFFFFFFFFFFFFFFFFFFFFFFFFFFFFFFFF AND PUSH20 0xFFFFFFFFFFFFFFFFFFFFFFFFFFFFFFFFFFFFFFFF AND DUP2 MSTORE PUSH1 0x20 ADD SWAP1 DUP2 MSTORE PUSH1 0x20 ADD PUSH0 KECCAK256 PUSH1 0x1 PUSH1 0x7 PUSH0 DUP7 PUSH20 0xFFFFFFFFFFFFFFFFFFFFFFFFFFFFFFFFFFFFFFFF AND PUSH20 0xFFFFFFFFFFFFFFFFFFFFFFFFFFFFFFFFFFFFFFFF AND DUP2 MSTORE PUSH1 0x20 ADD SWAP1 DUP2 MSTORE PUSH1 0x20 ADD PUSH0 KECCAK256 DUP1 SLOAD SWAP1 POP PUSH2 0xCF9 SWAP2 SWAP1 PUSH2 0x2040 JUMP JUMPDEST DUP2 SLOAD DUP2 LT PUSH2 0xD0A JUMPI PUSH2 0xD09 PUSH2 0x2013 JUMP JUMPDEST JUMPDEST SWAP1 PUSH0 MSTORE PUSH1 0x20 PUSH0 KECCAK256 SWAP1 PUSH1 0x2 MUL ADD PUSH1 0x7 PUSH0 DUP6 PUSH20 0xFFFFFFFFFFFFFFFFFFFFFFFFFFFFFFFFFFFFFFFF AND PUSH20 0xFFFFFFFFFFFFFFFFFFFFFFFFFFFFFFFFFFFFFFFF AND DUP2 MSTORE PUSH1 0x20 ADD SWAP1 DUP2 MSTORE PUSH1 0x20 ADD PUSH0 KECCAK256 DUP3 DUP2 SLOAD DUP2 LT PUSH2 0xD65 JUMPI PUSH2 0xD64 PUSH2 0x2013 JUMP JUMPDEST JUMPDEST SWAP1 PUSH0 MSTORE PUSH1 0x20 PUSH0 KECCAK256 SWAP1 PUSH1 0x2 MUL ADD PUSH0 DUP3 ADD SLOAD DUP2 PUSH0 ADD SSTORE PUSH1 0x1 DUP3 ADD SLOAD DUP2 PUSH1 0x1 ADD SSTORE SWAP1 POP POP PUSH1 0x7 PUSH0 DUP5 PUSH20 0xFFFFFFFFFFFFFFFFFFFFFFFFFFFFFFFFFFFFFFFF AND PUSH20 0xFFFFFFFFFFFFFFFFFFFFFFFFFFFFFFFFFFFFFFFF AND DUP2 MSTORE PUSH1 0x20 ADD SWAP1 DUP2 MSTORE PUSH1 0x20 ADD PUSH0 KECCAK256 DUP1 SLOAD DUP1 PUSH2 0xDD3 JUMPI PUSH2 0xDD2 PUSH2 0x2073 JUMP JUMPDEST JUMPDEST PUSH1 0x1 SWAP1 SUB DUP2 DUP2 SWAP1 PUSH0 MSTORE PUSH1 0x20 PUSH0 KECCAK256 SWAP1 PUSH1 0x2 MUL ADD PUSH0 DUP1 DUP3 ADD PUSH0 SWAP1 SSTORE PUSH1 0x1 DUP3 ADD PUSH0 SWAP1 SSTORE POP POP SWAP1 SSTORE DUP1 DUP1 PUSH2 0xE02 SWAP1 PUSH2 0x20A0 JUMP JUMPDEST SWAP2 POP POP JUMPDEST DUP1 DUP1 PUSH2 0xE11 SWAP1 PUSH2 0x20C7 JUMP JUMPDEST SWAP2 POP POP PUSH2 0xB57 JUMP JUMPDEST POP PUSH0 DUP2 GT ISZERO PUSH2 0xE71 JUMPI DUP2 PUSH20 0xFFFFFFFFFFFFFFFFFFFFFFFFFFFFFFFFFFFFFFFF AND PUSH32 0x622CA42598AB680A7DEF4A7346E1963A82207CF42A5DDB8056AD62CFBDA19B88 DUP3 PUSH1 0x40 MLOAD PUSH2 0xE68 SWAP2 SWAP1 PUSH2 0x1C75 JUMP JUMPDEST PUSH1 0x40 MLOAD DUP1 SWAP2 SUB SWAP1 LOG2 JUMPDEST POP POP JUMP JUMPDEST PUSH0 PUSH1 0x1 PUSH0 DUP5 PUSH20 0xFFFFFFFFFFFFFFFFFFFFFFFFFFFFFFFFFFFFFFFF AND PUSH20 0xFFFFFFFFFFFFFFFFFFFFFFFFFFFFFFFFFFFFFFFF AND DUP2 MSTORE PUSH1 0x20 ADD SWAP1 DUP2 MSTORE PUSH1 0x20 ADD PUSH0 KECCAK256 PUSH0 DUP4 PUSH20 0xFFFFFFFFFFFFFFFFFFFFFFFFFFFFFFFFFFFFFFFF AND PUSH20 0xFFFFFFFFFFFFFFFFFFFFFFFFFFFFFFFFFFFFFFFF AND DUP2 MSTORE PUSH1 0x20 ADD SWAP1 DUP2 MSTORE PUSH1 0x20 ADD PUSH0 KECCAK256 SLOAD SWAP1 POP SWAP3 SWAP2 POP POP JUMP JUMPDEST PUSH2 0xEFF PUSH2 0x1116 JUMP JUMPDEST PUSH0 PUSH20 0xFFFFFFFFFFFFFFFFFFFFFFFFFFFFFFFFFFFFFFFF AND DUP2 PUSH20 0xFFFFFFFFFFFFFFFFFFFFFFFFFFFFFFFFFFFFFFFF AND SUB PUSH2 0xF6F JUMPI PUSH0 PUSH1 0x40 MLOAD PUSH32 0x1E4FBDF700000000000000000000000000000000000000000000000000000000 DUP2 MSTORE PUSH1 0x4 ADD PUSH2 0xF66 SWAP2 SWAP1 PUSH2 0x1DC7 JUMP JUMPDEST PUSH1 0x40 MLOAD DUP1 SWAP2 SUB SWAP1 REVERT JUMPDEST PUSH2 0xF78 DUP2 PUSH2 0x127D JUMP JUMPDEST POP JUMP JUMPDEST PUSH0 CALLER SWAP1 POP SWAP1 JUMP JUMPDEST PUSH2 0xF8F DUP4 DUP4 DUP4 PUSH1 0x1 PUSH2 0x13A4 JUMP JUMPDEST POP POP POP JUMP JUMPDEST PUSH0 PUSH2 0xF9F DUP5 DUP5 PUSH2 0xE75 JUMP JUMPDEST SWAP1 POP PUSH32 0xFFFFFFFFFFFFFFFFFFFFFFFFFFFFFFFFFFFFFFFFFFFFFFFFFFFFFFFFFFFFFFFF DUP2 EQ PUSH2 0x1020 JUMPI DUP2 DUP2 LT ISZERO PUSH2 0x1011 JUMPI DUP3 DUP2 DUP4 PUSH1 0x40 MLOAD PUSH32 0xFB8F41B200000000000000000000000000000000000000000000000000000000 DUP2 MSTORE PUSH1 0x4 ADD PUSH2 0x1008 SWAP4 SWAP3 SWAP2 SWAP1 PUSH2 0x210E JUMP JUMPDEST PUSH1 0x40 MLOAD DUP1 SWAP2 SUB SWAP1 REVERT JUMPDEST PUSH2 0x101F DUP5 DUP5 DUP5 DUP5 SUB PUSH0 PUSH2 0x13A4 JUMP JUMPDEST JUMPDEST POP POP POP POP JUMP JUMPDEST PUSH0 PUSH20 0xFFFFFFFFFFFFFFFFFFFFFFFFFFFFFFFFFFFFFFFF AND DUP4 PUSH20 0xFFFFFFFFFFFFFFFFFFFFFFFFFFFFFFFFFFFFFFFF AND SUB PUSH2 0x1096 JUMPI PUSH0 PUSH1 0x40 MLOAD PUSH32 0x96C6FD1E00000000000000000000000000000000000000000000000000000000 DUP2 MSTORE PUSH1 0x4 ADD PUSH2 0x108D SWAP2 SWAP1 PUSH2 0x1DC7 JUMP JUMPDEST PUSH1 0x40 MLOAD DUP1 SWAP2 SUB SWAP1 REVERT JUMPDEST PUSH0 PUSH20 0xFFFFFFFFFFFFFFFFFFFFFFFFFFFFFFFFFFFFFFFF AND DUP3 PUSH20 0xFFFFFFFFFFFFFFFFFFFFFFFFFFFFFFFFFFFFFFFF AND SUB PUSH2 0x1106 JUMPI PUSH0 PUSH1 0x40 MLOAD PUSH32 0xEC442F0500000000000000000000000000000000000000000000000000000000 DUP2 MSTORE PUSH1 0x4 ADD PUSH2 0x10FD SWAP2 SWAP1 PUSH2 0x1DC7 JUMP JUMPDEST PUSH1 0x40 MLOAD DUP1 SWAP2 SUB SWAP1 REVERT JUMPDEST PUSH2 0x1111 DUP4 DUP4 DUP4 PUSH2 0x1573 JUMP JUMPDEST POP POP POP JUMP JUMPDEST PUSH2 0x111E PUSH2 0xF7B JUMP JUMPDEST PUSH20 0xFFFFFFFFFFFFFFFFFFFFFFFFFFFFFFFFFFFFFFFF AND PUSH2 0x113C PUSH2 0x941 JUMP JUMPDEST PUSH20 0xFFFFFFFFFFFFFFFFFFFFFFFFFFFFFFFFFFFFFFFF AND EQ PUSH2 0x119B JUMPI PUSH2 0x115F PUSH2 0xF7B JUMP JUMPDEST PUSH1 0x40 MLOAD PUSH32 0x118CDAA700000000000000000000000000000000000000000000000000000000 DUP2 MSTORE PUSH1 0x4 ADD PUSH2 0x1192 SWAP2 SWAP1 PUSH2 0x1DC7 JUMP JUMPDEST PUSH1 0x40 MLOAD DUP1 SWAP2 SUB SWAP1 REVERT JUMPDEST JUMP JUMPDEST PUSH2 0x11A5 PUSH2 0x16BF JUMP JUMPDEST PUSH0 PUSH1 0x5 PUSH0 PUSH2 0x100 EXP DUP2 SLOAD DUP2 PUSH1 0xFF MUL NOT AND SWAP1 DUP4 ISZERO ISZERO MUL OR SWAP1 SSTORE POP PUSH32 0x5DB9EE0A495BF2E6FF9C91A7834C1BA4FDD244A5E8AA4E537BD38AEAE4B073AA PUSH2 0x11E7 PUSH2 0xF7B JUMP JUMPDEST PUSH1 0x40 MLOAD PUSH2 0x11F4 SWAP2 SWAP1 PUSH2 0x1DC7 JUMP JUMPDEST PUSH1 0x40 MLOAD DUP1 SWAP2 SUB SWAP1 LOG1 JUMP JUMPDEST PUSH0 PUSH20 0xFFFFFFFFFFFFFFFFFFFFFFFFFFFFFFFFFFFFFFFF AND DUP3 PUSH20 0xFFFFFFFFFFFFFFFFFFFFFFFFFFFFFFFFFFFFFFFF AND SUB PUSH2 0x126E JUMPI PUSH0 PUSH1 0x40 MLOAD PUSH32 0x96C6FD1E00000000000000000000000000000000000000000000000000000000 DUP2 MSTORE PUSH1 0x4 ADD PUSH2 0x1265 SWAP2 SWAP1 PUSH2 0x1DC7 JUMP JUMPDEST PUSH1 0x40 MLOAD DUP1 SWAP2 SUB SWAP1 REVERT JUMPDEST PUSH2 0x1279 DUP3 PUSH0 DUP4 PUSH2 0x1573 JUMP JUMPDEST POP POP JUMP JUMPDEST PUSH0 PUSH1 0x5 PUSH1 0x1 SWAP1 SLOAD SWAP1 PUSH2 0x100 EXP SWAP1 DIV PUSH20 0xFFFFFFFFFFFFFFFFFFFFFFFFFFFFFFFFFFFFFFFF AND SWAP1 POP DUP2 PUSH1 0x5 PUSH1 0x1 PUSH2 0x100 EXP DUP2 SLOAD DUP2 PUSH20 0xFFFFFFFFFFFFFFFFFFFFFFFFFFFFFFFFFFFFFFFF MUL NOT AND SWAP1 DUP4 PUSH20 0xFFFFFFFFFFFFFFFFFFFFFFFFFFFFFFFFFFFFFFFF AND MUL OR SWAP1 SSTORE POP DUP2 PUSH20 0xFFFFFFFFFFFFFFFFFFFFFFFFFFFFFFFFFFFFFFFF AND DUP2 PUSH20 0xFFFFFFFFFFFFFFFFFFFFFFFFFFFFFFFFFFFFFFFF AND PUSH32 0x8BE0079C531659141344CD1FD0A4F28419497F9722A3DAAFE3B4186F6B6457E0 PUSH1 0x40 MLOAD PUSH1 0x40 MLOAD DUP1 SWAP2 SUB SWAP1 LOG3 POP POP JUMP JUMPDEST PUSH2 0x134A PUSH2 0x1708 JUMP JUMPDEST PUSH1 0x1 PUSH1 0x5 PUSH0 PUSH2 0x100 EXP DUP2 SLOAD DUP2 PUSH1 0xFF MUL NOT AND SWAP1 DUP4 ISZERO ISZERO MUL OR SWAP1 SSTORE POP PUSH32 0x62E78CEA01BEE320CD4E420270B5EA74000D11B0C9F74754EBDBFC544B05A258 PUSH2 0x138D PUSH2 0xF7B JUMP JUMPDEST PUSH1 0x40 MLOAD PUSH2 0x139A SWAP2 SWAP1 PUSH2 0x1DC7 JUMP JUMPDEST PUSH1 0x40 MLOAD DUP1 SWAP2 SUB SWAP1 LOG1 JUMP JUMPDEST PUSH0 PUSH20 0xFFFFFFFFFFFFFFFFFFFFFFFFFFFFFFFFFFFFFFFF AND DUP5 PUSH20 0xFFFFFFFFFFFFFFFFFFFFFFFFFFFFFFFFFFFFFFFF AND SUB PUSH2 0x1414 JUMPI PUSH0 PUSH1 0x40 MLOAD PUSH32 0xE602DF0500000000000000000000000000000000000000000000000000000000 DUP2 MSTORE PUSH1 0x4 ADD PUSH2 0x140B SWAP2 SWAP1 PUSH2 0x1DC7 JUMP JUMPDEST PUSH1 0x40 MLOAD DUP1 SWAP2 SUB SWAP1 REVERT JUMPDEST PUSH0 PUSH20 0xFFFFFFFFFFFFFFFFFFFFFFFFFFFFFFFFFFFFFFFF AND DUP4 PUSH20 0xFFFFFFFFFFFFFFFFFFFFFFFFFFFFFFFFFFFFFFFF AND SUB PUSH2 0x1484 JUMPI PUSH0 PUSH1 0x40 MLOAD PUSH32 0x94280D6200000000000000000000000000000000000000000000000000000000 DUP2 MSTORE PUSH1 0x4 ADD PUSH2 0x147B SWAP2 SWAP1 PUSH2 0x1DC7 JUMP JUMPDEST PUSH1 0x40 MLOAD DUP1 SWAP2 SUB SWAP1 REVERT JUMPDEST DUP2 PUSH1 0x1 PUSH0 DUP7 PUSH20 0xFFFFFFFFFFFFFFFFFFFFFFFFFFFFFFFFFFFFFFFF AND PUSH20 0xFFFFFFFFFFFFFFFFFFFFFFFFFFFFFFFFFFFFFFFF AND DUP2 MSTORE PUSH1 0x20 ADD SWAP1 DUP2 MSTORE PUSH1 0x20 ADD PUSH0 KECCAK256 PUSH0 DUP6 PUSH20 0xFFFFFFFFFFFFFFFFFFFFFFFFFFFFFFFFFFFFFFFF AND PUSH20 0xFFFFFFFFFFFFFFFFFFFFFFFFFFFFFFFFFFFFFFFF AND DUP2 MSTORE PUSH1 0x20 ADD SWAP1 DUP2 MSTORE PUSH1 0x20 ADD PUSH0 KECCAK256 DUP2 SWAP1 SSTORE POP DUP1 ISZERO PUSH2 0x156D JUMPI DUP3 PUSH20 0xFFFFFFFFFFFFFFFFFFFFFFFFFFFFFFFFFFFFFFFF AND DUP5 PUSH20 0xFFFFFFFFFFFFFFFFFFFFFFFFFFFFFFFFFFFFFFFF AND PUSH32 0x8C5BE1E5EBEC7D5BD14F71427D1E84F3DD0314C0F7B2291E5B200AC8C7C3B925 DUP5 PUSH1 0x40 MLOAD PUSH2 0x1564 SWAP2 SWAP1 PUSH2 0x1C75 JUMP JUMPDEST PUSH1 0x40 MLOAD DUP1 SWAP2 SUB SWAP1 LOG3 JUMPDEST POP POP POP POP JUMP JUMPDEST PUSH0 PUSH20 0xFFFFFFFFFFFFFFFFFFFFFFFFFFFFFFFFFFFFFFFF AND DUP4 PUSH20 0xFFFFFFFFFFFFFFFFFFFFFFFFFFFFFFFFFFFFFFFF AND EQ ISZERO DUP1 ISZERO PUSH2 0x15DB JUMPI POP PUSH0 PUSH20 0xFFFFFFFFFFFFFFFFFFFFFFFFFFFFFFFFFFFFFFFF AND DUP3 PUSH20 0xFFFFFFFFFFFFFFFFFFFFFFFFFFFFFFFFFFFFFFFF AND EQ ISZERO JUMPDEST ISZERO PUSH2 0x16AF JUMPI PUSH2 0x15E8 PUSH2 0x691 JUMP JUMPDEST ISZERO DUP1 PUSH2 0x1626 JUMPI POP PUSH2 0x15F7 PUSH2 0x941 JUMP JUMPDEST PUSH20 0xFFFFFFFFFFFFFFFFFFFFFFFFFFFFFFFFFFFFFFFF AND CALLER PUSH20 0xFFFFFFFFFFFFFFFFFFFFFFFFFFFFFFFFFFFFFFFF AND EQ JUMPDEST PUSH2 0x1665 JUMPI PUSH1 0x40 MLOAD PUSH32 0x8C379A000000000000000000000000000000000000000000000000000000000 DUP2 MSTORE PUSH1 0x4 ADD PUSH2 0x165C SWAP1 PUSH2 0x218D JUMP JUMPDEST PUSH1 0x40 MLOAD DUP1 SWAP2 SUB SWAP1 REVERT JUMPDEST PUSH2 0x166F DUP4 DUP3 PUSH2 0x1752 JUMP JUMPDEST PUSH2 0x16AE JUMPI PUSH1 0x40 MLOAD PUSH32 0x8C379A000000000000000000000000000000000000000000000000000000000 DUP2 MSTORE PUSH1 0x4 ADD PUSH2 0x16A5 SWAP1 PUSH2 0x221B JUMP JUMPDEST PUSH1 0x40 MLOAD DUP1 SWAP2 SUB SWAP1 REVERT JUMPDEST JUMPDEST PUSH2 0x16BA DUP4 DUP4 DUP4 PUSH2 0x18A1 JUMP JUMPDEST POP POP POP JUMP JUMPDEST PUSH2 0x16C7 PUSH2 0x691 JUMP JUMPDEST PUSH2 0x1706 JUMPI PUSH1 0x40 MLOAD PUSH32 0x8C379A000000000000000000000000000000000000000000000000000000000 DUP2 MSTORE PUSH1 0x4 ADD PUSH2 0x16FD SWAP1 PUSH2 0x2283 JUMP JUMPDEST PUSH1 0x40 MLOAD DUP1 SWAP2 SUB SWAP1 REVERT JUMPDEST JUMP JUMPDEST PUSH2 0x1710 PUSH2 0x691 JUMP JUMPDEST ISZERO PUSH2 0x1750 JUMPI PUSH1 0x40 MLOAD PUSH32 0x8C379A000000000000000000000000000000000000000000000000000000000 DUP2 MSTORE PUSH1 0x4 ADD PUSH2 0x1747 SWAP1 PUSH2 0x22EB JUMP JUMPDEST PUSH1 0x40 MLOAD DUP1 SWAP2 SUB SWAP1 REVERT JUMPDEST JUMP JUMPDEST PUSH0 DUP1 PUSH0 SWAP1 POP PUSH0 JUMPDEST PUSH1 0x7 PUSH0 DUP7 PUSH20 0xFFFFFFFFFFFFFFFFFFFFFFFFFFFFFFFFFFFFFFFF AND PUSH20 0xFFFFFFFFFFFFFFFFFFFFFFFFFFFFFFFFFFFFFFFF AND DUP2 MSTORE PUSH1 0x20 ADD SWAP1 DUP2 MSTORE PUSH1 0x20 ADD PUSH0 KECCAK256 DUP1 SLOAD SWAP1 POP DUP2 LT ISZERO PUSH2 0x1880 JUMPI TIMESTAMP PUSH1 0x7 PUSH0 DUP8 PUSH20 0xFFFFFFFFFFFFFFFFFFFFFFFFFFFFFFFFFFFFFFFF AND PUSH20 0xFFFFFFFFFFFFFFFFFFFFFFFFFFFFFFFFFFFFFFFF AND DUP2 MSTORE PUSH1 0x20 ADD SWAP1 DUP2 MSTORE PUSH1 0x20 ADD PUSH0 KECCAK256 DUP3 DUP2 SLOAD DUP2 LT PUSH2 0x17F1 JUMPI PUSH2 0x17F0 PUSH2 0x2013 JUMP JUMPDEST JUMPDEST SWAP1 PUSH0 MSTORE PUSH1 0x20 PUSH0 KECCAK256 SWAP1 PUSH1 0x2 MUL ADD PUSH1 0x1 ADD SLOAD GT ISZERO PUSH2 0x1873 JUMPI PUSH1 0x7 PUSH0 DUP7 PUSH20 0xFFFFFFFFFFFFFFFFFFFFFFFFFFFFFFFFFFFFFFFF AND PUSH20 0xFFFFFFFFFFFFFFFFFFFFFFFFFFFFFFFFFFFFFFFF AND DUP2 MSTORE PUSH1 0x20 ADD SWAP1 DUP2 MSTORE PUSH1 0x20 ADD PUSH0 KECCAK256 DUP2 DUP2 SLOAD DUP2 LT PUSH2 0x1856 JUMPI PUSH2 0x1855 PUSH2 0x2013 JUMP JUMPDEST JUMPDEST SWAP1 PUSH0 MSTORE PUSH1 0x20 PUSH0 KECCAK256 SWAP1 PUSH1 0x2 MUL ADD PUSH0 ADD SLOAD DUP3 PUSH2 0x1870 SWAP2 SWAP1 PUSH2 0x1EA8 JUMP JUMPDEST SWAP2 POP JUMPDEST DUP1 DUP1 PUSH1 0x1 ADD SWAP2 POP POP PUSH2 0x1759 JUMP JUMPDEST POP DUP3 DUP2 PUSH2 0x188C DUP7 PUSH2 0x78A JUMP JUMPDEST PUSH2 0x1896 SWAP2 SWAP1 PUSH2 0x2040 JUMP JUMPDEST LT ISZERO SWAP2 POP POP SWAP3 SWAP2 POP POP JUMP JUMPDEST PUSH0 PUSH20 0xFFFFFFFFFFFFFFFFFFFFFFFFFFFFFFFFFFFFFFFF AND DUP4 PUSH20 0xFFFFFFFFFFFFFFFFFFFFFFFFFFFFFFFFFFFFFFFF AND SUB PUSH2 0x18F1 JUMPI DUP1 PUSH1 0x2 PUSH0 DUP3 DUP3 SLOAD PUSH2 0x18E5 SWAP2 SWAP1 PUSH2 0x1EA8 JUMP JUMPDEST SWAP3 POP POP DUP2 SWAP1 SSTORE POP PUSH2 0x19BF JUMP JUMPDEST PUSH0 DUP1 PUSH0 DUP6 PUSH20 0xFFFFFFFFFFFFFFFFFFFFFFFFFFFFFFFFFFFFFFFF AND PUSH20 0xFFFFFFFFFFFFFFFFFFFFFFFFFFFFFFFFFFFFFFFF AND DUP2 MSTORE PUSH1 0x20 ADD SWAP1 DUP2 MSTORE PUSH1 0x20 ADD PUSH0 KECCAK256 SLOAD SWAP1 POP DUP2 DUP2 LT ISZERO PUSH2 0x197A JUMPI DUP4 DUP2 DUP4 PUSH1 0x40 MLOAD PUSH32 0xE450D38C00000000000000000000000000000000000000000000000000000000 DUP2 MSTORE PUSH1 0x4 ADD PUSH2 0x1971 SWAP4 SWAP3 SWAP2 SWAP1 PUSH2 0x210E JUMP JUMPDEST PUSH1 0x40 MLOAD DUP1 SWAP2 SUB SWAP1 REVERT JUMPDEST DUP2 DUP2 SUB PUSH0 DUP1 DUP7 PUSH20 0xFFFFFFFFFFFFFFFFFFFFFFFFFFFFFFFFFFFFFFFF AND PUSH20 0xFFFFFFFFFFFFFFFFFFFFFFFFFFFFFFFFFFFFFFFF AND DUP2 MSTORE PUSH1 0x20 ADD SWAP1 DUP2 MSTORE PUSH1 0x20 ADD PUSH0 KECCAK256 DUP2 SWAP1 SSTORE POP POP JUMPDEST PUSH0 PUSH20 0xFFFFFFFFFFFFFFFFFFFFFFFFFFFFFFFFFFFFFFFF AND DUP3 PUSH20 0xFFFFFFFFFFFFFFFFFFFFFFFFFFFFFFFFFFFFFFFF AND SUB PUSH2 0x1A06 JUMPI DUP1 PUSH1 0x2 PUSH0 DUP3 DUP3 SLOAD SUB SWAP3 POP POP DUP2 SWAP1 SSTORE POP PUSH2 0x1A50 JUMP JUMPDEST DUP1 PUSH0 DUP1 DUP5 PUSH20 0xFFFFFFFFFFFFFFFFFFFFFFFFFFFFFFFFFFFFFFFF AND PUSH20 0xFFFFFFFFFFFFFFFFFFFFFFFFFFFFFFFFFFFFFFFF AND DUP2 MSTORE PUSH1 0x20 ADD SWAP1 DUP2 MSTORE PUSH1 0x20 ADD PUSH0 KECCAK256 PUSH0 DUP3 DUP3 SLOAD ADD SWAP3 POP POP DUP2 SWAP1 SSTORE POP JUMPDEST DUP2 PUSH20 0xFFFFFFFFFFFFFFFFFFFFFFFFFFFFFFFFFFFFFFFF AND DUP4 PUSH20 0xFFFFFFFFFFFFFFFFFFFFFFFFFFFFFFFFFFFFFFFF AND PUSH32 0xDDF252AD1BE2C89B69C2B068FC378DAA952BA7F163C4A11628F55A4DF523B3EF DUP4 PUSH1 0x40 MLOAD PUSH2 0x1AAD SWAP2 SWAP1 PUSH2 0x1C75 JUMP JUMPDEST PUSH1 0x40 MLOAD DUP1 SWAP2 SUB SWAP1 LOG3 POP POP POP JUMP JUMPDEST PUSH0 DUP2 MLOAD SWAP1 POP SWAP2 SWAP1 POP JUMP JUMPDEST PUSH0 DUP3 DUP3 MSTORE PUSH1 0x20 DUP3 ADD SWAP1 POP SWAP3 SWAP2 POP POP JUMP JUMPDEST PUSH0 JUMPDEST DUP4 DUP2 LT ISZERO PUSH2 0x1AF1 JUMPI DUP1 DUP3 ADD MLOAD DUP2 DUP5 ADD MSTORE PUSH1 0x20 DUP2 ADD SWAP1 POP PUSH2 0x1AD6 JUMP JUMPDEST PUSH0 DUP5 DUP5 ADD MSTORE POP POP POP POP JUMP JUMPDEST PUSH0 PUSH1 0x1F NOT PUSH1 0x1F DUP4 ADD AND SWAP1 POP SWAP2 SWAP1 POP JUMP JUMPDEST PUSH0 PUSH2 0x1B16 DUP3 PUSH2 0x1ABA JUMP JUMPDEST PUSH2 0x1B20 DUP2 DUP6 PUSH2 0x1AC4 JUMP JUMPDEST SWAP4 POP PUSH2 0x1B30 DUP2 DUP6 PUSH1 0x20 DUP7 ADD PUSH2 0x1AD4 JUMP JUMPDEST PUSH2 0x1B39 DUP2 PUSH2 0x1AFC JUMP JUMPDEST DUP5 ADD SWAP2 POP POP SWAP3 SWAP2 POP POP JUMP JUMPDEST PUSH0 PUSH1 0x20 DUP3 ADD SWAP1 POP DUP2 DUP2 SUB PUSH0 DUP4 ADD MSTORE PUSH2 0x1B5C DUP2 DUP5 PUSH2 0x1B0C JUMP JUMPDEST SWAP1 POP SWAP3 SWAP2 POP POP JUMP JUMPDEST PUSH0 DUP1 REVERT JUMPDEST PUSH0 PUSH20 0xFFFFFFFFFFFFFFFFFFFFFFFFFFFFFFFFFFFFFFFF DUP3 AND SWAP1 POP SWAP2 SWAP1 POP JUMP JUMPDEST PUSH0 PUSH2 0x1B91 DUP3 PUSH2 0x1B68 JUMP JUMPDEST SWAP1 POP SWAP2 SWAP1 POP JUMP JUMPDEST PUSH2 0x1BA1 DUP2 PUSH2 0x1B87 JUMP JUMPDEST DUP2 EQ PUSH2 0x1BAB JUMPI PUSH0 DUP1 REVERT JUMPDEST POP JUMP JUMPDEST PUSH0 DUP2 CALLDATALOAD SWAP1 POP PUSH2 0x1BBC DUP2 PUSH2 0x1B98 JUMP JUMPDEST SWAP3 SWAP2 POP POP JUMP JUMPDEST PUSH0 DUP2 SWAP1 POP SWAP2 SWAP1 POP JUMP JUMPDEST PUSH2 0x1BD4 DUP2 PUSH2 0x1BC2 JUMP JUMPDEST DUP2 EQ PUSH2 0x1BDE JUMPI PUSH0 DUP1 REVERT JUMPDEST POP JUMP JUMPDEST PUSH0 DUP2 CALLDATALOAD SWAP1 POP PUSH2 0x1BEF DUP2 PUSH2 0x1BCB JUMP JUMPDEST SWAP3 SWAP2 POP POP JUMP JUMPDEST PUSH0 DUP1 PUSH1 0x40 DUP4 DUP6 SUB SLT ISZERO PUSH2 0x1C0B JUMPI PUSH2 0x1C0A PUSH2 0x1B64 JUMP JUMPDEST JUMPDEST PUSH0 PUSH2 0x1C18 DUP6 DUP3 DUP7 ADD PUSH2 0x1BAE JUMP JUMPDEST SWAP3 POP POP PUSH1 0x20 PUSH2 0x1C29 DUP6 DUP3 DUP7 ADD PUSH2 0x1BE1 JUMP JUMPDEST SWAP2 POP POP SWAP3 POP SWAP3 SWAP1 POP JUMP JUMPDEST PUSH0 DUP2 ISZERO ISZERO SWAP1 POP SWAP2 SWAP1 POP JUMP JUMPDEST PUSH2 0x1C47 DUP2 PUSH2 0x1C33 JUMP JUMPDEST DUP3 MSTORE POP POP JUMP JUMPDEST PUSH0 PUSH1 0x20 DUP3 ADD SWAP1 POP PUSH2 0x1C60 PUSH0 DUP4 ADD DUP5 PUSH2 0x1C3E JUMP JUMPDEST SWAP3 SWAP2 POP POP JUMP JUMPDEST PUSH2 0x1C6F DUP2 PUSH2 0x1BC2 JUMP JUMPDEST DUP3 MSTORE POP POP JUMP JUMPDEST PUSH0 PUSH1 0x20 DUP3 ADD SWAP1 POP PUSH2 0x1C88 PUSH0 DUP4 ADD DUP5 PUSH2 0x1C66 JUMP JUMPDEST SWAP3 SWAP2 POP POP JUMP JUMPDEST PUSH0 DUP1 PUSH0 PUSH1 0x60 DUP5 DUP7 SUB SLT ISZERO PUSH2 0x1CA5 JUMPI PUSH2 0x1CA4 PUSH2 0x1B64 JUMP JUMPDEST JUMPDEST PUSH0 PUSH2 0x1CB2 DUP7 DUP3 DUP8 ADD PUSH2 0x1BAE JUMP JUMPDEST SWAP4 POP POP PUSH1 0x20 PUSH2 0x1CC3 DUP7 DUP3 DUP8 ADD PUSH2 0x1BAE JUMP JUMPDEST SWAP3 POP POP PUSH1 0x40 PUSH2 0x1CD4 DUP7 DUP3 DUP8 ADD PUSH2 0x1BE1 JUMP JUMPDEST SWAP2 POP POP SWAP3 POP SWAP3 POP SWAP3 JUMP JUMPDEST PUSH0 PUSH1 0xFF DUP3 AND SWAP1 POP SWAP2 SWAP1 POP JUMP JUMPDEST PUSH2 0x1CF3 DUP2 PUSH2 0x1CDE JUMP JUMPDEST DUP3 MSTORE POP POP JUMP JUMPDEST PUSH0 PUSH1 0x20 DUP3 ADD SWAP1 POP PUSH2 0x1D0C PUSH0 DUP4 ADD DUP5 PUSH2 0x1CEA JUMP JUMPDEST SWAP3 SWAP2 POP POP JUMP JUMPDEST PUSH0 DUP1 PUSH0 PUSH1 0x60 DUP5 DUP7 SUB SLT ISZERO PUSH2 0x1D29 JUMPI PUSH2 0x1D28 PUSH2 0x1B64 JUMP JUMPDEST JUMPDEST PUSH0 PUSH2 0x1D36 DUP7 DUP3 DUP8 ADD PUSH2 0x1BAE JUMP JUMPDEST SWAP4 POP POP PUSH1 0x20 PUSH2 0x1D47 DUP7 DUP3 DUP8 ADD PUSH2 0x1BE1 JUMP JUMPDEST SWAP3 POP POP PUSH1 0x40 PUSH2 0x1D58 DUP7 DUP3 DUP8 ADD PUSH2 0x1BE1 JUMP JUMPDEST SWAP2 POP POP SWAP3 POP SWAP3 POP SWAP3 JUMP JUMPDEST PUSH0 PUSH1 0x20 DUP3 DUP5 SUB SLT ISZERO PUSH2 0x1D77 JUMPI PUSH2 0x1D76 PUSH2 0x1B64 JUMP JUMPDEST JUMPDEST PUSH0 PUSH2 0x1D84 DUP5 DUP3 DUP6 ADD PUSH2 0x1BE1 JUMP JUMPDEST SWAP2 POP POP SWAP3 SWAP2 POP POP JUMP JUMPDEST PUSH0 PUSH1 0x20 DUP3 DUP5 SUB SLT ISZERO PUSH2 0x1DA2 JUMPI PUSH2 0x1DA1 PUSH2 0x1B64 JUMP JUMPDEST JUMPDEST PUSH0 PUSH2 0x1DAF DUP5 DUP3 DUP6 ADD PUSH2 0x1BAE JUMP JUMPDEST SWAP2 POP POP SWAP3 SWAP2 POP POP JUMP JUMPDEST PUSH2 0x1DC1 DUP2 PUSH2 0x1B87 JUMP JUMPDEST DUP3 MSTORE POP POP JUMP JUMPDEST PUSH0 PUSH1 0x20 DUP3 ADD SWAP1 POP PUSH2 0x1DDA PUSH0 DUP4 ADD DUP5 PUSH2 0x1DB8 JUMP JUMPDEST SWAP3 SWAP2 POP POP JUMP JUMPDEST PUSH0 DUP1 PUSH1 0x40 DUP4 DUP6 SUB SLT ISZERO PUSH2 0x1DF6 JUMPI PUSH2 0x1DF5 PUSH2 0x1B64 JUMP JUMPDEST JUMPDEST PUSH0 PUSH2 0x1E03 DUP6 DUP3 DUP7 ADD PUSH2 0x1BAE JUMP JUMPDEST SWAP3 POP POP PUSH1 0x20 PUSH2 0x1E14 DUP6 DUP3 DUP7 ADD PUSH2 0x1BAE JUMP JUMPDEST SWAP2 POP POP SWAP3 POP SWAP3 SWAP1 POP JUMP JUMPDEST PUSH32 0x4E487B7100000000000000000000000000000000000000000000000000000000 PUSH0 MSTORE PUSH1 0x22 PUSH1 0x4 MSTORE PUSH1 0x24 PUSH0 REVERT JUMPDEST PUSH0 PUSH1 0x2 DUP3 DIV SWAP1 POP PUSH1 0x1 DUP3 AND DUP1 PUSH2 0x1E62 JUMPI PUSH1 0x7F DUP3 AND SWAP2 POP JUMPDEST PUSH1 0x20 DUP3 LT DUP2 SUB PUSH2 0x1E75 JUMPI PUSH2 0x1E74 PUSH2 0x1E1E JUMP JUMPDEST JUMPDEST POP SWAP2 SWAP1 POP JUMP JUMPDEST PUSH32 0x4E487B7100000000000000000000000000000000000000000000000000000000 PUSH0 MSTORE PUSH1 0x11 PUSH1 0x4 MSTORE PUSH1 0x24 PUSH0 REVERT JUMPDEST PUSH0 PUSH2 0x1EB2 DUP3 PUSH2 0x1BC2 JUMP JUMPDEST SWAP2 POP PUSH2 0x1EBD DUP4 PUSH2 0x1BC2 JUMP JUMPDEST SWAP3 POP DUP3 DUP3 ADD SWAP1 POP DUP1 DUP3 GT ISZERO PUSH2 0x1ED5 JUMPI PUSH2 0x1ED4 PUSH2 0x1E7B JUMP JUMPDEST JUMPDEST SWAP3 SWAP2 POP POP JUMP JUMPDEST PUSH32 0x4163636F756E74206973206E6F742066726F7A656E0000000000000000000000 PUSH0 DUP3 ADD MSTORE POP JUMP JUMPDEST PUSH0 PUSH2 0x1F0F PUSH1 0x15 DUP4 PUSH2 0x1AC4 JUMP JUMPDEST SWAP2 POP PUSH2 0x1F1A DUP3 PUSH2 0x1EDB JUMP JUMPDEST PUSH1 0x20 DUP3 ADD SWAP1 POP SWAP2 SWAP1 POP JUMP JUMPDEST PUSH0 PUSH1 0x20 DUP3 ADD SWAP1 POP DUP2 DUP2 SUB PUSH0 DUP4 ADD MSTORE PUSH2 0x1F3C DUP2 PUSH2 0x1F03 JUMP JUMPDEST SWAP1 POP SWAP2 SWAP1 POP JUMP JUMPDEST PUSH32 0x496E73756666696369656E742062616C616E6365000000000000000000000000 PUSH0 DUP3 ADD MSTORE POP JUMP JUMPDEST PUSH0 PUSH2 0x1F77 PUSH1 0x14 DUP4 PUSH2 0x1AC4 JUMP JUMPDEST SWAP2 POP PUSH2 0x1F82 DUP3 PUSH2 0x1F43 JUMP JUMPDEST PUSH1 0x20 DUP3 ADD SWAP1 POP SWAP2 SWAP1 POP JUMP JUMPDEST PUSH0 PUSH1 0x20 DUP3 ADD SWAP1 POP DUP2 DUP2 SUB PUSH0 DUP4 ADD MSTORE PUSH2 0x1FA4 DUP2 PUSH2 0x1F6B JUMP JUMPDEST SWAP1 POP SWAP2 SWAP1 POP JUMP JUMPDEST PUSH32 0x4163636F756E7420697320616C72656164792066726F7A656E00000000000000 PUSH0 DUP3 ADD MSTORE POP JUMP JUMPDEST PUSH0 PUSH2 0x1FDF PUSH1 0x19 DUP4 PUSH2 0x1AC4 JUMP JUMPDEST SWAP2 POP PUSH2 0x1FEA DUP3 PUSH2 0x1FAB JUMP JUMPDEST PUSH1 0x20 DUP3 ADD SWAP1 POP SWAP2 SWAP1 POP JUMP JUMPDEST PUSH0 PUSH1 0x20 DUP3 ADD SWAP1 POP DUP2 DUP2 SUB PUSH0 DUP4 ADD MSTORE PUSH2 0x200C DUP2 PUSH2 0x1FD3 JUMP JUMPDEST SWAP1 POP SWAP2 SWAP1 POP JUMP JUMPDEST PUSH32 0x4E487B7100000000000000000000000000000000000000000000000000000000 PUSH0 MSTORE PUSH1 0x32 PUSH1 0x4 MSTORE PUSH1 0x24 PUSH0 REVERT JUMPDEST PUSH0 PUSH2 0x204A DUP3 PUSH2 0x1BC2 JUMP JUMPDEST SWAP2 POP PUSH2 0x2055 DUP4 PUSH2 0x1BC2 JUMP JUMPDEST SWAP3 POP DUP3 DUP3 SUB SWAP1 POP DUP2 DUP2 GT ISZERO PUSH2 0x206D JUMPI PUSH2 0x206C PUSH2 0x1E7B JUMP JUMPDEST JUMPDEST SWAP3 SWAP2 POP POP JUMP JUMPDEST PUSH32 0x4E487B7100000000000000000000000000000000000000000000000000000000 PUSH0 MSTORE PUSH1 0x31 PUSH1 0x4 MSTORE PUSH1 0x24 PUSH0 REVERT JUMPDEST PUSH0 PUSH2 0x20AA DUP3 PUSH2 0x1BC2 JUMP JUMPDEST SWAP2 POP PUSH0 DUP3 SUB PUSH2 0x20BC JUMPI PUSH2 0x20BB PUSH2 0x1E7B JUMP JUMPDEST JUMPDEST PUSH1 0x1 DUP3 SUB SWAP1 POP SWAP2 SWAP1 POP JUMP JUMPDEST PUSH0 PUSH2 0x20D1 DUP3 PUSH2 0x1BC2 JUMP JUMPDEST SWAP2 POP PUSH32 0xFFFFFFFFFFFFFFFFFFFFFFFFFFFFFFFFFFFFFFFFFFFFFFFFFFFFFFFFFFFFFFFF DUP3 SUB PUSH2 0x2103 JUMPI PUSH2 0x2102 PUSH2 0x1E7B JUMP JUMPDEST JUMPDEST PUSH1 0x1 DUP3 ADD SWAP1 POP SWAP2 SWAP1 POP JUMP JUMPDEST PUSH0 PUSH1 0x60 DUP3 ADD SWAP1 POP PUSH2 0x2121 PUSH0 DUP4 ADD DUP7 PUSH2 0x1DB8 JUMP JUMPDEST PUSH2 0x212E PUSH1 0x20 DUP4 ADD DUP6 PUSH2 0x1C66 JUMP JUMPDEST PUSH2 0x213B PUSH1 0x40 DUP4 ADD DUP5 PUSH2 0x1C66 JUMP JUMPDEST SWAP5 SWAP4 POP POP POP POP JUMP JUMPDEST PUSH32 0x546F6B656E207472616E73666572207768696C65207061757365640000000000 PUSH0 DUP3 ADD MSTORE POP JUMP JUMPDEST PUSH0 PUSH2 0x2177 PUSH1 0x1B DUP4 PUSH2 0x1AC4 JUMP JUMPDEST SWAP2 POP PUSH2 0x2182 DUP3 PUSH2 0x2143 JUMP JUMPDEST PUSH1 0x20 DUP3 ADD SWAP1 POP SWAP2 SWAP1 POP JUMP JUMPDEST PUSH0 PUSH1 0x20 DUP3 ADD SWAP1 POP DUP2 DUP2 SUB PUSH0 DUP4 ADD MSTORE PUSH2 0x21A4 DUP2 PUSH2 0x216B JUMP JUMPDEST SWAP1 POP SWAP2 SWAP1 POP JUMP JUMPDEST PUSH32 0x45524332304C6F636B61626C653A207472616E7366657220616D6F756E742065 PUSH0 DUP3 ADD MSTORE PUSH32 0x78636565647320756E6C6F636B65642062616C616E6365000000000000000000 PUSH1 0x20 DUP3 ADD MSTORE POP JUMP JUMPDEST PUSH0 PUSH2 0x2205 PUSH1 0x37 DUP4 PUSH2 0x1AC4 JUMP JUMPDEST SWAP2 POP PUSH2 0x2210 DUP3 PUSH2 0x21AB JUMP JUMPDEST PUSH1 0x40 DUP3 ADD SWAP1 POP SWAP2 SWAP1 POP JUMP JUMPDEST PUSH0 PUSH1 0x20 DUP3 ADD SWAP1 POP DUP2 DUP2 SUB PUSH0 DUP4 ADD MSTORE PUSH2 0x2232 DUP2 PUSH2 0x21F9 JUMP JUMPDEST SWAP1 POP SWAP2 SWAP1 POP JUMP JUMPDEST PUSH32 0x5061757361626C653A206E6F7420706175736564000000000000000000000000 PUSH0 DUP3 ADD MSTORE POP JUMP JUMPDEST PUSH0 PUSH2 0x226D PUSH1 0x14 DUP4 PUSH2 0x1AC4 JUMP JUMPDEST SWAP2 POP PUSH2 0x2278 DUP3 PUSH2 0x2239 JUMP JUMPDEST PUSH1 0x20 DUP3 ADD SWAP1 POP SWAP2 SWAP1 POP JUMP JUMPDEST PUSH0 PUSH1 0x20 DUP3 ADD SWAP1 POP DUP2 DUP2 SUB PUSH0 DUP4 ADD MSTORE PUSH2 0x229A DUP2 PUSH2 0x2261 JUMP JUMPDEST SWAP1 POP SWAP2 SWAP1 POP JUMP JUMPDEST PUSH32 0x5061757361626C653A2070617573656400000000000000000000000000000000 PUSH0 DUP3 ADD MSTORE POP JUMP JUMPDEST PUSH0 PUSH2 0x22D5 PUSH1 0x10 DUP4 PUSH2 0x1AC4 JUMP JUMPDEST SWAP2 POP PUSH2 0x22E0 DUP3 PUSH2 0x22A1 JUMP JUMPDEST PUSH1 0x20 DUP3 ADD SWAP1 POP SWAP2 SWAP1 POP JUMP JUMPDEST PUSH0 PUSH1 0x20 DUP3 ADD SWAP1 POP DUP2 DUP2 SUB PUSH0 DUP4 ADD MSTORE PUSH2 0x2302 DUP2 PUSH2 0x22C9 JUMP JUMPDEST SWAP1 POP SWAP2 SWAP1 POP JUMP INVALID LOG2 PUSH5 0x6970667358 0x22 SLT KECCAK256 0xED GASPRICE 0xAB 0xEB SWAP11 OR 0xAF SWAP11 SWAP16 JUMPI MUL MSTORE8 0xC JUMP EXTCODESIZE PUSH13 0xB58638C2894B51B5F741A35704 0x29 PUSH8 0x9A64736F6C634300 ADDMOD XOR STOP CALLER "
				},
				"gasEstimates": {
					"creation": {
						"codeDepositCost": "1804600",
						"executionCost": "infinite",
						"totalCost": "infinite"
					},
					"external": {
						"allowance(address,address)": "infinite",
						"approve(address,uint256)": "infinite",
						"balanceOf(address)": "2852",
						"burn(uint256)": "infinite",
						"burnFrom(address,uint256)": "infinite",
						"decimals()": "450",
						"freeze(address)": "infinite",
						"getLockedAmount(address)": "infinite",
						"lockup(address,uint256,uint256)": "infinite",
						"name()": "infinite",
						"owner()": "2699",
						"pause()": "infinite",
						"paused()": "2584",
						"releaseLock(address)": "infinite",
						"renounceOwnership()": "infinite",
						"symbol()": "infinite",
						"totalSupply()": "2500",
						"transfer(address,uint256)": "infinite",
						"transferFrom(address,address,uint256)": "infinite",
						"transferOwnership(address)": "infinite",
						"transferWithLockUp(address,uint256,uint256)": "infinite",
						"unfreeze(address)": "infinite",
						"unpause()": "infinite"
					},
					"internal": {
						"_checkLock(address,uint256)": "infinite",
						"_update(address,address,uint256)": "infinite"
					}
				},
				"methodIdentifiers": {
					"allowance(address,address)": "dd62ed3e",
					"approve(address,uint256)": "095ea7b3",
					"balanceOf(address)": "70a08231",
					"burn(uint256)": "42966c68",
					"burnFrom(address,uint256)": "79cc6790",
					"decimals()": "313ce567",
					"freeze(address)": "8d1fdf2f",
					"getLockedAmount(address)": "929ec537",
					"lockup(address,uint256,uint256)": "5e1372f4",
					"name()": "06fdde03",
					"owner()": "8da5cb5b",
					"pause()": "8456cb59",
					"paused()": "5c975abb",
					"releaseLock(address)": "d1c46916",
					"renounceOwnership()": "715018a6",
					"symbol()": "95d89b41",
					"totalSupply()": "18160ddd",
					"transfer(address,uint256)": "a9059cbb",
					"transferFrom(address,address,uint256)": "23b872dd",
					"transferOwnership(address)": "f2fde38b",
					"transferWithLockUp(address,uint256,uint256)": "38b82092",
					"unfreeze(address)": "45c8b1a6",
					"unpause()": "3f4ba83a"
				}
			},
			"storageLayout": {
				"storage": [
					{
						"astId": 415,
						"contract": "constracts/HealthMediToken.sol:HMEDERC20Token",
						"label": "_balances",
						"offset": 0,
						"slot": "0",
						"type": "t_mapping(t_address,t_uint256)"
					},
					{
						"astId": 421,
						"contract": "constracts/HealthMediToken.sol:HMEDERC20Token",
						"label": "_allowances",
						"offset": 0,
						"slot": "1",
						"type": "t_mapping(t_address,t_mapping(t_address,t_uint256))"
					},
					{
						"astId": 423,
						"contract": "constracts/HealthMediToken.sol:HMEDERC20Token",
						"label": "_totalSupply",
						"offset": 0,
						"slot": "2",
						"type": "t_uint256"
					},
					{
						"astId": 425,
						"contract": "constracts/HealthMediToken.sol:HMEDERC20Token",
						"label": "_name",
						"offset": 0,
						"slot": "3",
						"type": "t_string_storage"
					},
					{
						"astId": 427,
						"contract": "constracts/HealthMediToken.sol:HMEDERC20Token",
						"label": "_symbol",
						"offset": 0,
						"slot": "4",
						"type": "t_string_storage"
					},
					{
						"astId": 302,
						"contract": "constracts/HealthMediToken.sol:HMEDERC20Token",
						"label": "_paused",
						"offset": 0,
						"slot": "5",
						"type": "t_bool"
					},
					{
						"astId": 8,
						"contract": "constracts/HealthMediToken.sol:HMEDERC20Token",
						"label": "_owner",
						"offset": 1,
						"slot": "5",
						"type": "t_address"
					},
					{
						"astId": 1118,
						"contract": "constracts/HealthMediToken.sol:HMEDERC20Token",
						"label": "frozenAccounts",
						"offset": 0,
						"slot": "6",
						"type": "t_mapping(t_address,t_bool)"
					},
					{
						"astId": 1124,
						"contract": "constracts/HealthMediToken.sol:HMEDERC20Token",
						"label": "_locks",
						"offset": 0,
						"slot": "7",
						"type": "t_mapping(t_address,t_array(t_struct(LockInfo)1108_storage)dyn_storage)"
					}
				],
				"types": {
					"t_address": {
						"encoding": "inplace",
						"label": "address",
						"numberOfBytes": "20"
					},
					"t_array(t_struct(LockInfo)1108_storage)dyn_storage": {
						"base": "t_struct(LockInfo)1108_storage",
						"encoding": "dynamic_array",
						"label": "struct HMEDERC20Token.LockInfo[]",
						"numberOfBytes": "32"
					},
					"t_bool": {
						"encoding": "inplace",
						"label": "bool",
						"numberOfBytes": "1"
					},
					"t_mapping(t_address,t_array(t_struct(LockInfo)1108_storage)dyn_storage)": {
						"encoding": "mapping",
						"key": "t_address",
						"label": "mapping(address => struct HMEDERC20Token.LockInfo[])",
						"numberOfBytes": "32",
						"value": "t_array(t_struct(LockInfo)1108_storage)dyn_storage"
					},
					"t_mapping(t_address,t_bool)": {
						"encoding": "mapping",
						"key": "t_address",
						"label": "mapping(address => bool)",
						"numberOfBytes": "32",
						"value": "t_bool"
					},
					"t_mapping(t_address,t_mapping(t_address,t_uint256))": {
						"encoding": "mapping",
						"key": "t_address",
						"label": "mapping(address => mapping(address => uint256))",
						"numberOfBytes": "32",
						"value": "t_mapping(t_address,t_uint256)"
					},
					"t_mapping(t_address,t_uint256)": {
						"encoding": "mapping",
						"key": "t_address",
						"label": "mapping(address => uint256)",
						"numberOfBytes": "32",
						"value": "t_uint256"
					},
					"t_string_storage": {
						"encoding": "bytes",
						"label": "string",
						"numberOfBytes": "32"
					},
					"t_struct(LockInfo)1108_storage": {
						"encoding": "inplace",
						"label": "struct HMEDERC20Token.LockInfo",
						"members": [
							{
								"astId": 1105,
								"contract": "constracts/HealthMediToken.sol:HMEDERC20Token",
								"label": "amount",
								"offset": 0,
								"slot": "0",
								"type": "t_uint256"
							},
							{
								"astId": 1107,
								"contract": "constracts/HealthMediToken.sol:HMEDERC20Token",
								"label": "releaseTime",
								"offset": 0,
								"slot": "1",
								"type": "t_uint256"
							}
						],
						"numberOfBytes": "64"
					},
					"t_uint256": {
						"encoding": "inplace",
						"label": "uint256",
						"numberOfBytes": "32"
					}
				}
			},
			"userdoc": {
				"kind": "user",
				"methods": {},
				"version": 1
			}
		}
	}
}