{
	"constracts/HealthMediToken_flattened.sol": {
		"HMEDERC20Token": {
			"abi": [
				{
					"inputs": [],
					"stateMutability": "nonpayable",
					"type": "constructor"
				},
				{
					"inputs": [
						{
							"internalType": "address",
							"name": "spender",
							"type": "address"
						},
						{
							"internalType": "uint256",
							"name": "allowance",
							"type": "uint256"
						},
						{
							"internalType": "uint256",
							"name": "needed",
							"type": "uint256"
						}
					],
					"name": "ERC20InsufficientAllowance",
					"type": "error"
				},
				{
					"inputs": [
						{
							"internalType": "address",
							"name": "sender",
							"type": "address"
						},
						{
							"internalType": "uint256",
							"name": "balance",
							"type": "uint256"
						},
						{
							"internalType": "uint256",
							"name": "needed",
							"type": "uint256"
						}
					],
					"name": "ERC20InsufficientBalance",
					"type": "error"
				},
				{
					"inputs": [
						{
							"internalType": "address",
							"name": "approver",
							"type": "address"
						}
					],
					"name": "ERC20InvalidApprover",
					"type": "error"
				},
				{
					"inputs": [
						{
							"internalType": "address",
							"name": "receiver",
							"type": "address"
						}
					],
					"name": "ERC20InvalidReceiver",
					"type": "error"
				},
				{
					"inputs": [
						{
							"internalType": "address",
							"name": "sender",
							"type": "address"
						}
					],
					"name": "ERC20InvalidSender",
					"type": "error"
				},
				{
					"inputs": [
						{
							"internalType": "address",
							"name": "spender",
							"type": "address"
						}
					],
					"name": "ERC20InvalidSpender",
					"type": "error"
				},
				{
					"inputs": [
						{
							"internalType": "address",
							"name": "owner",
							"type": "address"
						}
					],
					"name": "OwnableInvalidOwner",
					"type": "error"
				},
				{
					"inputs": [
						{
							"internalType": "address",
							"name": "account",
							"type": "address"
						}
					],
					"name": "OwnableUnauthorizedAccount",
					"type": "error"
				},
				{
					"anonymous": false,
					"inputs": [
						{
							"indexed": true,
							"internalType": "address",
							"name": "account",
							"type": "address"
						}
					],
					"name": "AccountFrozen",
					"type": "event"
				},
				{
					"anonymous": false,
					"inputs": [
						{
							"indexed": true,
							"internalType": "address",
							"name": "account",
							"type": "address"
						}
					],
					"name": "AccountUnfrozen",
					"type": "event"
				},
				{
					"anonymous": false,
					"inputs": [
						{
							"indexed": true,
							"internalType": "address",
							"name": "owner",
							"type": "address"
						},
						{
							"indexed": true,
							"internalType": "address",
							"name": "spender",
							"type": "address"
						},
						{
							"indexed": false,
							"internalType": "uint256",
							"name": "value",
							"type": "uint256"
						}
					],
					"name": "Approval",
					"type": "event"
				},
				{
					"anonymous": false,
					"inputs": [
						{
							"indexed": true,
							"internalType": "address",
							"name": "account",
							"type": "address"
						},
						{
							"indexed": false,
							"internalType": "uint256",
							"name": "amount",
							"type": "uint256"
						}
					],
					"name": "LockReleased",
					"type": "event"
				},
				{
					"anonymous": false,
					"inputs": [
						{
							"indexed": true,
							"internalType": "address",
							"name": "previousOwner",
							"type": "address"
						},
						{
							"indexed": true,
							"internalType": "address",
							"name": "newOwner",
							"type": "address"
						}
					],
					"name": "OwnershipTransferred",
					"type": "event"
				},
				{
					"anonymous": false,
					"inputs": [
						{
							"indexed": false,
							"internalType": "address",
							"name": "account",
							"type": "address"
						}
					],
					"name": "Paused",
					"type": "event"
				},
				{
					"anonymous": false,
					"inputs": [
						{
							"indexed": true,
							"internalType": "address",
							"name": "from",
							"type": "address"
						},
						{
							"indexed": true,
							"internalType": "address",
							"name": "to",
							"type": "address"
						},
						{
							"indexed": false,
							"internalType": "uint256",
							"name": "value",
							"type": "uint256"
						}
					],
					"name": "Transfer",
					"type": "event"
				},
				{
					"anonymous": false,
					"inputs": [
						{
							"indexed": false,
							"internalType": "address",
							"name": "account",
							"type": "address"
						}
					],
					"name": "Unpaused",
					"type": "event"
				},
				{
					"inputs": [
						{
							"internalType": "address",
							"name": "owner",
							"type": "address"
						},
						{
							"internalType": "address",
							"name": "spender",
							"type": "address"
						}
					],
					"name": "allowance",
					"outputs": [
						{
							"internalType": "uint256",
							"name": "",
							"type": "uint256"
						}
					],
					"stateMutability": "view",
					"type": "function"
				},
				{
					"inputs": [
						{
							"internalType": "address",
							"name": "spender",
							"type": "address"
						},
						{
							"internalType": "uint256",
							"name": "value",
							"type": "uint256"
						}
					],
					"name": "approve",
					"outputs": [
						{
							"internalType": "bool",
							"name": "",
							"type": "bool"
						}
					],
					"stateMutability": "nonpayable",
					"type": "function"
				},
				{
					"inputs": [
						{
							"internalType": "address",
							"name": "account",
							"type": "address"
						}
					],
					"name": "balanceOf",
					"outputs": [
						{
							"internalType": "uint256",
							"name": "",
							"type": "uint256"
						}
					],
					"stateMutability": "view",
					"type": "function"
				},
				{
					"inputs": [
						{
							"internalType": "uint256",
							"name": "value",
							"type": "uint256"
						}
					],
					"name": "burn",
					"outputs": [],
					"stateMutability": "nonpayable",
					"type": "function"
				},
				{
					"inputs": [
						{
							"internalType": "address",
							"name": "account",
							"type": "address"
						},
						{
							"internalType": "uint256",
							"name": "value",
							"type": "uint256"
						}
					],
					"name": "burnFrom",
					"outputs": [],
					"stateMutability": "nonpayable",
					"type": "function"
				},
				{
					"inputs": [],
					"name": "decimals",
					"outputs": [
						{
							"internalType": "uint8",
							"name": "",
							"type": "uint8"
						}
					],
					"stateMutability": "view",
					"type": "function"
				},
				{
					"inputs": [
						{
							"internalType": "address",
							"name": "account",
							"type": "address"
						}
					],
					"name": "freeze",
					"outputs": [],
					"stateMutability": "nonpayable",
					"type": "function"
				},
				{
					"inputs": [
						{
							"internalType": "address",
							"name": "account",
							"type": "address"
						}
					],
					"name": "getLockedAmount",
					"outputs": [
						{
							"internalType": "uint256",
							"name": "",
							"type": "uint256"
						}
					],
					"stateMutability": "view",
					"type": "function"
				},
				{
					"inputs": [
						{
							"internalType": "address",
							"name": "account",
							"type": "address"
						},
						{
							"internalType": "uint256",
							"name": "amount",
							"type": "uint256"
						},
						{
							"internalType": "uint256",
							"name": "releaseTime",
							"type": "uint256"
						}
					],
					"name": "lockup",
					"outputs": [],
					"stateMutability": "nonpayable",
					"type": "function"
				},
				{
					"inputs": [],
					"name": "name",
					"outputs": [
						{
							"internalType": "string",
							"name": "",
							"type": "string"
						}
					],
					"stateMutability": "view",
					"type": "function"
				},
				{
					"inputs": [],
					"name": "owner",
					"outputs": [
						{
							"internalType": "address",
							"name": "",
							"type": "address"
						}
					],
					"stateMutability": "view",
					"type": "function"
				},
				{
					"inputs": [],
					"name": "pause",
					"outputs": [],
					"stateMutability": "nonpayable",
					"type": "function"
				},
				{
					"inputs": [],
					"name": "paused",
					"outputs": [
						{
							"internalType": "bool",
							"name": "",
							"type": "bool"
						}
					],
					"stateMutability": "view",
					"type": "function"
				},
				{
					"inputs": [
						{
							"internalType": "address",
							"name": "account",
							"type": "address"
						}
					],
					"name": "releaseLock",
					"outputs": [],
					"stateMutability": "nonpayable",
					"type": "function"
				},
				{
					"inputs": [],
					"name": "renounceOwnership",
					"outputs": [],
					"stateMutability": "nonpayable",
					"type": "function"
				},
				{
					"inputs": [],
					"name": "symbol",
					"outputs": [
						{
							"internalType": "string",
							"name": "",
							"type": "string"
						}
					],
					"stateMutability": "view",
					"type": "function"
				},
				{
					"inputs": [],
					"name": "totalSupply",
					"outputs": [
						{
							"internalType": "uint256",
							"name": "",
							"type": "uint256"
						}
					],
					"stateMutability": "view",
					"type": "function"
				},
				{
					"inputs": [
						{
							"internalType": "address",
							"name": "to",
							"type": "address"
						},
						{
							"internalType": "uint256",
							"name": "value",
							"type": "uint256"
						}
					],
					"name": "transfer",
					"outputs": [
						{
							"internalType": "bool",
							"name": "",
							"type": "bool"
						}
					],
					"stateMutability": "nonpayable",
					"type": "function"
				},
				{
					"inputs": [
						{
							"internalType": "address",
							"name": "from",
							"type": "address"
						},
						{
							"internalType": "address",
							"name": "to",
							"type": "address"
						},
						{
							"internalType": "uint256",
							"name": "value",
							"type": "uint256"
						}
					],
					"name": "transferFrom",
					"outputs": [
						{
							"internalType": "bool",
							"name": "",
							"type": "bool"
						}
					],
					"stateMutability": "nonpayable",
					"type": "function"
				},
				{
					"inputs": [
						{
							"internalType": "address",
							"name": "newOwner",
							"type": "address"
						}
					],
					"name": "transferOwnership",
					"outputs": [],
					"stateMutability": "nonpayable",
					"type": "function"
				},
				{
					"inputs": [
						{
							"internalType": "address",
							"name": "recipient",
							"type": "address"
						},
						{
							"internalType": "uint256",
							"name": "amount",
							"type": "uint256"
						},
						{
							"internalType": "uint256",
							"name": "lockTime",
							"type": "uint256"
						}
					],
					"name": "transferWithLockUp",
					"outputs": [],
					"stateMutability": "nonpayable",
					"type": "function"
				},
				{
					"inputs": [
						{
							"internalType": "address",
							"name": "account",
							"type": "address"
						}
					],
					"name": "unfreeze",
					"outputs": [],
					"stateMutability": "nonpayable",
					"type": "function"
				},
				{
					"inputs": [],
					"name": "unpause",
					"outputs": [],
					"stateMutability": "nonpayable",
					"type": "function"
				}
			],
			"devdoc": {
				"errors": {
					"ERC20InsufficientAllowance(address,uint256,uint256)": [
						{
							"details": "Indicates a failure with the `spender`’s `allowance`. Used in transfers.",
							"params": {
								"allowance": "Amount of tokens a `spender` is allowed to operate with.",
								"needed": "Minimum amount required to perform a transfer.",
								"spender": "Address that may be allowed to operate on tokens without being their owner."
							}
						}
					],
					"ERC20InsufficientBalance(address,uint256,uint256)": [
						{
							"details": "Indicates an error related to the current `balance` of a `sender`. Used in transfers.",
							"params": {
								"balance": "Current balance for the interacting account.",
								"needed": "Minimum amount required to perform a transfer.",
								"sender": "Address whose tokens are being transferred."
							}
						}
					],
					"ERC20InvalidApprover(address)": [
						{
							"details": "Indicates a failure with the `approver` of a token to be approved. Used in approvals.",
							"params": {
								"approver": "Address initiating an approval operation."
							}
						}
					],
					"ERC20InvalidReceiver(address)": [
						{
							"details": "Indicates a failure with the token `receiver`. Used in transfers.",
							"params": {
								"receiver": "Address to which tokens are being transferred."
							}
						}
					],
					"ERC20InvalidSender(address)": [
						{
							"details": "Indicates a failure with the token `sender`. Used in transfers.",
							"params": {
								"sender": "Address whose tokens are being transferred."
							}
						}
					],
					"ERC20InvalidSpender(address)": [
						{
							"details": "Indicates a failure with the `spender` to be approved. Used in approvals.",
							"params": {
								"spender": "Address that may be allowed to operate on tokens without being their owner."
							}
						}
					],
					"OwnableInvalidOwner(address)": [
						{
							"details": "The owner is not a valid owner account. (eg. `address(0)`)"
						}
					],
					"OwnableUnauthorizedAccount(address)": [
						{
							"details": "The caller account is not authorized to perform an operation."
						}
					]
				},
				"events": {
					"Approval(address,address,uint256)": {
						"details": "Emitted when the allowance of a `spender` for an `owner` is set by a call to {approve}. `value` is the new allowance."
					},
					"Paused(address)": {
						"details": "Emitted when the pause is triggered by `account`."
					},
					"Transfer(address,address,uint256)": {
						"details": "Emitted when `value` tokens are moved from one account (`from`) to another (`to`). Note that `value` may be zero."
					},
					"Unpaused(address)": {
						"details": "Emitted when the pause is lifted by `account`."
					}
				},
				"kind": "dev",
				"methods": {
					"allowance(address,address)": {
						"details": "See {IERC20-allowance}."
					},
					"approve(address,uint256)": {
						"details": "See {IERC20-approve}. NOTE: If `value` is the maximum `uint256`, the allowance is not updated on `transferFrom`. This is semantically equivalent to an infinite approval. Requirements: - `spender` cannot be the zero address."
					},
					"balanceOf(address)": {
						"details": "See {IERC20-balanceOf}."
					},
					"burn(uint256)": {
						"details": "Destroys a `value` amount of tokens from the caller. See {ERC20-_burn}."
					},
					"burnFrom(address,uint256)": {
						"details": "Destroys a `value` amount of tokens from `account`, deducting from the caller's allowance. See {ERC20-_burn} and {ERC20-allowance}. Requirements: - the caller must have allowance for ``accounts``'s tokens of at least `value`."
					},
					"decimals()": {
						"details": "Returns the number of decimals used to get its user representation. For example, if `decimals` equals `2`, a balance of `505` tokens should be displayed to a user as `5.05` (`505 / 10 ** 2`). Tokens usually opt for a value of 18, imitating the relationship between Ether and Wei. This is the default value returned by this function, unless it's overridden. NOTE: This information is only used for _display_ purposes: it in no way affects any of the arithmetic of the contract, including {IERC20-balanceOf} and {IERC20-transfer}."
					},
					"name()": {
						"details": "Returns the name of the token."
					},
					"owner()": {
						"details": "Returns the address of the current owner."
					},
					"paused()": {
						"details": "Returns true if the contract is paused, and false otherwise."
					},
					"renounceOwnership()": {
						"details": "Leaves the contract without owner. It will not be possible to call `onlyOwner` functions. Can only be called by the current owner. NOTE: Renouncing ownership will leave the contract without an owner, thereby disabling any functionality that is only available to the owner."
					},
					"symbol()": {
						"details": "Returns the symbol of the token, usually a shorter version of the name."
					},
					"totalSupply()": {
						"details": "See {IERC20-totalSupply}."
					},
					"transfer(address,uint256)": {
						"details": "See {IERC20-transfer}. Requirements: - `to` cannot be the zero address. - the caller must have a balance of at least `value`."
					},
					"transferFrom(address,address,uint256)": {
						"details": "See {IERC20-transferFrom}. Emits an {Approval} event indicating the updated allowance. This is not required by the EIP. See the note at the beginning of {ERC20}. NOTE: Does not update the allowance if the current allowance is the maximum `uint256`. Requirements: - `from` and `to` cannot be the zero address. - `from` must have a balance of at least `value`. - the caller must have allowance for ``from``'s tokens of at least `value`."
					},
					"transferOwnership(address)": {
						"details": "Transfers ownership of the contract to a new account (`newOwner`). Can only be called by the current owner."
					}
				},
				"version": 1
			},
			"evm": {
				"assembly": "    /* \"constracts/HealthMediToken_flattened.sol\":28890:32809  contract HMEDERC20Token is ERC20, ERC20Burnable, Pausable, Ownable(msg.sender) {... */\n  mstore(0x40, 0x80)\n    /* \"constracts/HealthMediToken_flattened.sol\":29643:29757  constructor() ERC20(_name, _symbol) {... */\n  callvalue\n  dup1\n  iszero\n  tag_1\n  jumpi\n  0x00\n  dup1\n  revert\ntag_1:\n  pop\n    /* \"constracts/HealthMediToken_flattened.sol\":28957:28967  msg.sender */\n  caller\n    /* \"constracts/HealthMediToken_flattened.sol\":29663:29668  _name */\n  mload(0x40)\n  dup1\n  0x40\n  add\n  0x40\n  mstore\n  dup1\n  0x0a\n  dup2\n  mstore\n  0x20\n  add\n  0x4845414c54484d45444900000000000000000000000000000000000000000000\n  dup2\n  mstore\n  pop\n    /* \"constracts/HealthMediToken_flattened.sol\":29670:29677  _symbol */\n  mload(0x40)\n  dup1\n  0x40\n  add\n  0x40\n  mstore\n  dup1\n  0x03\n  dup2\n  mstore\n  0x20\n  add\n  0x484d440000000000000000000000000000000000000000000000000000000000\n  dup2\n  mstore\n  pop\n    /* \"constracts/HealthMediToken_flattened.sol\":18458:18463  name_ */\n  dup2\n    /* \"constracts/HealthMediToken_flattened.sol\":18450:18455  _name */\n  0x03\n    /* \"constracts/HealthMediToken_flattened.sol\":18450:18463  _name = name_ */\n  swap1\n  dup2\n  tag_7\n  swap2\n  swap1\n  tag_8\n  jump\t// in\ntag_7:\n  pop\n    /* \"constracts/HealthMediToken_flattened.sol\":18483:18490  symbol_ */\n  dup1\n    /* \"constracts/HealthMediToken_flattened.sol\":18473:18480  _symbol */\n  0x04\n    /* \"constracts/HealthMediToken_flattened.sol\":18473:18490  _symbol = symbol_ */\n  swap1\n  dup2\n  tag_9\n  swap2\n  swap1\n  tag_8\n  jump\t// in\ntag_9:\n  pop\n    /* \"constracts/HealthMediToken_flattened.sol\":18384:18497  constructor(string memory name_, string memory symbol_) {... */\n  pop\n  pop\n    /* \"constracts/HealthMediToken_flattened.sol\":11631:11636  false */\n  0x00\n    /* \"constracts/HealthMediToken_flattened.sol\":11621:11628  _paused */\n  0x05\n  0x00\n    /* \"constracts/HealthMediToken_flattened.sol\":11621:11636  _paused = false */\n  0x0100\n  exp\n  dup2\n  sload\n  dup2\n  0xff\n  mul\n  not\n  and\n  swap1\n  dup4\n  iszero\n  iszero\n  mul\n  or\n  swap1\n  sstore\n  pop\n    /* \"constracts/HealthMediToken_flattened.sol\":8825:8826  0 */\n  0x00\n    /* \"constracts/HealthMediToken_flattened.sol\":8801:8827  initialOwner == address(0) */\n  0xffffffffffffffffffffffffffffffffffffffff\n  and\n    /* \"constracts/HealthMediToken_flattened.sol\":8801:8813  initialOwner */\n  dup2\n    /* \"constracts/HealthMediToken_flattened.sol\":8801:8827  initialOwner == address(0) */\n  0xffffffffffffffffffffffffffffffffffffffff\n  and\n  sub\n    /* \"constracts/HealthMediToken_flattened.sol\":8797:8892  if (initialOwner == address(0)) {... */\n  tag_12\n  jumpi\n    /* \"constracts/HealthMediToken_flattened.sol\":8878:8879  0 */\n  0x00\n    /* \"constracts/HealthMediToken_flattened.sol\":8850:8881  OwnableInvalidOwner(address(0)) */\n  mload(0x40)\n  0x1e4fbdf700000000000000000000000000000000000000000000000000000000\n  dup2\n  mstore\n  0x04\n  add\n  tag_13\n  swap2\n  swap1\n  tag_14\n  jump\t// in\ntag_13:\n  mload(0x40)\n  dup1\n  swap2\n  sub\n  swap1\n  revert\n    /* \"constracts/HealthMediToken_flattened.sol\":8797:8892  if (initialOwner == address(0)) {... */\ntag_12:\n    /* \"constracts/HealthMediToken_flattened.sol\":8901:8933  _transferOwnership(initialOwner) */\n  tag_15\n    /* \"constracts/HealthMediToken_flattened.sol\":8920:8932  initialOwner */\n  dup2\n    /* \"constracts/HealthMediToken_flattened.sol\":8901:8919  _transferOwnership */\n  shl(0x20, tag_16)\n    /* \"constracts/HealthMediToken_flattened.sol\":8901:8933  _transferOwnership(initialOwner) */\n  0x20\n  shr\n  jump\t// in\ntag_15:\n    /* \"constracts/HealthMediToken_flattened.sol\":8753:8940  constructor(address initialOwner) {... */\n  pop\n    /* \"constracts/HealthMediToken_flattened.sol\":29689:29750  _mint(msg.sender, _initial_supply * (10**uint256(_decimals))) */\n  tag_18\n    /* \"constracts/HealthMediToken_flattened.sol\":29695:29705  msg.sender */\n  caller\n    /* \"constracts/HealthMediToken_flattened.sol\":29187:29189  18 */\n  0x12\n    /* \"constracts/HealthMediToken_flattened.sol\":29730:29748  uint256(_decimals) */\n  0xff\n  and\n    /* \"constracts/HealthMediToken_flattened.sol\":29726:29728  10 */\n  0x0a\n    /* \"constracts/HealthMediToken_flattened.sol\":29726:29748  10**uint256(_decimals) */\n  tag_19\n  swap2\n  swap1\n  tag_20\n  jump\t// in\ntag_19:\n    /* \"constracts/HealthMediToken_flattened.sol\":29238:29252  10_000_000_000 */\n  0x02540be400\n    /* \"constracts/HealthMediToken_flattened.sol\":29707:29749  _initial_supply * (10**uint256(_decimals)) */\n  tag_21\n  swap2\n  swap1\n  tag_22\n  jump\t// in\ntag_21:\n    /* \"constracts/HealthMediToken_flattened.sol\":29689:29694  _mint */\n  shl(0x20, tag_23)\n    /* \"constracts/HealthMediToken_flattened.sol\":29689:29750  _mint(msg.sender, _initial_supply * (10**uint256(_decimals))) */\n  0x20\n  shr\n  jump\t// in\ntag_18:\n    /* \"constracts/HealthMediToken_flattened.sol\":28890:32809  contract HMEDERC20Token is ERC20, ERC20Burnable, Pausable, Ownable(msg.sender) {... */\n  jump(tag_24)\n    /* \"constracts/HealthMediToken_flattened.sol\":10440:10627  function _transferOwnership(address newOwner) internal virtual {... */\ntag_16:\n    /* \"constracts/HealthMediToken_flattened.sol\":10513:10529  address oldOwner */\n  0x00\n    /* \"constracts/HealthMediToken_flattened.sol\":10532:10538  _owner */\n  0x05\n  0x01\n  swap1\n  sload\n  swap1\n  0x0100\n  exp\n  swap1\n  div\n  0xffffffffffffffffffffffffffffffffffffffff\n  and\n    /* \"constracts/HealthMediToken_flattened.sol\":10513:10538  address oldOwner = _owner */\n  swap1\n  pop\n    /* \"constracts/HealthMediToken_flattened.sol\":10557:10565  newOwner */\n  dup2\n    /* \"constracts/HealthMediToken_flattened.sol\":10548:10554  _owner */\n  0x05\n  0x01\n    /* \"constracts/HealthMediToken_flattened.sol\":10548:10565  _owner = newOwner */\n  0x0100\n  exp\n  dup2\n  sload\n  dup2\n  0xffffffffffffffffffffffffffffffffffffffff\n  mul\n  not\n  and\n  swap1\n  dup4\n  0xffffffffffffffffffffffffffffffffffffffff\n  and\n  mul\n  or\n  swap1\n  sstore\n  pop\n    /* \"constracts/HealthMediToken_flattened.sol\":10611:10619  newOwner */\n  dup2\n    /* \"constracts/HealthMediToken_flattened.sol\":10580:10620  OwnershipTransferred(oldOwner, newOwner) */\n  0xffffffffffffffffffffffffffffffffffffffff\n  and\n    /* \"constracts/HealthMediToken_flattened.sol\":10601:10609  oldOwner */\n  dup2\n    /* \"constracts/HealthMediToken_flattened.sol\":10580:10620  OwnershipTransferred(oldOwner, newOwner) */\n  0xffffffffffffffffffffffffffffffffffffffff\n  and\n  0x8be0079c531659141344cd1fd0a4f28419497f9722a3daafe3b4186f6b6457e0\n  mload(0x40)\n  mload(0x40)\n  dup1\n  swap2\n  sub\n  swap1\n  log3\n    /* \"constracts/HealthMediToken_flattened.sol\":10503:10627  {... */\n  pop\n    /* \"constracts/HealthMediToken_flattened.sol\":10440:10627  function _transferOwnership(address newOwner) internal virtual {... */\n  pop\n  jump\t// out\n    /* \"constracts/HealthMediToken_flattened.sol\":24218:24426  function _mint(address account, uint256 value) internal {... */\ntag_23:\n    /* \"constracts/HealthMediToken_flattened.sol\":24307:24308  0 */\n  0x00\n    /* \"constracts/HealthMediToken_flattened.sol\":24288:24309  account == address(0) */\n  0xffffffffffffffffffffffffffffffffffffffff\n  and\n    /* \"constracts/HealthMediToken_flattened.sol\":24288:24295  account */\n  dup3\n    /* \"constracts/HealthMediToken_flattened.sol\":24288:24309  account == address(0) */\n  0xffffffffffffffffffffffffffffffffffffffff\n  and\n  sub\n    /* \"constracts/HealthMediToken_flattened.sol\":24284:24375  if (account == address(0)) {... */\n  tag_27\n  jumpi\n    /* \"constracts/HealthMediToken_flattened.sol\":24361:24362  0 */\n  0x00\n    /* \"constracts/HealthMediToken_flattened.sol\":24332:24364  ERC20InvalidReceiver(address(0)) */\n  mload(0x40)\n  0xec442f0500000000000000000000000000000000000000000000000000000000\n  dup2\n  mstore\n  0x04\n  add\n  tag_28\n  swap2\n  swap1\n  tag_14\n  jump\t// in\ntag_28:\n  mload(0x40)\n  dup1\n  swap2\n  sub\n  swap1\n  revert\n    /* \"constracts/HealthMediToken_flattened.sol\":24284:24375  if (account == address(0)) {... */\ntag_27:\n    /* \"constracts/HealthMediToken_flattened.sol\":24384:24419  _update(address(0), account, value) */\n  tag_29\n    /* \"constracts/HealthMediToken_flattened.sol\":24400:24401  0 */\n  0x00\n    /* \"constracts/HealthMediToken_flattened.sol\":24404:24411  account */\n  dup4\n    /* \"constracts/HealthMediToken_flattened.sol\":24413:24418  value */\n  dup4\n    /* \"constracts/HealthMediToken_flattened.sol\":24384:24391  _update */\n  shl(0x20, tag_30)\n    /* \"constracts/HealthMediToken_flattened.sol\":24384:24419  _update(address(0), account, value) */\n  0x20\n  shr\n  jump\t// in\ntag_29:\n    /* \"constracts/HealthMediToken_flattened.sol\":24218:24426  function _mint(address account, uint256 value) internal {... */\n  pop\n  pop\n  jump\t// out\n    /* \"constracts/HealthMediToken_flattened.sol\":29763:30296  function _update(address from, address to, uint256 amount) internal override {... */\ntag_30:\n    /* \"constracts/HealthMediToken_flattened.sol\":29960:29961  0 */\n  0x00\n    /* \"constracts/HealthMediToken_flattened.sol\":29944:29962  from != address(0) */\n  0xffffffffffffffffffffffffffffffffffffffff\n  and\n    /* \"constracts/HealthMediToken_flattened.sol\":29944:29948  from */\n  dup4\n    /* \"constracts/HealthMediToken_flattened.sol\":29944:29962  from != address(0) */\n  0xffffffffffffffffffffffffffffffffffffffff\n  and\n  eq\n  iszero\n    /* \"constracts/HealthMediToken_flattened.sol\":29944:29982  from != address(0) && to != address(0) */\n  dup1\n  iszero\n  tag_32\n  jumpi\n  pop\n    /* \"constracts/HealthMediToken_flattened.sol\":29980:29981  0 */\n  0x00\n    /* \"constracts/HealthMediToken_flattened.sol\":29966:29982  to != address(0) */\n  0xffffffffffffffffffffffffffffffffffffffff\n  and\n    /* \"constracts/HealthMediToken_flattened.sol\":29966:29968  to */\n  dup3\n    /* \"constracts/HealthMediToken_flattened.sol\":29966:29982  to != address(0) */\n  0xffffffffffffffffffffffffffffffffffffffff\n  and\n  eq\n  iszero\n    /* \"constracts/HealthMediToken_flattened.sol\":29944:29982  from != address(0) && to != address(0) */\ntag_32:\n    /* \"constracts/HealthMediToken_flattened.sol\":29941:30240  if(from != address(0) && to != address(0)) {... */\n  iszero\n  tag_33\n  jumpi\n    /* \"constracts/HealthMediToken_flattened.sol\":30007:30015  paused() */\n  tag_34\n    /* \"constracts/HealthMediToken_flattened.sol\":30007:30013  paused */\n  shl(0x20, tag_35)\n    /* \"constracts/HealthMediToken_flattened.sol\":30007:30015  paused() */\n  0x20\n  shr\n  jump\t// in\ntag_34:\n    /* \"constracts/HealthMediToken_flattened.sol\":30006:30015  !paused() */\n  iszero\n    /* \"constracts/HealthMediToken_flattened.sol\":30006:30040  !paused() || msg.sender == owner() */\n  dup1\n  tag_36\n  jumpi\n  pop\n    /* \"constracts/HealthMediToken_flattened.sol\":30033:30040  owner() */\n  tag_37\n    /* \"constracts/HealthMediToken_flattened.sol\":30033:30038  owner */\n  shl(0x20, tag_38)\n    /* \"constracts/HealthMediToken_flattened.sol\":30033:30040  owner() */\n  0x20\n  shr\n  jump\t// in\ntag_37:\n    /* \"constracts/HealthMediToken_flattened.sol\":30019:30040  msg.sender == owner() */\n  0xffffffffffffffffffffffffffffffffffffffff\n  and\n    /* \"constracts/HealthMediToken_flattened.sol\":30019:30029  msg.sender */\n  caller\n    /* \"constracts/HealthMediToken_flattened.sol\":30019:30040  msg.sender == owner() */\n  0xffffffffffffffffffffffffffffffffffffffff\n  and\n  eq\n    /* \"constracts/HealthMediToken_flattened.sol\":30006:30040  !paused() || msg.sender == owner() */\ntag_36:\n    /* \"constracts/HealthMediToken_flattened.sol\":29998:30072  require(!paused() || msg.sender == owner(), \"Token transfer while paused\") */\n  tag_39\n  jumpi\n  mload(0x40)\n  0x08c379a000000000000000000000000000000000000000000000000000000000\n  dup2\n  mstore\n  0x04\n  add\n  tag_40\n  swap1\n  tag_41\n  jump\t// in\ntag_40:\n  mload(0x40)\n  dup1\n  swap2\n  sub\n  swap1\n  revert\ntag_39:\n    /* \"constracts/HealthMediToken_flattened.sol\":30145:30169  _checkLock(from, amount) */\n  tag_42\n    /* \"constracts/HealthMediToken_flattened.sol\":30156:30160  from */\n  dup4\n    /* \"constracts/HealthMediToken_flattened.sol\":30162:30168  amount */\n  dup3\n    /* \"constracts/HealthMediToken_flattened.sol\":30145:30155  _checkLock */\n  shl(0x20, tag_43)\n    /* \"constracts/HealthMediToken_flattened.sol\":30145:30169  _checkLock(from, amount) */\n  0x20\n  shr\n  jump\t// in\ntag_42:\n    /* \"constracts/HealthMediToken_flattened.sol\":30137:30229  require(_checkLock(from, amount), \"ERC20Lockable: transfer amount exceeds unlocked balance\") */\n  tag_44\n  jumpi\n  mload(0x40)\n  0x08c379a000000000000000000000000000000000000000000000000000000000\n  dup2\n  mstore\n  0x04\n  add\n  tag_45\n  swap1\n  tag_46\n  jump\t// in\ntag_45:\n  mload(0x40)\n  dup1\n  swap2\n  sub\n  swap1\n  revert\ntag_44:\n    /* \"constracts/HealthMediToken_flattened.sol\":29941:30240  if(from != address(0) && to != address(0)) {... */\ntag_33:\n    /* \"constracts/HealthMediToken_flattened.sol\":30258:30289  super._update(from, to, amount) */\n  tag_47\n    /* \"constracts/HealthMediToken_flattened.sol\":30272:30276  from */\n  dup4\n    /* \"constracts/HealthMediToken_flattened.sol\":30278:30280  to */\n  dup4\n    /* \"constracts/HealthMediToken_flattened.sol\":30282:30288  amount */\n  dup4\n    /* \"constracts/HealthMediToken_flattened.sol\":30258:30271  super._update */\n  shl(0x20, tag_48)\n    /* \"constracts/HealthMediToken_flattened.sol\":30258:30289  super._update(from, to, amount) */\n  0x20\n  shr\n  jump\t// in\ntag_47:\n    /* \"constracts/HealthMediToken_flattened.sol\":29763:30296  function _update(address from, address to, uint256 amount) internal override {... */\n  pop\n  pop\n  pop\n  jump\t// out\n    /* \"constracts/HealthMediToken_flattened.sol\":12240:12324  function paused() public view virtual returns (bool) {... */\ntag_35:\n    /* \"constracts/HealthMediToken_flattened.sol\":12287:12291  bool */\n  0x00\n    /* \"constracts/HealthMediToken_flattened.sol\":12310:12317  _paused */\n  0x05\n  0x00\n  swap1\n  sload\n  swap1\n  0x0100\n  exp\n  swap1\n  div\n  0xff\n  and\n    /* \"constracts/HealthMediToken_flattened.sol\":12303:12317  return _paused */\n  swap1\n  pop\n    /* \"constracts/HealthMediToken_flattened.sol\":12240:12324  function paused() public view virtual returns (bool) {... */\n  swap1\n  jump\t// out\n    /* \"constracts/HealthMediToken_flattened.sol\":9166:9251  function owner() public view virtual returns (address) {... */\ntag_38:\n    /* \"constracts/HealthMediToken_flattened.sol\":9212:9219  address */\n  0x00\n    /* \"constracts/HealthMediToken_flattened.sol\":9238:9244  _owner */\n  0x05\n  0x01\n  swap1\n  sload\n  swap1\n  0x0100\n  exp\n  swap1\n  div\n  0xffffffffffffffffffffffffffffffffffffffff\n  and\n    /* \"constracts/HealthMediToken_flattened.sol\":9231:9244  return _owner */\n  swap1\n  pop\n    /* \"constracts/HealthMediToken_flattened.sol\":9166:9251  function owner() public view virtual returns (address) {... */\n  swap1\n  jump\t// out\n    /* \"constracts/HealthMediToken_flattened.sol\":31877:32445  function _checkLock(address from, uint256 amount) private view returns (bool) {... */\ntag_43:\n    /* \"constracts/HealthMediToken_flattened.sol\":31949:31953  bool */\n  0x00\n    /* \"constracts/HealthMediToken_flattened.sol\":31965:31985  uint256 lockedAmount */\n  dup1\n    /* \"constracts/HealthMediToken_flattened.sol\":31988:31989  0 */\n  0x00\n    /* \"constracts/HealthMediToken_flattened.sol\":31965:31989  uint256 lockedAmount = 0 */\n  swap1\n  pop\n    /* \"constracts/HealthMediToken_flattened.sol\":32093:32102  uint256 i */\n  0x00\n    /* \"constracts/HealthMediToken_flattened.sol\":32088:32284  for (uint256 i = 0; i < _locks[from].length; i++) {... */\ntag_52:\n    /* \"constracts/HealthMediToken_flattened.sol\":32112:32118  _locks */\n  0x07\n    /* \"constracts/HealthMediToken_flattened.sol\":32112:32124  _locks[from] */\n  0x00\n    /* \"constracts/HealthMediToken_flattened.sol\":32119:32123  from */\n  dup7\n    /* \"constracts/HealthMediToken_flattened.sol\":32112:32124  _locks[from] */\n  0xffffffffffffffffffffffffffffffffffffffff\n  and\n  0xffffffffffffffffffffffffffffffffffffffff\n  and\n  dup2\n  mstore\n  0x20\n  add\n  swap1\n  dup2\n  mstore\n  0x20\n  add\n  0x00\n  keccak256\n    /* \"constracts/HealthMediToken_flattened.sol\":32112:32131  _locks[from].length */\n  dup1\n  sload\n  swap1\n  pop\n    /* \"constracts/HealthMediToken_flattened.sol\":32108:32109  i */\n  dup2\n    /* \"constracts/HealthMediToken_flattened.sol\":32108:32131  i < _locks[from].length */\n  lt\n    /* \"constracts/HealthMediToken_flattened.sol\":32088:32284  for (uint256 i = 0; i < _locks[from].length; i++) {... */\n  iszero\n  tag_53\n  jumpi\n    /* \"constracts/HealthMediToken_flattened.sol\":32186:32201  block.timestamp */\n  timestamp\n    /* \"constracts/HealthMediToken_flattened.sol\":32156:32162  _locks */\n  0x07\n    /* \"constracts/HealthMediToken_flattened.sol\":32156:32168  _locks[from] */\n  0x00\n    /* \"constracts/HealthMediToken_flattened.sol\":32163:32167  from */\n  dup8\n    /* \"constracts/HealthMediToken_flattened.sol\":32156:32168  _locks[from] */\n  0xffffffffffffffffffffffffffffffffffffffff\n  and\n  0xffffffffffffffffffffffffffffffffffffffff\n  and\n  dup2\n  mstore\n  0x20\n  add\n  swap1\n  dup2\n  mstore\n  0x20\n  add\n  0x00\n  keccak256\n    /* \"constracts/HealthMediToken_flattened.sol\":32169:32170  i */\n  dup3\n    /* \"constracts/HealthMediToken_flattened.sol\":32156:32171  _locks[from][i] */\n  dup2\n  sload\n  dup2\n  lt\n  tag_55\n  jumpi\n  tag_56\n  tag_57\n  jump\t// in\ntag_56:\ntag_55:\n  swap1\n  0x00\n  mstore\n  keccak256(0x00, 0x20)\n  swap1\n  0x02\n  mul\n  add\n    /* \"constracts/HealthMediToken_flattened.sol\":32156:32183  _locks[from][i].releaseTime */\n  0x01\n  add\n  sload\n    /* \"constracts/HealthMediToken_flattened.sol\":32156:32201  _locks[from][i].releaseTime > block.timestamp */\n  gt\n    /* \"constracts/HealthMediToken_flattened.sol\":32152:32274  if (_locks[from][i].releaseTime > block.timestamp) {... */\n  iszero\n  tag_59\n  jumpi\n    /* \"constracts/HealthMediToken_flattened.sol\":32237:32243  _locks */\n  0x07\n    /* \"constracts/HealthMediToken_flattened.sol\":32237:32249  _locks[from] */\n  0x00\n    /* \"constracts/HealthMediToken_flattened.sol\":32244:32248  from */\n  dup7\n    /* \"constracts/HealthMediToken_flattened.sol\":32237:32249  _locks[from] */\n  0xffffffffffffffffffffffffffffffffffffffff\n  and\n  0xffffffffffffffffffffffffffffffffffffffff\n  and\n  dup2\n  mstore\n  0x20\n  add\n  swap1\n  dup2\n  mstore\n  0x20\n  add\n  0x00\n  keccak256\n    /* \"constracts/HealthMediToken_flattened.sol\":32250:32251  i */\n  dup2\n    /* \"constracts/HealthMediToken_flattened.sol\":32237:32252  _locks[from][i] */\n  dup2\n  sload\n  dup2\n  lt\n  tag_60\n  jumpi\n  tag_61\n  tag_57\n  jump\t// in\ntag_61:\ntag_60:\n  swap1\n  0x00\n  mstore\n  keccak256(0x00, 0x20)\n  swap1\n  0x02\n  mul\n  add\n    /* \"constracts/HealthMediToken_flattened.sol\":32237:32259  _locks[from][i].amount */\n  0x00\n  add\n  sload\n    /* \"constracts/HealthMediToken_flattened.sol\":32221:32259  lockedAmount += _locks[from][i].amount */\n  dup3\n  tag_63\n  swap2\n  swap1\n  tag_64\n  jump\t// in\ntag_63:\n  swap2\n  pop\n    /* \"constracts/HealthMediToken_flattened.sol\":32152:32274  if (_locks[from][i].releaseTime > block.timestamp) {... */\ntag_59:\n    /* \"constracts/HealthMediToken_flattened.sol\":32133:32136  i++ */\n  dup1\n  dup1\n  0x01\n  add\n  swap2\n  pop\n  pop\n    /* \"constracts/HealthMediToken_flattened.sol\":32088:32284  for (uint256 i = 0; i < _locks[from].length; i++) {... */\n  jump(tag_52)\ntag_53:\n  pop\n    /* \"constracts/HealthMediToken_flattened.sol\":32432:32438  amount */\n  dup3\n    /* \"constracts/HealthMediToken_flattened.sol\":32416:32428  lockedAmount */\n  dup2\n    /* \"constracts/HealthMediToken_flattened.sol\":32398:32413  balanceOf(from) */\n  tag_65\n    /* \"constracts/HealthMediToken_flattened.sol\":32408:32412  from */\n  dup7\n    /* \"constracts/HealthMediToken_flattened.sol\":32398:32407  balanceOf */\n  shl(0x20, tag_66)\n    /* \"constracts/HealthMediToken_flattened.sol\":32398:32413  balanceOf(from) */\n  0x20\n  shr\n  jump\t// in\ntag_65:\n    /* \"constracts/HealthMediToken_flattened.sol\":32398:32428  balanceOf(from) - lockedAmount */\n  tag_67\n  swap2\n  swap1\n  tag_68\n  jump\t// in\ntag_67:\n    /* \"constracts/HealthMediToken_flattened.sol\":32398:32438  balanceOf(from) - lockedAmount >= amount */\n  lt\n  iszero\n    /* \"constracts/HealthMediToken_flattened.sol\":32391:32438  return balanceOf(from) - lockedAmount >= amount */\n  swap2\n  pop\n  pop\n    /* \"constracts/HealthMediToken_flattened.sol\":31877:32445  function _checkLock(address from, uint256 amount) private view returns (bool) {... */\n  swap3\n  swap2\n  pop\n  pop\n  jump\t// out\n    /* \"constracts/HealthMediToken_flattened.sol\":22768:23875  function _update(address from, address to, uint256 value) internal virtual {... */\ntag_48:\n    /* \"constracts/HealthMediToken_flattened.sol\":22873:22874  0 */\n  0x00\n    /* \"constracts/HealthMediToken_flattened.sol\":22857:22875  from == address(0) */\n  0xffffffffffffffffffffffffffffffffffffffff\n  and\n    /* \"constracts/HealthMediToken_flattened.sol\":22857:22861  from */\n  dup4\n    /* \"constracts/HealthMediToken_flattened.sol\":22857:22875  from == address(0) */\n  0xffffffffffffffffffffffffffffffffffffffff\n  and\n  sub\n    /* \"constracts/HealthMediToken_flattened.sol\":22853:23393  if (from == address(0)) {... */\n  tag_70\n  jumpi\n    /* \"constracts/HealthMediToken_flattened.sol\":23009:23014  value */\n  dup1\n    /* \"constracts/HealthMediToken_flattened.sol\":22993:23005  _totalSupply */\n  0x02\n  0x00\n    /* \"constracts/HealthMediToken_flattened.sol\":22993:23014  _totalSupply += value */\n  dup3\n  dup3\n  sload\n  tag_71\n  swap2\n  swap1\n  tag_64\n  jump\t// in\ntag_71:\n  swap3\n  pop\n  pop\n  dup2\n  swap1\n  sstore\n  pop\n    /* \"constracts/HealthMediToken_flattened.sol\":22853:23393  if (from == address(0)) {... */\n  jump(tag_72)\ntag_70:\n    /* \"constracts/HealthMediToken_flattened.sol\":23045:23064  uint256 fromBalance */\n  0x00\n    /* \"constracts/HealthMediToken_flattened.sol\":23067:23076  _balances */\n  dup1\n    /* \"constracts/HealthMediToken_flattened.sol\":23067:23082  _balances[from] */\n  0x00\n    /* \"constracts/HealthMediToken_flattened.sol\":23077:23081  from */\n  dup6\n    /* \"constracts/HealthMediToken_flattened.sol\":23067:23082  _balances[from] */\n  0xffffffffffffffffffffffffffffffffffffffff\n  and\n  0xffffffffffffffffffffffffffffffffffffffff\n  and\n  dup2\n  mstore\n  0x20\n  add\n  swap1\n  dup2\n  mstore\n  0x20\n  add\n  0x00\n  keccak256\n  sload\n    /* \"constracts/HealthMediToken_flattened.sol\":23045:23082  uint256 fromBalance = _balances[from] */\n  swap1\n  pop\n    /* \"constracts/HealthMediToken_flattened.sol\":23114:23119  value */\n  dup2\n    /* \"constracts/HealthMediToken_flattened.sol\":23100:23111  fromBalance */\n  dup2\n    /* \"constracts/HealthMediToken_flattened.sol\":23100:23119  fromBalance < value */\n  lt\n    /* \"constracts/HealthMediToken_flattened.sol\":23096:23211  if (fromBalance < value) {... */\n  iszero\n  tag_73\n  jumpi\n    /* \"constracts/HealthMediToken_flattened.sol\":23171:23175  from */\n  dup4\n    /* \"constracts/HealthMediToken_flattened.sol\":23177:23188  fromBalance */\n  dup2\n    /* \"constracts/HealthMediToken_flattened.sol\":23190:23195  value */\n  dup4\n    /* \"constracts/HealthMediToken_flattened.sol\":23146:23196  ERC20InsufficientBalance(from, fromBalance, value) */\n  mload(0x40)\n  0xe450d38c00000000000000000000000000000000000000000000000000000000\n  dup2\n  mstore\n  0x04\n  add\n  tag_74\n  swap4\n  swap3\n  swap2\n  swap1\n  tag_75\n  jump\t// in\ntag_74:\n  mload(0x40)\n  dup1\n  swap2\n  sub\n  swap1\n  revert\n    /* \"constracts/HealthMediToken_flattened.sol\":23096:23211  if (fromBalance < value) {... */\ntag_73:\n    /* \"constracts/HealthMediToken_flattened.sol\":23363:23368  value */\n  dup2\n    /* \"constracts/HealthMediToken_flattened.sol\":23349:23360  fromBalance */\n  dup2\n    /* \"constracts/HealthMediToken_flattened.sol\":23349:23368  fromBalance - value */\n  sub\n    /* \"constracts/HealthMediToken_flattened.sol\":23331:23340  _balances */\n  0x00\n    /* \"constracts/HealthMediToken_flattened.sol\":23331:23346  _balances[from] */\n  dup1\n    /* \"constracts/HealthMediToken_flattened.sol\":23341:23345  from */\n  dup7\n    /* \"constracts/HealthMediToken_flattened.sol\":23331:23346  _balances[from] */\n  0xffffffffffffffffffffffffffffffffffffffff\n  and\n  0xffffffffffffffffffffffffffffffffffffffff\n  and\n  dup2\n  mstore\n  0x20\n  add\n  swap1\n  dup2\n  mstore\n  0x20\n  add\n  0x00\n  keccak256\n    /* \"constracts/HealthMediToken_flattened.sol\":23331:23368  _balances[from] = fromBalance - value */\n  dup2\n  swap1\n  sstore\n  pop\n    /* \"constracts/HealthMediToken_flattened.sol\":23031:23393  {... */\n  pop\n    /* \"constracts/HealthMediToken_flattened.sol\":22853:23393  if (from == address(0)) {... */\ntag_72:\n    /* \"constracts/HealthMediToken_flattened.sol\":23421:23422  0 */\n  0x00\n    /* \"constracts/HealthMediToken_flattened.sol\":23407:23423  to == address(0) */\n  0xffffffffffffffffffffffffffffffffffffffff\n  and\n    /* \"constracts/HealthMediToken_flattened.sol\":23407:23409  to */\n  dup3\n    /* \"constracts/HealthMediToken_flattened.sol\":23407:23423  to == address(0) */\n  0xffffffffffffffffffffffffffffffffffffffff\n  and\n  sub\n    /* \"constracts/HealthMediToken_flattened.sol\":23403:23828  if (to == address(0)) {... */\n  tag_76\n  jumpi\n    /* \"constracts/HealthMediToken_flattened.sol\":23586:23591  value */\n  dup1\n    /* \"constracts/HealthMediToken_flattened.sol\":23570:23582  _totalSupply */\n  0x02\n  0x00\n    /* \"constracts/HealthMediToken_flattened.sol\":23570:23591  _totalSupply -= value */\n  dup3\n  dup3\n  sload\n  sub\n  swap3\n  pop\n  pop\n  dup2\n  swap1\n  sstore\n  pop\n    /* \"constracts/HealthMediToken_flattened.sol\":23403:23828  if (to == address(0)) {... */\n  jump(tag_77)\ntag_76:\n    /* \"constracts/HealthMediToken_flattened.sol\":23798:23803  value */\n  dup1\n    /* \"constracts/HealthMediToken_flattened.sol\":23781:23790  _balances */\n  0x00\n    /* \"constracts/HealthMediToken_flattened.sol\":23781:23794  _balances[to] */\n  dup1\n    /* \"constracts/HealthMediToken_flattened.sol\":23791:23793  to */\n  dup5\n    /* \"constracts/HealthMediToken_flattened.sol\":23781:23794  _balances[to] */\n  0xffffffffffffffffffffffffffffffffffffffff\n  and\n  0xffffffffffffffffffffffffffffffffffffffff\n  and\n  dup2\n  mstore\n  0x20\n  add\n  swap1\n  dup2\n  mstore\n  0x20\n  add\n  0x00\n  keccak256\n  0x00\n    /* \"constracts/HealthMediToken_flattened.sol\":23781:23803  _balances[to] += value */\n  dup3\n  dup3\n  sload\n  add\n  swap3\n  pop\n  pop\n  dup2\n  swap1\n  sstore\n  pop\n    /* \"constracts/HealthMediToken_flattened.sol\":23403:23828  if (to == address(0)) {... */\ntag_77:\n    /* \"constracts/HealthMediToken_flattened.sol\":23858:23860  to */\n  dup2\n    /* \"constracts/HealthMediToken_flattened.sol\":23843:23868  Transfer(from, to, value) */\n  0xffffffffffffffffffffffffffffffffffffffff\n  and\n    /* \"constracts/HealthMediToken_flattened.sol\":23852:23856  from */\n  dup4\n    /* \"constracts/HealthMediToken_flattened.sol\":23843:23868  Transfer(from, to, value) */\n  0xffffffffffffffffffffffffffffffffffffffff\n  and\n  0xddf252ad1be2c89b69c2b068fc378daa952ba7f163c4a11628f55a4df523b3ef\n    /* \"constracts/HealthMediToken_flattened.sol\":23862:23867  value */\n  dup4\n    /* \"constracts/HealthMediToken_flattened.sol\":23843:23868  Transfer(from, to, value) */\n  mload(0x40)\n  tag_78\n  swap2\n  swap1\n  tag_79\n  jump\t// in\ntag_78:\n  mload(0x40)\n  dup1\n  swap2\n  sub\n  swap1\n  log3\n    /* \"constracts/HealthMediToken_flattened.sol\":22768:23875  function _update(address from, address to, uint256 value) internal virtual {... */\n  pop\n  pop\n  pop\n  jump\t// out\n    /* \"constracts/HealthMediToken_flattened.sol\":19787:19903  function balanceOf(address account) public view virtual returns (uint256) {... */\ntag_66:\n    /* \"constracts/HealthMediToken_flattened.sol\":19852:19859  uint256 */\n  0x00\n    /* \"constracts/HealthMediToken_flattened.sol\":19878:19887  _balances */\n  dup1\n    /* \"constracts/HealthMediToken_flattened.sol\":19878:19896  _balances[account] */\n  0x00\n    /* \"constracts/HealthMediToken_flattened.sol\":19888:19895  account */\n  dup4\n    /* \"constracts/HealthMediToken_flattened.sol\":19878:19896  _balances[account] */\n  0xffffffffffffffffffffffffffffffffffffffff\n  and\n  0xffffffffffffffffffffffffffffffffffffffff\n  and\n  dup2\n  mstore\n  0x20\n  add\n  swap1\n  dup2\n  mstore\n  0x20\n  add\n  0x00\n  keccak256\n  sload\n    /* \"constracts/HealthMediToken_flattened.sol\":19871:19896  return _balances[account] */\n  swap1\n  pop\n    /* \"constracts/HealthMediToken_flattened.sol\":19787:19903  function balanceOf(address account) public view virtual returns (uint256) {... */\n  swap2\n  swap1\n  pop\n  jump\t// out\n    /* \"#utility.yul\":7:106   */\ntag_81:\n    /* \"#utility.yul\":59:65   */\n  0x00\n    /* \"#utility.yul\":93:98   */\n  dup2\n    /* \"#utility.yul\":87:99   */\n  mload\n    /* \"#utility.yul\":77:99   */\n  swap1\n  pop\n    /* \"#utility.yul\":7:106   */\n  swap2\n  swap1\n  pop\n  jump\t// out\n    /* \"#utility.yul\":112:292   */\ntag_82:\n    /* \"#utility.yul\":160:237   */\n  0x4e487b7100000000000000000000000000000000000000000000000000000000\n    /* \"#utility.yul\":157:158   */\n  0x00\n    /* \"#utility.yul\":150:238   */\n  mstore\n    /* \"#utility.yul\":257:261   */\n  0x41\n    /* \"#utility.yul\":254:255   */\n  0x04\n    /* \"#utility.yul\":247:262   */\n  mstore\n    /* \"#utility.yul\":281:285   */\n  0x24\n    /* \"#utility.yul\":278:279   */\n  0x00\n    /* \"#utility.yul\":271:286   */\n  revert\n    /* \"#utility.yul\":298:478   */\ntag_83:\n    /* \"#utility.yul\":346:423   */\n  0x4e487b7100000000000000000000000000000000000000000000000000000000\n    /* \"#utility.yul\":343:344   */\n  0x00\n    /* \"#utility.yul\":336:424   */\n  mstore\n    /* \"#utility.yul\":443:447   */\n  0x22\n    /* \"#utility.yul\":440:441   */\n  0x04\n    /* \"#utility.yul\":433:448   */\n  mstore\n    /* \"#utility.yul\":467:471   */\n  0x24\n    /* \"#utility.yul\":464:465   */\n  0x00\n    /* \"#utility.yul\":457:472   */\n  revert\n    /* \"#utility.yul\":484:804   */\ntag_84:\n    /* \"#utility.yul\":528:534   */\n  0x00\n    /* \"#utility.yul\":565:566   */\n  0x02\n    /* \"#utility.yul\":559:563   */\n  dup3\n    /* \"#utility.yul\":555:567   */\n  div\n    /* \"#utility.yul\":545:567   */\n  swap1\n  pop\n    /* \"#utility.yul\":612:613   */\n  0x01\n    /* \"#utility.yul\":606:610   */\n  dup3\n    /* \"#utility.yul\":602:614   */\n  and\n    /* \"#utility.yul\":633:651   */\n  dup1\n    /* \"#utility.yul\":623:704   */\n  tag_119\n  jumpi\n    /* \"#utility.yul\":689:693   */\n  0x7f\n    /* \"#utility.yul\":681:687   */\n  dup3\n    /* \"#utility.yul\":677:694   */\n  and\n    /* \"#utility.yul\":667:694   */\n  swap2\n  pop\n    /* \"#utility.yul\":623:704   */\ntag_119:\n    /* \"#utility.yul\":751:753   */\n  0x20\n    /* \"#utility.yul\":743:749   */\n  dup3\n    /* \"#utility.yul\":740:754   */\n  lt\n    /* \"#utility.yul\":720:738   */\n  dup2\n    /* \"#utility.yul\":717:755   */\n  sub\n    /* \"#utility.yul\":714:798   */\n  tag_120\n  jumpi\n    /* \"#utility.yul\":770:788   */\n  tag_121\n  tag_83\n  jump\t// in\ntag_121:\n    /* \"#utility.yul\":714:798   */\ntag_120:\n    /* \"#utility.yul\":535:804   */\n  pop\n    /* \"#utility.yul\":484:804   */\n  swap2\n  swap1\n  pop\n  jump\t// out\n    /* \"#utility.yul\":810:951   */\ntag_85:\n    /* \"#utility.yul\":859:863   */\n  0x00\n    /* \"#utility.yul\":882:885   */\n  dup2\n    /* \"#utility.yul\":874:885   */\n  swap1\n  pop\n    /* \"#utility.yul\":905:908   */\n  dup2\n    /* \"#utility.yul\":902:903   */\n  0x00\n    /* \"#utility.yul\":895:909   */\n  mstore\n    /* \"#utility.yul\":939:943   */\n  0x20\n    /* \"#utility.yul\":936:937   */\n  0x00\n    /* \"#utility.yul\":926:944   */\n  keccak256\n    /* \"#utility.yul\":918:944   */\n  swap1\n  pop\n    /* \"#utility.yul\":810:951   */\n  swap2\n  swap1\n  pop\n  jump\t// out\n    /* \"#utility.yul\":957:1050   */\ntag_86:\n    /* \"#utility.yul\":994:1000   */\n  0x00\n    /* \"#utility.yul\":1041:1043   */\n  0x20\n    /* \"#utility.yul\":1036:1038   */\n  0x1f\n    /* \"#utility.yul\":1029:1034   */\n  dup4\n    /* \"#utility.yul\":1025:1039   */\n  add\n    /* \"#utility.yul\":1021:1044   */\n  div\n    /* \"#utility.yul\":1011:1044   */\n  swap1\n  pop\n    /* \"#utility.yul\":957:1050   */\n  swap2\n  swap1\n  pop\n  jump\t// out\n    /* \"#utility.yul\":1056:1163   */\ntag_87:\n    /* \"#utility.yul\":1100:1108   */\n  0x00\n    /* \"#utility.yul\":1150:1155   */\n  dup3\n    /* \"#utility.yul\":1144:1148   */\n  dup3\n    /* \"#utility.yul\":1140:1156   */\n  shl\n    /* \"#utility.yul\":1119:1156   */\n  swap1\n  pop\n    /* \"#utility.yul\":1056:1163   */\n  swap3\n  swap2\n  pop\n  pop\n  jump\t// out\n    /* \"#utility.yul\":1169:1562   */\ntag_88:\n    /* \"#utility.yul\":1238:1244   */\n  0x00\n    /* \"#utility.yul\":1288:1289   */\n  0x08\n    /* \"#utility.yul\":1276:1286   */\n  dup4\n    /* \"#utility.yul\":1272:1290   */\n  mul\n    /* \"#utility.yul\":1311:1408   */\n  tag_126\n    /* \"#utility.yul\":1341:1407   */\n  0xffffffffffffffffffffffffffffffffffffffffffffffffffffffffffffffff\n    /* \"#utility.yul\":1330:1339   */\n  dup3\n    /* \"#utility.yul\":1311:1408   */\n  tag_87\n  jump\t// in\ntag_126:\n    /* \"#utility.yul\":1429:1468   */\n  tag_127\n    /* \"#utility.yul\":1459:1467   */\n  dup7\n    /* \"#utility.yul\":1448:1457   */\n  dup4\n    /* \"#utility.yul\":1429:1468   */\n  tag_87\n  jump\t// in\ntag_127:\n    /* \"#utility.yul\":1417:1468   */\n  swap6\n  pop\n    /* \"#utility.yul\":1501:1505   */\n  dup1\n    /* \"#utility.yul\":1497:1506   */\n  not\n    /* \"#utility.yul\":1490:1495   */\n  dup5\n    /* \"#utility.yul\":1486:1507   */\n  and\n    /* \"#utility.yul\":1477:1507   */\n  swap4\n  pop\n    /* \"#utility.yul\":1550:1554   */\n  dup1\n    /* \"#utility.yul\":1540:1548   */\n  dup7\n    /* \"#utility.yul\":1536:1555   */\n  and\n    /* \"#utility.yul\":1529:1534   */\n  dup5\n    /* \"#utility.yul\":1526:1556   */\n  or\n    /* \"#utility.yul\":1516:1556   */\n  swap3\n  pop\n    /* \"#utility.yul\":1245:1562   */\n  pop\n  pop\n    /* \"#utility.yul\":1169:1562   */\n  swap4\n  swap3\n  pop\n  pop\n  pop\n  jump\t// out\n    /* \"#utility.yul\":1568:1645   */\ntag_89:\n    /* \"#utility.yul\":1605:1612   */\n  0x00\n    /* \"#utility.yul\":1634:1639   */\n  dup2\n    /* \"#utility.yul\":1623:1639   */\n  swap1\n  pop\n    /* \"#utility.yul\":1568:1645   */\n  swap2\n  swap1\n  pop\n  jump\t// out\n    /* \"#utility.yul\":1651:1711   */\ntag_90:\n    /* \"#utility.yul\":1679:1682   */\n  0x00\n    /* \"#utility.yul\":1700:1705   */\n  dup2\n    /* \"#utility.yul\":1693:1705   */\n  swap1\n  pop\n    /* \"#utility.yul\":1651:1711   */\n  swap2\n  swap1\n  pop\n  jump\t// out\n    /* \"#utility.yul\":1717:1859   */\ntag_91:\n    /* \"#utility.yul\":1767:1776   */\n  0x00\n    /* \"#utility.yul\":1800:1853   */\n  tag_131\n    /* \"#utility.yul\":1818:1852   */\n  tag_132\n    /* \"#utility.yul\":1827:1851   */\n  tag_133\n    /* \"#utility.yul\":1845:1850   */\n  dup5\n    /* \"#utility.yul\":1827:1851   */\n  tag_89\n  jump\t// in\ntag_133:\n    /* \"#utility.yul\":1818:1852   */\n  tag_90\n  jump\t// in\ntag_132:\n    /* \"#utility.yul\":1800:1853   */\n  tag_89\n  jump\t// in\ntag_131:\n    /* \"#utility.yul\":1787:1853   */\n  swap1\n  pop\n    /* \"#utility.yul\":1717:1859   */\n  swap2\n  swap1\n  pop\n  jump\t// out\n    /* \"#utility.yul\":1865:1940   */\ntag_92:\n    /* \"#utility.yul\":1908:1911   */\n  0x00\n    /* \"#utility.yul\":1929:1934   */\n  dup2\n    /* \"#utility.yul\":1922:1934   */\n  swap1\n  pop\n    /* \"#utility.yul\":1865:1940   */\n  swap2\n  swap1\n  pop\n  jump\t// out\n    /* \"#utility.yul\":1946:2215   */\ntag_93:\n    /* \"#utility.yul\":2056:2095   */\n  tag_136\n    /* \"#utility.yul\":2087:2094   */\n  dup4\n    /* \"#utility.yul\":2056:2095   */\n  tag_91\n  jump\t// in\ntag_136:\n    /* \"#utility.yul\":2117:2208   */\n  tag_137\n    /* \"#utility.yul\":2166:2207   */\n  tag_138\n    /* \"#utility.yul\":2190:2206   */\n  dup3\n    /* \"#utility.yul\":2166:2207   */\n  tag_92\n  jump\t// in\ntag_138:\n    /* \"#utility.yul\":2158:2164   */\n  dup5\n    /* \"#utility.yul\":2151:2155   */\n  dup5\n    /* \"#utility.yul\":2145:2156   */\n  sload\n    /* \"#utility.yul\":2117:2208   */\n  tag_88\n  jump\t// in\ntag_137:\n    /* \"#utility.yul\":2111:2115   */\n  dup3\n    /* \"#utility.yul\":2104:2209   */\n  sstore\n    /* \"#utility.yul\":2022:2215   */\n  pop\n    /* \"#utility.yul\":1946:2215   */\n  pop\n  pop\n  pop\n  jump\t// out\n    /* \"#utility.yul\":2221:2294   */\ntag_94:\n    /* \"#utility.yul\":2266:2269   */\n  0x00\n    /* \"#utility.yul\":2221:2294   */\n  swap1\n  jump\t// out\n    /* \"#utility.yul\":2300:2489   */\ntag_95:\n    /* \"#utility.yul\":2377:2409   */\n  tag_141\n  tag_94\n  jump\t// in\ntag_141:\n    /* \"#utility.yul\":2418:2483   */\n  tag_142\n    /* \"#utility.yul\":2476:2482   */\n  dup2\n    /* \"#utility.yul\":2468:2474   */\n  dup5\n    /* \"#utility.yul\":2462:2466   */\n  dup5\n    /* \"#utility.yul\":2418:2483   */\n  tag_93\n  jump\t// in\ntag_142:\n    /* \"#utility.yul\":2353:2489   */\n  pop\n    /* \"#utility.yul\":2300:2489   */\n  pop\n  pop\n  jump\t// out\n    /* \"#utility.yul\":2495:2681   */\ntag_96:\n    /* \"#utility.yul\":2555:2675   */\ntag_144:\n    /* \"#utility.yul\":2572:2575   */\n  dup2\n    /* \"#utility.yul\":2565:2570   */\n  dup2\n    /* \"#utility.yul\":2562:2576   */\n  lt\n    /* \"#utility.yul\":2555:2675   */\n  iszero\n  tag_146\n  jumpi\n    /* \"#utility.yul\":2626:2665   */\n  tag_147\n    /* \"#utility.yul\":2663:2664   */\n  0x00\n    /* \"#utility.yul\":2656:2661   */\n  dup3\n    /* \"#utility.yul\":2626:2665   */\n  tag_95\n  jump\t// in\ntag_147:\n    /* \"#utility.yul\":2599:2600   */\n  0x01\n    /* \"#utility.yul\":2592:2597   */\n  dup2\n    /* \"#utility.yul\":2588:2601   */\n  add\n    /* \"#utility.yul\":2579:2601   */\n  swap1\n  pop\n    /* \"#utility.yul\":2555:2675   */\n  jump(tag_144)\ntag_146:\n    /* \"#utility.yul\":2495:2681   */\n  pop\n  pop\n  jump\t// out\n    /* \"#utility.yul\":2687:3230   */\ntag_97:\n    /* \"#utility.yul\":2788:2790   */\n  0x1f\n    /* \"#utility.yul\":2783:2786   */\n  dup3\n    /* \"#utility.yul\":2780:2791   */\n  gt\n    /* \"#utility.yul\":2777:3223   */\n  iszero\n  tag_149\n  jumpi\n    /* \"#utility.yul\":2822:2860   */\n  tag_150\n    /* \"#utility.yul\":2854:2859   */\n  dup2\n    /* \"#utility.yul\":2822:2860   */\n  tag_85\n  jump\t// in\ntag_150:\n    /* \"#utility.yul\":2906:2935   */\n  tag_151\n    /* \"#utility.yul\":2924:2934   */\n  dup5\n    /* \"#utility.yul\":2906:2935   */\n  tag_86\n  jump\t// in\ntag_151:\n    /* \"#utility.yul\":2896:2904   */\n  dup2\n    /* \"#utility.yul\":2892:2936   */\n  add\n    /* \"#utility.yul\":3089:3091   */\n  0x20\n    /* \"#utility.yul\":3077:3087   */\n  dup6\n    /* \"#utility.yul\":3074:3092   */\n  lt\n    /* \"#utility.yul\":3071:3120   */\n  iszero\n  tag_152\n  jumpi\n    /* \"#utility.yul\":3110:3118   */\n  dup2\n    /* \"#utility.yul\":3095:3118   */\n  swap1\n  pop\n    /* \"#utility.yul\":3071:3120   */\ntag_152:\n    /* \"#utility.yul\":3133:3213   */\n  tag_153\n    /* \"#utility.yul\":3189:3211   */\n  tag_154\n    /* \"#utility.yul\":3207:3210   */\n  dup6\n    /* \"#utility.yul\":3189:3211   */\n  tag_86\n  jump\t// in\ntag_154:\n    /* \"#utility.yul\":3179:3187   */\n  dup4\n    /* \"#utility.yul\":3175:3212   */\n  add\n    /* \"#utility.yul\":3162:3173   */\n  dup3\n    /* \"#utility.yul\":3133:3213   */\n  tag_96\n  jump\t// in\ntag_153:\n    /* \"#utility.yul\":2792:3223   */\n  pop\n  pop\n    /* \"#utility.yul\":2777:3223   */\ntag_149:\n    /* \"#utility.yul\":2687:3230   */\n  pop\n  pop\n  pop\n  jump\t// out\n    /* \"#utility.yul\":3236:3353   */\ntag_98:\n    /* \"#utility.yul\":3290:3298   */\n  0x00\n    /* \"#utility.yul\":3340:3345   */\n  dup3\n    /* \"#utility.yul\":3334:3338   */\n  dup3\n    /* \"#utility.yul\":3330:3346   */\n  shr\n    /* \"#utility.yul\":3309:3346   */\n  swap1\n  pop\n    /* \"#utility.yul\":3236:3353   */\n  swap3\n  swap2\n  pop\n  pop\n  jump\t// out\n    /* \"#utility.yul\":3359:3528   */\ntag_99:\n    /* \"#utility.yul\":3403:3409   */\n  0x00\n    /* \"#utility.yul\":3436:3487   */\n  tag_157\n    /* \"#utility.yul\":3484:3485   */\n  0x00\n    /* \"#utility.yul\":3480:3486   */\n  not\n    /* \"#utility.yul\":3472:3477   */\n  dup5\n    /* \"#utility.yul\":3469:3470   */\n  0x08\n    /* \"#utility.yul\":3465:3478   */\n  mul\n    /* \"#utility.yul\":3436:3487   */\n  tag_98\n  jump\t// in\ntag_157:\n    /* \"#utility.yul\":3432:3488   */\n  not\n    /* \"#utility.yul\":3517:3521   */\n  dup1\n    /* \"#utility.yul\":3511:3515   */\n  dup4\n    /* \"#utility.yul\":3507:3522   */\n  and\n    /* \"#utility.yul\":3497:3522   */\n  swap2\n  pop\n    /* \"#utility.yul\":3410:3528   */\n  pop\n    /* \"#utility.yul\":3359:3528   */\n  swap3\n  swap2\n  pop\n  pop\n  jump\t// out\n    /* \"#utility.yul\":3533:3828   */\ntag_100:\n    /* \"#utility.yul\":3609:3613   */\n  0x00\n    /* \"#utility.yul\":3755:3784   */\n  tag_159\n    /* \"#utility.yul\":3780:3783   */\n  dup4\n    /* \"#utility.yul\":3774:3778   */\n  dup4\n    /* \"#utility.yul\":3755:3784   */\n  tag_99\n  jump\t// in\ntag_159:\n    /* \"#utility.yul\":3747:3784   */\n  swap2\n  pop\n    /* \"#utility.yul\":3817:3820   */\n  dup3\n    /* \"#utility.yul\":3814:3815   */\n  0x02\n    /* \"#utility.yul\":3810:3821   */\n  mul\n    /* \"#utility.yul\":3804:3808   */\n  dup3\n    /* \"#utility.yul\":3801:3822   */\n  or\n    /* \"#utility.yul\":3793:3822   */\n  swap1\n  pop\n    /* \"#utility.yul\":3533:3828   */\n  swap3\n  swap2\n  pop\n  pop\n  jump\t// out\n    /* \"#utility.yul\":3833:5228   */\ntag_8:\n    /* \"#utility.yul\":3950:3987   */\n  tag_161\n    /* \"#utility.yul\":3983:3986   */\n  dup3\n    /* \"#utility.yul\":3950:3987   */\n  tag_81\n  jump\t// in\ntag_161:\n    /* \"#utility.yul\":4052:4070   */\n  0xffffffffffffffff\n    /* \"#utility.yul\":4044:4050   */\n  dup2\n    /* \"#utility.yul\":4041:4071   */\n  gt\n    /* \"#utility.yul\":4038:4094   */\n  iszero\n  tag_162\n  jumpi\n    /* \"#utility.yul\":4074:4092   */\n  tag_163\n  tag_82\n  jump\t// in\ntag_163:\n    /* \"#utility.yul\":4038:4094   */\ntag_162:\n    /* \"#utility.yul\":4118:4156   */\n  tag_164\n    /* \"#utility.yul\":4150:4154   */\n  dup3\n    /* \"#utility.yul\":4144:4155   */\n  sload\n    /* \"#utility.yul\":4118:4156   */\n  tag_84\n  jump\t// in\ntag_164:\n    /* \"#utility.yul\":4203:4270   */\n  tag_165\n    /* \"#utility.yul\":4263:4269   */\n  dup3\n    /* \"#utility.yul\":4255:4261   */\n  dup3\n    /* \"#utility.yul\":4249:4253   */\n  dup6\n    /* \"#utility.yul\":4203:4270   */\n  tag_97\n  jump\t// in\ntag_165:\n    /* \"#utility.yul\":4297:4298   */\n  0x00\n    /* \"#utility.yul\":4321:4325   */\n  0x20\n    /* \"#utility.yul\":4308:4325   */\n  swap1\n  pop\n    /* \"#utility.yul\":4353:4355   */\n  0x1f\n    /* \"#utility.yul\":4345:4351   */\n  dup4\n    /* \"#utility.yul\":4342:4356   */\n  gt\n    /* \"#utility.yul\":4370:4371   */\n  0x01\n    /* \"#utility.yul\":4365:4983   */\n  dup2\n  eq\n  tag_167\n  jumpi\n    /* \"#utility.yul\":5027:5028   */\n  0x00\n    /* \"#utility.yul\":5044:5050   */\n  dup5\n    /* \"#utility.yul\":5041:5118   */\n  iszero\n  tag_168\n  jumpi\n    /* \"#utility.yul\":5093:5102   */\n  dup3\n    /* \"#utility.yul\":5088:5091   */\n  dup8\n    /* \"#utility.yul\":5084:5103   */\n  add\n    /* \"#utility.yul\":5078:5104   */\n  mload\n    /* \"#utility.yul\":5069:5104   */\n  swap1\n  pop\n    /* \"#utility.yul\":5041:5118   */\ntag_168:\n    /* \"#utility.yul\":5144:5211   */\n  tag_169\n    /* \"#utility.yul\":5204:5210   */\n  dup6\n    /* \"#utility.yul\":5197:5202   */\n  dup3\n    /* \"#utility.yul\":5144:5211   */\n  tag_100\n  jump\t// in\ntag_169:\n    /* \"#utility.yul\":5138:5142   */\n  dup7\n    /* \"#utility.yul\":5131:5212   */\n  sstore\n    /* \"#utility.yul\":5000:5222   */\n  pop\n    /* \"#utility.yul\":4335:5222   */\n  jump(tag_166)\n    /* \"#utility.yul\":4365:4983   */\ntag_167:\n    /* \"#utility.yul\":4417:4421   */\n  0x1f\n    /* \"#utility.yul\":4413:4422   */\n  not\n    /* \"#utility.yul\":4405:4411   */\n  dup5\n    /* \"#utility.yul\":4401:4423   */\n  and\n    /* \"#utility.yul\":4451:4488   */\n  tag_170\n    /* \"#utility.yul\":4483:4487   */\n  dup7\n    /* \"#utility.yul\":4451:4488   */\n  tag_85\n  jump\t// in\ntag_170:\n    /* \"#utility.yul\":4510:4511   */\n  0x00\n    /* \"#utility.yul\":4524:4732   */\ntag_171:\n    /* \"#utility.yul\":4538:4545   */\n  dup3\n    /* \"#utility.yul\":4535:4536   */\n  dup2\n    /* \"#utility.yul\":4532:4546   */\n  lt\n    /* \"#utility.yul\":4524:4732   */\n  iszero\n  tag_173\n  jumpi\n    /* \"#utility.yul\":4617:4626   */\n  dup5\n    /* \"#utility.yul\":4612:4615   */\n  dup10\n    /* \"#utility.yul\":4608:4627   */\n  add\n    /* \"#utility.yul\":4602:4628   */\n  mload\n    /* \"#utility.yul\":4594:4600   */\n  dup3\n    /* \"#utility.yul\":4587:4629   */\n  sstore\n    /* \"#utility.yul\":4668:4669   */\n  0x01\n    /* \"#utility.yul\":4660:4666   */\n  dup3\n    /* \"#utility.yul\":4656:4670   */\n  add\n    /* \"#utility.yul\":4646:4670   */\n  swap2\n  pop\n    /* \"#utility.yul\":4715:4717   */\n  0x20\n    /* \"#utility.yul\":4704:4713   */\n  dup6\n    /* \"#utility.yul\":4700:4718   */\n  add\n    /* \"#utility.yul\":4687:4718   */\n  swap5\n  pop\n    /* \"#utility.yul\":4561:4565   */\n  0x20\n    /* \"#utility.yul\":4558:4559   */\n  dup2\n    /* \"#utility.yul\":4554:4566   */\n  add\n    /* \"#utility.yul\":4549:4566   */\n  swap1\n  pop\n    /* \"#utility.yul\":4524:4732   */\n  jump(tag_171)\ntag_173:\n    /* \"#utility.yul\":4760:4766   */\n  dup7\n    /* \"#utility.yul\":4751:4758   */\n  dup4\n    /* \"#utility.yul\":4748:4767   */\n  lt\n    /* \"#utility.yul\":4745:4924   */\n  iszero\n  tag_174\n  jumpi\n    /* \"#utility.yul\":4818:4827   */\n  dup5\n    /* \"#utility.yul\":4813:4816   */\n  dup10\n    /* \"#utility.yul\":4809:4828   */\n  add\n    /* \"#utility.yul\":4803:4829   */\n  mload\n    /* \"#utility.yul\":4861:4909   */\n  tag_175\n    /* \"#utility.yul\":4903:4907   */\n  0x1f\n    /* \"#utility.yul\":4895:4901   */\n  dup10\n    /* \"#utility.yul\":4891:4908   */\n  and\n    /* \"#utility.yul\":4880:4889   */\n  dup3\n    /* \"#utility.yul\":4861:4909   */\n  tag_99\n  jump\t// in\ntag_175:\n    /* \"#utility.yul\":4853:4859   */\n  dup4\n    /* \"#utility.yul\":4846:4910   */\n  sstore\n    /* \"#utility.yul\":4768:4924   */\n  pop\n    /* \"#utility.yul\":4745:4924   */\ntag_174:\n    /* \"#utility.yul\":4970:4971   */\n  0x01\n    /* \"#utility.yul\":4966:4967   */\n  0x02\n    /* \"#utility.yul\":4958:4964   */\n  dup9\n    /* \"#utility.yul\":4954:4968   */\n  mul\n    /* \"#utility.yul\":4950:4972   */\n  add\n    /* \"#utility.yul\":4944:4948   */\n  dup9\n    /* \"#utility.yul\":4937:4973   */\n  sstore\n    /* \"#utility.yul\":4372:4983   */\n  pop\n  pop\n  pop\n    /* \"#utility.yul\":4335:5222   */\ntag_166:\n  pop\n    /* \"#utility.yul\":3925:5228   */\n  pop\n  pop\n  pop\n    /* \"#utility.yul\":3833:5228   */\n  pop\n  pop\n  jump\t// out\n    /* \"#utility.yul\":5234:5360   */\ntag_101:\n    /* \"#utility.yul\":5271:5278   */\n  0x00\n    /* \"#utility.yul\":5311:5353   */\n  0xffffffffffffffffffffffffffffffffffffffff\n    /* \"#utility.yul\":5304:5309   */\n  dup3\n    /* \"#utility.yul\":5300:5354   */\n  and\n    /* \"#utility.yul\":5289:5354   */\n  swap1\n  pop\n    /* \"#utility.yul\":5234:5360   */\n  swap2\n  swap1\n  pop\n  jump\t// out\n    /* \"#utility.yul\":5366:5462   */\ntag_102:\n    /* \"#utility.yul\":5403:5410   */\n  0x00\n    /* \"#utility.yul\":5432:5456   */\n  tag_178\n    /* \"#utility.yul\":5450:5455   */\n  dup3\n    /* \"#utility.yul\":5432:5456   */\n  tag_101\n  jump\t// in\ntag_178:\n    /* \"#utility.yul\":5421:5456   */\n  swap1\n  pop\n    /* \"#utility.yul\":5366:5462   */\n  swap2\n  swap1\n  pop\n  jump\t// out\n    /* \"#utility.yul\":5468:5586   */\ntag_103:\n    /* \"#utility.yul\":5555:5579   */\n  tag_180\n    /* \"#utility.yul\":5573:5578   */\n  dup2\n    /* \"#utility.yul\":5555:5579   */\n  tag_102\n  jump\t// in\ntag_180:\n    /* \"#utility.yul\":5550:5553   */\n  dup3\n    /* \"#utility.yul\":5543:5580   */\n  mstore\n    /* \"#utility.yul\":5468:5586   */\n  pop\n  pop\n  jump\t// out\n    /* \"#utility.yul\":5592:5814   */\ntag_14:\n    /* \"#utility.yul\":5685:5689   */\n  0x00\n    /* \"#utility.yul\":5723:5725   */\n  0x20\n    /* \"#utility.yul\":5712:5721   */\n  dup3\n    /* \"#utility.yul\":5708:5726   */\n  add\n    /* \"#utility.yul\":5700:5726   */\n  swap1\n  pop\n    /* \"#utility.yul\":5736:5807   */\n  tag_182\n    /* \"#utility.yul\":5804:5805   */\n  0x00\n    /* \"#utility.yul\":5793:5802   */\n  dup4\n    /* \"#utility.yul\":5789:5806   */\n  add\n    /* \"#utility.yul\":5780:5786   */\n  dup5\n    /* \"#utility.yul\":5736:5807   */\n  tag_103\n  jump\t// in\ntag_182:\n    /* \"#utility.yul\":5592:5814   */\n  swap3\n  swap2\n  pop\n  pop\n  jump\t// out\n    /* \"#utility.yul\":5820:6000   */\ntag_104:\n    /* \"#utility.yul\":5868:5945   */\n  0x4e487b7100000000000000000000000000000000000000000000000000000000\n    /* \"#utility.yul\":5865:5866   */\n  0x00\n    /* \"#utility.yul\":5858:5946   */\n  mstore\n    /* \"#utility.yul\":5965:5969   */\n  0x11\n    /* \"#utility.yul\":5962:5963   */\n  0x04\n    /* \"#utility.yul\":5955:5970   */\n  mstore\n    /* \"#utility.yul\":5989:5993   */\n  0x24\n    /* \"#utility.yul\":5986:5987   */\n  0x00\n    /* \"#utility.yul\":5979:5994   */\n  revert\n    /* \"#utility.yul\":6006:6108   */\ntag_105:\n    /* \"#utility.yul\":6048:6056   */\n  0x00\n    /* \"#utility.yul\":6095:6100   */\n  dup2\n    /* \"#utility.yul\":6092:6093   */\n  0x01\n    /* \"#utility.yul\":6088:6101   */\n  shr\n    /* \"#utility.yul\":6067:6101   */\n  swap1\n  pop\n    /* \"#utility.yul\":6006:6108   */\n  swap2\n  swap1\n  pop\n  jump\t// out\n    /* \"#utility.yul\":6114:6962   */\ntag_106:\n    /* \"#utility.yul\":6175:6180   */\n  0x00\n    /* \"#utility.yul\":6182:6186   */\n  dup1\n    /* \"#utility.yul\":6206:6212   */\n  dup3\n    /* \"#utility.yul\":6197:6212   */\n  swap2\n  pop\n    /* \"#utility.yul\":6230:6235   */\n  dup4\n    /* \"#utility.yul\":6221:6235   */\n  swap1\n  pop\n    /* \"#utility.yul\":6244:6956   */\ntag_186:\n    /* \"#utility.yul\":6265:6266   */\n  0x01\n    /* \"#utility.yul\":6255:6263   */\n  dup6\n    /* \"#utility.yul\":6252:6267   */\n  gt\n    /* \"#utility.yul\":6244:6956   */\n  iszero\n  tag_188\n  jumpi\n    /* \"#utility.yul\":6360:6364   */\n  dup1\n    /* \"#utility.yul\":6355:6358   */\n  dup7\n    /* \"#utility.yul\":6351:6365   */\n  div\n    /* \"#utility.yul\":6345:6349   */\n  dup2\n    /* \"#utility.yul\":6342:6366   */\n  gt\n    /* \"#utility.yul\":6339:6389   */\n  iszero\n  tag_189\n  jumpi\n    /* \"#utility.yul\":6369:6387   */\n  tag_190\n  tag_104\n  jump\t// in\ntag_190:\n    /* \"#utility.yul\":6339:6389   */\ntag_189:\n    /* \"#utility.yul\":6419:6420   */\n  0x01\n    /* \"#utility.yul\":6409:6417   */\n  dup6\n    /* \"#utility.yul\":6405:6421   */\n  and\n    /* \"#utility.yul\":6402:6853   */\n  iszero\n  tag_191\n  jumpi\n    /* \"#utility.yul\":6834:6838   */\n  dup1\n    /* \"#utility.yul\":6827:6832   */\n  dup3\n    /* \"#utility.yul\":6823:6839   */\n  mul\n    /* \"#utility.yul\":6814:6839   */\n  swap2\n  pop\n    /* \"#utility.yul\":6402:6853   */\ntag_191:\n    /* \"#utility.yul\":6884:6888   */\n  dup1\n    /* \"#utility.yul\":6878:6882   */\n  dup2\n    /* \"#utility.yul\":6874:6889   */\n  mul\n    /* \"#utility.yul\":6866:6889   */\n  swap1\n  pop\n    /* \"#utility.yul\":6914:6946   */\n  tag_192\n    /* \"#utility.yul\":6937:6945   */\n  dup6\n    /* \"#utility.yul\":6914:6946   */\n  tag_105\n  jump\t// in\ntag_192:\n    /* \"#utility.yul\":6902:6946   */\n  swap5\n  pop\n    /* \"#utility.yul\":6244:6956   */\n  jump(tag_186)\ntag_188:\n    /* \"#utility.yul\":6114:6962   */\n  swap5\n  pop\n  swap5\n  swap3\n  pop\n  pop\n  pop\n  jump\t// out\n    /* \"#utility.yul\":6968:8041   */\ntag_107:\n    /* \"#utility.yul\":7022:7027   */\n  0x00\n    /* \"#utility.yul\":7213:7221   */\n  dup3\n    /* \"#utility.yul\":7203:7243   */\n  tag_194\n  jumpi\n    /* \"#utility.yul\":7234:7235   */\n  0x01\n    /* \"#utility.yul\":7225:7235   */\n  swap1\n  pop\n    /* \"#utility.yul\":7236:7241   */\n  jump(tag_193)\n    /* \"#utility.yul\":7203:7243   */\ntag_194:\n    /* \"#utility.yul\":7262:7266   */\n  dup2\n    /* \"#utility.yul\":7252:7288   */\n  tag_195\n  jumpi\n    /* \"#utility.yul\":7279:7280   */\n  0x00\n    /* \"#utility.yul\":7270:7280   */\n  swap1\n  pop\n    /* \"#utility.yul\":7281:7286   */\n  jump(tag_193)\n    /* \"#utility.yul\":7252:7288   */\ntag_195:\n    /* \"#utility.yul\":7348:7352   */\n  dup2\n    /* \"#utility.yul\":7396:7397   */\n  0x01\n    /* \"#utility.yul\":7391:7418   */\n  dup2\n  eq\n  tag_197\n  jumpi\n    /* \"#utility.yul\":7432:7433   */\n  0x02\n    /* \"#utility.yul\":7427:7618   */\n  dup2\n  eq\n  tag_198\n  jumpi\n    /* \"#utility.yul\":7341:7618   */\n  jump(tag_196)\n    /* \"#utility.yul\":7391:7418   */\ntag_197:\n    /* \"#utility.yul\":7409:7410   */\n  0x01\n    /* \"#utility.yul\":7400:7410   */\n  swap2\n  pop\n    /* \"#utility.yul\":7411:7416   */\n  pop\n  jump(tag_193)\n    /* \"#utility.yul\":7427:7618   */\ntag_198:\n    /* \"#utility.yul\":7472:7475   */\n  0xff\n    /* \"#utility.yul\":7462:7470   */\n  dup5\n    /* \"#utility.yul\":7459:7476   */\n  gt\n    /* \"#utility.yul\":7456:7499   */\n  iszero\n  tag_199\n  jumpi\n    /* \"#utility.yul\":7479:7497   */\n  tag_200\n  tag_104\n  jump\t// in\ntag_200:\n    /* \"#utility.yul\":7456:7499   */\ntag_199:\n    /* \"#utility.yul\":7528:7536   */\n  dup4\n    /* \"#utility.yul\":7525:7526   */\n  0x02\n    /* \"#utility.yul\":7521:7537   */\n  exp\n    /* \"#utility.yul\":7512:7537   */\n  swap2\n  pop\n    /* \"#utility.yul\":7563:7566   */\n  dup5\n    /* \"#utility.yul\":7556:7561   */\n  dup3\n    /* \"#utility.yul\":7553:7567   */\n  gt\n    /* \"#utility.yul\":7550:7590   */\n  iszero\n  tag_201\n  jumpi\n    /* \"#utility.yul\":7570:7588   */\n  tag_202\n  tag_104\n  jump\t// in\ntag_202:\n    /* \"#utility.yul\":7550:7590   */\ntag_201:\n    /* \"#utility.yul\":7603:7608   */\n  pop\n  jump(tag_193)\n    /* \"#utility.yul\":7341:7618   */\ntag_196:\n  pop\n    /* \"#utility.yul\":7727:7729   */\n  0x20\n    /* \"#utility.yul\":7717:7725   */\n  dup4\n    /* \"#utility.yul\":7714:7730   */\n  lt\n    /* \"#utility.yul\":7708:7711   */\n  0x0133\n    /* \"#utility.yul\":7702:7706   */\n  dup4\n    /* \"#utility.yul\":7699:7712   */\n  lt\n    /* \"#utility.yul\":7695:7731   */\n  and\n    /* \"#utility.yul\":7677:7679   */\n  0x4e\n    /* \"#utility.yul\":7667:7675   */\n  dup5\n    /* \"#utility.yul\":7664:7680   */\n  lt\n    /* \"#utility.yul\":7659:7661   */\n  0x0b\n    /* \"#utility.yul\":7653:7657   */\n  dup5\n    /* \"#utility.yul\":7650:7662   */\n  lt\n    /* \"#utility.yul\":7646:7681   */\n  and\n    /* \"#utility.yul\":7630:7741   */\n  or\n    /* \"#utility.yul\":7627:7873   */\n  iszero\n  tag_203\n  jumpi\n    /* \"#utility.yul\":7783:7791   */\n  dup3\n    /* \"#utility.yul\":7777:7781   */\n  dup3\n    /* \"#utility.yul\":7773:7792   */\n  exp\n    /* \"#utility.yul\":7764:7792   */\n  swap1\n  pop\n    /* \"#utility.yul\":7818:7821   */\n  dup4\n    /* \"#utility.yul\":7811:7816   */\n  dup2\n    /* \"#utility.yul\":7808:7822   */\n  gt\n    /* \"#utility.yul\":7805:7845   */\n  iszero\n  tag_204\n  jumpi\n    /* \"#utility.yul\":7825:7843   */\n  tag_205\n  tag_104\n  jump\t// in\ntag_205:\n    /* \"#utility.yul\":7805:7845   */\ntag_204:\n    /* \"#utility.yul\":7858:7863   */\n  jump(tag_193)\n    /* \"#utility.yul\":7627:7873   */\ntag_203:\n    /* \"#utility.yul\":7898:7940   */\n  tag_206\n    /* \"#utility.yul\":7936:7939   */\n  dup5\n    /* \"#utility.yul\":7926:7934   */\n  dup5\n    /* \"#utility.yul\":7920:7924   */\n  dup5\n    /* \"#utility.yul\":7917:7918   */\n  0x01\n    /* \"#utility.yul\":7898:7940   */\n  tag_106\n  jump\t// in\ntag_206:\n    /* \"#utility.yul\":7883:7940   */\n  swap3\n  pop\n  swap1\n  pop\n    /* \"#utility.yul\":7972:7976   */\n  dup2\n    /* \"#utility.yul\":7967:7970   */\n  dup5\n    /* \"#utility.yul\":7963:7977   */\n  div\n    /* \"#utility.yul\":7956:7961   */\n  dup2\n    /* \"#utility.yul\":7953:7978   */\n  gt\n    /* \"#utility.yul\":7950:8001   */\n  iszero\n  tag_207\n  jumpi\n    /* \"#utility.yul\":7981:7999   */\n  tag_208\n  tag_104\n  jump\t// in\ntag_208:\n    /* \"#utility.yul\":7950:8001   */\ntag_207:\n    /* \"#utility.yul\":8030:8034   */\n  dup2\n    /* \"#utility.yul\":8023:8028   */\n  dup2\n    /* \"#utility.yul\":8019:8035   */\n  mul\n    /* \"#utility.yul\":8010:8035   */\n  swap1\n  pop\n    /* \"#utility.yul\":6968:8041   */\ntag_193:\n  swap4\n  swap3\n  pop\n  pop\n  pop\n  jump\t// out\n    /* \"#utility.yul\":8047:8332   */\ntag_20:\n    /* \"#utility.yul\":8107:8112   */\n  0x00\n    /* \"#utility.yul\":8131:8154   */\n  tag_210\n    /* \"#utility.yul\":8149:8153   */\n  dup3\n    /* \"#utility.yul\":8131:8154   */\n  tag_89\n  jump\t// in\ntag_210:\n    /* \"#utility.yul\":8123:8154   */\n  swap2\n  pop\n    /* \"#utility.yul\":8175:8202   */\n  tag_211\n    /* \"#utility.yul\":8193:8201   */\n  dup4\n    /* \"#utility.yul\":8175:8202   */\n  tag_89\n  jump\t// in\ntag_211:\n    /* \"#utility.yul\":8163:8202   */\n  swap3\n  pop\n    /* \"#utility.yul\":8221:8325   */\n  tag_212\n    /* \"#utility.yul\":8258:8324   */\n  0xffffffffffffffffffffffffffffffffffffffffffffffffffffffffffffffff\n    /* \"#utility.yul\":8248:8256   */\n  dup5\n    /* \"#utility.yul\":8242:8246   */\n  dup5\n    /* \"#utility.yul\":8221:8325   */\n  tag_107\n  jump\t// in\ntag_212:\n    /* \"#utility.yul\":8212:8325   */\n  swap1\n  pop\n    /* \"#utility.yul\":8047:8332   */\n  swap3\n  swap2\n  pop\n  pop\n  jump\t// out\n    /* \"#utility.yul\":8338:8748   */\ntag_22:\n    /* \"#utility.yul\":8378:8385   */\n  0x00\n    /* \"#utility.yul\":8401:8421   */\n  tag_214\n    /* \"#utility.yul\":8419:8420   */\n  dup3\n    /* \"#utility.yul\":8401:8421   */\n  tag_89\n  jump\t// in\ntag_214:\n    /* \"#utility.yul\":8396:8421   */\n  swap2\n  pop\n    /* \"#utility.yul\":8435:8455   */\n  tag_215\n    /* \"#utility.yul\":8453:8454   */\n  dup4\n    /* \"#utility.yul\":8435:8455   */\n  tag_89\n  jump\t// in\ntag_215:\n    /* \"#utility.yul\":8430:8455   */\n  swap3\n  pop\n    /* \"#utility.yul\":8490:8491   */\n  dup3\n    /* \"#utility.yul\":8487:8488   */\n  dup3\n    /* \"#utility.yul\":8483:8492   */\n  mul\n    /* \"#utility.yul\":8512:8542   */\n  tag_216\n    /* \"#utility.yul\":8530:8541   */\n  dup2\n    /* \"#utility.yul\":8512:8542   */\n  tag_89\n  jump\t// in\ntag_216:\n    /* \"#utility.yul\":8501:8542   */\n  swap2\n  pop\n    /* \"#utility.yul\":8691:8692   */\n  dup3\n    /* \"#utility.yul\":8682:8689   */\n  dup3\n    /* \"#utility.yul\":8678:8693   */\n  div\n    /* \"#utility.yul\":8675:8676   */\n  dup5\n    /* \"#utility.yul\":8672:8694   */\n  eq\n    /* \"#utility.yul\":8652:8653   */\n  dup4\n    /* \"#utility.yul\":8645:8654   */\n  iszero\n    /* \"#utility.yul\":8625:8708   */\n  or\n    /* \"#utility.yul\":8602:8741   */\n  tag_217\n  jumpi\n    /* \"#utility.yul\":8721:8739   */\n  tag_218\n  tag_104\n  jump\t// in\ntag_218:\n    /* \"#utility.yul\":8602:8741   */\ntag_217:\n    /* \"#utility.yul\":8386:8748   */\n  pop\n    /* \"#utility.yul\":8338:8748   */\n  swap3\n  swap2\n  pop\n  pop\n  jump\t// out\n    /* \"#utility.yul\":8754:8923   */\ntag_108:\n    /* \"#utility.yul\":8838:8849   */\n  0x00\n    /* \"#utility.yul\":8872:8878   */\n  dup3\n    /* \"#utility.yul\":8867:8870   */\n  dup3\n    /* \"#utility.yul\":8860:8879   */\n  mstore\n    /* \"#utility.yul\":8912:8916   */\n  0x20\n    /* \"#utility.yul\":8907:8910   */\n  dup3\n    /* \"#utility.yul\":8903:8917   */\n  add\n    /* \"#utility.yul\":8888:8917   */\n  swap1\n  pop\n    /* \"#utility.yul\":8754:8923   */\n  swap3\n  swap2\n  pop\n  pop\n  jump\t// out\n    /* \"#utility.yul\":8929:9106   */\ntag_109:\n    /* \"#utility.yul\":9069:9098   */\n  0x546f6b656e207472616e73666572207768696c65207061757365640000000000\n    /* \"#utility.yul\":9065:9066   */\n  0x00\n    /* \"#utility.yul\":9057:9063   */\n  dup3\n    /* \"#utility.yul\":9053:9067   */\n  add\n    /* \"#utility.yul\":9046:9099   */\n  mstore\n    /* \"#utility.yul\":8929:9106   */\n  pop\n  jump\t// out\n    /* \"#utility.yul\":9112:9478   */\ntag_110:\n    /* \"#utility.yul\":9254:9257   */\n  0x00\n    /* \"#utility.yul\":9275:9342   */\n  tag_222\n    /* \"#utility.yul\":9339:9341   */\n  0x1b\n    /* \"#utility.yul\":9334:9337   */\n  dup4\n    /* \"#utility.yul\":9275:9342   */\n  tag_108\n  jump\t// in\ntag_222:\n    /* \"#utility.yul\":9268:9342   */\n  swap2\n  pop\n    /* \"#utility.yul\":9351:9444   */\n  tag_223\n    /* \"#utility.yul\":9440:9443   */\n  dup3\n    /* \"#utility.yul\":9351:9444   */\n  tag_109\n  jump\t// in\ntag_223:\n    /* \"#utility.yul\":9469:9471   */\n  0x20\n    /* \"#utility.yul\":9464:9467   */\n  dup3\n    /* \"#utility.yul\":9460:9472   */\n  add\n    /* \"#utility.yul\":9453:9472   */\n  swap1\n  pop\n    /* \"#utility.yul\":9112:9478   */\n  swap2\n  swap1\n  pop\n  jump\t// out\n    /* \"#utility.yul\":9484:9903   */\ntag_41:\n    /* \"#utility.yul\":9650:9654   */\n  0x00\n    /* \"#utility.yul\":9688:9690   */\n  0x20\n    /* \"#utility.yul\":9677:9686   */\n  dup3\n    /* \"#utility.yul\":9673:9691   */\n  add\n    /* \"#utility.yul\":9665:9691   */\n  swap1\n  pop\n    /* \"#utility.yul\":9737:9746   */\n  dup2\n    /* \"#utility.yul\":9731:9735   */\n  dup2\n    /* \"#utility.yul\":9727:9747   */\n  sub\n    /* \"#utility.yul\":9723:9724   */\n  0x00\n    /* \"#utility.yul\":9712:9721   */\n  dup4\n    /* \"#utility.yul\":9708:9725   */\n  add\n    /* \"#utility.yul\":9701:9748   */\n  mstore\n    /* \"#utility.yul\":9765:9896   */\n  tag_225\n    /* \"#utility.yul\":9891:9895   */\n  dup2\n    /* \"#utility.yul\":9765:9896   */\n  tag_110\n  jump\t// in\ntag_225:\n    /* \"#utility.yul\":9757:9896   */\n  swap1\n  pop\n    /* \"#utility.yul\":9484:9903   */\n  swap2\n  swap1\n  pop\n  jump\t// out\n    /* \"#utility.yul\":9909:10151   */\ntag_111:\n    /* \"#utility.yul\":10049:10083   */\n  0x45524332304c6f636b61626c653a207472616e7366657220616d6f756e742065\n    /* \"#utility.yul\":10045:10046   */\n  0x00\n    /* \"#utility.yul\":10037:10043   */\n  dup3\n    /* \"#utility.yul\":10033:10047   */\n  add\n    /* \"#utility.yul\":10026:10084   */\n  mstore\n    /* \"#utility.yul\":10118:10143   */\n  0x78636565647320756e6c6f636b65642062616c616e6365000000000000000000\n    /* \"#utility.yul\":10113:10115   */\n  0x20\n    /* \"#utility.yul\":10105:10111   */\n  dup3\n    /* \"#utility.yul\":10101:10116   */\n  add\n    /* \"#utility.yul\":10094:10144   */\n  mstore\n    /* \"#utility.yul\":9909:10151   */\n  pop\n  jump\t// out\n    /* \"#utility.yul\":10157:10523   */\ntag_112:\n    /* \"#utility.yul\":10299:10302   */\n  0x00\n    /* \"#utility.yul\":10320:10387   */\n  tag_228\n    /* \"#utility.yul\":10384:10386   */\n  0x37\n    /* \"#utility.yul\":10379:10382   */\n  dup4\n    /* \"#utility.yul\":10320:10387   */\n  tag_108\n  jump\t// in\ntag_228:\n    /* \"#utility.yul\":10313:10387   */\n  swap2\n  pop\n    /* \"#utility.yul\":10396:10489   */\n  tag_229\n    /* \"#utility.yul\":10485:10488   */\n  dup3\n    /* \"#utility.yul\":10396:10489   */\n  tag_111\n  jump\t// in\ntag_229:\n    /* \"#utility.yul\":10514:10516   */\n  0x40\n    /* \"#utility.yul\":10509:10512   */\n  dup3\n    /* \"#utility.yul\":10505:10517   */\n  add\n    /* \"#utility.yul\":10498:10517   */\n  swap1\n  pop\n    /* \"#utility.yul\":10157:10523   */\n  swap2\n  swap1\n  pop\n  jump\t// out\n    /* \"#utility.yul\":10529:10948   */\ntag_46:\n    /* \"#utility.yul\":10695:10699   */\n  0x00\n    /* \"#utility.yul\":10733:10735   */\n  0x20\n    /* \"#utility.yul\":10722:10731   */\n  dup3\n    /* \"#utility.yul\":10718:10736   */\n  add\n    /* \"#utility.yul\":10710:10736   */\n  swap1\n  pop\n    /* \"#utility.yul\":10782:10791   */\n  dup2\n    /* \"#utility.yul\":10776:10780   */\n  dup2\n    /* \"#utility.yul\":10772:10792   */\n  sub\n    /* \"#utility.yul\":10768:10769   */\n  0x00\n    /* \"#utility.yul\":10757:10766   */\n  dup4\n    /* \"#utility.yul\":10753:10770   */\n  add\n    /* \"#utility.yul\":10746:10793   */\n  mstore\n    /* \"#utility.yul\":10810:10941   */\n  tag_231\n    /* \"#utility.yul\":10936:10940   */\n  dup2\n    /* \"#utility.yul\":10810:10941   */\n  tag_112\n  jump\t// in\ntag_231:\n    /* \"#utility.yul\":10802:10941   */\n  swap1\n  pop\n    /* \"#utility.yul\":10529:10948   */\n  swap2\n  swap1\n  pop\n  jump\t// out\n    /* \"#utility.yul\":10954:11134   */\ntag_57:\n    /* \"#utility.yul\":11002:11079   */\n  0x4e487b7100000000000000000000000000000000000000000000000000000000\n    /* \"#utility.yul\":10999:11000   */\n  0x00\n    /* \"#utility.yul\":10992:11080   */\n  mstore\n    /* \"#utility.yul\":11099:11103   */\n  0x32\n    /* \"#utility.yul\":11096:11097   */\n  0x04\n    /* \"#utility.yul\":11089:11104   */\n  mstore\n    /* \"#utility.yul\":11123:11127   */\n  0x24\n    /* \"#utility.yul\":11120:11121   */\n  0x00\n    /* \"#utility.yul\":11113:11128   */\n  revert\n    /* \"#utility.yul\":11140:11331   */\ntag_64:\n    /* \"#utility.yul\":11180:11183   */\n  0x00\n    /* \"#utility.yul\":11199:11219   */\n  tag_234\n    /* \"#utility.yul\":11217:11218   */\n  dup3\n    /* \"#utility.yul\":11199:11219   */\n  tag_89\n  jump\t// in\ntag_234:\n    /* \"#utility.yul\":11194:11219   */\n  swap2\n  pop\n    /* \"#utility.yul\":11233:11253   */\n  tag_235\n    /* \"#utility.yul\":11251:11252   */\n  dup4\n    /* \"#utility.yul\":11233:11253   */\n  tag_89\n  jump\t// in\ntag_235:\n    /* \"#utility.yul\":11228:11253   */\n  swap3\n  pop\n    /* \"#utility.yul\":11276:11277   */\n  dup3\n    /* \"#utility.yul\":11273:11274   */\n  dup3\n    /* \"#utility.yul\":11269:11278   */\n  add\n    /* \"#utility.yul\":11262:11278   */\n  swap1\n  pop\n    /* \"#utility.yul\":11297:11300   */\n  dup1\n    /* \"#utility.yul\":11294:11295   */\n  dup3\n    /* \"#utility.yul\":11291:11301   */\n  gt\n    /* \"#utility.yul\":11288:11324   */\n  iszero\n  tag_236\n  jumpi\n    /* \"#utility.yul\":11304:11322   */\n  tag_237\n  tag_104\n  jump\t// in\ntag_237:\n    /* \"#utility.yul\":11288:11324   */\ntag_236:\n    /* \"#utility.yul\":11140:11331   */\n  swap3\n  swap2\n  pop\n  pop\n  jump\t// out\n    /* \"#utility.yul\":11337:11531   */\ntag_68:\n    /* \"#utility.yul\":11377:11381   */\n  0x00\n    /* \"#utility.yul\":11397:11417   */\n  tag_239\n    /* \"#utility.yul\":11415:11416   */\n  dup3\n    /* \"#utility.yul\":11397:11417   */\n  tag_89\n  jump\t// in\ntag_239:\n    /* \"#utility.yul\":11392:11417   */\n  swap2\n  pop\n    /* \"#utility.yul\":11431:11451   */\n  tag_240\n    /* \"#utility.yul\":11449:11450   */\n  dup4\n    /* \"#utility.yul\":11431:11451   */\n  tag_89\n  jump\t// in\ntag_240:\n    /* \"#utility.yul\":11426:11451   */\n  swap3\n  pop\n    /* \"#utility.yul\":11475:11476   */\n  dup3\n    /* \"#utility.yul\":11472:11473   */\n  dup3\n    /* \"#utility.yul\":11468:11477   */\n  sub\n    /* \"#utility.yul\":11460:11477   */\n  swap1\n  pop\n    /* \"#utility.yul\":11499:11500   */\n  dup2\n    /* \"#utility.yul\":11493:11497   */\n  dup2\n    /* \"#utility.yul\":11490:11501   */\n  gt\n    /* \"#utility.yul\":11487:11524   */\n  iszero\n  tag_241\n  jumpi\n    /* \"#utility.yul\":11504:11522   */\n  tag_242\n  tag_104\n  jump\t// in\ntag_242:\n    /* \"#utility.yul\":11487:11524   */\ntag_241:\n    /* \"#utility.yul\":11337:11531   */\n  swap3\n  swap2\n  pop\n  pop\n  jump\t// out\n    /* \"#utility.yul\":11537:11655   */\ntag_113:\n    /* \"#utility.yul\":11624:11648   */\n  tag_244\n    /* \"#utility.yul\":11642:11647   */\n  dup2\n    /* \"#utility.yul\":11624:11648   */\n  tag_89\n  jump\t// in\ntag_244:\n    /* \"#utility.yul\":11619:11622   */\n  dup3\n    /* \"#utility.yul\":11612:11649   */\n  mstore\n    /* \"#utility.yul\":11537:11655   */\n  pop\n  pop\n  jump\t// out\n    /* \"#utility.yul\":11661:12103   */\ntag_75:\n    /* \"#utility.yul\":11810:11814   */\n  0x00\n    /* \"#utility.yul\":11848:11850   */\n  0x60\n    /* \"#utility.yul\":11837:11846   */\n  dup3\n    /* \"#utility.yul\":11833:11851   */\n  add\n    /* \"#utility.yul\":11825:11851   */\n  swap1\n  pop\n    /* \"#utility.yul\":11861:11932   */\n  tag_246\n    /* \"#utility.yul\":11929:11930   */\n  0x00\n    /* \"#utility.yul\":11918:11927   */\n  dup4\n    /* \"#utility.yul\":11914:11931   */\n  add\n    /* \"#utility.yul\":11905:11911   */\n  dup7\n    /* \"#utility.yul\":11861:11932   */\n  tag_103\n  jump\t// in\ntag_246:\n    /* \"#utility.yul\":11942:12014   */\n  tag_247\n    /* \"#utility.yul\":12010:12012   */\n  0x20\n    /* \"#utility.yul\":11999:12008   */\n  dup4\n    /* \"#utility.yul\":11995:12013   */\n  add\n    /* \"#utility.yul\":11986:11992   */\n  dup6\n    /* \"#utility.yul\":11942:12014   */\n  tag_113\n  jump\t// in\ntag_247:\n    /* \"#utility.yul\":12024:12096   */\n  tag_248\n    /* \"#utility.yul\":12092:12094   */\n  0x40\n    /* \"#utility.yul\":12081:12090   */\n  dup4\n    /* \"#utility.yul\":12077:12095   */\n  add\n    /* \"#utility.yul\":12068:12074   */\n  dup5\n    /* \"#utility.yul\":12024:12096   */\n  tag_113\n  jump\t// in\ntag_248:\n    /* \"#utility.yul\":11661:12103   */\n  swap5\n  swap4\n  pop\n  pop\n  pop\n  pop\n  jump\t// out\n    /* \"#utility.yul\":12109:12331   */\ntag_79:\n    /* \"#utility.yul\":12202:12206   */\n  0x00\n    /* \"#utility.yul\":12240:12242   */\n  0x20\n    /* \"#utility.yul\":12229:12238   */\n  dup3\n    /* \"#utility.yul\":12225:12243   */\n  add\n    /* \"#utility.yul\":12217:12243   */\n  swap1\n  pop\n    /* \"#utility.yul\":12253:12324   */\n  tag_250\n    /* \"#utility.yul\":12321:12322   */\n  0x00\n    /* \"#utility.yul\":12310:12319   */\n  dup4\n    /* \"#utility.yul\":12306:12323   */\n  add\n    /* \"#utility.yul\":12297:12303   */\n  dup5\n    /* \"#utility.yul\":12253:12324   */\n  tag_113\n  jump\t// in\ntag_250:\n    /* \"#utility.yul\":12109:12331   */\n  swap3\n  swap2\n  pop\n  pop\n  jump\t// out\n    /* \"constracts/HealthMediToken_flattened.sol\":28890:32809  contract HMEDERC20Token is ERC20, ERC20Burnable, Pausable, Ownable(msg.sender) {... */\ntag_24:\n  dataSize(sub_0)\n  dup1\n  dataOffset(sub_0)\n  0x00\n  codecopy\n  0x00\n  return\nstop\n\nsub_0: assembly {\n        /* \"constracts/HealthMediToken_flattened.sol\":28890:32809  contract HMEDERC20Token is ERC20, ERC20Burnable, Pausable, Ownable(msg.sender) {... */\n      mstore(0x40, 0x80)\n      callvalue\n      dup1\n      iszero\n      tag_1\n      jumpi\n      0x00\n      dup1\n      revert\n    tag_1:\n      pop\n      jumpi(tag_2, lt(calldatasize, 0x04))\n      shr(0xe0, calldataload(0x00))\n      dup1\n      0x70a08231\n      gt\n      tag_26\n      jumpi\n      dup1\n      0x929ec537\n      gt\n      tag_27\n      jumpi\n      dup1\n      0x929ec537\n      eq\n      tag_20\n      jumpi\n      dup1\n      0x95d89b41\n      eq\n      tag_21\n      jumpi\n      dup1\n      0xa9059cbb\n      eq\n      tag_22\n      jumpi\n      dup1\n      0xd1c46916\n      eq\n      tag_23\n      jumpi\n      dup1\n      0xdd62ed3e\n      eq\n      tag_24\n      jumpi\n      dup1\n      0xf2fde38b\n      eq\n      tag_25\n      jumpi\n      jump(tag_2)\n    tag_27:\n      dup1\n      0x70a08231\n      eq\n      tag_14\n      jumpi\n      dup1\n      0x715018a6\n      eq\n      tag_15\n      jumpi\n      dup1\n      0x79cc6790\n      eq\n      tag_16\n      jumpi\n      dup1\n      0x8456cb59\n      eq\n      tag_17\n      jumpi\n      dup1\n      0x8d1fdf2f\n      eq\n      tag_18\n      jumpi\n      dup1\n      0x8da5cb5b\n      eq\n      tag_19\n      jumpi\n      jump(tag_2)\n    tag_26:\n      dup1\n      0x38b82092\n      gt\n      tag_28\n      jumpi\n      dup1\n      0x38b82092\n      eq\n      tag_8\n      jumpi\n      dup1\n      0x3f4ba83a\n      eq\n      tag_9\n      jumpi\n      dup1\n      0x42966c68\n      eq\n      tag_10\n      jumpi\n      dup1\n      0x45c8b1a6\n      eq\n      tag_11\n      jumpi\n      dup1\n      0x5c975abb\n      eq\n      tag_12\n      jumpi\n      dup1\n      0x5e1372f4\n      eq\n      tag_13\n      jumpi\n      jump(tag_2)\n    tag_28:\n      dup1\n      0x06fdde03\n      eq\n      tag_3\n      jumpi\n      dup1\n      0x095ea7b3\n      eq\n      tag_4\n      jumpi\n      dup1\n      0x18160ddd\n      eq\n      tag_5\n      jumpi\n      dup1\n      0x23b872dd\n      eq\n      tag_6\n      jumpi\n      dup1\n      0x313ce567\n      eq\n      tag_7\n      jumpi\n    tag_2:\n      0x00\n      dup1\n      revert\n        /* \"constracts/HealthMediToken_flattened.sol\":18562:18651  function name() public view virtual returns (string memory) {... */\n    tag_3:\n      tag_29\n      tag_30\n      jump\t// in\n    tag_29:\n      mload(0x40)\n      tag_31\n      swap2\n      swap1\n      tag_32\n      jump\t// in\n    tag_31:\n      mload(0x40)\n      dup1\n      swap2\n      sub\n      swap1\n      return\n        /* \"constracts/HealthMediToken_flattened.sol\":20781:20967  function approve(address spender, uint256 value) public virtual returns (bool) {... */\n    tag_4:\n      tag_33\n      0x04\n      dup1\n      calldatasize\n      sub\n      dup2\n      add\n      swap1\n      tag_34\n      swap2\n      swap1\n      tag_35\n      jump\t// in\n    tag_34:\n      tag_36\n      jump\t// in\n    tag_33:\n      mload(0x40)\n      tag_37\n      swap2\n      swap1\n      tag_38\n      jump\t// in\n    tag_37:\n      mload(0x40)\n      dup1\n      swap2\n      sub\n      swap1\n      return\n        /* \"constracts/HealthMediToken_flattened.sol\":19632:19729  function totalSupply() public view virtual returns (uint256) {... */\n    tag_5:\n      tag_39\n      tag_40\n      jump\t// in\n    tag_39:\n      mload(0x40)\n      tag_41\n      swap2\n      swap1\n      tag_42\n      jump\t// in\n    tag_41:\n      mload(0x40)\n      dup1\n      swap2\n      sub\n      swap1\n      return\n        /* \"constracts/HealthMediToken_flattened.sol\":21527:21771  function transferFrom(address from, address to, uint256 value) public virtual returns (bool) {... */\n    tag_6:\n      tag_43\n      0x04\n      dup1\n      calldatasize\n      sub\n      dup2\n      add\n      swap1\n      tag_44\n      swap2\n      swap1\n      tag_45\n      jump\t// in\n    tag_44:\n      tag_46\n      jump\t// in\n    tag_43:\n      mload(0x40)\n      tag_47\n      swap2\n      swap1\n      tag_38\n      jump\t// in\n    tag_47:\n      mload(0x40)\n      dup1\n      swap2\n      sub\n      swap1\n      return\n        /* \"constracts/HealthMediToken_flattened.sol\":19490:19572  function decimals() public view virtual returns (uint8) {... */\n    tag_7:\n      tag_48\n      tag_49\n      jump\t// in\n    tag_48:\n      mload(0x40)\n      tag_50\n      swap2\n      swap1\n      tag_51\n      jump\t// in\n    tag_50:\n      mload(0x40)\n      dup1\n      swap2\n      sub\n      swap1\n      return\n        /* \"constracts/HealthMediToken_flattened.sol\":31519:31737  function transferWithLockUp(address recipient, uint256 amount, uint256 lockTime) public onlyOwner {... */\n    tag_8:\n      tag_52\n      0x04\n      dup1\n      calldatasize\n      sub\n      dup2\n      add\n      swap1\n      tag_53\n      swap2\n      swap1\n      tag_54\n      jump\t// in\n    tag_53:\n      tag_55\n      jump\t// in\n    tag_52:\n      stop\n        /* \"constracts/HealthMediToken_flattened.sol\":31808:31871  function unpause() public onlyOwner {... */\n    tag_9:\n      tag_56\n      tag_57\n      jump\t// in\n    tag_56:\n      stop\n        /* \"constracts/HealthMediToken_flattened.sol\":28216:28303  function burn(uint256 value) public virtual {... */\n    tag_10:\n      tag_58\n      0x04\n      dup1\n      calldatasize\n      sub\n      dup2\n      add\n      swap1\n      tag_59\n      swap2\n      swap1\n      tag_60\n      jump\t// in\n    tag_59:\n      tag_61\n      jump\t// in\n    tag_58:\n      stop\n        /* \"constracts/HealthMediToken_flattened.sol\":30514:30720  function unfreeze(address account) public onlyOwner {... */\n    tag_11:\n      tag_62\n      0x04\n      dup1\n      calldatasize\n      sub\n      dup2\n      add\n      swap1\n      tag_63\n      swap2\n      swap1\n      tag_64\n      jump\t// in\n    tag_63:\n      tag_65\n      jump\t// in\n    tag_62:\n      stop\n        /* \"constracts/HealthMediToken_flattened.sol\":12240:12324  function paused() public view virtual returns (bool) {... */\n    tag_12:\n      tag_66\n      tag_67\n      jump\t// in\n    tag_66:\n      mload(0x40)\n      tag_68\n      swap2\n      swap1\n      tag_38\n      jump\t// in\n    tag_68:\n      mload(0x40)\n      dup1\n      swap2\n      sub\n      swap1\n      return\n        /* \"constracts/HealthMediToken_flattened.sol\":30726:30952  function lockup(address account, uint256 amount, uint256 releaseTime) public onlyOwner {... */\n    tag_13:\n      tag_69\n      0x04\n      dup1\n      calldatasize\n      sub\n      dup2\n      add\n      swap1\n      tag_70\n      swap2\n      swap1\n      tag_54\n      jump\t// in\n    tag_70:\n      tag_71\n      jump\t// in\n    tag_69:\n      stop\n        /* \"constracts/HealthMediToken_flattened.sol\":19787:19903  function balanceOf(address account) public view virtual returns (uint256) {... */\n    tag_14:\n      tag_72\n      0x04\n      dup1\n      calldatasize\n      sub\n      dup2\n      add\n      swap1\n      tag_73\n      swap2\n      swap1\n      tag_64\n      jump\t// in\n    tag_73:\n      tag_74\n      jump\t// in\n    tag_72:\n      mload(0x40)\n      tag_75\n      swap2\n      swap1\n      tag_42\n      jump\t// in\n    tag_75:\n      mload(0x40)\n      dup1\n      swap2\n      sub\n      swap1\n      return\n        /* \"constracts/HealthMediToken_flattened.sol\":9821:9922  function renounceOwnership() public virtual onlyOwner {... */\n    tag_15:\n      tag_76\n      tag_77\n      jump\t// in\n    tag_76:\n      stop\n        /* \"constracts/HealthMediToken_flattened.sol\":28619:28777  function burnFrom(address account, uint256 value) public virtual {... */\n    tag_16:\n      tag_78\n      0x04\n      dup1\n      calldatasize\n      sub\n      dup2\n      add\n      swap1\n      tag_79\n      swap2\n      swap1\n      tag_35\n      jump\t// in\n    tag_79:\n      tag_80\n      jump\t// in\n    tag_78:\n      stop\n        /* \"constracts/HealthMediToken_flattened.sol\":31743:31802  function pause() public onlyOwner {... */\n    tag_17:\n      tag_81\n      tag_82\n      jump\t// in\n    tag_81:\n      stop\n        /* \"constracts/HealthMediToken_flattened.sol\":30302:30508  function freeze(address account) public onlyOwner {... */\n    tag_18:\n      tag_83\n      0x04\n      dup1\n      calldatasize\n      sub\n      dup2\n      add\n      swap1\n      tag_84\n      swap2\n      swap1\n      tag_64\n      jump\t// in\n    tag_84:\n      tag_85\n      jump\t// in\n    tag_83:\n      stop\n        /* \"constracts/HealthMediToken_flattened.sol\":9166:9251  function owner() public view virtual returns (address) {... */\n    tag_19:\n      tag_86\n      tag_87\n      jump\t// in\n    tag_86:\n      mload(0x40)\n      tag_88\n      swap2\n      swap1\n      tag_89\n      jump\t// in\n    tag_88:\n      mload(0x40)\n      dup1\n      swap2\n      sub\n      swap1\n      return\n        /* \"constracts/HealthMediToken_flattened.sol\":32451:32807  function getLockedAmount(address account) public view returns (uint256) {... */\n    tag_20:\n      tag_90\n      0x04\n      dup1\n      calldatasize\n      sub\n      dup2\n      add\n      swap1\n      tag_91\n      swap2\n      swap1\n      tag_64\n      jump\t// in\n    tag_91:\n      tag_92\n      jump\t// in\n    tag_90:\n      mload(0x40)\n      tag_93\n      swap2\n      swap1\n      tag_42\n      jump\t// in\n    tag_93:\n      mload(0x40)\n      dup1\n      swap2\n      sub\n      swap1\n      return\n        /* \"constracts/HealthMediToken_flattened.sol\":18764:18857  function symbol() public view virtual returns (string memory) {... */\n    tag_21:\n      tag_94\n      tag_95\n      jump\t// in\n    tag_94:\n      mload(0x40)\n      tag_96\n      swap2\n      swap1\n      tag_32\n      jump\t// in\n    tag_96:\n      mload(0x40)\n      dup1\n      swap2\n      sub\n      swap1\n      return\n        /* \"constracts/HealthMediToken_flattened.sol\":20098:20276  function transfer(address to, uint256 value) public virtual returns (bool) {... */\n    tag_22:\n      tag_97\n      0x04\n      dup1\n      calldatasize\n      sub\n      dup2\n      add\n      swap1\n      tag_98\n      swap2\n      swap1\n      tag_35\n      jump\t// in\n    tag_98:\n      tag_99\n      jump\t// in\n    tag_97:\n      mload(0x40)\n      tag_100\n      swap2\n      swap1\n      tag_38\n      jump\t// in\n    tag_100:\n      mload(0x40)\n      dup1\n      swap2\n      sub\n      swap1\n      return\n        /* \"constracts/HealthMediToken_flattened.sol\":30958:31513  function releaseLock(address account) public {... */\n    tag_23:\n      tag_101\n      0x04\n      dup1\n      calldatasize\n      sub\n      dup2\n      add\n      swap1\n      tag_102\n      swap2\n      swap1\n      tag_64\n      jump\t// in\n    tag_102:\n      tag_103\n      jump\t// in\n    tag_101:\n      stop\n        /* \"constracts/HealthMediToken_flattened.sol\":20334:20474  function allowance(address owner, address spender) public view virtual returns (uint256) {... */\n    tag_24:\n      tag_104\n      0x04\n      dup1\n      calldatasize\n      sub\n      dup2\n      add\n      swap1\n      tag_105\n      swap2\n      swap1\n      tag_106\n      jump\t// in\n    tag_105:\n      tag_107\n      jump\t// in\n    tag_104:\n      mload(0x40)\n      tag_108\n      swap2\n      swap1\n      tag_42\n      jump\t// in\n    tag_108:\n      mload(0x40)\n      dup1\n      swap2\n      sub\n      swap1\n      return\n        /* \"constracts/HealthMediToken_flattened.sol\":10071:10286  function transferOwnership(address newOwner) public virtual onlyOwner {... */\n    tag_25:\n      tag_109\n      0x04\n      dup1\n      calldatasize\n      sub\n      dup2\n      add\n      swap1\n      tag_110\n      swap2\n      swap1\n      tag_64\n      jump\t// in\n    tag_110:\n      tag_111\n      jump\t// in\n    tag_109:\n      stop\n        /* \"constracts/HealthMediToken_flattened.sol\":18562:18651  function name() public view virtual returns (string memory) {... */\n    tag_30:\n        /* \"constracts/HealthMediToken_flattened.sol\":18607:18620  string memory */\n      0x60\n        /* \"constracts/HealthMediToken_flattened.sol\":18639:18644  _name */\n      0x03\n        /* \"constracts/HealthMediToken_flattened.sol\":18632:18644  return _name */\n      dup1\n      sload\n      tag_113\n      swap1\n      tag_114\n      jump\t// in\n    tag_113:\n      dup1\n      0x1f\n      add\n      0x20\n      dup1\n      swap2\n      div\n      mul\n      0x20\n      add\n      mload(0x40)\n      swap1\n      dup2\n      add\n      0x40\n      mstore\n      dup1\n      swap3\n      swap2\n      swap1\n      dup2\n      dup2\n      mstore\n      0x20\n      add\n      dup3\n      dup1\n      sload\n      tag_115\n      swap1\n      tag_114\n      jump\t// in\n    tag_115:\n      dup1\n      iszero\n      tag_116\n      jumpi\n      dup1\n      0x1f\n      lt\n      tag_117\n      jumpi\n      0x0100\n      dup1\n      dup4\n      sload\n      div\n      mul\n      dup4\n      mstore\n      swap2\n      0x20\n      add\n      swap2\n      jump(tag_116)\n    tag_117:\n      dup3\n      add\n      swap2\n      swap1\n      0x00\n      mstore\n      keccak256(0x00, 0x20)\n      swap1\n    tag_118:\n      dup2\n      sload\n      dup2\n      mstore\n      swap1\n      0x01\n      add\n      swap1\n      0x20\n      add\n      dup1\n      dup4\n      gt\n      tag_118\n      jumpi\n      dup3\n      swap1\n      sub\n      0x1f\n      and\n      dup3\n      add\n      swap2\n    tag_116:\n      pop\n      pop\n      pop\n      pop\n      pop\n      swap1\n      pop\n        /* \"constracts/HealthMediToken_flattened.sol\":18562:18651  function name() public view virtual returns (string memory) {... */\n      swap1\n      jump\t// out\n        /* \"constracts/HealthMediToken_flattened.sol\":20781:20967  function approve(address spender, uint256 value) public virtual returns (bool) {... */\n    tag_36:\n        /* \"constracts/HealthMediToken_flattened.sol\":20854:20858  bool */\n      0x00\n        /* \"constracts/HealthMediToken_flattened.sol\":20870:20883  address owner */\n      dup1\n        /* \"constracts/HealthMediToken_flattened.sol\":20886:20898  _msgSender() */\n      tag_120\n        /* \"constracts/HealthMediToken_flattened.sol\":20886:20896  _msgSender */\n      tag_121\n        /* \"constracts/HealthMediToken_flattened.sol\":20886:20898  _msgSender() */\n      jump\t// in\n    tag_120:\n        /* \"constracts/HealthMediToken_flattened.sol\":20870:20898  address owner = _msgSender() */\n      swap1\n      pop\n        /* \"constracts/HealthMediToken_flattened.sol\":20908:20939  _approve(owner, spender, value) */\n      tag_122\n        /* \"constracts/HealthMediToken_flattened.sol\":20917:20922  owner */\n      dup2\n        /* \"constracts/HealthMediToken_flattened.sol\":20924:20931  spender */\n      dup6\n        /* \"constracts/HealthMediToken_flattened.sol\":20933:20938  value */\n      dup6\n        /* \"constracts/HealthMediToken_flattened.sol\":20908:20916  _approve */\n      tag_123\n        /* \"constracts/HealthMediToken_flattened.sol\":20908:20939  _approve(owner, spender, value) */\n      jump\t// in\n    tag_122:\n        /* \"constracts/HealthMediToken_flattened.sol\":20956:20960  true */\n      0x01\n        /* \"constracts/HealthMediToken_flattened.sol\":20949:20960  return true */\n      swap2\n      pop\n      pop\n        /* \"constracts/HealthMediToken_flattened.sol\":20781:20967  function approve(address spender, uint256 value) public virtual returns (bool) {... */\n      swap3\n      swap2\n      pop\n      pop\n      jump\t// out\n        /* \"constracts/HealthMediToken_flattened.sol\":19632:19729  function totalSupply() public view virtual returns (uint256) {... */\n    tag_40:\n        /* \"constracts/HealthMediToken_flattened.sol\":19684:19691  uint256 */\n      0x00\n        /* \"constracts/HealthMediToken_flattened.sol\":19710:19722  _totalSupply */\n      sload(0x02)\n        /* \"constracts/HealthMediToken_flattened.sol\":19703:19722  return _totalSupply */\n      swap1\n      pop\n        /* \"constracts/HealthMediToken_flattened.sol\":19632:19729  function totalSupply() public view virtual returns (uint256) {... */\n      swap1\n      jump\t// out\n        /* \"constracts/HealthMediToken_flattened.sol\":21527:21771  function transferFrom(address from, address to, uint256 value) public virtual returns (bool) {... */\n    tag_46:\n        /* \"constracts/HealthMediToken_flattened.sol\":21614:21618  bool */\n      0x00\n        /* \"constracts/HealthMediToken_flattened.sol\":21630:21645  address spender */\n      dup1\n        /* \"constracts/HealthMediToken_flattened.sol\":21648:21660  _msgSender() */\n      tag_126\n        /* \"constracts/HealthMediToken_flattened.sol\":21648:21658  _msgSender */\n      tag_121\n        /* \"constracts/HealthMediToken_flattened.sol\":21648:21660  _msgSender() */\n      jump\t// in\n    tag_126:\n        /* \"constracts/HealthMediToken_flattened.sol\":21630:21660  address spender = _msgSender() */\n      swap1\n      pop\n        /* \"constracts/HealthMediToken_flattened.sol\":21670:21707  _spendAllowance(from, spender, value) */\n      tag_127\n        /* \"constracts/HealthMediToken_flattened.sol\":21686:21690  from */\n      dup6\n        /* \"constracts/HealthMediToken_flattened.sol\":21692:21699  spender */\n      dup3\n        /* \"constracts/HealthMediToken_flattened.sol\":21701:21706  value */\n      dup6\n        /* \"constracts/HealthMediToken_flattened.sol\":21670:21685  _spendAllowance */\n      tag_128\n        /* \"constracts/HealthMediToken_flattened.sol\":21670:21707  _spendAllowance(from, spender, value) */\n      jump\t// in\n    tag_127:\n        /* \"constracts/HealthMediToken_flattened.sol\":21717:21743  _transfer(from, to, value) */\n      tag_129\n        /* \"constracts/HealthMediToken_flattened.sol\":21727:21731  from */\n      dup6\n        /* \"constracts/HealthMediToken_flattened.sol\":21733:21735  to */\n      dup6\n        /* \"constracts/HealthMediToken_flattened.sol\":21737:21742  value */\n      dup6\n        /* \"constracts/HealthMediToken_flattened.sol\":21717:21726  _transfer */\n      tag_130\n        /* \"constracts/HealthMediToken_flattened.sol\":21717:21743  _transfer(from, to, value) */\n      jump\t// in\n    tag_129:\n        /* \"constracts/HealthMediToken_flattened.sol\":21760:21764  true */\n      0x01\n        /* \"constracts/HealthMediToken_flattened.sol\":21753:21764  return true */\n      swap2\n      pop\n      pop\n        /* \"constracts/HealthMediToken_flattened.sol\":21527:21771  function transferFrom(address from, address to, uint256 value) public virtual returns (bool) {... */\n      swap4\n      swap3\n      pop\n      pop\n      pop\n      jump\t// out\n        /* \"constracts/HealthMediToken_flattened.sol\":19490:19572  function decimals() public view virtual returns (uint8) {... */\n    tag_49:\n        /* \"constracts/HealthMediToken_flattened.sol\":19539:19544  uint8 */\n      0x00\n        /* \"constracts/HealthMediToken_flattened.sol\":19563:19565  18 */\n      0x12\n        /* \"constracts/HealthMediToken_flattened.sol\":19556:19565  return 18 */\n      swap1\n      pop\n        /* \"constracts/HealthMediToken_flattened.sol\":19490:19572  function decimals() public view virtual returns (uint8) {... */\n      swap1\n      jump\t// out\n        /* \"constracts/HealthMediToken_flattened.sol\":31519:31737  function transferWithLockUp(address recipient, uint256 amount, uint256 lockTime) public onlyOwner {... */\n    tag_55:\n        /* \"constracts/HealthMediToken_flattened.sol\":9059:9072  _checkOwner() */\n      tag_133\n        /* \"constracts/HealthMediToken_flattened.sol\":9059:9070  _checkOwner */\n      tag_134\n        /* \"constracts/HealthMediToken_flattened.sol\":9059:9072  _checkOwner() */\n      jump\t// in\n    tag_133:\n        /* \"constracts/HealthMediToken_flattened.sol\":31627:31667  _transfer(msg.sender, recipient, amount) */\n      tag_136\n        /* \"constracts/HealthMediToken_flattened.sol\":31637:31647  msg.sender */\n      caller\n        /* \"constracts/HealthMediToken_flattened.sol\":31649:31658  recipient */\n      dup5\n        /* \"constracts/HealthMediToken_flattened.sol\":31660:31666  amount */\n      dup5\n        /* \"constracts/HealthMediToken_flattened.sol\":31627:31636  _transfer */\n      tag_130\n        /* \"constracts/HealthMediToken_flattened.sol\":31627:31667  _transfer(msg.sender, recipient, amount) */\n      jump\t// in\n    tag_136:\n        /* \"constracts/HealthMediToken_flattened.sol\":31677:31730  lockup(recipient, amount, block.timestamp + lockTime) */\n      tag_137\n        /* \"constracts/HealthMediToken_flattened.sol\":31684:31693  recipient */\n      dup4\n        /* \"constracts/HealthMediToken_flattened.sol\":31695:31701  amount */\n      dup4\n        /* \"constracts/HealthMediToken_flattened.sol\":31721:31729  lockTime */\n      dup4\n        /* \"constracts/HealthMediToken_flattened.sol\":31703:31718  block.timestamp */\n      timestamp\n        /* \"constracts/HealthMediToken_flattened.sol\":31703:31729  block.timestamp + lockTime */\n      tag_138\n      swap2\n      swap1\n      tag_139\n      jump\t// in\n    tag_138:\n        /* \"constracts/HealthMediToken_flattened.sol\":31677:31683  lockup */\n      tag_71\n        /* \"constracts/HealthMediToken_flattened.sol\":31677:31730  lockup(recipient, amount, block.timestamp + lockTime) */\n      jump\t// in\n    tag_137:\n        /* \"constracts/HealthMediToken_flattened.sol\":31519:31737  function transferWithLockUp(address recipient, uint256 amount, uint256 lockTime) public onlyOwner {... */\n      pop\n      pop\n      pop\n      jump\t// out\n        /* \"constracts/HealthMediToken_flattened.sol\":31808:31871  function unpause() public onlyOwner {... */\n    tag_57:\n        /* \"constracts/HealthMediToken_flattened.sol\":9059:9072  _checkOwner() */\n      tag_141\n        /* \"constracts/HealthMediToken_flattened.sol\":9059:9070  _checkOwner */\n      tag_134\n        /* \"constracts/HealthMediToken_flattened.sol\":9059:9072  _checkOwner() */\n      jump\t// in\n    tag_141:\n        /* \"constracts/HealthMediToken_flattened.sol\":31854:31864  _unpause() */\n      tag_143\n        /* \"constracts/HealthMediToken_flattened.sol\":31854:31862  _unpause */\n      tag_144\n        /* \"constracts/HealthMediToken_flattened.sol\":31854:31864  _unpause() */\n      jump\t// in\n    tag_143:\n        /* \"constracts/HealthMediToken_flattened.sol\":31808:31871  function unpause() public onlyOwner {... */\n      jump\t// out\n        /* \"constracts/HealthMediToken_flattened.sol\":28216:28303  function burn(uint256 value) public virtual {... */\n    tag_61:\n        /* \"constracts/HealthMediToken_flattened.sol\":28270:28296  _burn(_msgSender(), value) */\n      tag_146\n        /* \"constracts/HealthMediToken_flattened.sol\":28276:28288  _msgSender() */\n      tag_147\n        /* \"constracts/HealthMediToken_flattened.sol\":28276:28286  _msgSender */\n      tag_121\n        /* \"constracts/HealthMediToken_flattened.sol\":28276:28288  _msgSender() */\n      jump\t// in\n    tag_147:\n        /* \"constracts/HealthMediToken_flattened.sol\":28290:28295  value */\n      dup3\n        /* \"constracts/HealthMediToken_flattened.sol\":28270:28275  _burn */\n      tag_148\n        /* \"constracts/HealthMediToken_flattened.sol\":28270:28296  _burn(_msgSender(), value) */\n      jump\t// in\n    tag_146:\n        /* \"constracts/HealthMediToken_flattened.sol\":28216:28303  function burn(uint256 value) public virtual {... */\n      pop\n      jump\t// out\n        /* \"constracts/HealthMediToken_flattened.sol\":30514:30720  function unfreeze(address account) public onlyOwner {... */\n    tag_65:\n        /* \"constracts/HealthMediToken_flattened.sol\":9059:9072  _checkOwner() */\n      tag_150\n        /* \"constracts/HealthMediToken_flattened.sol\":9059:9070  _checkOwner */\n      tag_134\n        /* \"constracts/HealthMediToken_flattened.sol\":9059:9072  _checkOwner() */\n      jump\t// in\n    tag_150:\n        /* \"constracts/HealthMediToken_flattened.sol\":30584:30598  frozenAccounts */\n      0x06\n        /* \"constracts/HealthMediToken_flattened.sol\":30584:30607  frozenAccounts[account] */\n      0x00\n        /* \"constracts/HealthMediToken_flattened.sol\":30599:30606  account */\n      dup3\n        /* \"constracts/HealthMediToken_flattened.sol\":30584:30607  frozenAccounts[account] */\n      0xffffffffffffffffffffffffffffffffffffffff\n      and\n      0xffffffffffffffffffffffffffffffffffffffff\n      and\n      dup2\n      mstore\n      0x20\n      add\n      swap1\n      dup2\n      mstore\n      0x20\n      add\n      0x00\n      keccak256\n      0x00\n      swap1\n      sload\n      swap1\n      0x0100\n      exp\n      swap1\n      div\n      0xff\n      and\n        /* \"constracts/HealthMediToken_flattened.sol\":30576:30633  require(frozenAccounts[account], \"Account is not frozen\") */\n      tag_152\n      jumpi\n      mload(0x40)\n      0x08c379a000000000000000000000000000000000000000000000000000000000\n      dup2\n      mstore\n      0x04\n      add\n      tag_153\n      swap1\n      tag_154\n      jump\t// in\n    tag_153:\n      mload(0x40)\n      dup1\n      swap2\n      sub\n      swap1\n      revert\n    tag_152:\n        /* \"constracts/HealthMediToken_flattened.sol\":30669:30674  false */\n      0x00\n        /* \"constracts/HealthMediToken_flattened.sol\":30643:30657  frozenAccounts */\n      0x06\n        /* \"constracts/HealthMediToken_flattened.sol\":30643:30666  frozenAccounts[account] */\n      0x00\n        /* \"constracts/HealthMediToken_flattened.sol\":30658:30665  account */\n      dup4\n        /* \"constracts/HealthMediToken_flattened.sol\":30643:30666  frozenAccounts[account] */\n      0xffffffffffffffffffffffffffffffffffffffff\n      and\n      0xffffffffffffffffffffffffffffffffffffffff\n      and\n      dup2\n      mstore\n      0x20\n      add\n      swap1\n      dup2\n      mstore\n      0x20\n      add\n      0x00\n      keccak256\n      0x00\n        /* \"constracts/HealthMediToken_flattened.sol\":30643:30674  frozenAccounts[account] = false */\n      0x0100\n      exp\n      dup2\n      sload\n      dup2\n      0xff\n      mul\n      not\n      and\n      swap1\n      dup4\n      iszero\n      iszero\n      mul\n      or\n      swap1\n      sstore\n      pop\n        /* \"constracts/HealthMediToken_flattened.sol\":30705:30712  account */\n      dup1\n        /* \"constracts/HealthMediToken_flattened.sol\":30689:30713  AccountUnfrozen(account) */\n      0xffffffffffffffffffffffffffffffffffffffff\n      and\n      0xf915cd9fe234de6e8d3afe7bf2388d35b2b6d48e8c629a24602019bde79c213a\n      mload(0x40)\n      mload(0x40)\n      dup1\n      swap2\n      sub\n      swap1\n      log2\n        /* \"constracts/HealthMediToken_flattened.sol\":30514:30720  function unfreeze(address account) public onlyOwner {... */\n      pop\n      jump\t// out\n        /* \"constracts/HealthMediToken_flattened.sol\":12240:12324  function paused() public view virtual returns (bool) {... */\n    tag_67:\n        /* \"constracts/HealthMediToken_flattened.sol\":12287:12291  bool */\n      0x00\n        /* \"constracts/HealthMediToken_flattened.sol\":12310:12317  _paused */\n      0x05\n      0x00\n      swap1\n      sload\n      swap1\n      0x0100\n      exp\n      swap1\n      div\n      0xff\n      and\n        /* \"constracts/HealthMediToken_flattened.sol\":12303:12317  return _paused */\n      swap1\n      pop\n        /* \"constracts/HealthMediToken_flattened.sol\":12240:12324  function paused() public view virtual returns (bool) {... */\n      swap1\n      jump\t// out\n        /* \"constracts/HealthMediToken_flattened.sol\":30726:30952  function lockup(address account, uint256 amount, uint256 releaseTime) public onlyOwner {... */\n    tag_71:\n        /* \"constracts/HealthMediToken_flattened.sol\":9059:9072  _checkOwner() */\n      tag_157\n        /* \"constracts/HealthMediToken_flattened.sol\":9059:9070  _checkOwner */\n      tag_134\n        /* \"constracts/HealthMediToken_flattened.sol\":9059:9072  _checkOwner() */\n      jump\t// in\n    tag_157:\n        /* \"constracts/HealthMediToken_flattened.sol\":30853:30859  amount */\n      dup2\n        /* \"constracts/HealthMediToken_flattened.sol\":30831:30849  balanceOf(account) */\n      tag_159\n        /* \"constracts/HealthMediToken_flattened.sol\":30841:30848  account */\n      dup5\n        /* \"constracts/HealthMediToken_flattened.sol\":30831:30840  balanceOf */\n      tag_74\n        /* \"constracts/HealthMediToken_flattened.sol\":30831:30849  balanceOf(account) */\n      jump\t// in\n    tag_159:\n        /* \"constracts/HealthMediToken_flattened.sol\":30831:30859  balanceOf(account) >= amount */\n      lt\n      iszero\n        /* \"constracts/HealthMediToken_flattened.sol\":30823:30884  require(balanceOf(account) >= amount, \"Insufficient balance\") */\n      tag_160\n      jumpi\n      mload(0x40)\n      0x08c379a000000000000000000000000000000000000000000000000000000000\n      dup2\n      mstore\n      0x04\n      add\n      tag_161\n      swap1\n      tag_162\n      jump\t// in\n    tag_161:\n      mload(0x40)\n      dup1\n      swap2\n      sub\n      swap1\n      revert\n    tag_160:\n        /* \"constracts/HealthMediToken_flattened.sol\":30894:30900  _locks */\n      0x07\n        /* \"constracts/HealthMediToken_flattened.sol\":30894:30909  _locks[account] */\n      0x00\n        /* \"constracts/HealthMediToken_flattened.sol\":30901:30908  account */\n      dup5\n        /* \"constracts/HealthMediToken_flattened.sol\":30894:30909  _locks[account] */\n      0xffffffffffffffffffffffffffffffffffffffff\n      and\n      0xffffffffffffffffffffffffffffffffffffffff\n      and\n      dup2\n      mstore\n      0x20\n      add\n      swap1\n      dup2\n      mstore\n      0x20\n      add\n      0x00\n      keccak256\n        /* \"constracts/HealthMediToken_flattened.sol\":30915:30944  LockInfo(amount, releaseTime) */\n      mload(0x40)\n      dup1\n      0x40\n      add\n      0x40\n      mstore\n      dup1\n        /* \"constracts/HealthMediToken_flattened.sol\":30924:30930  amount */\n      dup5\n        /* \"constracts/HealthMediToken_flattened.sol\":30915:30944  LockInfo(amount, releaseTime) */\n      dup2\n      mstore\n      0x20\n      add\n        /* \"constracts/HealthMediToken_flattened.sol\":30932:30943  releaseTime */\n      dup4\n        /* \"constracts/HealthMediToken_flattened.sol\":30915:30944  LockInfo(amount, releaseTime) */\n      dup2\n      mstore\n      pop\n        /* \"constracts/HealthMediToken_flattened.sol\":30894:30945  _locks[account].push(LockInfo(amount, releaseTime)) */\n      swap1\n      dup1\n      0x01\n      dup2\n      sload\n      add\n      dup1\n      dup3\n      sstore\n      dup1\n      swap2\n      pop\n      pop\n      0x01\n      swap1\n      sub\n      swap1\n      0x00\n      mstore\n      keccak256(0x00, 0x20)\n      swap1\n      0x02\n      mul\n      add\n      0x00\n      swap1\n      swap2\n      swap1\n      swap2\n      swap1\n      swap2\n      pop\n      0x00\n      dup3\n      add\n      mload\n      dup2\n      0x00\n      add\n      sstore\n      0x20\n      dup3\n      add\n      mload\n      dup2\n      0x01\n      add\n      sstore\n      pop\n      pop\n        /* \"constracts/HealthMediToken_flattened.sol\":30726:30952  function lockup(address account, uint256 amount, uint256 releaseTime) public onlyOwner {... */\n      pop\n      pop\n      pop\n      jump\t// out\n        /* \"constracts/HealthMediToken_flattened.sol\":19787:19903  function balanceOf(address account) public view virtual returns (uint256) {... */\n    tag_74:\n        /* \"constracts/HealthMediToken_flattened.sol\":19852:19859  uint256 */\n      0x00\n        /* \"constracts/HealthMediToken_flattened.sol\":19878:19887  _balances */\n      dup1\n        /* \"constracts/HealthMediToken_flattened.sol\":19878:19896  _balances[account] */\n      0x00\n        /* \"constracts/HealthMediToken_flattened.sol\":19888:19895  account */\n      dup4\n        /* \"constracts/HealthMediToken_flattened.sol\":19878:19896  _balances[account] */\n      0xffffffffffffffffffffffffffffffffffffffff\n      and\n      0xffffffffffffffffffffffffffffffffffffffff\n      and\n      dup2\n      mstore\n      0x20\n      add\n      swap1\n      dup2\n      mstore\n      0x20\n      add\n      0x00\n      keccak256\n      sload\n        /* \"constracts/HealthMediToken_flattened.sol\":19871:19896  return _balances[account] */\n      swap1\n      pop\n        /* \"constracts/HealthMediToken_flattened.sol\":19787:19903  function balanceOf(address account) public view virtual returns (uint256) {... */\n      swap2\n      swap1\n      pop\n      jump\t// out\n        /* \"constracts/HealthMediToken_flattened.sol\":9821:9922  function renounceOwnership() public virtual onlyOwner {... */\n    tag_77:\n        /* \"constracts/HealthMediToken_flattened.sol\":9059:9072  _checkOwner() */\n      tag_166\n        /* \"constracts/HealthMediToken_flattened.sol\":9059:9070  _checkOwner */\n      tag_134\n        /* \"constracts/HealthMediToken_flattened.sol\":9059:9072  _checkOwner() */\n      jump\t// in\n    tag_166:\n        /* \"constracts/HealthMediToken_flattened.sol\":9885:9915  _transferOwnership(address(0)) */\n      tag_168\n        /* \"constracts/HealthMediToken_flattened.sol\":9912:9913  0 */\n      0x00\n        /* \"constracts/HealthMediToken_flattened.sol\":9885:9903  _transferOwnership */\n      tag_169\n        /* \"constracts/HealthMediToken_flattened.sol\":9885:9915  _transferOwnership(address(0)) */\n      jump\t// in\n    tag_168:\n        /* \"constracts/HealthMediToken_flattened.sol\":9821:9922  function renounceOwnership() public virtual onlyOwner {... */\n      jump\t// out\n        /* \"constracts/HealthMediToken_flattened.sol\":28619:28777  function burnFrom(address account, uint256 value) public virtual {... */\n    tag_80:\n        /* \"constracts/HealthMediToken_flattened.sol\":28694:28739  _spendAllowance(account, _msgSender(), value) */\n      tag_171\n        /* \"constracts/HealthMediToken_flattened.sol\":28710:28717  account */\n      dup3\n        /* \"constracts/HealthMediToken_flattened.sol\":28719:28731  _msgSender() */\n      tag_172\n        /* \"constracts/HealthMediToken_flattened.sol\":28719:28729  _msgSender */\n      tag_121\n        /* \"constracts/HealthMediToken_flattened.sol\":28719:28731  _msgSender() */\n      jump\t// in\n    tag_172:\n        /* \"constracts/HealthMediToken_flattened.sol\":28733:28738  value */\n      dup4\n        /* \"constracts/HealthMediToken_flattened.sol\":28694:28709  _spendAllowance */\n      tag_128\n        /* \"constracts/HealthMediToken_flattened.sol\":28694:28739  _spendAllowance(account, _msgSender(), value) */\n      jump\t// in\n    tag_171:\n        /* \"constracts/HealthMediToken_flattened.sol\":28749:28770  _burn(account, value) */\n      tag_173\n        /* \"constracts/HealthMediToken_flattened.sol\":28755:28762  account */\n      dup3\n        /* \"constracts/HealthMediToken_flattened.sol\":28764:28769  value */\n      dup3\n        /* \"constracts/HealthMediToken_flattened.sol\":28749:28754  _burn */\n      tag_148\n        /* \"constracts/HealthMediToken_flattened.sol\":28749:28770  _burn(account, value) */\n      jump\t// in\n    tag_173:\n        /* \"constracts/HealthMediToken_flattened.sol\":28619:28777  function burnFrom(address account, uint256 value) public virtual {... */\n      pop\n      pop\n      jump\t// out\n        /* \"constracts/HealthMediToken_flattened.sol\":31743:31802  function pause() public onlyOwner {... */\n    tag_82:\n        /* \"constracts/HealthMediToken_flattened.sol\":9059:9072  _checkOwner() */\n      tag_175\n        /* \"constracts/HealthMediToken_flattened.sol\":9059:9070  _checkOwner */\n      tag_134\n        /* \"constracts/HealthMediToken_flattened.sol\":9059:9072  _checkOwner() */\n      jump\t// in\n    tag_175:\n        /* \"constracts/HealthMediToken_flattened.sol\":31787:31795  _pause() */\n      tag_177\n        /* \"constracts/HealthMediToken_flattened.sol\":31787:31793  _pause */\n      tag_178\n        /* \"constracts/HealthMediToken_flattened.sol\":31787:31795  _pause() */\n      jump\t// in\n    tag_177:\n        /* \"constracts/HealthMediToken_flattened.sol\":31743:31802  function pause() public onlyOwner {... */\n      jump\t// out\n        /* \"constracts/HealthMediToken_flattened.sol\":30302:30508  function freeze(address account) public onlyOwner {... */\n    tag_85:\n        /* \"constracts/HealthMediToken_flattened.sol\":9059:9072  _checkOwner() */\n      tag_180\n        /* \"constracts/HealthMediToken_flattened.sol\":9059:9070  _checkOwner */\n      tag_134\n        /* \"constracts/HealthMediToken_flattened.sol\":9059:9072  _checkOwner() */\n      jump\t// in\n    tag_180:\n        /* \"constracts/HealthMediToken_flattened.sol\":30371:30385  frozenAccounts */\n      0x06\n        /* \"constracts/HealthMediToken_flattened.sol\":30371:30394  frozenAccounts[account] */\n      0x00\n        /* \"constracts/HealthMediToken_flattened.sol\":30386:30393  account */\n      dup3\n        /* \"constracts/HealthMediToken_flattened.sol\":30371:30394  frozenAccounts[account] */\n      0xffffffffffffffffffffffffffffffffffffffff\n      and\n      0xffffffffffffffffffffffffffffffffffffffff\n      and\n      dup2\n      mstore\n      0x20\n      add\n      swap1\n      dup2\n      mstore\n      0x20\n      add\n      0x00\n      keccak256\n      0x00\n      swap1\n      sload\n      swap1\n      0x0100\n      exp\n      swap1\n      div\n      0xff\n      and\n        /* \"constracts/HealthMediToken_flattened.sol\":30370:30394  !frozenAccounts[account] */\n      iszero\n        /* \"constracts/HealthMediToken_flattened.sol\":30362:30424  require(!frozenAccounts[account], \"Account is already frozen\") */\n      tag_182\n      jumpi\n      mload(0x40)\n      0x08c379a000000000000000000000000000000000000000000000000000000000\n      dup2\n      mstore\n      0x04\n      add\n      tag_183\n      swap1\n      tag_184\n      jump\t// in\n    tag_183:\n      mload(0x40)\n      dup1\n      swap2\n      sub\n      swap1\n      revert\n    tag_182:\n        /* \"constracts/HealthMediToken_flattened.sol\":30460:30464  true */\n      0x01\n        /* \"constracts/HealthMediToken_flattened.sol\":30434:30448  frozenAccounts */\n      0x06\n        /* \"constracts/HealthMediToken_flattened.sol\":30434:30457  frozenAccounts[account] */\n      0x00\n        /* \"constracts/HealthMediToken_flattened.sol\":30449:30456  account */\n      dup4\n        /* \"constracts/HealthMediToken_flattened.sol\":30434:30457  frozenAccounts[account] */\n      0xffffffffffffffffffffffffffffffffffffffff\n      and\n      0xffffffffffffffffffffffffffffffffffffffff\n      and\n      dup2\n      mstore\n      0x20\n      add\n      swap1\n      dup2\n      mstore\n      0x20\n      add\n      0x00\n      keccak256\n      0x00\n        /* \"constracts/HealthMediToken_flattened.sol\":30434:30464  frozenAccounts[account] = true */\n      0x0100\n      exp\n      dup2\n      sload\n      dup2\n      0xff\n      mul\n      not\n      and\n      swap1\n      dup4\n      iszero\n      iszero\n      mul\n      or\n      swap1\n      sstore\n      pop\n        /* \"constracts/HealthMediToken_flattened.sol\":30493:30500  account */\n      dup1\n        /* \"constracts/HealthMediToken_flattened.sol\":30479:30501  AccountFrozen(account) */\n      0xffffffffffffffffffffffffffffffffffffffff\n      and\n      0x4f2a367e694e71282f29ab5eaa04c4c0be45ac5bf2ca74fb67068b98bdc2887d\n      mload(0x40)\n      mload(0x40)\n      dup1\n      swap2\n      sub\n      swap1\n      log2\n        /* \"constracts/HealthMediToken_flattened.sol\":30302:30508  function freeze(address account) public onlyOwner {... */\n      pop\n      jump\t// out\n        /* \"constracts/HealthMediToken_flattened.sol\":9166:9251  function owner() public view virtual returns (address) {... */\n    tag_87:\n        /* \"constracts/HealthMediToken_flattened.sol\":9212:9219  address */\n      0x00\n        /* \"constracts/HealthMediToken_flattened.sol\":9238:9244  _owner */\n      0x05\n      0x01\n      swap1\n      sload\n      swap1\n      0x0100\n      exp\n      swap1\n      div\n      0xffffffffffffffffffffffffffffffffffffffff\n      and\n        /* \"constracts/HealthMediToken_flattened.sol\":9231:9244  return _owner */\n      swap1\n      pop\n        /* \"constracts/HealthMediToken_flattened.sol\":9166:9251  function owner() public view virtual returns (address) {... */\n      swap1\n      jump\t// out\n        /* \"constracts/HealthMediToken_flattened.sol\":32451:32807  function getLockedAmount(address account) public view returns (uint256) {... */\n    tag_92:\n        /* \"constracts/HealthMediToken_flattened.sol\":32514:32521  uint256 */\n      0x00\n        /* \"constracts/HealthMediToken_flattened.sol\":32533:32553  uint256 lockedAmount */\n      dup1\n        /* \"constracts/HealthMediToken_flattened.sol\":32556:32557  0 */\n      0x00\n        /* \"constracts/HealthMediToken_flattened.sol\":32533:32557  uint256 lockedAmount = 0 */\n      swap1\n      pop\n        /* \"constracts/HealthMediToken_flattened.sol\":32572:32581  uint256 i */\n      0x00\n        /* \"constracts/HealthMediToken_flattened.sol\":32567:32772  for (uint256 i = 0; i < _locks[account].length; i++) {... */\n    tag_187:\n        /* \"constracts/HealthMediToken_flattened.sol\":32591:32597  _locks */\n      0x07\n        /* \"constracts/HealthMediToken_flattened.sol\":32591:32606  _locks[account] */\n      0x00\n        /* \"constracts/HealthMediToken_flattened.sol\":32598:32605  account */\n      dup6\n        /* \"constracts/HealthMediToken_flattened.sol\":32591:32606  _locks[account] */\n      0xffffffffffffffffffffffffffffffffffffffff\n      and\n      0xffffffffffffffffffffffffffffffffffffffff\n      and\n      dup2\n      mstore\n      0x20\n      add\n      swap1\n      dup2\n      mstore\n      0x20\n      add\n      0x00\n      keccak256\n        /* \"constracts/HealthMediToken_flattened.sol\":32591:32613  _locks[account].length */\n      dup1\n      sload\n      swap1\n      pop\n        /* \"constracts/HealthMediToken_flattened.sol\":32587:32588  i */\n      dup2\n        /* \"constracts/HealthMediToken_flattened.sol\":32587:32613  i < _locks[account].length */\n      lt\n        /* \"constracts/HealthMediToken_flattened.sol\":32567:32772  for (uint256 i = 0; i < _locks[account].length; i++) {... */\n      iszero\n      tag_188\n      jumpi\n        /* \"constracts/HealthMediToken_flattened.sol\":32671:32686  block.timestamp */\n      timestamp\n        /* \"constracts/HealthMediToken_flattened.sol\":32638:32644  _locks */\n      0x07\n        /* \"constracts/HealthMediToken_flattened.sol\":32638:32653  _locks[account] */\n      0x00\n        /* \"constracts/HealthMediToken_flattened.sol\":32645:32652  account */\n      dup7\n        /* \"constracts/HealthMediToken_flattened.sol\":32638:32653  _locks[account] */\n      0xffffffffffffffffffffffffffffffffffffffff\n      and\n      0xffffffffffffffffffffffffffffffffffffffff\n      and\n      dup2\n      mstore\n      0x20\n      add\n      swap1\n      dup2\n      mstore\n      0x20\n      add\n      0x00\n      keccak256\n        /* \"constracts/HealthMediToken_flattened.sol\":32654:32655  i */\n      dup3\n        /* \"constracts/HealthMediToken_flattened.sol\":32638:32656  _locks[account][i] */\n      dup2\n      sload\n      dup2\n      lt\n      tag_190\n      jumpi\n      tag_191\n      tag_192\n      jump\t// in\n    tag_191:\n    tag_190:\n      swap1\n      0x00\n      mstore\n      keccak256(0x00, 0x20)\n      swap1\n      0x02\n      mul\n      add\n        /* \"constracts/HealthMediToken_flattened.sol\":32638:32668  _locks[account][i].releaseTime */\n      0x01\n      add\n      sload\n        /* \"constracts/HealthMediToken_flattened.sol\":32638:32686  _locks[account][i].releaseTime > block.timestamp */\n      gt\n        /* \"constracts/HealthMediToken_flattened.sol\":32634:32762  if (_locks[account][i].releaseTime > block.timestamp) {... */\n      iszero\n      tag_194\n      jumpi\n        /* \"constracts/HealthMediToken_flattened.sol\":32722:32728  _locks */\n      0x07\n        /* \"constracts/HealthMediToken_flattened.sol\":32722:32737  _locks[account] */\n      0x00\n        /* \"constracts/HealthMediToken_flattened.sol\":32729:32736  account */\n      dup6\n        /* \"constracts/HealthMediToken_flattened.sol\":32722:32737  _locks[account] */\n      0xffffffffffffffffffffffffffffffffffffffff\n      and\n      0xffffffffffffffffffffffffffffffffffffffff\n      and\n      dup2\n      mstore\n      0x20\n      add\n      swap1\n      dup2\n      mstore\n      0x20\n      add\n      0x00\n      keccak256\n        /* \"constracts/HealthMediToken_flattened.sol\":32738:32739  i */\n      dup2\n        /* \"constracts/HealthMediToken_flattened.sol\":32722:32740  _locks[account][i] */\n      dup2\n      sload\n      dup2\n      lt\n      tag_195\n      jumpi\n      tag_196\n      tag_192\n      jump\t// in\n    tag_196:\n    tag_195:\n      swap1\n      0x00\n      mstore\n      keccak256(0x00, 0x20)\n      swap1\n      0x02\n      mul\n      add\n        /* \"constracts/HealthMediToken_flattened.sol\":32722:32747  _locks[account][i].amount */\n      0x00\n      add\n      sload\n        /* \"constracts/HealthMediToken_flattened.sol\":32706:32747  lockedAmount += _locks[account][i].amount */\n      dup3\n      tag_198\n      swap2\n      swap1\n      tag_139\n      jump\t// in\n    tag_198:\n      swap2\n      pop\n        /* \"constracts/HealthMediToken_flattened.sol\":32634:32762  if (_locks[account][i].releaseTime > block.timestamp) {... */\n    tag_194:\n        /* \"constracts/HealthMediToken_flattened.sol\":32615:32618  i++ */\n      dup1\n      dup1\n      0x01\n      add\n      swap2\n      pop\n      pop\n        /* \"constracts/HealthMediToken_flattened.sol\":32567:32772  for (uint256 i = 0; i < _locks[account].length; i++) {... */\n      jump(tag_187)\n    tag_188:\n      pop\n        /* \"constracts/HealthMediToken_flattened.sol\":32788:32800  lockedAmount */\n      dup1\n        /* \"constracts/HealthMediToken_flattened.sol\":32781:32800  return lockedAmount */\n      swap2\n      pop\n      pop\n        /* \"constracts/HealthMediToken_flattened.sol\":32451:32807  function getLockedAmount(address account) public view returns (uint256) {... */\n      swap2\n      swap1\n      pop\n      jump\t// out\n        /* \"constracts/HealthMediToken_flattened.sol\":18764:18857  function symbol() public view virtual returns (string memory) {... */\n    tag_95:\n        /* \"constracts/HealthMediToken_flattened.sol\":18811:18824  string memory */\n      0x60\n        /* \"constracts/HealthMediToken_flattened.sol\":18843:18850  _symbol */\n      0x04\n        /* \"constracts/HealthMediToken_flattened.sol\":18836:18850  return _symbol */\n      dup1\n      sload\n      tag_200\n      swap1\n      tag_114\n      jump\t// in\n    tag_200:\n      dup1\n      0x1f\n      add\n      0x20\n      dup1\n      swap2\n      div\n      mul\n      0x20\n      add\n      mload(0x40)\n      swap1\n      dup2\n      add\n      0x40\n      mstore\n      dup1\n      swap3\n      swap2\n      swap1\n      dup2\n      dup2\n      mstore\n      0x20\n      add\n      dup3\n      dup1\n      sload\n      tag_201\n      swap1\n      tag_114\n      jump\t// in\n    tag_201:\n      dup1\n      iszero\n      tag_202\n      jumpi\n      dup1\n      0x1f\n      lt\n      tag_203\n      jumpi\n      0x0100\n      dup1\n      dup4\n      sload\n      div\n      mul\n      dup4\n      mstore\n      swap2\n      0x20\n      add\n      swap2\n      jump(tag_202)\n    tag_203:\n      dup3\n      add\n      swap2\n      swap1\n      0x00\n      mstore\n      keccak256(0x00, 0x20)\n      swap1\n    tag_204:\n      dup2\n      sload\n      dup2\n      mstore\n      swap1\n      0x01\n      add\n      swap1\n      0x20\n      add\n      dup1\n      dup4\n      gt\n      tag_204\n      jumpi\n      dup3\n      swap1\n      sub\n      0x1f\n      and\n      dup3\n      add\n      swap2\n    tag_202:\n      pop\n      pop\n      pop\n      pop\n      pop\n      swap1\n      pop\n        /* \"constracts/HealthMediToken_flattened.sol\":18764:18857  function symbol() public view virtual returns (string memory) {... */\n      swap1\n      jump\t// out\n        /* \"constracts/HealthMediToken_flattened.sol\":20098:20276  function transfer(address to, uint256 value) public virtual returns (bool) {... */\n    tag_99:\n        /* \"constracts/HealthMediToken_flattened.sol\":20167:20171  bool */\n      0x00\n        /* \"constracts/HealthMediToken_flattened.sol\":20183:20196  address owner */\n      dup1\n        /* \"constracts/HealthMediToken_flattened.sol\":20199:20211  _msgSender() */\n      tag_206\n        /* \"constracts/HealthMediToken_flattened.sol\":20199:20209  _msgSender */\n      tag_121\n        /* \"constracts/HealthMediToken_flattened.sol\":20199:20211  _msgSender() */\n      jump\t// in\n    tag_206:\n        /* \"constracts/HealthMediToken_flattened.sol\":20183:20211  address owner = _msgSender() */\n      swap1\n      pop\n        /* \"constracts/HealthMediToken_flattened.sol\":20221:20248  _transfer(owner, to, value) */\n      tag_207\n        /* \"constracts/HealthMediToken_flattened.sol\":20231:20236  owner */\n      dup2\n        /* \"constracts/HealthMediToken_flattened.sol\":20238:20240  to */\n      dup6\n        /* \"constracts/HealthMediToken_flattened.sol\":20242:20247  value */\n      dup6\n        /* \"constracts/HealthMediToken_flattened.sol\":20221:20230  _transfer */\n      tag_130\n        /* \"constracts/HealthMediToken_flattened.sol\":20221:20248  _transfer(owner, to, value) */\n      jump\t// in\n    tag_207:\n        /* \"constracts/HealthMediToken_flattened.sol\":20265:20269  true */\n      0x01\n        /* \"constracts/HealthMediToken_flattened.sol\":20258:20269  return true */\n      swap2\n      pop\n      pop\n        /* \"constracts/HealthMediToken_flattened.sol\":20098:20276  function transfer(address to, uint256 value) public virtual returns (bool) {... */\n      swap3\n      swap2\n      pop\n      pop\n      jump\t// out\n        /* \"constracts/HealthMediToken_flattened.sol\":30958:31513  function releaseLock(address account) public {... */\n    tag_103:\n        /* \"constracts/HealthMediToken_flattened.sol\":31013:31037  uint256 releasableAmount */\n      0x00\n        /* \"constracts/HealthMediToken_flattened.sol\":31056:31065  uint256 i */\n      dup1\n        /* \"constracts/HealthMediToken_flattened.sol\":31051:31403  for (uint256 i = 0; i < _locks[account].length; i++) {... */\n    tag_209:\n        /* \"constracts/HealthMediToken_flattened.sol\":31075:31081  _locks */\n      0x07\n        /* \"constracts/HealthMediToken_flattened.sol\":31075:31090  _locks[account] */\n      0x00\n        /* \"constracts/HealthMediToken_flattened.sol\":31082:31089  account */\n      dup5\n        /* \"constracts/HealthMediToken_flattened.sol\":31075:31090  _locks[account] */\n      0xffffffffffffffffffffffffffffffffffffffff\n      and\n      0xffffffffffffffffffffffffffffffffffffffff\n      and\n      dup2\n      mstore\n      0x20\n      add\n      swap1\n      dup2\n      mstore\n      0x20\n      add\n      0x00\n      keccak256\n        /* \"constracts/HealthMediToken_flattened.sol\":31075:31097  _locks[account].length */\n      dup1\n      sload\n      swap1\n      pop\n        /* \"constracts/HealthMediToken_flattened.sol\":31071:31072  i */\n      dup2\n        /* \"constracts/HealthMediToken_flattened.sol\":31071:31097  i < _locks[account].length */\n      lt\n        /* \"constracts/HealthMediToken_flattened.sol\":31051:31403  for (uint256 i = 0; i < _locks[account].length; i++) {... */\n      iszero\n      tag_210\n      jumpi\n        /* \"constracts/HealthMediToken_flattened.sol\":31156:31171  block.timestamp */\n      timestamp\n        /* \"constracts/HealthMediToken_flattened.sol\":31122:31128  _locks */\n      0x07\n        /* \"constracts/HealthMediToken_flattened.sol\":31122:31137  _locks[account] */\n      0x00\n        /* \"constracts/HealthMediToken_flattened.sol\":31129:31136  account */\n      dup6\n        /* \"constracts/HealthMediToken_flattened.sol\":31122:31137  _locks[account] */\n      0xffffffffffffffffffffffffffffffffffffffff\n      and\n      0xffffffffffffffffffffffffffffffffffffffff\n      and\n      dup2\n      mstore\n      0x20\n      add\n      swap1\n      dup2\n      mstore\n      0x20\n      add\n      0x00\n      keccak256\n        /* \"constracts/HealthMediToken_flattened.sol\":31138:31139  i */\n      dup3\n        /* \"constracts/HealthMediToken_flattened.sol\":31122:31140  _locks[account][i] */\n      dup2\n      sload\n      dup2\n      lt\n      tag_212\n      jumpi\n      tag_213\n      tag_192\n      jump\t// in\n    tag_213:\n    tag_212:\n      swap1\n      0x00\n      mstore\n      keccak256(0x00, 0x20)\n      swap1\n      0x02\n      mul\n      add\n        /* \"constracts/HealthMediToken_flattened.sol\":31122:31152  _locks[account][i].releaseTime */\n      0x01\n      add\n      sload\n        /* \"constracts/HealthMediToken_flattened.sol\":31122:31171  _locks[account][i].releaseTime <= block.timestamp */\n      gt\n        /* \"constracts/HealthMediToken_flattened.sol\":31118:31393  if (_locks[account][i].releaseTime <= block.timestamp) {... */\n      tag_215\n      jumpi\n        /* \"constracts/HealthMediToken_flattened.sol\":31211:31217  _locks */\n      0x07\n        /* \"constracts/HealthMediToken_flattened.sol\":31211:31226  _locks[account] */\n      0x00\n        /* \"constracts/HealthMediToken_flattened.sol\":31218:31225  account */\n      dup5\n        /* \"constracts/HealthMediToken_flattened.sol\":31211:31226  _locks[account] */\n      0xffffffffffffffffffffffffffffffffffffffff\n      and\n      0xffffffffffffffffffffffffffffffffffffffff\n      and\n      dup2\n      mstore\n      0x20\n      add\n      swap1\n      dup2\n      mstore\n      0x20\n      add\n      0x00\n      keccak256\n        /* \"constracts/HealthMediToken_flattened.sol\":31227:31228  i */\n      dup2\n        /* \"constracts/HealthMediToken_flattened.sol\":31211:31229  _locks[account][i] */\n      dup2\n      sload\n      dup2\n      lt\n      tag_216\n      jumpi\n      tag_217\n      tag_192\n      jump\t// in\n    tag_217:\n    tag_216:\n      swap1\n      0x00\n      mstore\n      keccak256(0x00, 0x20)\n      swap1\n      0x02\n      mul\n      add\n        /* \"constracts/HealthMediToken_flattened.sol\":31211:31236  _locks[account][i].amount */\n      0x00\n      add\n      sload\n        /* \"constracts/HealthMediToken_flattened.sol\":31191:31236  releasableAmount += _locks[account][i].amount */\n      dup3\n      tag_219\n      swap2\n      swap1\n      tag_139\n      jump\t// in\n    tag_219:\n      swap2\n      pop\n        /* \"constracts/HealthMediToken_flattened.sol\":31275:31281  _locks */\n      0x07\n        /* \"constracts/HealthMediToken_flattened.sol\":31275:31290  _locks[account] */\n      0x00\n        /* \"constracts/HealthMediToken_flattened.sol\":31282:31289  account */\n      dup5\n        /* \"constracts/HealthMediToken_flattened.sol\":31275:31290  _locks[account] */\n      0xffffffffffffffffffffffffffffffffffffffff\n      and\n      0xffffffffffffffffffffffffffffffffffffffff\n      and\n      dup2\n      mstore\n      0x20\n      add\n      swap1\n      dup2\n      mstore\n      0x20\n      add\n      0x00\n      keccak256\n        /* \"constracts/HealthMediToken_flattened.sol\":31316:31317  1 */\n      0x01\n        /* \"constracts/HealthMediToken_flattened.sol\":31291:31297  _locks */\n      0x07\n        /* \"constracts/HealthMediToken_flattened.sol\":31291:31306  _locks[account] */\n      0x00\n        /* \"constracts/HealthMediToken_flattened.sol\":31298:31305  account */\n      dup7\n        /* \"constracts/HealthMediToken_flattened.sol\":31291:31306  _locks[account] */\n      0xffffffffffffffffffffffffffffffffffffffff\n      and\n      0xffffffffffffffffffffffffffffffffffffffff\n      and\n      dup2\n      mstore\n      0x20\n      add\n      swap1\n      dup2\n      mstore\n      0x20\n      add\n      0x00\n      keccak256\n        /* \"constracts/HealthMediToken_flattened.sol\":31291:31313  _locks[account].length */\n      dup1\n      sload\n      swap1\n      pop\n        /* \"constracts/HealthMediToken_flattened.sol\":31291:31317  _locks[account].length - 1 */\n      tag_220\n      swap2\n      swap1\n      tag_221\n      jump\t// in\n    tag_220:\n        /* \"constracts/HealthMediToken_flattened.sol\":31275:31318  _locks[account][_locks[account].length - 1] */\n      dup2\n      sload\n      dup2\n      lt\n      tag_222\n      jumpi\n      tag_223\n      tag_192\n      jump\t// in\n    tag_223:\n    tag_222:\n      swap1\n      0x00\n      mstore\n      keccak256(0x00, 0x20)\n      swap1\n      0x02\n      mul\n      add\n        /* \"constracts/HealthMediToken_flattened.sol\":31254:31260  _locks */\n      0x07\n        /* \"constracts/HealthMediToken_flattened.sol\":31254:31269  _locks[account] */\n      0x00\n        /* \"constracts/HealthMediToken_flattened.sol\":31261:31268  account */\n      dup6\n        /* \"constracts/HealthMediToken_flattened.sol\":31254:31269  _locks[account] */\n      0xffffffffffffffffffffffffffffffffffffffff\n      and\n      0xffffffffffffffffffffffffffffffffffffffff\n      and\n      dup2\n      mstore\n      0x20\n      add\n      swap1\n      dup2\n      mstore\n      0x20\n      add\n      0x00\n      keccak256\n        /* \"constracts/HealthMediToken_flattened.sol\":31270:31271  i */\n      dup3\n        /* \"constracts/HealthMediToken_flattened.sol\":31254:31272  _locks[account][i] */\n      dup2\n      sload\n      dup2\n      lt\n      tag_225\n      jumpi\n      tag_226\n      tag_192\n      jump\t// in\n    tag_226:\n    tag_225:\n      swap1\n      0x00\n      mstore\n      keccak256(0x00, 0x20)\n      swap1\n      0x02\n      mul\n      add\n        /* \"constracts/HealthMediToken_flattened.sol\":31254:31318  _locks[account][i] = _locks[account][_locks[account].length - 1] */\n      0x00\n      dup3\n      add\n      sload\n      dup2\n      0x00\n      add\n      sstore\n      0x01\n      dup3\n      add\n      sload\n      dup2\n      0x01\n      add\n      sstore\n      swap1\n      pop\n      pop\n        /* \"constracts/HealthMediToken_flattened.sol\":31336:31342  _locks */\n      0x07\n        /* \"constracts/HealthMediToken_flattened.sol\":31336:31351  _locks[account] */\n      0x00\n        /* \"constracts/HealthMediToken_flattened.sol\":31343:31350  account */\n      dup5\n        /* \"constracts/HealthMediToken_flattened.sol\":31336:31351  _locks[account] */\n      0xffffffffffffffffffffffffffffffffffffffff\n      and\n      0xffffffffffffffffffffffffffffffffffffffff\n      and\n      dup2\n      mstore\n      0x20\n      add\n      swap1\n      dup2\n      mstore\n      0x20\n      add\n      0x00\n      keccak256\n        /* \"constracts/HealthMediToken_flattened.sol\":31336:31357  _locks[account].pop() */\n      dup1\n      sload\n      dup1\n      tag_228\n      jumpi\n      tag_229\n      tag_230\n      jump\t// in\n    tag_229:\n    tag_228:\n      0x01\n      swap1\n      sub\n      dup2\n      dup2\n      swap1\n      0x00\n      mstore\n      keccak256(0x00, 0x20)\n      swap1\n      0x02\n      mul\n      add\n      0x00\n      dup1\n      dup3\n      add\n      0x00\n      swap1\n      sstore\n      0x01\n      dup3\n      add\n      0x00\n      swap1\n      sstore\n      pop\n      pop\n      swap1\n      sstore\n        /* \"constracts/HealthMediToken_flattened.sol\":31375:31378  i-- */\n      dup1\n      dup1\n      tag_232\n      swap1\n      tag_233\n      jump\t// in\n    tag_232:\n      swap2\n      pop\n      pop\n        /* \"constracts/HealthMediToken_flattened.sol\":31118:31393  if (_locks[account][i].releaseTime <= block.timestamp) {... */\n    tag_215:\n        /* \"constracts/HealthMediToken_flattened.sol\":31099:31102  i++ */\n      dup1\n      dup1\n      tag_234\n      swap1\n      tag_235\n      jump\t// in\n    tag_234:\n      swap2\n      pop\n      pop\n        /* \"constracts/HealthMediToken_flattened.sol\":31051:31403  for (uint256 i = 0; i < _locks[account].length; i++) {... */\n      jump(tag_209)\n    tag_210:\n      pop\n        /* \"constracts/HealthMediToken_flattened.sol\":31435:31436  0 */\n      0x00\n        /* \"constracts/HealthMediToken_flattened.sol\":31416:31432  releasableAmount */\n      dup2\n        /* \"constracts/HealthMediToken_flattened.sol\":31416:31436  releasableAmount > 0 */\n      gt\n        /* \"constracts/HealthMediToken_flattened.sol\":31412:31507  if (releasableAmount > 0) {... */\n      iszero\n      tag_236\n      jumpi\n        /* \"constracts/HealthMediToken_flattened.sol\":31470:31477  account */\n      dup2\n        /* \"constracts/HealthMediToken_flattened.sol\":31457:31496  LockReleased(account, releasableAmount) */\n      0xffffffffffffffffffffffffffffffffffffffff\n      and\n      0x622ca42598ab680a7def4a7346e1963a82207cf42a5ddb8056ad62cfbda19b88\n        /* \"constracts/HealthMediToken_flattened.sol\":31479:31495  releasableAmount */\n      dup3\n        /* \"constracts/HealthMediToken_flattened.sol\":31457:31496  LockReleased(account, releasableAmount) */\n      mload(0x40)\n      tag_237\n      swap2\n      swap1\n      tag_42\n      jump\t// in\n    tag_237:\n      mload(0x40)\n      dup1\n      swap2\n      sub\n      swap1\n      log2\n        /* \"constracts/HealthMediToken_flattened.sol\":31412:31507  if (releasableAmount > 0) {... */\n    tag_236:\n        /* \"constracts/HealthMediToken_flattened.sol\":31003:31513  {... */\n      pop\n        /* \"constracts/HealthMediToken_flattened.sol\":30958:31513  function releaseLock(address account) public {... */\n      pop\n      jump\t// out\n        /* \"constracts/HealthMediToken_flattened.sol\":20334:20474  function allowance(address owner, address spender) public view virtual returns (uint256) {... */\n    tag_107:\n        /* \"constracts/HealthMediToken_flattened.sol\":20414:20421  uint256 */\n      0x00\n        /* \"constracts/HealthMediToken_flattened.sol\":20440:20451  _allowances */\n      0x01\n        /* \"constracts/HealthMediToken_flattened.sol\":20440:20458  _allowances[owner] */\n      0x00\n        /* \"constracts/HealthMediToken_flattened.sol\":20452:20457  owner */\n      dup5\n        /* \"constracts/HealthMediToken_flattened.sol\":20440:20458  _allowances[owner] */\n      0xffffffffffffffffffffffffffffffffffffffff\n      and\n      0xffffffffffffffffffffffffffffffffffffffff\n      and\n      dup2\n      mstore\n      0x20\n      add\n      swap1\n      dup2\n      mstore\n      0x20\n      add\n      0x00\n      keccak256\n        /* \"constracts/HealthMediToken_flattened.sol\":20440:20467  _allowances[owner][spender] */\n      0x00\n        /* \"constracts/HealthMediToken_flattened.sol\":20459:20466  spender */\n      dup4\n        /* \"constracts/HealthMediToken_flattened.sol\":20440:20467  _allowances[owner][spender] */\n      0xffffffffffffffffffffffffffffffffffffffff\n      and\n      0xffffffffffffffffffffffffffffffffffffffff\n      and\n      dup2\n      mstore\n      0x20\n      add\n      swap1\n      dup2\n      mstore\n      0x20\n      add\n      0x00\n      keccak256\n      sload\n        /* \"constracts/HealthMediToken_flattened.sol\":20433:20467  return _allowances[owner][spender] */\n      swap1\n      pop\n        /* \"constracts/HealthMediToken_flattened.sol\":20334:20474  function allowance(address owner, address spender) public view virtual returns (uint256) {... */\n      swap3\n      swap2\n      pop\n      pop\n      jump\t// out\n        /* \"constracts/HealthMediToken_flattened.sol\":10071:10286  function transferOwnership(address newOwner) public virtual onlyOwner {... */\n    tag_111:\n        /* \"constracts/HealthMediToken_flattened.sol\":9059:9072  _checkOwner() */\n      tag_240\n        /* \"constracts/HealthMediToken_flattened.sol\":9059:9070  _checkOwner */\n      tag_134\n        /* \"constracts/HealthMediToken_flattened.sol\":9059:9072  _checkOwner() */\n      jump\t// in\n    tag_240:\n        /* \"constracts/HealthMediToken_flattened.sol\":10175:10176  0 */\n      0x00\n        /* \"constracts/HealthMediToken_flattened.sol\":10155:10177  newOwner == address(0) */\n      0xffffffffffffffffffffffffffffffffffffffff\n      and\n        /* \"constracts/HealthMediToken_flattened.sol\":10155:10163  newOwner */\n      dup2\n        /* \"constracts/HealthMediToken_flattened.sol\":10155:10177  newOwner == address(0) */\n      0xffffffffffffffffffffffffffffffffffffffff\n      and\n      sub\n        /* \"constracts/HealthMediToken_flattened.sol\":10151:10242  if (newOwner == address(0)) {... */\n      tag_242\n      jumpi\n        /* \"constracts/HealthMediToken_flattened.sol\":10228:10229  0 */\n      0x00\n        /* \"constracts/HealthMediToken_flattened.sol\":10200:10231  OwnableInvalidOwner(address(0)) */\n      mload(0x40)\n      0x1e4fbdf700000000000000000000000000000000000000000000000000000000\n      dup2\n      mstore\n      0x04\n      add\n      tag_243\n      swap2\n      swap1\n      tag_89\n      jump\t// in\n    tag_243:\n      mload(0x40)\n      dup1\n      swap2\n      sub\n      swap1\n      revert\n        /* \"constracts/HealthMediToken_flattened.sol\":10151:10242  if (newOwner == address(0)) {... */\n    tag_242:\n        /* \"constracts/HealthMediToken_flattened.sol\":10251:10279  _transferOwnership(newOwner) */\n      tag_244\n        /* \"constracts/HealthMediToken_flattened.sol\":10270:10278  newOwner */\n      dup2\n        /* \"constracts/HealthMediToken_flattened.sol\":10251:10269  _transferOwnership */\n      tag_169\n        /* \"constracts/HealthMediToken_flattened.sol\":10251:10279  _transferOwnership(newOwner) */\n      jump\t// in\n    tag_244:\n        /* \"constracts/HealthMediToken_flattened.sol\":10071:10286  function transferOwnership(address newOwner) public virtual onlyOwner {... */\n      pop\n      jump\t// out\n        /* \"constracts/HealthMediToken_flattened.sol\":7244:7340  function _msgSender() internal view virtual returns (address) {... */\n    tag_121:\n        /* \"constracts/HealthMediToken_flattened.sol\":7297:7304  address */\n      0x00\n        /* \"constracts/HealthMediToken_flattened.sol\":7323:7333  msg.sender */\n      caller\n        /* \"constracts/HealthMediToken_flattened.sol\":7316:7333  return msg.sender */\n      swap1\n      pop\n        /* \"constracts/HealthMediToken_flattened.sol\":7244:7340  function _msgSender() internal view virtual returns (address) {... */\n      swap1\n      jump\t// out\n        /* \"constracts/HealthMediToken_flattened.sol\":25486:25614  function _approve(address owner, address spender, uint256 value) internal {... */\n    tag_123:\n        /* \"constracts/HealthMediToken_flattened.sol\":25570:25607  _approve(owner, spender, value, true) */\n      tag_247\n        /* \"constracts/HealthMediToken_flattened.sol\":25579:25584  owner */\n      dup4\n        /* \"constracts/HealthMediToken_flattened.sol\":25586:25593  spender */\n      dup4\n        /* \"constracts/HealthMediToken_flattened.sol\":25595:25600  value */\n      dup4\n        /* \"constracts/HealthMediToken_flattened.sol\":25602:25606  true */\n      0x01\n        /* \"constracts/HealthMediToken_flattened.sol\":25570:25578  _approve */\n      tag_248\n        /* \"constracts/HealthMediToken_flattened.sol\":25570:25607  _approve(owner, spender, value, true) */\n      jump\t// in\n    tag_247:\n        /* \"constracts/HealthMediToken_flattened.sol\":25486:25614  function _approve(address owner, address spender, uint256 value) internal {... */\n      pop\n      pop\n      pop\n      jump\t// out\n        /* \"constracts/HealthMediToken_flattened.sol\":27160:27637  function _spendAllowance(address owner, address spender, uint256 value) internal virtual {... */\n    tag_128:\n        /* \"constracts/HealthMediToken_flattened.sol\":27259:27283  uint256 currentAllowance */\n      0x00\n        /* \"constracts/HealthMediToken_flattened.sol\":27286:27311  allowance(owner, spender) */\n      tag_250\n        /* \"constracts/HealthMediToken_flattened.sol\":27296:27301  owner */\n      dup5\n        /* \"constracts/HealthMediToken_flattened.sol\":27303:27310  spender */\n      dup5\n        /* \"constracts/HealthMediToken_flattened.sol\":27286:27295  allowance */\n      tag_107\n        /* \"constracts/HealthMediToken_flattened.sol\":27286:27311  allowance(owner, spender) */\n      jump\t// in\n    tag_250:\n        /* \"constracts/HealthMediToken_flattened.sol\":27259:27311  uint256 currentAllowance = allowance(owner, spender) */\n      swap1\n      pop\n        /* \"constracts/HealthMediToken_flattened.sol\":27345:27362  type(uint256).max */\n      0xffffffffffffffffffffffffffffffffffffffffffffffffffffffffffffffff\n        /* \"constracts/HealthMediToken_flattened.sol\":27325:27341  currentAllowance */\n      dup2\n        /* \"constracts/HealthMediToken_flattened.sol\":27325:27362  currentAllowance != type(uint256).max */\n      eq\n        /* \"constracts/HealthMediToken_flattened.sol\":27321:27631  if (currentAllowance != type(uint256).max) {... */\n      tag_251\n      jumpi\n        /* \"constracts/HealthMediToken_flattened.sol\":27401:27406  value */\n      dup2\n        /* \"constracts/HealthMediToken_flattened.sol\":27382:27398  currentAllowance */\n      dup2\n        /* \"constracts/HealthMediToken_flattened.sol\":27382:27406  currentAllowance < value */\n      lt\n        /* \"constracts/HealthMediToken_flattened.sol\":27378:27508  if (currentAllowance < value) {... */\n      iszero\n      tag_252\n      jumpi\n        /* \"constracts/HealthMediToken_flattened.sol\":27460:27467  spender */\n      dup3\n        /* \"constracts/HealthMediToken_flattened.sol\":27469:27485  currentAllowance */\n      dup2\n        /* \"constracts/HealthMediToken_flattened.sol\":27487:27492  value */\n      dup4\n        /* \"constracts/HealthMediToken_flattened.sol\":27433:27493  ERC20InsufficientAllowance(spender, currentAllowance, value) */\n      mload(0x40)\n      0xfb8f41b200000000000000000000000000000000000000000000000000000000\n      dup2\n      mstore\n      0x04\n      add\n      tag_253\n      swap4\n      swap3\n      swap2\n      swap1\n      tag_254\n      jump\t// in\n    tag_253:\n      mload(0x40)\n      dup1\n      swap2\n      sub\n      swap1\n      revert\n        /* \"constracts/HealthMediToken_flattened.sol\":27378:27508  if (currentAllowance < value) {... */\n    tag_252:\n        /* \"constracts/HealthMediToken_flattened.sol\":27549:27606  _approve(owner, spender, currentAllowance - value, false) */\n      tag_255\n        /* \"constracts/HealthMediToken_flattened.sol\":27558:27563  owner */\n      dup5\n        /* \"constracts/HealthMediToken_flattened.sol\":27565:27572  spender */\n      dup5\n        /* \"constracts/HealthMediToken_flattened.sol\":27593:27598  value */\n      dup5\n        /* \"constracts/HealthMediToken_flattened.sol\":27574:27590  currentAllowance */\n      dup5\n        /* \"constracts/HealthMediToken_flattened.sol\":27574:27598  currentAllowance - value */\n      sub\n        /* \"constracts/HealthMediToken_flattened.sol\":27600:27605  false */\n      0x00\n        /* \"constracts/HealthMediToken_flattened.sol\":27549:27557  _approve */\n      tag_248\n        /* \"constracts/HealthMediToken_flattened.sol\":27549:27606  _approve(owner, spender, currentAllowance - value, false) */\n      jump\t// in\n    tag_255:\n        /* \"constracts/HealthMediToken_flattened.sol\":27321:27631  if (currentAllowance != type(uint256).max) {... */\n    tag_251:\n        /* \"constracts/HealthMediToken_flattened.sol\":27249:27637  {... */\n      pop\n        /* \"constracts/HealthMediToken_flattened.sol\":27160:27637  function _spendAllowance(address owner, address spender, uint256 value) internal virtual {... */\n      pop\n      pop\n      pop\n      jump\t// out\n        /* \"constracts/HealthMediToken_flattened.sol\":22144:22453  function _transfer(address from, address to, uint256 value) internal {... */\n    tag_130:\n        /* \"constracts/HealthMediToken_flattened.sol\":22243:22244  0 */\n      0x00\n        /* \"constracts/HealthMediToken_flattened.sol\":22227:22245  from == address(0) */\n      0xffffffffffffffffffffffffffffffffffffffff\n      and\n        /* \"constracts/HealthMediToken_flattened.sol\":22227:22231  from */\n      dup4\n        /* \"constracts/HealthMediToken_flattened.sol\":22227:22245  from == address(0) */\n      0xffffffffffffffffffffffffffffffffffffffff\n      and\n      sub\n        /* \"constracts/HealthMediToken_flattened.sol\":22223:22309  if (from == address(0)) {... */\n      tag_257\n      jumpi\n        /* \"constracts/HealthMediToken_flattened.sol\":22295:22296  0 */\n      0x00\n        /* \"constracts/HealthMediToken_flattened.sol\":22268:22298  ERC20InvalidSender(address(0)) */\n      mload(0x40)\n      0x96c6fd1e00000000000000000000000000000000000000000000000000000000\n      dup2\n      mstore\n      0x04\n      add\n      tag_258\n      swap2\n      swap1\n      tag_89\n      jump\t// in\n    tag_258:\n      mload(0x40)\n      dup1\n      swap2\n      sub\n      swap1\n      revert\n        /* \"constracts/HealthMediToken_flattened.sol\":22223:22309  if (from == address(0)) {... */\n    tag_257:\n        /* \"constracts/HealthMediToken_flattened.sol\":22336:22337  0 */\n      0x00\n        /* \"constracts/HealthMediToken_flattened.sol\":22322:22338  to == address(0) */\n      0xffffffffffffffffffffffffffffffffffffffff\n      and\n        /* \"constracts/HealthMediToken_flattened.sol\":22322:22324  to */\n      dup3\n        /* \"constracts/HealthMediToken_flattened.sol\":22322:22338  to == address(0) */\n      0xffffffffffffffffffffffffffffffffffffffff\n      and\n      sub\n        /* \"constracts/HealthMediToken_flattened.sol\":22318:22404  if (to == address(0)) {... */\n      tag_259\n      jumpi\n        /* \"constracts/HealthMediToken_flattened.sol\":22390:22391  0 */\n      0x00\n        /* \"constracts/HealthMediToken_flattened.sol\":22361:22393  ERC20InvalidReceiver(address(0)) */\n      mload(0x40)\n      0xec442f0500000000000000000000000000000000000000000000000000000000\n      dup2\n      mstore\n      0x04\n      add\n      tag_260\n      swap2\n      swap1\n      tag_89\n      jump\t// in\n    tag_260:\n      mload(0x40)\n      dup1\n      swap2\n      sub\n      swap1\n      revert\n        /* \"constracts/HealthMediToken_flattened.sol\":22318:22404  if (to == address(0)) {... */\n    tag_259:\n        /* \"constracts/HealthMediToken_flattened.sol\":22422:22446  _update(from, to, value) */\n      tag_261\n        /* \"constracts/HealthMediToken_flattened.sol\":22430:22434  from */\n      dup4\n        /* \"constracts/HealthMediToken_flattened.sol\":22436:22438  to */\n      dup4\n        /* \"constracts/HealthMediToken_flattened.sol\":22440:22445  value */\n      dup4\n        /* \"constracts/HealthMediToken_flattened.sol\":22422:22429  _update */\n      tag_262\n        /* \"constracts/HealthMediToken_flattened.sol\":22422:22446  _update(from, to, value) */\n      jump\t// in\n    tag_261:\n        /* \"constracts/HealthMediToken_flattened.sol\":22144:22453  function _transfer(address from, address to, uint256 value) internal {... */\n      pop\n      pop\n      pop\n      jump\t// out\n        /* \"constracts/HealthMediToken_flattened.sol\":9324:9486  function _checkOwner() internal view virtual {... */\n    tag_134:\n        /* \"constracts/HealthMediToken_flattened.sol\":9394:9406  _msgSender() */\n      tag_264\n        /* \"constracts/HealthMediToken_flattened.sol\":9394:9404  _msgSender */\n      tag_121\n        /* \"constracts/HealthMediToken_flattened.sol\":9394:9406  _msgSender() */\n      jump\t// in\n    tag_264:\n        /* \"constracts/HealthMediToken_flattened.sol\":9383:9406  owner() != _msgSender() */\n      0xffffffffffffffffffffffffffffffffffffffff\n      and\n        /* \"constracts/HealthMediToken_flattened.sol\":9383:9390  owner() */\n      tag_265\n        /* \"constracts/HealthMediToken_flattened.sol\":9383:9388  owner */\n      tag_87\n        /* \"constracts/HealthMediToken_flattened.sol\":9383:9390  owner() */\n      jump\t// in\n    tag_265:\n        /* \"constracts/HealthMediToken_flattened.sol\":9383:9406  owner() != _msgSender() */\n      0xffffffffffffffffffffffffffffffffffffffff\n      and\n      eq\n        /* \"constracts/HealthMediToken_flattened.sol\":9379:9480  if (owner() != _msgSender()) {... */\n      tag_266\n      jumpi\n        /* \"constracts/HealthMediToken_flattened.sol\":9456:9468  _msgSender() */\n      tag_267\n        /* \"constracts/HealthMediToken_flattened.sol\":9456:9466  _msgSender */\n      tag_121\n        /* \"constracts/HealthMediToken_flattened.sol\":9456:9468  _msgSender() */\n      jump\t// in\n    tag_267:\n        /* \"constracts/HealthMediToken_flattened.sol\":9429:9469  OwnableUnauthorizedAccount(_msgSender()) */\n      mload(0x40)\n      0x118cdaa700000000000000000000000000000000000000000000000000000000\n      dup2\n      mstore\n      0x04\n      add\n      tag_268\n      swap2\n      swap1\n      tag_89\n      jump\t// in\n    tag_268:\n      mload(0x40)\n      dup1\n      swap2\n      sub\n      swap1\n      revert\n        /* \"constracts/HealthMediToken_flattened.sol\":9379:9480  if (owner() != _msgSender()) {... */\n    tag_266:\n        /* \"constracts/HealthMediToken_flattened.sol\":9324:9486  function _checkOwner() internal view virtual {... */\n      jump\t// out\n        /* \"constracts/HealthMediToken_flattened.sol\":13058:13175  function _unpause() internal virtual whenPaused {... */\n    tag_144:\n        /* \"constracts/HealthMediToken_flattened.sol\":12111:12127  _requirePaused() */\n      tag_270\n        /* \"constracts/HealthMediToken_flattened.sol\":12111:12125  _requirePaused */\n      tag_271\n        /* \"constracts/HealthMediToken_flattened.sol\":12111:12127  _requirePaused() */\n      jump\t// in\n    tag_270:\n        /* \"constracts/HealthMediToken_flattened.sol\":13126:13131  false */\n      0x00\n        /* \"constracts/HealthMediToken_flattened.sol\":13116:13123  _paused */\n      0x05\n      0x00\n        /* \"constracts/HealthMediToken_flattened.sol\":13116:13131  _paused = false */\n      0x0100\n      exp\n      dup2\n      sload\n      dup2\n      0xff\n      mul\n      not\n      and\n      swap1\n      dup4\n      iszero\n      iszero\n      mul\n      or\n      swap1\n      sstore\n      pop\n        /* \"constracts/HealthMediToken_flattened.sol\":13146:13168  Unpaused(_msgSender()) */\n      0x5db9ee0a495bf2e6ff9c91a7834c1ba4fdd244a5e8aa4e537bd38aeae4b073aa\n        /* \"constracts/HealthMediToken_flattened.sol\":13155:13167  _msgSender() */\n      tag_273\n        /* \"constracts/HealthMediToken_flattened.sol\":13155:13165  _msgSender */\n      tag_121\n        /* \"constracts/HealthMediToken_flattened.sol\":13155:13167  _msgSender() */\n      jump\t// in\n    tag_273:\n        /* \"constracts/HealthMediToken_flattened.sol\":13146:13168  Unpaused(_msgSender()) */\n      mload(0x40)\n      tag_274\n      swap2\n      swap1\n      tag_89\n      jump\t// in\n    tag_274:\n      mload(0x40)\n      dup1\n      swap2\n      sub\n      swap1\n      log1\n        /* \"constracts/HealthMediToken_flattened.sol\":13058:13175  function _unpause() internal virtual whenPaused {... */\n      jump\t// out\n        /* \"constracts/HealthMediToken_flattened.sol\":24744:24950  function _burn(address account, uint256 value) internal {... */\n    tag_148:\n        /* \"constracts/HealthMediToken_flattened.sol\":24833:24834  0 */\n      0x00\n        /* \"constracts/HealthMediToken_flattened.sol\":24814:24835  account == address(0) */\n      0xffffffffffffffffffffffffffffffffffffffff\n      and\n        /* \"constracts/HealthMediToken_flattened.sol\":24814:24821  account */\n      dup3\n        /* \"constracts/HealthMediToken_flattened.sol\":24814:24835  account == address(0) */\n      0xffffffffffffffffffffffffffffffffffffffff\n      and\n      sub\n        /* \"constracts/HealthMediToken_flattened.sol\":24810:24899  if (account == address(0)) {... */\n      tag_276\n      jumpi\n        /* \"constracts/HealthMediToken_flattened.sol\":24885:24886  0 */\n      0x00\n        /* \"constracts/HealthMediToken_flattened.sol\":24858:24888  ERC20InvalidSender(address(0)) */\n      mload(0x40)\n      0x96c6fd1e00000000000000000000000000000000000000000000000000000000\n      dup2\n      mstore\n      0x04\n      add\n      tag_277\n      swap2\n      swap1\n      tag_89\n      jump\t// in\n    tag_277:\n      mload(0x40)\n      dup1\n      swap2\n      sub\n      swap1\n      revert\n        /* \"constracts/HealthMediToken_flattened.sol\":24810:24899  if (account == address(0)) {... */\n    tag_276:\n        /* \"constracts/HealthMediToken_flattened.sol\":24908:24943  _update(account, address(0), value) */\n      tag_278\n        /* \"constracts/HealthMediToken_flattened.sol\":24916:24923  account */\n      dup3\n        /* \"constracts/HealthMediToken_flattened.sol\":24933:24934  0 */\n      0x00\n        /* \"constracts/HealthMediToken_flattened.sol\":24937:24942  value */\n      dup4\n        /* \"constracts/HealthMediToken_flattened.sol\":24908:24915  _update */\n      tag_262\n        /* \"constracts/HealthMediToken_flattened.sol\":24908:24943  _update(account, address(0), value) */\n      jump\t// in\n    tag_278:\n        /* \"constracts/HealthMediToken_flattened.sol\":24744:24950  function _burn(address account, uint256 value) internal {... */\n      pop\n      pop\n      jump\t// out\n        /* \"constracts/HealthMediToken_flattened.sol\":10440:10627  function _transferOwnership(address newOwner) internal virtual {... */\n    tag_169:\n        /* \"constracts/HealthMediToken_flattened.sol\":10513:10529  address oldOwner */\n      0x00\n        /* \"constracts/HealthMediToken_flattened.sol\":10532:10538  _owner */\n      0x05\n      0x01\n      swap1\n      sload\n      swap1\n      0x0100\n      exp\n      swap1\n      div\n      0xffffffffffffffffffffffffffffffffffffffff\n      and\n        /* \"constracts/HealthMediToken_flattened.sol\":10513:10538  address oldOwner = _owner */\n      swap1\n      pop\n        /* \"constracts/HealthMediToken_flattened.sol\":10557:10565  newOwner */\n      dup2\n        /* \"constracts/HealthMediToken_flattened.sol\":10548:10554  _owner */\n      0x05\n      0x01\n        /* \"constracts/HealthMediToken_flattened.sol\":10548:10565  _owner = newOwner */\n      0x0100\n      exp\n      dup2\n      sload\n      dup2\n      0xffffffffffffffffffffffffffffffffffffffff\n      mul\n      not\n      and\n      swap1\n      dup4\n      0xffffffffffffffffffffffffffffffffffffffff\n      and\n      mul\n      or\n      swap1\n      sstore\n      pop\n        /* \"constracts/HealthMediToken_flattened.sol\":10611:10619  newOwner */\n      dup2\n        /* \"constracts/HealthMediToken_flattened.sol\":10580:10620  OwnershipTransferred(oldOwner, newOwner) */\n      0xffffffffffffffffffffffffffffffffffffffff\n      and\n        /* \"constracts/HealthMediToken_flattened.sol\":10601:10609  oldOwner */\n      dup2\n        /* \"constracts/HealthMediToken_flattened.sol\":10580:10620  OwnershipTransferred(oldOwner, newOwner) */\n      0xffffffffffffffffffffffffffffffffffffffff\n      and\n      0x8be0079c531659141344cd1fd0a4f28419497f9722a3daafe3b4186f6b6457e0\n      mload(0x40)\n      mload(0x40)\n      dup1\n      swap2\n      sub\n      swap1\n      log3\n        /* \"constracts/HealthMediToken_flattened.sol\":10503:10627  {... */\n      pop\n        /* \"constracts/HealthMediToken_flattened.sol\":10440:10627  function _transferOwnership(address newOwner) internal virtual {... */\n      pop\n      jump\t// out\n        /* \"constracts/HealthMediToken_flattened.sol\":12811:12926  function _pause() internal virtual whenNotPaused {... */\n    tag_178:\n        /* \"constracts/HealthMediToken_flattened.sol\":11864:11883  _requireNotPaused() */\n      tag_281\n        /* \"constracts/HealthMediToken_flattened.sol\":11864:11881  _requireNotPaused */\n      tag_282\n        /* \"constracts/HealthMediToken_flattened.sol\":11864:11883  _requireNotPaused() */\n      jump\t// in\n    tag_281:\n        /* \"constracts/HealthMediToken_flattened.sol\":12880:12884  true */\n      0x01\n        /* \"constracts/HealthMediToken_flattened.sol\":12870:12877  _paused */\n      0x05\n      0x00\n        /* \"constracts/HealthMediToken_flattened.sol\":12870:12884  _paused = true */\n      0x0100\n      exp\n      dup2\n      sload\n      dup2\n      0xff\n      mul\n      not\n      and\n      swap1\n      dup4\n      iszero\n      iszero\n      mul\n      or\n      swap1\n      sstore\n      pop\n        /* \"constracts/HealthMediToken_flattened.sol\":12899:12919  Paused(_msgSender()) */\n      0x62e78cea01bee320cd4e420270b5ea74000d11b0c9f74754ebdbfc544b05a258\n        /* \"constracts/HealthMediToken_flattened.sol\":12906:12918  _msgSender() */\n      tag_284\n        /* \"constracts/HealthMediToken_flattened.sol\":12906:12916  _msgSender */\n      tag_121\n        /* \"constracts/HealthMediToken_flattened.sol\":12906:12918  _msgSender() */\n      jump\t// in\n    tag_284:\n        /* \"constracts/HealthMediToken_flattened.sol\":12899:12919  Paused(_msgSender()) */\n      mload(0x40)\n      tag_285\n      swap2\n      swap1\n      tag_89\n      jump\t// in\n    tag_285:\n      mload(0x40)\n      dup1\n      swap2\n      sub\n      swap1\n      log1\n        /* \"constracts/HealthMediToken_flattened.sol\":12811:12926  function _pause() internal virtual whenNotPaused {... */\n      jump\t// out\n        /* \"constracts/HealthMediToken_flattened.sol\":26446:26878  function _approve(address owner, address spender, uint256 value, bool emitEvent) internal virtual {... */\n    tag_248:\n        /* \"constracts/HealthMediToken_flattened.sol\":26575:26576  0 */\n      0x00\n        /* \"constracts/HealthMediToken_flattened.sol\":26558:26577  owner == address(0) */\n      0xffffffffffffffffffffffffffffffffffffffff\n      and\n        /* \"constracts/HealthMediToken_flattened.sol\":26558:26563  owner */\n      dup5\n        /* \"constracts/HealthMediToken_flattened.sol\":26558:26577  owner == address(0) */\n      0xffffffffffffffffffffffffffffffffffffffff\n      and\n      sub\n        /* \"constracts/HealthMediToken_flattened.sol\":26554:26643  if (owner == address(0)) {... */\n      tag_287\n      jumpi\n        /* \"constracts/HealthMediToken_flattened.sol\":26629:26630  0 */\n      0x00\n        /* \"constracts/HealthMediToken_flattened.sol\":26600:26632  ERC20InvalidApprover(address(0)) */\n      mload(0x40)\n      0xe602df0500000000000000000000000000000000000000000000000000000000\n      dup2\n      mstore\n      0x04\n      add\n      tag_288\n      swap2\n      swap1\n      tag_89\n      jump\t// in\n    tag_288:\n      mload(0x40)\n      dup1\n      swap2\n      sub\n      swap1\n      revert\n        /* \"constracts/HealthMediToken_flattened.sol\":26554:26643  if (owner == address(0)) {... */\n    tag_287:\n        /* \"constracts/HealthMediToken_flattened.sol\":26675:26676  0 */\n      0x00\n        /* \"constracts/HealthMediToken_flattened.sol\":26656:26677  spender == address(0) */\n      0xffffffffffffffffffffffffffffffffffffffff\n      and\n        /* \"constracts/HealthMediToken_flattened.sol\":26656:26663  spender */\n      dup4\n        /* \"constracts/HealthMediToken_flattened.sol\":26656:26677  spender == address(0) */\n      0xffffffffffffffffffffffffffffffffffffffff\n      and\n      sub\n        /* \"constracts/HealthMediToken_flattened.sol\":26652:26742  if (spender == address(0)) {... */\n      tag_289\n      jumpi\n        /* \"constracts/HealthMediToken_flattened.sol\":26728:26729  0 */\n      0x00\n        /* \"constracts/HealthMediToken_flattened.sol\":26700:26731  ERC20InvalidSpender(address(0)) */\n      mload(0x40)\n      0x94280d6200000000000000000000000000000000000000000000000000000000\n      dup2\n      mstore\n      0x04\n      add\n      tag_290\n      swap2\n      swap1\n      tag_89\n      jump\t// in\n    tag_290:\n      mload(0x40)\n      dup1\n      swap2\n      sub\n      swap1\n      revert\n        /* \"constracts/HealthMediToken_flattened.sol\":26652:26742  if (spender == address(0)) {... */\n    tag_289:\n        /* \"constracts/HealthMediToken_flattened.sol\":26781:26786  value */\n      dup2\n        /* \"constracts/HealthMediToken_flattened.sol\":26751:26762  _allowances */\n      0x01\n        /* \"constracts/HealthMediToken_flattened.sol\":26751:26769  _allowances[owner] */\n      0x00\n        /* \"constracts/HealthMediToken_flattened.sol\":26763:26768  owner */\n      dup7\n        /* \"constracts/HealthMediToken_flattened.sol\":26751:26769  _allowances[owner] */\n      0xffffffffffffffffffffffffffffffffffffffff\n      and\n      0xffffffffffffffffffffffffffffffffffffffff\n      and\n      dup2\n      mstore\n      0x20\n      add\n      swap1\n      dup2\n      mstore\n      0x20\n      add\n      0x00\n      keccak256\n        /* \"constracts/HealthMediToken_flattened.sol\":26751:26778  _allowances[owner][spender] */\n      0x00\n        /* \"constracts/HealthMediToken_flattened.sol\":26770:26777  spender */\n      dup6\n        /* \"constracts/HealthMediToken_flattened.sol\":26751:26778  _allowances[owner][spender] */\n      0xffffffffffffffffffffffffffffffffffffffff\n      and\n      0xffffffffffffffffffffffffffffffffffffffff\n      and\n      dup2\n      mstore\n      0x20\n      add\n      swap1\n      dup2\n      mstore\n      0x20\n      add\n      0x00\n      keccak256\n        /* \"constracts/HealthMediToken_flattened.sol\":26751:26786  _allowances[owner][spender] = value */\n      dup2\n      swap1\n      sstore\n      pop\n        /* \"constracts/HealthMediToken_flattened.sol\":26800:26809  emitEvent */\n      dup1\n        /* \"constracts/HealthMediToken_flattened.sol\":26796:26872  if (emitEvent) {... */\n      iszero\n      tag_291\n      jumpi\n        /* \"constracts/HealthMediToken_flattened.sol\":26846:26853  spender */\n      dup3\n        /* \"constracts/HealthMediToken_flattened.sol\":26830:26861  Approval(owner, spender, value) */\n      0xffffffffffffffffffffffffffffffffffffffff\n      and\n        /* \"constracts/HealthMediToken_flattened.sol\":26839:26844  owner */\n      dup5\n        /* \"constracts/HealthMediToken_flattened.sol\":26830:26861  Approval(owner, spender, value) */\n      0xffffffffffffffffffffffffffffffffffffffff\n      and\n      0x8c5be1e5ebec7d5bd14f71427d1e84f3dd0314c0f7b2291e5b200ac8c7c3b925\n        /* \"constracts/HealthMediToken_flattened.sol\":26855:26860  value */\n      dup5\n        /* \"constracts/HealthMediToken_flattened.sol\":26830:26861  Approval(owner, spender, value) */\n      mload(0x40)\n      tag_292\n      swap2\n      swap1\n      tag_42\n      jump\t// in\n    tag_292:\n      mload(0x40)\n      dup1\n      swap2\n      sub\n      swap1\n      log3\n        /* \"constracts/HealthMediToken_flattened.sol\":26796:26872  if (emitEvent) {... */\n    tag_291:\n        /* \"constracts/HealthMediToken_flattened.sol\":26446:26878  function _approve(address owner, address spender, uint256 value, bool emitEvent) internal virtual {... */\n      pop\n      pop\n      pop\n      pop\n      jump\t// out\n        /* \"constracts/HealthMediToken_flattened.sol\":29763:30296  function _update(address from, address to, uint256 amount) internal override {... */\n    tag_262:\n        /* \"constracts/HealthMediToken_flattened.sol\":29960:29961  0 */\n      0x00\n        /* \"constracts/HealthMediToken_flattened.sol\":29944:29962  from != address(0) */\n      0xffffffffffffffffffffffffffffffffffffffff\n      and\n        /* \"constracts/HealthMediToken_flattened.sol\":29944:29948  from */\n      dup4\n        /* \"constracts/HealthMediToken_flattened.sol\":29944:29962  from != address(0) */\n      0xffffffffffffffffffffffffffffffffffffffff\n      and\n      eq\n      iszero\n        /* \"constracts/HealthMediToken_flattened.sol\":29944:29982  from != address(0) && to != address(0) */\n      dup1\n      iszero\n      tag_294\n      jumpi\n      pop\n        /* \"constracts/HealthMediToken_flattened.sol\":29980:29981  0 */\n      0x00\n        /* \"constracts/HealthMediToken_flattened.sol\":29966:29982  to != address(0) */\n      0xffffffffffffffffffffffffffffffffffffffff\n      and\n        /* \"constracts/HealthMediToken_flattened.sol\":29966:29968  to */\n      dup3\n        /* \"constracts/HealthMediToken_flattened.sol\":29966:29982  to != address(0) */\n      0xffffffffffffffffffffffffffffffffffffffff\n      and\n      eq\n      iszero\n        /* \"constracts/HealthMediToken_flattened.sol\":29944:29982  from != address(0) && to != address(0) */\n    tag_294:\n        /* \"constracts/HealthMediToken_flattened.sol\":29941:30240  if(from != address(0) && to != address(0)) {... */\n      iszero\n      tag_295\n      jumpi\n        /* \"constracts/HealthMediToken_flattened.sol\":30007:30015  paused() */\n      tag_296\n        /* \"constracts/HealthMediToken_flattened.sol\":30007:30013  paused */\n      tag_67\n        /* \"constracts/HealthMediToken_flattened.sol\":30007:30015  paused() */\n      jump\t// in\n    tag_296:\n        /* \"constracts/HealthMediToken_flattened.sol\":30006:30015  !paused() */\n      iszero\n        /* \"constracts/HealthMediToken_flattened.sol\":30006:30040  !paused() || msg.sender == owner() */\n      dup1\n      tag_297\n      jumpi\n      pop\n        /* \"constracts/HealthMediToken_flattened.sol\":30033:30040  owner() */\n      tag_298\n        /* \"constracts/HealthMediToken_flattened.sol\":30033:30038  owner */\n      tag_87\n        /* \"constracts/HealthMediToken_flattened.sol\":30033:30040  owner() */\n      jump\t// in\n    tag_298:\n        /* \"constracts/HealthMediToken_flattened.sol\":30019:30040  msg.sender == owner() */\n      0xffffffffffffffffffffffffffffffffffffffff\n      and\n        /* \"constracts/HealthMediToken_flattened.sol\":30019:30029  msg.sender */\n      caller\n        /* \"constracts/HealthMediToken_flattened.sol\":30019:30040  msg.sender == owner() */\n      0xffffffffffffffffffffffffffffffffffffffff\n      and\n      eq\n        /* \"constracts/HealthMediToken_flattened.sol\":30006:30040  !paused() || msg.sender == owner() */\n    tag_297:\n        /* \"constracts/HealthMediToken_flattened.sol\":29998:30072  require(!paused() || msg.sender == owner(), \"Token transfer while paused\") */\n      tag_299\n      jumpi\n      mload(0x40)\n      0x08c379a000000000000000000000000000000000000000000000000000000000\n      dup2\n      mstore\n      0x04\n      add\n      tag_300\n      swap1\n      tag_301\n      jump\t// in\n    tag_300:\n      mload(0x40)\n      dup1\n      swap2\n      sub\n      swap1\n      revert\n    tag_299:\n        /* \"constracts/HealthMediToken_flattened.sol\":30145:30169  _checkLock(from, amount) */\n      tag_302\n        /* \"constracts/HealthMediToken_flattened.sol\":30156:30160  from */\n      dup4\n        /* \"constracts/HealthMediToken_flattened.sol\":30162:30168  amount */\n      dup3\n        /* \"constracts/HealthMediToken_flattened.sol\":30145:30155  _checkLock */\n      tag_303\n        /* \"constracts/HealthMediToken_flattened.sol\":30145:30169  _checkLock(from, amount) */\n      jump\t// in\n    tag_302:\n        /* \"constracts/HealthMediToken_flattened.sol\":30137:30229  require(_checkLock(from, amount), \"ERC20Lockable: transfer amount exceeds unlocked balance\") */\n      tag_304\n      jumpi\n      mload(0x40)\n      0x08c379a000000000000000000000000000000000000000000000000000000000\n      dup2\n      mstore\n      0x04\n      add\n      tag_305\n      swap1\n      tag_306\n      jump\t// in\n    tag_305:\n      mload(0x40)\n      dup1\n      swap2\n      sub\n      swap1\n      revert\n    tag_304:\n        /* \"constracts/HealthMediToken_flattened.sol\":29941:30240  if(from != address(0) && to != address(0)) {... */\n    tag_295:\n        /* \"constracts/HealthMediToken_flattened.sol\":30258:30289  super._update(from, to, amount) */\n      tag_307\n        /* \"constracts/HealthMediToken_flattened.sol\":30272:30276  from */\n      dup4\n        /* \"constracts/HealthMediToken_flattened.sol\":30278:30280  to */\n      dup4\n        /* \"constracts/HealthMediToken_flattened.sol\":30282:30288  amount */\n      dup4\n        /* \"constracts/HealthMediToken_flattened.sol\":30258:30271  super._update */\n      tag_308\n        /* \"constracts/HealthMediToken_flattened.sol\":30258:30289  super._update(from, to, amount) */\n      jump\t// in\n    tag_307:\n        /* \"constracts/HealthMediToken_flattened.sol\":29763:30296  function _update(address from, address to, uint256 amount) internal override {... */\n      pop\n      pop\n      pop\n      jump\t// out\n        /* \"constracts/HealthMediToken_flattened.sol\":12570:12676  function _requirePaused() internal view virtual {... */\n    tag_271:\n        /* \"constracts/HealthMediToken_flattened.sol\":12636:12644  paused() */\n      tag_310\n        /* \"constracts/HealthMediToken_flattened.sol\":12636:12642  paused */\n      tag_67\n        /* \"constracts/HealthMediToken_flattened.sol\":12636:12644  paused() */\n      jump\t// in\n    tag_310:\n        /* \"constracts/HealthMediToken_flattened.sol\":12628:12669  require(paused(), \"Pausable: not paused\") */\n      tag_311\n      jumpi\n      mload(0x40)\n      0x08c379a000000000000000000000000000000000000000000000000000000000\n      dup2\n      mstore\n      0x04\n      add\n      tag_312\n      swap1\n      tag_313\n      jump\t// in\n    tag_312:\n      mload(0x40)\n      dup1\n      swap2\n      sub\n      swap1\n      revert\n    tag_311:\n        /* \"constracts/HealthMediToken_flattened.sol\":12570:12676  function _requirePaused() internal view virtual {... */\n      jump\t// out\n        /* \"constracts/HealthMediToken_flattened.sol\":12392:12498  function _requireNotPaused() internal view virtual {... */\n    tag_282:\n        /* \"constracts/HealthMediToken_flattened.sol\":12462:12470  paused() */\n      tag_315\n        /* \"constracts/HealthMediToken_flattened.sol\":12462:12468  paused */\n      tag_67\n        /* \"constracts/HealthMediToken_flattened.sol\":12462:12470  paused() */\n      jump\t// in\n    tag_315:\n        /* \"constracts/HealthMediToken_flattened.sol\":12461:12470  !paused() */\n      iszero\n        /* \"constracts/HealthMediToken_flattened.sol\":12453:12491  require(!paused(), \"Pausable: paused\") */\n      tag_316\n      jumpi\n      mload(0x40)\n      0x08c379a000000000000000000000000000000000000000000000000000000000\n      dup2\n      mstore\n      0x04\n      add\n      tag_317\n      swap1\n      tag_318\n      jump\t// in\n    tag_317:\n      mload(0x40)\n      dup1\n      swap2\n      sub\n      swap1\n      revert\n    tag_316:\n        /* \"constracts/HealthMediToken_flattened.sol\":12392:12498  function _requireNotPaused() internal view virtual {... */\n      jump\t// out\n        /* \"constracts/HealthMediToken_flattened.sol\":31877:32445  function _checkLock(address from, uint256 amount) private view returns (bool) {... */\n    tag_303:\n        /* \"constracts/HealthMediToken_flattened.sol\":31949:31953  bool */\n      0x00\n        /* \"constracts/HealthMediToken_flattened.sol\":31965:31985  uint256 lockedAmount */\n      dup1\n        /* \"constracts/HealthMediToken_flattened.sol\":31988:31989  0 */\n      0x00\n        /* \"constracts/HealthMediToken_flattened.sol\":31965:31989  uint256 lockedAmount = 0 */\n      swap1\n      pop\n        /* \"constracts/HealthMediToken_flattened.sol\":32093:32102  uint256 i */\n      0x00\n        /* \"constracts/HealthMediToken_flattened.sol\":32088:32284  for (uint256 i = 0; i < _locks[from].length; i++) {... */\n    tag_320:\n        /* \"constracts/HealthMediToken_flattened.sol\":32112:32118  _locks */\n      0x07\n        /* \"constracts/HealthMediToken_flattened.sol\":32112:32124  _locks[from] */\n      0x00\n        /* \"constracts/HealthMediToken_flattened.sol\":32119:32123  from */\n      dup7\n        /* \"constracts/HealthMediToken_flattened.sol\":32112:32124  _locks[from] */\n      0xffffffffffffffffffffffffffffffffffffffff\n      and\n      0xffffffffffffffffffffffffffffffffffffffff\n      and\n      dup2\n      mstore\n      0x20\n      add\n      swap1\n      dup2\n      mstore\n      0x20\n      add\n      0x00\n      keccak256\n        /* \"constracts/HealthMediToken_flattened.sol\":32112:32131  _locks[from].length */\n      dup1\n      sload\n      swap1\n      pop\n        /* \"constracts/HealthMediToken_flattened.sol\":32108:32109  i */\n      dup2\n        /* \"constracts/HealthMediToken_flattened.sol\":32108:32131  i < _locks[from].length */\n      lt\n        /* \"constracts/HealthMediToken_flattened.sol\":32088:32284  for (uint256 i = 0; i < _locks[from].length; i++) {... */\n      iszero\n      tag_321\n      jumpi\n        /* \"constracts/HealthMediToken_flattened.sol\":32186:32201  block.timestamp */\n      timestamp\n        /* \"constracts/HealthMediToken_flattened.sol\":32156:32162  _locks */\n      0x07\n        /* \"constracts/HealthMediToken_flattened.sol\":32156:32168  _locks[from] */\n      0x00\n        /* \"constracts/HealthMediToken_flattened.sol\":32163:32167  from */\n      dup8\n        /* \"constracts/HealthMediToken_flattened.sol\":32156:32168  _locks[from] */\n      0xffffffffffffffffffffffffffffffffffffffff\n      and\n      0xffffffffffffffffffffffffffffffffffffffff\n      and\n      dup2\n      mstore\n      0x20\n      add\n      swap1\n      dup2\n      mstore\n      0x20\n      add\n      0x00\n      keccak256\n        /* \"constracts/HealthMediToken_flattened.sol\":32169:32170  i */\n      dup3\n        /* \"constracts/HealthMediToken_flattened.sol\":32156:32171  _locks[from][i] */\n      dup2\n      sload\n      dup2\n      lt\n      tag_323\n      jumpi\n      tag_324\n      tag_192\n      jump\t// in\n    tag_324:\n    tag_323:\n      swap1\n      0x00\n      mstore\n      keccak256(0x00, 0x20)\n      swap1\n      0x02\n      mul\n      add\n        /* \"constracts/HealthMediToken_flattened.sol\":32156:32183  _locks[from][i].releaseTime */\n      0x01\n      add\n      sload\n        /* \"constracts/HealthMediToken_flattened.sol\":32156:32201  _locks[from][i].releaseTime > block.timestamp */\n      gt\n        /* \"constracts/HealthMediToken_flattened.sol\":32152:32274  if (_locks[from][i].releaseTime > block.timestamp) {... */\n      iszero\n      tag_326\n      jumpi\n        /* \"constracts/HealthMediToken_flattened.sol\":32237:32243  _locks */\n      0x07\n        /* \"constracts/HealthMediToken_flattened.sol\":32237:32249  _locks[from] */\n      0x00\n        /* \"constracts/HealthMediToken_flattened.sol\":32244:32248  from */\n      dup7\n        /* \"constracts/HealthMediToken_flattened.sol\":32237:32249  _locks[from] */\n      0xffffffffffffffffffffffffffffffffffffffff\n      and\n      0xffffffffffffffffffffffffffffffffffffffff\n      and\n      dup2\n      mstore\n      0x20\n      add\n      swap1\n      dup2\n      mstore\n      0x20\n      add\n      0x00\n      keccak256\n        /* \"constracts/HealthMediToken_flattened.sol\":32250:32251  i */\n      dup2\n        /* \"constracts/HealthMediToken_flattened.sol\":32237:32252  _locks[from][i] */\n      dup2\n      sload\n      dup2\n      lt\n      tag_327\n      jumpi\n      tag_328\n      tag_192\n      jump\t// in\n    tag_328:\n    tag_327:\n      swap1\n      0x00\n      mstore\n      keccak256(0x00, 0x20)\n      swap1\n      0x02\n      mul\n      add\n        /* \"constracts/HealthMediToken_flattened.sol\":32237:32259  _locks[from][i].amount */\n      0x00\n      add\n      sload\n        /* \"constracts/HealthMediToken_flattened.sol\":32221:32259  lockedAmount += _locks[from][i].amount */\n      dup3\n      tag_330\n      swap2\n      swap1\n      tag_139\n      jump\t// in\n    tag_330:\n      swap2\n      pop\n        /* \"constracts/HealthMediToken_flattened.sol\":32152:32274  if (_locks[from][i].releaseTime > block.timestamp) {... */\n    tag_326:\n        /* \"constracts/HealthMediToken_flattened.sol\":32133:32136  i++ */\n      dup1\n      dup1\n      0x01\n      add\n      swap2\n      pop\n      pop\n        /* \"constracts/HealthMediToken_flattened.sol\":32088:32284  for (uint256 i = 0; i < _locks[from].length; i++) {... */\n      jump(tag_320)\n    tag_321:\n      pop\n        /* \"constracts/HealthMediToken_flattened.sol\":32432:32438  amount */\n      dup3\n        /* \"constracts/HealthMediToken_flattened.sol\":32416:32428  lockedAmount */\n      dup2\n        /* \"constracts/HealthMediToken_flattened.sol\":32398:32413  balanceOf(from) */\n      tag_331\n        /* \"constracts/HealthMediToken_flattened.sol\":32408:32412  from */\n      dup7\n        /* \"constracts/HealthMediToken_flattened.sol\":32398:32407  balanceOf */\n      tag_74\n        /* \"constracts/HealthMediToken_flattened.sol\":32398:32413  balanceOf(from) */\n      jump\t// in\n    tag_331:\n        /* \"constracts/HealthMediToken_flattened.sol\":32398:32428  balanceOf(from) - lockedAmount */\n      tag_332\n      swap2\n      swap1\n      tag_221\n      jump\t// in\n    tag_332:\n        /* \"constracts/HealthMediToken_flattened.sol\":32398:32438  balanceOf(from) - lockedAmount >= amount */\n      lt\n      iszero\n        /* \"constracts/HealthMediToken_flattened.sol\":32391:32438  return balanceOf(from) - lockedAmount >= amount */\n      swap2\n      pop\n      pop\n        /* \"constracts/HealthMediToken_flattened.sol\":31877:32445  function _checkLock(address from, uint256 amount) private view returns (bool) {... */\n      swap3\n      swap2\n      pop\n      pop\n      jump\t// out\n        /* \"constracts/HealthMediToken_flattened.sol\":22768:23875  function _update(address from, address to, uint256 value) internal virtual {... */\n    tag_308:\n        /* \"constracts/HealthMediToken_flattened.sol\":22873:22874  0 */\n      0x00\n        /* \"constracts/HealthMediToken_flattened.sol\":22857:22875  from == address(0) */\n      0xffffffffffffffffffffffffffffffffffffffff\n      and\n        /* \"constracts/HealthMediToken_flattened.sol\":22857:22861  from */\n      dup4\n        /* \"constracts/HealthMediToken_flattened.sol\":22857:22875  from == address(0) */\n      0xffffffffffffffffffffffffffffffffffffffff\n      and\n      sub\n        /* \"constracts/HealthMediToken_flattened.sol\":22853:23393  if (from == address(0)) {... */\n      tag_334\n      jumpi\n        /* \"constracts/HealthMediToken_flattened.sol\":23009:23014  value */\n      dup1\n        /* \"constracts/HealthMediToken_flattened.sol\":22993:23005  _totalSupply */\n      0x02\n      0x00\n        /* \"constracts/HealthMediToken_flattened.sol\":22993:23014  _totalSupply += value */\n      dup3\n      dup3\n      sload\n      tag_335\n      swap2\n      swap1\n      tag_139\n      jump\t// in\n    tag_335:\n      swap3\n      pop\n      pop\n      dup2\n      swap1\n      sstore\n      pop\n        /* \"constracts/HealthMediToken_flattened.sol\":22853:23393  if (from == address(0)) {... */\n      jump(tag_336)\n    tag_334:\n        /* \"constracts/HealthMediToken_flattened.sol\":23045:23064  uint256 fromBalance */\n      0x00\n        /* \"constracts/HealthMediToken_flattened.sol\":23067:23076  _balances */\n      dup1\n        /* \"constracts/HealthMediToken_flattened.sol\":23067:23082  _balances[from] */\n      0x00\n        /* \"constracts/HealthMediToken_flattened.sol\":23077:23081  from */\n      dup6\n        /* \"constracts/HealthMediToken_flattened.sol\":23067:23082  _balances[from] */\n      0xffffffffffffffffffffffffffffffffffffffff\n      and\n      0xffffffffffffffffffffffffffffffffffffffff\n      and\n      dup2\n      mstore\n      0x20\n      add\n      swap1\n      dup2\n      mstore\n      0x20\n      add\n      0x00\n      keccak256\n      sload\n        /* \"constracts/HealthMediToken_flattened.sol\":23045:23082  uint256 fromBalance = _balances[from] */\n      swap1\n      pop\n        /* \"constracts/HealthMediToken_flattened.sol\":23114:23119  value */\n      dup2\n        /* \"constracts/HealthMediToken_flattened.sol\":23100:23111  fromBalance */\n      dup2\n        /* \"constracts/HealthMediToken_flattened.sol\":23100:23119  fromBalance < value */\n      lt\n        /* \"constracts/HealthMediToken_flattened.sol\":23096:23211  if (fromBalance < value) {... */\n      iszero\n      tag_337\n      jumpi\n        /* \"constracts/HealthMediToken_flattened.sol\":23171:23175  from */\n      dup4\n        /* \"constracts/HealthMediToken_flattened.sol\":23177:23188  fromBalance */\n      dup2\n        /* \"constracts/HealthMediToken_flattened.sol\":23190:23195  value */\n      dup4\n        /* \"constracts/HealthMediToken_flattened.sol\":23146:23196  ERC20InsufficientBalance(from, fromBalance, value) */\n      mload(0x40)\n      0xe450d38c00000000000000000000000000000000000000000000000000000000\n      dup2\n      mstore\n      0x04\n      add\n      tag_338\n      swap4\n      swap3\n      swap2\n      swap1\n      tag_254\n      jump\t// in\n    tag_338:\n      mload(0x40)\n      dup1\n      swap2\n      sub\n      swap1\n      revert\n        /* \"constracts/HealthMediToken_flattened.sol\":23096:23211  if (fromBalance < value) {... */\n    tag_337:\n        /* \"constracts/HealthMediToken_flattened.sol\":23363:23368  value */\n      dup2\n        /* \"constracts/HealthMediToken_flattened.sol\":23349:23360  fromBalance */\n      dup2\n        /* \"constracts/HealthMediToken_flattened.sol\":23349:23368  fromBalance - value */\n      sub\n        /* \"constracts/HealthMediToken_flattened.sol\":23331:23340  _balances */\n      0x00\n        /* \"constracts/HealthMediToken_flattened.sol\":23331:23346  _balances[from] */\n      dup1\n        /* \"constracts/HealthMediToken_flattened.sol\":23341:23345  from */\n      dup7\n        /* \"constracts/HealthMediToken_flattened.sol\":23331:23346  _balances[from] */\n      0xffffffffffffffffffffffffffffffffffffffff\n      and\n      0xffffffffffffffffffffffffffffffffffffffff\n      and\n      dup2\n      mstore\n      0x20\n      add\n      swap1\n      dup2\n      mstore\n      0x20\n      add\n      0x00\n      keccak256\n        /* \"constracts/HealthMediToken_flattened.sol\":23331:23368  _balances[from] = fromBalance - value */\n      dup2\n      swap1\n      sstore\n      pop\n        /* \"constracts/HealthMediToken_flattened.sol\":23031:23393  {... */\n      pop\n        /* \"constracts/HealthMediToken_flattened.sol\":22853:23393  if (from == address(0)) {... */\n    tag_336:\n        /* \"constracts/HealthMediToken_flattened.sol\":23421:23422  0 */\n      0x00\n        /* \"constracts/HealthMediToken_flattened.sol\":23407:23423  to == address(0) */\n      0xffffffffffffffffffffffffffffffffffffffff\n      and\n        /* \"constracts/HealthMediToken_flattened.sol\":23407:23409  to */\n      dup3\n        /* \"constracts/HealthMediToken_flattened.sol\":23407:23423  to == address(0) */\n      0xffffffffffffffffffffffffffffffffffffffff\n      and\n      sub\n        /* \"constracts/HealthMediToken_flattened.sol\":23403:23828  if (to == address(0)) {... */\n      tag_339\n      jumpi\n        /* \"constracts/HealthMediToken_flattened.sol\":23586:23591  value */\n      dup1\n        /* \"constracts/HealthMediToken_flattened.sol\":23570:23582  _totalSupply */\n      0x02\n      0x00\n        /* \"constracts/HealthMediToken_flattened.sol\":23570:23591  _totalSupply -= value */\n      dup3\n      dup3\n      sload\n      sub\n      swap3\n      pop\n      pop\n      dup2\n      swap1\n      sstore\n      pop\n        /* \"constracts/HealthMediToken_flattened.sol\":23403:23828  if (to == address(0)) {... */\n      jump(tag_340)\n    tag_339:\n        /* \"constracts/HealthMediToken_flattened.sol\":23798:23803  value */\n      dup1\n        /* \"constracts/HealthMediToken_flattened.sol\":23781:23790  _balances */\n      0x00\n        /* \"constracts/HealthMediToken_flattened.sol\":23781:23794  _balances[to] */\n      dup1\n        /* \"constracts/HealthMediToken_flattened.sol\":23791:23793  to */\n      dup5\n        /* \"constracts/HealthMediToken_flattened.sol\":23781:23794  _balances[to] */\n      0xffffffffffffffffffffffffffffffffffffffff\n      and\n      0xffffffffffffffffffffffffffffffffffffffff\n      and\n      dup2\n      mstore\n      0x20\n      add\n      swap1\n      dup2\n      mstore\n      0x20\n      add\n      0x00\n      keccak256\n      0x00\n        /* \"constracts/HealthMediToken_flattened.sol\":23781:23803  _balances[to] += value */\n      dup3\n      dup3\n      sload\n      add\n      swap3\n      pop\n      pop\n      dup2\n      swap1\n      sstore\n      pop\n        /* \"constracts/HealthMediToken_flattened.sol\":23403:23828  if (to == address(0)) {... */\n    tag_340:\n        /* \"constracts/HealthMediToken_flattened.sol\":23858:23860  to */\n      dup2\n        /* \"constracts/HealthMediToken_flattened.sol\":23843:23868  Transfer(from, to, value) */\n      0xffffffffffffffffffffffffffffffffffffffff\n      and\n        /* \"constracts/HealthMediToken_flattened.sol\":23852:23856  from */\n      dup4\n        /* \"constracts/HealthMediToken_flattened.sol\":23843:23868  Transfer(from, to, value) */\n      0xffffffffffffffffffffffffffffffffffffffff\n      and\n      0xddf252ad1be2c89b69c2b068fc378daa952ba7f163c4a11628f55a4df523b3ef\n        /* \"constracts/HealthMediToken_flattened.sol\":23862:23867  value */\n      dup4\n        /* \"constracts/HealthMediToken_flattened.sol\":23843:23868  Transfer(from, to, value) */\n      mload(0x40)\n      tag_341\n      swap2\n      swap1\n      tag_42\n      jump\t// in\n    tag_341:\n      mload(0x40)\n      dup1\n      swap2\n      sub\n      swap1\n      log3\n        /* \"constracts/HealthMediToken_flattened.sol\":22768:23875  function _update(address from, address to, uint256 value) internal virtual {... */\n      pop\n      pop\n      pop\n      jump\t// out\n        /* \"#utility.yul\":7:106   */\n    tag_342:\n        /* \"#utility.yul\":59:65   */\n      0x00\n        /* \"#utility.yul\":93:98   */\n      dup2\n        /* \"#utility.yul\":87:99   */\n      mload\n        /* \"#utility.yul\":77:99   */\n      swap1\n      pop\n        /* \"#utility.yul\":7:106   */\n      swap2\n      swap1\n      pop\n      jump\t// out\n        /* \"#utility.yul\":112:281   */\n    tag_343:\n        /* \"#utility.yul\":196:207   */\n      0x00\n        /* \"#utility.yul\":230:236   */\n      dup3\n        /* \"#utility.yul\":225:228   */\n      dup3\n        /* \"#utility.yul\":218:237   */\n      mstore\n        /* \"#utility.yul\":270:274   */\n      0x20\n        /* \"#utility.yul\":265:268   */\n      dup3\n        /* \"#utility.yul\":261:275   */\n      add\n        /* \"#utility.yul\":246:275   */\n      swap1\n      pop\n        /* \"#utility.yul\":112:281   */\n      swap3\n      swap2\n      pop\n      pop\n      jump\t// out\n        /* \"#utility.yul\":287:533   */\n    tag_344:\n        /* \"#utility.yul\":368:369   */\n      0x00\n        /* \"#utility.yul\":378:491   */\n    tag_383:\n        /* \"#utility.yul\":392:398   */\n      dup4\n        /* \"#utility.yul\":389:390   */\n      dup2\n        /* \"#utility.yul\":386:399   */\n      lt\n        /* \"#utility.yul\":378:491   */\n      iszero\n      tag_385\n      jumpi\n        /* \"#utility.yul\":477:478   */\n      dup1\n        /* \"#utility.yul\":472:475   */\n      dup3\n        /* \"#utility.yul\":468:479   */\n      add\n        /* \"#utility.yul\":462:480   */\n      mload\n        /* \"#utility.yul\":458:459   */\n      dup2\n        /* \"#utility.yul\":453:456   */\n      dup5\n        /* \"#utility.yul\":449:460   */\n      add\n        /* \"#utility.yul\":442:481   */\n      mstore\n        /* \"#utility.yul\":414:416   */\n      0x20\n        /* \"#utility.yul\":411:412   */\n      dup2\n        /* \"#utility.yul\":407:417   */\n      add\n        /* \"#utility.yul\":402:417   */\n      swap1\n      pop\n        /* \"#utility.yul\":378:491   */\n      jump(tag_383)\n    tag_385:\n        /* \"#utility.yul\":525:526   */\n      0x00\n        /* \"#utility.yul\":516:522   */\n      dup5\n        /* \"#utility.yul\":511:514   */\n      dup5\n        /* \"#utility.yul\":507:523   */\n      add\n        /* \"#utility.yul\":500:527   */\n      mstore\n        /* \"#utility.yul\":349:533   */\n      pop\n        /* \"#utility.yul\":287:533   */\n      pop\n      pop\n      pop\n      jump\t// out\n        /* \"#utility.yul\":539:641   */\n    tag_345:\n        /* \"#utility.yul\":580:586   */\n      0x00\n        /* \"#utility.yul\":631:633   */\n      0x1f\n        /* \"#utility.yul\":627:634   */\n      not\n        /* \"#utility.yul\":622:624   */\n      0x1f\n        /* \"#utility.yul\":615:620   */\n      dup4\n        /* \"#utility.yul\":611:625   */\n      add\n        /* \"#utility.yul\":607:635   */\n      and\n        /* \"#utility.yul\":597:635   */\n      swap1\n      pop\n        /* \"#utility.yul\":539:641   */\n      swap2\n      swap1\n      pop\n      jump\t// out\n        /* \"#utility.yul\":647:1024   */\n    tag_346:\n        /* \"#utility.yul\":735:738   */\n      0x00\n        /* \"#utility.yul\":763:802   */\n      tag_388\n        /* \"#utility.yul\":796:801   */\n      dup3\n        /* \"#utility.yul\":763:802   */\n      tag_342\n      jump\t// in\n    tag_388:\n        /* \"#utility.yul\":818:889   */\n      tag_389\n        /* \"#utility.yul\":882:888   */\n      dup2\n        /* \"#utility.yul\":877:880   */\n      dup6\n        /* \"#utility.yul\":818:889   */\n      tag_343\n      jump\t// in\n    tag_389:\n        /* \"#utility.yul\":811:889   */\n      swap4\n      pop\n        /* \"#utility.yul\":898:963   */\n      tag_390\n        /* \"#utility.yul\":956:962   */\n      dup2\n        /* \"#utility.yul\":951:954   */\n      dup6\n        /* \"#utility.yul\":944:948   */\n      0x20\n        /* \"#utility.yul\":937:942   */\n      dup7\n        /* \"#utility.yul\":933:949   */\n      add\n        /* \"#utility.yul\":898:963   */\n      tag_344\n      jump\t// in\n    tag_390:\n        /* \"#utility.yul\":988:1017   */\n      tag_391\n        /* \"#utility.yul\":1010:1016   */\n      dup2\n        /* \"#utility.yul\":988:1017   */\n      tag_345\n      jump\t// in\n    tag_391:\n        /* \"#utility.yul\":983:986   */\n      dup5\n        /* \"#utility.yul\":979:1018   */\n      add\n        /* \"#utility.yul\":972:1018   */\n      swap2\n      pop\n        /* \"#utility.yul\":739:1024   */\n      pop\n        /* \"#utility.yul\":647:1024   */\n      swap3\n      swap2\n      pop\n      pop\n      jump\t// out\n        /* \"#utility.yul\":1030:1343   */\n    tag_32:\n        /* \"#utility.yul\":1143:1147   */\n      0x00\n        /* \"#utility.yul\":1181:1183   */\n      0x20\n        /* \"#utility.yul\":1170:1179   */\n      dup3\n        /* \"#utility.yul\":1166:1184   */\n      add\n        /* \"#utility.yul\":1158:1184   */\n      swap1\n      pop\n        /* \"#utility.yul\":1230:1239   */\n      dup2\n        /* \"#utility.yul\":1224:1228   */\n      dup2\n        /* \"#utility.yul\":1220:1240   */\n      sub\n        /* \"#utility.yul\":1216:1217   */\n      0x00\n        /* \"#utility.yul\":1205:1214   */\n      dup4\n        /* \"#utility.yul\":1201:1218   */\n      add\n        /* \"#utility.yul\":1194:1241   */\n      mstore\n        /* \"#utility.yul\":1258:1336   */\n      tag_393\n        /* \"#utility.yul\":1331:1335   */\n      dup2\n        /* \"#utility.yul\":1322:1328   */\n      dup5\n        /* \"#utility.yul\":1258:1336   */\n      tag_346\n      jump\t// in\n    tag_393:\n        /* \"#utility.yul\":1250:1336   */\n      swap1\n      pop\n        /* \"#utility.yul\":1030:1343   */\n      swap3\n      swap2\n      pop\n      pop\n      jump\t// out\n        /* \"#utility.yul\":1430:1547   */\n    tag_348:\n        /* \"#utility.yul\":1539:1540   */\n      0x00\n        /* \"#utility.yul\":1536:1537   */\n      dup1\n        /* \"#utility.yul\":1529:1541   */\n      revert\n        /* \"#utility.yul\":1676:1802   */\n    tag_350:\n        /* \"#utility.yul\":1713:1720   */\n      0x00\n        /* \"#utility.yul\":1753:1795   */\n      0xffffffffffffffffffffffffffffffffffffffff\n        /* \"#utility.yul\":1746:1751   */\n      dup3\n        /* \"#utility.yul\":1742:1796   */\n      and\n        /* \"#utility.yul\":1731:1796   */\n      swap1\n      pop\n        /* \"#utility.yul\":1676:1802   */\n      swap2\n      swap1\n      pop\n      jump\t// out\n        /* \"#utility.yul\":1808:1904   */\n    tag_351:\n        /* \"#utility.yul\":1845:1852   */\n      0x00\n        /* \"#utility.yul\":1874:1898   */\n      tag_399\n        /* \"#utility.yul\":1892:1897   */\n      dup3\n        /* \"#utility.yul\":1874:1898   */\n      tag_350\n      jump\t// in\n    tag_399:\n        /* \"#utility.yul\":1863:1898   */\n      swap1\n      pop\n        /* \"#utility.yul\":1808:1904   */\n      swap2\n      swap1\n      pop\n      jump\t// out\n        /* \"#utility.yul\":1910:2032   */\n    tag_352:\n        /* \"#utility.yul\":1983:2007   */\n      tag_401\n        /* \"#utility.yul\":2001:2006   */\n      dup2\n        /* \"#utility.yul\":1983:2007   */\n      tag_351\n      jump\t// in\n    tag_401:\n        /* \"#utility.yul\":1976:1981   */\n      dup2\n        /* \"#utility.yul\":1973:2008   */\n      eq\n        /* \"#utility.yul\":1963:2026   */\n      tag_402\n      jumpi\n        /* \"#utility.yul\":2022:2023   */\n      0x00\n        /* \"#utility.yul\":2019:2020   */\n      dup1\n        /* \"#utility.yul\":2012:2024   */\n      revert\n        /* \"#utility.yul\":1963:2026   */\n    tag_402:\n        /* \"#utility.yul\":1910:2032   */\n      pop\n      jump\t// out\n        /* \"#utility.yul\":2038:2177   */\n    tag_353:\n        /* \"#utility.yul\":2084:2089   */\n      0x00\n        /* \"#utility.yul\":2122:2128   */\n      dup2\n        /* \"#utility.yul\":2109:2129   */\n      calldataload\n        /* \"#utility.yul\":2100:2129   */\n      swap1\n      pop\n        /* \"#utility.yul\":2138:2171   */\n      tag_404\n        /* \"#utility.yul\":2165:2170   */\n      dup2\n        /* \"#utility.yul\":2138:2171   */\n      tag_352\n      jump\t// in\n    tag_404:\n        /* \"#utility.yul\":2038:2177   */\n      swap3\n      swap2\n      pop\n      pop\n      jump\t// out\n        /* \"#utility.yul\":2183:2260   */\n    tag_354:\n        /* \"#utility.yul\":2220:2227   */\n      0x00\n        /* \"#utility.yul\":2249:2254   */\n      dup2\n        /* \"#utility.yul\":2238:2254   */\n      swap1\n      pop\n        /* \"#utility.yul\":2183:2260   */\n      swap2\n      swap1\n      pop\n      jump\t// out\n        /* \"#utility.yul\":2266:2388   */\n    tag_355:\n        /* \"#utility.yul\":2339:2363   */\n      tag_407\n        /* \"#utility.yul\":2357:2362   */\n      dup2\n        /* \"#utility.yul\":2339:2363   */\n      tag_354\n      jump\t// in\n    tag_407:\n        /* \"#utility.yul\":2332:2337   */\n      dup2\n        /* \"#utility.yul\":2329:2364   */\n      eq\n        /* \"#utility.yul\":2319:2382   */\n      tag_408\n      jumpi\n        /* \"#utility.yul\":2378:2379   */\n      0x00\n        /* \"#utility.yul\":2375:2376   */\n      dup1\n        /* \"#utility.yul\":2368:2380   */\n      revert\n        /* \"#utility.yul\":2319:2382   */\n    tag_408:\n        /* \"#utility.yul\":2266:2388   */\n      pop\n      jump\t// out\n        /* \"#utility.yul\":2394:2533   */\n    tag_356:\n        /* \"#utility.yul\":2440:2445   */\n      0x00\n        /* \"#utility.yul\":2478:2484   */\n      dup2\n        /* \"#utility.yul\":2465:2485   */\n      calldataload\n        /* \"#utility.yul\":2456:2485   */\n      swap1\n      pop\n        /* \"#utility.yul\":2494:2527   */\n      tag_410\n        /* \"#utility.yul\":2521:2526   */\n      dup2\n        /* \"#utility.yul\":2494:2527   */\n      tag_355\n      jump\t// in\n    tag_410:\n        /* \"#utility.yul\":2394:2533   */\n      swap3\n      swap2\n      pop\n      pop\n      jump\t// out\n        /* \"#utility.yul\":2539:3013   */\n    tag_35:\n        /* \"#utility.yul\":2607:2613   */\n      0x00\n        /* \"#utility.yul\":2615:2621   */\n      dup1\n        /* \"#utility.yul\":2664:2666   */\n      0x40\n        /* \"#utility.yul\":2652:2661   */\n      dup4\n        /* \"#utility.yul\":2643:2650   */\n      dup6\n        /* \"#utility.yul\":2639:2662   */\n      sub\n        /* \"#utility.yul\":2635:2667   */\n      slt\n        /* \"#utility.yul\":2632:2751   */\n      iszero\n      tag_412\n      jumpi\n        /* \"#utility.yul\":2670:2749   */\n      tag_413\n      tag_348\n      jump\t// in\n    tag_413:\n        /* \"#utility.yul\":2632:2751   */\n    tag_412:\n        /* \"#utility.yul\":2790:2791   */\n      0x00\n        /* \"#utility.yul\":2815:2868   */\n      tag_414\n        /* \"#utility.yul\":2860:2867   */\n      dup6\n        /* \"#utility.yul\":2851:2857   */\n      dup3\n        /* \"#utility.yul\":2840:2849   */\n      dup7\n        /* \"#utility.yul\":2836:2858   */\n      add\n        /* \"#utility.yul\":2815:2868   */\n      tag_353\n      jump\t// in\n    tag_414:\n        /* \"#utility.yul\":2805:2868   */\n      swap3\n      pop\n        /* \"#utility.yul\":2761:2878   */\n      pop\n        /* \"#utility.yul\":2917:2919   */\n      0x20\n        /* \"#utility.yul\":2943:2996   */\n      tag_415\n        /* \"#utility.yul\":2988:2995   */\n      dup6\n        /* \"#utility.yul\":2979:2985   */\n      dup3\n        /* \"#utility.yul\":2968:2977   */\n      dup7\n        /* \"#utility.yul\":2964:2986   */\n      add\n        /* \"#utility.yul\":2943:2996   */\n      tag_356\n      jump\t// in\n    tag_415:\n        /* \"#utility.yul\":2933:2996   */\n      swap2\n      pop\n        /* \"#utility.yul\":2888:3006   */\n      pop\n        /* \"#utility.yul\":2539:3013   */\n      swap3\n      pop\n      swap3\n      swap1\n      pop\n      jump\t// out\n        /* \"#utility.yul\":3019:3109   */\n    tag_357:\n        /* \"#utility.yul\":3053:3060   */\n      0x00\n        /* \"#utility.yul\":3096:3101   */\n      dup2\n        /* \"#utility.yul\":3089:3102   */\n      iszero\n        /* \"#utility.yul\":3082:3103   */\n      iszero\n        /* \"#utility.yul\":3071:3103   */\n      swap1\n      pop\n        /* \"#utility.yul\":3019:3109   */\n      swap2\n      swap1\n      pop\n      jump\t// out\n        /* \"#utility.yul\":3115:3224   */\n    tag_358:\n        /* \"#utility.yul\":3196:3217   */\n      tag_418\n        /* \"#utility.yul\":3211:3216   */\n      dup2\n        /* \"#utility.yul\":3196:3217   */\n      tag_357\n      jump\t// in\n    tag_418:\n        /* \"#utility.yul\":3191:3194   */\n      dup3\n        /* \"#utility.yul\":3184:3218   */\n      mstore\n        /* \"#utility.yul\":3115:3224   */\n      pop\n      pop\n      jump\t// out\n        /* \"#utility.yul\":3230:3440   */\n    tag_38:\n        /* \"#utility.yul\":3317:3321   */\n      0x00\n        /* \"#utility.yul\":3355:3357   */\n      0x20\n        /* \"#utility.yul\":3344:3353   */\n      dup3\n        /* \"#utility.yul\":3340:3358   */\n      add\n        /* \"#utility.yul\":3332:3358   */\n      swap1\n      pop\n        /* \"#utility.yul\":3368:3433   */\n      tag_420\n        /* \"#utility.yul\":3430:3431   */\n      0x00\n        /* \"#utility.yul\":3419:3428   */\n      dup4\n        /* \"#utility.yul\":3415:3432   */\n      add\n        /* \"#utility.yul\":3406:3412   */\n      dup5\n        /* \"#utility.yul\":3368:3433   */\n      tag_358\n      jump\t// in\n    tag_420:\n        /* \"#utility.yul\":3230:3440   */\n      swap3\n      swap2\n      pop\n      pop\n      jump\t// out\n        /* \"#utility.yul\":3446:3564   */\n    tag_359:\n        /* \"#utility.yul\":3533:3557   */\n      tag_422\n        /* \"#utility.yul\":3551:3556   */\n      dup2\n        /* \"#utility.yul\":3533:3557   */\n      tag_354\n      jump\t// in\n    tag_422:\n        /* \"#utility.yul\":3528:3531   */\n      dup3\n        /* \"#utility.yul\":3521:3558   */\n      mstore\n        /* \"#utility.yul\":3446:3564   */\n      pop\n      pop\n      jump\t// out\n        /* \"#utility.yul\":3570:3792   */\n    tag_42:\n        /* \"#utility.yul\":3663:3667   */\n      0x00\n        /* \"#utility.yul\":3701:3703   */\n      0x20\n        /* \"#utility.yul\":3690:3699   */\n      dup3\n        /* \"#utility.yul\":3686:3704   */\n      add\n        /* \"#utility.yul\":3678:3704   */\n      swap1\n      pop\n        /* \"#utility.yul\":3714:3785   */\n      tag_424\n        /* \"#utility.yul\":3782:3783   */\n      0x00\n        /* \"#utility.yul\":3771:3780   */\n      dup4\n        /* \"#utility.yul\":3767:3784   */\n      add\n        /* \"#utility.yul\":3758:3764   */\n      dup5\n        /* \"#utility.yul\":3714:3785   */\n      tag_359\n      jump\t// in\n    tag_424:\n        /* \"#utility.yul\":3570:3792   */\n      swap3\n      swap2\n      pop\n      pop\n      jump\t// out\n        /* \"#utility.yul\":3798:4417   */\n    tag_45:\n        /* \"#utility.yul\":3875:3881   */\n      0x00\n        /* \"#utility.yul\":3883:3889   */\n      dup1\n        /* \"#utility.yul\":3891:3897   */\n      0x00\n        /* \"#utility.yul\":3940:3942   */\n      0x60\n        /* \"#utility.yul\":3928:3937   */\n      dup5\n        /* \"#utility.yul\":3919:3926   */\n      dup7\n        /* \"#utility.yul\":3915:3938   */\n      sub\n        /* \"#utility.yul\":3911:3943   */\n      slt\n        /* \"#utility.yul\":3908:4027   */\n      iszero\n      tag_426\n      jumpi\n        /* \"#utility.yul\":3946:4025   */\n      tag_427\n      tag_348\n      jump\t// in\n    tag_427:\n        /* \"#utility.yul\":3908:4027   */\n    tag_426:\n        /* \"#utility.yul\":4066:4067   */\n      0x00\n        /* \"#utility.yul\":4091:4144   */\n      tag_428\n        /* \"#utility.yul\":4136:4143   */\n      dup7\n        /* \"#utility.yul\":4127:4133   */\n      dup3\n        /* \"#utility.yul\":4116:4125   */\n      dup8\n        /* \"#utility.yul\":4112:4134   */\n      add\n        /* \"#utility.yul\":4091:4144   */\n      tag_353\n      jump\t// in\n    tag_428:\n        /* \"#utility.yul\":4081:4144   */\n      swap4\n      pop\n        /* \"#utility.yul\":4037:4154   */\n      pop\n        /* \"#utility.yul\":4193:4195   */\n      0x20\n        /* \"#utility.yul\":4219:4272   */\n      tag_429\n        /* \"#utility.yul\":4264:4271   */\n      dup7\n        /* \"#utility.yul\":4255:4261   */\n      dup3\n        /* \"#utility.yul\":4244:4253   */\n      dup8\n        /* \"#utility.yul\":4240:4262   */\n      add\n        /* \"#utility.yul\":4219:4272   */\n      tag_353\n      jump\t// in\n    tag_429:\n        /* \"#utility.yul\":4209:4272   */\n      swap3\n      pop\n        /* \"#utility.yul\":4164:4282   */\n      pop\n        /* \"#utility.yul\":4321:4323   */\n      0x40\n        /* \"#utility.yul\":4347:4400   */\n      tag_430\n        /* \"#utility.yul\":4392:4399   */\n      dup7\n        /* \"#utility.yul\":4383:4389   */\n      dup3\n        /* \"#utility.yul\":4372:4381   */\n      dup8\n        /* \"#utility.yul\":4368:4390   */\n      add\n        /* \"#utility.yul\":4347:4400   */\n      tag_356\n      jump\t// in\n    tag_430:\n        /* \"#utility.yul\":4337:4400   */\n      swap2\n      pop\n        /* \"#utility.yul\":4292:4410   */\n      pop\n        /* \"#utility.yul\":3798:4417   */\n      swap3\n      pop\n      swap3\n      pop\n      swap3\n      jump\t// out\n        /* \"#utility.yul\":4423:4509   */\n    tag_360:\n        /* \"#utility.yul\":4458:4465   */\n      0x00\n        /* \"#utility.yul\":4498:4502   */\n      0xff\n        /* \"#utility.yul\":4491:4496   */\n      dup3\n        /* \"#utility.yul\":4487:4503   */\n      and\n        /* \"#utility.yul\":4476:4503   */\n      swap1\n      pop\n        /* \"#utility.yul\":4423:4509   */\n      swap2\n      swap1\n      pop\n      jump\t// out\n        /* \"#utility.yul\":4515:4627   */\n    tag_361:\n        /* \"#utility.yul\":4598:4620   */\n      tag_433\n        /* \"#utility.yul\":4614:4619   */\n      dup2\n        /* \"#utility.yul\":4598:4620   */\n      tag_360\n      jump\t// in\n    tag_433:\n        /* \"#utility.yul\":4593:4596   */\n      dup3\n        /* \"#utility.yul\":4586:4621   */\n      mstore\n        /* \"#utility.yul\":4515:4627   */\n      pop\n      pop\n      jump\t// out\n        /* \"#utility.yul\":4633:4847   */\n    tag_51:\n        /* \"#utility.yul\":4722:4726   */\n      0x00\n        /* \"#utility.yul\":4760:4762   */\n      0x20\n        /* \"#utility.yul\":4749:4758   */\n      dup3\n        /* \"#utility.yul\":4745:4763   */\n      add\n        /* \"#utility.yul\":4737:4763   */\n      swap1\n      pop\n        /* \"#utility.yul\":4773:4840   */\n      tag_435\n        /* \"#utility.yul\":4837:4838   */\n      0x00\n        /* \"#utility.yul\":4826:4835   */\n      dup4\n        /* \"#utility.yul\":4822:4839   */\n      add\n        /* \"#utility.yul\":4813:4819   */\n      dup5\n        /* \"#utility.yul\":4773:4840   */\n      tag_361\n      jump\t// in\n    tag_435:\n        /* \"#utility.yul\":4633:4847   */\n      swap3\n      swap2\n      pop\n      pop\n      jump\t// out\n        /* \"#utility.yul\":4853:5472   */\n    tag_54:\n        /* \"#utility.yul\":4930:4936   */\n      0x00\n        /* \"#utility.yul\":4938:4944   */\n      dup1\n        /* \"#utility.yul\":4946:4952   */\n      0x00\n        /* \"#utility.yul\":4995:4997   */\n      0x60\n        /* \"#utility.yul\":4983:4992   */\n      dup5\n        /* \"#utility.yul\":4974:4981   */\n      dup7\n        /* \"#utility.yul\":4970:4993   */\n      sub\n        /* \"#utility.yul\":4966:4998   */\n      slt\n        /* \"#utility.yul\":4963:5082   */\n      iszero\n      tag_437\n      jumpi\n        /* \"#utility.yul\":5001:5080   */\n      tag_438\n      tag_348\n      jump\t// in\n    tag_438:\n        /* \"#utility.yul\":4963:5082   */\n    tag_437:\n        /* \"#utility.yul\":5121:5122   */\n      0x00\n        /* \"#utility.yul\":5146:5199   */\n      tag_439\n        /* \"#utility.yul\":5191:5198   */\n      dup7\n        /* \"#utility.yul\":5182:5188   */\n      dup3\n        /* \"#utility.yul\":5171:5180   */\n      dup8\n        /* \"#utility.yul\":5167:5189   */\n      add\n        /* \"#utility.yul\":5146:5199   */\n      tag_353\n      jump\t// in\n    tag_439:\n        /* \"#utility.yul\":5136:5199   */\n      swap4\n      pop\n        /* \"#utility.yul\":5092:5209   */\n      pop\n        /* \"#utility.yul\":5248:5250   */\n      0x20\n        /* \"#utility.yul\":5274:5327   */\n      tag_440\n        /* \"#utility.yul\":5319:5326   */\n      dup7\n        /* \"#utility.yul\":5310:5316   */\n      dup3\n        /* \"#utility.yul\":5299:5308   */\n      dup8\n        /* \"#utility.yul\":5295:5317   */\n      add\n        /* \"#utility.yul\":5274:5327   */\n      tag_356\n      jump\t// in\n    tag_440:\n        /* \"#utility.yul\":5264:5327   */\n      swap3\n      pop\n        /* \"#utility.yul\":5219:5337   */\n      pop\n        /* \"#utility.yul\":5376:5378   */\n      0x40\n        /* \"#utility.yul\":5402:5455   */\n      tag_441\n        /* \"#utility.yul\":5447:5454   */\n      dup7\n        /* \"#utility.yul\":5438:5444   */\n      dup3\n        /* \"#utility.yul\":5427:5436   */\n      dup8\n        /* \"#utility.yul\":5423:5445   */\n      add\n        /* \"#utility.yul\":5402:5455   */\n      tag_356\n      jump\t// in\n    tag_441:\n        /* \"#utility.yul\":5392:5455   */\n      swap2\n      pop\n        /* \"#utility.yul\":5347:5465   */\n      pop\n        /* \"#utility.yul\":4853:5472   */\n      swap3\n      pop\n      swap3\n      pop\n      swap3\n      jump\t// out\n        /* \"#utility.yul\":5478:5807   */\n    tag_60:\n        /* \"#utility.yul\":5537:5543   */\n      0x00\n        /* \"#utility.yul\":5586:5588   */\n      0x20\n        /* \"#utility.yul\":5574:5583   */\n      dup3\n        /* \"#utility.yul\":5565:5572   */\n      dup5\n        /* \"#utility.yul\":5561:5584   */\n      sub\n        /* \"#utility.yul\":5557:5589   */\n      slt\n        /* \"#utility.yul\":5554:5673   */\n      iszero\n      tag_443\n      jumpi\n        /* \"#utility.yul\":5592:5671   */\n      tag_444\n      tag_348\n      jump\t// in\n    tag_444:\n        /* \"#utility.yul\":5554:5673   */\n    tag_443:\n        /* \"#utility.yul\":5712:5713   */\n      0x00\n        /* \"#utility.yul\":5737:5790   */\n      tag_445\n        /* \"#utility.yul\":5782:5789   */\n      dup5\n        /* \"#utility.yul\":5773:5779   */\n      dup3\n        /* \"#utility.yul\":5762:5771   */\n      dup6\n        /* \"#utility.yul\":5758:5780   */\n      add\n        /* \"#utility.yul\":5737:5790   */\n      tag_356\n      jump\t// in\n    tag_445:\n        /* \"#utility.yul\":5727:5790   */\n      swap2\n      pop\n        /* \"#utility.yul\":5683:5800   */\n      pop\n        /* \"#utility.yul\":5478:5807   */\n      swap3\n      swap2\n      pop\n      pop\n      jump\t// out\n        /* \"#utility.yul\":5813:6142   */\n    tag_64:\n        /* \"#utility.yul\":5872:5878   */\n      0x00\n        /* \"#utility.yul\":5921:5923   */\n      0x20\n        /* \"#utility.yul\":5909:5918   */\n      dup3\n        /* \"#utility.yul\":5900:5907   */\n      dup5\n        /* \"#utility.yul\":5896:5919   */\n      sub\n        /* \"#utility.yul\":5892:5924   */\n      slt\n        /* \"#utility.yul\":5889:6008   */\n      iszero\n      tag_447\n      jumpi\n        /* \"#utility.yul\":5927:6006   */\n      tag_448\n      tag_348\n      jump\t// in\n    tag_448:\n        /* \"#utility.yul\":5889:6008   */\n    tag_447:\n        /* \"#utility.yul\":6047:6048   */\n      0x00\n        /* \"#utility.yul\":6072:6125   */\n      tag_449\n        /* \"#utility.yul\":6117:6124   */\n      dup5\n        /* \"#utility.yul\":6108:6114   */\n      dup3\n        /* \"#utility.yul\":6097:6106   */\n      dup6\n        /* \"#utility.yul\":6093:6115   */\n      add\n        /* \"#utility.yul\":6072:6125   */\n      tag_353\n      jump\t// in\n    tag_449:\n        /* \"#utility.yul\":6062:6125   */\n      swap2\n      pop\n        /* \"#utility.yul\":6018:6135   */\n      pop\n        /* \"#utility.yul\":5813:6142   */\n      swap3\n      swap2\n      pop\n      pop\n      jump\t// out\n        /* \"#utility.yul\":6148:6266   */\n    tag_362:\n        /* \"#utility.yul\":6235:6259   */\n      tag_451\n        /* \"#utility.yul\":6253:6258   */\n      dup2\n        /* \"#utility.yul\":6235:6259   */\n      tag_351\n      jump\t// in\n    tag_451:\n        /* \"#utility.yul\":6230:6233   */\n      dup3\n        /* \"#utility.yul\":6223:6260   */\n      mstore\n        /* \"#utility.yul\":6148:6266   */\n      pop\n      pop\n      jump\t// out\n        /* \"#utility.yul\":6272:6494   */\n    tag_89:\n        /* \"#utility.yul\":6365:6369   */\n      0x00\n        /* \"#utility.yul\":6403:6405   */\n      0x20\n        /* \"#utility.yul\":6392:6401   */\n      dup3\n        /* \"#utility.yul\":6388:6406   */\n      add\n        /* \"#utility.yul\":6380:6406   */\n      swap1\n      pop\n        /* \"#utility.yul\":6416:6487   */\n      tag_453\n        /* \"#utility.yul\":6484:6485   */\n      0x00\n        /* \"#utility.yul\":6473:6482   */\n      dup4\n        /* \"#utility.yul\":6469:6486   */\n      add\n        /* \"#utility.yul\":6460:6466   */\n      dup5\n        /* \"#utility.yul\":6416:6487   */\n      tag_362\n      jump\t// in\n    tag_453:\n        /* \"#utility.yul\":6272:6494   */\n      swap3\n      swap2\n      pop\n      pop\n      jump\t// out\n        /* \"#utility.yul\":6500:6974   */\n    tag_106:\n        /* \"#utility.yul\":6568:6574   */\n      0x00\n        /* \"#utility.yul\":6576:6582   */\n      dup1\n        /* \"#utility.yul\":6625:6627   */\n      0x40\n        /* \"#utility.yul\":6613:6622   */\n      dup4\n        /* \"#utility.yul\":6604:6611   */\n      dup6\n        /* \"#utility.yul\":6600:6623   */\n      sub\n        /* \"#utility.yul\":6596:6628   */\n      slt\n        /* \"#utility.yul\":6593:6712   */\n      iszero\n      tag_455\n      jumpi\n        /* \"#utility.yul\":6631:6710   */\n      tag_456\n      tag_348\n      jump\t// in\n    tag_456:\n        /* \"#utility.yul\":6593:6712   */\n    tag_455:\n        /* \"#utility.yul\":6751:6752   */\n      0x00\n        /* \"#utility.yul\":6776:6829   */\n      tag_457\n        /* \"#utility.yul\":6821:6828   */\n      dup6\n        /* \"#utility.yul\":6812:6818   */\n      dup3\n        /* \"#utility.yul\":6801:6810   */\n      dup7\n        /* \"#utility.yul\":6797:6819   */\n      add\n        /* \"#utility.yul\":6776:6829   */\n      tag_353\n      jump\t// in\n    tag_457:\n        /* \"#utility.yul\":6766:6829   */\n      swap3\n      pop\n        /* \"#utility.yul\":6722:6839   */\n      pop\n        /* \"#utility.yul\":6878:6880   */\n      0x20\n        /* \"#utility.yul\":6904:6957   */\n      tag_458\n        /* \"#utility.yul\":6949:6956   */\n      dup6\n        /* \"#utility.yul\":6940:6946   */\n      dup3\n        /* \"#utility.yul\":6929:6938   */\n      dup7\n        /* \"#utility.yul\":6925:6947   */\n      add\n        /* \"#utility.yul\":6904:6957   */\n      tag_353\n      jump\t// in\n    tag_458:\n        /* \"#utility.yul\":6894:6957   */\n      swap2\n      pop\n        /* \"#utility.yul\":6849:6967   */\n      pop\n        /* \"#utility.yul\":6500:6974   */\n      swap3\n      pop\n      swap3\n      swap1\n      pop\n      jump\t// out\n        /* \"#utility.yul\":6980:7160   */\n    tag_363:\n        /* \"#utility.yul\":7028:7105   */\n      0x4e487b7100000000000000000000000000000000000000000000000000000000\n        /* \"#utility.yul\":7025:7026   */\n      0x00\n        /* \"#utility.yul\":7018:7106   */\n      mstore\n        /* \"#utility.yul\":7125:7129   */\n      0x22\n        /* \"#utility.yul\":7122:7123   */\n      0x04\n        /* \"#utility.yul\":7115:7130   */\n      mstore\n        /* \"#utility.yul\":7149:7153   */\n      0x24\n        /* \"#utility.yul\":7146:7147   */\n      0x00\n        /* \"#utility.yul\":7139:7154   */\n      revert\n        /* \"#utility.yul\":7166:7486   */\n    tag_114:\n        /* \"#utility.yul\":7210:7216   */\n      0x00\n        /* \"#utility.yul\":7247:7248   */\n      0x02\n        /* \"#utility.yul\":7241:7245   */\n      dup3\n        /* \"#utility.yul\":7237:7249   */\n      div\n        /* \"#utility.yul\":7227:7249   */\n      swap1\n      pop\n        /* \"#utility.yul\":7294:7295   */\n      0x01\n        /* \"#utility.yul\":7288:7292   */\n      dup3\n        /* \"#utility.yul\":7284:7296   */\n      and\n        /* \"#utility.yul\":7315:7333   */\n      dup1\n        /* \"#utility.yul\":7305:7386   */\n      tag_461\n      jumpi\n        /* \"#utility.yul\":7371:7375   */\n      0x7f\n        /* \"#utility.yul\":7363:7369   */\n      dup3\n        /* \"#utility.yul\":7359:7376   */\n      and\n        /* \"#utility.yul\":7349:7376   */\n      swap2\n      pop\n        /* \"#utility.yul\":7305:7386   */\n    tag_461:\n        /* \"#utility.yul\":7433:7435   */\n      0x20\n        /* \"#utility.yul\":7425:7431   */\n      dup3\n        /* \"#utility.yul\":7422:7436   */\n      lt\n        /* \"#utility.yul\":7402:7420   */\n      dup2\n        /* \"#utility.yul\":7399:7437   */\n      sub\n        /* \"#utility.yul\":7396:7480   */\n      tag_462\n      jumpi\n        /* \"#utility.yul\":7452:7470   */\n      tag_463\n      tag_363\n      jump\t// in\n    tag_463:\n        /* \"#utility.yul\":7396:7480   */\n    tag_462:\n        /* \"#utility.yul\":7217:7486   */\n      pop\n        /* \"#utility.yul\":7166:7486   */\n      swap2\n      swap1\n      pop\n      jump\t// out\n        /* \"#utility.yul\":7492:7672   */\n    tag_364:\n        /* \"#utility.yul\":7540:7617   */\n      0x4e487b7100000000000000000000000000000000000000000000000000000000\n        /* \"#utility.yul\":7537:7538   */\n      0x00\n        /* \"#utility.yul\":7530:7618   */\n      mstore\n        /* \"#utility.yul\":7637:7641   */\n      0x11\n        /* \"#utility.yul\":7634:7635   */\n      0x04\n        /* \"#utility.yul\":7627:7642   */\n      mstore\n        /* \"#utility.yul\":7661:7665   */\n      0x24\n        /* \"#utility.yul\":7658:7659   */\n      0x00\n        /* \"#utility.yul\":7651:7666   */\n      revert\n        /* \"#utility.yul\":7678:7869   */\n    tag_139:\n        /* \"#utility.yul\":7718:7721   */\n      0x00\n        /* \"#utility.yul\":7737:7757   */\n      tag_466\n        /* \"#utility.yul\":7755:7756   */\n      dup3\n        /* \"#utility.yul\":7737:7757   */\n      tag_354\n      jump\t// in\n    tag_466:\n        /* \"#utility.yul\":7732:7757   */\n      swap2\n      pop\n        /* \"#utility.yul\":7771:7791   */\n      tag_467\n        /* \"#utility.yul\":7789:7790   */\n      dup4\n        /* \"#utility.yul\":7771:7791   */\n      tag_354\n      jump\t// in\n    tag_467:\n        /* \"#utility.yul\":7766:7791   */\n      swap3\n      pop\n        /* \"#utility.yul\":7814:7815   */\n      dup3\n        /* \"#utility.yul\":7811:7812   */\n      dup3\n        /* \"#utility.yul\":7807:7816   */\n      add\n        /* \"#utility.yul\":7800:7816   */\n      swap1\n      pop\n        /* \"#utility.yul\":7835:7838   */\n      dup1\n        /* \"#utility.yul\":7832:7833   */\n      dup3\n        /* \"#utility.yul\":7829:7839   */\n      gt\n        /* \"#utility.yul\":7826:7862   */\n      iszero\n      tag_468\n      jumpi\n        /* \"#utility.yul\":7842:7860   */\n      tag_469\n      tag_364\n      jump\t// in\n    tag_469:\n        /* \"#utility.yul\":7826:7862   */\n    tag_468:\n        /* \"#utility.yul\":7678:7869   */\n      swap3\n      swap2\n      pop\n      pop\n      jump\t// out\n        /* \"#utility.yul\":7875:8046   */\n    tag_365:\n        /* \"#utility.yul\":8015:8038   */\n      0x4163636f756e74206973206e6f742066726f7a656e0000000000000000000000\n        /* \"#utility.yul\":8011:8012   */\n      0x00\n        /* \"#utility.yul\":8003:8009   */\n      dup3\n        /* \"#utility.yul\":7999:8013   */\n      add\n        /* \"#utility.yul\":7992:8039   */\n      mstore\n        /* \"#utility.yul\":7875:8046   */\n      pop\n      jump\t// out\n        /* \"#utility.yul\":8052:8418   */\n    tag_366:\n        /* \"#utility.yul\":8194:8197   */\n      0x00\n        /* \"#utility.yul\":8215:8282   */\n      tag_472\n        /* \"#utility.yul\":8279:8281   */\n      0x15\n        /* \"#utility.yul\":8274:8277   */\n      dup4\n        /* \"#utility.yul\":8215:8282   */\n      tag_343\n      jump\t// in\n    tag_472:\n        /* \"#utility.yul\":8208:8282   */\n      swap2\n      pop\n        /* \"#utility.yul\":8291:8384   */\n      tag_473\n        /* \"#utility.yul\":8380:8383   */\n      dup3\n        /* \"#utility.yul\":8291:8384   */\n      tag_365\n      jump\t// in\n    tag_473:\n        /* \"#utility.yul\":8409:8411   */\n      0x20\n        /* \"#utility.yul\":8404:8407   */\n      dup3\n        /* \"#utility.yul\":8400:8412   */\n      add\n        /* \"#utility.yul\":8393:8412   */\n      swap1\n      pop\n        /* \"#utility.yul\":8052:8418   */\n      swap2\n      swap1\n      pop\n      jump\t// out\n        /* \"#utility.yul\":8424:8843   */\n    tag_154:\n        /* \"#utility.yul\":8590:8594   */\n      0x00\n        /* \"#utility.yul\":8628:8630   */\n      0x20\n        /* \"#utility.yul\":8617:8626   */\n      dup3\n        /* \"#utility.yul\":8613:8631   */\n      add\n        /* \"#utility.yul\":8605:8631   */\n      swap1\n      pop\n        /* \"#utility.yul\":8677:8686   */\n      dup2\n        /* \"#utility.yul\":8671:8675   */\n      dup2\n        /* \"#utility.yul\":8667:8687   */\n      sub\n        /* \"#utility.yul\":8663:8664   */\n      0x00\n        /* \"#utility.yul\":8652:8661   */\n      dup4\n        /* \"#utility.yul\":8648:8665   */\n      add\n        /* \"#utility.yul\":8641:8688   */\n      mstore\n        /* \"#utility.yul\":8705:8836   */\n      tag_475\n        /* \"#utility.yul\":8831:8835   */\n      dup2\n        /* \"#utility.yul\":8705:8836   */\n      tag_366\n      jump\t// in\n    tag_475:\n        /* \"#utility.yul\":8697:8836   */\n      swap1\n      pop\n        /* \"#utility.yul\":8424:8843   */\n      swap2\n      swap1\n      pop\n      jump\t// out\n        /* \"#utility.yul\":8849:9019   */\n    tag_367:\n        /* \"#utility.yul\":8989:9011   */\n      0x496e73756666696369656e742062616c616e6365000000000000000000000000\n        /* \"#utility.yul\":8985:8986   */\n      0x00\n        /* \"#utility.yul\":8977:8983   */\n      dup3\n        /* \"#utility.yul\":8973:8987   */\n      add\n        /* \"#utility.yul\":8966:9012   */\n      mstore\n        /* \"#utility.yul\":8849:9019   */\n      pop\n      jump\t// out\n        /* \"#utility.yul\":9025:9391   */\n    tag_368:\n        /* \"#utility.yul\":9167:9170   */\n      0x00\n        /* \"#utility.yul\":9188:9255   */\n      tag_478\n        /* \"#utility.yul\":9252:9254   */\n      0x14\n        /* \"#utility.yul\":9247:9250   */\n      dup4\n        /* \"#utility.yul\":9188:9255   */\n      tag_343\n      jump\t// in\n    tag_478:\n        /* \"#utility.yul\":9181:9255   */\n      swap2\n      pop\n        /* \"#utility.yul\":9264:9357   */\n      tag_479\n        /* \"#utility.yul\":9353:9356   */\n      dup3\n        /* \"#utility.yul\":9264:9357   */\n      tag_367\n      jump\t// in\n    tag_479:\n        /* \"#utility.yul\":9382:9384   */\n      0x20\n        /* \"#utility.yul\":9377:9380   */\n      dup3\n        /* \"#utility.yul\":9373:9385   */\n      add\n        /* \"#utility.yul\":9366:9385   */\n      swap1\n      pop\n        /* \"#utility.yul\":9025:9391   */\n      swap2\n      swap1\n      pop\n      jump\t// out\n        /* \"#utility.yul\":9397:9816   */\n    tag_162:\n        /* \"#utility.yul\":9563:9567   */\n      0x00\n        /* \"#utility.yul\":9601:9603   */\n      0x20\n        /* \"#utility.yul\":9590:9599   */\n      dup3\n        /* \"#utility.yul\":9586:9604   */\n      add\n        /* \"#utility.yul\":9578:9604   */\n      swap1\n      pop\n        /* \"#utility.yul\":9650:9659   */\n      dup2\n        /* \"#utility.yul\":9644:9648   */\n      dup2\n        /* \"#utility.yul\":9640:9660   */\n      sub\n        /* \"#utility.yul\":9636:9637   */\n      0x00\n        /* \"#utility.yul\":9625:9634   */\n      dup4\n        /* \"#utility.yul\":9621:9638   */\n      add\n        /* \"#utility.yul\":9614:9661   */\n      mstore\n        /* \"#utility.yul\":9678:9809   */\n      tag_481\n        /* \"#utility.yul\":9804:9808   */\n      dup2\n        /* \"#utility.yul\":9678:9809   */\n      tag_368\n      jump\t// in\n    tag_481:\n        /* \"#utility.yul\":9670:9809   */\n      swap1\n      pop\n        /* \"#utility.yul\":9397:9816   */\n      swap2\n      swap1\n      pop\n      jump\t// out\n        /* \"#utility.yul\":9822:9997   */\n    tag_369:\n        /* \"#utility.yul\":9962:9989   */\n      0x4163636f756e7420697320616c72656164792066726f7a656e00000000000000\n        /* \"#utility.yul\":9958:9959   */\n      0x00\n        /* \"#utility.yul\":9950:9956   */\n      dup3\n        /* \"#utility.yul\":9946:9960   */\n      add\n        /* \"#utility.yul\":9939:9990   */\n      mstore\n        /* \"#utility.yul\":9822:9997   */\n      pop\n      jump\t// out\n        /* \"#utility.yul\":10003:10369   */\n    tag_370:\n        /* \"#utility.yul\":10145:10148   */\n      0x00\n        /* \"#utility.yul\":10166:10233   */\n      tag_484\n        /* \"#utility.yul\":10230:10232   */\n      0x19\n        /* \"#utility.yul\":10225:10228   */\n      dup4\n        /* \"#utility.yul\":10166:10233   */\n      tag_343\n      jump\t// in\n    tag_484:\n        /* \"#utility.yul\":10159:10233   */\n      swap2\n      pop\n        /* \"#utility.yul\":10242:10335   */\n      tag_485\n        /* \"#utility.yul\":10331:10334   */\n      dup3\n        /* \"#utility.yul\":10242:10335   */\n      tag_369\n      jump\t// in\n    tag_485:\n        /* \"#utility.yul\":10360:10362   */\n      0x20\n        /* \"#utility.yul\":10355:10358   */\n      dup3\n        /* \"#utility.yul\":10351:10363   */\n      add\n        /* \"#utility.yul\":10344:10363   */\n      swap1\n      pop\n        /* \"#utility.yul\":10003:10369   */\n      swap2\n      swap1\n      pop\n      jump\t// out\n        /* \"#utility.yul\":10375:10794   */\n    tag_184:\n        /* \"#utility.yul\":10541:10545   */\n      0x00\n        /* \"#utility.yul\":10579:10581   */\n      0x20\n        /* \"#utility.yul\":10568:10577   */\n      dup3\n        /* \"#utility.yul\":10564:10582   */\n      add\n        /* \"#utility.yul\":10556:10582   */\n      swap1\n      pop\n        /* \"#utility.yul\":10628:10637   */\n      dup2\n        /* \"#utility.yul\":10622:10626   */\n      dup2\n        /* \"#utility.yul\":10618:10638   */\n      sub\n        /* \"#utility.yul\":10614:10615   */\n      0x00\n        /* \"#utility.yul\":10603:10612   */\n      dup4\n        /* \"#utility.yul\":10599:10616   */\n      add\n        /* \"#utility.yul\":10592:10639   */\n      mstore\n        /* \"#utility.yul\":10656:10787   */\n      tag_487\n        /* \"#utility.yul\":10782:10786   */\n      dup2\n        /* \"#utility.yul\":10656:10787   */\n      tag_370\n      jump\t// in\n    tag_487:\n        /* \"#utility.yul\":10648:10787   */\n      swap1\n      pop\n        /* \"#utility.yul\":10375:10794   */\n      swap2\n      swap1\n      pop\n      jump\t// out\n        /* \"#utility.yul\":10800:10980   */\n    tag_192:\n        /* \"#utility.yul\":10848:10925   */\n      0x4e487b7100000000000000000000000000000000000000000000000000000000\n        /* \"#utility.yul\":10845:10846   */\n      0x00\n        /* \"#utility.yul\":10838:10926   */\n      mstore\n        /* \"#utility.yul\":10945:10949   */\n      0x32\n        /* \"#utility.yul\":10942:10943   */\n      0x04\n        /* \"#utility.yul\":10935:10950   */\n      mstore\n        /* \"#utility.yul\":10969:10973   */\n      0x24\n        /* \"#utility.yul\":10966:10967   */\n      0x00\n        /* \"#utility.yul\":10959:10974   */\n      revert\n        /* \"#utility.yul\":10986:11180   */\n    tag_221:\n        /* \"#utility.yul\":11026:11030   */\n      0x00\n        /* \"#utility.yul\":11046:11066   */\n      tag_490\n        /* \"#utility.yul\":11064:11065   */\n      dup3\n        /* \"#utility.yul\":11046:11066   */\n      tag_354\n      jump\t// in\n    tag_490:\n        /* \"#utility.yul\":11041:11066   */\n      swap2\n      pop\n        /* \"#utility.yul\":11080:11100   */\n      tag_491\n        /* \"#utility.yul\":11098:11099   */\n      dup4\n        /* \"#utility.yul\":11080:11100   */\n      tag_354\n      jump\t// in\n    tag_491:\n        /* \"#utility.yul\":11075:11100   */\n      swap3\n      pop\n        /* \"#utility.yul\":11124:11125   */\n      dup3\n        /* \"#utility.yul\":11121:11122   */\n      dup3\n        /* \"#utility.yul\":11117:11126   */\n      sub\n        /* \"#utility.yul\":11109:11126   */\n      swap1\n      pop\n        /* \"#utility.yul\":11148:11149   */\n      dup2\n        /* \"#utility.yul\":11142:11146   */\n      dup2\n        /* \"#utility.yul\":11139:11150   */\n      gt\n        /* \"#utility.yul\":11136:11173   */\n      iszero\n      tag_492\n      jumpi\n        /* \"#utility.yul\":11153:11171   */\n      tag_493\n      tag_364\n      jump\t// in\n    tag_493:\n        /* \"#utility.yul\":11136:11173   */\n    tag_492:\n        /* \"#utility.yul\":10986:11180   */\n      swap3\n      swap2\n      pop\n      pop\n      jump\t// out\n        /* \"#utility.yul\":11186:11366   */\n    tag_230:\n        /* \"#utility.yul\":11234:11311   */\n      0x4e487b7100000000000000000000000000000000000000000000000000000000\n        /* \"#utility.yul\":11231:11232   */\n      0x00\n        /* \"#utility.yul\":11224:11312   */\n      mstore\n        /* \"#utility.yul\":11331:11335   */\n      0x31\n        /* \"#utility.yul\":11328:11329   */\n      0x04\n        /* \"#utility.yul\":11321:11336   */\n      mstore\n        /* \"#utility.yul\":11355:11359   */\n      0x24\n        /* \"#utility.yul\":11352:11353   */\n      0x00\n        /* \"#utility.yul\":11345:11360   */\n      revert\n        /* \"#utility.yul\":11372:11543   */\n    tag_233:\n        /* \"#utility.yul\":11411:11414   */\n      0x00\n        /* \"#utility.yul\":11434:11458   */\n      tag_496\n        /* \"#utility.yul\":11452:11457   */\n      dup3\n        /* \"#utility.yul\":11434:11458   */\n      tag_354\n      jump\t// in\n    tag_496:\n        /* \"#utility.yul\":11425:11458   */\n      swap2\n      pop\n        /* \"#utility.yul\":11480:11484   */\n      0x00\n        /* \"#utility.yul\":11473:11478   */\n      dup3\n        /* \"#utility.yul\":11470:11485   */\n      sub\n        /* \"#utility.yul\":11467:11508   */\n      tag_497\n      jumpi\n        /* \"#utility.yul\":11488:11506   */\n      tag_498\n      tag_364\n      jump\t// in\n    tag_498:\n        /* \"#utility.yul\":11467:11508   */\n    tag_497:\n        /* \"#utility.yul\":11535:11536   */\n      0x01\n        /* \"#utility.yul\":11528:11533   */\n      dup3\n        /* \"#utility.yul\":11524:11537   */\n      sub\n        /* \"#utility.yul\":11517:11537   */\n      swap1\n      pop\n        /* \"#utility.yul\":11372:11543   */\n      swap2\n      swap1\n      pop\n      jump\t// out\n        /* \"#utility.yul\":11549:11782   */\n    tag_235:\n        /* \"#utility.yul\":11588:11591   */\n      0x00\n        /* \"#utility.yul\":11611:11635   */\n      tag_500\n        /* \"#utility.yul\":11629:11634   */\n      dup3\n        /* \"#utility.yul\":11611:11635   */\n      tag_354\n      jump\t// in\n    tag_500:\n        /* \"#utility.yul\":11602:11635   */\n      swap2\n      pop\n        /* \"#utility.yul\":11657:11723   */\n      0xffffffffffffffffffffffffffffffffffffffffffffffffffffffffffffffff\n        /* \"#utility.yul\":11650:11655   */\n      dup3\n        /* \"#utility.yul\":11647:11724   */\n      sub\n        /* \"#utility.yul\":11644:11747   */\n      tag_501\n      jumpi\n        /* \"#utility.yul\":11727:11745   */\n      tag_502\n      tag_364\n      jump\t// in\n    tag_502:\n        /* \"#utility.yul\":11644:11747   */\n    tag_501:\n        /* \"#utility.yul\":11774:11775   */\n      0x01\n        /* \"#utility.yul\":11767:11772   */\n      dup3\n        /* \"#utility.yul\":11763:11776   */\n      add\n        /* \"#utility.yul\":11756:11776   */\n      swap1\n      pop\n        /* \"#utility.yul\":11549:11782   */\n      swap2\n      swap1\n      pop\n      jump\t// out\n        /* \"#utility.yul\":11788:12230   */\n    tag_254:\n        /* \"#utility.yul\":11937:11941   */\n      0x00\n        /* \"#utility.yul\":11975:11977   */\n      0x60\n        /* \"#utility.yul\":11964:11973   */\n      dup3\n        /* \"#utility.yul\":11960:11978   */\n      add\n        /* \"#utility.yul\":11952:11978   */\n      swap1\n      pop\n        /* \"#utility.yul\":11988:12059   */\n      tag_504\n        /* \"#utility.yul\":12056:12057   */\n      0x00\n        /* \"#utility.yul\":12045:12054   */\n      dup4\n        /* \"#utility.yul\":12041:12058   */\n      add\n        /* \"#utility.yul\":12032:12038   */\n      dup7\n        /* \"#utility.yul\":11988:12059   */\n      tag_362\n      jump\t// in\n    tag_504:\n        /* \"#utility.yul\":12069:12141   */\n      tag_505\n        /* \"#utility.yul\":12137:12139   */\n      0x20\n        /* \"#utility.yul\":12126:12135   */\n      dup4\n        /* \"#utility.yul\":12122:12140   */\n      add\n        /* \"#utility.yul\":12113:12119   */\n      dup6\n        /* \"#utility.yul\":12069:12141   */\n      tag_359\n      jump\t// in\n    tag_505:\n        /* \"#utility.yul\":12151:12223   */\n      tag_506\n        /* \"#utility.yul\":12219:12221   */\n      0x40\n        /* \"#utility.yul\":12208:12217   */\n      dup4\n        /* \"#utility.yul\":12204:12222   */\n      add\n        /* \"#utility.yul\":12195:12201   */\n      dup5\n        /* \"#utility.yul\":12151:12223   */\n      tag_359\n      jump\t// in\n    tag_506:\n        /* \"#utility.yul\":11788:12230   */\n      swap5\n      swap4\n      pop\n      pop\n      pop\n      pop\n      jump\t// out\n        /* \"#utility.yul\":12236:12413   */\n    tag_371:\n        /* \"#utility.yul\":12376:12405   */\n      0x546f6b656e207472616e73666572207768696c65207061757365640000000000\n        /* \"#utility.yul\":12372:12373   */\n      0x00\n        /* \"#utility.yul\":12364:12370   */\n      dup3\n        /* \"#utility.yul\":12360:12374   */\n      add\n        /* \"#utility.yul\":12353:12406   */\n      mstore\n        /* \"#utility.yul\":12236:12413   */\n      pop\n      jump\t// out\n        /* \"#utility.yul\":12419:12785   */\n    tag_372:\n        /* \"#utility.yul\":12561:12564   */\n      0x00\n        /* \"#utility.yul\":12582:12649   */\n      tag_509\n        /* \"#utility.yul\":12646:12648   */\n      0x1b\n        /* \"#utility.yul\":12641:12644   */\n      dup4\n        /* \"#utility.yul\":12582:12649   */\n      tag_343\n      jump\t// in\n    tag_509:\n        /* \"#utility.yul\":12575:12649   */\n      swap2\n      pop\n        /* \"#utility.yul\":12658:12751   */\n      tag_510\n        /* \"#utility.yul\":12747:12750   */\n      dup3\n        /* \"#utility.yul\":12658:12751   */\n      tag_371\n      jump\t// in\n    tag_510:\n        /* \"#utility.yul\":12776:12778   */\n      0x20\n        /* \"#utility.yul\":12771:12774   */\n      dup3\n        /* \"#utility.yul\":12767:12779   */\n      add\n        /* \"#utility.yul\":12760:12779   */\n      swap1\n      pop\n        /* \"#utility.yul\":12419:12785   */\n      swap2\n      swap1\n      pop\n      jump\t// out\n        /* \"#utility.yul\":12791:13210   */\n    tag_301:\n        /* \"#utility.yul\":12957:12961   */\n      0x00\n        /* \"#utility.yul\":12995:12997   */\n      0x20\n        /* \"#utility.yul\":12984:12993   */\n      dup3\n        /* \"#utility.yul\":12980:12998   */\n      add\n        /* \"#utility.yul\":12972:12998   */\n      swap1\n      pop\n        /* \"#utility.yul\":13044:13053   */\n      dup2\n        /* \"#utility.yul\":13038:13042   */\n      dup2\n        /* \"#utility.yul\":13034:13054   */\n      sub\n        /* \"#utility.yul\":13030:13031   */\n      0x00\n        /* \"#utility.yul\":13019:13028   */\n      dup4\n        /* \"#utility.yul\":13015:13032   */\n      add\n        /* \"#utility.yul\":13008:13055   */\n      mstore\n        /* \"#utility.yul\":13072:13203   */\n      tag_512\n        /* \"#utility.yul\":13198:13202   */\n      dup2\n        /* \"#utility.yul\":13072:13203   */\n      tag_372\n      jump\t// in\n    tag_512:\n        /* \"#utility.yul\":13064:13203   */\n      swap1\n      pop\n        /* \"#utility.yul\":12791:13210   */\n      swap2\n      swap1\n      pop\n      jump\t// out\n        /* \"#utility.yul\":13216:13458   */\n    tag_373:\n        /* \"#utility.yul\":13356:13390   */\n      0x45524332304c6f636b61626c653a207472616e7366657220616d6f756e742065\n        /* \"#utility.yul\":13352:13353   */\n      0x00\n        /* \"#utility.yul\":13344:13350   */\n      dup3\n        /* \"#utility.yul\":13340:13354   */\n      add\n        /* \"#utility.yul\":13333:13391   */\n      mstore\n        /* \"#utility.yul\":13425:13450   */\n      0x78636565647320756e6c6f636b65642062616c616e6365000000000000000000\n        /* \"#utility.yul\":13420:13422   */\n      0x20\n        /* \"#utility.yul\":13412:13418   */\n      dup3\n        /* \"#utility.yul\":13408:13423   */\n      add\n        /* \"#utility.yul\":13401:13451   */\n      mstore\n        /* \"#utility.yul\":13216:13458   */\n      pop\n      jump\t// out\n        /* \"#utility.yul\":13464:13830   */\n    tag_374:\n        /* \"#utility.yul\":13606:13609   */\n      0x00\n        /* \"#utility.yul\":13627:13694   */\n      tag_515\n        /* \"#utility.yul\":13691:13693   */\n      0x37\n        /* \"#utility.yul\":13686:13689   */\n      dup4\n        /* \"#utility.yul\":13627:13694   */\n      tag_343\n      jump\t// in\n    tag_515:\n        /* \"#utility.yul\":13620:13694   */\n      swap2\n      pop\n        /* \"#utility.yul\":13703:13796   */\n      tag_516\n        /* \"#utility.yul\":13792:13795   */\n      dup3\n        /* \"#utility.yul\":13703:13796   */\n      tag_373\n      jump\t// in\n    tag_516:\n        /* \"#utility.yul\":13821:13823   */\n      0x40\n        /* \"#utility.yul\":13816:13819   */\n      dup3\n        /* \"#utility.yul\":13812:13824   */\n      add\n        /* \"#utility.yul\":13805:13824   */\n      swap1\n      pop\n        /* \"#utility.yul\":13464:13830   */\n      swap2\n      swap1\n      pop\n      jump\t// out\n        /* \"#utility.yul\":13836:14255   */\n    tag_306:\n        /* \"#utility.yul\":14002:14006   */\n      0x00\n        /* \"#utility.yul\":14040:14042   */\n      0x20\n        /* \"#utility.yul\":14029:14038   */\n      dup3\n        /* \"#utility.yul\":14025:14043   */\n      add\n        /* \"#utility.yul\":14017:14043   */\n      swap1\n      pop\n        /* \"#utility.yul\":14089:14098   */\n      dup2\n        /* \"#utility.yul\":14083:14087   */\n      dup2\n        /* \"#utility.yul\":14079:14099   */\n      sub\n        /* \"#utility.yul\":14075:14076   */\n      0x00\n        /* \"#utility.yul\":14064:14073   */\n      dup4\n        /* \"#utility.yul\":14060:14077   */\n      add\n        /* \"#utility.yul\":14053:14100   */\n      mstore\n        /* \"#utility.yul\":14117:14248   */\n      tag_518\n        /* \"#utility.yul\":14243:14247   */\n      dup2\n        /* \"#utility.yul\":14117:14248   */\n      tag_374\n      jump\t// in\n    tag_518:\n        /* \"#utility.yul\":14109:14248   */\n      swap1\n      pop\n        /* \"#utility.yul\":13836:14255   */\n      swap2\n      swap1\n      pop\n      jump\t// out\n        /* \"#utility.yul\":14261:14431   */\n    tag_375:\n        /* \"#utility.yul\":14401:14423   */\n      0x5061757361626c653a206e6f7420706175736564000000000000000000000000\n        /* \"#utility.yul\":14397:14398   */\n      0x00\n        /* \"#utility.yul\":14389:14395   */\n      dup3\n        /* \"#utility.yul\":14385:14399   */\n      add\n        /* \"#utility.yul\":14378:14424   */\n      mstore\n        /* \"#utility.yul\":14261:14431   */\n      pop\n      jump\t// out\n        /* \"#utility.yul\":14437:14803   */\n    tag_376:\n        /* \"#utility.yul\":14579:14582   */\n      0x00\n        /* \"#utility.yul\":14600:14667   */\n      tag_521\n        /* \"#utility.yul\":14664:14666   */\n      0x14\n        /* \"#utility.yul\":14659:14662   */\n      dup4\n        /* \"#utility.yul\":14600:14667   */\n      tag_343\n      jump\t// in\n    tag_521:\n        /* \"#utility.yul\":14593:14667   */\n      swap2\n      pop\n        /* \"#utility.yul\":14676:14769   */\n      tag_522\n        /* \"#utility.yul\":14765:14768   */\n      dup3\n        /* \"#utility.yul\":14676:14769   */\n      tag_375\n      jump\t// in\n    tag_522:\n        /* \"#utility.yul\":14794:14796   */\n      0x20\n        /* \"#utility.yul\":14789:14792   */\n      dup3\n        /* \"#utility.yul\":14785:14797   */\n      add\n        /* \"#utility.yul\":14778:14797   */\n      swap1\n      pop\n        /* \"#utility.yul\":14437:14803   */\n      swap2\n      swap1\n      pop\n      jump\t// out\n        /* \"#utility.yul\":14809:15228   */\n    tag_313:\n        /* \"#utility.yul\":14975:14979   */\n      0x00\n        /* \"#utility.yul\":15013:15015   */\n      0x20\n        /* \"#utility.yul\":15002:15011   */\n      dup3\n        /* \"#utility.yul\":14998:15016   */\n      add\n        /* \"#utility.yul\":14990:15016   */\n      swap1\n      pop\n        /* \"#utility.yul\":15062:15071   */\n      dup2\n        /* \"#utility.yul\":15056:15060   */\n      dup2\n        /* \"#utility.yul\":15052:15072   */\n      sub\n        /* \"#utility.yul\":15048:15049   */\n      0x00\n        /* \"#utility.yul\":15037:15046   */\n      dup4\n        /* \"#utility.yul\":15033:15050   */\n      add\n        /* \"#utility.yul\":15026:15073   */\n      mstore\n        /* \"#utility.yul\":15090:15221   */\n      tag_524\n        /* \"#utility.yul\":15216:15220   */\n      dup2\n        /* \"#utility.yul\":15090:15221   */\n      tag_376\n      jump\t// in\n    tag_524:\n        /* \"#utility.yul\":15082:15221   */\n      swap1\n      pop\n        /* \"#utility.yul\":14809:15228   */\n      swap2\n      swap1\n      pop\n      jump\t// out\n        /* \"#utility.yul\":15234:15400   */\n    tag_377:\n        /* \"#utility.yul\":15374:15392   */\n      0x5061757361626c653a2070617573656400000000000000000000000000000000\n        /* \"#utility.yul\":15370:15371   */\n      0x00\n        /* \"#utility.yul\":15362:15368   */\n      dup3\n        /* \"#utility.yul\":15358:15372   */\n      add\n        /* \"#utility.yul\":15351:15393   */\n      mstore\n        /* \"#utility.yul\":15234:15400   */\n      pop\n      jump\t// out\n        /* \"#utility.yul\":15406:15772   */\n    tag_378:\n        /* \"#utility.yul\":15548:15551   */\n      0x00\n        /* \"#utility.yul\":15569:15636   */\n      tag_527\n        /* \"#utility.yul\":15633:15635   */\n      0x10\n        /* \"#utility.yul\":15628:15631   */\n      dup4\n        /* \"#utility.yul\":15569:15636   */\n      tag_343\n      jump\t// in\n    tag_527:\n        /* \"#utility.yul\":15562:15636   */\n      swap2\n      pop\n        /* \"#utility.yul\":15645:15738   */\n      tag_528\n        /* \"#utility.yul\":15734:15737   */\n      dup3\n        /* \"#utility.yul\":15645:15738   */\n      tag_377\n      jump\t// in\n    tag_528:\n        /* \"#utility.yul\":15763:15765   */\n      0x20\n        /* \"#utility.yul\":15758:15761   */\n      dup3\n        /* \"#utility.yul\":15754:15766   */\n      add\n        /* \"#utility.yul\":15747:15766   */\n      swap1\n      pop\n        /* \"#utility.yul\":15406:15772   */\n      swap2\n      swap1\n      pop\n      jump\t// out\n        /* \"#utility.yul\":15778:16197   */\n    tag_318:\n        /* \"#utility.yul\":15944:15948   */\n      0x00\n        /* \"#utility.yul\":15982:15984   */\n      0x20\n        /* \"#utility.yul\":15971:15980   */\n      dup3\n        /* \"#utility.yul\":15967:15985   */\n      add\n        /* \"#utility.yul\":15959:15985   */\n      swap1\n      pop\n        /* \"#utility.yul\":16031:16040   */\n      dup2\n        /* \"#utility.yul\":16025:16029   */\n      dup2\n        /* \"#utility.yul\":16021:16041   */\n      sub\n        /* \"#utility.yul\":16017:16018   */\n      0x00\n        /* \"#utility.yul\":16006:16015   */\n      dup4\n        /* \"#utility.yul\":16002:16019   */\n      add\n        /* \"#utility.yul\":15995:16042   */\n      mstore\n        /* \"#utility.yul\":16059:16190   */\n      tag_530\n        /* \"#utility.yul\":16185:16189   */\n      dup2\n        /* \"#utility.yul\":16059:16190   */\n      tag_378\n      jump\t// in\n    tag_530:\n        /* \"#utility.yul\":16051:16190   */\n      swap1\n      pop\n        /* \"#utility.yul\":15778:16197   */\n      swap2\n      swap1\n      pop\n      jump\t// out\n\n    auxdata: 0xa2646970667358221220e81d7aee37d517397e27fc9ff23bd79a1e0b291111471d9d1b03b30972e7dfd964736f6c63430008180033\n}\n",
				"bytecode": {
					"linkReferences": {},
					"object": "608060405234801562000010575f80fd5b50336040518060400160405280600a81526020017f4845414c54484d454449000000000000000000000000000000000000000000008152506040518060400160405280600381526020017f484d44000000000000000000000000000000000000000000000000000000000081525081600390816200008f919062000ab1565b508060049081620000a1919062000ab1565b5050505f60055f6101000a81548160ff0219169083151502179055505f73ffffffffffffffffffffffffffffffffffffffff168173ffffffffffffffffffffffffffffffffffffffff160362000130575f6040517f1e4fbdf700000000000000000000000000000000000000000000000000000000815260040162000127919062000bd8565b60405180910390fd5b62000141816200017e60201b60201c565b506200017833601260ff16600a6200015a919062000d70565b6402540be4006200016c919062000dc0565b6200024360201b60201c565b62001024565b5f600560019054906101000a900473ffffffffffffffffffffffffffffffffffffffff16905081600560016101000a81548173ffffffffffffffffffffffffffffffffffffffff021916908373ffffffffffffffffffffffffffffffffffffffff1602179055508173ffffffffffffffffffffffffffffffffffffffff168173ffffffffffffffffffffffffffffffffffffffff167f8be0079c531659141344cd1fd0a4f28419497f9722a3daafe3b4186f6b6457e060405160405180910390a35050565b5f73ffffffffffffffffffffffffffffffffffffffff168273ffffffffffffffffffffffffffffffffffffffff1603620002b6575f6040517fec442f05000000000000000000000000000000000000000000000000000000008152600401620002ad919062000bd8565b60405180910390fd5b620002c95f8383620002cd60201b60201c565b5050565b5f73ffffffffffffffffffffffffffffffffffffffff168373ffffffffffffffffffffffffffffffffffffffff16141580156200033657505f73ffffffffffffffffffffffffffffffffffffffff168273ffffffffffffffffffffffffffffffffffffffff1614155b156200042a576200034c6200044260201b60201c565b1580620003935750620003646200045760201b60201c565b73ffffffffffffffffffffffffffffffffffffffff163373ffffffffffffffffffffffffffffffffffffffff16145b620003d5576040517f08c379a0000000000000000000000000000000000000000000000000000000008152600401620003cc9062000e68565b60405180910390fd5b620003e783826200048060201b60201c565b62000429576040517f08c379a0000000000000000000000000000000000000000000000000000000008152600401620004209062000efc565b60405180910390fd5b5b6200043d838383620005e460201b60201c565b505050565b5f60055f9054906101000a900460ff16905090565b5f600560019054906101000a900473ffffffffffffffffffffffffffffffffffffffff16905090565b5f805f90505f5b60075f8673ffffffffffffffffffffffffffffffffffffffff1673ffffffffffffffffffffffffffffffffffffffff1681526020019081526020015f2080549050811015620005b9574260075f8773ffffffffffffffffffffffffffffffffffffffff1673ffffffffffffffffffffffffffffffffffffffff1681526020019081526020015f20828154811062000523576200052262000f1c565b5b905f5260205f209060020201600101541115620005ab5760075f8673ffffffffffffffffffffffffffffffffffffffff1673ffffffffffffffffffffffffffffffffffffffff1681526020019081526020015f2081815481106200058c576200058b62000f1c565b5b905f5260205f2090600202015f015482620005a8919062000f49565b91505b808060010191505062000487565b508281620005cd866200080860201b60201c565b620005d9919062000f83565b101591505092915050565b5f73ffffffffffffffffffffffffffffffffffffffff168373ffffffffffffffffffffffffffffffffffffffff160362000638578060025f8282546200062b919062000f49565b9250508190555062000709565b5f805f8573ffffffffffffffffffffffffffffffffffffffff1673ffffffffffffffffffffffffffffffffffffffff1681526020019081526020015f2054905081811015620006c4578381836040517fe450d38c000000000000000000000000000000000000000000000000000000008152600401620006bb9392919062000fce565b60405180910390fd5b8181035f808673ffffffffffffffffffffffffffffffffffffffff1673ffffffffffffffffffffffffffffffffffffffff1681526020019081526020015f2081905550505b5f73ffffffffffffffffffffffffffffffffffffffff168273ffffffffffffffffffffffffffffffffffffffff160362000752578060025f82825403925050819055506200079c565b805f808473ffffffffffffffffffffffffffffffffffffffff1673ffffffffffffffffffffffffffffffffffffffff1681526020019081526020015f205f82825401925050819055505b8173ffffffffffffffffffffffffffffffffffffffff168373ffffffffffffffffffffffffffffffffffffffff167fddf252ad1be2c89b69c2b068fc378daa952ba7f163c4a11628f55a4df523b3ef83604051620007fb919062001009565b60405180910390a3505050565b5f805f8373ffffffffffffffffffffffffffffffffffffffff1673ffffffffffffffffffffffffffffffffffffffff1681526020019081526020015f20549050919050565b5f81519050919050565b7f4e487b71000000000000000000000000000000000000000000000000000000005f52604160045260245ffd5b7f4e487b71000000000000000000000000000000000000000000000000000000005f52602260045260245ffd5b5f6002820490506001821680620008c957607f821691505b602082108103620008df57620008de62000884565b5b50919050565b5f819050815f5260205f209050919050565b5f6020601f8301049050919050565b5f82821b905092915050565b5f60088302620009437fffffffffffffffffffffffffffffffffffffffffffffffffffffffffffffffff8262000906565b6200094f868362000906565b95508019841693508086168417925050509392505050565b5f819050919050565b5f819050919050565b5f62000999620009936200098d8462000967565b62000970565b62000967565b9050919050565b5f819050919050565b620009b48362000979565b620009cc620009c382620009a0565b84845462000912565b825550505050565b5f90565b620009e2620009d4565b620009ef818484620009a9565b505050565b5b8181101562000a165762000a0a5f82620009d8565b600181019050620009f5565b5050565b601f82111562000a655762000a2f81620008e5565b62000a3a84620008f7565b8101602085101562000a4a578190505b62000a6262000a5985620008f7565b830182620009f4565b50505b505050565b5f82821c905092915050565b5f62000a875f198460080262000a6a565b1980831691505092915050565b5f62000aa1838362000a76565b9150826002028217905092915050565b62000abc826200084d565b67ffffffffffffffff81111562000ad85762000ad762000857565b5b62000ae48254620008b1565b62000af182828562000a1a565b5f60209050601f83116001811462000b27575f841562000b12578287015190505b62000b1e858262000a94565b86555062000b8d565b601f19841662000b3786620008e5565b5f5b8281101562000b605784890151825560018201915060208501945060208101905062000b39565b8683101562000b80578489015162000b7c601f89168262000a76565b8355505b6001600288020188555050505b505050505050565b5f73ffffffffffffffffffffffffffffffffffffffff82169050919050565b5f62000bc08262000b95565b9050919050565b62000bd28162000bb4565b82525050565b5f60208201905062000bed5f83018462000bc7565b92915050565b7f4e487b71000000000000000000000000000000000000000000000000000000005f52601160045260245ffd5b5f8160011c9050919050565b5f808291508390505b600185111562000c7d5780860481111562000c555762000c5462000bf3565b5b600185161562000c655780820291505b808102905062000c758562000c20565b945062000c35565b94509492505050565b5f8262000c97576001905062000d69565b8162000ca6575f905062000d69565b816001811462000cbf576002811462000cca5762000d00565b600191505062000d69565b60ff84111562000cdf5762000cde62000bf3565b5b8360020a91508482111562000cf95762000cf862000bf3565b5b5062000d69565b5060208310610133831016604e8410600b841016171562000d3a5782820a90508381111562000d345762000d3362000bf3565b5b62000d69565b62000d49848484600162000c2c565b9250905081840481111562000d635762000d6262000bf3565b5b81810290505b9392505050565b5f62000d7c8262000967565b915062000d898362000967565b925062000db87fffffffffffffffffffffffffffffffffffffffffffffffffffffffffffffffff848462000c86565b905092915050565b5f62000dcc8262000967565b915062000dd98362000967565b925082820262000de98162000967565b9150828204841483151762000e035762000e0262000bf3565b5b5092915050565b5f82825260208201905092915050565b7f546f6b656e207472616e73666572207768696c652070617573656400000000005f82015250565b5f62000e50601b8362000e0a565b915062000e5d8262000e1a565b602082019050919050565b5f6020820190508181035f83015262000e818162000e42565b9050919050565b7f45524332304c6f636b61626c653a207472616e7366657220616d6f756e7420655f8201527f78636565647320756e6c6f636b65642062616c616e6365000000000000000000602082015250565b5f62000ee460378362000e0a565b915062000ef18262000e88565b604082019050919050565b5f6020820190508181035f83015262000f158162000ed6565b9050919050565b7f4e487b71000000000000000000000000000000000000000000000000000000005f52603260045260245ffd5b5f62000f558262000967565b915062000f628362000967565b925082820190508082111562000f7d5762000f7c62000bf3565b5b92915050565b5f62000f8f8262000967565b915062000f9c8362000967565b925082820390508181111562000fb75762000fb662000bf3565b5b92915050565b62000fc88162000967565b82525050565b5f60608201905062000fe35f83018662000bc7565b62000ff2602083018562000fbd565b62001001604083018462000fbd565b949350505050565b5f6020820190506200101e5f83018462000fbd565b92915050565b61233f80620010325f395ff3fe608060405234801561000f575f80fd5b506004361061014b575f3560e01c806370a08231116100c1578063929ec5371161007a578063929ec5371461033b57806395d89b411461036b578063a9059cbb14610389578063d1c46916146103b9578063dd62ed3e146103d5578063f2fde38b146104055761014b565b806370a08231146102a1578063715018a6146102d157806379cc6790146102db5780638456cb59146102f75780638d1fdf2f146103015780638da5cb5b1461031d5761014b565b806338b820921161011357806338b82092146102095780633f4ba83a1461022557806342966c681461022f57806345c8b1a61461024b5780635c975abb146102675780635e1372f4146102855761014b565b806306fdde031461014f578063095ea7b31461016d57806318160ddd1461019d57806323b872dd146101bb578063313ce567146101eb575b5f80fd5b610157610421565b6040516101649190611b44565b60405180910390f35b61018760048036038101906101829190611bf5565b6104b1565b6040516101949190611c4d565b60405180910390f35b6101a56104d3565b6040516101b29190611c75565b60405180910390f35b6101d560048036038101906101d09190611c8e565b6104dc565b6040516101e29190611c4d565b60405180910390f35b6101f361050a565b6040516102009190611cf9565b60405180910390f35b610223600480360381019061021e9190611d12565b610512565b005b61022d610540565b005b61024960048036038101906102449190611d62565b610552565b005b61026560048036038101906102609190611d8d565b610566565b005b61026f610691565b60405161027c9190611c4d565b60405180910390f35b61029f600480360381019061029a9190611d12565b6106a6565b005b6102bb60048036038101906102b69190611d8d565b61078a565b6040516102c89190611c75565b60405180910390f35b6102d96107cf565b005b6102f560048036038101906102f09190611bf5565b6107e2565b005b6102ff610802565b005b61031b60048036038101906103169190611d8d565b610814565b005b610325610941565b6040516103329190611dc7565b60405180910390f35b61035560048036038101906103509190611d8d565b61096a565b6040516103629190611c75565b60405180910390f35b610373610aa2565b6040516103809190611b44565b60405180910390f35b6103a3600480360381019061039e9190611bf5565b610b32565b6040516103b09190611c4d565b60405180910390f35b6103d360048036038101906103ce9190611d8d565b610b54565b005b6103ef60048036038101906103ea9190611de0565b610e75565b6040516103fc9190611c75565b60405180910390f35b61041f600480360381019061041a9190611d8d565b610ef7565b005b60606003805461043090611e4b565b80601f016020809104026020016040519081016040528092919081815260200182805461045c90611e4b565b80156104a75780601f1061047e576101008083540402835291602001916104a7565b820191905f5260205f20905b81548152906001019060200180831161048a57829003601f168201915b5050505050905090565b5f806104bb610f7b565b90506104c8818585610f82565b600191505092915050565b5f600254905090565b5f806104e6610f7b565b90506104f3858285610f94565b6104fe858585611026565b60019150509392505050565b5f6012905090565b61051a611116565b610525338484611026565b61053b838383426105369190611ea8565b6106a6565b505050565b610548611116565b61055061119d565b565b61056361055d610f7b565b826111fe565b50565b61056e611116565b60065f8273ffffffffffffffffffffffffffffffffffffffff1673ffffffffffffffffffffffffffffffffffffffff1681526020019081526020015f205f9054906101000a900460ff166105f7576040517f08c379a00000000000000000000000000000000000000000000000000000000081526004016105ee90611f25565b60405180910390fd5b5f60065f8373ffffffffffffffffffffffffffffffffffffffff1673ffffffffffffffffffffffffffffffffffffffff1681526020019081526020015f205f6101000a81548160ff0219169083151502179055508073ffffffffffffffffffffffffffffffffffffffff167ff915cd9fe234de6e8d3afe7bf2388d35b2b6d48e8c629a24602019bde79c213a60405160405180910390a250565b5f60055f9054906101000a900460ff16905090565b6106ae611116565b816106b88461078a565b10156106f9576040517f08c379a00000000000000000000000000000000000000000000000000000000081526004016106f090611f8d565b60405180910390fd5b60075f8473ffffffffffffffffffffffffffffffffffffffff1673ffffffffffffffffffffffffffffffffffffffff1681526020019081526020015f20604051806040016040528084815260200183815250908060018154018082558091505060019003905f5260205f2090600202015f909190919091505f820151815f0155602082015181600101555050505050565b5f805f8373ffffffffffffffffffffffffffffffffffffffff1673ffffffffffffffffffffffffffffffffffffffff1681526020019081526020015f20549050919050565b6107d7611116565b6107e05f61127d565b565b6107f4826107ee610f7b565b83610f94565b6107fe82826111fe565b5050565b61080a611116565b610812611342565b565b61081c611116565b60065f8273ffffffffffffffffffffffffffffffffffffffff1673ffffffffffffffffffffffffffffffffffffffff1681526020019081526020015f205f9054906101000a900460ff16156108a6576040517f08c379a000000000000000000000000000000000000000000000000000000000815260040161089d90611ff5565b60405180910390fd5b600160065f8373ffffffffffffffffffffffffffffffffffffffff1673ffffffffffffffffffffffffffffffffffffffff1681526020019081526020015f205f6101000a81548160ff0219169083151502179055508073ffffffffffffffffffffffffffffffffffffffff167f4f2a367e694e71282f29ab5eaa04c4c0be45ac5bf2ca74fb67068b98bdc2887d60405160405180910390a250565b5f600560019054906101000a900473ffffffffffffffffffffffffffffffffffffffff16905090565b5f805f90505f5b60075f8573ffffffffffffffffffffffffffffffffffffffff1673ffffffffffffffffffffffffffffffffffffffff1681526020019081526020015f2080549050811015610a98574260075f8673ffffffffffffffffffffffffffffffffffffffff1673ffffffffffffffffffffffffffffffffffffffff1681526020019081526020015f208281548110610a0957610a08612013565b5b905f5260205f209060020201600101541115610a8b5760075f8573ffffffffffffffffffffffffffffffffffffffff1673ffffffffffffffffffffffffffffffffffffffff1681526020019081526020015f208181548110610a6e57610a6d612013565b5b905f5260205f2090600202015f015482610a889190611ea8565b91505b8080600101915050610971565b5080915050919050565b606060048054610ab190611e4b565b80601f0160208091040260200160405190810160405280929190818152602001828054610add90611e4b565b8015610b285780601f10610aff57610100808354040283529160200191610b28565b820191905f5260205f20905b815481529060010190602001808311610b0b57829003601f168201915b5050505050905090565b5f80610b3c610f7b565b9050610b49818585611026565b600191505092915050565b5f805b60075f8473ffffffffffffffffffffffffffffffffffffffff1673ffffffffffffffffffffffffffffffffffffffff1681526020019081526020015f2080549050811015610e19574260075f8573ffffffffffffffffffffffffffffffffffffffff1673ffffffffffffffffffffffffffffffffffffffff1681526020019081526020015f208281548110610bef57610bee612013565b5b905f5260205f2090600202016001015411610e065760075f8473ffffffffffffffffffffffffffffffffffffffff1673ffffffffffffffffffffffffffffffffffffffff1681526020019081526020015f208181548110610c5357610c52612013565b5b905f5260205f2090600202015f015482610c6d9190611ea8565b915060075f8473ffffffffffffffffffffffffffffffffffffffff1673ffffffffffffffffffffffffffffffffffffffff1681526020019081526020015f20600160075f8673ffffffffffffffffffffffffffffffffffffffff1673ffffffffffffffffffffffffffffffffffffffff1681526020019081526020015f2080549050610cf99190612040565b81548110610d0a57610d09612013565b5b905f5260205f20906002020160075f8573ffffffffffffffffffffffffffffffffffffffff1673ffffffffffffffffffffffffffffffffffffffff1681526020019081526020015f208281548110610d6557610d64612013565b5b905f5260205f2090600202015f820154815f01556001820154816001015590505060075f8473ffffffffffffffffffffffffffffffffffffffff1673ffffffffffffffffffffffffffffffffffffffff1681526020019081526020015f20805480610dd357610dd2612073565b5b600190038181905f5260205f2090600202015f8082015f9055600182015f9055505090558080610e02906120a0565b9150505b8080610e11906120c7565b915050610b57565b505f811115610e71578173ffffffffffffffffffffffffffffffffffffffff167f622ca42598ab680a7def4a7346e1963a82207cf42a5ddb8056ad62cfbda19b8882604051610e689190611c75565b60405180910390a25b5050565b5f60015f8473ffffffffffffffffffffffffffffffffffffffff1673ffffffffffffffffffffffffffffffffffffffff1681526020019081526020015f205f8373ffffffffffffffffffffffffffffffffffffffff1673ffffffffffffffffffffffffffffffffffffffff1681526020019081526020015f2054905092915050565b610eff611116565b5f73ffffffffffffffffffffffffffffffffffffffff168173ffffffffffffffffffffffffffffffffffffffff1603610f6f575f6040517f1e4fbdf7000000000000000000000000000000000000000000000000000000008152600401610f669190611dc7565b60405180910390fd5b610f788161127d565b50565b5f33905090565b610f8f83838360016113a4565b505050565b5f610f9f8484610e75565b90507fffffffffffffffffffffffffffffffffffffffffffffffffffffffffffffffff81146110205781811015611011578281836040517ffb8f41b20000000000000000000000000000000000000000000000000000000081526004016110089392919061210e565b60405180910390fd5b61101f84848484035f6113a4565b5b50505050565b5f73ffffffffffffffffffffffffffffffffffffffff168373ffffffffffffffffffffffffffffffffffffffff1603611096575f6040517f96c6fd1e00000000000000000000000000000000000000000000000000000000815260040161108d9190611dc7565b60405180910390fd5b5f73ffffffffffffffffffffffffffffffffffffffff168273ffffffffffffffffffffffffffffffffffffffff1603611106575f6040517fec442f050000000000000000000000000000000000000000000000000000000081526004016110fd9190611dc7565b60405180910390fd5b611111838383611573565b505050565b61111e610f7b565b73ffffffffffffffffffffffffffffffffffffffff1661113c610941565b73ffffffffffffffffffffffffffffffffffffffff161461119b5761115f610f7b565b6040517f118cdaa70000000000000000000000000000000000000000000000000000000081526004016111929190611dc7565b60405180910390fd5b565b6111a56116bf565b5f60055f6101000a81548160ff0219169083151502179055507f5db9ee0a495bf2e6ff9c91a7834c1ba4fdd244a5e8aa4e537bd38aeae4b073aa6111e7610f7b565b6040516111f49190611dc7565b60405180910390a1565b5f73ffffffffffffffffffffffffffffffffffffffff168273ffffffffffffffffffffffffffffffffffffffff160361126e575f6040517f96c6fd1e0000000000000000000000000000000000000000000000000000000081526004016112659190611dc7565b60405180910390fd5b611279825f83611573565b5050565b5f600560019054906101000a900473ffffffffffffffffffffffffffffffffffffffff16905081600560016101000a81548173ffffffffffffffffffffffffffffffffffffffff021916908373ffffffffffffffffffffffffffffffffffffffff1602179055508173ffffffffffffffffffffffffffffffffffffffff168173ffffffffffffffffffffffffffffffffffffffff167f8be0079c531659141344cd1fd0a4f28419497f9722a3daafe3b4186f6b6457e060405160405180910390a35050565b61134a611708565b600160055f6101000a81548160ff0219169083151502179055507f62e78cea01bee320cd4e420270b5ea74000d11b0c9f74754ebdbfc544b05a25861138d610f7b565b60405161139a9190611dc7565b60405180910390a1565b5f73ffffffffffffffffffffffffffffffffffffffff168473ffffffffffffffffffffffffffffffffffffffff1603611414575f6040517fe602df0500000000000000000000000000000000000000000000000000000000815260040161140b9190611dc7565b60405180910390fd5b5f73ffffffffffffffffffffffffffffffffffffffff168373ffffffffffffffffffffffffffffffffffffffff1603611484575f6040517f94280d6200000000000000000000000000000000000000000000000000000000815260040161147b9190611dc7565b60405180910390fd5b8160015f8673ffffffffffffffffffffffffffffffffffffffff1673ffffffffffffffffffffffffffffffffffffffff1681526020019081526020015f205f8573ffffffffffffffffffffffffffffffffffffffff1673ffffffffffffffffffffffffffffffffffffffff1681526020019081526020015f2081905550801561156d578273ffffffffffffffffffffffffffffffffffffffff168473ffffffffffffffffffffffffffffffffffffffff167f8c5be1e5ebec7d5bd14f71427d1e84f3dd0314c0f7b2291e5b200ac8c7c3b925846040516115649190611c75565b60405180910390a35b50505050565b5f73ffffffffffffffffffffffffffffffffffffffff168373ffffffffffffffffffffffffffffffffffffffff16141580156115db57505f73ffffffffffffffffffffffffffffffffffffffff168273ffffffffffffffffffffffffffffffffffffffff1614155b156116af576115e8610691565b158061162657506115f7610941565b73ffffffffffffffffffffffffffffffffffffffff163373ffffffffffffffffffffffffffffffffffffffff16145b611665576040517f08c379a000000000000000000000000000000000000000000000000000000000815260040161165c9061218d565b60405180910390fd5b61166f8382611752565b6116ae576040517f08c379a00000000000000000000000000000000000000000000000000000000081526004016116a59061221b565b60405180910390fd5b5b6116ba8383836118a1565b505050565b6116c7610691565b611706576040517f08c379a00000000000000000000000000000000000000000000000000000000081526004016116fd90612283565b60405180910390fd5b565b611710610691565b15611750576040517f08c379a0000000000000000000000000000000000000000000000000000000008152600401611747906122eb565b60405180910390fd5b565b5f805f90505f5b60075f8673ffffffffffffffffffffffffffffffffffffffff1673ffffffffffffffffffffffffffffffffffffffff1681526020019081526020015f2080549050811015611880574260075f8773ffffffffffffffffffffffffffffffffffffffff1673ffffffffffffffffffffffffffffffffffffffff1681526020019081526020015f2082815481106117f1576117f0612013565b5b905f5260205f2090600202016001015411156118735760075f8673ffffffffffffffffffffffffffffffffffffffff1673ffffffffffffffffffffffffffffffffffffffff1681526020019081526020015f20818154811061185657611855612013565b5b905f5260205f2090600202015f0154826118709190611ea8565b91505b8080600101915050611759565b50828161188c8661078a565b6118969190612040565b101591505092915050565b5f73ffffffffffffffffffffffffffffffffffffffff168373ffffffffffffffffffffffffffffffffffffffff16036118f1578060025f8282546118e59190611ea8565b925050819055506119bf565b5f805f8573ffffffffffffffffffffffffffffffffffffffff1673ffffffffffffffffffffffffffffffffffffffff1681526020019081526020015f205490508181101561197a578381836040517fe450d38c0000000000000000000000000000000000000000000000000000000081526004016119719392919061210e565b60405180910390fd5b8181035f808673ffffffffffffffffffffffffffffffffffffffff1673ffffffffffffffffffffffffffffffffffffffff1681526020019081526020015f2081905550505b5f73ffffffffffffffffffffffffffffffffffffffff168273ffffffffffffffffffffffffffffffffffffffff1603611a06578060025f8282540392505081905550611a50565b805f808473ffffffffffffffffffffffffffffffffffffffff1673ffffffffffffffffffffffffffffffffffffffff1681526020019081526020015f205f82825401925050819055505b8173ffffffffffffffffffffffffffffffffffffffff168373ffffffffffffffffffffffffffffffffffffffff167fddf252ad1be2c89b69c2b068fc378daa952ba7f163c4a11628f55a4df523b3ef83604051611aad9190611c75565b60405180910390a3505050565b5f81519050919050565b5f82825260208201905092915050565b5f5b83811015611af1578082015181840152602081019050611ad6565b5f8484015250505050565b5f601f19601f8301169050919050565b5f611b1682611aba565b611b208185611ac4565b9350611b30818560208601611ad4565b611b3981611afc565b840191505092915050565b5f6020820190508181035f830152611b5c8184611b0c565b905092915050565b5f80fd5b5f73ffffffffffffffffffffffffffffffffffffffff82169050919050565b5f611b9182611b68565b9050919050565b611ba181611b87565b8114611bab575f80fd5b50565b5f81359050611bbc81611b98565b92915050565b5f819050919050565b611bd481611bc2565b8114611bde575f80fd5b50565b5f81359050611bef81611bcb565b92915050565b5f8060408385031215611c0b57611c0a611b64565b5b5f611c1885828601611bae565b9250506020611c2985828601611be1565b9150509250929050565b5f8115159050919050565b611c4781611c33565b82525050565b5f602082019050611c605f830184611c3e565b92915050565b611c6f81611bc2565b82525050565b5f602082019050611c885f830184611c66565b92915050565b5f805f60608486031215611ca557611ca4611b64565b5b5f611cb286828701611bae565b9350506020611cc386828701611bae565b9250506040611cd486828701611be1565b9150509250925092565b5f60ff82169050919050565b611cf381611cde565b82525050565b5f602082019050611d0c5f830184611cea565b92915050565b5f805f60608486031215611d2957611d28611b64565b5b5f611d3686828701611bae565b9350506020611d4786828701611be1565b9250506040611d5886828701611be1565b9150509250925092565b5f60208284031215611d7757611d76611b64565b5b5f611d8484828501611be1565b91505092915050565b5f60208284031215611da257611da1611b64565b5b5f611daf84828501611bae565b91505092915050565b611dc181611b87565b82525050565b5f602082019050611dda5f830184611db8565b92915050565b5f8060408385031215611df657611df5611b64565b5b5f611e0385828601611bae565b9250506020611e1485828601611bae565b9150509250929050565b7f4e487b71000000000000000000000000000000000000000000000000000000005f52602260045260245ffd5b5f6002820490506001821680611e6257607f821691505b602082108103611e7557611e74611e1e565b5b50919050565b7f4e487b71000000000000000000000000000000000000000000000000000000005f52601160045260245ffd5b5f611eb282611bc2565b9150611ebd83611bc2565b9250828201905080821115611ed557611ed4611e7b565b5b92915050565b7f4163636f756e74206973206e6f742066726f7a656e00000000000000000000005f82015250565b5f611f0f601583611ac4565b9150611f1a82611edb565b602082019050919050565b5f6020820190508181035f830152611f3c81611f03565b9050919050565b7f496e73756666696369656e742062616c616e63650000000000000000000000005f82015250565b5f611f77601483611ac4565b9150611f8282611f43565b602082019050919050565b5f6020820190508181035f830152611fa481611f6b565b9050919050565b7f4163636f756e7420697320616c72656164792066726f7a656e000000000000005f82015250565b5f611fdf601983611ac4565b9150611fea82611fab565b602082019050919050565b5f6020820190508181035f83015261200c81611fd3565b9050919050565b7f4e487b71000000000000000000000000000000000000000000000000000000005f52603260045260245ffd5b5f61204a82611bc2565b915061205583611bc2565b925082820390508181111561206d5761206c611e7b565b5b92915050565b7f4e487b71000000000000000000000000000000000000000000000000000000005f52603160045260245ffd5b5f6120aa82611bc2565b91505f82036120bc576120bb611e7b565b5b600182039050919050565b5f6120d182611bc2565b91507fffffffffffffffffffffffffffffffffffffffffffffffffffffffffffffffff820361210357612102611e7b565b5b600182019050919050565b5f6060820190506121215f830186611db8565b61212e6020830185611c66565b61213b6040830184611c66565b949350505050565b7f546f6b656e207472616e73666572207768696c652070617573656400000000005f82015250565b5f612177601b83611ac4565b915061218282612143565b602082019050919050565b5f6020820190508181035f8301526121a48161216b565b9050919050565b7f45524332304c6f636b61626c653a207472616e7366657220616d6f756e7420655f8201527f78636565647320756e6c6f636b65642062616c616e6365000000000000000000602082015250565b5f612205603783611ac4565b9150612210826121ab565b604082019050919050565b5f6020820190508181035f830152612232816121f9565b9050919050565b7f5061757361626c653a206e6f74207061757365640000000000000000000000005f82015250565b5f61226d601483611ac4565b915061227882612239565b602082019050919050565b5f6020820190508181035f83015261229a81612261565b9050919050565b7f5061757361626c653a20706175736564000000000000000000000000000000005f82015250565b5f6122d5601083611ac4565b91506122e0826122a1565b602082019050919050565b5f6020820190508181035f830152612302816122c9565b905091905056fea2646970667358221220e81d7aee37d517397e27fc9ff23bd79a1e0b291111471d9d1b03b30972e7dfd964736f6c63430008180033",
					"opcodes": "PUSH1 0x80 PUSH1 0x40 MSTORE CALLVALUE DUP1 ISZERO PUSH3 0x10 JUMPI PUSH0 DUP1 REVERT JUMPDEST POP CALLER PUSH1 0x40 MLOAD DUP1 PUSH1 0x40 ADD PUSH1 0x40 MSTORE DUP1 PUSH1 0xA DUP2 MSTORE PUSH1 0x20 ADD PUSH32 0x4845414C54484D45444900000000000000000000000000000000000000000000 DUP2 MSTORE POP PUSH1 0x40 MLOAD DUP1 PUSH1 0x40 ADD PUSH1 0x40 MSTORE DUP1 PUSH1 0x3 DUP2 MSTORE PUSH1 0x20 ADD PUSH32 0x484D440000000000000000000000000000000000000000000000000000000000 DUP2 MSTORE POP DUP2 PUSH1 0x3 SWAP1 DUP2 PUSH3 0x8F SWAP2 SWAP1 PUSH3 0xAB1 JUMP JUMPDEST POP DUP1 PUSH1 0x4 SWAP1 DUP2 PUSH3 0xA1 SWAP2 SWAP1 PUSH3 0xAB1 JUMP JUMPDEST POP POP POP PUSH0 PUSH1 0x5 PUSH0 PUSH2 0x100 EXP DUP2 SLOAD DUP2 PUSH1 0xFF MUL NOT AND SWAP1 DUP4 ISZERO ISZERO MUL OR SWAP1 SSTORE POP PUSH0 PUSH20 0xFFFFFFFFFFFFFFFFFFFFFFFFFFFFFFFFFFFFFFFF AND DUP2 PUSH20 0xFFFFFFFFFFFFFFFFFFFFFFFFFFFFFFFFFFFFFFFF AND SUB PUSH3 0x130 JUMPI PUSH0 PUSH1 0x40 MLOAD PUSH32 0x1E4FBDF700000000000000000000000000000000000000000000000000000000 DUP2 MSTORE PUSH1 0x4 ADD PUSH3 0x127 SWAP2 SWAP1 PUSH3 0xBD8 JUMP JUMPDEST PUSH1 0x40 MLOAD DUP1 SWAP2 SUB SWAP1 REVERT JUMPDEST PUSH3 0x141 DUP2 PUSH3 0x17E PUSH1 0x20 SHL PUSH1 0x20 SHR JUMP JUMPDEST POP PUSH3 0x178 CALLER PUSH1 0x12 PUSH1 0xFF AND PUSH1 0xA PUSH3 0x15A SWAP2 SWAP1 PUSH3 0xD70 JUMP JUMPDEST PUSH5 0x2540BE400 PUSH3 0x16C SWAP2 SWAP1 PUSH3 0xDC0 JUMP JUMPDEST PUSH3 0x243 PUSH1 0x20 SHL PUSH1 0x20 SHR JUMP JUMPDEST PUSH3 0x1024 JUMP JUMPDEST PUSH0 PUSH1 0x5 PUSH1 0x1 SWAP1 SLOAD SWAP1 PUSH2 0x100 EXP SWAP1 DIV PUSH20 0xFFFFFFFFFFFFFFFFFFFFFFFFFFFFFFFFFFFFFFFF AND SWAP1 POP DUP2 PUSH1 0x5 PUSH1 0x1 PUSH2 0x100 EXP DUP2 SLOAD DUP2 PUSH20 0xFFFFFFFFFFFFFFFFFFFFFFFFFFFFFFFFFFFFFFFF MUL NOT AND SWAP1 DUP4 PUSH20 0xFFFFFFFFFFFFFFFFFFFFFFFFFFFFFFFFFFFFFFFF AND MUL OR SWAP1 SSTORE POP DUP2 PUSH20 0xFFFFFFFFFFFFFFFFFFFFFFFFFFFFFFFFFFFFFFFF AND DUP2 PUSH20 0xFFFFFFFFFFFFFFFFFFFFFFFFFFFFFFFFFFFFFFFF AND PUSH32 0x8BE0079C531659141344CD1FD0A4F28419497F9722A3DAAFE3B4186F6B6457E0 PUSH1 0x40 MLOAD PUSH1 0x40 MLOAD DUP1 SWAP2 SUB SWAP1 LOG3 POP POP JUMP JUMPDEST PUSH0 PUSH20 0xFFFFFFFFFFFFFFFFFFFFFFFFFFFFFFFFFFFFFFFF AND DUP3 PUSH20 0xFFFFFFFFFFFFFFFFFFFFFFFFFFFFFFFFFFFFFFFF AND SUB PUSH3 0x2B6 JUMPI PUSH0 PUSH1 0x40 MLOAD PUSH32 0xEC442F0500000000000000000000000000000000000000000000000000000000 DUP2 MSTORE PUSH1 0x4 ADD PUSH3 0x2AD SWAP2 SWAP1 PUSH3 0xBD8 JUMP JUMPDEST PUSH1 0x40 MLOAD DUP1 SWAP2 SUB SWAP1 REVERT JUMPDEST PUSH3 0x2C9 PUSH0 DUP4 DUP4 PUSH3 0x2CD PUSH1 0x20 SHL PUSH1 0x20 SHR JUMP JUMPDEST POP POP JUMP JUMPDEST PUSH0 PUSH20 0xFFFFFFFFFFFFFFFFFFFFFFFFFFFFFFFFFFFFFFFF AND DUP4 PUSH20 0xFFFFFFFFFFFFFFFFFFFFFFFFFFFFFFFFFFFFFFFF AND EQ ISZERO DUP1 ISZERO PUSH3 0x336 JUMPI POP PUSH0 PUSH20 0xFFFFFFFFFFFFFFFFFFFFFFFFFFFFFFFFFFFFFFFF AND DUP3 PUSH20 0xFFFFFFFFFFFFFFFFFFFFFFFFFFFFFFFFFFFFFFFF AND EQ ISZERO JUMPDEST ISZERO PUSH3 0x42A JUMPI PUSH3 0x34C PUSH3 0x442 PUSH1 0x20 SHL PUSH1 0x20 SHR JUMP JUMPDEST ISZERO DUP1 PUSH3 0x393 JUMPI POP PUSH3 0x364 PUSH3 0x457 PUSH1 0x20 SHL PUSH1 0x20 SHR JUMP JUMPDEST PUSH20 0xFFFFFFFFFFFFFFFFFFFFFFFFFFFFFFFFFFFFFFFF AND CALLER PUSH20 0xFFFFFFFFFFFFFFFFFFFFFFFFFFFFFFFFFFFFFFFF AND EQ JUMPDEST PUSH3 0x3D5 JUMPI PUSH1 0x40 MLOAD PUSH32 0x8C379A000000000000000000000000000000000000000000000000000000000 DUP2 MSTORE PUSH1 0x4 ADD PUSH3 0x3CC SWAP1 PUSH3 0xE68 JUMP JUMPDEST PUSH1 0x40 MLOAD DUP1 SWAP2 SUB SWAP1 REVERT JUMPDEST PUSH3 0x3E7 DUP4 DUP3 PUSH3 0x480 PUSH1 0x20 SHL PUSH1 0x20 SHR JUMP JUMPDEST PUSH3 0x429 JUMPI PUSH1 0x40 MLOAD PUSH32 0x8C379A000000000000000000000000000000000000000000000000000000000 DUP2 MSTORE PUSH1 0x4 ADD PUSH3 0x420 SWAP1 PUSH3 0xEFC JUMP JUMPDEST PUSH1 0x40 MLOAD DUP1 SWAP2 SUB SWAP1 REVERT JUMPDEST JUMPDEST PUSH3 0x43D DUP4 DUP4 DUP4 PUSH3 0x5E4 PUSH1 0x20 SHL PUSH1 0x20 SHR JUMP JUMPDEST POP POP POP JUMP JUMPDEST PUSH0 PUSH1 0x5 PUSH0 SWAP1 SLOAD SWAP1 PUSH2 0x100 EXP SWAP1 DIV PUSH1 0xFF AND SWAP1 POP SWAP1 JUMP JUMPDEST PUSH0 PUSH1 0x5 PUSH1 0x1 SWAP1 SLOAD SWAP1 PUSH2 0x100 EXP SWAP1 DIV PUSH20 0xFFFFFFFFFFFFFFFFFFFFFFFFFFFFFFFFFFFFFFFF AND SWAP1 POP SWAP1 JUMP JUMPDEST PUSH0 DUP1 PUSH0 SWAP1 POP PUSH0 JUMPDEST PUSH1 0x7 PUSH0 DUP7 PUSH20 0xFFFFFFFFFFFFFFFFFFFFFFFFFFFFFFFFFFFFFFFF AND PUSH20 0xFFFFFFFFFFFFFFFFFFFFFFFFFFFFFFFFFFFFFFFF AND DUP2 MSTORE PUSH1 0x20 ADD SWAP1 DUP2 MSTORE PUSH1 0x20 ADD PUSH0 KECCAK256 DUP1 SLOAD SWAP1 POP DUP2 LT ISZERO PUSH3 0x5B9 JUMPI TIMESTAMP PUSH1 0x7 PUSH0 DUP8 PUSH20 0xFFFFFFFFFFFFFFFFFFFFFFFFFFFFFFFFFFFFFFFF AND PUSH20 0xFFFFFFFFFFFFFFFFFFFFFFFFFFFFFFFFFFFFFFFF AND DUP2 MSTORE PUSH1 0x20 ADD SWAP1 DUP2 MSTORE PUSH1 0x20 ADD PUSH0 KECCAK256 DUP3 DUP2 SLOAD DUP2 LT PUSH3 0x523 JUMPI PUSH3 0x522 PUSH3 0xF1C JUMP JUMPDEST JUMPDEST SWAP1 PUSH0 MSTORE PUSH1 0x20 PUSH0 KECCAK256 SWAP1 PUSH1 0x2 MUL ADD PUSH1 0x1 ADD SLOAD GT ISZERO PUSH3 0x5AB JUMPI PUSH1 0x7 PUSH0 DUP7 PUSH20 0xFFFFFFFFFFFFFFFFFFFFFFFFFFFFFFFFFFFFFFFF AND PUSH20 0xFFFFFFFFFFFFFFFFFFFFFFFFFFFFFFFFFFFFFFFF AND DUP2 MSTORE PUSH1 0x20 ADD SWAP1 DUP2 MSTORE PUSH1 0x20 ADD PUSH0 KECCAK256 DUP2 DUP2 SLOAD DUP2 LT PUSH3 0x58C JUMPI PUSH3 0x58B PUSH3 0xF1C JUMP JUMPDEST JUMPDEST SWAP1 PUSH0 MSTORE PUSH1 0x20 PUSH0 KECCAK256 SWAP1 PUSH1 0x2 MUL ADD PUSH0 ADD SLOAD DUP3 PUSH3 0x5A8 SWAP2 SWAP1 PUSH3 0xF49 JUMP JUMPDEST SWAP2 POP JUMPDEST DUP1 DUP1 PUSH1 0x1 ADD SWAP2 POP POP PUSH3 0x487 JUMP JUMPDEST POP DUP3 DUP2 PUSH3 0x5CD DUP7 PUSH3 0x808 PUSH1 0x20 SHL PUSH1 0x20 SHR JUMP JUMPDEST PUSH3 0x5D9 SWAP2 SWAP1 PUSH3 0xF83 JUMP JUMPDEST LT ISZERO SWAP2 POP POP SWAP3 SWAP2 POP POP JUMP JUMPDEST PUSH0 PUSH20 0xFFFFFFFFFFFFFFFFFFFFFFFFFFFFFFFFFFFFFFFF AND DUP4 PUSH20 0xFFFFFFFFFFFFFFFFFFFFFFFFFFFFFFFFFFFFFFFF AND SUB PUSH3 0x638 JUMPI DUP1 PUSH1 0x2 PUSH0 DUP3 DUP3 SLOAD PUSH3 0x62B SWAP2 SWAP1 PUSH3 0xF49 JUMP JUMPDEST SWAP3 POP POP DUP2 SWAP1 SSTORE POP PUSH3 0x709 JUMP JUMPDEST PUSH0 DUP1 PUSH0 DUP6 PUSH20 0xFFFFFFFFFFFFFFFFFFFFFFFFFFFFFFFFFFFFFFFF AND PUSH20 0xFFFFFFFFFFFFFFFFFFFFFFFFFFFFFFFFFFFFFFFF AND DUP2 MSTORE PUSH1 0x20 ADD SWAP1 DUP2 MSTORE PUSH1 0x20 ADD PUSH0 KECCAK256 SLOAD SWAP1 POP DUP2 DUP2 LT ISZERO PUSH3 0x6C4 JUMPI DUP4 DUP2 DUP4 PUSH1 0x40 MLOAD PUSH32 0xE450D38C00000000000000000000000000000000000000000000000000000000 DUP2 MSTORE PUSH1 0x4 ADD PUSH3 0x6BB SWAP4 SWAP3 SWAP2 SWAP1 PUSH3 0xFCE JUMP JUMPDEST PUSH1 0x40 MLOAD DUP1 SWAP2 SUB SWAP1 REVERT JUMPDEST DUP2 DUP2 SUB PUSH0 DUP1 DUP7 PUSH20 0xFFFFFFFFFFFFFFFFFFFFFFFFFFFFFFFFFFFFFFFF AND PUSH20 0xFFFFFFFFFFFFFFFFFFFFFFFFFFFFFFFFFFFFFFFF AND DUP2 MSTORE PUSH1 0x20 ADD SWAP1 DUP2 MSTORE PUSH1 0x20 ADD PUSH0 KECCAK256 DUP2 SWAP1 SSTORE POP POP JUMPDEST PUSH0 PUSH20 0xFFFFFFFFFFFFFFFFFFFFFFFFFFFFFFFFFFFFFFFF AND DUP3 PUSH20 0xFFFFFFFFFFFFFFFFFFFFFFFFFFFFFFFFFFFFFFFF AND SUB PUSH3 0x752 JUMPI DUP1 PUSH1 0x2 PUSH0 DUP3 DUP3 SLOAD SUB SWAP3 POP POP DUP2 SWAP1 SSTORE POP PUSH3 0x79C JUMP JUMPDEST DUP1 PUSH0 DUP1 DUP5 PUSH20 0xFFFFFFFFFFFFFFFFFFFFFFFFFFFFFFFFFFFFFFFF AND PUSH20 0xFFFFFFFFFFFFFFFFFFFFFFFFFFFFFFFFFFFFFFFF AND DUP2 MSTORE PUSH1 0x20 ADD SWAP1 DUP2 MSTORE PUSH1 0x20 ADD PUSH0 KECCAK256 PUSH0 DUP3 DUP3 SLOAD ADD SWAP3 POP POP DUP2 SWAP1 SSTORE POP JUMPDEST DUP2 PUSH20 0xFFFFFFFFFFFFFFFFFFFFFFFFFFFFFFFFFFFFFFFF AND DUP4 PUSH20 0xFFFFFFFFFFFFFFFFFFFFFFFFFFFFFFFFFFFFFFFF AND PUSH32 0xDDF252AD1BE2C89B69C2B068FC378DAA952BA7F163C4A11628F55A4DF523B3EF DUP4 PUSH1 0x40 MLOAD PUSH3 0x7FB SWAP2 SWAP1 PUSH3 0x1009 JUMP JUMPDEST PUSH1 0x40 MLOAD DUP1 SWAP2 SUB SWAP1 LOG3 POP POP POP JUMP JUMPDEST PUSH0 DUP1 PUSH0 DUP4 PUSH20 0xFFFFFFFFFFFFFFFFFFFFFFFFFFFFFFFFFFFFFFFF AND PUSH20 0xFFFFFFFFFFFFFFFFFFFFFFFFFFFFFFFFFFFFFFFF AND DUP2 MSTORE PUSH1 0x20 ADD SWAP1 DUP2 MSTORE PUSH1 0x20 ADD PUSH0 KECCAK256 SLOAD SWAP1 POP SWAP2 SWAP1 POP JUMP JUMPDEST PUSH0 DUP2 MLOAD SWAP1 POP SWAP2 SWAP1 POP JUMP JUMPDEST PUSH32 0x4E487B7100000000000000000000000000000000000000000000000000000000 PUSH0 MSTORE PUSH1 0x41 PUSH1 0x4 MSTORE PUSH1 0x24 PUSH0 REVERT JUMPDEST PUSH32 0x4E487B7100000000000000000000000000000000000000000000000000000000 PUSH0 MSTORE PUSH1 0x22 PUSH1 0x4 MSTORE PUSH1 0x24 PUSH0 REVERT JUMPDEST PUSH0 PUSH1 0x2 DUP3 DIV SWAP1 POP PUSH1 0x1 DUP3 AND DUP1 PUSH3 0x8C9 JUMPI PUSH1 0x7F DUP3 AND SWAP2 POP JUMPDEST PUSH1 0x20 DUP3 LT DUP2 SUB PUSH3 0x8DF JUMPI PUSH3 0x8DE PUSH3 0x884 JUMP JUMPDEST JUMPDEST POP SWAP2 SWAP1 POP JUMP JUMPDEST PUSH0 DUP2 SWAP1 POP DUP2 PUSH0 MSTORE PUSH1 0x20 PUSH0 KECCAK256 SWAP1 POP SWAP2 SWAP1 POP JUMP JUMPDEST PUSH0 PUSH1 0x20 PUSH1 0x1F DUP4 ADD DIV SWAP1 POP SWAP2 SWAP1 POP JUMP JUMPDEST PUSH0 DUP3 DUP3 SHL SWAP1 POP SWAP3 SWAP2 POP POP JUMP JUMPDEST PUSH0 PUSH1 0x8 DUP4 MUL PUSH3 0x943 PUSH32 0xFFFFFFFFFFFFFFFFFFFFFFFFFFFFFFFFFFFFFFFFFFFFFFFFFFFFFFFFFFFFFFFF DUP3 PUSH3 0x906 JUMP JUMPDEST PUSH3 0x94F DUP7 DUP4 PUSH3 0x906 JUMP JUMPDEST SWAP6 POP DUP1 NOT DUP5 AND SWAP4 POP DUP1 DUP7 AND DUP5 OR SWAP3 POP POP POP SWAP4 SWAP3 POP POP POP JUMP JUMPDEST PUSH0 DUP2 SWAP1 POP SWAP2 SWAP1 POP JUMP JUMPDEST PUSH0 DUP2 SWAP1 POP SWAP2 SWAP1 POP JUMP JUMPDEST PUSH0 PUSH3 0x999 PUSH3 0x993 PUSH3 0x98D DUP5 PUSH3 0x967 JUMP JUMPDEST PUSH3 0x970 JUMP JUMPDEST PUSH3 0x967 JUMP JUMPDEST SWAP1 POP SWAP2 SWAP1 POP JUMP JUMPDEST PUSH0 DUP2 SWAP1 POP SWAP2 SWAP1 POP JUMP JUMPDEST PUSH3 0x9B4 DUP4 PUSH3 0x979 JUMP JUMPDEST PUSH3 0x9CC PUSH3 0x9C3 DUP3 PUSH3 0x9A0 JUMP JUMPDEST DUP5 DUP5 SLOAD PUSH3 0x912 JUMP JUMPDEST DUP3 SSTORE POP POP POP POP JUMP JUMPDEST PUSH0 SWAP1 JUMP JUMPDEST PUSH3 0x9E2 PUSH3 0x9D4 JUMP JUMPDEST PUSH3 0x9EF DUP2 DUP5 DUP5 PUSH3 0x9A9 JUMP JUMPDEST POP POP POP JUMP JUMPDEST JUMPDEST DUP2 DUP2 LT ISZERO PUSH3 0xA16 JUMPI PUSH3 0xA0A PUSH0 DUP3 PUSH3 0x9D8 JUMP JUMPDEST PUSH1 0x1 DUP2 ADD SWAP1 POP PUSH3 0x9F5 JUMP JUMPDEST POP POP JUMP JUMPDEST PUSH1 0x1F DUP3 GT ISZERO PUSH3 0xA65 JUMPI PUSH3 0xA2F DUP2 PUSH3 0x8E5 JUMP JUMPDEST PUSH3 0xA3A DUP5 PUSH3 0x8F7 JUMP JUMPDEST DUP2 ADD PUSH1 0x20 DUP6 LT ISZERO PUSH3 0xA4A JUMPI DUP2 SWAP1 POP JUMPDEST PUSH3 0xA62 PUSH3 0xA59 DUP6 PUSH3 0x8F7 JUMP JUMPDEST DUP4 ADD DUP3 PUSH3 0x9F4 JUMP JUMPDEST POP POP JUMPDEST POP POP POP JUMP JUMPDEST PUSH0 DUP3 DUP3 SHR SWAP1 POP SWAP3 SWAP2 POP POP JUMP JUMPDEST PUSH0 PUSH3 0xA87 PUSH0 NOT DUP5 PUSH1 0x8 MUL PUSH3 0xA6A JUMP JUMPDEST NOT DUP1 DUP4 AND SWAP2 POP POP SWAP3 SWAP2 POP POP JUMP JUMPDEST PUSH0 PUSH3 0xAA1 DUP4 DUP4 PUSH3 0xA76 JUMP JUMPDEST SWAP2 POP DUP3 PUSH1 0x2 MUL DUP3 OR SWAP1 POP SWAP3 SWAP2 POP POP JUMP JUMPDEST PUSH3 0xABC DUP3 PUSH3 0x84D JUMP JUMPDEST PUSH8 0xFFFFFFFFFFFFFFFF DUP2 GT ISZERO PUSH3 0xAD8 JUMPI PUSH3 0xAD7 PUSH3 0x857 JUMP JUMPDEST JUMPDEST PUSH3 0xAE4 DUP3 SLOAD PUSH3 0x8B1 JUMP JUMPDEST PUSH3 0xAF1 DUP3 DUP3 DUP6 PUSH3 0xA1A JUMP JUMPDEST PUSH0 PUSH1 0x20 SWAP1 POP PUSH1 0x1F DUP4 GT PUSH1 0x1 DUP2 EQ PUSH3 0xB27 JUMPI PUSH0 DUP5 ISZERO PUSH3 0xB12 JUMPI DUP3 DUP8 ADD MLOAD SWAP1 POP JUMPDEST PUSH3 0xB1E DUP6 DUP3 PUSH3 0xA94 JUMP JUMPDEST DUP7 SSTORE POP PUSH3 0xB8D JUMP JUMPDEST PUSH1 0x1F NOT DUP5 AND PUSH3 0xB37 DUP7 PUSH3 0x8E5 JUMP JUMPDEST PUSH0 JUMPDEST DUP3 DUP2 LT ISZERO PUSH3 0xB60 JUMPI DUP5 DUP10 ADD MLOAD DUP3 SSTORE PUSH1 0x1 DUP3 ADD SWAP2 POP PUSH1 0x20 DUP6 ADD SWAP5 POP PUSH1 0x20 DUP2 ADD SWAP1 POP PUSH3 0xB39 JUMP JUMPDEST DUP7 DUP4 LT ISZERO PUSH3 0xB80 JUMPI DUP5 DUP10 ADD MLOAD PUSH3 0xB7C PUSH1 0x1F DUP10 AND DUP3 PUSH3 0xA76 JUMP JUMPDEST DUP4 SSTORE POP JUMPDEST PUSH1 0x1 PUSH1 0x2 DUP9 MUL ADD DUP9 SSTORE POP POP POP JUMPDEST POP POP POP POP POP POP JUMP JUMPDEST PUSH0 PUSH20 0xFFFFFFFFFFFFFFFFFFFFFFFFFFFFFFFFFFFFFFFF DUP3 AND SWAP1 POP SWAP2 SWAP1 POP JUMP JUMPDEST PUSH0 PUSH3 0xBC0 DUP3 PUSH3 0xB95 JUMP JUMPDEST SWAP1 POP SWAP2 SWAP1 POP JUMP JUMPDEST PUSH3 0xBD2 DUP2 PUSH3 0xBB4 JUMP JUMPDEST DUP3 MSTORE POP POP JUMP JUMPDEST PUSH0 PUSH1 0x20 DUP3 ADD SWAP1 POP PUSH3 0xBED PUSH0 DUP4 ADD DUP5 PUSH3 0xBC7 JUMP JUMPDEST SWAP3 SWAP2 POP POP JUMP JUMPDEST PUSH32 0x4E487B7100000000000000000000000000000000000000000000000000000000 PUSH0 MSTORE PUSH1 0x11 PUSH1 0x4 MSTORE PUSH1 0x24 PUSH0 REVERT JUMPDEST PUSH0 DUP2 PUSH1 0x1 SHR SWAP1 POP SWAP2 SWAP1 POP JUMP JUMPDEST PUSH0 DUP1 DUP3 SWAP2 POP DUP4 SWAP1 POP JUMPDEST PUSH1 0x1 DUP6 GT ISZERO PUSH3 0xC7D JUMPI DUP1 DUP7 DIV DUP2 GT ISZERO PUSH3 0xC55 JUMPI PUSH3 0xC54 PUSH3 0xBF3 JUMP JUMPDEST JUMPDEST PUSH1 0x1 DUP6 AND ISZERO PUSH3 0xC65 JUMPI DUP1 DUP3 MUL SWAP2 POP JUMPDEST DUP1 DUP2 MUL SWAP1 POP PUSH3 0xC75 DUP6 PUSH3 0xC20 JUMP JUMPDEST SWAP5 POP PUSH3 0xC35 JUMP JUMPDEST SWAP5 POP SWAP5 SWAP3 POP POP POP JUMP JUMPDEST PUSH0 DUP3 PUSH3 0xC97 JUMPI PUSH1 0x1 SWAP1 POP PUSH3 0xD69 JUMP JUMPDEST DUP2 PUSH3 0xCA6 JUMPI PUSH0 SWAP1 POP PUSH3 0xD69 JUMP JUMPDEST DUP2 PUSH1 0x1 DUP2 EQ PUSH3 0xCBF JUMPI PUSH1 0x2 DUP2 EQ PUSH3 0xCCA JUMPI PUSH3 0xD00 JUMP JUMPDEST PUSH1 0x1 SWAP2 POP POP PUSH3 0xD69 JUMP JUMPDEST PUSH1 0xFF DUP5 GT ISZERO PUSH3 0xCDF JUMPI PUSH3 0xCDE PUSH3 0xBF3 JUMP JUMPDEST JUMPDEST DUP4 PUSH1 0x2 EXP SWAP2 POP DUP5 DUP3 GT ISZERO PUSH3 0xCF9 JUMPI PUSH3 0xCF8 PUSH3 0xBF3 JUMP JUMPDEST JUMPDEST POP PUSH3 0xD69 JUMP JUMPDEST POP PUSH1 0x20 DUP4 LT PUSH2 0x133 DUP4 LT AND PUSH1 0x4E DUP5 LT PUSH1 0xB DUP5 LT AND OR ISZERO PUSH3 0xD3A JUMPI DUP3 DUP3 EXP SWAP1 POP DUP4 DUP2 GT ISZERO PUSH3 0xD34 JUMPI PUSH3 0xD33 PUSH3 0xBF3 JUMP JUMPDEST JUMPDEST PUSH3 0xD69 JUMP JUMPDEST PUSH3 0xD49 DUP5 DUP5 DUP5 PUSH1 0x1 PUSH3 0xC2C JUMP JUMPDEST SWAP3 POP SWAP1 POP DUP2 DUP5 DIV DUP2 GT ISZERO PUSH3 0xD63 JUMPI PUSH3 0xD62 PUSH3 0xBF3 JUMP JUMPDEST JUMPDEST DUP2 DUP2 MUL SWAP1 POP JUMPDEST SWAP4 SWAP3 POP POP POP JUMP JUMPDEST PUSH0 PUSH3 0xD7C DUP3 PUSH3 0x967 JUMP JUMPDEST SWAP2 POP PUSH3 0xD89 DUP4 PUSH3 0x967 JUMP JUMPDEST SWAP3 POP PUSH3 0xDB8 PUSH32 0xFFFFFFFFFFFFFFFFFFFFFFFFFFFFFFFFFFFFFFFFFFFFFFFFFFFFFFFFFFFFFFFF DUP5 DUP5 PUSH3 0xC86 JUMP JUMPDEST SWAP1 POP SWAP3 SWAP2 POP POP JUMP JUMPDEST PUSH0 PUSH3 0xDCC DUP3 PUSH3 0x967 JUMP JUMPDEST SWAP2 POP PUSH3 0xDD9 DUP4 PUSH3 0x967 JUMP JUMPDEST SWAP3 POP DUP3 DUP3 MUL PUSH3 0xDE9 DUP2 PUSH3 0x967 JUMP JUMPDEST SWAP2 POP DUP3 DUP3 DIV DUP5 EQ DUP4 ISZERO OR PUSH3 0xE03 JUMPI PUSH3 0xE02 PUSH3 0xBF3 JUMP JUMPDEST JUMPDEST POP SWAP3 SWAP2 POP POP JUMP JUMPDEST PUSH0 DUP3 DUP3 MSTORE PUSH1 0x20 DUP3 ADD SWAP1 POP SWAP3 SWAP2 POP POP JUMP JUMPDEST PUSH32 0x546F6B656E207472616E73666572207768696C65207061757365640000000000 PUSH0 DUP3 ADD MSTORE POP JUMP JUMPDEST PUSH0 PUSH3 0xE50 PUSH1 0x1B DUP4 PUSH3 0xE0A JUMP JUMPDEST SWAP2 POP PUSH3 0xE5D DUP3 PUSH3 0xE1A JUMP JUMPDEST PUSH1 0x20 DUP3 ADD SWAP1 POP SWAP2 SWAP1 POP JUMP JUMPDEST PUSH0 PUSH1 0x20 DUP3 ADD SWAP1 POP DUP2 DUP2 SUB PUSH0 DUP4 ADD MSTORE PUSH3 0xE81 DUP2 PUSH3 0xE42 JUMP JUMPDEST SWAP1 POP SWAP2 SWAP1 POP JUMP JUMPDEST PUSH32 0x45524332304C6F636B61626C653A207472616E7366657220616D6F756E742065 PUSH0 DUP3 ADD MSTORE PUSH32 0x78636565647320756E6C6F636B65642062616C616E6365000000000000000000 PUSH1 0x20 DUP3 ADD MSTORE POP JUMP JUMPDEST PUSH0 PUSH3 0xEE4 PUSH1 0x37 DUP4 PUSH3 0xE0A JUMP JUMPDEST SWAP2 POP PUSH3 0xEF1 DUP3 PUSH3 0xE88 JUMP JUMPDEST PUSH1 0x40 DUP3 ADD SWAP1 POP SWAP2 SWAP1 POP JUMP JUMPDEST PUSH0 PUSH1 0x20 DUP3 ADD SWAP1 POP DUP2 DUP2 SUB PUSH0 DUP4 ADD MSTORE PUSH3 0xF15 DUP2 PUSH3 0xED6 JUMP JUMPDEST SWAP1 POP SWAP2 SWAP1 POP JUMP JUMPDEST PUSH32 0x4E487B7100000000000000000000000000000000000000000000000000000000 PUSH0 MSTORE PUSH1 0x32 PUSH1 0x4 MSTORE PUSH1 0x24 PUSH0 REVERT JUMPDEST PUSH0 PUSH3 0xF55 DUP3 PUSH3 0x967 JUMP JUMPDEST SWAP2 POP PUSH3 0xF62 DUP4 PUSH3 0x967 JUMP JUMPDEST SWAP3 POP DUP3 DUP3 ADD SWAP1 POP DUP1 DUP3 GT ISZERO PUSH3 0xF7D JUMPI PUSH3 0xF7C PUSH3 0xBF3 JUMP JUMPDEST JUMPDEST SWAP3 SWAP2 POP POP JUMP JUMPDEST PUSH0 PUSH3 0xF8F DUP3 PUSH3 0x967 JUMP JUMPDEST SWAP2 POP PUSH3 0xF9C DUP4 PUSH3 0x967 JUMP JUMPDEST SWAP3 POP DUP3 DUP3 SUB SWAP1 POP DUP2 DUP2 GT ISZERO PUSH3 0xFB7 JUMPI PUSH3 0xFB6 PUSH3 0xBF3 JUMP JUMPDEST JUMPDEST SWAP3 SWAP2 POP POP JUMP JUMPDEST PUSH3 0xFC8 DUP2 PUSH3 0x967 JUMP JUMPDEST DUP3 MSTORE POP POP JUMP JUMPDEST PUSH0 PUSH1 0x60 DUP3 ADD SWAP1 POP PUSH3 0xFE3 PUSH0 DUP4 ADD DUP7 PUSH3 0xBC7 JUMP JUMPDEST PUSH3 0xFF2 PUSH1 0x20 DUP4 ADD DUP6 PUSH3 0xFBD JUMP JUMPDEST PUSH3 0x1001 PUSH1 0x40 DUP4 ADD DUP5 PUSH3 0xFBD JUMP JUMPDEST SWAP5 SWAP4 POP POP POP POP JUMP JUMPDEST PUSH0 PUSH1 0x20 DUP3 ADD SWAP1 POP PUSH3 0x101E PUSH0 DUP4 ADD DUP5 PUSH3 0xFBD JUMP JUMPDEST SWAP3 SWAP2 POP POP JUMP JUMPDEST PUSH2 0x233F DUP1 PUSH3 0x1032 PUSH0 CODECOPY PUSH0 RETURN INVALID PUSH1 0x80 PUSH1 0x40 MSTORE CALLVALUE DUP1 ISZERO PUSH2 0xF JUMPI PUSH0 DUP1 REVERT JUMPDEST POP PUSH1 0x4 CALLDATASIZE LT PUSH2 0x14B JUMPI PUSH0 CALLDATALOAD PUSH1 0xE0 SHR DUP1 PUSH4 0x70A08231 GT PUSH2 0xC1 JUMPI DUP1 PUSH4 0x929EC537 GT PUSH2 0x7A JUMPI DUP1 PUSH4 0x929EC537 EQ PUSH2 0x33B JUMPI DUP1 PUSH4 0x95D89B41 EQ PUSH2 0x36B JUMPI DUP1 PUSH4 0xA9059CBB EQ PUSH2 0x389 JUMPI DUP1 PUSH4 0xD1C46916 EQ PUSH2 0x3B9 JUMPI DUP1 PUSH4 0xDD62ED3E EQ PUSH2 0x3D5 JUMPI DUP1 PUSH4 0xF2FDE38B EQ PUSH2 0x405 JUMPI PUSH2 0x14B JUMP JUMPDEST DUP1 PUSH4 0x70A08231 EQ PUSH2 0x2A1 JUMPI DUP1 PUSH4 0x715018A6 EQ PUSH2 0x2D1 JUMPI DUP1 PUSH4 0x79CC6790 EQ PUSH2 0x2DB JUMPI DUP1 PUSH4 0x8456CB59 EQ PUSH2 0x2F7 JUMPI DUP1 PUSH4 0x8D1FDF2F EQ PUSH2 0x301 JUMPI DUP1 PUSH4 0x8DA5CB5B EQ PUSH2 0x31D JUMPI PUSH2 0x14B JUMP JUMPDEST DUP1 PUSH4 0x38B82092 GT PUSH2 0x113 JUMPI DUP1 PUSH4 0x38B82092 EQ PUSH2 0x209 JUMPI DUP1 PUSH4 0x3F4BA83A EQ PUSH2 0x225 JUMPI DUP1 PUSH4 0x42966C68 EQ PUSH2 0x22F JUMPI DUP1 PUSH4 0x45C8B1A6 EQ PUSH2 0x24B JUMPI DUP1 PUSH4 0x5C975ABB EQ PUSH2 0x267 JUMPI DUP1 PUSH4 0x5E1372F4 EQ PUSH2 0x285 JUMPI PUSH2 0x14B JUMP JUMPDEST DUP1 PUSH4 0x6FDDE03 EQ PUSH2 0x14F JUMPI DUP1 PUSH4 0x95EA7B3 EQ PUSH2 0x16D JUMPI DUP1 PUSH4 0x18160DDD EQ PUSH2 0x19D JUMPI DUP1 PUSH4 0x23B872DD EQ PUSH2 0x1BB JUMPI DUP1 PUSH4 0x313CE567 EQ PUSH2 0x1EB JUMPI JUMPDEST PUSH0 DUP1 REVERT JUMPDEST PUSH2 0x157 PUSH2 0x421 JUMP JUMPDEST PUSH1 0x40 MLOAD PUSH2 0x164 SWAP2 SWAP1 PUSH2 0x1B44 JUMP JUMPDEST PUSH1 0x40 MLOAD DUP1 SWAP2 SUB SWAP1 RETURN JUMPDEST PUSH2 0x187 PUSH1 0x4 DUP1 CALLDATASIZE SUB DUP2 ADD SWAP1 PUSH2 0x182 SWAP2 SWAP1 PUSH2 0x1BF5 JUMP JUMPDEST PUSH2 0x4B1 JUMP JUMPDEST PUSH1 0x40 MLOAD PUSH2 0x194 SWAP2 SWAP1 PUSH2 0x1C4D JUMP JUMPDEST PUSH1 0x40 MLOAD DUP1 SWAP2 SUB SWAP1 RETURN JUMPDEST PUSH2 0x1A5 PUSH2 0x4D3 JUMP JUMPDEST PUSH1 0x40 MLOAD PUSH2 0x1B2 SWAP2 SWAP1 PUSH2 0x1C75 JUMP JUMPDEST PUSH1 0x40 MLOAD DUP1 SWAP2 SUB SWAP1 RETURN JUMPDEST PUSH2 0x1D5 PUSH1 0x4 DUP1 CALLDATASIZE SUB DUP2 ADD SWAP1 PUSH2 0x1D0 SWAP2 SWAP1 PUSH2 0x1C8E JUMP JUMPDEST PUSH2 0x4DC JUMP JUMPDEST PUSH1 0x40 MLOAD PUSH2 0x1E2 SWAP2 SWAP1 PUSH2 0x1C4D JUMP JUMPDEST PUSH1 0x40 MLOAD DUP1 SWAP2 SUB SWAP1 RETURN JUMPDEST PUSH2 0x1F3 PUSH2 0x50A JUMP JUMPDEST PUSH1 0x40 MLOAD PUSH2 0x200 SWAP2 SWAP1 PUSH2 0x1CF9 JUMP JUMPDEST PUSH1 0x40 MLOAD DUP1 SWAP2 SUB SWAP1 RETURN JUMPDEST PUSH2 0x223 PUSH1 0x4 DUP1 CALLDATASIZE SUB DUP2 ADD SWAP1 PUSH2 0x21E SWAP2 SWAP1 PUSH2 0x1D12 JUMP JUMPDEST PUSH2 0x512 JUMP JUMPDEST STOP JUMPDEST PUSH2 0x22D PUSH2 0x540 JUMP JUMPDEST STOP JUMPDEST PUSH2 0x249 PUSH1 0x4 DUP1 CALLDATASIZE SUB DUP2 ADD SWAP1 PUSH2 0x244 SWAP2 SWAP1 PUSH2 0x1D62 JUMP JUMPDEST PUSH2 0x552 JUMP JUMPDEST STOP JUMPDEST PUSH2 0x265 PUSH1 0x4 DUP1 CALLDATASIZE SUB DUP2 ADD SWAP1 PUSH2 0x260 SWAP2 SWAP1 PUSH2 0x1D8D JUMP JUMPDEST PUSH2 0x566 JUMP JUMPDEST STOP JUMPDEST PUSH2 0x26F PUSH2 0x691 JUMP JUMPDEST PUSH1 0x40 MLOAD PUSH2 0x27C SWAP2 SWAP1 PUSH2 0x1C4D JUMP JUMPDEST PUSH1 0x40 MLOAD DUP1 SWAP2 SUB SWAP1 RETURN JUMPDEST PUSH2 0x29F PUSH1 0x4 DUP1 CALLDATASIZE SUB DUP2 ADD SWAP1 PUSH2 0x29A SWAP2 SWAP1 PUSH2 0x1D12 JUMP JUMPDEST PUSH2 0x6A6 JUMP JUMPDEST STOP JUMPDEST PUSH2 0x2BB PUSH1 0x4 DUP1 CALLDATASIZE SUB DUP2 ADD SWAP1 PUSH2 0x2B6 SWAP2 SWAP1 PUSH2 0x1D8D JUMP JUMPDEST PUSH2 0x78A JUMP JUMPDEST PUSH1 0x40 MLOAD PUSH2 0x2C8 SWAP2 SWAP1 PUSH2 0x1C75 JUMP JUMPDEST PUSH1 0x40 MLOAD DUP1 SWAP2 SUB SWAP1 RETURN JUMPDEST PUSH2 0x2D9 PUSH2 0x7CF JUMP JUMPDEST STOP JUMPDEST PUSH2 0x2F5 PUSH1 0x4 DUP1 CALLDATASIZE SUB DUP2 ADD SWAP1 PUSH2 0x2F0 SWAP2 SWAP1 PUSH2 0x1BF5 JUMP JUMPDEST PUSH2 0x7E2 JUMP JUMPDEST STOP JUMPDEST PUSH2 0x2FF PUSH2 0x802 JUMP JUMPDEST STOP JUMPDEST PUSH2 0x31B PUSH1 0x4 DUP1 CALLDATASIZE SUB DUP2 ADD SWAP1 PUSH2 0x316 SWAP2 SWAP1 PUSH2 0x1D8D JUMP JUMPDEST PUSH2 0x814 JUMP JUMPDEST STOP JUMPDEST PUSH2 0x325 PUSH2 0x941 JUMP JUMPDEST PUSH1 0x40 MLOAD PUSH2 0x332 SWAP2 SWAP1 PUSH2 0x1DC7 JUMP JUMPDEST PUSH1 0x40 MLOAD DUP1 SWAP2 SUB SWAP1 RETURN JUMPDEST PUSH2 0x355 PUSH1 0x4 DUP1 CALLDATASIZE SUB DUP2 ADD SWAP1 PUSH2 0x350 SWAP2 SWAP1 PUSH2 0x1D8D JUMP JUMPDEST PUSH2 0x96A JUMP JUMPDEST PUSH1 0x40 MLOAD PUSH2 0x362 SWAP2 SWAP1 PUSH2 0x1C75 JUMP JUMPDEST PUSH1 0x40 MLOAD DUP1 SWAP2 SUB SWAP1 RETURN JUMPDEST PUSH2 0x373 PUSH2 0xAA2 JUMP JUMPDEST PUSH1 0x40 MLOAD PUSH2 0x380 SWAP2 SWAP1 PUSH2 0x1B44 JUMP JUMPDEST PUSH1 0x40 MLOAD DUP1 SWAP2 SUB SWAP1 RETURN JUMPDEST PUSH2 0x3A3 PUSH1 0x4 DUP1 CALLDATASIZE SUB DUP2 ADD SWAP1 PUSH2 0x39E SWAP2 SWAP1 PUSH2 0x1BF5 JUMP JUMPDEST PUSH2 0xB32 JUMP JUMPDEST PUSH1 0x40 MLOAD PUSH2 0x3B0 SWAP2 SWAP1 PUSH2 0x1C4D JUMP JUMPDEST PUSH1 0x40 MLOAD DUP1 SWAP2 SUB SWAP1 RETURN JUMPDEST PUSH2 0x3D3 PUSH1 0x4 DUP1 CALLDATASIZE SUB DUP2 ADD SWAP1 PUSH2 0x3CE SWAP2 SWAP1 PUSH2 0x1D8D JUMP JUMPDEST PUSH2 0xB54 JUMP JUMPDEST STOP JUMPDEST PUSH2 0x3EF PUSH1 0x4 DUP1 CALLDATASIZE SUB DUP2 ADD SWAP1 PUSH2 0x3EA SWAP2 SWAP1 PUSH2 0x1DE0 JUMP JUMPDEST PUSH2 0xE75 JUMP JUMPDEST PUSH1 0x40 MLOAD PUSH2 0x3FC SWAP2 SWAP1 PUSH2 0x1C75 JUMP JUMPDEST PUSH1 0x40 MLOAD DUP1 SWAP2 SUB SWAP1 RETURN JUMPDEST PUSH2 0x41F PUSH1 0x4 DUP1 CALLDATASIZE SUB DUP2 ADD SWAP1 PUSH2 0x41A SWAP2 SWAP1 PUSH2 0x1D8D JUMP JUMPDEST PUSH2 0xEF7 JUMP JUMPDEST STOP JUMPDEST PUSH1 0x60 PUSH1 0x3 DUP1 SLOAD PUSH2 0x430 SWAP1 PUSH2 0x1E4B JUMP JUMPDEST DUP1 PUSH1 0x1F ADD PUSH1 0x20 DUP1 SWAP2 DIV MUL PUSH1 0x20 ADD PUSH1 0x40 MLOAD SWAP1 DUP2 ADD PUSH1 0x40 MSTORE DUP1 SWAP3 SWAP2 SWAP1 DUP2 DUP2 MSTORE PUSH1 0x20 ADD DUP3 DUP1 SLOAD PUSH2 0x45C SWAP1 PUSH2 0x1E4B JUMP JUMPDEST DUP1 ISZERO PUSH2 0x4A7 JUMPI DUP1 PUSH1 0x1F LT PUSH2 0x47E JUMPI PUSH2 0x100 DUP1 DUP4 SLOAD DIV MUL DUP4 MSTORE SWAP2 PUSH1 0x20 ADD SWAP2 PUSH2 0x4A7 JUMP JUMPDEST DUP3 ADD SWAP2 SWAP1 PUSH0 MSTORE PUSH1 0x20 PUSH0 KECCAK256 SWAP1 JUMPDEST DUP2 SLOAD DUP2 MSTORE SWAP1 PUSH1 0x1 ADD SWAP1 PUSH1 0x20 ADD DUP1 DUP4 GT PUSH2 0x48A JUMPI DUP3 SWAP1 SUB PUSH1 0x1F AND DUP3 ADD SWAP2 JUMPDEST POP POP POP POP POP SWAP1 POP SWAP1 JUMP JUMPDEST PUSH0 DUP1 PUSH2 0x4BB PUSH2 0xF7B JUMP JUMPDEST SWAP1 POP PUSH2 0x4C8 DUP2 DUP6 DUP6 PUSH2 0xF82 JUMP JUMPDEST PUSH1 0x1 SWAP2 POP POP SWAP3 SWAP2 POP POP JUMP JUMPDEST PUSH0 PUSH1 0x2 SLOAD SWAP1 POP SWAP1 JUMP JUMPDEST PUSH0 DUP1 PUSH2 0x4E6 PUSH2 0xF7B JUMP JUMPDEST SWAP1 POP PUSH2 0x4F3 DUP6 DUP3 DUP6 PUSH2 0xF94 JUMP JUMPDEST PUSH2 0x4FE DUP6 DUP6 DUP6 PUSH2 0x1026 JUMP JUMPDEST PUSH1 0x1 SWAP2 POP POP SWAP4 SWAP3 POP POP POP JUMP JUMPDEST PUSH0 PUSH1 0x12 SWAP1 POP SWAP1 JUMP JUMPDEST PUSH2 0x51A PUSH2 0x1116 JUMP JUMPDEST PUSH2 0x525 CALLER DUP5 DUP5 PUSH2 0x1026 JUMP JUMPDEST PUSH2 0x53B DUP4 DUP4 DUP4 TIMESTAMP PUSH2 0x536 SWAP2 SWAP1 PUSH2 0x1EA8 JUMP JUMPDEST PUSH2 0x6A6 JUMP JUMPDEST POP POP POP JUMP JUMPDEST PUSH2 0x548 PUSH2 0x1116 JUMP JUMPDEST PUSH2 0x550 PUSH2 0x119D JUMP JUMPDEST JUMP JUMPDEST PUSH2 0x563 PUSH2 0x55D PUSH2 0xF7B JUMP JUMPDEST DUP3 PUSH2 0x11FE JUMP JUMPDEST POP JUMP JUMPDEST PUSH2 0x56E PUSH2 0x1116 JUMP JUMPDEST PUSH1 0x6 PUSH0 DUP3 PUSH20 0xFFFFFFFFFFFFFFFFFFFFFFFFFFFFFFFFFFFFFFFF AND PUSH20 0xFFFFFFFFFFFFFFFFFFFFFFFFFFFFFFFFFFFFFFFF AND DUP2 MSTORE PUSH1 0x20 ADD SWAP1 DUP2 MSTORE PUSH1 0x20 ADD PUSH0 KECCAK256 PUSH0 SWAP1 SLOAD SWAP1 PUSH2 0x100 EXP SWAP1 DIV PUSH1 0xFF AND PUSH2 0x5F7 JUMPI PUSH1 0x40 MLOAD PUSH32 0x8C379A000000000000000000000000000000000000000000000000000000000 DUP2 MSTORE PUSH1 0x4 ADD PUSH2 0x5EE SWAP1 PUSH2 0x1F25 JUMP JUMPDEST PUSH1 0x40 MLOAD DUP1 SWAP2 SUB SWAP1 REVERT JUMPDEST PUSH0 PUSH1 0x6 PUSH0 DUP4 PUSH20 0xFFFFFFFFFFFFFFFFFFFFFFFFFFFFFFFFFFFFFFFF AND PUSH20 0xFFFFFFFFFFFFFFFFFFFFFFFFFFFFFFFFFFFFFFFF AND DUP2 MSTORE PUSH1 0x20 ADD SWAP1 DUP2 MSTORE PUSH1 0x20 ADD PUSH0 KECCAK256 PUSH0 PUSH2 0x100 EXP DUP2 SLOAD DUP2 PUSH1 0xFF MUL NOT AND SWAP1 DUP4 ISZERO ISZERO MUL OR SWAP1 SSTORE POP DUP1 PUSH20 0xFFFFFFFFFFFFFFFFFFFFFFFFFFFFFFFFFFFFFFFF AND PUSH32 0xF915CD9FE234DE6E8D3AFE7BF2388D35B2B6D48E8C629A24602019BDE79C213A PUSH1 0x40 MLOAD PUSH1 0x40 MLOAD DUP1 SWAP2 SUB SWAP1 LOG2 POP JUMP JUMPDEST PUSH0 PUSH1 0x5 PUSH0 SWAP1 SLOAD SWAP1 PUSH2 0x100 EXP SWAP1 DIV PUSH1 0xFF AND SWAP1 POP SWAP1 JUMP JUMPDEST PUSH2 0x6AE PUSH2 0x1116 JUMP JUMPDEST DUP2 PUSH2 0x6B8 DUP5 PUSH2 0x78A JUMP JUMPDEST LT ISZERO PUSH2 0x6F9 JUMPI PUSH1 0x40 MLOAD PUSH32 0x8C379A000000000000000000000000000000000000000000000000000000000 DUP2 MSTORE PUSH1 0x4 ADD PUSH2 0x6F0 SWAP1 PUSH2 0x1F8D JUMP JUMPDEST PUSH1 0x40 MLOAD DUP1 SWAP2 SUB SWAP1 REVERT JUMPDEST PUSH1 0x7 PUSH0 DUP5 PUSH20 0xFFFFFFFFFFFFFFFFFFFFFFFFFFFFFFFFFFFFFFFF AND PUSH20 0xFFFFFFFFFFFFFFFFFFFFFFFFFFFFFFFFFFFFFFFF AND DUP2 MSTORE PUSH1 0x20 ADD SWAP1 DUP2 MSTORE PUSH1 0x20 ADD PUSH0 KECCAK256 PUSH1 0x40 MLOAD DUP1 PUSH1 0x40 ADD PUSH1 0x40 MSTORE DUP1 DUP5 DUP2 MSTORE PUSH1 0x20 ADD DUP4 DUP2 MSTORE POP SWAP1 DUP1 PUSH1 0x1 DUP2 SLOAD ADD DUP1 DUP3 SSTORE DUP1 SWAP2 POP POP PUSH1 0x1 SWAP1 SUB SWAP1 PUSH0 MSTORE PUSH1 0x20 PUSH0 KECCAK256 SWAP1 PUSH1 0x2 MUL ADD PUSH0 SWAP1 SWAP2 SWAP1 SWAP2 SWAP1 SWAP2 POP PUSH0 DUP3 ADD MLOAD DUP2 PUSH0 ADD SSTORE PUSH1 0x20 DUP3 ADD MLOAD DUP2 PUSH1 0x1 ADD SSTORE POP POP POP POP POP JUMP JUMPDEST PUSH0 DUP1 PUSH0 DUP4 PUSH20 0xFFFFFFFFFFFFFFFFFFFFFFFFFFFFFFFFFFFFFFFF AND PUSH20 0xFFFFFFFFFFFFFFFFFFFFFFFFFFFFFFFFFFFFFFFF AND DUP2 MSTORE PUSH1 0x20 ADD SWAP1 DUP2 MSTORE PUSH1 0x20 ADD PUSH0 KECCAK256 SLOAD SWAP1 POP SWAP2 SWAP1 POP JUMP JUMPDEST PUSH2 0x7D7 PUSH2 0x1116 JUMP JUMPDEST PUSH2 0x7E0 PUSH0 PUSH2 0x127D JUMP JUMPDEST JUMP JUMPDEST PUSH2 0x7F4 DUP3 PUSH2 0x7EE PUSH2 0xF7B JUMP JUMPDEST DUP4 PUSH2 0xF94 JUMP JUMPDEST PUSH2 0x7FE DUP3 DUP3 PUSH2 0x11FE JUMP JUMPDEST POP POP JUMP JUMPDEST PUSH2 0x80A PUSH2 0x1116 JUMP JUMPDEST PUSH2 0x812 PUSH2 0x1342 JUMP JUMPDEST JUMP JUMPDEST PUSH2 0x81C PUSH2 0x1116 JUMP JUMPDEST PUSH1 0x6 PUSH0 DUP3 PUSH20 0xFFFFFFFFFFFFFFFFFFFFFFFFFFFFFFFFFFFFFFFF AND PUSH20 0xFFFFFFFFFFFFFFFFFFFFFFFFFFFFFFFFFFFFFFFF AND DUP2 MSTORE PUSH1 0x20 ADD SWAP1 DUP2 MSTORE PUSH1 0x20 ADD PUSH0 KECCAK256 PUSH0 SWAP1 SLOAD SWAP1 PUSH2 0x100 EXP SWAP1 DIV PUSH1 0xFF AND ISZERO PUSH2 0x8A6 JUMPI PUSH1 0x40 MLOAD PUSH32 0x8C379A000000000000000000000000000000000000000000000000000000000 DUP2 MSTORE PUSH1 0x4 ADD PUSH2 0x89D SWAP1 PUSH2 0x1FF5 JUMP JUMPDEST PUSH1 0x40 MLOAD DUP1 SWAP2 SUB SWAP1 REVERT JUMPDEST PUSH1 0x1 PUSH1 0x6 PUSH0 DUP4 PUSH20 0xFFFFFFFFFFFFFFFFFFFFFFFFFFFFFFFFFFFFFFFF AND PUSH20 0xFFFFFFFFFFFFFFFFFFFFFFFFFFFFFFFFFFFFFFFF AND DUP2 MSTORE PUSH1 0x20 ADD SWAP1 DUP2 MSTORE PUSH1 0x20 ADD PUSH0 KECCAK256 PUSH0 PUSH2 0x100 EXP DUP2 SLOAD DUP2 PUSH1 0xFF MUL NOT AND SWAP1 DUP4 ISZERO ISZERO MUL OR SWAP1 SSTORE POP DUP1 PUSH20 0xFFFFFFFFFFFFFFFFFFFFFFFFFFFFFFFFFFFFFFFF AND PUSH32 0x4F2A367E694E71282F29AB5EAA04C4C0BE45AC5BF2CA74FB67068B98BDC2887D PUSH1 0x40 MLOAD PUSH1 0x40 MLOAD DUP1 SWAP2 SUB SWAP1 LOG2 POP JUMP JUMPDEST PUSH0 PUSH1 0x5 PUSH1 0x1 SWAP1 SLOAD SWAP1 PUSH2 0x100 EXP SWAP1 DIV PUSH20 0xFFFFFFFFFFFFFFFFFFFFFFFFFFFFFFFFFFFFFFFF AND SWAP1 POP SWAP1 JUMP JUMPDEST PUSH0 DUP1 PUSH0 SWAP1 POP PUSH0 JUMPDEST PUSH1 0x7 PUSH0 DUP6 PUSH20 0xFFFFFFFFFFFFFFFFFFFFFFFFFFFFFFFFFFFFFFFF AND PUSH20 0xFFFFFFFFFFFFFFFFFFFFFFFFFFFFFFFFFFFFFFFF AND DUP2 MSTORE PUSH1 0x20 ADD SWAP1 DUP2 MSTORE PUSH1 0x20 ADD PUSH0 KECCAK256 DUP1 SLOAD SWAP1 POP DUP2 LT ISZERO PUSH2 0xA98 JUMPI TIMESTAMP PUSH1 0x7 PUSH0 DUP7 PUSH20 0xFFFFFFFFFFFFFFFFFFFFFFFFFFFFFFFFFFFFFFFF AND PUSH20 0xFFFFFFFFFFFFFFFFFFFFFFFFFFFFFFFFFFFFFFFF AND DUP2 MSTORE PUSH1 0x20 ADD SWAP1 DUP2 MSTORE PUSH1 0x20 ADD PUSH0 KECCAK256 DUP3 DUP2 SLOAD DUP2 LT PUSH2 0xA09 JUMPI PUSH2 0xA08 PUSH2 0x2013 JUMP JUMPDEST JUMPDEST SWAP1 PUSH0 MSTORE PUSH1 0x20 PUSH0 KECCAK256 SWAP1 PUSH1 0x2 MUL ADD PUSH1 0x1 ADD SLOAD GT ISZERO PUSH2 0xA8B JUMPI PUSH1 0x7 PUSH0 DUP6 PUSH20 0xFFFFFFFFFFFFFFFFFFFFFFFFFFFFFFFFFFFFFFFF AND PUSH20 0xFFFFFFFFFFFFFFFFFFFFFFFFFFFFFFFFFFFFFFFF AND DUP2 MSTORE PUSH1 0x20 ADD SWAP1 DUP2 MSTORE PUSH1 0x20 ADD PUSH0 KECCAK256 DUP2 DUP2 SLOAD DUP2 LT PUSH2 0xA6E JUMPI PUSH2 0xA6D PUSH2 0x2013 JUMP JUMPDEST JUMPDEST SWAP1 PUSH0 MSTORE PUSH1 0x20 PUSH0 KECCAK256 SWAP1 PUSH1 0x2 MUL ADD PUSH0 ADD SLOAD DUP3 PUSH2 0xA88 SWAP2 SWAP1 PUSH2 0x1EA8 JUMP JUMPDEST SWAP2 POP JUMPDEST DUP1 DUP1 PUSH1 0x1 ADD SWAP2 POP POP PUSH2 0x971 JUMP JUMPDEST POP DUP1 SWAP2 POP POP SWAP2 SWAP1 POP JUMP JUMPDEST PUSH1 0x60 PUSH1 0x4 DUP1 SLOAD PUSH2 0xAB1 SWAP1 PUSH2 0x1E4B JUMP JUMPDEST DUP1 PUSH1 0x1F ADD PUSH1 0x20 DUP1 SWAP2 DIV MUL PUSH1 0x20 ADD PUSH1 0x40 MLOAD SWAP1 DUP2 ADD PUSH1 0x40 MSTORE DUP1 SWAP3 SWAP2 SWAP1 DUP2 DUP2 MSTORE PUSH1 0x20 ADD DUP3 DUP1 SLOAD PUSH2 0xADD SWAP1 PUSH2 0x1E4B JUMP JUMPDEST DUP1 ISZERO PUSH2 0xB28 JUMPI DUP1 PUSH1 0x1F LT PUSH2 0xAFF JUMPI PUSH2 0x100 DUP1 DUP4 SLOAD DIV MUL DUP4 MSTORE SWAP2 PUSH1 0x20 ADD SWAP2 PUSH2 0xB28 JUMP JUMPDEST DUP3 ADD SWAP2 SWAP1 PUSH0 MSTORE PUSH1 0x20 PUSH0 KECCAK256 SWAP1 JUMPDEST DUP2 SLOAD DUP2 MSTORE SWAP1 PUSH1 0x1 ADD SWAP1 PUSH1 0x20 ADD DUP1 DUP4 GT PUSH2 0xB0B JUMPI DUP3 SWAP1 SUB PUSH1 0x1F AND DUP3 ADD SWAP2 JUMPDEST POP POP POP POP POP SWAP1 POP SWAP1 JUMP JUMPDEST PUSH0 DUP1 PUSH2 0xB3C PUSH2 0xF7B JUMP JUMPDEST SWAP1 POP PUSH2 0xB49 DUP2 DUP6 DUP6 PUSH2 0x1026 JUMP JUMPDEST PUSH1 0x1 SWAP2 POP POP SWAP3 SWAP2 POP POP JUMP JUMPDEST PUSH0 DUP1 JUMPDEST PUSH1 0x7 PUSH0 DUP5 PUSH20 0xFFFFFFFFFFFFFFFFFFFFFFFFFFFFFFFFFFFFFFFF AND PUSH20 0xFFFFFFFFFFFFFFFFFFFFFFFFFFFFFFFFFFFFFFFF AND DUP2 MSTORE PUSH1 0x20 ADD SWAP1 DUP2 MSTORE PUSH1 0x20 ADD PUSH0 KECCAK256 DUP1 SLOAD SWAP1 POP DUP2 LT ISZERO PUSH2 0xE19 JUMPI TIMESTAMP PUSH1 0x7 PUSH0 DUP6 PUSH20 0xFFFFFFFFFFFFFFFFFFFFFFFFFFFFFFFFFFFFFFFF AND PUSH20 0xFFFFFFFFFFFFFFFFFFFFFFFFFFFFFFFFFFFFFFFF AND DUP2 MSTORE PUSH1 0x20 ADD SWAP1 DUP2 MSTORE PUSH1 0x20 ADD PUSH0 KECCAK256 DUP3 DUP2 SLOAD DUP2 LT PUSH2 0xBEF JUMPI PUSH2 0xBEE PUSH2 0x2013 JUMP JUMPDEST JUMPDEST SWAP1 PUSH0 MSTORE PUSH1 0x20 PUSH0 KECCAK256 SWAP1 PUSH1 0x2 MUL ADD PUSH1 0x1 ADD SLOAD GT PUSH2 0xE06 JUMPI PUSH1 0x7 PUSH0 DUP5 PUSH20 0xFFFFFFFFFFFFFFFFFFFFFFFFFFFFFFFFFFFFFFFF AND PUSH20 0xFFFFFFFFFFFFFFFFFFFFFFFFFFFFFFFFFFFFFFFF AND DUP2 MSTORE PUSH1 0x20 ADD SWAP1 DUP2 MSTORE PUSH1 0x20 ADD PUSH0 KECCAK256 DUP2 DUP2 SLOAD DUP2 LT PUSH2 0xC53 JUMPI PUSH2 0xC52 PUSH2 0x2013 JUMP JUMPDEST JUMPDEST SWAP1 PUSH0 MSTORE PUSH1 0x20 PUSH0 KECCAK256 SWAP1 PUSH1 0x2 MUL ADD PUSH0 ADD SLOAD DUP3 PUSH2 0xC6D SWAP2 SWAP1 PUSH2 0x1EA8 JUMP JUMPDEST SWAP2 POP PUSH1 0x7 PUSH0 DUP5 PUSH20 0xFFFFFFFFFFFFFFFFFFFFFFFFFFFFFFFFFFFFFFFF AND PUSH20 0xFFFFFFFFFFFFFFFFFFFFFFFFFFFFFFFFFFFFFFFF AND DUP2 MSTORE PUSH1 0x20 ADD SWAP1 DUP2 MSTORE PUSH1 0x20 ADD PUSH0 KECCAK256 PUSH1 0x1 PUSH1 0x7 PUSH0 DUP7 PUSH20 0xFFFFFFFFFFFFFFFFFFFFFFFFFFFFFFFFFFFFFFFF AND PUSH20 0xFFFFFFFFFFFFFFFFFFFFFFFFFFFFFFFFFFFFFFFF AND DUP2 MSTORE PUSH1 0x20 ADD SWAP1 DUP2 MSTORE PUSH1 0x20 ADD PUSH0 KECCAK256 DUP1 SLOAD SWAP1 POP PUSH2 0xCF9 SWAP2 SWAP1 PUSH2 0x2040 JUMP JUMPDEST DUP2 SLOAD DUP2 LT PUSH2 0xD0A JUMPI PUSH2 0xD09 PUSH2 0x2013 JUMP JUMPDEST JUMPDEST SWAP1 PUSH0 MSTORE PUSH1 0x20 PUSH0 KECCAK256 SWAP1 PUSH1 0x2 MUL ADD PUSH1 0x7 PUSH0 DUP6 PUSH20 0xFFFFFFFFFFFFFFFFFFFFFFFFFFFFFFFFFFFFFFFF AND PUSH20 0xFFFFFFFFFFFFFFFFFFFFFFFFFFFFFFFFFFFFFFFF AND DUP2 MSTORE PUSH1 0x20 ADD SWAP1 DUP2 MSTORE PUSH1 0x20 ADD PUSH0 KECCAK256 DUP3 DUP2 SLOAD DUP2 LT PUSH2 0xD65 JUMPI PUSH2 0xD64 PUSH2 0x2013 JUMP JUMPDEST JUMPDEST SWAP1 PUSH0 MSTORE PUSH1 0x20 PUSH0 KECCAK256 SWAP1 PUSH1 0x2 MUL ADD PUSH0 DUP3 ADD SLOAD DUP2 PUSH0 ADD SSTORE PUSH1 0x1 DUP3 ADD SLOAD DUP2 PUSH1 0x1 ADD SSTORE SWAP1 POP POP PUSH1 0x7 PUSH0 DUP5 PUSH20 0xFFFFFFFFFFFFFFFFFFFFFFFFFFFFFFFFFFFFFFFF AND PUSH20 0xFFFFFFFFFFFFFFFFFFFFFFFFFFFFFFFFFFFFFFFF AND DUP2 MSTORE PUSH1 0x20 ADD SWAP1 DUP2 MSTORE PUSH1 0x20 ADD PUSH0 KECCAK256 DUP1 SLOAD DUP1 PUSH2 0xDD3 JUMPI PUSH2 0xDD2 PUSH2 0x2073 JUMP JUMPDEST JUMPDEST PUSH1 0x1 SWAP1 SUB DUP2 DUP2 SWAP1 PUSH0 MSTORE PUSH1 0x20 PUSH0 KECCAK256 SWAP1 PUSH1 0x2 MUL ADD PUSH0 DUP1 DUP3 ADD PUSH0 SWAP1 SSTORE PUSH1 0x1 DUP3 ADD PUSH0 SWAP1 SSTORE POP POP SWAP1 SSTORE DUP1 DUP1 PUSH2 0xE02 SWAP1 PUSH2 0x20A0 JUMP JUMPDEST SWAP2 POP POP JUMPDEST DUP1 DUP1 PUSH2 0xE11 SWAP1 PUSH2 0x20C7 JUMP JUMPDEST SWAP2 POP POP PUSH2 0xB57 JUMP JUMPDEST POP PUSH0 DUP2 GT ISZERO PUSH2 0xE71 JUMPI DUP2 PUSH20 0xFFFFFFFFFFFFFFFFFFFFFFFFFFFFFFFFFFFFFFFF AND PUSH32 0x622CA42598AB680A7DEF4A7346E1963A82207CF42A5DDB8056AD62CFBDA19B88 DUP3 PUSH1 0x40 MLOAD PUSH2 0xE68 SWAP2 SWAP1 PUSH2 0x1C75 JUMP JUMPDEST PUSH1 0x40 MLOAD DUP1 SWAP2 SUB SWAP1 LOG2 JUMPDEST POP POP JUMP JUMPDEST PUSH0 PUSH1 0x1 PUSH0 DUP5 PUSH20 0xFFFFFFFFFFFFFFFFFFFFFFFFFFFFFFFFFFFFFFFF AND PUSH20 0xFFFFFFFFFFFFFFFFFFFFFFFFFFFFFFFFFFFFFFFF AND DUP2 MSTORE PUSH1 0x20 ADD SWAP1 DUP2 MSTORE PUSH1 0x20 ADD PUSH0 KECCAK256 PUSH0 DUP4 PUSH20 0xFFFFFFFFFFFFFFFFFFFFFFFFFFFFFFFFFFFFFFFF AND PUSH20 0xFFFFFFFFFFFFFFFFFFFFFFFFFFFFFFFFFFFFFFFF AND DUP2 MSTORE PUSH1 0x20 ADD SWAP1 DUP2 MSTORE PUSH1 0x20 ADD PUSH0 KECCAK256 SLOAD SWAP1 POP SWAP3 SWAP2 POP POP JUMP JUMPDEST PUSH2 0xEFF PUSH2 0x1116 JUMP JUMPDEST PUSH0 PUSH20 0xFFFFFFFFFFFFFFFFFFFFFFFFFFFFFFFFFFFFFFFF AND DUP2 PUSH20 0xFFFFFFFFFFFFFFFFFFFFFFFFFFFFFFFFFFFFFFFF AND SUB PUSH2 0xF6F JUMPI PUSH0 PUSH1 0x40 MLOAD PUSH32 0x1E4FBDF700000000000000000000000000000000000000000000000000000000 DUP2 MSTORE PUSH1 0x4 ADD PUSH2 0xF66 SWAP2 SWAP1 PUSH2 0x1DC7 JUMP JUMPDEST PUSH1 0x40 MLOAD DUP1 SWAP2 SUB SWAP1 REVERT JUMPDEST PUSH2 0xF78 DUP2 PUSH2 0x127D JUMP JUMPDEST POP JUMP JUMPDEST PUSH0 CALLER SWAP1 POP SWAP1 JUMP JUMPDEST PUSH2 0xF8F DUP4 DUP4 DUP4 PUSH1 0x1 PUSH2 0x13A4 JUMP JUMPDEST POP POP POP JUMP JUMPDEST PUSH0 PUSH2 0xF9F DUP5 DUP5 PUSH2 0xE75 JUMP JUMPDEST SWAP1 POP PUSH32 0xFFFFFFFFFFFFFFFFFFFFFFFFFFFFFFFFFFFFFFFFFFFFFFFFFFFFFFFFFFFFFFFF DUP2 EQ PUSH2 0x1020 JUMPI DUP2 DUP2 LT ISZERO PUSH2 0x1011 JUMPI DUP3 DUP2 DUP4 PUSH1 0x40 MLOAD PUSH32 0xFB8F41B200000000000000000000000000000000000000000000000000000000 DUP2 MSTORE PUSH1 0x4 ADD PUSH2 0x1008 SWAP4 SWAP3 SWAP2 SWAP1 PUSH2 0x210E JUMP JUMPDEST PUSH1 0x40 MLOAD DUP1 SWAP2 SUB SWAP1 REVERT JUMPDEST PUSH2 0x101F DUP5 DUP5 DUP5 DUP5 SUB PUSH0 PUSH2 0x13A4 JUMP JUMPDEST JUMPDEST POP POP POP POP JUMP JUMPDEST PUSH0 PUSH20 0xFFFFFFFFFFFFFFFFFFFFFFFFFFFFFFFFFFFFFFFF AND DUP4 PUSH20 0xFFFFFFFFFFFFFFFFFFFFFFFFFFFFFFFFFFFFFFFF AND SUB PUSH2 0x1096 JUMPI PUSH0 PUSH1 0x40 MLOAD PUSH32 0x96C6FD1E00000000000000000000000000000000000000000000000000000000 DUP2 MSTORE PUSH1 0x4 ADD PUSH2 0x108D SWAP2 SWAP1 PUSH2 0x1DC7 JUMP JUMPDEST PUSH1 0x40 MLOAD DUP1 SWAP2 SUB SWAP1 REVERT JUMPDEST PUSH0 PUSH20 0xFFFFFFFFFFFFFFFFFFFFFFFFFFFFFFFFFFFFFFFF AND DUP3 PUSH20 0xFFFFFFFFFFFFFFFFFFFFFFFFFFFFFFFFFFFFFFFF AND SUB PUSH2 0x1106 JUMPI PUSH0 PUSH1 0x40 MLOAD PUSH32 0xEC442F0500000000000000000000000000000000000000000000000000000000 DUP2 MSTORE PUSH1 0x4 ADD PUSH2 0x10FD SWAP2 SWAP1 PUSH2 0x1DC7 JUMP JUMPDEST PUSH1 0x40 MLOAD DUP1 SWAP2 SUB SWAP1 REVERT JUMPDEST PUSH2 0x1111 DUP4 DUP4 DUP4 PUSH2 0x1573 JUMP JUMPDEST POP POP POP JUMP JUMPDEST PUSH2 0x111E PUSH2 0xF7B JUMP JUMPDEST PUSH20 0xFFFFFFFFFFFFFFFFFFFFFFFFFFFFFFFFFFFFFFFF AND PUSH2 0x113C PUSH2 0x941 JUMP JUMPDEST PUSH20 0xFFFFFFFFFFFFFFFFFFFFFFFFFFFFFFFFFFFFFFFF AND EQ PUSH2 0x119B JUMPI PUSH2 0x115F PUSH2 0xF7B JUMP JUMPDEST PUSH1 0x40 MLOAD PUSH32 0x118CDAA700000000000000000000000000000000000000000000000000000000 DUP2 MSTORE PUSH1 0x4 ADD PUSH2 0x1192 SWAP2 SWAP1 PUSH2 0x1DC7 JUMP JUMPDEST PUSH1 0x40 MLOAD DUP1 SWAP2 SUB SWAP1 REVERT JUMPDEST JUMP JUMPDEST PUSH2 0x11A5 PUSH2 0x16BF JUMP JUMPDEST PUSH0 PUSH1 0x5 PUSH0 PUSH2 0x100 EXP DUP2 SLOAD DUP2 PUSH1 0xFF MUL NOT AND SWAP1 DUP4 ISZERO ISZERO MUL OR SWAP1 SSTORE POP PUSH32 0x5DB9EE0A495BF2E6FF9C91A7834C1BA4FDD244A5E8AA4E537BD38AEAE4B073AA PUSH2 0x11E7 PUSH2 0xF7B JUMP JUMPDEST PUSH1 0x40 MLOAD PUSH2 0x11F4 SWAP2 SWAP1 PUSH2 0x1DC7 JUMP JUMPDEST PUSH1 0x40 MLOAD DUP1 SWAP2 SUB SWAP1 LOG1 JUMP JUMPDEST PUSH0 PUSH20 0xFFFFFFFFFFFFFFFFFFFFFFFFFFFFFFFFFFFFFFFF AND DUP3 PUSH20 0xFFFFFFFFFFFFFFFFFFFFFFFFFFFFFFFFFFFFFFFF AND SUB PUSH2 0x126E JUMPI PUSH0 PUSH1 0x40 MLOAD PUSH32 0x96C6FD1E00000000000000000000000000000000000000000000000000000000 DUP2 MSTORE PUSH1 0x4 ADD PUSH2 0x1265 SWAP2 SWAP1 PUSH2 0x1DC7 JUMP JUMPDEST PUSH1 0x40 MLOAD DUP1 SWAP2 SUB SWAP1 REVERT JUMPDEST PUSH2 0x1279 DUP3 PUSH0 DUP4 PUSH2 0x1573 JUMP JUMPDEST POP POP JUMP JUMPDEST PUSH0 PUSH1 0x5 PUSH1 0x1 SWAP1 SLOAD SWAP1 PUSH2 0x100 EXP SWAP1 DIV PUSH20 0xFFFFFFFFFFFFFFFFFFFFFFFFFFFFFFFFFFFFFFFF AND SWAP1 POP DUP2 PUSH1 0x5 PUSH1 0x1 PUSH2 0x100 EXP DUP2 SLOAD DUP2 PUSH20 0xFFFFFFFFFFFFFFFFFFFFFFFFFFFFFFFFFFFFFFFF MUL NOT AND SWAP1 DUP4 PUSH20 0xFFFFFFFFFFFFFFFFFFFFFFFFFFFFFFFFFFFFFFFF AND MUL OR SWAP1 SSTORE POP DUP2 PUSH20 0xFFFFFFFFFFFFFFFFFFFFFFFFFFFFFFFFFFFFFFFF AND DUP2 PUSH20 0xFFFFFFFFFFFFFFFFFFFFFFFFFFFFFFFFFFFFFFFF AND PUSH32 0x8BE0079C531659141344CD1FD0A4F28419497F9722A3DAAFE3B4186F6B6457E0 PUSH1 0x40 MLOAD PUSH1 0x40 MLOAD DUP1 SWAP2 SUB SWAP1 LOG3 POP POP JUMP JUMPDEST PUSH2 0x134A PUSH2 0x1708 JUMP JUMPDEST PUSH1 0x1 PUSH1 0x5 PUSH0 PUSH2 0x100 EXP DUP2 SLOAD DUP2 PUSH1 0xFF MUL NOT AND SWAP1 DUP4 ISZERO ISZERO MUL OR SWAP1 SSTORE POP PUSH32 0x62E78CEA01BEE320CD4E420270B5EA74000D11B0C9F74754EBDBFC544B05A258 PUSH2 0x138D PUSH2 0xF7B JUMP JUMPDEST PUSH1 0x40 MLOAD PUSH2 0x139A SWAP2 SWAP1 PUSH2 0x1DC7 JUMP JUMPDEST PUSH1 0x40 MLOAD DUP1 SWAP2 SUB SWAP1 LOG1 JUMP JUMPDEST PUSH0 PUSH20 0xFFFFFFFFFFFFFFFFFFFFFFFFFFFFFFFFFFFFFFFF AND DUP5 PUSH20 0xFFFFFFFFFFFFFFFFFFFFFFFFFFFFFFFFFFFFFFFF AND SUB PUSH2 0x1414 JUMPI PUSH0 PUSH1 0x40 MLOAD PUSH32 0xE602DF0500000000000000000000000000000000000000000000000000000000 DUP2 MSTORE PUSH1 0x4 ADD PUSH2 0x140B SWAP2 SWAP1 PUSH2 0x1DC7 JUMP JUMPDEST PUSH1 0x40 MLOAD DUP1 SWAP2 SUB SWAP1 REVERT JUMPDEST PUSH0 PUSH20 0xFFFFFFFFFFFFFFFFFFFFFFFFFFFFFFFFFFFFFFFF AND DUP4 PUSH20 0xFFFFFFFFFFFFFFFFFFFFFFFFFFFFFFFFFFFFFFFF AND SUB PUSH2 0x1484 JUMPI PUSH0 PUSH1 0x40 MLOAD PUSH32 0x94280D6200000000000000000000000000000000000000000000000000000000 DUP2 MSTORE PUSH1 0x4 ADD PUSH2 0x147B SWAP2 SWAP1 PUSH2 0x1DC7 JUMP JUMPDEST PUSH1 0x40 MLOAD DUP1 SWAP2 SUB SWAP1 REVERT JUMPDEST DUP2 PUSH1 0x1 PUSH0 DUP7 PUSH20 0xFFFFFFFFFFFFFFFFFFFFFFFFFFFFFFFFFFFFFFFF AND PUSH20 0xFFFFFFFFFFFFFFFFFFFFFFFFFFFFFFFFFFFFFFFF AND DUP2 MSTORE PUSH1 0x20 ADD SWAP1 DUP2 MSTORE PUSH1 0x20 ADD PUSH0 KECCAK256 PUSH0 DUP6 PUSH20 0xFFFFFFFFFFFFFFFFFFFFFFFFFFFFFFFFFFFFFFFF AND PUSH20 0xFFFFFFFFFFFFFFFFFFFFFFFFFFFFFFFFFFFFFFFF AND DUP2 MSTORE PUSH1 0x20 ADD SWAP1 DUP2 MSTORE PUSH1 0x20 ADD PUSH0 KECCAK256 DUP2 SWAP1 SSTORE POP DUP1 ISZERO PUSH2 0x156D JUMPI DUP3 PUSH20 0xFFFFFFFFFFFFFFFFFFFFFFFFFFFFFFFFFFFFFFFF AND DUP5 PUSH20 0xFFFFFFFFFFFFFFFFFFFFFFFFFFFFFFFFFFFFFFFF AND PUSH32 0x8C5BE1E5EBEC7D5BD14F71427D1E84F3DD0314C0F7B2291E5B200AC8C7C3B925 DUP5 PUSH1 0x40 MLOAD PUSH2 0x1564 SWAP2 SWAP1 PUSH2 0x1C75 JUMP JUMPDEST PUSH1 0x40 MLOAD DUP1 SWAP2 SUB SWAP1 LOG3 JUMPDEST POP POP POP POP JUMP JUMPDEST PUSH0 PUSH20 0xFFFFFFFFFFFFFFFFFFFFFFFFFFFFFFFFFFFFFFFF AND DUP4 PUSH20 0xFFFFFFFFFFFFFFFFFFFFFFFFFFFFFFFFFFFFFFFF AND EQ ISZERO DUP1 ISZERO PUSH2 0x15DB JUMPI POP PUSH0 PUSH20 0xFFFFFFFFFFFFFFFFFFFFFFFFFFFFFFFFFFFFFFFF AND DUP3 PUSH20 0xFFFFFFFFFFFFFFFFFFFFFFFFFFFFFFFFFFFFFFFF AND EQ ISZERO JUMPDEST ISZERO PUSH2 0x16AF JUMPI PUSH2 0x15E8 PUSH2 0x691 JUMP JUMPDEST ISZERO DUP1 PUSH2 0x1626 JUMPI POP PUSH2 0x15F7 PUSH2 0x941 JUMP JUMPDEST PUSH20 0xFFFFFFFFFFFFFFFFFFFFFFFFFFFFFFFFFFFFFFFF AND CALLER PUSH20 0xFFFFFFFFFFFFFFFFFFFFFFFFFFFFFFFFFFFFFFFF AND EQ JUMPDEST PUSH2 0x1665 JUMPI PUSH1 0x40 MLOAD PUSH32 0x8C379A000000000000000000000000000000000000000000000000000000000 DUP2 MSTORE PUSH1 0x4 ADD PUSH2 0x165C SWAP1 PUSH2 0x218D JUMP JUMPDEST PUSH1 0x40 MLOAD DUP1 SWAP2 SUB SWAP1 REVERT JUMPDEST PUSH2 0x166F DUP4 DUP3 PUSH2 0x1752 JUMP JUMPDEST PUSH2 0x16AE JUMPI PUSH1 0x40 MLOAD PUSH32 0x8C379A000000000000000000000000000000000000000000000000000000000 DUP2 MSTORE PUSH1 0x4 ADD PUSH2 0x16A5 SWAP1 PUSH2 0x221B JUMP JUMPDEST PUSH1 0x40 MLOAD DUP1 SWAP2 SUB SWAP1 REVERT JUMPDEST JUMPDEST PUSH2 0x16BA DUP4 DUP4 DUP4 PUSH2 0x18A1 JUMP JUMPDEST POP POP POP JUMP JUMPDEST PUSH2 0x16C7 PUSH2 0x691 JUMP JUMPDEST PUSH2 0x1706 JUMPI PUSH1 0x40 MLOAD PUSH32 0x8C379A000000000000000000000000000000000000000000000000000000000 DUP2 MSTORE PUSH1 0x4 ADD PUSH2 0x16FD SWAP1 PUSH2 0x2283 JUMP JUMPDEST PUSH1 0x40 MLOAD DUP1 SWAP2 SUB SWAP1 REVERT JUMPDEST JUMP JUMPDEST PUSH2 0x1710 PUSH2 0x691 JUMP JUMPDEST ISZERO PUSH2 0x1750 JUMPI PUSH1 0x40 MLOAD PUSH32 0x8C379A000000000000000000000000000000000000000000000000000000000 DUP2 MSTORE PUSH1 0x4 ADD PUSH2 0x1747 SWAP1 PUSH2 0x22EB JUMP JUMPDEST PUSH1 0x40 MLOAD DUP1 SWAP2 SUB SWAP1 REVERT JUMPDEST JUMP JUMPDEST PUSH0 DUP1 PUSH0 SWAP1 POP PUSH0 JUMPDEST PUSH1 0x7 PUSH0 DUP7 PUSH20 0xFFFFFFFFFFFFFFFFFFFFFFFFFFFFFFFFFFFFFFFF AND PUSH20 0xFFFFFFFFFFFFFFFFFFFFFFFFFFFFFFFFFFFFFFFF AND DUP2 MSTORE PUSH1 0x20 ADD SWAP1 DUP2 MSTORE PUSH1 0x20 ADD PUSH0 KECCAK256 DUP1 SLOAD SWAP1 POP DUP2 LT ISZERO PUSH2 0x1880 JUMPI TIMESTAMP PUSH1 0x7 PUSH0 DUP8 PUSH20 0xFFFFFFFFFFFFFFFFFFFFFFFFFFFFFFFFFFFFFFFF AND PUSH20 0xFFFFFFFFFFFFFFFFFFFFFFFFFFFFFFFFFFFFFFFF AND DUP2 MSTORE PUSH1 0x20 ADD SWAP1 DUP2 MSTORE PUSH1 0x20 ADD PUSH0 KECCAK256 DUP3 DUP2 SLOAD DUP2 LT PUSH2 0x17F1 JUMPI PUSH2 0x17F0 PUSH2 0x2013 JUMP JUMPDEST JUMPDEST SWAP1 PUSH0 MSTORE PUSH1 0x20 PUSH0 KECCAK256 SWAP1 PUSH1 0x2 MUL ADD PUSH1 0x1 ADD SLOAD GT ISZERO PUSH2 0x1873 JUMPI PUSH1 0x7 PUSH0 DUP7 PUSH20 0xFFFFFFFFFFFFFFFFFFFFFFFFFFFFFFFFFFFFFFFF AND PUSH20 0xFFFFFFFFFFFFFFFFFFFFFFFFFFFFFFFFFFFFFFFF AND DUP2 MSTORE PUSH1 0x20 ADD SWAP1 DUP2 MSTORE PUSH1 0x20 ADD PUSH0 KECCAK256 DUP2 DUP2 SLOAD DUP2 LT PUSH2 0x1856 JUMPI PUSH2 0x1855 PUSH2 0x2013 JUMP JUMPDEST JUMPDEST SWAP1 PUSH0 MSTORE PUSH1 0x20 PUSH0 KECCAK256 SWAP1 PUSH1 0x2 MUL ADD PUSH0 ADD SLOAD DUP3 PUSH2 0x1870 SWAP2 SWAP1 PUSH2 0x1EA8 JUMP JUMPDEST SWAP2 POP JUMPDEST DUP1 DUP1 PUSH1 0x1 ADD SWAP2 POP POP PUSH2 0x1759 JUMP JUMPDEST POP DUP3 DUP2 PUSH2 0x188C DUP7 PUSH2 0x78A JUMP JUMPDEST PUSH2 0x1896 SWAP2 SWAP1 PUSH2 0x2040 JUMP JUMPDEST LT ISZERO SWAP2 POP POP SWAP3 SWAP2 POP POP JUMP JUMPDEST PUSH0 PUSH20 0xFFFFFFFFFFFFFFFFFFFFFFFFFFFFFFFFFFFFFFFF AND DUP4 PUSH20 0xFFFFFFFFFFFFFFFFFFFFFFFFFFFFFFFFFFFFFFFF AND SUB PUSH2 0x18F1 JUMPI DUP1 PUSH1 0x2 PUSH0 DUP3 DUP3 SLOAD PUSH2 0x18E5 SWAP2 SWAP1 PUSH2 0x1EA8 JUMP JUMPDEST SWAP3 POP POP DUP2 SWAP1 SSTORE POP PUSH2 0x19BF JUMP JUMPDEST PUSH0 DUP1 PUSH0 DUP6 PUSH20 0xFFFFFFFFFFFFFFFFFFFFFFFFFFFFFFFFFFFFFFFF AND PUSH20 0xFFFFFFFFFFFFFFFFFFFFFFFFFFFFFFFFFFFFFFFF AND DUP2 MSTORE PUSH1 0x20 ADD SWAP1 DUP2 MSTORE PUSH1 0x20 ADD PUSH0 KECCAK256 SLOAD SWAP1 POP DUP2 DUP2 LT ISZERO PUSH2 0x197A JUMPI DUP4 DUP2 DUP4 PUSH1 0x40 MLOAD PUSH32 0xE450D38C00000000000000000000000000000000000000000000000000000000 DUP2 MSTORE PUSH1 0x4 ADD PUSH2 0x1971 SWAP4 SWAP3 SWAP2 SWAP1 PUSH2 0x210E JUMP JUMPDEST PUSH1 0x40 MLOAD DUP1 SWAP2 SUB SWAP1 REVERT JUMPDEST DUP2 DUP2 SUB PUSH0 DUP1 DUP7 PUSH20 0xFFFFFFFFFFFFFFFFFFFFFFFFFFFFFFFFFFFFFFFF AND PUSH20 0xFFFFFFFFFFFFFFFFFFFFFFFFFFFFFFFFFFFFFFFF AND DUP2 MSTORE PUSH1 0x20 ADD SWAP1 DUP2 MSTORE PUSH1 0x20 ADD PUSH0 KECCAK256 DUP2 SWAP1 SSTORE POP POP JUMPDEST PUSH0 PUSH20 0xFFFFFFFFFFFFFFFFFFFFFFFFFFFFFFFFFFFFFFFF AND DUP3 PUSH20 0xFFFFFFFFFFFFFFFFFFFFFFFFFFFFFFFFFFFFFFFF AND SUB PUSH2 0x1A06 JUMPI DUP1 PUSH1 0x2 PUSH0 DUP3 DUP3 SLOAD SUB SWAP3 POP POP DUP2 SWAP1 SSTORE POP PUSH2 0x1A50 JUMP JUMPDEST DUP1 PUSH0 DUP1 DUP5 PUSH20 0xFFFFFFFFFFFFFFFFFFFFFFFFFFFFFFFFFFFFFFFF AND PUSH20 0xFFFFFFFFFFFFFFFFFFFFFFFFFFFFFFFFFFFFFFFF AND DUP2 MSTORE PUSH1 0x20 ADD SWAP1 DUP2 MSTORE PUSH1 0x20 ADD PUSH0 KECCAK256 PUSH0 DUP3 DUP3 SLOAD ADD SWAP3 POP POP DUP2 SWAP1 SSTORE POP JUMPDEST DUP2 PUSH20 0xFFFFFFFFFFFFFFFFFFFFFFFFFFFFFFFFFFFFFFFF AND DUP4 PUSH20 0xFFFFFFFFFFFFFFFFFFFFFFFFFFFFFFFFFFFFFFFF AND PUSH32 0xDDF252AD1BE2C89B69C2B068FC378DAA952BA7F163C4A11628F55A4DF523B3EF DUP4 PUSH1 0x40 MLOAD PUSH2 0x1AAD SWAP2 SWAP1 PUSH2 0x1C75 JUMP JUMPDEST PUSH1 0x40 MLOAD DUP1 SWAP2 SUB SWAP1 LOG3 POP POP POP JUMP JUMPDEST PUSH0 DUP2 MLOAD SWAP1 POP SWAP2 SWAP1 POP JUMP JUMPDEST PUSH0 DUP3 DUP3 MSTORE PUSH1 0x20 DUP3 ADD SWAP1 POP SWAP3 SWAP2 POP POP JUMP JUMPDEST PUSH0 JUMPDEST DUP4 DUP2 LT ISZERO PUSH2 0x1AF1 JUMPI DUP1 DUP3 ADD MLOAD DUP2 DUP5 ADD MSTORE PUSH1 0x20 DUP2 ADD SWAP1 POP PUSH2 0x1AD6 JUMP JUMPDEST PUSH0 DUP5 DUP5 ADD MSTORE POP POP POP POP JUMP JUMPDEST PUSH0 PUSH1 0x1F NOT PUSH1 0x1F DUP4 ADD AND SWAP1 POP SWAP2 SWAP1 POP JUMP JUMPDEST PUSH0 PUSH2 0x1B16 DUP3 PUSH2 0x1ABA JUMP JUMPDEST PUSH2 0x1B20 DUP2 DUP6 PUSH2 0x1AC4 JUMP JUMPDEST SWAP4 POP PUSH2 0x1B30 DUP2 DUP6 PUSH1 0x20 DUP7 ADD PUSH2 0x1AD4 JUMP JUMPDEST PUSH2 0x1B39 DUP2 PUSH2 0x1AFC JUMP JUMPDEST DUP5 ADD SWAP2 POP POP SWAP3 SWAP2 POP POP JUMP JUMPDEST PUSH0 PUSH1 0x20 DUP3 ADD SWAP1 POP DUP2 DUP2 SUB PUSH0 DUP4 ADD MSTORE PUSH2 0x1B5C DUP2 DUP5 PUSH2 0x1B0C JUMP JUMPDEST SWAP1 POP SWAP3 SWAP2 POP POP JUMP JUMPDEST PUSH0 DUP1 REVERT JUMPDEST PUSH0 PUSH20 0xFFFFFFFFFFFFFFFFFFFFFFFFFFFFFFFFFFFFFFFF DUP3 AND SWAP1 POP SWAP2 SWAP1 POP JUMP JUMPDEST PUSH0 PUSH2 0x1B91 DUP3 PUSH2 0x1B68 JUMP JUMPDEST SWAP1 POP SWAP2 SWAP1 POP JUMP JUMPDEST PUSH2 0x1BA1 DUP2 PUSH2 0x1B87 JUMP JUMPDEST DUP2 EQ PUSH2 0x1BAB JUMPI PUSH0 DUP1 REVERT JUMPDEST POP JUMP JUMPDEST PUSH0 DUP2 CALLDATALOAD SWAP1 POP PUSH2 0x1BBC DUP2 PUSH2 0x1B98 JUMP JUMPDEST SWAP3 SWAP2 POP POP JUMP JUMPDEST PUSH0 DUP2 SWAP1 POP SWAP2 SWAP1 POP JUMP JUMPDEST PUSH2 0x1BD4 DUP2 PUSH2 0x1BC2 JUMP JUMPDEST DUP2 EQ PUSH2 0x1BDE JUMPI PUSH0 DUP1 REVERT JUMPDEST POP JUMP JUMPDEST PUSH0 DUP2 CALLDATALOAD SWAP1 POP PUSH2 0x1BEF DUP2 PUSH2 0x1BCB JUMP JUMPDEST SWAP3 SWAP2 POP POP JUMP JUMPDEST PUSH0 DUP1 PUSH1 0x40 DUP4 DUP6 SUB SLT ISZERO PUSH2 0x1C0B JUMPI PUSH2 0x1C0A PUSH2 0x1B64 JUMP JUMPDEST JUMPDEST PUSH0 PUSH2 0x1C18 DUP6 DUP3 DUP7 ADD PUSH2 0x1BAE JUMP JUMPDEST SWAP3 POP POP PUSH1 0x20 PUSH2 0x1C29 DUP6 DUP3 DUP7 ADD PUSH2 0x1BE1 JUMP JUMPDEST SWAP2 POP POP SWAP3 POP SWAP3 SWAP1 POP JUMP JUMPDEST PUSH0 DUP2 ISZERO ISZERO SWAP1 POP SWAP2 SWAP1 POP JUMP JUMPDEST PUSH2 0x1C47 DUP2 PUSH2 0x1C33 JUMP JUMPDEST DUP3 MSTORE POP POP JUMP JUMPDEST PUSH0 PUSH1 0x20 DUP3 ADD SWAP1 POP PUSH2 0x1C60 PUSH0 DUP4 ADD DUP5 PUSH2 0x1C3E JUMP JUMPDEST SWAP3 SWAP2 POP POP JUMP JUMPDEST PUSH2 0x1C6F DUP2 PUSH2 0x1BC2 JUMP JUMPDEST DUP3 MSTORE POP POP JUMP JUMPDEST PUSH0 PUSH1 0x20 DUP3 ADD SWAP1 POP PUSH2 0x1C88 PUSH0 DUP4 ADD DUP5 PUSH2 0x1C66 JUMP JUMPDEST SWAP3 SWAP2 POP POP JUMP JUMPDEST PUSH0 DUP1 PUSH0 PUSH1 0x60 DUP5 DUP7 SUB SLT ISZERO PUSH2 0x1CA5 JUMPI PUSH2 0x1CA4 PUSH2 0x1B64 JUMP JUMPDEST JUMPDEST PUSH0 PUSH2 0x1CB2 DUP7 DUP3 DUP8 ADD PUSH2 0x1BAE JUMP JUMPDEST SWAP4 POP POP PUSH1 0x20 PUSH2 0x1CC3 DUP7 DUP3 DUP8 ADD PUSH2 0x1BAE JUMP JUMPDEST SWAP3 POP POP PUSH1 0x40 PUSH2 0x1CD4 DUP7 DUP3 DUP8 ADD PUSH2 0x1BE1 JUMP JUMPDEST SWAP2 POP POP SWAP3 POP SWAP3 POP SWAP3 JUMP JUMPDEST PUSH0 PUSH1 0xFF DUP3 AND SWAP1 POP SWAP2 SWAP1 POP JUMP JUMPDEST PUSH2 0x1CF3 DUP2 PUSH2 0x1CDE JUMP JUMPDEST DUP3 MSTORE POP POP JUMP JUMPDEST PUSH0 PUSH1 0x20 DUP3 ADD SWAP1 POP PUSH2 0x1D0C PUSH0 DUP4 ADD DUP5 PUSH2 0x1CEA JUMP JUMPDEST SWAP3 SWAP2 POP POP JUMP JUMPDEST PUSH0 DUP1 PUSH0 PUSH1 0x60 DUP5 DUP7 SUB SLT ISZERO PUSH2 0x1D29 JUMPI PUSH2 0x1D28 PUSH2 0x1B64 JUMP JUMPDEST JUMPDEST PUSH0 PUSH2 0x1D36 DUP7 DUP3 DUP8 ADD PUSH2 0x1BAE JUMP JUMPDEST SWAP4 POP POP PUSH1 0x20 PUSH2 0x1D47 DUP7 DUP3 DUP8 ADD PUSH2 0x1BE1 JUMP JUMPDEST SWAP3 POP POP PUSH1 0x40 PUSH2 0x1D58 DUP7 DUP3 DUP8 ADD PUSH2 0x1BE1 JUMP JUMPDEST SWAP2 POP POP SWAP3 POP SWAP3 POP SWAP3 JUMP JUMPDEST PUSH0 PUSH1 0x20 DUP3 DUP5 SUB SLT ISZERO PUSH2 0x1D77 JUMPI PUSH2 0x1D76 PUSH2 0x1B64 JUMP JUMPDEST JUMPDEST PUSH0 PUSH2 0x1D84 DUP5 DUP3 DUP6 ADD PUSH2 0x1BE1 JUMP JUMPDEST SWAP2 POP POP SWAP3 SWAP2 POP POP JUMP JUMPDEST PUSH0 PUSH1 0x20 DUP3 DUP5 SUB SLT ISZERO PUSH2 0x1DA2 JUMPI PUSH2 0x1DA1 PUSH2 0x1B64 JUMP JUMPDEST JUMPDEST PUSH0 PUSH2 0x1DAF DUP5 DUP3 DUP6 ADD PUSH2 0x1BAE JUMP JUMPDEST SWAP2 POP POP SWAP3 SWAP2 POP POP JUMP JUMPDEST PUSH2 0x1DC1 DUP2 PUSH2 0x1B87 JUMP JUMPDEST DUP3 MSTORE POP POP JUMP JUMPDEST PUSH0 PUSH1 0x20 DUP3 ADD SWAP1 POP PUSH2 0x1DDA PUSH0 DUP4 ADD DUP5 PUSH2 0x1DB8 JUMP JUMPDEST SWAP3 SWAP2 POP POP JUMP JUMPDEST PUSH0 DUP1 PUSH1 0x40 DUP4 DUP6 SUB SLT ISZERO PUSH2 0x1DF6 JUMPI PUSH2 0x1DF5 PUSH2 0x1B64 JUMP JUMPDEST JUMPDEST PUSH0 PUSH2 0x1E03 DUP6 DUP3 DUP7 ADD PUSH2 0x1BAE JUMP JUMPDEST SWAP3 POP POP PUSH1 0x20 PUSH2 0x1E14 DUP6 DUP3 DUP7 ADD PUSH2 0x1BAE JUMP JUMPDEST SWAP2 POP POP SWAP3 POP SWAP3 SWAP1 POP JUMP JUMPDEST PUSH32 0x4E487B7100000000000000000000000000000000000000000000000000000000 PUSH0 MSTORE PUSH1 0x22 PUSH1 0x4 MSTORE PUSH1 0x24 PUSH0 REVERT JUMPDEST PUSH0 PUSH1 0x2 DUP3 DIV SWAP1 POP PUSH1 0x1 DUP3 AND DUP1 PUSH2 0x1E62 JUMPI PUSH1 0x7F DUP3 AND SWAP2 POP JUMPDEST PUSH1 0x20 DUP3 LT DUP2 SUB PUSH2 0x1E75 JUMPI PUSH2 0x1E74 PUSH2 0x1E1E JUMP JUMPDEST JUMPDEST POP SWAP2 SWAP1 POP JUMP JUMPDEST PUSH32 0x4E487B7100000000000000000000000000000000000000000000000000000000 PUSH0 MSTORE PUSH1 0x11 PUSH1 0x4 MSTORE PUSH1 0x24 PUSH0 REVERT JUMPDEST PUSH0 PUSH2 0x1EB2 DUP3 PUSH2 0x1BC2 JUMP JUMPDEST SWAP2 POP PUSH2 0x1EBD DUP4 PUSH2 0x1BC2 JUMP JUMPDEST SWAP3 POP DUP3 DUP3 ADD SWAP1 POP DUP1 DUP3 GT ISZERO PUSH2 0x1ED5 JUMPI PUSH2 0x1ED4 PUSH2 0x1E7B JUMP JUMPDEST JUMPDEST SWAP3 SWAP2 POP POP JUMP JUMPDEST PUSH32 0x4163636F756E74206973206E6F742066726F7A656E0000000000000000000000 PUSH0 DUP3 ADD MSTORE POP JUMP JUMPDEST PUSH0 PUSH2 0x1F0F PUSH1 0x15 DUP4 PUSH2 0x1AC4 JUMP JUMPDEST SWAP2 POP PUSH2 0x1F1A DUP3 PUSH2 0x1EDB JUMP JUMPDEST PUSH1 0x20 DUP3 ADD SWAP1 POP SWAP2 SWAP1 POP JUMP JUMPDEST PUSH0 PUSH1 0x20 DUP3 ADD SWAP1 POP DUP2 DUP2 SUB PUSH0 DUP4 ADD MSTORE PUSH2 0x1F3C DUP2 PUSH2 0x1F03 JUMP JUMPDEST SWAP1 POP SWAP2 SWAP1 POP JUMP JUMPDEST PUSH32 0x496E73756666696369656E742062616C616E6365000000000000000000000000 PUSH0 DUP3 ADD MSTORE POP JUMP JUMPDEST PUSH0 PUSH2 0x1F77 PUSH1 0x14 DUP4 PUSH2 0x1AC4 JUMP JUMPDEST SWAP2 POP PUSH2 0x1F82 DUP3 PUSH2 0x1F43 JUMP JUMPDEST PUSH1 0x20 DUP3 ADD SWAP1 POP SWAP2 SWAP1 POP JUMP JUMPDEST PUSH0 PUSH1 0x20 DUP3 ADD SWAP1 POP DUP2 DUP2 SUB PUSH0 DUP4 ADD MSTORE PUSH2 0x1FA4 DUP2 PUSH2 0x1F6B JUMP JUMPDEST SWAP1 POP SWAP2 SWAP1 POP JUMP JUMPDEST PUSH32 0x4163636F756E7420697320616C72656164792066726F7A656E00000000000000 PUSH0 DUP3 ADD MSTORE POP JUMP JUMPDEST PUSH0 PUSH2 0x1FDF PUSH1 0x19 DUP4 PUSH2 0x1AC4 JUMP JUMPDEST SWAP2 POP PUSH2 0x1FEA DUP3 PUSH2 0x1FAB JUMP JUMPDEST PUSH1 0x20 DUP3 ADD SWAP1 POP SWAP2 SWAP1 POP JUMP JUMPDEST PUSH0 PUSH1 0x20 DUP3 ADD SWAP1 POP DUP2 DUP2 SUB PUSH0 DUP4 ADD MSTORE PUSH2 0x200C DUP2 PUSH2 0x1FD3 JUMP JUMPDEST SWAP1 POP SWAP2 SWAP1 POP JUMP JUMPDEST PUSH32 0x4E487B7100000000000000000000000000000000000000000000000000000000 PUSH0 MSTORE PUSH1 0x32 PUSH1 0x4 MSTORE PUSH1 0x24 PUSH0 REVERT JUMPDEST PUSH0 PUSH2 0x204A DUP3 PUSH2 0x1BC2 JUMP JUMPDEST SWAP2 POP PUSH2 0x2055 DUP4 PUSH2 0x1BC2 JUMP JUMPDEST SWAP3 POP DUP3 DUP3 SUB SWAP1 POP DUP2 DUP2 GT ISZERO PUSH2 0x206D JUMPI PUSH2 0x206C PUSH2 0x1E7B JUMP JUMPDEST JUMPDEST SWAP3 SWAP2 POP POP JUMP JUMPDEST PUSH32 0x4E487B7100000000000000000000000000000000000000000000000000000000 PUSH0 MSTORE PUSH1 0x31 PUSH1 0x4 MSTORE PUSH1 0x24 PUSH0 REVERT JUMPDEST PUSH0 PUSH2 0x20AA DUP3 PUSH2 0x1BC2 JUMP JUMPDEST SWAP2 POP PUSH0 DUP3 SUB PUSH2 0x20BC JUMPI PUSH2 0x20BB PUSH2 0x1E7B JUMP JUMPDEST JUMPDEST PUSH1 0x1 DUP3 SUB SWAP1 POP SWAP2 SWAP1 POP JUMP JUMPDEST PUSH0 PUSH2 0x20D1 DUP3 PUSH2 0x1BC2 JUMP JUMPDEST SWAP2 POP PUSH32 0xFFFFFFFFFFFFFFFFFFFFFFFFFFFFFFFFFFFFFFFFFFFFFFFFFFFFFFFFFFFFFFFF DUP3 SUB PUSH2 0x2103 JUMPI PUSH2 0x2102 PUSH2 0x1E7B JUMP JUMPDEST JUMPDEST PUSH1 0x1 DUP3 ADD SWAP1 POP SWAP2 SWAP1 POP JUMP JUMPDEST PUSH0 PUSH1 0x60 DUP3 ADD SWAP1 POP PUSH2 0x2121 PUSH0 DUP4 ADD DUP7 PUSH2 0x1DB8 JUMP JUMPDEST PUSH2 0x212E PUSH1 0x20 DUP4 ADD DUP6 PUSH2 0x1C66 JUMP JUMPDEST PUSH2 0x213B PUSH1 0x40 DUP4 ADD DUP5 PUSH2 0x1C66 JUMP JUMPDEST SWAP5 SWAP4 POP POP POP POP JUMP JUMPDEST PUSH32 0x546F6B656E207472616E73666572207768696C65207061757365640000000000 PUSH0 DUP3 ADD MSTORE POP JUMP JUMPDEST PUSH0 PUSH2 0x2177 PUSH1 0x1B DUP4 PUSH2 0x1AC4 JUMP JUMPDEST SWAP2 POP PUSH2 0x2182 DUP3 PUSH2 0x2143 JUMP JUMPDEST PUSH1 0x20 DUP3 ADD SWAP1 POP SWAP2 SWAP1 POP JUMP JUMPDEST PUSH0 PUSH1 0x20 DUP3 ADD SWAP1 POP DUP2 DUP2 SUB PUSH0 DUP4 ADD MSTORE PUSH2 0x21A4 DUP2 PUSH2 0x216B JUMP JUMPDEST SWAP1 POP SWAP2 SWAP1 POP JUMP JUMPDEST PUSH32 0x45524332304C6F636B61626C653A207472616E7366657220616D6F756E742065 PUSH0 DUP3 ADD MSTORE PUSH32 0x78636565647320756E6C6F636B65642062616C616E6365000000000000000000 PUSH1 0x20 DUP3 ADD MSTORE POP JUMP JUMPDEST PUSH0 PUSH2 0x2205 PUSH1 0x37 DUP4 PUSH2 0x1AC4 JUMP JUMPDEST SWAP2 POP PUSH2 0x2210 DUP3 PUSH2 0x21AB JUMP JUMPDEST PUSH1 0x40 DUP3 ADD SWAP1 POP SWAP2 SWAP1 POP JUMP JUMPDEST PUSH0 PUSH1 0x20 DUP3 ADD SWAP1 POP DUP2 DUP2 SUB PUSH0 DUP4 ADD MSTORE PUSH2 0x2232 DUP2 PUSH2 0x21F9 JUMP JUMPDEST SWAP1 POP SWAP2 SWAP1 POP JUMP JUMPDEST PUSH32 0x5061757361626C653A206E6F7420706175736564000000000000000000000000 PUSH0 DUP3 ADD MSTORE POP JUMP JUMPDEST PUSH0 PUSH2 0x226D PUSH1 0x14 DUP4 PUSH2 0x1AC4 JUMP JUMPDEST SWAP2 POP PUSH2 0x2278 DUP3 PUSH2 0x2239 JUMP JUMPDEST PUSH1 0x20 DUP3 ADD SWAP1 POP SWAP2 SWAP1 POP JUMP JUMPDEST PUSH0 PUSH1 0x20 DUP3 ADD SWAP1 POP DUP2 DUP2 SUB PUSH0 DUP4 ADD MSTORE PUSH2 0x229A DUP2 PUSH2 0x2261 JUMP JUMPDEST SWAP1 POP SWAP2 SWAP1 POP JUMP JUMPDEST PUSH32 0x5061757361626C653A2070617573656400000000000000000000000000000000 PUSH0 DUP3 ADD MSTORE POP JUMP JUMPDEST PUSH0 PUSH2 0x22D5 PUSH1 0x10 DUP4 PUSH2 0x1AC4 JUMP JUMPDEST SWAP2 POP PUSH2 0x22E0 DUP3 PUSH2 0x22A1 JUMP JUMPDEST PUSH1 0x20 DUP3 ADD SWAP1 POP SWAP2 SWAP1 POP JUMP JUMPDEST PUSH0 PUSH1 0x20 DUP3 ADD SWAP1 POP DUP2 DUP2 SUB PUSH0 DUP4 ADD MSTORE PUSH2 0x2302 DUP2 PUSH2 0x22C9 JUMP JUMPDEST SWAP1 POP SWAP2 SWAP1 POP JUMP INVALID LOG2 PUSH5 0x6970667358 0x22 SLT KECCAK256 0xE8 SAR PUSH27 0xEE37D517397E27FC9FF23BD79A1E0B291111471D9D1B03B30972E7 0xDF 0xD9 PUSH5 0x736F6C6343 STOP ADDMOD XOR STOP CALLER "
				},
				"gasEstimates": {
					"creation": {
						"codeDepositCost": "1804600",
						"executionCost": "infinite",
						"totalCost": "infinite"
					},
					"external": {
						"allowance(address,address)": "infinite",
						"approve(address,uint256)": "infinite",
						"balanceOf(address)": "2852",
						"burn(uint256)": "infinite",
						"burnFrom(address,uint256)": "infinite",
						"decimals()": "450",
						"freeze(address)": "infinite",
						"getLockedAmount(address)": "infinite",
						"lockup(address,uint256,uint256)": "infinite",
						"name()": "infinite",
						"owner()": "2699",
						"pause()": "infinite",
						"paused()": "2584",
						"releaseLock(address)": "infinite",
						"renounceOwnership()": "infinite",
						"symbol()": "infinite",
						"totalSupply()": "2500",
						"transfer(address,uint256)": "infinite",
						"transferFrom(address,address,uint256)": "infinite",
						"transferOwnership(address)": "infinite",
						"transferWithLockUp(address,uint256,uint256)": "infinite",
						"unfreeze(address)": "infinite",
						"unpause()": "infinite"
					},
					"internal": {
						"_checkLock(address,uint256)": "infinite",
						"_update(address,address,uint256)": "infinite"
					}
				},
				"methodIdentifiers": {
					"allowance(address,address)": "dd62ed3e",
					"approve(address,uint256)": "095ea7b3",
					"balanceOf(address)": "70a08231",
					"burn(uint256)": "42966c68",
					"burnFrom(address,uint256)": "79cc6790",
					"decimals()": "313ce567",
					"freeze(address)": "8d1fdf2f",
					"getLockedAmount(address)": "929ec537",
					"lockup(address,uint256,uint256)": "5e1372f4",
					"name()": "06fdde03",
					"owner()": "8da5cb5b",
					"pause()": "8456cb59",
					"paused()": "5c975abb",
					"releaseLock(address)": "d1c46916",
					"renounceOwnership()": "715018a6",
					"symbol()": "95d89b41",
					"totalSupply()": "18160ddd",
					"transfer(address,uint256)": "a9059cbb",
					"transferFrom(address,address,uint256)": "23b872dd",
					"transferOwnership(address)": "f2fde38b",
					"transferWithLockUp(address,uint256,uint256)": "38b82092",
					"unfreeze(address)": "45c8b1a6",
					"unpause()": "3f4ba83a"
				}
			},
			"storageLayout": {
				"storage": [
					{
						"astId": 530,
						"contract": "constracts/HealthMediToken_flattened.sol:HMEDERC20Token",
						"label": "_balances",
						"offset": 0,
						"slot": "0",
						"type": "t_mapping(t_address,t_uint256)"
					},
					{
						"astId": 536,
						"contract": "constracts/HealthMediToken_flattened.sol:HMEDERC20Token",
						"label": "_allowances",
						"offset": 0,
						"slot": "1",
						"type": "t_mapping(t_address,t_mapping(t_address,t_uint256))"
					},
					{
						"astId": 538,
						"contract": "constracts/HealthMediToken_flattened.sol:HMEDERC20Token",
						"label": "_totalSupply",
						"offset": 0,
						"slot": "2",
						"type": "t_uint256"
					},
					{
						"astId": 540,
						"contract": "constracts/HealthMediToken_flattened.sol:HMEDERC20Token",
						"label": "_name",
						"offset": 0,
						"slot": "3",
						"type": "t_string_storage"
					},
					{
						"astId": 542,
						"contract": "constracts/HealthMediToken_flattened.sol:HMEDERC20Token",
						"label": "_symbol",
						"offset": 0,
						"slot": "4",
						"type": "t_string_storage"
					},
					{
						"astId": 326,
						"contract": "constracts/HealthMediToken_flattened.sol:HMEDERC20Token",
						"label": "_paused",
						"offset": 0,
						"slot": "5",
						"type": "t_bool"
					},
					{
						"astId": 171,
						"contract": "constracts/HealthMediToken_flattened.sol:HMEDERC20Token",
						"label": "_owner",
						"offset": 1,
						"slot": "5",
						"type": "t_address"
					},
					{
						"astId": 1095,
						"contract": "constracts/HealthMediToken_flattened.sol:HMEDERC20Token",
						"label": "frozenAccounts",
						"offset": 0,
						"slot": "6",
						"type": "t_mapping(t_address,t_bool)"
					},
					{
						"astId": 1101,
						"contract": "constracts/HealthMediToken_flattened.sol:HMEDERC20Token",
						"label": "_locks",
						"offset": 0,
						"slot": "7",
						"type": "t_mapping(t_address,t_array(t_struct(LockInfo)1079_storage)dyn_storage)"
					}
				],
				"types": {
					"t_address": {
						"encoding": "inplace",
						"label": "address",
						"numberOfBytes": "20"
					},
					"t_array(t_struct(LockInfo)1079_storage)dyn_storage": {
						"base": "t_struct(LockInfo)1079_storage",
						"encoding": "dynamic_array",
						"label": "struct HMEDERC20Token.LockInfo[]",
						"numberOfBytes": "32"
					},
					"t_bool": {
						"encoding": "inplace",
						"label": "bool",
						"numberOfBytes": "1"
					},
					"t_mapping(t_address,t_array(t_struct(LockInfo)1079_storage)dyn_storage)": {
						"encoding": "mapping",
						"key": "t_address",
						"label": "mapping(address => struct HMEDERC20Token.LockInfo[])",
						"numberOfBytes": "32",
						"value": "t_array(t_struct(LockInfo)1079_storage)dyn_storage"
					},
					"t_mapping(t_address,t_bool)": {
						"encoding": "mapping",
						"key": "t_address",
						"label": "mapping(address => bool)",
						"numberOfBytes": "32",
						"value": "t_bool"
					},
					"t_mapping(t_address,t_mapping(t_address,t_uint256))": {
						"encoding": "mapping",
						"key": "t_address",
						"label": "mapping(address => mapping(address => uint256))",
						"numberOfBytes": "32",
						"value": "t_mapping(t_address,t_uint256)"
					},
					"t_mapping(t_address,t_uint256)": {
						"encoding": "mapping",
						"key": "t_address",
						"label": "mapping(address => uint256)",
						"numberOfBytes": "32",
						"value": "t_uint256"
					},
					"t_string_storage": {
						"encoding": "bytes",
						"label": "string",
						"numberOfBytes": "32"
					},
					"t_struct(LockInfo)1079_storage": {
						"encoding": "inplace",
						"label": "struct HMEDERC20Token.LockInfo",
						"members": [
							{
								"astId": 1076,
								"contract": "constracts/HealthMediToken_flattened.sol:HMEDERC20Token",
								"label": "amount",
								"offset": 0,
								"slot": "0",
								"type": "t_uint256"
							},
							{
								"astId": 1078,
								"contract": "constracts/HealthMediToken_flattened.sol:HMEDERC20Token",
								"label": "releaseTime",
								"offset": 0,
								"slot": "1",
								"type": "t_uint256"
							}
						],
						"numberOfBytes": "64"
					},
					"t_uint256": {
						"encoding": "inplace",
						"label": "uint256",
						"numberOfBytes": "32"
					}
				}
			},
			"userdoc": {
				"kind": "user",
				"methods": {},
				"version": 1
			}
		}
	}
}